:020000040800F2
:10000000F808002079020008072600088B20000865
:10001000052600088D030008652A0008000000007E
:100020000000000000000000000000001F29000880
:100030008F0300080000000009260008212900089D
:10004000930200089302000893020008930200083C
:10005000930200089302000893020008930200082C
:10006000930200089302000893020008930200081C
:10007000930200089302000893020008930200080C
:1000800093020008000000008103000893020008AA
:1000900093020008930200089302000893020008EC
:1000A00093020008930200089302000893020008DC
:1000B00093020008930200089302000893020008CC
:1000C00093020008930200089302000893020008BC
:1000D00093020008930200089302000893020008AC
:1000E000930200089302000893020008930200089C
:1000F0009302000893020008930200080000000029
:1001000000000000930200080000000093020008B5
:10011000930200080000000093020008A9290008CB
:10012000930200089302000893020008930200085B
:100130009302000800000000000000009302000885
:100140009302000893020008000000000000000075
:10015000000000000000000000000000000000009F
:1001600000000000000000000000000093020008F2
:1001700093020008000000000000000000000000E2
:1001800000000000930200080000000000000000D2
:10019000000000000000000000000000000000005F
:1001A0000000000000000000930200089302000815
:1001B0009302000893020008930200080000000068
:1001C0000000000093020008000000000000000092
:1001D000930200089302000800F002F800F03CF8D7
:1001E0000AA090E8000C82448344AAF10107DA4592
:1001F00001D100F031F8AFF2090EBAE80F0013F0A8
:10020000010F18BFFB1A43F001031847602A0000D2
:10021000802A0000103A24BF78C878C1FAD8520763
:1002200024BF30C830C144BF04680C607047000070
:100230000023002400250026103A28BF78C1FBD8EF
:10024000520728BF30C148BF0B6070471FB502F08E
:10025000FFFC1FBD10B510BD00F058F81146FFF7A8
:10026000F5FF02F09FFC00F076F803B4FFF7F2FF11
:1002700003BC00F07DF800000948804709480047AA
:10028000FEE7FEE7FEE7FEE7FEE7FEE7FEE7FEE746
:10029000FEE7FEE704480549054A064B70470000A3
:1002A0008D290008D9010008F8020020F808002074
:1002B000F8040020F80400204FF0000200B51346B7
:1002C00094469646203922BFA0E80C50A0E80C5076
:1002D000B1F12001BFF4F7AF090728BFA0E80C5027
:1002E00048BF0CC05DF804EB890028BF40F8042B20
:1002F00008BF704748BF20F8022B11F0804F18BF8D
:1003000000F8012B7047704770477047754600F042
:100310002BF8AE4605006946534620F00700854697
:1003200018B020B5FFF7B6FFBDE820404FF000063B
:100330004FF000074FF000084FF0000B21F00701CD
:10034000AC46ACE8C009ACE8C009ACE8C009ACE810
:10035000C0098D46704710B50446AFF300802046B3
:10036000BDE81040FFF781BF0048704798020020A9
:1003700001491820ABBEFEE72600020070470000CE
:10038000014800F02DBA00002C000020FEE7704765
:10039000002240F6B83306E00021491C89B2994298
:1003A000FBD3521C92B28242F6D3704772B6FEE77C
:1003B0007047704770477047704700002DE9F84F4D
:1003C00000270446009790F85800DFF8DC930D46AC
:1003D000B846012811D0012684F85860206801F041
:1003E000EDFF60B1E06D40F02000E0655FF00107D7
:1003F00084F858803846BDE8F88F0220FBE7D5E93D
:1004000000210C23206803EA91131844036B01F0C8
:100410001F014FF01F0C0CFA01FCC2F3846223EAA7
:100420000C038A4013430363206801F0C7FF824630
:10043000206801F0BFFF5AEA00003CD1AA68296891
:100440002068B2F1004F37D001F0C4FF2068416945
:1004500021F00041416120686969C268C2F3C102AC
:10046000520091402A69042A31D000EB82002B68A7
:10047000026EDFF838C303F0F84302EA0C020B43C4
:100480001A4342F00041016622682869A96902EB1B
:100490008000026E22F080720A430266297F206883
:1004A0002A69012910D0002100EB8200026E22F09F
:1004B00000720A4302667DE0002201F08BFF206893
:1004C000416941F00041C5E74FF00071ECE70021C0
:1004D00001F06AFF400320684FF0000172D001F084
:1004E00063FF90FAA0F0B0FA80F1286842036ED062
:1004F00090FAA0F0B0FA80F0814204D100221146B7
:10050000206801F076FF0121206801F04DFF4003D3
:1005100020684FF001015DD001F046FF90FAA0F095
:10052000B0FA80F12868420359D090FAA0F0B0FAEE
:1005300080F0814204D100220121206801F059FF9E
:100540000221206801F030FF400320684FF00201D3
:1005500048D001F029FF90FAA0F0B0FA80F12868A5
:10056000420344D090FAA0F0B0FA80F0814204D166
:1005700000220221206801F03CFF0321206801F0E5
:1005800013FF400320684FF0030133D001F00CFF4C
:1005900090FAA0F0B0FA80F1286842032FD090FAC8
:1005A000A0F0B0FA80F0814204D10022032120683B
:1005B00001F01FFF2068816811F0010F22D0ACE02C
:1005C00000E004E001F0F0FEC0F384618DE7C0F3C9
:1005D000846091E701F0E8FEC0F38461A2E7C0F314
:1005E0008460A6E701F0E0FEC0F38461B7E7C0F3E2
:1005F0008460BBE701F0D8FEC0F38461CCE7C0F3B0
:100600008460D0E72A7B296850F8B03FC1F3120C10
:1006100023EA0C0302F0180C654A22FA0CF20A4095
:1006200013430360E968494577D1286841031CD02A
:1006300090FAA0F1B1FA81F1491C01F01F010929DA
:100640004FEA403132D8002912D000BF90FAA0F111
:10065000B1FA81F101F1010101F01F0106FA01F681
:1006600009D100BFC0F3846109E0C0F38461E3E70E
:10067000C0F38461EEE790FAA0F1B1FA81F101F1E3
:10068000010101F01F0146EA816102D1C0F38460DB
:1006900003E090FAA0F0B0FA80F000F1010000F061
:1006A0001F0000EB400041EA005132E000290ED06B
:1006B00090FAA0F1B1FA81F101F1010101F01F01FD
:1006C00006FA01F606D100BFC0F3846106E0C0F36C
:1006D0008461F1E790FAA0F1B1FA81F101F1010131
:1006E00001F01F0146EA816102D1C0F3846003E09A
:1006F00090FAA0F0B0FA80F000F1010000F01F00C5
:100700002C4A00EB400002EB005041EA000141F0AE
:100710000071AA68206801F05DFE27482A6802423D
:100720003FF466AE25488168254B01F0E0719A429E
:1007300002D0244B9A421BD10B0219D42268B2F189
:10074000A04F7FF455AE826841F4000122F0E072C0
:100750000A4382601C481D490068B0FBF1F000EBC1
:100760004000800000E0401E00900028FBD13FE6E2
:10077000174D184BAA4207D1CD0105D422689A42E1
:10078000F5D041F0807109E0134DAA42EFD14A0241
:10079000EDD422689A42EAD041F48001826822F0C6
:1007A000E0720A43826023E600007F4000F0FF030E
:1007B000FFFF0700000020FE00000880000300503B
:1007C000000021C31000C0900C000020400D030069
:1007D000000052C700010050000084CB70477047F2
:1007E0002DE9F05F0446006806684568DFF854B2FA
:1007F000DBF8080000F01F07B0070ED5A8070CD5DE
:10080000E06DC00603D4E06D40F40060E065204672
:10081000FFF7CEFD216802200860DFF82CA27007E8
:100820004FF0A04801D5680703D4300737D5280713
:1008300035D5E06DC00603D4E06D40F40070E0658E
:10084000206801F0BFFD20B32068504501D1424629
:1008500000E00246824208D03FB1052F05D0092FA3
:1008600003D0504503D1414602E0C16801E0014692
:10087000C96889040DD4016809070AD501F09EFDF5
:1008800058B3E06D40F01000E065206E40F00100CC
:1008900020662046FFF7A2FF21680C200860B00602
:1008A00001D5A80603D4700658D5680656D5E06D64
:1008B000C00603D4E06D40F40050E0652068C16CD0
:1008C00011F4C07F1AD00021894601F07BFD024659
:1008D0002068504514D1434613E02068416821F058
:1008E0000C014160E06D20F48070E065E06DC004B3
:1008F000CFD4E06D40F00100E065CAE70121E3E7F5
:100900000346834208D03FB1062F05D0072F03D0FE
:10091000504503D1414602E0C16801E00146C96883
:10092000B9F1000F04D18B0112D48AB18A040FD41B
:10093000026852060CD589020AD401F03BFDE8B3E7
:10094000E06D40F01000E065206E40F00100206690
:100950002046FFF72EFD21686020086030060BD589
:10096000280609D5E06D40F48030E065204600F0AF
:1009700069F9216880200860F0050CD5E8050AD5E2
:10098000E06D40F40030E0652046FFF714FD21687B
:100990004FF480700860B0050CD5A8050AD5E06D4D
:1009A00040F48020E0652046FFF706FD21684FF403
:1009B00000700860F0062ED5E80600E008E02AD5B1
:1009C000E06BD0B1AFB1DBF8080000F4604013E099
:1009D0002068416821F060014160E06D20F48050A2
:1009E000E065E06DC005B3D4E06D40F00100E06566
:1009F000AEE72068C068C00750B1E06D40F4806089
:100A0000E065206E40F0020020662046FFF7E7FE1A
:100A1000216810200860700512D5680510D5E06DBA
:100A200040F48040E065206E40F0080020662168B8
:100A30004FF4806008602046BDE8F05FFFF7BABC65
:100A4000BDE8F09F0003005000010050F8B54FF0E2
:100A5000000504002E46009502D0E06D10B107E0BD
:100A60000120F8BD204600F0EFF8266684F85860B3
:100A700020688168C1F3407119B18168694A1140E9
:100A8000816020688168C1F3007179B98168664A24
:100A9000114041F080518160644865490068B0FBB5
:100AA000F1F000E0401E00900028FBD12068816832
:100AB000C1F3007141B9E16D41F01001E165216EB2
:100AC00041F001012166012501F078FCE16DC906C4
:100AD00000D430B1E06D40F01000E06501252846FB
:100AE000F8BDE06D20F4807040F00200E065206801
:100AF000806810F0010F11D14FF0A04080684D497F
:100B000000F00100896801F00101084306D14A485C
:100B10006168826822F47C120A438260E168E06BBB
:100B2000627F0843A16841EA4231084394F82410E7
:100B300040EA0140012904D1218D404A02EB4141A4
:100B40000843E16A29B101F47871226B014342EA5A
:100B500001002168CA683A4B1A400243CA60206803
:100B60000169626B21F0406111430161206801F06D
:100B700025FC0646206801F01DFC30432ED1207F65
:100B800094F83810800340EA41022068C16844F2BA
:100B9000020399431143C16020690028206801695C
:100BA0000AD041F480310161206850F8C01F2269E9
:100BB0006FF30D01114307E021F4803101612068DA
:100BC00050F8C01F6FF30D01016094F84000012838
:100BD0000CD02068016921F00101016160690128E0
:100BE0002068016B21F00F0111D013E0D4E911014D
:100BF0000843D4E913121143084321680A6940F2FB
:100C0000FC739A43104340F001000861E6E7226A52
:100C1000521E11430163E06D20F0020040F001001C
:100C2000E0655CE7C0FFFF5FC0FFFF7F0C000020B6
:100C3000400D030000010050000300500000FEFFC3
:100C40000740F0FF7047000010B598B0044614212B
:100C500011A8FFF731FB44216846FFF72DFB194926
:100C6000206888422BD1C401400500940F9068464B
:100C700000F088FB08B1FFF799FB1348C16C41F401
:100C80000051C164C16C01F400511691C16C41F076
:100C90000201C164C06C11A900F00200169003208B
:100CA000CDE9114000201390084800F07FF90022A0
:100CB0000221122000F0CEFA122000F0BDFA18B086
:100CC00010BD000000010050001002400004004868
:100CD0002DE9F0470446407900270D4601280BD046
:100CE0004FF0010984F8059002202071A86802F0F5
:100CF0001006042803D043E00220BDE8F0874FF03F
:100D0000030802BB00F040FA074604E000F03CFA9A
:100D1000C01B01280FD82068406B0004F6D40120C6
:100D200000F032F92168686A086416E000F02CFAD5
:100D3000C01B012807D9206940F00800206184F811
:100D400004800320D9E72068406B0028EEDB0120F7
:100D500000F01AF92168686A48642068816C40F2E2
:100D6000FF32B2409143AA6AB240114381642068C5
:100D7000C16CFF22B2409143EA6AB2401143C164A0
:100D8000E869012808D12268916B1F20B040814397
:100D9000286AB040084390632068C06B0721B140C7
:100DA0008843A969CA0703D1890755D46969E9B39A
:100DB00000216B69AA681A430A434FF4807101FA53
:100DC00006F398432B79012B00D0002111434FF4F7
:100DD000007202FA06F398436B79012B00D00022CF
:100DE00020F44047286842EA0108022836D0074329
:100DF000216808FA06F03843C863206801684FF498
:100E00008042B240914301602268116840F6FE7052
:100E1000B0408143E868B040084310602068016832
:100E2000C022B24091430160287B00E014E0297C9D
:100E3000C0F3830001F03C0140EA811021680A6E92
:100E400040F60F73B3409A43B04002430A6684F8F9
:100E500004900020607150E70121AAE700F0C4FC73
:100E60000549884202D947F40047C1E7034988424F
:100E7000BED947F48047BBE70068890900B4C404C1
:100E800070B5040003D02079002510B105E00120E1
:100E900070BD6571204600F007F8022020712561C1
:100EA00001202071002070BD10B586B004461421C9
:100EB0006846FFF701FA1149206888421BD11048A3
:100EC000C16C41F48031C164C16C01F48031059181
:100ED000C16C41F00101C164C06C694600F00100C1
:100EE00005903020009003200190002002904FF0E8
:100EF000904000F05BF806B010BD00000008005004
:100F00000010024018B50068C46B0090104421B175
:100F1000143000900360002018BD0830F9E72DE977
:100F2000F041044640790D46012822D04FF00108D7
:100F300084F805800226267121680A6805F01007EA
:100F400008FA07F002430A60404600F01DF82068E6
:100F5000016885B101F47811BE40B14203D1416806
:100F600041F00201416084F8048000206071BDE816
:100F7000F0810220FBE7C1F344010129F3D141686C
:100F800041F00101EEE7000070B5044600F0FCF806
:100F90000546601C02D004484068044400F0F4F8A0
:100FA000401BA042FAD370BD000000202DE9FC4F89
:100FB000DFF8A0A1002301250AF1040B03244FF060
:100FC0000F0C0BF1040EBDE005FA03F632406FD0B2
:100FD0004F68012F05D0022F03D0112F01D0122FFF
:100FE00017D1D0F808905F0004FA07F829EA080939
:100FF0000097D1F80C8008FA07F848EA0908C0F809
:1010000008804768B7430E79C6F300169E403E43FA
:101010004660C6684FEA430804FA08F7BE430197E2
:101020008F6807FA08F73743C7604E68022E01D071
:10103000122E13D1DE0800EB86060096366A5F0793
:10104000FF0E0CFA07F926EA0906D1F8109009FA02
:1010500007F949EA0609009EC6F820900668019F34
:10106000BE430F7907F0030707FA08F73743076015
:101070004E68F60065D5384E376E47F00107376683
:10108000366E23F0030706F001060096334E3E4409
:10109000B146B6689F074FEA17780CFA08F7BE43C7
:1010A000B0F1904F05D02E4FB84204D1012717E080
:1010B00047E0002714E02B4FB84201D102270FE090
:1010C000294FB84201D103270AE0284FB84201D185
:1010D000042705E0264FB84201D1052700E0062786
:1010E00007FA08F73743C9F80870DAF8006057467E
:1010F000D1F8048096435FEAC83800D516433E60B5
:10110000DBF800605F46D1F8048096435FEA8838D8
:1011100000D516433E60DEF800607746D1F80480C3
:1011200096435FEAC82800D516433E60094F0C3746
:101130003E68D1F8048096435FEA882800D51643BC
:101140003E605B1C0A6832FA03F67FF43DAFBDE8EF
:10115000FC8F00000004014000100240000001402C
:101160000004004800080048000C00480010004837
:10117000001400480069084000D0012070470AB1FF
:101180008161704781627047014880687047000044
:101190000000002002488168426811448160704765
:1011A0000000002010B50024032000F073F80F2089
:1011B00000F008F808B1012401E000F025F820460D
:1011C00010BD000070B50E4E05460024706898B141
:1011D0004FF47A71B1FBF0F00A490968B1FBF0F005
:1011E00000F046FD40B9102D06D200222946501EBF
:1011F00000F030F8356000E00124204670BD0000AA
:10120000000000200C0000200A4882B0016E41F06E
:1012100001010166016E01F001010091816D41F053
:1012200080518165806D00F08050009002B000F028
:10123000A1B8000000100240002809DB00F01F02E6
:10124000012191404009800000F1E020C0F8001128
:1012500070470000F0B40E4B1B680C46C3F302232A
:10126000C3F10705042D00D90425191D072901D252
:10127000002300E0DB1E012606FA05F1491E21408D
:1012800099409E40761E16403143F0BC01F0EBBB06
:101290000CED00E0064900F0070208684FF6FF0376
:1012A000184040EA0220034A1043086070470000DB
:1012B0000CED00E00000FA052B492C4B0A683221A6
:1012C0004A432B4940B1B0F5007F086829D020F48B
:1012D000C06040F480602CE00868C0F34120022820
:1012E00004D051F8800F20F4807022E0D1F8800003
:1012F00020F48070C1F88000086820F4C06040F4D9
:1013000000700860B2FBF3F0401C00E0401E4A6928
:10131000520501D50028F9D1486940050AD50320B6
:101320007047C0F34120022806D051F8800F40F4E6
:101330008070086000207047D1F8800040F4807011
:10134000C1F88000086820F4C06040F400700860B4
:10135000B2FBF3F0401C00E0401E4A695205DBD5A9
:101360000028F9D1D8E700000C00002040420F000F
:10137000007000400248816841F4804181607047FC
:10138000007000402DE9F8430446006800269D4D9A
:1013900000035ED5A86D0027C00008D4A86D40F0FA
:1013A0008050A865A86D012700F080500090DFF8FC
:1013B0005892D9F8001041F48071C9F80010FFF775
:1013C000E3FE804606E000BFFFF7DEFEA0EB08006C
:1013D00002282BD8D9F80000C005F5D5D5F8900023
:1013E00010F4407014D0216C814211D0D5F89000D7
:1013F000D5F8901020F4407041F48031C5F8901079
:10140000D5F8901021F48031C5F89010C5F89000FF
:10141000C00711D0FFF7B8FE804641F2883907E0D7
:10142000FFF7B2FEA0EB0801494501D903260BE006
:10143000D5F890008007F3D5D5F89000216C20F402
:1014400040700843C5F890001FB1A86D20F080508F
:10145000A8652078C00707D0D5F88800616820F01B
:1014600003000843C5F888002078800707D5D5F821
:101470008800A16820F00C000843C5F88800207897
:10148000400707D5D5F88800E16820F03000084310
:10149000C5F888002078000707D5D5F888002169AD
:1014A00020F0C0000843C5F888002078800607D5E2
:1014B000D5F88800616920F440600843C5F88800C9
:1014C0002078400607D5D5F88800A16920F440505F
:1014D0000843C5F888002078000607D5D5F88800AD
:1014E000E16920F440400843C5F888002088C00521
:1014F00007D5D5F88800216A20F440300843C5F8A4
:1015000088002088800507D5D5F88800616A20F416
:1015100040200843C5F88800208840050FD5D5F83D
:101520008800A16A20F440100843C5F88800A06A2A
:10153000B0F5801F03D1E86840F48010E86020888F
:1015400000050FD5D5F88800E16A20F44000084373
:10155000C5F88800E06AB0F5800F03D1E86840F470
:101560008010E8602088C0040FD5D5F88800216B72
:1015700020F040700843C5F88800206BB0F1807FF0
:1015800003D1E86840F48010E86020884FF00061E3
:1015900080040ED5D5F88800626B20F040601043BF
:1015A000C5F88800606B884203D1E86840F4801079
:1015B000E860208840040ED5D5F88800A26B20F0A2
:1015C00040601043C5F88800A06B884203D1E868EA
:1015D00040F48010E860208800040FD5D5F888001A
:1015E000E16B20F040500843C5F88800E06BB0F193
:1015F000805F03D1E86840F48030E8603046BDE8A1
:10160000F883000000100240007000402DE9F04710
:101610000E4605004FF0000725D0DFF8AC81D8F862
:10162000000000F00F00B0420CD2D8F8001021F0FA
:101630000F013143C8F80010D8F8000000F00F0087
:10164000B04210D12968614CC80741F2883A5AD09B
:101650006868DFF87C91032808D0022820682DD024
:10166000400500282CDB0120BDE8F08720688001C0
:10167000F9D5E06800F00302E068C0F30310401CF5
:10168000032A19D0534A00BFB2FBF0F0E268C2F35C
:1016900006225043E268C2F34162521C5200B0FB82
:1016A000F2F0484517D9A06810F0F00F0CD0880769
:1016B00011D5A86840B10EE0474AE5E78003D0E7BE
:1016C00000F098F8484506D9A06820F0F00040F0F6
:1016D0008000A0608027A068696820F003000843AC
:1016E000A060FFF751FD814606E000BFFFF74CFD0B
:1016F000A0EB090151453AD8A068696800F00C00D8
:10170000B0EB810FF2D12868810714D5400703D5CB
:10171000A06840F4E060A0602878000705D5A068C4
:1017200020F4605040F4E060A060A068A96820F058
:10173000F000084304E0802F03D1A06820F0F000FF
:10174000A060D8F80010404601F00F01B14216D950
:10175000016821F00F0131430160FFF715FD0746D5
:1017600007E000BFFFF710FDC11B514501D9032061
:101770007AE7D8F8000000F00F00B042F2D12878E4
:10178000400705D5A068E96820F4E0600843A06040
:101790002878000706D5A068296920F4605040EA3F
:1017A000C100A06000F026F8A1680C4AC1F3031143
:1017B000515C01F01F01C8400949086009480068F0
:1017C000BDE8F047FFF7FEBC0020024000100240D9
:1017D00000B4C4040024F40000366E015A2C000842
:1017E0000C00002000000020014800687047000045
:1017F0000C000020184910B58868C0F38102174812
:10180000012A0BD08A68164BC2F38102022A06D045
:101810008A68C2F38102032A03D0002010BD184653
:1018200010BDCA6802F00304CA68C2F30312521C56
:10183000032C02D0B0FBF2F001E0B3FBF2F0CA6877
:10184000C968C2F306225043C1F34161491C4900F3
:10185000B0FBF1F010BD0000001002400024F400C5
:1018600000366E012DE9F84304007AD02078FA4D55
:10187000C00747D0A868E96800F00C0001F0030138
:101880000C2802D0082817D001E0032914D0606882
:10189000B0F5803F17D0B0F5A02F286817D020F4FE
:1018A00080302860286820F4802028606068E0B1DB
:1018B000FFF76AFC064614E02868800322D56068BA
:1018C0000028D2D01EE0286840F48030EDE740F4D4
:1018D00080202860F7E700BFFFF756FC801B6428D4
:1018E00070D828688003F7D50CE0FFF74DFC06465A
:1018F00005E000BFFFF748FC801B6428F0D828688B
:101900008003F7D4207880074CD5A868E96800F0F8
:101910000C0001F003010C2802D004280DD001E0D6
:1019200002290AD0E068002828682BD040F4807093
:101930002860FFF729FC064619E02868400502D513
:10194000E068002891D06868217C20F0FE4040EAE1
:1019500001606860C1480068FFF734FC002800D1CE
:1019600020E076E1FFF710FC801B0228B8D8286839
:101970004005F7D56868217C20F0FE4040EA016010
:1019800068600FE020F480702860FFF7FDFB0646DA
:1019900005E000BFFFF7F8FB801B0228A0D82868ED
:1019A0004005F7D42078000729D560690028D5F8CC
:1019B000940013D040F00100C5F89400FFF7E4FB59
:1019C000064606E090E000BFFFF7DEFB801B022822
:1019D00086D8D5F894008007F6D510E020F00100F5
:1019E000C5F89400FFF7D0FB064604E0FFF7CCFBF8
:1019F000801B022878D8D5F894008007F6D4207888
:101A0000400761D5A86D0026C00008D4A86D40F03D
:101A10008050A865A86D012600F080500090904885
:101A20000168C90511D40168804641F480710160E4
:101A3000FFF7AAFB074604E0FFF7A6FBC01B02283E
:101A400052D8D8F80000C005F6D5A068012815D0F6
:101A50000528D5F8900016D020F00100C5F89000B8
:101A6000D5F8900020F00400C5F89000A06841F27D
:101A70008838B8B1FFF788FB07460EE0D5F890002C
:101A800040F00100F0E740F00400C5F89000F5E7F1
:101A9000FFF77AFBC11B414526D8D5F89000800797
:101AA000F6D50CE0FFF770FB074604E0FFF76CFB90
:101AB000C11B414518D8D5F890008007F6D41EB157
:101AC000A86D20F08050A8652078800629D5A069EF
:101AD0000028D5F8980013D040F00100C5F8980010
:101AE000FFF752FB064606E077E000BFFFF74CFB2E
:101AF000801B022877D8D5F898008007F6D510E02B
:101B000020F00100C5F89800FFF73EFB064604E010
:101B1000FFF73AFB801B022865D8D5F898008007AC
:101B2000F6D4E069F0B3A968C1F38101032961D05B
:101B30000228286820F0807028600BD0E86820F028
:101B40000300E860E86847490840E860FFF71CFBCD
:101B500004464BE0FFF718FB064604E0FFF714FBD2
:101B6000801B02283FD828688001F7D4F4E90801D7
:101B70006FF00F0202EB01110843218A5204490859
:101B800002EB4151A26841EA02210843217D4FF056
:101B90007E42490802EB41610843217B40EAC16073
:101BA000E96800E062E0304A11400843E8602868D4
:101BB00040F080702860E86840F08070E860FFF7CF
:101BC000E3FA044605E000BFFFF7DEFA001B022837
:101BD00009D828688001F7D548E004E0FFF7D4FA77
:101BE000001B022802D90320BDE8F8832868800181
:101BF000F4D43BE00128F7D0E868226A00F0030142
:101C0000914226D1616A00F0F00209011039914237
:101C10001FD1A26A00F4FE41B1EB022F19D194F852
:101C20002C2000F07841B1EBC26F12D1218E00F46C
:101C3000C00249084905A1F50011914209D194F863
:101C4000341000F0C06049084906A1F100718142DA
:101C50000CD00120C8E70000001002400000002066
:101C600000700040FFFFEEFE0C809F010020BBE7EC
:101C700010B5401EB0F1807F01D3012010BD4FF0A0
:101C8000E02460610F21601700F0EDFE0020A061EC
:101C900007202061002010BD7047704770477047D3
:101CA00070477047F0B590F83C20012A3AD00125E2
:101CB00080F83C50022280F83D2003685A689C68F6
:101CC000194E1A4FB34201D0BB4204D122F4700C1A
:101CD0004A6842EA0C02DFF858C002EA0C02D1F866
:101CE00000C04CEA020CC3F804C00268B2420DD036
:101CF000B2F1804F0AD00F4B9A4207D00E4B9A4256
:101D000004D0BA4202D00D4B9A4204D1896824F023
:101D100080031943916080F83D50002180F83C1009
:101D20000846F0BD0220F0BD002C01400034014007
:101D30008FFFFFFD0004004000080040004001400C
:101D4000704710B5040003D094F83D0010B107E0CF
:101D5000012010BD002084F83C00204600F022F84D
:101D6000022084F83D00211D206800F023FE0120A0
:101D700084F8480084F83E0084F83F0084F840006E
:101D800084F8410084F8420084F8430084F8440059
:101D900084F8450084F8460084F8470084F83D0044
:101DA000002010BD08B500680B49884212D10B48CD
:101DB000816D41F020018165806D002200F02000DE
:101DC000009001213720FFF745FABDE80840372091
:101DD000FFF732BA08BD00000014004000100240B6
:101DE00090F83D10012901D001207047022180F8B0
:101DF0003D100168CA6842F00102CA6000681049DB
:101E000088420ED0B0F1804F0BD00E49884208D0E6
:101E10000D49884205D00D49884202D00C498842BC
:101E200007D181680B4A1140062906D0B1F5803FE1
:101E300003D0016841F001010160002070470000FB
:101E4000002C014000040040000800400034014024
:101E50000040014007000100704770B5044600686B
:101E600001694FF00005C943890715D4C168C9430A
:101E7000890711D4E91E016101202077206880695B
:101E80008007204602D0FFF7E7FF04E000F0E3F808
:101E9000204600F0E1F8257720680169C943490729
:101EA00017D4C168C943490713D46FF00401016115
:101EB000022020772068806910F4407F204602D0FD
:101EC000FFF7CAFF04E000F0C6F8204600F0C4F8AF
:101ED000257720680169C943090716D4C168C94339
:101EE000090712D46FF008010161042020772068EF
:101EF000C0698007204602D0FFF7AEFF04E000F083
:101F0000AAF8204600F0A8F8257720680169C9439F
:101F1000C90617D4C168C943C90613D46FF01001AC
:101F20000161082020772068C06910F4407F2046B6
:101F300002D0FFF791FF04E000F08DF8204600F09A
:101F40008BF8257720680169C943C90708D1C168A2
:101F5000C943C90704D1891E0161204600F07EF8FB
:101F600020680169C943090609D4C168C943090643
:101F700005D46FF0800101612046FFF78EFE2068D6
:101F80000169C943C90509D4C168C943090605D413
:101F90006FF4807101612046FFF77EFE20680169C1
:101FA000C943490609D4C168C943490605D46FF03D
:101FB00040010161204600F067F820680169C943CB
:101FC000890609D4C168C943890605D46FF0200188
:101FD00001612046FFF762FE20680169C943C9021A
:101FE00009D4C168C943C90205D46FF480110161E5
:101FF0002046FFF755FE20680169C943890209D4CC
:10200000C168C943890205D46FF4001101612046FB
:10201000FFF745FE20680169C943490209D4C16838
:10202000C943490205D46FF4800101612046FFF7DE
:1020300038FE20680169C94309020BD4C168C9434D
:10204000090207D46FF4000101612046BDE8704029
:10205000FFF776BE70BD7047704700000068084902
:1020600088420CD107490869401C08613221B0FB45
:10207000F1F201FB1200002801D100F005BD70470C
:1020800000140040100000207047FEE700B585B046
:1020900014216846FEF710F94FF6FF7000900020FB
:1020A0000321CDE90201019069460248FEF77EFF57
:1020B00005B000BD0008004800B585B01421684691
:1020C000FEF7FAF84FF6FF70009001200190032010
:1020D00003900020029069460248FEF767FF05B0B2
:1020E00000BD00000008004870B5002406462146E7
:1020F000204600F0B5F800F0F3F84FF4963530467E
:1021000000F0C2F8641CAC42F9D370BD30B587B0A2
:1021100014216846FEF7D0F81E48C16C41F0040156
:10212000C164C16C01F004010591C16C41F0010171
:10213000C164C16C01F001010591C16C41F0020163
:10214000C164C06C012500F0020005904FF4487096
:10215000CDE9000500240394694602940E48FEF779
:1021600025FF280203940090CDE901544FF09044DC
:1021700069462046FEF71AFFFFF79EFFA06940F46C
:102180008070A06104481830016841F40871016052
:1021900007B030BD001002400004004810B5FFF742
:1021A000B5FF002000F014F8084CA080A088A0F52E
:1021B0000241303906D000F0B1FA002000F008F8F2
:1021C000A08010BD00F021FAF7E7000024000020F5
:1021D00070B51D490A6842F400720A600A6842F448
:1021E00080720A60184C103C226842F02002226083
:1021F000164A1060086840F02000086000BF00BF69
:1022000000BF206840F020002060206840F480700B
:102210002060FFF73BFF4FF09041886A40F48070E8
:10222000886200BF00BF00BF0848001F006885B279
:10223000886940F480708861FFF73EFF206840F4B1
:1022400000702060284670BD28040048140800482B
:1022500001B5BDF800000149488008BD24000020F8
:1022600010B50C460146202000F068F82146BDE874
:102270001040212000F062B801B5BDF8000001490E
:10228000088008BD24000020134A116841F4007141
:102290001160114910390B6843F480730B600B68AF
:1022A00043F020030B600D4B1860106840F02000D5
:1022B000106000BF00BF00BF086840F02000086049
:1022C000086840F48070086000BF00BF00BF086865
:1022D00040F4007008607047280400481408004863
:1022E0001449086840F400700860086840F4807081
:1022F000086010481038026842F0200202600E4B5D
:1023000022221A600A6842F020020A6000BF00BF61
:1023100000BF016841F020010160016841F4807153
:10232000016000BF00BF00BF016841F4007101609F
:10233000704700002804004814080048184B10B5E6
:102340001A6842F400721A601A6842F480721A60C5
:10235000134A103A146844F020041460114C2060B1
:10236000186840F02000186000BF00BF00BF106870
:1023700040F020001060106840F480701060216010
:10238000186840F02000186000BF00BF00BF106850
:1023900040F020001060106840F48070106010BDA4
:1023A000280400481408004800EB8100006E00F08B
:1023B000F84070478068C0F3C00070478068C0F381
:1023C00080007047C06810F4406F01D00020704753
:1023D00001207047042303EAD15310B51844436920
:1023E000C1F3045107248C40A3438A401343436143
:1023F00010BD00EB8100016E21F000411143016628
:102400007047000030B589B020216846FDF754FFC1
:1024100019481849002401604902C0E90114C46048
:1024200004250461C0E90545047744770121016270
:1024300080F82440C462046380F83840C46380F8A4
:102440004040FEF703FB08B1FDF7B0FF0B480090DA
:102450000620CDE901047F200594CDE903056946F6
:102460000548FDF7ABFF002801D0FDF79FFF09B03D
:1024700030BD0000000100502C0000200080F03E24
:1024800000B58DB030216846FDF716FF1549144898
:1024900008600846FEF7F4FC08B1FDF787FF02204C
:1024A000009000208DF804008DF805000290039044
:1024B00001210490CDE905010246079069460948CB
:1024C000FEF706FC08B1FDF771FF102269460548CA
:1024D000FEF7FEFB002801D0FDF768FF0DB000BD40
:1024E0000008005098000020F0B587B0142168461D
:1024F000FDF7E2FE2D48C16C41F00401C164C16CDE
:1025000001F004010591C16C41F02001C164C16C6E
:1025100001F020010591C16C41F00101C164C16C61
:1025200001F001010591C16C41F00201C164C16C6F
:1025300001F002010591C16C41F00801C164C06C59
:102540001B4E00F008004FF47F4405900122214605
:102550003046FEF714FE174F012204213846FEF7DD
:102560000EFE0125CDE9004500240294694630465F
:102570000394FEF71BFDCDE9005469464FF09040EF
:102580000295FEF713FD07208DE8310069460A48E1
:10259000FEF70CFD04200090CDE901546946384651
:1025A0000394FEF703FD07B0F0BD000000100240E9
:1025B00000080048000C0048000400483EB5002414
:1025C0000F48009401940D49029401604F21C0E925
:1025D000011440F2E7318461C160FFF7B2FB08B13A
:1025E000FDF7E4FE0094694605480294FFF75AFBA4
:1025F000002801D0FDF7DAFE3EBD000000140040C7
:10260000AC000020FEE7FEE7704730B50121002056
:10261000FFF794FE4FF47A70FDF7BAFE0021012017
:10262000FFF78CFE41F290711020FFF787FE4FF408
:102630001C516020FFF782FE01216120FFF77EFE22
:1026400002214620FFF77AFE48F210011320FFF71F
:1026500075FE48F2FE011220FFF770FE4FF4A061F4
:102660000220FFF76BFE41F230010320FFF766FE08
:1026700040F2033421463020FFF760FE214631202E
:10268000FFF75CFE21463220FFF758FEE51E294683
:102690003320FFF753FE03213420FFF74FFE21467E
:1026A0003520FFF74BFE14213620FFF747FE214669
:1026B0003720FFF743FE21463820FFF73FFE214633
:1026C0003920FFF73BFE29463A20FFF737FE03216A
:1026D0003B20FFF733FE21463C20FFF72FFE4FF44F
:1026E000A0513D20FFF72AFE4FF400719220FFF722
:1026F00025FE21469320FFF721FE40F60D01902094
:10270000FFF71CFE41F218010320FFF717FEBDE89A
:10271000304040F273110720FFF710BE10B543F2AE
:102720000801E320FFF70AFE1221E720FFF706FE6B
:1027300041F23121EF20FFF701FE00210120FFF7D8
:10274000FDFD4FF4E0610220FFF7F8FD41F230019A
:102750000320FFF7F3FD00210420FFF7EFFD40F217
:1027600007210820FFF7EAFD00210920FFF7E6FD19
:1027700000210A20FFF7E2FD00210C20FFF7DEFD1B
:1027800000210D20FFF7DAFD00210F20FFF7D6FD15
:1027900000211020FFF7D2FD07211120FFF7CEFD09
:1027A00000211220FFF7CAFD00211320FFF7C6FD0C
:1027B000C820FEF7E9FB41F290611020FFF7BEFD53
:1027C00040F227211120FFF7B9FD3220FEF7DCFB94
:1027D0001D211220FFF7B2FD3220FEF7D5FB4FF48A
:1027E00000611320FFF7AAFD14212920FFF7A6FDA1
:1027F0000B212B20FFF7A2FD3220FEF7C5FB0021A5
:102800002020FFF79BFD00212120FFF797FD0721E6
:102810003020FFF793FD40F207713120FFF78EFD66
:1028200006213220FFF78AFD40F204713520FFF7C0
:1028300085FD41F604713620FFF780FD0421372025
:10284000FFF77CFD00213820FFF778FD40F206718C
:102850003920FFF773FD40F201713C20FFF76EFD58
:102860000F213D20FFF76AFD00215020FFF766FD94
:10287000EF215120FFF762FD00215220FFF75EFD9E
:1028800040F23F115320FFF759FD4FF41C516020D7
:10289000FFF754FD01216120FFF750FD00216A2060
:1028A000FFF74CFD00218020FFF748FD002181202B
:1028B000FFF744FD00218220FFF740FD0021832027
:1028C000FFF73CFD00218420FFF738FD0021852023
:1028D000FFF734FD10219020FFF730FD00219220FA
:1028E000FFF72CFD03219320FFF728FD4FF488719B
:1028F0009520FFF723FD00219720FFF71FFD002102
:102900009820FFF71BFD41F218010320FFF716FD89
:10291000BDE8104040F273110720FFF70FBD70476C
:10292000FEF738BC10B594B038216846FDF7C4FCFA
:1029300014210EA8FDF7C0FC4FF40070FEF7BCFC9C
:10294000012000900004019002200324CDE9070437
:102950001421CDE90A100C900D9009946846FEF7F9
:1029600081FF08B172B6FEE70F20CDE90E0400200A
:1029700010901190129002210EA8FEF747FE002839
:1029800001D072B6FEE714B010BD00000548016822
:1029900041F47001016003494FF000608039086024
:1029A0007047000088ED00E00148FFF756BA0000CC
:1029B000AC0000202DE9F0430268234B234D244E48
:1029C000244C4FF08049984207D0484505D0A84292
:1029D00003D0B04201D0A04203D122F070074A6870
:1029E0003A431D4FDFF874C0DFF8748098420DD071
:1029F00048450BD0A84209D0B04207D0A04205D02C
:102A0000B84203D0604501D0404503D122F440755F
:102A1000CA682A434D6922F080022A4302608A680C
:102A2000C2620A688262984207D0A04205D0B842CA
:102A300003D0604501D0404501D1096901630121FE
:102A40004161BDE8F0830000002C0140000400401B
:102A500000080040003401400040014000440140B3
:102A600000480140FEE70907090E002804DB00F1D9
:102A7000E02080F80014704700F00F0000F1E02023
:102A800080F8141D704700002DE9F05F2A4C0121E9
:102A90002046FEF76FFB294E022130702046FEF7DC
:102AA00069FB707004212046FEF764FBB0700121C1
:102AB0004FF09040FEF75EFB0024371DDFF880806A
:102AC000F0704FF47A794FF0020A4FF0010B3D1D80
:102AD000305D0028385D01D038B112E0012810D1F6
:102AE000FEF752FB48F824000BE0FEF74DFB58F8C8
:102AF0002410401A484502D905F804A001E005F861
:102B000004B0641C042CE3DB2978002001B1287098
:102B1000697801B16870A97801B1A870E97801B14C
:102B2000E8703078387070787870B078B870F07875
:102B3000F870BDE8F09F0000000400481400002079
:102B4000F80000202DE9F047134C05468846206820
:102B5000124F86B278882060DFF844900122042169
:102B60004846FEF70CFB4FF480716D1EA9400A48E1
:102B700089B21438B8F1000F01D0002200E0012220
:102B8000FEF7FDFA20687880002204214846FEF70F
:102B9000F6FA2660BDE8F08714080048100000200F
:102BA000000C0048FEF7FEFAFFF7BCFEFFF79CFCA6
:102BB000FFF704FDFFF726FCFFF762FC002204216B
:102BC0002048FEF7DCFA00210120FFF7BBFF0021BF
:102BD0000220FFF7B7FF00210320FFF7B3FF00211A
:102BE0000420FFF7AFFF00210520FFF7ABFF002116
:102BF0000620FFF7A7FF00210720FFF7A3FF002112
:102C00000820FFF79FFF01210846FFF79BFF0E48B2
:102C1000FFF7E6F8FFF7C2FA0020FFF765FA4FF674
:102C2000FF70FFF729FB0020FFF712FB002240F2A4
:102C3000555311460548FEF765F900210348FEF794
:102C40006EF9FEE7000C0048AC0000209800002060
:102C50004FF04070E1EE100A7047000000000000E5
:102C60000000010203040607080900008C2C00087C
:102C7000000000202C00000014020008B82C0008FE
:102C80002C000020CC0800003002000810000000DA
:102C900001000000000000000024F400000000001B
:102CA0000000000001010101000000000000000020
:082CB0000000FFFF000000001E
:04000005080001D915
:00000001FF
