:020000040800F2
:10000000180A002081020008D72B000833250008B9
:10001000D52B0008C3050008ED3B000800000000D8
:100020000000000000000000000000003D2F00085C
:10003000C505000800000000D92B00083F2F00086C
:100040009B0200089B0200089B0200089B0200081C
:100050009B0200089B0200089B0200089B0200080C
:100060009B0200089B0200089B0200089B020008FC
:100070009B0200089B0200089B0200089B020008EC
:100080009B020008000000009B0200089B02000881
:100090009B0200089B0200089B0200089B020008CC
:1000A000C52F00089B020008D12F00089B02000802
:1000B000DD2F00089B0200089B0200089B0200083D
:1000C0009B0200089B0200089B0200089B0200089C
:1000D0009B020008E13B00089B0200089B0200080D
:1000E0009B0200089B0200089B0200089B0200087C
:1000F0009B0200089B0200089B0200080000000011
:10010000000000009B020008000000009B020008A5
:100110009B020008000000009B020008E92F000875
:100120009B0200089B0200089B0200089B0200083B
:100130009B02000800000000000000009B02000875
:100140009B0200089B020008000000000000000065
:10015000000000000000000000000000000000009F
:100160000000000000000000000000009B020008EA
:100170009B020008000000000000000000000000DA
:10018000000000009B0200080000000000000000CA
:10019000000000000000000000000000000000005F
:1001A00000000000000000009B0200089B02000805
:1001B0009B0200089B0200089B0200080000000050
:1001C000000000009B02000800000000000000008A
:1001D0009B0200089B02000800F002F800F041F8C2
:1001E0000AA090E8000C82448344AAF10107DA4592
:1001F00001D100F036F8AFF2090EBAE80F0013F0A3
:10020000010F18BFFB1A43F001031847FC50000010
:100210001C510000103A24BF78C878C1FAD85207A0
:1002200024BF30C830C144BF04680C607047000070
:100230000023002400250026103A28BF78C1FBD8EF
:10024000520728BF30C148BF0B607047632900F0D8
:100250007281002070471FB503F050FF1FBD10B51D
:1002600010BD00F074F91146FFF7F5FF03F0E0FE52
:1002700000F092F903B4FFF7F2FF03BC00F09AF923
:100280000948804709480047FEE7FEE7FEE7FEE72A
:10029000FEE7FEE7FEE7FEE7FEE7FEE70448054966
:1002A000054A064B70470000A92F0008D901000835
:1002B00018040020180A0020180600201806002044
:1002C00053EA020C00F069802DE9F04B4FF0000674
:1002D000002B1FBFB3FA83F503FA05F424FA05F6E1
:1002E0005E4012BF1643B2FA82F502FA05F4C5F178
:1002F00020051EBF22FA05FC44EA0C04203556EA0C
:10030000044C4FEA144418BF641C4FF000084FF02F
:100310000009904271EB030C39D3002919BFB1FADF
:1003200081F701FA07F6B0FA80F700FA07F6C7F18D
:1003300020071EBF20FA07FC46EA0C062037B6FB52
:10034000F4FCA7EB0507103F07F01F0BCBF12006CD
:100350000CFA0BFB2CFA06F644BFB3460026202FFE
:10036000A4BF5E464FF0000B5BEA060C08BF4FF0DF
:10037000010B19EB0B09ABFB027C48EB0608C01B19
:1003800006FB02CC0BFB03CC71EB0C01C1E70B4667
:10039000024641464846BDE8F08B13B54FF00000D9
:1003A0004FF00001AFF30080BDE81C407047000033
:1003B0000FB41CB5074B06AA7B446946009005980C
:1003C00000F097F80020694600F0A6F81CBC5DF824
:1003D00014FB00005D0100002DE9F0410E460446CB
:1003E000002020622046E168884730B3252805D0E8
:1003F000D4E901219047206A401CF2E7E1682046D9
:1004000000278847050018D0A5F14100192802D817
:1004100020354FF400673246294620462760FFF713
:1004200015FF40B1012804D0F61D26F00706083656
:10043000D8E7361DD6E72846DAE7206ABDE8F0811E
:1004400070B50C460546012A05D02878800600D5EF
:10045000EA69002302E0012305E05B1C934202D21B
:10046000E05C0028F9D1A869E618C01AA861286ADA
:10047000184428622846AFF3008004E0D5E9012142
:1004800014F8010B9047B442F8D32846AFF300802C
:1004900070BD4FF0000200B51346944696462039D1
:1004A00022BFA0E80C50A0E80C50B1F12001BFF42D
:1004B000F7AF090728BFA0E80C5048BF0CC05DF893
:1004C00004EB890028BF40F8042B08BF704748BFE1
:1004D00020F8022B11F0804F18BF00F8012B704755
:1004E000704770477047000001694A1C0261087834
:1004F000704700B58FB0CDE9013100210591054964
:100500007944CDE9031011466846FFF765FF0FB047
:1005100000BD0000E5FFFFFF0A6802F8010B0A605A
:10052000704710B5436913B1AFF3008001E0FFF7E6
:1005300087FF012010BD127800F124010A7000220B
:100540004A700122EDE711684FF0FF32E9E7754686
:1005500000F02CF8AE4605006946534620F007002F
:10056000854618B020B5FFF799FEBDE820404FF052
:1005700000064FF000074FF000084FF0000B21F08D
:100580000701AC46ACE8C009ACE8C009ACE8C0095A
:10059000ACE8C0098D46704710B50446AFF3008043
:1005A0002046BDE81040FFF765BE000000487047D8
:1005B000B803002001491820ABBEFEE72600020068
:1005C0007047FEE77047002240F6B83306E000218E
:1005D000491C89B29942FBD3521C92B28242F6D393
:1005E000704772B6FEE770B590F82520002401210F
:1005F0002346022A07D00422C26380F8251080F81F
:100600002430012429E00268156825F00E051560E4
:100610000268156825F001051560826C156825F4DF
:100620008075156090F84420056C02F01F0201FAF5
:1006300002F26A60D0E913255560426D32B1156847
:1006400025F480751560D0E91625556080F82510D1
:1006500080F82430816B01B18847204670BD0000CE
:1006600070B5044600F0FCF80546601C02D0044852
:100670004068044400F0F4F8401BA042FAD370BD77
:10068000000000202DE9FC4FDFF8A0A10023012588
:100690000AF1040B03244FF00F0C0BF1040EBDE024
:1006A00005FA03F632406FD04F68012F05D0022FB4
:1006B00003D0112F01D0122F17D1D0F808905F006E
:1006C00004FA07F829EA08090097D1F80C8008FA1B
:1006D00007F848EA0908C0F808804768B7430E7968
:1006E000C6F300169E403E434660C6684FEA430884
:1006F00004FA08F7BE4301978F6807FA08F73743F3
:10070000C7604E68022E01D0122E13D1DE0800EB16
:1007100086060096366A5F07FF0E0CFA07F926EA8E
:100720000906D1F8109009FA07F949EA0609009E6E
:10073000C6F820900668019FBE430F7907F00307B3
:1007400007FA08F7374307604E68F60065D5384E5C
:10075000376E47F001073766366E23F0030706F061
:1007600001060096334E3E44B146B6689F074FEAF5
:1007700017780CFA08F7BE43B0F1904F05D02E4F12
:10078000B84204D1012717E047E0002714E02B4FBF
:10079000B84201D102270FE0294FB84201D1032707
:1007A0000AE0284FB84201D1042705E0264FB8429D
:1007B00001D1052700E0062707FA08F73743C9F8F3
:1007C0000870DAF800605746D1F8048096435FEA73
:1007D000C83800D516433E60DBF800605F46D1F8AC
:1007E000048096435FEA883800D516433E60DEF801
:1007F00000607746D1F8048096435FEAC82800D5A8
:1008000016433E60094F0C373E68D1F8048096438A
:100810005FEA882800D516433E605B1C0A6832FAFE
:1008200003F67FF43DAFBDE8FC8F000000040140FB
:100830000010024000000140000400480008004889
:10084000000C0048001000480014004800690840EF
:1008500000D0012070470AB1816170478162704702
:10086000014880687047000000000020024881684D
:1008700042681144816070470000002010B50024D8
:10088000032000F073F80F2000F008F808B10124ED
:1008900001E000F025F8204610BD000070B50E4EB6
:1008A00005460024706898B14FF47A71B1FBF0F0FE
:1008B0000A490968B1FBF0F000F064FD40B9102D61
:1008C00006D200222946501E00F030F8356000E0C4
:1008D0000124204670BD0000000000200C00002014
:1008E0000A4882B0016E41F001010166016E01F01B
:1008F00001010091816D41F080518165806D00F0B2
:100900008050009002B000F0A1B80000001002403A
:10091000002809DB00F01F020121914040098000FE
:1009200000F1E020C0F8001170470000F0B40E4B59
:100930001B680C46C3F30223C3F10705042D00D93D
:100940000425191D072901D2002300E0DB1E012622
:1009500006FA05F1491E214099409E40761E164038
:100960003143F0BC03F043B90CED00E0064900F060
:10097000070208684FF6FF03184040EA0220034AC6
:1009800010430860704700000CED00E00000FA051D
:100990002B492C4B0A6832214A432B4940B1B0F510
:1009A000007F086829D020F4C06040F480602CE00B
:1009B0000868C0F34120022804D051F8800F20F4C9
:1009C000807022E0D1F8800020F48070C1F88000AF
:1009D000086820F4C06040F400700860B2FBF3F0D7
:1009E000401C00E0401E4A69520501D50028F9D19B
:1009F000486940050AD503207047C0F3412002280A
:100A000006D051F8800F40F48070086000207047D5
:100A1000D1F8800040F48070C1F88000086820F4AC
:100A2000C06040F400700860B2FBF3F0401C00E0CE
:100A3000401E4A695205DBD50028F9D1D8E70000ED
:100A40000C00002040420F00007000400248816806
:100A500041F4804181607047007000402DE9F84307
:100A60000446006800269D4D00035ED5A86D002752
:100A7000C00008D4A86D40F08050A865A86D01277B
:100A800000F080500090DFF85892D9F8001041F43F
:100A90008071C9F80010FFF7E3FE804606E000BF52
:100AA000FFF7DEFEA0EB080002282BD8D9F80000E3
:100AB000C005F5D5D5F8900010F4407014D0216C25
:100AC000814211D0D5F89000D5F8901020F44070F4
:100AD00041F48031C5F89010D5F8901021F48031A0
:100AE000C5F89010C5F89000C00711D0FFF7B8FE08
:100AF000804641F2883907E0FFF7B2FEA0EB08011B
:100B0000494501D903260BE0D5F890008007F3D5BD
:100B1000D5F89000216C20F440700843C5F890008F
:100B20001FB1A86D20F08050A8652078C00707D0BD
:100B3000D5F88800616820F003000843C5F88800F4
:100B40002078800707D5D5F88800A16820F00C0030
:100B50000843C5F888002078400707D5D5F88800F5
:100B6000E16820F030000843C5F8880020780007CD
:100B700007D5D5F88800216920F0C0000843C5F8E2
:100B800088002078800607D5D5F88800616920F4B0
:100B900040600843C5F888002078400607D5D5F89E
:100BA0008800A16920F440500843C5F888002078E7
:100BB000000607D5D5F88800E16920F440400843D5
:100BC000C5F888002088C00507D5D5F88800216AB7
:100BD00020F440300843C5F888002088800507D5F8
:100BE000D5F88800616A20F440200843C5F88800E1
:100BF000208840050FD5D5F88800A16A20F4401060
:100C00000843C5F88800A06AB0F5801F03D1E868E2
:100C100040F48010E860208800050FD5D5F88800E2
:100C2000E16A20F440000843C5F88800E06AB0F5A6
:100C3000800F03D1E86840F48010E8602088C00489
:100C40000FD5D5F88800216B20F040700843C5F817
:100C50008800206BB0F1807F03D1E86840F48010F9
:100C6000E86020884FF0006180040ED5D5F8880038
:100C7000626B20F040601043C5F88800606B8842CA
:100C800003D1E86840F48010E860208840040ED565
:100C9000D5F88800A26B20F040601043C5F88800AA
:100CA000A06B884203D1E86840F48010E860208897
:100CB00000040FD5D5F88800E16B20F040500843C0
:100CC000C5F88800E06BB0F1805F03D1E86840F4BC
:100CD0008030E8603046BDE8F88300000010024034
:100CE000007000402DE9F0470E4605004FF0000768
:100CF00025D0DFF8AC81D8F8000000F00F00B0423A
:100D00000CD2D8F8001021F00F013143C8F80010C0
:100D1000D8F8000000F00F00B04210D12968614CF3
:100D2000C80741F2883A5AD06868DFF87C910328F6
:100D300008D0022820682DD0400500282CDB012097
:100D4000BDE8F08720688001F9D5E06800F0030273
:100D5000E068C0F30310401C032A19D0534A00BFB7
:100D6000B2FBF0F0E268C2F306225043E268C2F33D
:100D70004162521C5200B0FBF2F0484517D9A068FE
:100D800010F0F00F0CD0880711D5A86840B10EE024
:100D9000474AE5E78003D0E700F0B6F8484506D9B2
:100DA000A06820F0F00040F08000A0608027A068DC
:100DB000696820F003000843A060FFF751FD8146F9
:100DC00006E000BFFFF74CFDA0EB090151453AD802
:100DD000A068696800F00C00B0EB810FF2D12868C0
:100DE000810714D5400703D5A06840F4E060A060F7
:100DF0002878000705D5A06820F4605040F4E06032
:100E0000A060A068A96820F0F000084304E0802FEB
:100E100003D1A06820F0F000A060D8F80010404690
:100E200001F00F01B14216D9016821F00F013143E1
:100E30000160FFF715FD074607E000BFFFF710FD53
:100E4000C11B514501D903207AE7D8F8000000F012
:100E50000F00B042F2D12878400705D5A068E968B4
:100E600020F4E0600843A0602878000706D5A06859
:100E7000296920F4605040EAC100A06000F044F805
:100E8000A1680C4AC1F30311515C01F01F01C84075
:100E90000949086009480068BDE8F047FFF7FEBC53
:100EA000002002400010024000B4C4040024F400FA
:100EB00000366E011E4100080C00002000000020DA
:100EC0000548064900688968054AC1F30221515C5A
:100ED00001F01F01C84070470C00002000100240C4
:100EE0002E4100080548064900688968054AC1F393
:100EF000C221515C01F01F01C84070470C00002066
:100F0000001002402E410008184910B58868C0F34F
:100F100081021748012A0BD08A68164BC2F381025E
:100F2000022A06D08A68C2F38102032A03D0002075
:100F300010BD184610BDCA6802F00304CA68C2F3A7
:100F40000312521C032C02D0B0FBF2F001E0B3FB01
:100F5000F2F0CA68C968C2F306225043C1F3416186
:100F6000491C4900B0FBF1F010BD00000010024028
:100F70000024F40000366E012DE9F84304007AD015
:100F80002078FA4DC00747D0A868E96800F00C0047
:100F900001F003010C2802D0082817D001E0032932
:100FA00014D06068B0F5803F17D0B0F5A02F286846
:100FB00017D020F480302860286820F48020286032
:100FC0006068E0B1FFF74CFC064614E02868800337
:100FD00022D560680028D2D01EE0286840F4803016
:100FE000EDE740F480202860F7E700BFFFF738FC0A
:100FF000801B642870D828688003F7D50CE0FFF7C1
:101000002FFC064605E000BFFFF72AFC801B642882
:10101000F0D828688003F7D4207880074CD5A868DA
:10102000E96800F00C0001F003010C2802D004284C
:101030000DD001E002290AD0E068002828682BD0F2
:1010400040F480702860FFF70BFC064619E0286822
:10105000400502D5E068002891D06868217C20F026
:10106000FE4040EA01606860C1480068FFF716FC76
:10107000002800D120E076E1FFF7F2FB801B022878
:10108000B8D828684005F7D56868217C20F0FE4074
:1010900040EA016068600FE020F480702860FFF78C
:1010A000DFFB064605E000BFFFF7DAFB801B0228E6
:1010B000A0D828684005F7D42078000729D56069B2
:1010C0000028D5F8940013D040F00100C5F8940032
:1010D000FFF7C6FB064606E090E000BFFFF7C0FB47
:1010E000801B022886D8D5F894008007F6D510E03A
:1010F00020F00100C5F89400FFF7B2FB064604E0BB
:10110000FFF7AEFB801B022878D8D5F89400800743
:10111000F6D42078400761D5A86D0026C00008D419
:10112000A86D40F08050A865A86D012600F08050A1
:10113000009090480168C90511D40168804641F4C7
:1011400080710160FFF78CFB074604E0FFF788FB26
:10115000C01B022852D8D8F80000C005F6D5A068F8
:10116000012815D00528D5F8900016D020F00100F0
:10117000C5F89000D5F8900020F00400C5F8900064
:10118000A06841F28838B8B1FFF76AFB07460EE065
:10119000D5F8900040F00100F0E740F00400C5F8F9
:1011A0009000F5E7FFF75CFBC11B414526D8D5F859
:1011B00090008007F6D50CE0FFF752FB074604E0ED
:1011C000FFF74EFBC11B414518D8D5F890008007AA
:1011D000F6D41EB1A86D20F08050A8652078800656
:1011E00029D5A0690028D5F8980013D040F0010057
:1011F000C5F89800FFF734FB064606E077E000BF2D
:10120000FFF72EFB801B022877D8D5F898008007BF
:10121000F6D510E020F00100C5F89800FFF720FB9C
:10122000064604E0FFF71CFB801B022865D8D5F8B2
:1012300098008007F6D4E069F0B3A968C1F3810192
:10124000032961D00228286820F0807028600BD024
:10125000E86820F00300E860E86847490840E86073
:10126000FFF7FEFA04464BE0FFF7FAFA064604E001
:10127000FFF7F6FA801B02283FD828688001F7D4D0
:10128000F4E908016FF00F0202EB01110843218A13
:101290005204490802EB4151A26841EA0221084385
:1012A000217D4FF07E42490802EB41610843217BDA
:1012B00040EAC160E96800E062E0304A114008435A
:1012C000E860286840F080702860E86840F080702E
:1012D000E860FFF7C5FA044605E000BFFFF7C0FA73
:1012E000001B022809D828688001F7D548E004E0EF
:1012F000FFF7B6FA001B022802D90320BDE8F883E5
:1013000028688001F4D43BE00128F7D0E868226A1D
:1013100000F00301914226D1616A00F0F002090158
:10132000103991421FD1A26A00F4FE41B1EB022FA5
:1013300019D194F82C2000F07841B1EBC26F12D192
:10134000218E00F4C00249084905A1F5001191421F
:1013500009D194F8341000F0C06049084906A1F1A1
:10136000007181420CD00120C8E70000001002404B
:101370000000002000700040FFFFEEFE0C809F0187
:101380000020BBE710B5401EB0F1807F01D30120E3
:1013900010BD4FF0E02460610F21601702F027FCC0
:1013A0000020A06107202061002010BD7047704719
:1013B0007047704770477047F0B590F83C20012A9D
:1013C0003AD0012580F83C50022280F83D20036885
:1013D0005A689C68194E1A4FB34201D0BB4204D1DF
:1013E00022F4700C4A6842EA0C02DFF858C002EAA4
:1013F0000C02D1F800C04CEA020CC3F804C0026829
:10140000B2420DD0B2F1804F0AD00F4B9A4207D0B2
:101410000E4B9A4204D0BA4202D00D4B9A4204D1EC
:10142000896824F080031943916080F83D500021C1
:1014300080F83C100846F0BD0220F0BD002C0140B1
:10144000003401408FFFFFFD000400400008004011
:1014500000400140704710B5040003D094F83D00EF
:1014600010B107E0012010BD002084F83C002046A8
:1014700000F022F8022084F83D00211D206801F0D0
:10148000B9FD012084F8480084F83E0084F83F004C
:1014900084F8400084F8410084F8420084F8430056
:1014A00084F8440084F8450084F8460084F8470036
:1014B00084F83D00002010BD10B586B0044614210C
:1014C0006846FEF7E6FF21683048B1F1804F15D03D
:1014D0002F4A914221D1816D41F020018165806DBB
:1014E000002200F02000059003213720FFF71EFAAC
:1014F0005FF03700FFF70CFA06B010BD816D41F0C8
:1015000001018165806D002200F001000590042139
:101510001C20FFF70BFA1C20ECE71E4A91420ED16B
:10152000016E41F480310166006E002200F48030CB
:10153000059002211820FFF7F9F91820DAE7164A7A
:101540009142D9D1016E41F480210166016E01F40E
:1015500080210591C16C41F00101C164C06C6946F4
:1015600000F00100059080200090022001900020F2
:1015700002900390012004901004FFF783F80022EA
:1015800001211A20FFF7D2F91A20B3E70010024018
:1015900000140040004001400048014090F83D1018
:1015A000012901D001207047022180F83D10016817
:1015B000CA6842F00102CA600068104988420ED031
:1015C000B0F1804F0BD00E49884208D00D498842B7
:1015D00005D00D49884202D00C49884207D1816864
:1015E0000B4A1140062906D0B1F5803F03D00168AF
:1015F00041F001010160002070470000002C014013
:101600000004004000080040003401400040014058
:10161000070001000168CA6822F00102CA6001687F
:101620000A6A41F211131A4207D10A6A9B001A4250
:1016300003D10A6822F001020A60012180F83D10FE
:101640000020704770B5044690F83C00012814D083
:10165000012584F83C50022084F83D0022689068FF
:10166000344B184020F47F4090600868702827D0E1
:1016700010DC10F00F0F03D04AE04FF0020070BDF5
:101680004FEA2012072A43D2DFE802F050505050B0
:1016900048313900284BC21A984247D009DCB0F5CE
:1016A000805F35D0B0F5005F15D0B0F1101F2FD19D
:1016B0003CE0102A3AD0202A38D0502A28D135E0F0
:1016C000CB68D1E90121206801F0F9FC206881682C
:1016D00041F0770109E0CB68D1E90121206801F0F0
:1016E000EEFC2068816841F48041816010E0CA68A6
:1016F0004968206801F08EFE5021206806E0CA6823
:101700004968206801F0CEFE6021206801F0E2FC0B
:1017100084F83D50002084F83C0070BDCA684968D8
:10172000206801F077FE40212068EFE7226801463B
:101730001046EBE788FFCEFF2000100010B50068D0
:10174000094988420FD10021084800F059FC00EBFC
:10175000800007490001B1FBF0F006490862034927
:1017600000200968486210BD004801403C0100208B
:1017700000B4C404100000202DE9F041054690F8A3
:101780003C000C46012836D0012085F83C008AB385
:10179000042A42D02868082A51D0D4E90023E168FD
:1017A000066A26F480560662C669076A26F4407601
:1017B00046EA03234FF6FF7606EA013123F470432D
:1017C00019434FF4204627F4204306EA02321A4315
:1017D000C16102622868C16921F44061C161286861
:1017E000C169A26841EA0221C161002085F83C007C
:1017F000BDE8F08101E00220FAE7D4E90012E368D5
:10180000286801F019FE2868816921F00C018161C6
:1018100028688169A26811430FE0D4E90012E368E7
:10182000286801F051FE2868816921F440618161D6
:1018300028688169A26841EA02218161D5E7D4E97B
:101840000027267B016A21F480710162C169036A65
:1018500021F00301394321F0F00731074FF42066EE
:1018600047EA116123F4206306EA02221A43C161A8
:1018700002622868C16921F00C01C1612868C16950
:10188000A2681143B0E710B5040003D094F83D00FE
:1018900010B107E0012010BD002084F83C00204674
:1018A00000F022F8022084F83D00211D206801F09C
:1018B000A1FB012084F8480084F83E0084F83F0032
:1018C00084F8400084F8410084F8420084F8430022
:1018D00084F8440084F8450084F8460084F8470002
:1018E00084F83D00002010BD7047000010B504468C
:1018F00079B1042912D0082915D00C2918D0102943
:1019000019D094F8430000BF94F84720012817D15C
:1019100014E094F83E0094F84420F7E794F83F0070
:1019200094F84520F2E794F8400094F84620EDE75B
:1019300094F84100E8E794F84200E5E7012A01D075
:10194000012010BD022071B1042915D008291CD036
:101950000C2948D0102949D084F8430084F8470066
:101960000C291BD145E084F83E0084F8440020682F
:10197000C26842F0020210E084F83F0084F845009B
:101980002068C26842F0040207E084F8400084F84E
:1019900046002068C26842F00802C2600122206846
:1019A00001F080FB1549206888420ED0B0F1804FCD
:1019B0000BD01349884208D01249884205D01249F9
:1019C000884202D01149884207D18168104A1140EB
:1019D000062906D0B1F5803F03D0016841F001012E
:1019E0000160002010BD84F84100B7E784F8420090
:1019F000B4E72068C26842F01002CEE7002C014034
:101A00000004004000080040003401400040014054
:101A10000700010070B50446006801694FF0000539
:101A2000C943890715D4C168C943890711D4E91E80
:101A3000016101202077206880698007204602D05C
:101A4000FFF77CFE04E000F009F9204600F0C8F939
:101A5000257720680169C943490717D4C168C9437C
:101A6000490713D46FF00401016102202077206838
:101A7000806910F4407F204602D0FFF75FFE04E04B
:101A800000F0ECF8204600F0ABF9257720680169FA
:101A9000C943090716D4C168C943090712D46FF0B6
:101AA00008010161042020772068C0698007204672
:101AB00002D0FFF743FE04E000F0D0F8204600F02B
:101AC0008FF9257720680169C943C90617D4C16811
:101AD000C943C90613D46FF01001016108202077B3
:101AE0002068C06910F4407F204602D0FFF726FE30
:101AF00004E000F0B3F8204600F072F92577206882
:101B00000169C943C90708D1C168C943C90704D1DC
:101B1000891E0161204600F0F7F920680169C94378
:101B2000090609D4C168C943090605D46FF08001CC
:101B300001612046FFF73BFC20680169C943C905E4
:101B400009D4C168C943090605D46FF480710161E5
:101B50002046FFF72BFC20680169C943490609D4D8
:101B6000C168C943490605D46FF0400101612046B0
:101B700000F05BFA20680169C943890609D4C1688D
:101B8000C943890605D46FF0200101612046FFF7A3
:101B90000FFC20680169C943C90209D4C168C9435F
:101BA000C90205D46FF4801101612046FFF702FCE1
:101BB00020680169C943890209D4C168C9438902FF
:101BC00005D46FF4001101612046FFF7F2FB206895
:101BD0000169C943490209D4C168C943490205D40E
:101BE0006FF4800101612046FFF7E5FB2068016981
:101BF000C94309020BD4C168C943090207D46FF471
:101C0000000101612046BDE87040FFF723BC70BDB4
:101C100010B586B0044614216846FEF73AFC2068E9
:101C2000B0F1804F15D10C48C16C41F00101C16485
:101C3000C06C694600F00100059002200090019000
:101C4000002002900390012004904FF09040FEF796
:101C500019FD06B010BD000000100240704770B5BD
:101C6000044690F83C000D4601280BD0012084F872
:101C70003C000C2A45D007DC5AB1042A1BD0082AA4
:101C800078D12CE0022070BD102A4ED0142A71D1D8
:101C90005DE0206801F028FA2068816941F00801C0
:101CA00081612068816921F0040181612068816976
:101CB0002A69114311E0206801F064FA2068816903
:101CC00041F4006181612068816921F48061816152
:101CD000206881692A6941EA022181614AE020681D
:101CE00001F098FA2068C16941F00801C1612068DB
:101CF000C16921F00401C1612068C1692A691143E9
:101D000011E0206801F0CEFA2068C16941F4006159
:101D1000C1612068C16921F48061C1612068C16925
:101D20002A6941EA0221C16124E0206801F002FB36
:101D30002068016D41F0080101652068016D21F006
:101D4000040101652068016D2A69114311E02068D2
:101D500001F028FB2068016D41F4006101652068F5
:101D6000016D21F4806101652068016D2A6941EAF5
:101D700002210165002084F83C0070BD10B504000C
:101D800003D094F83D0010B107E0012010BD002001
:101D900084F83C00204600F022F8022084F83D0040
:101DA000211D206801F026F9012084F8480084F8FC
:101DB0003E0084F83F0084F8400084F8410084F835
:101DC000420084F8430084F8440084F8450084F815
:101DD000460084F8470084F83D00002010BD70479D
:101DE0007047000030B50446022269B1042916D0BC
:101DF000082920D00C2929D010292ED094F843008E
:101E0000012831D0012030BD94F83E000128F9D1DD
:101E100084F83E202068C26842F0020209E094F88B
:101E20003F000128EED184F83F202068C26842F0CC
:101E30000402C2601CE094F840000128E2D184F85A
:101E400040202068C26842F00802F2E794F841009E
:101E50000128D7D184F8412008E094F842000128F5
:101E6000D0D184F8422003E084F843200C2935D0F7
:101E70000122206801F016F91B4920681B4A1C4BFF
:101E8000884209D0904207D0984205D0194DA84207
:101E900002D0194DA84203D1456C45F40045456474
:101EA000206888420CD0B0F1804F09D01349884295
:101EB00006D01349884203D0904201D0984207D1FE
:101EC0008168104A1140062906D0B1F5803F03D041
:101ED000016841F001010160002030BD2068C26846
:101EE00042F01002A5E70000002C01400034014040
:101EF000004001400044014000480140000400400F
:101F0000000800400700010070B50068364901264E
:101F10000025364C88424AD1606B401C3221B0FB10
:101F2000F1F2606301FB120078B901F071FE607B91
:101F3000012802D100F0DCFF6573A179012002F0D5
:101F400047F8E179022002F043F8207841F2883224
:101F5000012815D1A671A06B401CA06390420FD33D
:101F6000234825704FF47A710368D962C160006814
:101F70004910816340206070A070E070A571A56376
:101F80006079012812D1A06B401C6421B0FBF1F3F1
:101F900001FB1301A06321B9E179491C01F00101A2
:101FA000E171904202D3E5716571A56370BD11497D
:101FB0008842FBD1E06B401CE0630A28F6D30E4850
:101FC000FFF728FB0949012208310C4800F0FCF911
:101FD000607A072801D0267300E06673A572E57267
:101FE0006572E56370BD0000001400401000002021
:101FF0005800002000400140F0000020880100202F
:102000000246002041B1042909D008290AD00C2930
:1020100001D11068006C70471068406B7047106801
:10202000806B70471068C06B7047704790F87C10E9
:10203000012918D0012180F87C102421C0F88010DB
:1020400050F8601B0A680B6823F001030B6022F054
:1020500000510022426050F8603C1960202101626A
:1020600002771046704702207047704770B50446EB
:1020700090F87C0001281DD0012084F87C002420E9
:10208000C4F8800020680568026822F0010202603E
:102090002068826822F060620A438260204601F074
:1020A0002FFA206805602020C4F88000002084F802
:1020B0007C0070BD022070BD70B5044690F87C00B5
:1020C00001281DD0012084F87C002420C4F8800061
:1020D00020680568026822F00102026020688268B8
:1020E00022F060420A438260204601F009FA20682B
:1020F00005602020C4F88000002084F87C0070BDBA
:10210000022070BD70477047704700002DE9F04114
:1021100003680446D86919689A6840F60F05284292
:102120004FF0000509D186067ED501F0200602F0A9
:1021300080573E4378D0E16E9EE0624E624F16407B
:102140000F40374370D0C70709D0CF0507D5012707
:102150001F62D4F8883043F00103C4F88830830745
:102160000AD5D30708D0276802233B62D4F8883009
:1021700043F00403C4F8883043070AD5D30708D0D6
:10218000276804233B62D4F8883043F00203C4F884
:10219000883003070CD501F02003334308D02668AC
:1021A00008233362D4F8883043F00803C4F8883039
:1021B00003050BD54B0109D526684FF40063336244
:1021C000D4F8883043F02003C4F88830D4F888303D
:1021D000002B34D0800609D501F0200002F0805198
:1021E000084303D0E16E09B120468847D4F888003F
:1021F00021688968490602D410F0280F21D02046B2
:1022000001F04EFA20688168490615D5816821F0F1
:1022100040018160A06F78B12C498163A06FFEF707
:10222000E2F900280BD000E011E0A06F816B00E024
:102230002046BDE8F04108472046FFF765FFBDE8AE
:10224000F0812046FFF760FFC4F88850F7E7C60228
:1022500009D5560207D54FF4801018622046BDE814
:10226000F041FFF750BF060609D501F0800602F4E1
:102270000002164303D0216F0029D9D1DFE74206BF
:102280000DD54A060BD51968204621F0400119608A
:102290002021C4F88010256700F04AF9CFE7020238
:1022A00006D54A0004D52046BDE8F041FFF72ABF15
:1022B000C001C4D50029C2DA2046BDE8F041FFF7CD
:1022C000D4BE000001000010200100048B3600087D
:1022D00010B5040003D0D4F8800010B107E001204D
:1022E00010BD002084F87C00204600F027F8242050
:1022F000C4F880002068016821F0010101602046D7
:1023000001F0E0FA0128EBD0A06A10B1204601F0FC
:1023100029F92068416821F4904141602068816872
:1023200021F02A0181602068016841F0010101600B
:102330002046BDE8104001F079B9000010B598B012
:102340000446142111A8FEF7A4F844216846FEF7BC
:10235000A0F81B492068884230D101200024CDE933
:1023600000046846FEF77AFB08B1FEF73AF9154813
:10237000016E41F480410166016E01F480411691C5
:10238000C16C41F00101C164C06C11A900F00100F1
:1023900016904FF4C06011900220CDE9120407207E
:1023A000CDE914404FF09040FEF76CF90022114641
:1023B0002520FEF7BBFA2520FEF7AAFA18B010BDBB
:1023C000003801400010024070B5D0F88430202B56
:1023D0006DD1B9B1B2B190F87C30012B67D0012337
:1023E00080F87C308165A0F85C20A0F85E20002198
:1023F000C16683684FF48056FF24B34207D1036956
:1024000013B11CE0012070BD40F2FF131DE07F25D9
:102410009BB1B3F1805F15D0A0F86010C0F88810B0
:102420002223C0F8843003689C6844F001049C6057
:10243000436EB3F1005F0ED027E0036943B9A0F803
:102440006040EBE703691BB13F23A0F86030E5E78C
:10245000A0F86050E2E7B0F86830934215D882687F
:10246000B24201D1026972B1124AC26680F87C1090
:1024700001680A6842F480720A600068816841F06D
:10248000805181600FE00C4AEFE78268B24201D1CF
:10249000026952B1094AC26680F87C10006801687E
:1024A00041F490710160002070BD054AF3E70220FD
:1024B00070BD00002538000825370008C537000822
:1024C000C536000870B500681449884225D1144803
:1024D000FFF7A0F812480023006843621148124D2C
:1024E000417A491C4172817A047A01EB810205EB41
:1024F0004205C27AAC54521CC2722D2C02D1491C26
:102500008172C3720648FFF749F8BDE8704005497B
:10251000012208310548FFF757BF70BD0038014060
:10252000F000002010000020A403002088010020FB
:102530007047FEE700B585B014216846FDF7A9FF96
:102540004FF6FF70009000200321CDE902010190B9
:1025500069460248FEF796F805B000BD000800483D
:1025600000B585B014216846FDF793FF4FF6FF7064
:102570000090012001900320039000200290694602
:102580000248FEF77FF805B000BD000000080048D3
:1025900070B5002406462146204600F003F900F0FD
:1025A00041F94FF49635304600F010F9641CAC4206
:1025B000F9D370BD30B587B014216846FDF769FFC7
:1025C0001E48C16C41F00401C164C16C01F00401FA
:1025D0000591C16C41F00101C164C16C01F00101C0
:1025E0000591C16C41F00201C164C06C012500F08D
:1025F000020005904FF44870CDE9000500240394D3
:10260000694602940E48FEF73DF8280203940090B4
:10261000CDE901544FF0904469462046FEF732F868
:10262000FFF79EFFA06940F48070A0610448183055
:10263000016841F40871016007B030BD001002402C
:1026400000040048203AD2B2034B02EB420203EBF3
:10265000021200F019B8000036410008F0B50E462D
:102660000746002540F23F1407E021463846FFF7B1
:10267000E9FF103C6D1CA4B2761C3278002A01D010
:10268000142DF2D3F0BD00002DE9F04791468A46A3
:102690000026044600F086F8DFF84080012700BFDE
:1026A00000F0C0F85FF0000539F8160007FA05F1F0
:1026B0000842404601D1408800E0008800F086F8DA
:1026C0006D1C102DF0D3641CE4B25146204600F07E
:1026D00069F8761C182EE3D3BDE8F087500000207F
:1026E00010B5FFF767FF002000F014F8084CA08039
:1026F000A088A0F50241303906D000F0F7FA00209A
:1027000000F008F8A08010BD00F067FAF7E70000BD
:102710005000002070B51D490A6842F400720A603A
:102720000A6842F480720A60184C103C226842F039
:1027300020022260164A1060086840F020000860FD
:1027400000BF00BF00BF206840F02000206020686C
:1027500040F480702060FFF7EDFE4FF09041886AF2
:1027600040F48070886200BF00BF00BF0848001FAF
:10277000006885B2886940F480708861FFF7F0FED8
:10278000206840F400702060284670BD280400488E
:102790001408004801B5BDF800000149488008BD93
:1027A0005000002010B50C460146202000F068F8CB
:1027B0002146BDE81040212000F062B801B5BDF807
:1027C00000000149088008BD50000020134A11682C
:1027D00041F400711160114910390B6843F48073A2
:1027E0000B600B6843F020030B600D4B1860106802
:1027F00040F02000106000BF00BF00BF086840F03C
:1028000020000860086840F48070086000BF00BFC6
:1028100000BF086840F40070086070472804004852
:10282000140800481449086840F4007008600868FB
:1028300040F48070086010481038026842F02002AE
:1028400002600E4B22221A600A6842F020020A60DF
:1028500000BF00BF00BF016841F0200101600168B6
:1028600041F48071016000BF00BF00BF016841F406
:1028700000710160704700002804004814080048F7
:10288000184B10B51A6842F400721A601A6842F4C4
:1028900080721A60134A103A146844F020041460DD
:1028A000114C2060186840F02000186000BF00BF85
:1028B00000BF106840F020001060106840F4807085
:1028C00010602160186840F02000186000BF00BF51
:1028D00000BF106840F020001060106840F4807065
:1028E000106010BD2804004814080048F0B587B0F7
:1028F00014216846FDF7CDFD2D48C16C41F004015F
:10290000C164C16C01F004010591C16C41F020016A
:10291000C164C16C01F020010591C16C41F001015D
:10292000C164C16C01F001010591C16C41F002016B
:10293000C164C16C01F002010591C16C41F0080154
:10294000C164C06C1B4E00F008004FF47F4405903A
:10295000012221463046FDF77EFF174F0122042158
:102960003846FDF778FF0125CDE9004500240294A3
:10297000694630460394FDF785FECDE9005469466B
:102980004FF090400295FDF77DFE07208DE8310065
:1029900069460A48FDF776FE04200090CDE901540F
:1029A000694638460394FDF76DFE07B0F0BD0000A0
:1029B0000010024000080048000C004800040048D5
:1029C00010B588B000241848009401940294039430
:1029D0000494059413490694016040F21F31C0E944
:1029E000011440F2E731C0E9031444618461FEF749
:1029F00032FD08B1FDF7F5FD4FF4805000906946B7
:102A00000948FEF71FFE08B1FDF7EBFD049404A989
:102A100005480694FEF7D0FC002801D0FDF7E1FD43
:102A200008B010BD00400140F00000201FB5002498
:102A300015480094019402941249039401604F21B7
:102A4000C0E901144FF6FF71C0E9031444618461C9
:102A5000FEF701FD08B1FDF7C4FD0B48FEF713FFBB
:102A600008B1FDF7BEFD0120CDE90040029400222F
:102A7000694605480394FEF77FFE002801D0FDF764
:102A8000B0FD1FBD004801403C01002010B58EB0D4
:102A900000240794089409940A940B940C941C2124
:102AA00068460D94FDF7F5FC1D484FF0804101602C
:102AB0004F21C0E9011440F2E731C0E903148461F9
:102AC000FEF7C9FC08B1FDF78CFD4FF4805007906C
:102AD00007A91348FEF7B6FD08B1FDF782FD1048BF
:102AE000FFF74CF908B1FDF77CFD0B940BA90C48DE
:102AF0000D94FEF761FC08B1FDF773FD6020CDE990
:102B0000000402940422694605480494FFF7A7F8DC
:102B100008B1FDF766FD0248FFF77AF80EB010BD68
:102B2000580000203EB500240F48009401940D4940
:102B3000029401604F21C0E9011440F2E731846141
:102B4000C160FEF788FC08B1FDF74BFD00946946B3
:102B500005480294FEF730FC002801D0FDF741FD46
:102B60003EBD000000140040A4000020184810B52D
:102B7000164901604FF416514160002181600C221A
:102B8000C160C0E904128161C16101624162816278
:102B9000FFF79EFB08B1FDF724FD00210C48FFF76D
:102BA0008BFA08B1FDF71DFD00210948FFF75EFA19
:102BB00008B1FDF716FD0648FFF738FA002803D0E4
:102BC000BDE81040FDF70DBD10BD0000003801400C
:102BD00088010020FEE7FEE7704730B501210020A4
:102BE000FFF74EFE4FF47A70FDF7EDFC0021012057
:102BF000FFF746FE41F290711020FFF741FE4FF4BF
:102C00001C516020FFF73CFE01216120FFF738FED8
:102C100002214620FFF734FE48F210011320FFF78F
:102C20002FFE48F2FE011220FFF72AFE4FF4A061AA
:102C30000220FFF725FE41F230010320FFF720FEBE
:102C400040F2033421463020FFF71AFE214631209E
:102C5000FFF716FE21463220FFF712FEE51E294639
:102C60003320FFF70DFE03213420FFF709FE214634
:102C70003520FFF705FE14213620FFF701FE21461F
:102C80003720FFF7FDFD21463820FFF7F9FD2146EB
:102C90003920FFF7F5FD29463A20FFF7F1FD032122
:102CA0003B20FFF7EDFD21463C20FFF7E9FD4FF407
:102CB000A0513D20FFF7E4FD4FF400719220FFF793
:102CC000DFFD21469320FFF7DBFD40F60D0190204C
:102CD000FFF7D6FD41F218010320FFF7D1FDBDE853
:102CE000304040F273110720FFF7CABD10B543F220
:102CF0000801E320FFF7C4FD1221E720FFF7C0FD24
:102D000041F23121EF20FFF7BBFD00210120FFF749
:102D1000B7FD4FF4E0610220FFF7B2FD41F2300150
:102D20000320FFF7ADFD00210420FFF7A9FD40F2CD
:102D300007210820FFF7A4FD00210920FFF7A0FDCF
:102D400000210A20FFF79CFD00210C20FFF798FDD1
:102D500000210D20FFF794FD00210F20FFF790FDCB
:102D600000211020FFF78CFD07211120FFF788FDBF
:102D700000211220FFF784FD00211320FFF780FDC2
:102D8000C820FDF76DFC41F290611020FFF778FD3F
:102D900040F227211120FFF773FD3220FDF760FC80
:102DA0001D211220FFF76CFD3220FDF759FC4FF476
:102DB00000611320FFF764FD14212920FFF760FD57
:102DC0000B212B20FFF75CFD3220FDF749FC002191
:102DD0002020FFF755FD00212120FFF751FD07219D
:102DE0003020FFF74DFD40F207713120FFF748FD1D
:102DF00006213220FFF744FD40F204713520FFF731
:102E00003FFD41F604713620FFF73AFD04213720DB
:102E1000FFF736FD00213820FFF732FD40F2067142
:102E20003920FFF72DFD40F201713C20FFF728FD0E
:102E30000F213D20FFF724FD00215020FFF720FD4A
:102E4000EF215120FFF71CFD00215220FFF718FD54
:102E500040F23F115320FFF713FD4FF41C51602047
:102E6000FFF70EFD01216120FFF70AFD00216A2016
:102E7000FFF706FD00218020FFF702FD00218120E1
:102E8000FFF7FEFC00218220FFF7FAFC00218320DF
:102E9000FFF7F6FC00218420FFF7F2FC00218520DB
:102EA000FFF7EEFC10219020FFF7EAFC00219220B2
:102EB000FFF7E6FC03219320FFF7E2FC4FF4887153
:102EC0009520FFF7DDFC00219720FFF7D9FC0021BA
:102ED0009820FFF7D5FC41F218010320FFF7D0FC42
:102EE000BDE8104040F273110720FFF7C9BC000095
:102EF0001048114A01781378994219D141785378D2
:102F0000994215D181789378994211D1817AA1F1B2
:102F10003003092B0CD8C37A302B09D3392B07D8AF
:102F2000007B302804D3392802D811705370907078
:102F300070470000A40300202C0000207047FDF71C
:102F400095BC10B594B038216846FDF7A2FA14215B
:102F50000EA8FDF79EFA4FF40070FDF719FD012051
:102F600000900004019002200324CDE907041421FD
:102F7000CDE90A100C900D9009946846FDF7FCFF0E
:102F800008B172B6FEE70F20CDE90E0400201090C4
:102F90001190129002210EA8FDF7A4FE002801D086
:102FA00072B6FEE714B010BD0548016841F4700127
:102FB000016003494FF000608039086070470000ED
:102FC00088ED00E00148FEF725BD0000F00000207C
:102FD0000148FEF71FBD00003C0100200148FEF73C
:102FE00019BD0000580000200148FEF713BD000085
:102FF000A40000202DE9F0430268234B234D244E0A
:10300000244C4FF08049984207D0484505D0A8424B
:1030100003D0B04201D0A04203D122F070074A6829
:103020003A431D4FDFF874C0DFF8748098420DD02A
:1030300048450BD0A84209D0B04207D0A04205D0E5
:10304000B84203D0604501D0404503D122F4407519
:10305000CA682A434D6922F080022A4302608A68C6
:10306000C2620A688262984207D0A04205D0B84284
:1030700003D0604501D0404501D1096901630121B8
:103080004161BDE8F0830000002C014000040040D5
:10309000000800400034014000400140004401406D
:1030A0000048014010B501F01F030121046A994056
:1030B0008C430462016A9A401143016210BD10B54D
:1030C000846842EA032224F47F440A432243826054
:1030D00010BD00008268034B1A400A4342F007010A
:1030E000816070478FFFCFFF2DE9F043026A22F025
:1030F00001020262056A436882691C4C25F00205E0
:1031000022400C6822F0030214438A68194E2A43B5
:10311000174D194FDFF864C0DFF86490A84207D05C
:10312000B04205D0B84203D0604501D0484506D131
:1031300022F00808CA6842EA080222F00402A84203
:1031400007D0B04205D0B84203D0604501D0484511
:1031500005D14D6923F440731D438B692B434360B4
:103160008461496841630262BDE8F0838FFFFEFF1E
:10317000002C014000340140004001400044014067
:1031800000480140F0B5026A22F010020262056AAE
:1031900042688369194C1B4E23400C6823F440732A
:1031A00043EA042425F020038D6843EA0513144DF7
:1031B000A84201D0B04206D1CF6823F0800343EA91
:1031C000071323F04003A8420AD0B04208D00E4DA6
:1031D000A84205D00D4DA84202D00D4DA84207D1FE
:1031E0004D6922F4406242EA85028D6942EA850215
:1031F00042608461496881630362F0BDFF8FFFFE16
:10320000002C0140003401400040014000440140D6
:1032100000480140F0B5026A22F480720262056A39
:103220004368C269194C1B4E22400C6822F003020D
:10323000144325F400728D6842EA0522144DA84219
:1032400001D0B04206D1CF6822F4006242EA0722E0
:1032500022F48062A8420AD0B04208D00E4DA842A3
:1032600005D00E4DA84202D00D4DA84207D14D69A0
:1032700023F4405343EA05138D6943EA0513436081
:10328000C4614968C1630262F0BD00008FFFFEFFA8
:10329000002C014000340140004001400044014046
:1032A00000480140F0B5026A22F480520262056AC9
:1032B0004268C369194C1B4E23400C6823F44073C9
:1032C00043EA042425F400538D6843EA0533144D82
:1032D000A84201D0B04206D1CF6823F4004343EAAC
:1032E000073323F48043A8420AD0B04208D00E4DE1
:1032F000A84205D00D4DA84202D00D4DA84207D1DD
:103300004D6922F4404242EA85128D6942EA8512F3
:103310004260C461496801640362F0BDFF8FFFFE33
:10332000002C0140003401400040014000440140B5
:103330000048014030B5026A22F480320262046A19
:103340004268036D114D2B400D681D4324F400337A
:103350000C8943EA04430E4CA0420BD00D4CA04212
:1033600008D00D4CA04205D00C4CA04202D00C4C11
:10337000A04204D14C6922F4803242EA0422426025
:10338000056549688164036230BD00008FFFFEFF60
:10339000002C014000340140004001400044014045
:1033A0000048014030B5026A22F480120262046AC9
:1033B0004268036D114D24F400142B400D6843EA5C
:1033C00005230D8944EA05540D4DA8420BD00D4D3F
:1033D000A84208D00C4DA84205D00C4DA84202D0FE
:1033E0000B4DA84204D14D6922F4802242EA852285
:1033F000426003654968C164046230BDFF8FFFFE0F
:10340000002C0140003401400040014000440140D4
:103410000048014010B5036A046A24F00104046204
:10342000846924F0F00444EA021423F00A020A43F7
:103430008461026210BD000070B5046A24F00104CA
:1034400004628469056A124EB0420ED0B0F1804F1A
:103450000BD0104EB04208D00F4EB04205D00F4EE8
:10346000B04202D00E4EB04203D124F00304144304
:1034700001E044F001041A0724F0F00444EA126267
:1034800025F00A0301F00A0119438261016270BD4F
:10349000002C0140000400400008004000340140BE
:1034A0000040014010B5036A23F0100303628369F2
:1034B000046A23F4704343EA023224F0A00343EA8F
:1034C00001118261016210BD30B5046A24F010045C
:1034D00004628469056A24F4407444EA022222F4F6
:1034E00070444FF6FF7202EA03322243A02425F013
:1034F000A00304EA011119438261016230BD00009A
:103500003FB514A1D1E90021CDE9002113A2D2E9F0
:103510000012CDE90212416EB9B102689168926859
:10352000C1F34261520F1DF80240E50002ACA25CFB
:10353000B5FBF2F2A0F86A201DF80120615CD20010
:10354000B2FBF1F1A0F868103FBD0121A0F86A10AC
:10355000F8E700000101010307010000080402046C
:103560000801010190F82810C90706D001684A68CF
:10357000C36A22F400321A434A6090F8281089077F
:1035800006D501684A68036B22F480321A434A6008
:1035900090F82810490706D501684A68436B22F461
:1035A00080221A434A6090F82810090706D501685E
:1035B0004A68836B22F400421A434A6090F828104C
:1035C000C90606D501688A68C36B22F480521A4383
:1035D0008A6090F82810890606D501688A68036C0D
:1035E00022F400521A438A6090F82810490611D537
:1035F00001684A68436C22F480121A434A60416CA5
:10360000B1F5801F06D101684A68836C22F4C002BC
:103610001A434A6090F82810090606D501684A68DE
:10362000C06C22F4002202434A607047F8B50026BD
:103630000446C0F88860FDF713F905462068006865
:103640006FF07E47000708D52B4600224FF400118B
:103650002046009700F072FA60B9206800684007C1
:103660000AD52B4600224FF480012046009700F037
:1036700065FA08B10320F8BD2020C4F88000C4F822
:10368000840084F87C600020F8BD10B5806A0021B9
:10369000A0F85E10A0F85610FEF736FD10BD000031
:1036A00001680A6822F490720A6001688A68044B13
:1036B0001A408A602021C0F884100021C16670473A
:1036C000FEFFFFEF10B5B0F86020D0F8843001683D
:1036D000222B04D0886940F00800886110BD496A37
:1036E000836D11401980816D891C8165B0F85E1071
:1036F000491EA0F85E10B0F85E100029EED10168F6
:103700000A6822F490720A6001688A6822F0010255
:103710008A602021C0F884100021C166FEF7D2FE25
:1037200010BD000070B50446B0F86060D0F88400A9
:10373000222805D02068816941F00801816170BDAF
:10374000B4F8685023E02068406AA16D30400880DA
:10375000A06D801CA065B4F85E00401EA4F85E0059
:10376000B4F85E0088B92068016821F480710160B6
:1037700020688168114A114081602020C4F88400CB
:103780000020E0662046FEF79DFE6D1EADB2002DC6
:10379000D9D1B4F85E000028D1D0B4F868108142C5
:1037A000CDD92068816821F0805181600448E066AD
:1037B0002068016841F02001016070BDFEFFFFEF4D
:1037C000C536000810B5B0F86020D0F88430016824
:1037D000222B04D0886940F00800886110BD496A36
:1037E0001140826D1170816D491C8165B0F85E10C9
:1037F000491EA0F85E10B0F85E100029EED10168F5
:103800000A6822F490720A6001688A6822F0010254
:103810008A602021C0F884100021C166FEF752FEA4
:1038200010BD000070B50446B0F86060D0F88400A8
:10383000222805D02068816941F00801816170BDAE
:10384000B4F8685023E02068406AA16D30400870E9
:10385000A06D401CA065B4F85E00401EA4F85E0098
:10386000B4F85E0088B92068016821F480710160B5
:1038700020688168114A114081602020C4F88400CA
:103880000020E0662046FEF71DFE6D1EADB2002D45
:10389000D9D1B4F85E000028D1D0B4F868108142C4
:1038A000CDD92068816821F0805181600448E066AC
:1038B0002068016841F02001016070BDFEFFFFEF4C
:1038C000C53700082DE9F041044602688068216987
:1038D000E36908436169002519430843616EDFF815
:1038E00030C2014310688B4B1840084310602068B9
:1038F0004168E26821F44051114341602168A069A8
:10390000614501D0226A10438A68834B1A40024302
:103910008A602068C16A626A21F00F011143C162A6
:103920007E4923687E488B420DD1D0F8880010F084
:10393000030006D0012855D0022842D003283FD1E9
:1039400052E001203DE077498B420BD1D0F888004E
:1039500010F00C0035D0042833D0082840D00C28B3
:103960002ED141E070498B420BD1D0F8880010F085
:10397000300026D0102835D0202831D030281FD153
:1039800032E06A498B420BD1D0F8880010F0C000B9
:1039900017D0402826D0802822D0C02810D123E07C
:1039A00063450DD1D0F8880010F4406009D0B0F51F
:1039B000806F17D0B0F5006F12D0B0F5406F13D004
:1039C00010205B495B4F00264FF40042634539D11C
:1039D00060B1022813D004280BD0082831D10DE0A3
:1039E0000220EEE70420ECE70820EAE7FDF768FA9A
:1039F00001E0FDF789FA010001D17EE01146606A1D
:103A000037F810206768B1FBF2F007EB47038342F9
:103A10006FD8B0EB073F6CD8002308461946FCF777
:103A20004FFC090241EA1061020278081018714146
:103A30003A460023FCF744FC3F4AA0F5407191420E
:103A400059D956E0E3694FF6EF7893422DD1092812
:103A50004FD2DFE800F00508114E0D4E4E4E10001B
:103A6000FDF72EFA01E0FDF73DFA010004D144E034
:103A7000FDF74AFAF9E71146606A37F81000B1FB22
:103A8000F0F04100606801EB5001B1FBF0F080B252
:103A9000A0F1100141452CD84FF6F0710140C0F360
:103AA000420001432068C16027E0092821D2DFE8F5
:103AB00000F0050811200D2020201000FDF700FA6D
:103AC00001E0FDF70FFA010004D116E0FDF71CFA42
:103AD000F9E71146606A37F81000B1FBF0F1606851
:103AE00001EB5001B1FBF0F080B2A0F110014145B3
:103AF00001D9012501E02168C8600120A4F86A000D
:103B000024F8680F28466660A660BDE8F0810000D2
:103B100000800040F369FFCFFFF4FF11003801403F
:103B2000001002400044004000480040004C0040AB
:103B30000024F40006410008FFFC0F002DE9F047C7
:103B40009A4617460E4604464FF000094FF02008EB
:103B5000089D39E0681C37D0FCF782FEA0EB0A0014
:103B6000A84222D80DB32068016849072CD5C06946
:103B7000C043000528D421684FF400600862206823
:103B8000016821F4D07101602068816821F0010191
:103B90008160C4F88080C4F88480C4F8888000BF45
:103BA00084F87C900320BDE8F0872068016821F448
:103BB000D07101602068816821F001018160C4F842
:103BC0008080C4F88480EBE72068C06936EA000092
:103BD00004D00020B842BDD00020E4E70120F9E77E
:103BE0000148FEF793BA000088010020FEE70907AC
:103BF000090E002804DB00F1E02080F80014704773
:103C000000F00F0000F1E02080F8141D7047000064
:103C10002DE9F041694D01212846FCF717FE684C5B
:103C20000221A0732846FCF711FEE0730421284608
:103C3000FCF70CFE207401214FF09040FCF706FECB
:103C40006074A07B022601250028A07C4FF47A77BF
:103C500001D028B10DE060B1FCF702FE606208E01F
:103C6000FCF7FEFD616A401AB84201D3A67500E078
:103C7000A575E07B0028E07C01D028B10DE060B1A3
:103C8000FCF7EEFDA06208E0FCF7EAFDA16A401A2D
:103C9000B84201D3E67500E0E575207C0028207D60
:103CA00001D028B10DE060B1FCF7DAFDE06208E078
:103CB000FCF7D6FDE16A401AB84201D3267600E04F
:103CC0002576607C0028607D01D028B10DE060B1D0
:103CD000FCF7C6FD206308E0FCF7C2FD216B401A2B
:103CE000B84201D3667600E06576A27D30210020DF
:103CF0006AB1012A0AD1227842B96278402A04D0F6
:103D0000521CD2B26270392A00D96170A075E27D6E
:103D10006AB1012A0AD1227842B9A278402A04D095
:103D2000521CD2B2A270392A00D9A170E075227E4D
:103D30006AB1012A0AD1227842B9E278402A04D035
:103D4000521CD2B2E270392A00D9E1702076617E2D
:103D500051B3012927D11A4963781C310A789A4254
:103D600012D14A78A3789A420ED18978E2789142AA
:103D70000AD1144925704FF4FA720B68DA62CA60EE
:103D8000096832228A630EE02179491C11F0FF0193
:103D9000217108D040226270A270E270032902D122
:103DA0002071E57165716076A07BA074E07BE074A2
:103DB000207C2075607C6075BDE8F08100040048BF
:103DC000100000205800002010B51BA12048FCF76F
:103DD000EFFA1F481FA12830FCF7EAFA1C4816A189
:103DE0005030FCF7E5FA214C194821A1627878306F
:103DF000FCF7DEFA1648A27823A1A030FCF7D8FA27
:103E00001348E27826A1C830FCF7D2FA10480AA17C
:103E1000F030FCF7CDFA08A12748FCF7C9FA26488C
:103E200005A12830FCF7C4FA2348BDE8104002A1E0
:103E30005030FCF7BDBA0000202020202020202098
:103E40002020202020202020202020202020200092
:103E50001402002020202020202020505344202025
:103E600020202020202020202020200010000020C2
:103E70002020202042313A256320202020202020AD
:103E800020202020202020002020202042323A25FF
:103E900063202020202020202020202020202000FF
:103EA0002020202042333A2563202020202020207B
:103EB00020202020202020002C03002010B519A154
:103EC0001E48FCF775FA1D481DA12830FCF770FA52
:103ED0001A4814A15030FCF76BFA18481EA178302C
:103EE000FCF766FA154823A1A030FCF761FA1348E5
:103EF0000CA1C830FCF75CFA10480AA1F030FCF7BE
:103F000057FA08A12148FCF753FA204805A12830A8
:103F1000FCF74EFA1D48BDE8104002A15030FCF7F6
:103F200047BA000020202020202020202020202010
:103F300020202020202020202020200014020020EB
:103F400020202020202020535441202020202020E9
:103F5000202020202020200020202020463A32301F
:103F60003030487A202020202020202020202020AF
:103F70000000000020202020443A31302525202058
:103F80002020202020202020202020002C03002082
:103F900070B50D48007810B1012803D004E0FFF798
:103FA00013FF01E0FFF78AFF084D002404EB8400B3
:103FB00005EBC00104EB4400C006000EFEF74EFB0B
:103FC000641C0A2CF2DB70BD1000002014020020DB
:103FD0002DE9F047134C054688462068124F86B2FB
:103FE000788B2060DFF84490012204214846FCF7DA
:103FF00032FC4FF480716D1EA9400A4889B2143812
:10400000B8F1000F01D0002200E00122FCF723FCF0
:10401000002204214846FCF71EFC206878832660B5
:10402000BDE8F0871408004810000020000C00488C
:10403000FCF724FCFEF785FFFEF758FCFEF726FD93
:10404000FEF770FDFEF7BCFCFEF7F0FCFEF78EFD00
:10405000002204212348FCF7FEFB00210120FFF78A
:10406000B7FF00210220FFF7B3FF00210320FFF775
:10407000AFFF00210420FFF7ABFF00210520FFF771
:10408000A7FF00210620FFF7A3FF00210720FFF76D
:104090009FFF00210820FFF79BFFFEF721FB002078
:1040A000FEF776FA4FF6FF70FEF788FB0020FEF76A
:1040B00071FB0D48FDF772FA00210C48FDF716FC64
:1040C00004210B48FDF78EFE09494FF4FA70096888
:1040D0008863012207490848FEF776F9FFF758FF81
:1040E000FCE70000000C0048A40000203C01002078
:1040F0005800002018000020880100204FF0407078
:10410000E1EE100A704701000200040006000800FA
:104110000A000C0010002000400080000001000098
:104120000000000000000102030406070809000067
:104130000000010203040000000000000000000075
:10414000000000000000000000000000000000006F
:10415000000000000000000000000000000000005F
:10416000000000000000000080018001800180014B
:104170008001800180018001800180018001800137
:1041800080010000000080018001000000000000AC
:1041900000000000000000000000CC00CC00CC00BB
:1041A000CC00CC00CC0000000000000000000000AB
:1041B00000000000000000000000000000000000FF
:1041C00000000000000000000000000000000000EF
:1041D0000000600C600C600C30063006FE1FFE1FF5
:1041E000300638071803FE1FFE1F180318038C0142
:1041F0008C018C01000000008000E003F80F9C0E91
:104200008C1C8C188C009800F801E007800E801C34
:104210008C188C189C18B80CF00FE00380008000FC
:104220000000000000000000000000000E181B0C41
:10423000110C11061106110311039B018E01C038E8
:10424000C06C60446044304430441844186C0C38EE
:104250000000000000000000E001F003380718062D
:1042600018063003F001F000F8009C310E33061EF2
:10427000061C061C063FFC73F02100000000000035
:10428000000000000000000000000C000C000C000A
:104290000C000C000C0000000000000000000000FA
:1042A000000000000000000000000000000000000E
:1042B0000000000000000000000200038001C000B8
:1042C000C00060006000300030003000300030007E
:1042D00030003000300060006000C000C00080018D
:1042E000000300020000000020006000C000800108
:1042F0008001000300030006000600060006000619
:104300000006000600060003000380018001C000D3
:10431000600020000000000000000000000000001D
:104320000000C000C000D806F807E00130033807DD
:10433000000000000000000000000000000000007D
:10434000000000000000000000000000000000006D
:10435000000080018001800180018001FC3FFC3F62
:1043600080018001800180018001000000000000C8
:10437000000000000000000000000000000000003D
:10438000000000000000000000000000000000002D
:104390000000000000000000800180010001000119
:1043A000800000000000000000000000000000008D
:1043B0000000000000000000000000000000E00716
:1043C000E007000000000000000000000000000006
:1043D00000000000000000000000000000000000DD
:1043E00000000000000000000000000000000000CD
:1043F0000000000000000000C000C000000000003D
:104400000000000000000000000C000C0006000688
:104410000006000300030003800380018001800187
:10442000C000C000C000600060000000000000008C
:104430000000000000000000E003F007380E180C38
:104440000C180C180C180C180C180C180C180C184C
:104450000C18180C380EF007E003000000000000F4
:10446000000000000000000000018001C001F00118
:104470009801880180018001800180018001800114
:1044800080018001800180018001000000000000A7
:104490000000000000000000E003F80F180C0C18EA
:1044A0000C1800180018000C000600038001C00062
:1044B000600030001800FC1FFC1F0000000000001E
:1044C0000000000000000000E001F807180E0C0CCE
:1044D0000C0C000C0006C003C007000C00180018EC
:1044E0000C180C18180CF807E0030000000000007E
:1044F0000000000000000000000C000E000F000F84
:10450000800DC00C600C600C300C180C0C0CFC3FC7
:10451000FC3F000C000C000C000C00000000000030
:104520000000000000000000F80FF80F180018004D
:104530000C00EC03FC071C0E001C001800180018EF
:104540000C181C0C180EF807E00300000000000017
:104550000000000000000000C007F00F381C181811
:1045600018000C00CC03EC0F3C0E1C1C0C180C1893
:104570000C18181C380EF007E003000000000000C3
:104580000000000000000000FC1FFC1F000C0006E3
:104590000006000380038001C001C000E00060004D
:1045A00060007000300030003000000000000000AB
:1045B0000000000000000000E003F007380E180CB7
:1045C000180C180C3806F007F007180C0C180C180B
:1045D0000C180C18380CF80FE00300000000000065
:1045E0000000000000000000E003F007380E1C0C83
:1045F0000C180C180C181C1C381EF81BE01900189D
:10460000000C000C1C0EF807F00100000000000078
:10461000000000000000000000000000000000009A
:104620000000800180010000000000000000000088
:104630000000000000008001800100000000000078
:10464000000000000000000000000000000000006A
:104650000000800180010000000000000000000058
:1046600000000000000080018001000100018000C6
:10467000000000000000000000000000000000003A
:104680000000000000000010001C800FE003F80094
:104690001800F800E003800F001C0010000000006C
:1046A000000000000000000000000000000000000A
:1046B000000000000000F81F000000000000F81FCC
:1046C00000000000000000000000000000000000EA
:1046D00000000000000000000000000000000000DA
:1046E00000000000000008003800F001C007001FB3
:1046F0000018001FC007F00138000800000000008B
:104700000000000000000000E003F80F180C0C1877
:104710000C180018000C000600038001C000C00047
:10472000C00000000000C000C00000000000000049
:1047300000000000000000000000E007181804203E
:10474000C229224A11440944094409440922111387
:10475000E20C024004201818E007000000000000EE
:10476000000000000000000080038003C006C006B7
:10477000C006600C600C301830183018F83FF83F55
:104780001C700C600C6006C006C000000000000039
:104790000000000000000000FC03FC0F0C0C0C18D3
:1047A0000C180C180C0CFC07FC0F0C180C300C30FF
:1047B0000C300C300C18FC1FFC070000000000003F
:1047C0000000000000000000C007F01F38381C3057
:1047D0000C700660060006000600060006000600D3
:1047E00006600C701C30F01FE007000000000000A5
:1047F0000000000000000000FE03FE0F060E061879
:104800000618063006300630063006300630063010
:1048100006180618060EFE0FFE030000000000003A
:104820000000000000000000FC3FFC3F0C000C00FA
:104830000C000C000C00FC1FFC1F0C000C000C00FA
:104840000C000C000C00FC3FFC3F000000000000CE
:104850000000000000000000F83FF83F18001800BA
:10486000180018001800F81FF81F1800180018008A
:1048700018001800180018001800000000000000C0
:104880000000000000000000E00FF83F3C780E60E0
:1048900006E007C00300030003FE03FE03C007C0D9
:1048A00006C00EC03CF0F83FE00F00000000000022
:1048B00000000000000000000C300C300C300C3008
:1048C0000C300C300C30FC3FFC3F0C300C300C300A
:1048D0000C300C300C300C300C30000000000000AC
:1048E00000000000000000008001800180018001C4
:1048F00080018001800180018001800180018001B0
:104900008001800180018001800100000000000022
:10491000000000000000000000060006000600067F
:104920000006000600060006000600060006000657
:10493000180618063807F003E00100000000000028
:10494000000000000000000006300618060C0606F5
:1049500006038601C60066007600DE008E010603AF
:104960000606060C0618063006600000000000006F
:1049700000000000000000001800180018001800D7
:104980001800180018001800180018001800180067
:10499000180018001800F81FF81F000000000000A1
:1049A00000000000000000000EE01EF01EF01EF0EF
:1049B00036D836D836D836D866CC66CC66CCC6C69D
:1049C000C6C6C6C6C6C686C386C3000000000000B1
:1049D00000000000000000000C301C303C303C3077
:1049E0006C306C30CC30CC308C310C330C330C361A
:1049F0000C360C3C0C3C0C380C3000000000000065
:104A00000000000000000000E007F81F1C380E70D6
:104A1000066003C003C003C003C003C003C003C0DB
:104A200006600E701C38F81FE00700000000000050
:104A30000000000000000000FC0FFC1F0C380C30D0
:104A40000C300C300C300C18FC1FFC070C000C0058
:104A50000C000C000C000C000C000000000000001A
:104A60000000000000000000E007F81F1C380E7076
:104A7000066003E003C003C003C003C003C007E037
:104A800006630E3F1C3CF83FE0F700C0000000004A
:104A90000000000000000000FE0FFE1F0638063078
:104AA000063006300638FE1FFE0706030606060C13
:104AB00006180618063006300660000000000000E8
:104AC0000000000000000000E003F80F1C0C0C18B0
:104AD0000C180C001C00F803E00F001E0038063014
:104AE00006300E301C1CF80FE0070000000000002C
:104AF0000000000000000000FE7FFE7F80018001BA
:104B0000800180018001800180018001800180019D
:104B10008001800180018001800100000000000010
:104B200000000000000000000C300C300C300C3095
:104B30000C300C300C300C300C300C300C300C3095
:104B40000C300C301818F81FE007000000000000BF
:104B50000000000000000000036006300630063050
:104B60000C180C180C18180C180C380E30063006DF
:104B7000700760036003C001C00100000000000076
:104B800000000000000000000360C361C361C36156
:104B90006633663366336633663366336C1B6C1B71
:104BA0006C1B2C1A3C1E380E380E00000000000052
:104BB00000000000000000000FE00C7018303018FA
:104BC000700C600EC00780038003C003E006700C09
:104BD000301C18180C300E6007E0000000000000C8
:104BE000000000000000000003C006600C301C380C
:104BF0003818300C6006E007C00380018001800196
:104C0000800180018001800180010000000000001F
:104C10000000000000000000FC7FFC7F006000300E
:104C20000018000C000600038001C0006000300086
:104C300018000C000600FE7FFE7F00000000000050
:104C40000000000000000000E003E00360006000DE
:104C50006000600060006000600060006000600054
:104C60006000600060006000600060006000600044
:104C7000E003E0030000000030003000600060004E
:104C80006000C000C000C000C00180018001800140
:104C900000030003000300060006000000000000FF
:104CA0000000000000000000E003E0030003000338
:104CB00000030003000300030003000300030003DC
:104CC00000030003000300030003000300030003CC
:104CD000E003E003000000000000C001C001600329
:104CE0006003600330063006180C180C000000004A
:104CF00000000000000000000000000000000000B4
:104D000000000000000000000000000000000000A3
:104D10000000000000000000000000000000000093
:104D20000000000000000000FFFFFFFF0000000087
:104D300000000000000000000C000C000C000C0043
:104D40000C000C000000000000000000000000004B
:104D50000000000000000000000000000000000053
:104D60000000000000000000000000000000000043
:104D70000000F003F8071C0C0C0C000FF00FF80CEF
:104D80000C0C0C0C1C0FF80FF018000000000000B9
:104D900000000000000000001800180018001800B3
:104DA0001800D803F80F380C181818181818181805
:104DB00018181818380CF80FD8030000000000006D
:104DC00000000000000000000000000000000000E3
:104DD0000000C003F007300E180C1800180018006F
:104DE0001800180C300EF007C0030000000000008F
:104DF0000000000000000000001800180018001853
:104E00000018C01BF01F301C181818181818181894
:104E100018181818301CF01FC01B000000000000FC
:104E20000000000000000000000000000000000082
:104E30000000C003F00F300C1818F81FF81F1800FE
:104E400018003818301CF00FC007000000000000E8
:104E50000000000000000000800FC00FC000C00074
:104E6000C000F007F007C000C000C000C000C000D4
:104E7000C000C000C000C000C00000000000000072
:104E80000000000000000000000000000000000022
:104E90000000E00DF80F180E0C0C0C0C0C0C0C0C98
:104EA0000C0C0C0C180EF80FE00D000C0C0C1C0672
:104EB000F807F001000000001800180018001800A2
:104EC0001800D807F80F381C1818181818181818D0
:104ED00018181818181818181818000000000000E2
:104EE0000000000000000000C000C0000000000042
:104EF0000000C000C000C000C000C000C000C00072
:104F0000C000C000C000C000C000000000000000E1
:104F10000000000000000000C000C0000000000011
:104F20000000C000C000C000C000C000C000C00041
:104F3000C000C000C000C000C000C000C000C00071
:104F4000F8007800000000000C000C000C000C00C1
:104F50000C000C0C0C060C038C01CC006C00FC004B
:104F60009C018C030C030C060C0C000000000000DC
:104F70000000000000000000C000C000C000C00031
:104F8000C000C000C000C000C000C000C000C00021
:104F9000C000C000C000C000C00000000000000051
:104FA0000000000000000000000000000000000001
:104FB00000007C3CFF7EC7E383C183C183C183C102
:104FC00083C183C183C183C183C10000000000008D
:104FD00000000000000000000000000000000000D1
:104FE00000009807F80F381C181818181818181807
:104FF00018181818181818181818000000000000C1
:1050000000000000000000000000000000000000A0
:105010000000C003F00F300C1818181818181818D2
:1050200018181818300CF00FC00300000000000022
:105030000000000000000000000000000000000070
:105040000000D803F80F380C18181818181818187A
:1050500018181818380CF80FD80318001800180082
:105060001800180000000000000000000000000010
:105070000000C01BF01F301C18181818181818183A
:1050800018181818301CF01FC01B00180018001842
:1050900000180018000000000000000000000000E0
:1050A0000000B007F0037000300030003000300026
:1050B0003000300030003000300000000000000000
:1050C00000000000000000000000000000000000E0
:1050D0000000E003F003380E180C3800F003C0079E
:1050E000000C180C380EF007E00300000000000070
:1050F000000000000000000000008000C000C000B0
:10510000C000F007F007C000C000C000C000C00031
:10511000C000C000C000C007800700000000000001
:10512000000000000000000000000000000000007F
:10513000000018181818181818181818181818181F
:1051400018181818381CF01FE019000000000000A3
:10515000000000000000000000000000000000004F
:1051600000000C18180C180C180C3006300630060D
:10517000600360036003C001C00100000000000084
:10518000000000000000000000000000000000001F
:105190000000C141C141C361636363636363363629
:1051A000363636361C1C1C1C1C1C0000000000007F
:1051B00000000000000000000000000000000000EF
:1051C00000001C38381C300C60066003600360036C
:1051D00060036006300C381C1C3800000000000022
:1051E00000000000000000000000000000000000BF
:1051F00000001830301830187018600C600CE00C8B
:10520000C006C00680038003800380018001C001C6
:10521000F00070000000000000000000000000002E
:105220000000FC1FFC1F000C000600038001C000F2
:10523000600030001800FC1FFC1F00000000000090
:10524000000000000000000000038001C000C0005A
:10525000C000C000C000C0006000600030006000FE
:105260004000C000C000C000C000C000C0008001FD
:105270000003000000000000800180018001800127
:105280008001800180018001800180018001800116
:105290008001800180018001800180018001800106
:1052A00080018001000000006000C000C00180019A
:1052B00080018001800180010003000300060003DB
:1052C0000001800180018001800180018001C00017
:1052D000600000000000000000000000000000006E
:1052E000000000000000F010F81F080F0000000090
:1052F00000000000000000000000000000000000AE
:1053000000000000000000002853000800000020FA
:1053100058000000140200088053000858000020C4
:10532000C009000030020008100000000100000069
:10533000000000000024F400004040400000000095
:105340000000000000000000000001010101000059
:1053500000000000313233000000000000000000B7
:10536000000000000000000000000000000000003D
:1053700000000000000000000000FFFF000000002F
:04000005080001D915
:00000001FF
