:020000040800F2
:100000003009002099020008C72D0008C127000808
:10001000C52D0008631400086B33000800000000C1
:10002000000000000000000000000000DF300008B9
:100030006514000800000000C92D0008E130000828
:10004000B3020008B3020008B3020008B3020008BC
:10005000B3020008B3020008B3020008B3020008AC
:10006000B3020008B3020008B3020008B30200089C
:10007000B3020008B3020008B3020008B30200088C
:10008000B302000800000000B3020008B302000839
:10009000B3020008B3020008B3020008B30200086C
:1000A000B3020008B3020008B3020008B30200085C
:1000B0006931000875310008B3020008B302000876
:1000C000B3020008B3020008B3020008B30200083C
:1000D000B3020008B3020008B3020008B30200082C
:1000E000B3020008B3020008B3020008B30200081C
:1000F000B3020008B3020008B302000800000000C9
:1001000000000000B302000800000000B302000875
:10011000B302000800000000B302000881310008AB
:10012000B3020008B3020008B3020008B3020008DB
:10013000B30200080000000000000000B302000845
:10014000B3020008B3020008000000000000000035
:10015000000000000000000000000000000000009F
:10016000000000000000000000000000B3020008D2
:10017000B3020008000000000000000000000000C2
:1001800000000000B30200080000000000000000B2
:10019000000000000000000000000000000000005F
:1001A0000000000000000000B3020008B3020008D5
:1001B000B3020008B3020008B30200080000000008
:1001C00000000000B3020008000000000000000072
:1001D000B3020008B302000800F002F800F04CF887
:1001E0000AA090E8000C82448344AAF10107DA4592
:1001F00001D100F041F8AFF2090EBAE80F0013F098
:10020000010F18BFFB1A43F001031847EC4F000021
:100210000C500000103A24BF78C878C1FAD85207B1
:1002200024BF30C830C144BF04680C607047000070
:100230000023002400250026103A28BF78C1FBD8EF
:10024000520728BF30C148BF0B607047662903F0D2
:100250009786642900F05480002070471FB503F092
:100260008AFE00F0C1FB04000020002103F0F6FD2F
:10027000E0601FBD10B510BD00F0B6FC1146FFF7E1
:10028000EDFF03F0C3FC00F0D4FC03B4FFF7F2FF72
:1002900003BC00F017FD00000948804709480047EB
:1002A000FEE7FEE7FEE7FEE7FEE7FEE7FEE7FEE726
:1002B000FEE7FEE704480549054A064B7047000083
:1002C0004D310008D901000830030020300900201A
:1002D00030050020300500200FB41CB5074B06AADE
:1002E0007B4469460090059800F065FB0020694654
:1002F00000F074FB1CBC5DF814FB0000F906000064
:100300002DE9F0410646002410687529314616A5EE
:1003100010D0AFF30080002802DA404213A507E0B6
:1003200031688A0701D512A502E0490704D511A555
:10033000012401E0AFF3008000210A2206F1240726
:1003400009E0B0FBF2FCB0FBF2F302FB1C00303022
:1003500078541846491C0028F3D123462A463046D3
:10036000BDE8F04100F0B9B8000000002D00000029
:100370002B000000200000002DE9F0474FF0000A9C
:1003800089460446C0F820A02046E1688847002836
:1003900076D0252806D0D4E901219047206A401C58
:1003A0002062F1E7E168204600258847C4F81CA0D8
:1003B00006460027C4F818A02A2E09D0304602F0BD
:1003C000FDFF38B304EB8708303EC8F8186019E029
:1003D00059F8041B204604EB87029161E1688847C5
:1003E000012F064618D1E069002820DA25F0200503
:1003F0001DE0D8F8180000EB800006EB4000303814
:10040000C8F818002046E1688847064602F0D6FF83
:100410000028EED1012F0AD02E2E08D12046E16807
:1004200088477F1C0646022F45F02005C4DBA069E3
:10043000002803DA404245F00105A061E80701D039
:1004400025F01005B6B1A6F14100192802D82036D2
:1004500045F400654A463146204625604D46FFF783
:10046000F5FE58B1012806D0ED1D25F0070000F17A
:10047000080989E704E005F1040985E730468AE7C1
:10048000206ABDE8F0874FF0000200B5134694469D
:100490009646203922BFA0E80C50A0E80C50B1F1DC
:1004A0002001BFF4F7AF090728BFA0E80C5048BFF0
:1004B0000CC05DF804EB890028BF40F8042B08BF8E
:1004C000704748BF20F8022B11F0804F18BF00F88A
:1004D000012B70477047704770472DE9F0470D4674
:1004E00099469246044600F124080168880604D51E
:1004F000E06921F01001216000E00120A84201DD47
:10050000471B00E00027A1697A1902EB0900081ACD
:10051000A0612078C00602D42046AFF300800026F8
:1005200008E0D4E901211AF806009047206A401C2F
:10053000761C20624E45F4DB2078C0060AD52046A2
:10054000AFF3008006E0D4E9012130209047206A13
:10055000401C2062381EA7F10107F4DC07E0D4E953
:10056000012118F805009047206A401C2062281ECF
:10057000A5F10105F3DC2046AFF3008020780006EA
:1005800002D50220BDE8F0870120FBE770472DE986
:10059000FF4F0C461E464FF0FF378BB0D2E90001EB
:1005A000DDF860800A908A46C1F30A5505B93D46D8
:1005B000002108464FF00000BAF1000F00F440009F
:1005C00005DA00EB80004FF4400101EA50004FEAE9
:1005D0009059B9F1010F00DDB9460A9850EA4A0076
:1005E0000ED044F61050A5F2FF3545432F14B8F154
:1005F000000F1ED07542291E1EDDC9F100021CE04D
:10060000B8F1010F4FF0000001D0302103E0F243B8
:1006100005E02154401CB042FBDB304600220021A3
:1006200021540B99C1F80880C1E900200FB0BDE842
:10063000F08FBD1B6D1CDEE74A4600DA694206A852
:1006400000F05CFA06AB93E8070003AB83E8070011
:1006500050460A9900F03DFB8DE80700A0F50050D8
:100660001F3800900398002D0ADD42F21F014A4610
:100670000844002303A90390684600F0A6FD09E0A2
:10068000A0F500504A461F38002303A9039068468E
:1006900000F0B0FD8DE807000004000C03D04FF01F
:1006A000FF30410800E01046B8F1000F03D00022EF
:1006B000009215461EE0751E05D400F099F93032FF
:1006C00062556D1EF9D5B3460122084302D00022BF
:1006D0007F1C04E02078302801D100227F1E002AF0
:1006E000099784D01DE0112D07DA00F081F930322E
:1006F00062556D1C50EA0102F5D1084302D0009802
:10070000C8B10EE00021681E05E0235C625C635402
:100710002254401E491C8142F7DBAB46A81B401EF9
:100720000990002004F80B000B98099AC0F8088083
:10073000C0E9002B7AE711264FF0000857E72DE9B2
:10074000F04F88460446D21D22F0070191B0D1E94E
:100750000001CDE90A0102F009FE02460B98C00F24
:1007600001D02D2007E02068810701D52B2002E071
:10077000202101EAC000032A099001D0072A05DBE5
:1007800003464146204600F079F90BE120788006C7
:1007900001D5E06900E00620B8F1650F814606D07A
:1007A000B8F1660F18D0B8F1670F70D131E00020B2
:1007B000B9F1110F009001DB112301E009F10103F0
:1007C0000AAA01A90CA8FFF7E2FEDDE90C700026D9
:1007D00009F10105834647E001204B4600904FF0A8
:1007E00000470AAA01A90CA8FFF7D1FEDDE90DB068
:1007F0000C995D46002610B909F101000D18B9EBFE
:10080000050003D4C0F1FF3609F10105A5EB09008D
:100810002BE0B9F1010F01DA4FF001090020B9F125
:10082000110F0090484601DD112300E003460AAA9B
:1008300001A90CA8FFF7ABFEDDE90C704D460026C0
:100840008346207800070AD4AB4500DA5D4601A84C
:10085000012D04DD411911F8011C302907D04F4545
:1008600002DA17F1040F04DA012082460FE06D1E50
:10087000EEE7002F02DCED1B3E4403E0781CA842AB
:1008800000DD7D1CB81B00F1010A4FF00047207805
:10089000000703D4AA4501DB4FF0FF3A0021B7F16E
:1008A000004F0DF143088DF8431024D002202B2374
:1008B000002F01DA7F422D230A21021EA0F1010040
:1008C00000DC5FB197FBF1FC97FBF1F201FB1C7CB4
:1008D00017460CF1300C08F801CDEEE7A8F1010045
:1008E00003702188090501D5452100E06521A0F1AB
:1008F000010800F8011C09980FA9A1EB0807FF1DCA
:1009000000B10120411901EBEA70A1693844081ACD
:10091000401EA0612078C00602D42046AFF30080BC
:10092000099828B1D4E901219047206A401C20622F
:100930002078C00622D52046AFF300801EE0002EAE
:1009400004DBB34502DD01A8805D00E03020D4E97E
:1009500001219047206A401C2062761CAAF1010008
:100960005FEA000A0AD100F03FF8C0680168405C05
:10097000D4E901219047206A401C2062281EA5F17D
:100980000105DCDC07E0D4E9012118F8010B9047F0
:10099000206A401C2062381EA7F10107F3DC2046C4
:1009A000AFF30080032011B041E6000001694A1C4A
:1009B00002610878704700B58FB0CDE901310021A0
:1009C000059105497944CDE9031011466846FFF7C2
:1009D000D3FC0FB000BD0000E5FFFFFF0A6802F87E
:1009E000010B0A607047000000487047F0020020C9
:1009F00030B5B0F10A024FEA900E71F100034EEAF1
:100A0000817EB0EB0E0061EB91014FEA101E4EEAC1
:100A1000017E10EB0E0041EB11114FEA102E4EEA51
:100A2000016E10EB0E0041EB11214FEA104E4EEA21
:100A3000014E10EB0E0041EB1141401841F1000155
:100A40004FEAD00040EA41704FEAD10110EB800537
:100A50004FEA810444EA907444EB01046D1944EBBD
:100A60000404521BA3414FF0000348BF0A3200D5D3
:100A700030BD401C41F1000130BD00002DE9F041C6
:100A80001F46044603260168072A01F4006004DBC0
:100A900008B116A505E016A503E008B115A500E00C
:100AA00015A521F010002060A069C01EA0610FB143
:100AB000401EA0612046AFF300804FB1D4E9012170
:100AC00038469047206A401C2062C01C206206E025
:100AD000206AFAE7D4E9012115F8010B9047761E48
:100AE000F8D22046AFF30080BDE8F0814E414E00C1
:100AF0006E616E00494E4600696E66002DE9F04752
:100B0000814616468AB0354878440DC88DE80D00F8
:100B100032487844801C03AC0DC884E80D0041F6CF
:100B20009B300844372190FBF1F290FBF1F5A5F1E1
:100B3000800501FB12041B3C02D56442012000E049
:100B40000020DFF898A080460027FA44AAF1BE0AE8
:100B50000EE0E0070AD03246684607EB4701012362
:100B60000AEB810100F046FB8DE8070064107F1C52
:100B7000002CEED1194F7F44AE3F19E0E80715D0A5
:100B800007EB04100DF1180A90E80E008AE80E0039
:100B9000C068F04201D1981908903246012306A995
:100BA00003A800F027FB03AB83E807006D10641C6B
:100BB000002DE3D14FF0010332466946B8F1000F32
:100BC00003A802D000F001FB01E000F013FBC9E92B
:100BD0000001C9F808200AB0BDE8F087D44600003B
:100BE00000487047D00200207546FFF7F9FFAE4677
:100BF00005006946534620F00700854618B020B529
:100C0000FFF758FBBDE820404FF000064FF000070B
:100C10004FF000084FF0000B21F00701AC46ACE8A4
:100C2000C009ACE8C009ACE8C009ACE8C0098D4611
:100C3000704710B50446AFF300802046BDE8104071
:100C4000FFF723BB4FF0013C50F8042B51F8043B55
:100C50009A4221D1A2EB0C03934313EACC1317D190
:100C600050F8042B51F8043B9A4215D1A2EB0C0327
:100C7000934313EACC130BD150F8042B51F8043BE7
:100C80009A4209D1A2EB0C03934313EACC13DBD0B5
:100C90004FF00000704700BFD01A01BAB1FA81F1DD
:100CA00001F0180122FA01F0CB40C1F12001DBB2C2
:100CB000C0B2C01A2CFA01F3D11A914311EAC31140
:100CC000E6D1704701491820ABBEFEE726000200BE
:100CD00070475FEA400C08BF91F0000F4FEA8C2389
:100CE0004FEAC12243EA51514FEA1C5018BF00F5A8
:100CF000F0404FEA300018BF41F000415FEA6C5C01
:100D000000F02980BCF1FF3F08BF40F080407047F1
:100D1000130C06BF12044FF0100C4FF0000C130E12
:100D200004BF12020CF1080C130F04BF12010CF1E6
:100D3000040C930F04BF92000CF1020CD30F04BFFC
:100D400052000CF1010C11464FF00002A0F11F00FF
:100D5000A0EB0C00704711F0004F08BF704731F056
:100D600000413FF4D5AF0B0C06BF09044FF0100C47
:100D70004FF0000C0B0E04BF09020CF1080C0B0F16
:100D800004BF09010CF1040C8B0F04BF89000CF1A6
:100D9000020CCB0F04BF49000CF1010CCCF1200375
:100DA000A0EB0C0022FA03F302FA0CF241EA030171
:100DB00000F10100704720F07F4C80EA030023F02F
:100DC0007F47ACEB070303F57C5300F0004003F1D1
:100DD000FF032DE980494FEA154B09B44FEA14434C
:100DE00025EA0B4E24EA03480FF2042606EB1327EC
:100DF00049083E785FEA320203FB0667C7F5000741
:100E000007FB06F64FEA54374FEAD64606F10206CC
:100E100007FB066CCCF1005C4FEA1C472CEA074C40
:100E200007FB06F40CFB06F504EB15464FEA961695
:100E300034BF00204FF000404FEAD13706FB07FCDB
:100E40004FEA1C4C0CFB0BF7D21B03FB0CF761EBBE
:100E500007010CFB0EF7B0EB074072EB17420CFBDF
:100E600008F734BFA2EB0742B2EB074261EB174130
:100E70004FEA0C444FEA910706FB07FC4FEA1C4C73
:100E80000CFB0BF7B0EBC74072EB573203FB0CF7D0
:100E900034BFA2EBC742B2EBC74261EB57310CFB48
:100EA0000EF7B0EBC70072EB57720CFB08F734BFBC
:100EB000A2EBC702B2EBC70261EB5771039F4FEA87
:100EC000816141EA921104EBCC044FEAD1374FEA39
:100ED000826206FB07FC42EA90124FEA80604FEA0A
:100EE0001C4C0CFB0BF7D21B03FB0CF761EB07014F
:100EF0000CFB0EF7B0EB074072EB17420CFB08F748
:100F000034BFA2EB0742B2EB074261EB17414FEA55
:100F10008C554FEA910704EB9C2406FB07FC4FEA33
:100F20001C4C0CFB0BF7B0EBC74072EB573203FBCA
:100F30000CF734BFA2EBC742B2EBC74261EB5731AB
:100F40000CFB0EF7B0EBC70072EB57720CFB08F707
:100F500034BFA2EBC702B2EBC70261EB577115EBCE
:100F60004C254FEA816141EA92114FEA82624FEAD1
:100F7000D13742EA901206FB07FC44F100044FEA25
:100F800080604FEA1C4C0CFB0BF7D21B03FB0CF7E9
:100F900061EB07010CFB0EF7B0EB074072EB174259
:100FA0000CFB08F734BFA2EB0742B2EB074261EB40
:100FB000174115EB1C154FEA813141EA92414FEA86
:100FC000823242EA90424FEA80304FEA0C7644F196
:100FD000000448EA03434EEA0B484FF0000EB2EB20
:100FE000080C71EB030724BF624639464EEB0E0E28
:100FF0004FF0000B0018524149414BEB0B0BB2EB89
:10100000080C71EB03077BF1000B24BF62463946E5
:101010004EEB0E0E4FF0000B0018524149414BEBC6
:101020000B0BB2EB080C71EB03077BF1000B24BF39
:10103000624639464EEB0E0E51EA020718BF46F0E3
:10104000010616EB0E7655F1000254F1000103D5AE
:10105000BDE88901BDE80088BDE88901BDE8004818
:10106000B619524141EB0101A3F1010370478080A1
:101070007F7E7D7C7B7A79787776767574737271F2
:1010800071706F6E6E6D6C6C6B6A6A6968686766AA
:1010900066656464636362616160605F5F5E5E5D3C
:1010A0005D5C5C5B5B5A5A595958585757565655B0
:1010B00055555454535352525251515050504F4F12
:1010C0004F4E4E4D4D4D4C4C4C4B4B4B4A4A4A4962
:1010D00049494848484747474746464645454544A5
:1010E0004444444343434342424242414141002B32
:1010F0009C4630D477002BD01CB54FEA370703B499
:101100004FF010004FF01001BAF1000F06D0BCF103
:10111000000FDCBF40F0080040F008014FF0000075
:101120000FBCBDE810400BF1010BBBF1010F08BF74
:101130005FEA170722BF12F1010211F101014FF01E
:10114000004143F1000300F0004043EA0000704713
:10115000F9D35708D0E746EA064613F1400F4FEAA5
:1011600016461FDD13F1200FDFBF16430A4600218C
:1011700020335B42BED0C3F1200746EA064602FA9E
:1011800007F74FEA164646EA0706C3F1200722FA98
:1011900003F201FA07F721FA03F14FF0000342EAE4
:1011A0000702A7E746EA020646EA06464FEA16465F
:1011B00046EA0106BCBF46EA0646360C4FF000037D
:1011C0004FF000024FF0000194E72DE9804C9A4661
:1011D000934670B491E8380007C831EA400C48BF24
:1011E00034EA430C03D5FFF7E6FDFFF780FFF0BCC0
:1011F000BDE8008C2DE9804C9A46934670B491E886
:10120000380007C810F0804F08BF13F0804F03D19B
:1012100000F005F8FFF76BFFF0BCBDE8008C20F094
:101220007F4780EA030023F07F4C07EB0C03A3F514
:101230007C5300F00040A3F1FE0392F0000F00F099
:10124000B38095F0000F00F077802DE901494FEA57
:1012500011404FEA144621EA004800FB06FC24EA4C
:10126000064708FB06F607FB08F800FB07F718EB34
:1012700006484CEB164C4FEA124B18EB07484FEA66
:1012800015464CEB174022EA0B4E0BFB06FC25EAF9
:1012900006470EFB06F607FB0EFE0BFB07F71EEBE1
:1012A000064E4CEB164C4FF000061EEB074E4CEB77
:1012B000174B18EB0B0840F1000018EB0E0B58EB26
:1012C000000840F100008F1A4FF000013CBFC943F5
:1012D000661B14BFB5EB040C00213CBFC943F61BD1
:1012E0004FEA17444EEA8E0E27EA04454FEA1C47A0
:1012F00004FB07622CEA074C05FB07F70CFB05F61D
:1013000004FB0CFC16EB074642EB174216EB0C46AF
:1013100042EB1C421BEB060658EB0202414146EA37
:101320009E0601D5BDE80189B619524141EB010184
:10133000A3F10103BDE801894FEA14454FEA1147C3
:1013400024EA054621EA074C05FB07F406FB07F7EC
:101350000CFB06F105FB0CFC11EB074144EB1744B9
:101360004FEA124711EB0C4144EB1C4422EA074CB4
:1013700005FB07F206FB07F70CFB06F605FB0CFC6A
:1013800016EB074642EB174216EB0C4642EB1C45A8
:101390006A1854F1000148BF7047B619524141EB39
:1013A0000101A3F10103704795F0000F37D04FEA18
:1013B00011424FEA144721EA024624EA074C02FB95
:1013C00007F106FB07F70CFB06F402FB0CFC14EB21
:1013D000074441EB17414FEA154714EB0C4441EB2E
:1013E0001C4125EA074C02FB07F506FB07F70CFB3F
:1013F00006F602FB0CFC16EB074645EB174516EB11
:101400000C4645EB1C42121951F1000148BF7047D0
:10141000B619524141EB0101A3F1010370474FEAB4
:1014200014454FEA114724EA054621EA074C05FB1B
:1014300007F106FB07F70CFB06F24FF0000605FB71
:101440000CFC12EB074241EB174112EB0C4251EB43
:101450001C4148BF7047921841EB0101A3F1010301
:101460007047FEE77047002240F6B83306E00021DF
:10147000491C89B29942FBD3521C92B28242F6D3E4
:10148000704772B6FEE7000070B5044600F0FCF845
:101490000546601C02D004484068044400F0F4F89B
:1014A000401BA042FAD370BD000000202DE9FC4F84
:1014B000DFF8A0A1002301250AF1040B03244FF05B
:1014C0000F0C0BF1040EBDE005FA03F632406FD0AD
:1014D0004F68012F05D0022F03D0112F01D0122FFA
:1014E00017D1D0F808905F0004FA07F829EA080934
:1014F0000097D1F80C8008FA07F848EA0908C0F804
:1015000008804768B7430E79C6F300169E403E43F5
:101510004660C6684FEA430804FA08F7BE430197DD
:101520008F6807FA08F73743C7604E68022E01D06C
:10153000122E13D1DE0800EB86060096366A5F078E
:10154000FF0E0CFA07F926EA0906D1F8109009FAFD
:1015500007F949EA0609009EC6F820900668019F2F
:10156000BE430F7907F0030707FA08F73743076010
:101570004E68F60065D5384E376E47F0010737667E
:10158000366E23F0030706F001060096334E3E4404
:10159000B146B6689F074FEA17780CFA08F7BE43C2
:1015A000B0F1904F05D02E4FB84204D1012717E07B
:1015B00047E0002714E02B4FB84201D102270FE08B
:1015C000294FB84201D103270AE0284FB84201D180
:1015D000042705E0264FB84201D1052700E0062781
:1015E00007FA08F73743C9F80870DAF80060574679
:1015F000D1F8048096435FEAC83800D516433E60B0
:10160000DBF800605F46D1F8048096435FEA8838D3
:1016100000D516433E60DEF800607746D1F80480BE
:1016200096435FEAC82800D516433E60094F0C3741
:101630003E68D1F8048096435FEA882800D51643B7
:101640003E605B1C0A6832FA03F67FF43DAFBDE8EA
:10165000FC8F000000040140001002400000014027
:101660000004004800080048000C00480010004832
:10167000001400480069084000D0012070470AB1FA
:10168000816170478162704701488068704700003F
:101690000000002002488168426811448160704760
:1016A0000000002010B50024032000F073F80F2084
:1016B00000F008F808B1012401E000F025F8204608
:1016C00010BD000070B50E4E05460024706898B13C
:1016D0004FF47A71B1FBF0F00A490968B1FBF0F000
:1016E00000F0FCFB40B9102D06D200222946501E06
:1016F00000F030F8356000E00124204670BD0000A5
:10170000000000200C0000200A4882B0016E41F069
:1017100001010166016E01F001010091816D41F04E
:1017200080518165806D00F08050009002B000F023
:10173000A1B8000000100240002809DB00F01F02E1
:10174000012191404009800000F1E020C0F8001123
:1017500070470000F0B40E4B1B680C46C3F3022325
:10176000C3F10705042D00D90425191D072901D24D
:10177000002300E0DB1E012606FA05F1491E214088
:1017800099409E40761E16403143F0BC01F006BEE3
:101790000CED00E0064900F0070208684FF6FF0371
:1017A000184040EA0220034A1043086070470000D6
:1017B0000CED00E00000FA052B492C4B0A683221A1
:1017C0004A432B4940B1B0F5007F086829D020F486
:1017D000C06040F480602CE00868C0F3412002281B
:1017E00004D051F8800F20F4807022E0D1F88000FE
:1017F00020F48070C1F88000086820F4C06040F4D4
:1018000000700860B2FBF3F0401C00E0401E4A6923
:10181000520501D50028F9D1486940050AD50320B1
:101820007047C0F34120022806D051F8800F40F4E1
:101830008070086000207047D1F8800040F480700C
:10184000C1F88000086820F4C06040F400700860AF
:10185000B2FBF3F0401C00E0401E4A695205DBD5A4
:101860000028F9D1D8E700000C00002040420F000A
:10187000007000400248816841F4804181607047F7
:10188000007000402DE9F0470E4605004FF00007BC
:1018900025D0DFF8AC81D8F8000000F00F00B0428E
:1018A0000CD2D8F8001021F00F013143C8F8001015
:1018B000D8F8000000F00F00B04210D12968614C48
:1018C000C80741F2883A5AD06868DFF87C9103284B
:1018D00008D0022820682DD0400500282CDB0120EC
:1018E000BDE8F08720688001F9D5E06800F00302C8
:1018F000E068C0F30310401C032A19D0534A00BF0C
:10190000B2FBF0F0E268C2F306225043E268C2F391
:101910004162521C5200B0FBF2F0484517D9A06852
:1019200010F0F00F0CD0880711D5A86840B10EE078
:10193000474AE5E78003D0E700F092F8484506D92A
:10194000A06820F0F00040F08000A0608027A06830
:10195000696820F003000843A060FFF795FE814608
:1019600006E000BFFFF790FEA0EB090151453AD811
:10197000A068696800F00C00B0EB810FF2D1286814
:10198000810714D5400703D5A06840F4E060A0604B
:101990002878000705D5A06820F4605040F4E06086
:1019A000A060A068A96820F0F000084304E0802F40
:1019B00003D1A06820F0F000A060D8F800104046E5
:1019C00001F00F01B14216D9016821F00F01314336
:1019D0000160FFF759FE074607E000BFFFF754FE1E
:1019E000C11B514501D903207AE7D8F8000000F067
:1019F0000F00B042F2D12878400705D5A068E96809
:101A000020F4E0600843A0602878000706D5A068AD
:101A1000296920F4605040EAC100A06000F020F87D
:101A2000A1680C4AC1F30311515C01F01F01C840C9
:101A30000949086009480068BDE8F047FFF742BE61
:101A4000002002400010024000B4C4040024F4004E
:101A500000366E01843F00080C00002000000020CA
:101A6000184910B58868C0F381021748012A0BD0C5
:101A70008A68164BC2F38102022A06D08A68C2F332
:101A80008102032A03D0002010BD184610BDCA6889
:101A900002F00304CA68C2F30312521C032C02D0E2
:101AA000B0FBF2F001E0B3FBF2F0CA68C968C2F320
:101AB00006225043C1F34161491C4900B0FBF1F0DB
:101AC00010BD0000001002400024F40000366E013A
:101AD0002DE9F84304007AD02078FA4DC00747D0AA
:101AE000A868E96800F00C0001F003010C2802D09E
:101AF000082817D001E0032914D06068B0F5803FB2
:101B000017D0B0F5A02F286817D020F480302860B7
:101B1000286820F4802028606068E0B1FFF7B4FDF9
:101B2000064614E02868800322D560680028D2D0D9
:101B30001EE0286840F48030EDE740F48020286003
:101B4000F7E700BFFFF7A0FD801B642870D8286866
:101B50008003F7D50CE0FFF797FD064605E000BFD0
:101B6000FFF792FD801B6428F0D828688003F7D423
:101B7000207880074CD5A868E96800F00C0001F0D7
:101B800003010C2802D004280DD001E002290AD05C
:101B9000E068002828682BD040F480702860FFF7A8
:101BA00073FD064619E02868400502D5E068002864
:101BB00091D06868217C20F0FE4040EA01606860B6
:101BC000C1480068FFF77EFD002800D120E076E1E3
:101BD000FFF75AFD801B0228B8D828684005F7D5C2
:101BE0006868217C20F0FE4040EA016068600FE0F8
:101BF00020F480702860FFF747FD064605E000BF2F
:101C0000FFF742FD801B0228A0D828684005F7D4C2
:101C10002078000729D560690028D5F8940013D0F2
:101C200040F00100C5F89400FFF72EFD064606E0DF
:101C300090E000BFFFF728FD801B022886D8D5F86A
:101C400094008007F6D510E020F00100C5F894005C
:101C5000FFF71AFD064604E0FFF716FD801B022879
:101C600078D8D5F894008007F6D42078400761D55D
:101C7000A86D0026C00008D4A86D40F08050A8656B
:101C8000A86D012600F08050009090480168C905B9
:101C900011D40168804641F480710160FFF7F4FCC3
:101CA000074604E0FFF7F0FCC01B022852D8D8F822
:101CB0000000C005F6D5A068012815D00528D5F884
:101CC000900016D020F00100C5F89000D5F89000E3
:101CD00020F00400C5F89000A06841F28838B8B13F
:101CE000FFF7D2FC07460EE0D5F8900040F0010067
:101CF000F0E740F00400C5F89000F5E7FFF7C4FCFA
:101D0000C11B414526D8D5F890008007F6D50CE0D8
:101D1000FFF7BAFC074604E0FFF7B6FCC11B4145DC
:101D200018D8D5F890008007F6D41EB1A86D20F021
:101D30008050A8652078800629D5A0690028D5F8AC
:101D4000980013D040F00100C5F89800FFF79CFC04
:101D5000064606E077E000BFFFF796FC801B0228EE
:101D600077D8D5F898008007F6D510E020F001006C
:101D7000C5F89800FFF788FC064604E0FFF784FCEE
:101D8000801B022865D8D5F898008007F6D4E06952
:101D9000F0B3A968C1F38101032961D00228286842
:101DA00020F0807028600BD0E86820F00300E86025
:101DB000E86847490840E860FFF766FC04464BE0E6
:101DC000FFF762FC064604E0FFF75EFC801B02287A
:101DD0003FD828688001F7D4F4E908016FF00F02BA
:101DE00002EB01110843218A5204490802EB4151D8
:101DF000A26841EA02210843217D4FF07E42490852
:101E000002EB41610843217B40EAC160E96800E0E0
:101E100062E0304A11400843E860286840F0807072
:101E20002860E86840F08070E860FFF72DFC044609
:101E300005E000BFFFF728FC001B022809D828682E
:101E40008001F7D548E004E0FFF71EFC001B0228E4
:101E500002D90320BDE8F88328688001F4D43BE070
:101E60000128F7D0E868226A00F00301914226D1E8
:101E7000616A00F0F0020901103991421FD1A26A93
:101E800000F4FE41B1EB022F19D194F82C2000F0A0
:101E90007841B1EBC26F12D1218E00F4C002490823
:101EA0004905A1F50011914209D194F8341000F0D0
:101EB000C06049084906A1F1007181420CD001209F
:101EC000C8E7000000100240000000200070004041
:101ED000FFFFEEFE0C809F010020BBE710B5401E07
:101EE000B0F1807F01D3012010BD4FF0E02460618C
:101EF0000F21601701F052FA0020A0610720206135
:101F0000002010BD7047704770477047704770479A
:101F1000F0B590F83C20012A3AD0012580F83C50D9
:101F2000022280F83D2003685A689C68194E1A4FB7
:101F3000B34201D0BB4204D122F4700C4A6842EA99
:101F40000C02DFF858C002EA0C02D1F800C04CEADB
:101F5000020CC3F804C00268B2420DD0B2F1804F47
:101F60000AD00F4B9A4207D00E4B9A4204D0BA4285
:101F700002D00D4B9A4204D1896824F080031943A2
:101F8000916080F83D50002180F83C100846F0BD7B
:101F90000220F0BD002C0140003401408FFFFFFD06
:101FA000000400400008004000400140704710B5A8
:101FB000040003D094F83D0010B107E0012010BDEB
:101FC000002084F83C00204600F022F8022084F82B
:101FD0003D00211D206801F0D9F8012084F8480057
:101FE00084F83E0084F83F0084F8400084F8410003
:101FF00084F8420084F8430084F8440084F84500E3
:1020000084F8460084F8470084F83D00002010BDA5
:1020100010B586B0044614216846FEF734FA2268EB
:10202000002330480221B2F1804F25D02E4CA2422D
:1020300045D1826D42F002028265826D02F0020299
:102040000592C26C42F00202C264C06C00F0020051
:10205000059010208DE80B00CDE903316946234837
:10206000FFF724FA002201211D20FFF773FB1D203A
:10207000FFF762FB06B010BD826D42F0010282657F
:10208000826D02F001020592C26C42F00102C2644C
:10209000C06C00F0010005904FF400408DE80B008B
:1020A0000120CDE9033069464FF09040FFF7FEF97B
:1020B000002202211C20FFF74DFB1C20D8E70C4911
:1020C0008A42D7D1816D41F020018165806D002267
:1020D00000F02000059011463720FFF73BFB37202A
:1020E000C6E7000000100240000400400004004861
:1020F0000014004090F83D10012901D001207047E4
:10210000022180F83D100168CA6842F00102CA60ED
:102110000068104988420ED0B0F1804F0BD00E49B4
:10212000884208D00D49884205D00D49884202D026
:102130000C49884207D181680B4A1140062906D014
:10214000B1F5803F03D0016841F00101016000203A
:1021500070470000002C01400004004000080040CF
:1021600000340140004001400700010070B5044602
:1021700090F83C00012814D0012584F83C5002203E
:1021800084F83D0022689068344B184020F47F406A
:1021900090600868702827D010DC10F00F0F03D073
:1021A0004AE04FF0020070BD4FEA2012072A43D2E6
:1021B000DFE802F05050505048313900284BC21A25
:1021C000984247D009DCB0F5805F35D0B0F5005FAC
:1021D00015D0B0F1101F2FD13CE0102A3AD0202AA0
:1021E00038D0502A28D135E0CB68D1E901212068C8
:1021F00001F031F82068816841F0770109E0CB688F
:10220000D1E90121206801F026F82068816841F4B5
:102210008041816010E0CA684968206801F030F8A8
:102220005021206806E0CA684968206801F070F80B
:102230006021206801F01AF884F83D50002084F8ED
:102240003C0070BDCA684968206801F019F8402157
:102250002068EFE7226801461046EBE788FFCEFFD3
:102260002000100070B5006800240B4DB0F1804FC5
:102270000BD00A49884207D10021094800F08AFAA8
:10228000686307480068446270BD0021054800F09B
:1022900081FA28630348F5E710000020000400409D
:1022A000C80000207C0000202DE9F041054690F890
:1022B0003C000C46012836D0012085F83C008AB34A
:1022C000042A42D02868082A51D0D4E90023E168C2
:1022D000066A26F480560662C669076A26F44076C6
:1022E00046EA03234FF6FF7606EA013123F47043F2
:1022F00019434FF4204627F4204306EA02321A43DA
:10230000C16102622868C16921F44061C161286825
:10231000C169A26841EA0221C161002085F83C0040
:10232000BDE8F08101E00220FAE7D4E90012E36899
:10233000286800F0B7FF2868816921F00C018161ED
:1023400028688169A26811430FE0D4E90012E368AC
:10235000286800F0EFFF2868816921F440618161FD
:1023600028688169A26841EA02218161D5E7D4E940
:102370000027267B016A21F480710162C169036A2A
:1023800021F00301394321F0F00731074FF42066B3
:1023900047EA116123F4206306EA02221A43C1616D
:1023A00002622868C16921F00C01C1612868C16915
:1023B000A2681143B0E710B5040003D094F83D00C3
:1023C00010B107E0012010BD002084F83C00204639
:1023D00000F022F8022084F83D00211D206800F062
:1023E000D5FE012084F8480084F83E0084F83F00C0
:1023F00084F8400084F8410084F8420084F84300E7
:1024000084F8440084F8450084F8460084F84700C6
:1024100084F83D00002010BD7047000010B5044650
:1024200079B1042912D0082915D00C2918D0102907
:1024300019D094F8430000BF94F84720012817D121
:1024400014E094F83E0094F84420F7E794F83F0035
:1024500094F84520F2E794F8400094F84620EDE720
:1024600094F84100E8E794F84200E5E7012A01D03A
:10247000012010BD022071B1042915D008291CD0FB
:102480000C2948D0102949D084F8430084F847002B
:102490000C291BD145E084F83E0084F844002068F4
:1024A000C26842F0020210E084F83F0084F8450060
:1024B0002068C26842F0040207E084F8400084F813
:1024C00046002068C26842F00802C260012220680B
:1024D00000F0B4FE1549206888420ED0B0F1804F5C
:1024E0000BD01349884208D01249884205D01249BE
:1024F000884202D01149884207D18168104A1140B0
:10250000062906D0B1F5803F03D0016841F00101F2
:102510000160002010BD84F84100B7E784F8420054
:10252000B4E72068C26842F01002CEE7002C0140F8
:102530000004004000080040003401400040014019
:102540000700010070B50446006801694FF00005FE
:10255000C943890715D4C168C943890711D4E91E45
:10256000016101202077206880698007204602D021
:10257000FFF778FE04E000F0E3F8204600F0E1F811
:10258000257720680169C943490717D4C168C94341
:10259000490713D46FF004010161022020772068FD
:1025A000806910F4407F204602D0FFF75BFE04E014
:1025B00000F0C6F8204600F0C4F8257720680169CD
:1025C000C943090716D4C168C943090712D46FF07B
:1025D00008010161042020772068C0698007204637
:1025E00002D0FFF73FFE04E000F0AAF8204600F01A
:1025F000A8F8257720680169C943C90617D4C168BE
:10260000C943C90613D46FF0100101610820207777
:102610002068C06910F4407F204602D0FFF722FEF8
:1026200004E000F08DF8204600F08BF82577206854
:102630000169C943C90708D1C168C943C90704D1A1
:10264000891E0161204600F07DF820680169C943B8
:10265000090609D4C168C943090605D46FF0800191
:1026600001612046FFF74FFC20680169C943C90595
:1026700009D4C168C943090605D46FF480710161AA
:102680002046FFF73FFC20680169C943490609D489
:10269000C168C943490605D46FF040010161204675
:1026A00000F08DF820680169C943890609D4C16822
:1026B000C943890605D46FF0200101612046FFF768
:1026C00023FC20680169C943C90209D4C168C94310
:1026D000C90205D46FF4801101612046FFF716FC92
:1026E00020680169C943890209D4C168C9438902C4
:1026F00005D46FF4001101612046FFF706FC206845
:102700000169C943490209D4C168C943490205D4D2
:102710006FF4800101612046FFF7F9FB2068016931
:10272000C94309020BD4C168C943090207D46FF435
:10273000000101612046BDE87040FFF737BC70BD65
:102740007047704710B50068104988421DD1104C81
:10275000606C401C3221B0FBF1F2606401FB12009E
:1027600018B900F073FE01F0A5FA606C6421B0FBAB
:10277000F1F201FB1200002807D10120607000F087
:1027800025FEBDE8104001F0D1B910BD0014004095
:10279000100000200246002041B1042909D0082978
:1027A0000AD00C2901D11068006C70471068406B8A
:1027B00070471068806B70471068C06B7047704737
:1027C000FEE7000000B585B014216846FDF75BFE0A
:1027D0004FF6FF70009000200321CDE90201019027
:1027E00069460248FEF762FE05B000BD00080048D9
:1027F00000B585B014216846FDF745FE4FF6FF7021
:10280000009001200190032003900020029069466F
:102810000248FEF74BFE05B000BD0000000800486E
:1028200070B5002406462146204600F003F900F06A
:1028300041F94FF49635304600F010F9641CAC4273
:10284000F9D370BD30B587B014216846FDF71BFE83
:102850001E48C16C41F00401C164C16C01F0040167
:102860000591C16C41F00101C164C16C01F001012D
:102870000591C16C41F00201C164C06C012500F0FA
:10288000020005904FF44870CDE900050024039440
:10289000694602940E48FEF709FE28020394009050
:1028A000CDE901544FF0904469462046FEF7FEFD05
:1028B000FFF79EFFA06940F48070A06104481830C3
:1028C000016841F40871016007B030BD001002409A
:1028D00000040048203AD2B2034B02EB420203EB61
:1028E000021200F019B80000943F0008F0B50E463F
:1028F0000746002540F23F1407E021463846FFF71F
:10290000E9FF103C6D1CA4B2761C3278002A01D07D
:10291000142DF2D3F0BD00002DE9F04791468A4610
:102920000026044600F086F8DFF84080012700BF4B
:1029300000F0C0F85FF0000539F8160007FA05F15D
:102940000842404601D1408800E0008800F086F847
:102950006D1C102DF0D3641CE4B25146204600F0EB
:1029600069F8761C182EE3D3BDE8F08774000020C8
:1029700010B5FFF767FF002000F014F8084CA080A6
:10298000A088A0F50241303906D000F0A7FA002057
:1029900000F008F8A08010BD00F017FAF7E700007B
:1029A0007400002070B51D490A6842F400720A6084
:1029B0000A6842F480720A60184C103C226842F0A7
:1029C00020022260164A1060086840F0200008606B
:1029D00000BF00BF00BF206840F0200020602068DA
:1029E00040F480702060FFF7EDFE4FF09041886A60
:1029F00040F48070886200BF00BF00BF0848001F1D
:102A0000006885B2886940F480708861FFF7F0FE45
:102A1000206840F400702060284670BD28040048FB
:102A20001408004801B5BDF800000149488008BD00
:102A30007400002010B50C460146202000F068F814
:102A40002146BDE81040212000F062B801B5BDF874
:102A500000000149088008BD74000020134A116875
:102A600041F400711160114910390B6843F480730F
:102A70000B600B6843F020030B600D4B186010686F
:102A800040F02000106000BF00BF00BF086840F0A9
:102A900020000860086840F48070086000BF00BF34
:102AA00000BF086840F400700860704728040048C0
:102AB000140800481449086840F400700860086869
:102AC00040F48070086010481038026842F020021C
:102AD00002600E4B22221A600A6842F020020A604D
:102AE00000BF00BF00BF016841F020010160016824
:102AF00041F48071016000BF00BF00BF016841F474
:102B00000071016070470000280400481408004864
:102B1000184B10B51A6842F400721A601A6842F431
:102B200080721A60134A103A146844F0200414604A
:102B3000114C2060186840F02000186000BF00BFF2
:102B400000BF106840F020001060106840F48070F2
:102B500010602160186840F02000186000BF00BFBE
:102B600000BF106840F020001060106840F48070D2
:102B7000106010BD2804004814080048F0B587B064
:102B800014216846FDF77FFC2D48C16C41F004011B
:102B9000C164C16C01F004010591C16C41F02001D8
:102BA000C164C16C01F020010591C16C41F00101CB
:102BB000C164C16C01F001010591C16C41F00201D9
:102BC000C164C16C01F002010591C16C41F00801C2
:102BD000C164C06C1B4E00F008004FF47F440590A8
:102BE000012221463046FEF74AFD174F01220421FB
:102BF0003846FEF744FD0125CDE900450024029446
:102C0000694630460394FEF751FCCDE9005469460D
:102C10004FF090400295FEF749FC07208DE8310007
:102C200069460A48FEF742FC04200090CDE90154B1
:102C3000694638460394FEF739FC07B0F0BD000042
:102C40000010024000080048000C00480004004842
:102C500010B58CB000240594214804940694079480
:102C600008940A9409940094019402944FF08041CE
:102C7000039401604F21C0E901144FF6FF71C0E9D0
:102C800003148461FFF793F908B1FEF7FAFB4FF4E0
:102C90008050049004A91248FFF768FA08B1FEF7C3
:102CA000F0FB0F48FFF787FB08B1FEF7EAFB08943B
:102CB00008A90B480A94FFF72BF908B1FEF7E1FBCE
:102CC0000120CDE9004002940022694604480394A3
:102CD000FFF7EAFA002801D0FEF7D3FB0CB010BDD5
:102CE0007C00002010B58CB0002405942248049488
:102CF0000694079408940A94099400940194029409
:102D00001C49039401604F21C0E901144FF6FF7183
:102D1000C0E903148461FFF74AF908B1FEF7B1FB7B
:102D20004FF48050049004A91348FFF71FFA08B12C
:102D3000FEF7A7FB1048FFF73EFB08B1FEF7A1FB2B
:102D4000089408A90C480A94FFF7E2F808B1FEF7C6
:102D500098FB0120CDE90040029400226946064814
:102D60000394FFF7A1FA002801D0FEF78AFB0CB00C
:102D700010BD000000040040C80000203EB5002443
:102D80000F48009401940D49029401604F21C0E95D
:102D9000011440F2E7318461C160FFF708F908B11E
:102DA000FEF76FFB0094694605480294FFF7B0F800
:102DB000002801D0FEF765FB3EBD00000014004076
:102DC00014010020FEE7FEE7704730B50121002026
:102DD000FFF79EFE4FF47A70FEF745FB00210120BD
:102DE000FFF796FE41F290711020FFF791FE4FF42D
:102DF0001C516020FFF78CFE01216120FFF788FE47
:102E000002214620FFF784FE48F210011320FFF74D
:102E10007FFE48F2FE011220FFF77AFE4FF4A06118
:102E20000220FFF775FE41F230010320FFF770FE2C
:102E300040F2033421463020FFF76AFE214631205C
:102E4000FFF766FE21463220FFF762FEE51E2946A7
:102E50003320FFF75DFE03213420FFF759FE2146A2
:102E60003520FFF755FE14213620FFF751FE21468D
:102E70003720FFF74DFE21463820FFF749FE214657
:102E80003920FFF745FE29463A20FFF741FE03218E
:102E90003B20FFF73DFE21463C20FFF739FE4FF473
:102EA000A0513D20FFF734FE4FF400719220FFF750
:102EB0002FFE21469320FFF72BFE40F60D019020B8
:102EC000FFF726FE41F218010320FFF721FEBDE8BF
:102ED000304040F273110720FFF71ABE10B543F2DD
:102EE0000801E320FFF714FE1221E720FFF710FE90
:102EF00041F23121EF20FFF70BFE00210120FFF707
:102F000007FE4FF4E0610220FFF702FE41F23001BC
:102F10000320FFF7FDFD00210420FFF7F9FD40F23B
:102F200007210820FFF7F4FD00210920FFF7F0FD3D
:102F300000210A20FFF7ECFD00210C20FFF7E8FD3F
:102F400000210D20FFF7E4FD00210F20FFF7E0FD39
:102F500000211020FFF7DCFD07211120FFF7D8FD2D
:102F600000211220FFF7D4FD00211320FFF7D0FD30
:102F7000C820FEF789FA41F290611020FFF7C8FDE2
:102F800040F227211120FFF7C3FD3220FEF77CFA23
:102F90001D211220FFF7BCFD3220FEF775FA4FF419
:102FA00000611320FFF7B4FD14212920FFF7B0FDC5
:102FB0000B212B20FFF7ACFD3220FEF765FA002134
:102FC0002020FFF7A5FD00212120FFF7A1FD07210B
:102FD0003020FFF79DFD40F207713120FFF798FD8B
:102FE00006213220FFF794FD40F204713520FFF7EF
:102FF0008FFD41F604713620FFF78AFD042137204A
:10300000FFF786FD00213820FFF782FD40F20671B0
:103010003920FFF77DFD40F201713C20FFF778FD7C
:103020000F213D20FFF774FD00215020FFF770FDB8
:10303000EF215120FFF76CFD00215220FFF768FDC2
:1030400040F23F115320FFF763FD4FF41C51602005
:10305000FFF75EFD01216120FFF75AFD00216A2084
:10306000FFF756FD00218020FFF752FD002181204F
:10307000FFF74EFD00218220FFF74AFD002183204B
:10308000FFF746FD00218420FFF742FD0021852047
:10309000FFF73EFD10219020FFF73AFD002192201E
:1030A000FFF736FD03219320FFF732FD4FF48871BF
:1030B0009520FFF72DFD00219720FFF729FD002126
:1030C0009820FFF725FD41F218010320FFF720FDAE
:1030D000BDE8104040F273110720FFF719BD70479B
:1030E000FEF7D8BA10B594B038216846FDF7CBF991
:1030F00014210EA8FDF7C7F94FF40070FEF75CFB32
:10310000012000900004019002200324CDE907046F
:103110001421CDE90A100C900D9009946846FEF731
:10312000D7FC08B172B6FEE70F20CDE90E040020EF
:1031300010901190129002210EA8FEF7A3FB002818
:1031400001D072B6FEE714B010BD0000054801685A
:1031500041F47001016003494FF00060803908605C
:103160007047000088ED00E00148FFF7EBB9000070
:103170007C0000200148FFF7E5B90000C8000020EE
:103180000148FFF7DFB90000140100202DE9F043EA
:103190000268234B234D244E244C4FF08049984223
:1031A00007D0484505D0A84203D0B04201D0A04284
:1031B00003D122F070074A683A431D4FDFF874C00C
:1031C000DFF8748098420DD048450BD0A84209D052
:1031D000B04207D0A04205D0B84203D0604501D02C
:1031E000404503D122F44075CA682A434D6922F054
:1031F00080022A4302608A68C2620A688262984238
:1032000007D0A04205D0B84203D0604501D0404568
:1032100001D10969016301214161BDE8F08300002A
:10322000002C014000040040000800400034014030
:1032300000400140004401400048014010B501F049
:103240001F030121046A99408C430462016A9A4079
:103250001143016210BD10B5846842EA032224F4D0
:103260007F440A432243826010BD00008268034B02
:103270001A400A4342F00701816070478FFFCFFF79
:1032800010B5036A046A24F001040462846924F01E
:10329000F00444EA021423F00A020A438461026241
:1032A00010BD000070B5046A24F001040462846952
:1032B000056A124EB0420ED0B0F1804F0BD0104EC6
:1032C000B04208D00F4EB04205D00F4EB04202D0EF
:1032D0000E4EB04203D124F00304144301E044F045
:1032E00001041A0724F0F00444EA126225F00A03EC
:1032F00001F00A0119438261016270BD002C014096
:10330000000400400008004000340140004001403B
:1033100010B5036A23F0100303628369046A23F47F
:10332000704343EA023224F0A00343EA01118261B0
:10333000016210BD30B5046A24F01004046284698F
:10334000056A24F4407444EA022222F470444FF6E1
:10335000FF7202EA03322243A02425F0A00304EA0C
:10336000011119438261016230BDFEE703B4019887
:103370004100009850EAC12018BF04204A0D18BF30
:1033800040F0010040F2FF72B2EB515F08BF40F025
:103390000200012808BF052002B070470907090E86
:1033A000002804DB00F1E02080F80014704700F0F2
:1033B0000F0000F1E02080F8141D704730380A2813
:1033C00001D2012070470020704700001C48016BAB
:1033D000491C01EB8101090100EE101AB8EE401AF8
:1033E0009FED180AC0EE010AC0ED080AB0F91410EA
:1033F00001EE101AB8EEC11A30EE811ADFED120A92
:1034000080ED061AC0EE811AC0ED0A1A426B521CFA
:1034100002EB8202120101EE102AF8EE411A80EE50
:10342000211A00EE101AB8EEC00A80ED091A31EE2A
:10343000000A80ED070A80EE801A80ED0B1A7047B3
:10344000100000208096984C002474492DE9F05F0C
:10345000674D01212846FEF70DF9664C02212070C8
:103460002846FEF707F9607004212846FEF702F9A6
:10347000A07001214FF09040FEF7FCF80027DFF824
:103480007891E0704FF0020A4FF0010B4FF47A751B
:1034900004F10808261DE05D0028F05D01D030B180
:1034A00011E080B1FEF7F0F849F827000BE0FEF7D5
:1034B000EBF859F82710401AA84202D908F807A0DB
:1034C00001E008F807B07F1CFFB2042FE3D349489E
:1034D00098F8003000224146383813B3012B1FD131
:1034E000C37923B1012B0AD0022B12D018E0038A32
:1034F00064331BB20382AB4212DD058210E0438AC3
:1035000042F2107764331BB24382BB4208DD47822C
:1035100006E0838A64331BB28382AB4200DD85827E
:103520000A704B7813B3012B1FD1C37923B1012B40
:103530000BD0022B11D018E0038A643B1BB203822C
:10354000642B12DA642303820FE0438A643B1BB2CC
:103550004382AB4209DA458207E0838A274D643B08
:103560001BB28382AB4200DA85824A708B780325D6
:1035700003B3012B02D0022B14D01AE0037813B14D
:10358000012B06D015E083785B1C03F001038370E8
:103590000FE0C3795B1CDBB2B3FBF5F705FB173318
:1035A000C37106E00378022B03D102724272827269
:1035B000C2728A70CB7893B1012B0ED1037813B10C
:1035C000012B02D002E0827000E0C2715B1CDBB212
:1035D000B3FBF5F705FB1733037088F803200020D1
:1035E000215C3154401CC0B20428F9D3BDE8F09FDF
:1035F00000040048480000206001002018FCFFFF84
:1036000010B515A11A48FCF767FE194819A1233017
:10361000FCF762FE164810A14630FCF75DFE00F094
:1036200037F813480CA1AF30FCF756FE10480AA13A
:10363000D230FCF751FE0E4807A1F530FCF74CFEE6
:1036400005A11248FCF748FE1048BDE8104002A151
:103650002330FCF741BE0000202020202020202025
:1036600020202020202020202020202000000000DA
:10367000700100202020202020202020444154419F
:103680002020202020202020000000008802002090
:1036900070B5524C524D2DED028B05F16906A078A4
:1036A0009FED508A8C35002840D02146607991EDFD
:1036B0000A0A00287CD0C0EE080A10EE900A00F03A
:1036C000E9FB41EC100B48A153EC102B3046FCF702
:1036D00003FE94ED060AB5EEC00AF1EE10FA03D22D
:1036E00047A13046FCF7F8FDA07900286AD0D4ED58
:1036F0000B0A80EE880A10EE100A00F0CBFB41ECBA
:10370000100B45A153EC102B2846FCF7E5FD94ED7A
:10371000070AB5EEC00AF1EE10FA5CD2BDEC028BDE
:103720002846BDE8704042A1FCF7D6BD2B49E078A1
:1037300091ED060A40B3C0EE080A10EE900A00F0C0
:10374000A9FB41EC100B40A153EC102B3046FCF7C9
:10375000C3FD94ED060AB5EEC00AF1EE10FA03D2ED
:1037600027A13046FCF7B8FD2079C0B1D4ED070A97
:1037700080EE880A10EE100A00F08CFB41EC100B72
:1037800037A153EC102BBFE710EE100A00F082FBBC
:1037900041EC100B38A153EC102BD7E708E0E0699F
:1037A00000F078FB41EC100B39A153EC102BABE788
:1037B00010EE100A00F06EFB41EC100B3AA153EC36
:1037C000102B83E7E06A00F065FB41EC100B3CA195
:1037D00053EC102B98E7BDEC028B70BD100000205D
:1037E0007001002000007A442020202020413D2547
:1037F0002E32666D53202020202020202020000023
:103800002020202020413D4E554C4C2020202020BF
:1038100020202020202020002020202020423D2584
:103820002E32666D532020202020202020200000F2
:103830002020202020423D4E554C4C20202020208E
:1038400020202020202020002020202020413D2555
:103850002E32664B487A2020202020202020200075
:103860002020202020423D252E32664B487A202001
:1038700020202020202020002020202020413D2525
:103880002E3066487A202020202020202020000092
:103890002020202020423D252E3066487A202020FE
:1038A00020202020202000002020202020413D2515
:1038B0002E3066755320202020202020202000005C
:1038C0002020202020423D252E30667553202020C8
:1038D000202020202020000010B51CA12148FCF74A
:1038E000FBFC204820A12330FCF7F6FC1D4817A163
:1038F0004630FCF7F1FC224C1A4822A1B4F9102002
:103900006930FCF7E9FC1748B4F9122023A18C3088
:10391000FCF7E2FC1348B4F9142026A1AF30FCF701
:10392000DBFC104809A1D230FCF7D6FC0D4807A1FA
:10393000F530FCF7D1FC05A12448FCF7CDFC234869
:10394000BDE8104001A12330FCF7C6BC2020202098
:103950002020202020202020202020202020202067
:1039600000000000700100202020202020202020C6
:103970005041524120202020202020200000000023
:1039800010000020202020202050443D2564487A4B
:1039900020202020202020200000000020202020A7
:1039A0002050483D2564487A2020202020202020D7
:1039B00000000000202020202050583D2564487A37
:1039C000202020202020202000000000880200204D
:1039D00010B51BA12048FCF77FFC1F481FA1233016
:1039E000FCF77AFC1C4816A14630FCF775FC214C0C
:1039F000194821A1227A6930FCF76EFC1648627AD8
:103A000023A18C30FCF768FC1348A27A26A1AF30C2
:103A1000FCF762FC1048E27A29A1D230FCF75CFC8A
:103A20000D4807A1F530FCF757FC05A12A48FCF723
:103A300053FC2948BDE8104001A12330FCF74CBCE1
:103A40002020202020202020202020202020202076
:103A500020202020000000007001002020202020D5
:103A600020202020524543442020202020202020B8
:103A7000000000001000002020202020204E4441A3
:103A80003D25642020202020202020200000000050
:103A900020202020204E44423D256420202020204C
:103AA000202020200000000020202020204E48411F
:103AB0003D25642020202020202020200000000020
:103AC00020202020204E48423D2564202020202018
:103AD00020202020000000008802002070B511483E
:103AE000007820B1012805D0022806D007E0FFF7B2
:103AF00087FD04E0FFF7F0FE01E0FFF769FF0A4DE4
:103B0000002400BFC4EBC40000EB8000411904EBAB
:103B10004400C006000EFEF7E9FE641C0A2CF1DB2F
:103B200070BD0000100000207001002010B51E4C78
:103B3000207890B10021012000F038F8B4F912008B
:103B4000D4ED060A00EE100AB8EEC00AF4EEC00A80
:103B5000F1EE10FA03DD012102E00121EBE7002183
:103B6000022000F023F8B4F91200D4ED070A00EEA9
:103B7000100AB8EEC00AF4EEC00AF1EE10FA01DD48
:103B8000012100E00021032000F010F8207A032832
:103B900002D2607A032801D3012100E00021BDE8B0
:103BA0001040082000F002B8100000202DE9F04776
:103BB000134C054688462068124F86B2F88920606B
:103BC000DFF84490012204214846FDF758FD4FF4E8
:103BD00080716D1EA9400A4889B21438B8F1000FEF
:103BE00001D0002200E00122FDF749FD2068F881A4
:103BF000002204214846FDF742FD2660BDE8F0871B
:103C00001408004810000020000C0048FDF74AFD91
:103C1000FFF768FAFEF7B2FFFFF71AF8FFF762F84E
:103C2000FFF7ACF8002204211E48FDF728FD002113
:103C30000120FFF7BBFF00210220FFF7B7FF0021A3
:103C40000320FFF7B3FF00210420FFF7AFFF00219F
:103C50000520FFF7ABFF00210620FFF7A7FF00219B
:103C60000720FFF7A3FF00210820FFF79FFFFEF7C3
:103C70007FFE0020FEF7D4FD4FF6FF70FEF7E6FE54
:103C80000020FEF7CFFE00210748FEF7C7FB00210A
:103C90000648FEF7C3FB0648FEF72CFA00F0B2F820
:103CA000FCE70000000C00487C000020C800002059
:103CB000140100205048826C521C8264B0F912102A
:103CC000D0ED060A00EE101AB8EEC00AF4EEC00AF3
:103CD000F1EE10FA0DDD00EE101A90ED131AB8EEA9
:103CE000C00AB4EEC01AF1EE10FA02D2837A5B1C5D
:103CF000837201EE101A90ED070AB8EEC11AB4EE05
:103D0000C10AF1EE10FA0DDD01EE101AD0ED141A11
:103D1000B8EEC11AF4EEC11AF1EE10FA02D2C17A6D
:103D2000491CC172C0ED130A80ED140A017B002307
:103D300031B1022A03D1012901D103738364704791
:103D40002D4954313D2A91EC041A28D2F5EEC00ACF
:103D5000F1EE10FA0EDBF4EEC10AF1EE10FA02DD1C
:103D6000C0ED150A06E0F4EEE10AF1EE10FA01D218
:103D7000C0ED160AB5EEC00AF1EE10FADFDBB4EEC4
:103D8000C20AF1EE10FA02DD80ED170A7047B4EEB8
:103D9000E20AF1EE10FAF9D280ED180A7047836456
:103DA000B0F9101071EE610A00EE101AB8EEC00AF8
:103DB000F4EEC00AF1EE10FA02DD027A521C027231
:103DC00000EE101A72EE620AB8EEC00AF4EEC00AF3
:103DD000F1EE10FA02DD417A491C41729FED070AAB
:103DE000DFED070A80ED150AC0ED160A80ED170A0F
:103DF000C0ED180A7047000010000020000000000D
:103E00000060EA4670B5134C13480121A2780025E2
:103E100022B1A26A82420EDD61710DE0A269824286
:103E200001DDE17000E0E570E269824201DD2171AF
:103E300008E0257106E06571E26A824201DDA17148
:103E400000E0A5716078002802D0FFF747FE65709A
:103E500070BD00001000002000007A4410B5002959
:103E60000AD00878002807D005487844FCF7EAFE15
:103E7000002801D0002010BD0248784410BD000089
:103E8000AE130000A61300000808A0F500114FEAC9
:103E90003101704743004FEAD30C4FEA3C0C4340DA
:103EA0001FBF40070CF1605113F0FE4F70471CF02C
:103EB000006F03D100200CF0004170470CF000436C
:103EC00043EA507010B540EACC0000F00EF800BF95
:103ED000000000924FEA0001FFF7D6BF4FF000410B
:103EE0004FF00000A1F5002170470EF1020E2EF0F8
:103EF000030E5EF8044B244204D44FEA4102B2F1AF
:103F00007F4F11D84FEA4003B3F17F4F0CD80ED149
:103F10004FEAD07CB2F17F4F0CEB4C0C0CF1020C51
:103F200008BF4CEBD17C04E04FF0080C01E04FEAF5
:103F3000D17C0CEB4C0324FA03F404F00704B4F135
:103F4000040C06D20EEB840CBDE810404CF0010CC2
:103F50006047DFE80CF0070802024FF00040A0F5D0
:103F6000800010BD0846420018BFD2F1807288BFA1
:103F700000F0004010BD4FF04070E1EE100A7047B5
:103F8000FCF7DDBB0000000000000000010203049C
:103F90000607080900000000000000000000000003
:103FA0000000000000000000000000000000000011
:103FB0000000000000000000000000000000000001
:103FC000000000000000800180018001800180016C
:103FD00080018001800180018001800180018001D9
:103FE00000000000800180010000000000000000CF
:103FF0000000000000000000CC00CC00CC00CC0091
:10400000CC00CC0000000000000000000000000018
:1040100000000000000000000000000000000000A0
:104020000000000000000000000000000000000090
:10403000600C600C600C30063006FE1FFE1F300660
:1040400038071803FE1FFE1F180318038C018C018C
:104050008C01000000008000E003F80F9C0E8C1C17
:104060008C188C009800F801E007800E801C8C18DA
:104070008C189C18B80CF00FE00380008000000042
:10408000000000000000000000000E181B0C110CC6
:1040900011061106110311039B018E01C038C06C7B
:1040A00060446044304430441844186C0C380000BC
:1040B000000000000000E001F003380718061806B1
:1040C0003003F001F000F8009C310E33061E061C90
:1040D000061C063FFC73F0210000000000000000F9
:1040E00000000000000000000C000C000C000C00A0
:1040F0000C000C00000000000000000000000000A8
:1041000000000000000000000000000000000000AF
:10411000000000000000000200038001C000C00099
:1041200060006000300030003000300030003000AF
:104130003000300060006000C000C000800100035B
:1041400000020000000020006000C000800180012B
:104150000003000300060006000600060006000635
:10416000000600060003000380018001C00060001B
:10417000200000000000000000000000000000001F
:10418000C000C000D806F807E0013003380700007F
:10419000000000000000000000000000000000001F
:1041A000000000000000000000000000000000000F
:1041B00080018001800180018001FC3FFC3F800183
:1041C00080018001800180010000000000000000EB
:1041D00000000000000000000000000000000000DF
:1041E00000000000000000000000000000000000CF
:1041F000000000000000800180010001000180003B
:1042000000000000000000000000000000000000AE
:10421000000000000000000000000000E007E007D0
:10422000000000000000000000000000000000008E
:10423000000000000000000000000000000000007E
:10424000000000000000000000000000000000006E
:10425000000000000000C000C000000000000000DE
:10426000000000000000000C000C00060006000624
:104270000003000300038003800180018001C0006F
:10428000C000C000600060000000000000000000EE
:10429000000000000000E003F007380E180C0C18B6
:1042A0000C180C180C180C180C180C180C180C18EE
:1042B000180C380EF007E0030000000000000000BA
:1042C00000000000000000018001C001F001980121
:1042D00088018001800180018001800180018001CE
:1042E00080018001800180010000000000000000CA
:1042F000000000000000E003F80F180C0C180C1868
:1043000000180018000C000600038001C0006000C7
:1043100030001800FC1FFC1F00000000000000001F
:10432000000000000000E001F807180E0C0C0C0C57
:10433000000C0006C003C007000C001800180C1881
:104340000C18180CF807E003000000000000000043
:10435000000000000000000C000E000F000F800D98
:10436000C00C600C600C300C180C0C0CFC3FFC3FBB
:10437000000C000C000C000C00000000000000000D
:10438000000000000000F80FF80F180018000C00E3
:10439000EC03FC071C0E001C0018001800180C1879
:1043A0001C0C180EF807E0030000000000000000DD
:1043B000000000000000C007F00F381C181818009B
:1043C0000C00CC03EC0F3C0E1C1C0C180C180C1829
:1043D000181C380EF007E003000000000000000089
:1043E000000000000000FC1FFC1F000C000600067F
:1043F000000380038001C001C000E0006000600095
:1044000070003000300030000000000000000000AC
:10441000000000000000E003F007380E180C180C34
:10442000180C3806F007F007180C0C180C180C18AC
:104430000C18380CF80FE00300000000000000002A
:10444000000000000000E003F007380E1C0C0C1800
:104450000C180C181C1C381EF81BE0190018000C56
:10446000000C1C0EF807F001000000000000000026
:10447000000000000000000000000000000000003C
:10448000800180010000000000000000000000002A
:10449000000000008001800100000000000000001A
:1044A000000000000000000000000000000000000C
:1044B00080018001000000000000000000000000FA
:1044C0000000000080018001000100018000000068
:1044D00000000000000000000000000000000000DC
:1044E000000000000010001C800FE003F80018001E
:1044F000F800E003800F001C001000000000000026
:1045000000000000000000000000000000000000AB
:1045100000000000F81F000000000000F81F00006D
:10452000000000000000000000000000000000008B
:10453000000000000000000000000000000000007B
:104540000000000008003800F001C007001F00183C
:10455000001FC007F0013800080000000000000044
:10456000000000000000E003F80F180C0C180C18F5
:104570000018000C000600038001C000C000C0004D
:1045800000000000C000C0000000000000000000AB
:104590000000000000000000E00718180420C229F5
:1045A000224A114409440944094409221113E20C26
:1045B000024004201818E00700000000000000007E
:1045C00000000000000080038003C006C006C00693
:1045D000600C600C301830183018F83FF83F1C7031
:1045E0000C600C6006C006C0000000000000000067
:1045F000000000000000FC03FC0F0C0C0C180C1851
:104600000C180C0CFC07FC0F0C180C300C300C3088
:104610000C300C18FC1FFC0700000000000000001C
:10462000000000000000C007F01F38381C300C707C
:10463000066006000600060006000600060006608A
:104640000C701C30F01FE0070000000000000000AC
:10465000000000000000FE03FE0F060E06180618FC
:1046600006300630063006300630063006300618B2
:104670000618060EFE0FFE030000000000000000FA
:10468000000000000000FC3FFC3F0C000C000C0090
:104690000C000C00FC1FFC1F0C000C000C000C009C
:1046A0000C000C00FC3FFC3F00000000000000007C
:1046B000000000000000F83FF83F18001800180044
:1046C00018001800F81FF81F18001800180018002C
:1046D000180018001800180000000000000000007A
:1046E000000000000000E00FF83F3C780E6006E09C
:1046F00007C00300030003FE03FE03C007C006C09B
:104700000EC03CF0F83FE00F000000000000000089
:104710000000000000000C300C300C300C300C306D
:104720000C300C30FC3FFC3F0C300C300C300C30AB
:104730000C300C300C300C30000000000000000089
:1047400000000000000080018001800180018001E4
:104750008001800180018001800180018001800151
:104760008001800180018001000000000000000045
:10477000000000000000000600060006000600061B
:1047800000060006000600060006000600061806E1
:1047900018063807F003E0010000000000000000E8
:1047A00000000000000006300618060C060606038E
:1047B0008601C60066007600DE008E01060306064E
:1047C000060C06180630066000000000000000001D
:1047D0000000000000001800180018001800180061
:1047E0001800180018001800180018001800180009
:1047F00018001800F81FF81F00000000000000005B
:104800000000000000000EE01EF01EF01EF036D882
:1048100036D836D836D866CC66CC66CCC6C6C6C6C0
:10482000C6C6C6C686C386C30000000000000000DE
:104830000000000000000C301C303C303C306C307C
:104840006C30CC30CC308C310C330C330C360C3615
:104850000C3C0C3C0C380C30000000000000000048
:10486000000000000000E007F81F1C380E70066012
:1048700003C003C003C003C003C003C003C006607D
:104880000E701C38F81FE007000000000000000058
:10489000000000000000FC0FFC1F0C380C300C3036
:1048A0000C300C300C18FC1FFC070C000C000C002A
:1048B0000C000C000C000C000000000000000000C8
:1048C000000000000000E007F81F1C380E700660B2
:1048D00003E003C003C003C003C003C007E00663D6
:1048E0000E3F1C3CF83FE0F700C000000000000055
:1048F000000000000000FE0FFE1F063806300630E4
:1049000006300638FE1FFE0706030606060C0618CC
:1049100006180630063006600000000000000000A7
:10492000000000000000E003F80F1C0C0C180C182D
:104930000C001C00F803E00F001E003806300630A3
:104940000E301C1CF80FE007000000000000000003
:10495000000000000000FE7FFE7F800180018001DA
:10496000800180018001800180018001800180013F
:104970008001800180018001000000000000000033
:104980000000000000000C300C300C300C300C30FB
:104990000C300C300C300C300C300C300C300C3037
:1049A0000C301818F81FE00700000000000000009D
:1049B00000000000000003600630063006300C18CE
:1049C0000C180C18180C180C380E3006300670072E
:1049D00060036003C001C00100000000000000008F
:1049E0000000000000000360C361C361C36166335F
:1049F000663366336633663366336C1B6C1B6C1B25
:104A00002C1A3C1E380E380E00000000000000007A
:104A10000000000000000FE00C7018303018700C1F
:104A2000600EC00780038003C003E006700C301CDA
:104A300018180C300E6007E00000000000000000B5
:104A400000000000000003C006600C301C3838185D
:104A5000300C6006E007C003800180018001800106
:104A60008001800180018001000000000000000042
:104A7000000000000000FC7FFC7F00600030001898
:104A8000000C000600038001C00060003000180028
:104A90000C000600FE7FFE7F00000000000000000A
:104AA000000000000000E003E00360006000600020
:104AB00060006000600060006000600060006000F6
:104AC0006000600060006000600060006000E00363
:104AD000E003000000003000300060006000600073
:104AE000C000C000C000C00180018001800100033F
:104AF00000030003000600060000000000000000A4
:104B0000000000000000E003E003000300030003D6
:104B1000000300030003000300030003000300037D
:104B20000003000300030003000300030003E0038D
:104B3000E003000000000000C001C001600360034A
:104B4000600330063006180C180C0000000000004E
:104B50000000000000000000000000000000000055
:104B60000000000000000000000000000000000045
:104B70000000000000000000000000000000000035
:104B8000000000000000FFFFFFFF00000000000029
:104B90000000000000000C000C000C000C000C00D9
:104BA0000C000000000000000000000000000000F9
:104BB00000000000000000000000000000000000F5
:104BC00000000000000000000000000000000000E5
:104BD000F003F8071C0C0C0C000FF00FF80C0C0C79
:104BE0000C0C1C0FF80FF018000000000000000073
:104BF000000000000000180018001800180018003D
:104C0000D803F80F380C181818181818181818188E
:104C10001818380CF80FD80300000000000000003E
:104C20000000000000000000000000000000000084
:104C3000C003F007300E180C1800180018001800F8
:104C4000180C300EF007C003000000000000000048
:104C500000000000000000180018001800180018DC
:104C6000C01BF01F301C181818181818181818181E
:104C70001818301CF01FC01B0000000000000000CE
:104C80000000000000000000000000000000000024
:104C9000C003F00F300C1818F81FF81F1800180088
:104CA0003818301CF00FC0070000000000000000A2
:104CB000000000000000800FC00FC000C000C00056
:104CC000F007F007C000C000C000C000C000C00076
:104CD000C000C000C000C0000000000000000000D4
:104CE00000000000000000000000000000000000C4
:104CF000E00DF80F180E0C0C0C0C0C0C0C0C0C0C22
:104D00000C0C180EF80FE00D000C0C0C1C06F8072C
:104D1000F00100000000180018001800180018002A
:104D2000D807F80F381C1818181818181818181859
:104D300018181818181818180000000000000000B3
:104D4000000000000000C000C000000000000000E3
:104D5000C000C000C000C000C000C000C000C00053
:104D6000C000C000C000C000000000000000000043
:104D7000000000000000C000C000000000000000B3
:104D8000C000C000C000C000C000C000C000C00023
:104D9000C000C000C000C000C000C000C000F800DB
:104DA0007800000000000C000C000C000C000C004F
:104DB0000C0C0C060C038C01CC006C00FC009C015C
:104DC0008C030C030C060C0C00000000000000001B
:104DD000000000000000C000C000C000C000C00013
:104DE000C000C000C000C000C000C000C000C000C3
:104DF000C000C000C000C0000000000000000000B3
:104E000000000000000000000000000000000000A2
:104E10007C3CFF7EC7E383C183C183C183C183C15F
:104E200083C183C183C183C1000000000000000072
:104E30000000000000000000000000000000000072
:104E40009807F80F381C1818181818181818181878
:104E50001818181818181818000000000000000092
:104E60000000000000000000000000000000000042
:104E7000C003F00F300C1818181818181818181844
:104E80001818300CF00FC0030000000000000000F4
:104E90000000000000000000000000000000000012
:104EA000D803F80F380C18181818181818181818EC
:104EB0001818380CF80FD80318001800180018003C
:104EC00018000000000000000000000000000000CA
:104ED000C01BF01F301C18181818181818181818AC
:104EE0001818301CF01FC01B0018001800180018FC
:104EF000001800000000000000000000000000009A
:104F0000B007F00370003000300030003000300097
:104F100030003000300030000000000000000000D1
:104F20000000000000000000000000000000000081
:104F3000E003F003380E180C3800F003C007000C33
:104F4000180C380EF007E00300000000000000001D
:104F500000000000000000008000C000C000C00091
:104F6000F007F007C000C000C000C000C000C000D3
:104F7000C000C000C0078007000000000000000063
:104F80000000000000000000000000000000000021
:104F90001818181818181818181818181818181891
:104FA0001818381CF01FE019000000000000000075
:104FB00000000000000000000000000000000000F1
:104FC0000C18180C180C180C30063006300660034C
:104FD00060036003C001C001000000000000000089
:104FE00000000000000000000000000000000000C1
:104FF000C141C141C361636363636363363636365F
:1050000036361C1C1C1C1C1C00000000000000008C
:105010000000000000000000000000000000000090
:105020001C38381C300C60066003600360036003AA
:105030006006300C381C1C38000000000000000026
:105040000000000000000000000000000000000060
:105050001830301830187018600C600CE00CC00666
:10506000C00680038003800380018001C001F0003E
:1050700070000000000000000000000000000000C0
:10508000FC1FFC1F000C000600038001C000600034
:1050900030001800FC1FFC1F000000000000000092
:1050A00000000000000000038001C000C000C0003C
:1050B000C000C000C0006000600030006000400020
:1050C000C000C000C000C000C000C00080010003DC
:1050D000000000000000800180018001800180014B
:1050E00080018001800180018001800180018001B8
:1050F00080018001800180018001800180018001A8
:105100008001000000006000C000C001800180013B
:1051100080018001800100030003000600030001FC
:10512000800180018001800180018001C000600059
:10513000000000000000000000000000000000006F
:1051400000000000F010F81F080F00000000000031
:10515000000000000000000000000000000000004F
:105160000000000002400000000000A0000000005D
:1051700005400000000000C8000000000C400000D6
:105180000000409C00000000194000000020BCBE50
:105190000000000034400000BFC91B8E0000000466
:1051A000B5400000504BCFD06607E2CF01000000B1
:1051B0006C4100003E8251AADFEEA73401000000DE
:1051C000D9420000DCB5A0E23A301F97FFFFFFFF95
:1051D000B4450000FD25A0C8E9A3C14FFFFFFFFFB4
:1051E000FF3F00000000008000000000FF3F0000C3
:1051F0000000008000000000345200080000002081
:105200007C00000014020008B05200087C0000205E
:10521000B4080000300200081C0000004300000039
:10522000F8FFFFFF0C0000000E0000000F00000060
:105230002E0000001000000001000000000000002F
:105240000024F40000000000000000000000000046
:1052500001000000E80388130000000000000000C7
:10526000000000000000000000000000000000003E
:10527000000000000000000000000000000000002E
:10528000010101010000000000000000000000001A
:105290000000000000000000000000000060EA467E
:1052A000000000000060EA460000FFFF0000000070
:04000005080001D915
:00000001FF
