:020000040800F2
:1000000098070020F1010008AF300008E729000838
:10001000AD300008C5080008653C0008000000007D
:10002000000000000000000000000000C7330008CE
:10003000C708000800000000B1300008C9330008FC
:100040000B0200080B0200080B0200080B0200085C
:100050000B0200080B0200080B0200080B0200084C
:100060000B0200080B0200080B0200080B0200083C
:100070000B0200080B0200080B0200080B0200082C
:100080000B020008000000000B0200080B02000831
:100090000B0200080B0200080B0200080B0200080C
:1000A000413400080B0200080B0200080B02000894
:1000B0000B0200080B0200080B0200080B020008EC
:1000C0000B0200080B0200080B0200080B020008DC
:1000D0000B020008593C00080B0200080B02000844
:1000E0000B0200080B0200080B0200080B020008BC
:1000F0000B0200080B0200080B02000800000000C1
:10010000000000000B020008000000000B020008C5
:100110000B020008000000000B0200084D3400082C
:100120000B0200080B0200080B0200080B0200087B
:100130000B02000800000000000000000B02000895
:100140000B0200080B020008000000000000000085
:10015000000000000000000000000000000000009F
:100160000000000000000000000000000B0200087A
:100170000B0200080000000000000000000000006A
:10018000000000000B02000800000000000000005A
:10019000000000000000000000000000000000005F
:1001A00000000000000000000B0200080B02000825
:1001B0000B0200080B0200080B0200080000000000
:1001C000000000000B02000800000000000000001A
:1001D0000B0200080B020008DFF810D000F01AFB39
:1001E000004800475D490008AFF3008098070020F1
:1001F0000648804706480047FEE7FEE7FEE7FEE7C1
:10020000FEE7FEE7FEE7FEE7FEE7FEE7253400082F
:10021000D90100082DE9F05F0546002092469B4673
:1002200088460646814640241BE02846414647460C
:10023000224600F005F953465A46C01A914110D3A0
:1002400011461846224600F0ECF82D1A67EB01081B
:100250004F4622460120002100F0E3F817EB000989
:100260004E41201EA4F10104DFDC484631462A46F7
:100270004346BDE8F09FD2B201E000F8012B491ED1
:10028000FBD270470022F6E710B513460A46044633
:100290001946FFF7F0FF204610BD2DE9FE4F81EA19
:1002A000030404F0004421F0004100944FF0000BDF
:1002B00023F0004350EA01045ED052EA03045BD00D
:1002C000C3F30A54C1F30A552C44A4F2F334019445
:1002D000A0FB0254C1F3130141F48011C3F31303D3
:1002E00043F4801301FB024400FB034E840A970A87
:1002F00044EA815447EA8357A4FB076802958D0AB4
:1003000005FB07854FEA932C04FB0C542705029D3F
:100310004FEA065847EA1637B5EB08056EEB070CAF
:10032000870E920E47EA811742EA8312A7FB020169
:10033000B6EB0B0164EB00042B0D43EA0C335E18A3
:1003400044EB1C50DA465146E7FB0201C5F31304A7
:100350004FEA0B3343EA14534FEA0432019C43EA59
:100360000603A4F10C040294009CCDE900B400F053
:10037000BDF803B0BDE8F08F00200146F9E70EB5E7
:1003800040F2334102910021CDE900110A460B46AB
:1003900000F0ACF803B000BD00F0004230F00040C7
:1003A0000AD0C10D01F56071C0F3160042EA015197
:1003B000C20840071143704700200146704701F012
:1003C000004330B421F0004150EA010206D00A0D8A
:1003D000A2F56072C1F31301002A02DC30BC0020D8
:1003E0007047440F44EAC104C100E01830BC00EB80
:1003F000C25000F035B830B50B460146002020222F
:10040000012409E021FA02F59D4205D303FA02F521
:10041000491B04FA02F52844151EA2F10102F1DC81
:1004200030BD202A04DB203A00FA02F10020704798
:100430009140C2F1200320FA03F319439040704722
:10044000202A04DB203A21FA02F00021704721FA29
:1004500002F3D040C2F12002914008431946704790
:100460000029A8BF7047401C490008BF20F00100C8
:10047000704710B4B0FA80FC00FA0CF050EA0104A6
:1004800004BF10BC704749B1CCF1200421FA04F438
:1004900011FA0CF118BF012121430843A3EB0C0111
:1004A000CB1D4FEA00614FEA102042BF002010BC74
:1004B000704700EBC35010440029A4BF10BC704724
:1004C000401C490008BF20F0010010BC704710B567
:1004D000141E73F1000408DA401C41F10001921867
:1004E0005B411A4301D120F0010010BD2DE9F04D10
:1004F00092469B4611B1B1FA81F202E0B0FA80F265
:1005000020329046FFF78DFF04460F4640EA0A006E
:1005100041EA0B0153465A46084313D0114653EAA9
:10052000010019D0C8F140025046FFF789FF054687
:100530000E46504659464246FFF773FF084305D022
:10054000012004E020463946BDE8F08D0020054337
:1005500046EAE0762C4337430A986305E40AA0EBA9
:1005600008000022FD0A44EA47540A3002D5002060
:100570000146E9E7010510196941DDE9084500195F
:100580006941BDE8F04DA2E72DE9FE4F804681EAC2
:100590000300C00F0C46009021F0004123F00045FD
:1005A000B8EB0200A94105D24046214690461C46C0
:1005B0000B46024623F00040104347D0270DC7F3F7
:1005C0000A00C3F30A510290401A019040286BDAE6
:1005D000C3F3130040F4801B0098924620B100231F
:1005E000D2EB030A63EB0B0B01985946C0F14002B2
:1005F0005046FFF716FF06460D4650465946019AEB
:1006000000F01AF910EB08006141002487EA11524A
:1006100084EAE7731A4340D0009A62B3019A012A30
:100620004FEA075215DC001B61EB02014FF000425C
:1006300002EA0752CDE90042001C41F58011324622
:100640002B46FFF753FF03B0BDE8F08F404621462D
:10065000F9E7001B61EB0201001C41F58013001853
:100660005B412018A2F5001747EB030140EAD57063
:10067000B6196D4111E06D084FEA360645EAC075BE
:100680004FEA0752001B61EB0201001C41F580118B
:1006900049084FEA30000019514132462B4603B059
:1006A000BDE8F04FFFF713BF009801224000002380
:1006B000D0EB020263EBE073009821464FEAE0744E
:1006C000B8EB000061EB0401E9E783F000435BE76E
:1006D00081F0004158E72DE9F04D81EA030404F070
:1006E000004B21F0004514464FF0000A23F0004172
:1006F00050EA050220D054EA01021DD0C5F30A5782
:100700000246C5F31303C1F31300C1F30A5640F4C4
:10071000801543F48013A7EB0608101BD64608F299
:10072000FD3873EB050002D308F1010801E09218CF
:100730005B41B8F1000F03DA00200146BDE8F08DFF
:1007400000204FF48011064684460EE0171B73EB21
:10075000050705D3121B63EB050306434CEA010CA6
:1007600049084FEA300092185B4150EA0107EDD189
:1007700052EA030012D082EA040083EA050108432A
:1007800005D0101BAB4106D20122002306E0002257
:100790004FF0004302E06FF0010253101AEB060025
:1007A0004CEB085110EB0A0041EB0B01BDE8F04D9A
:1007B000FFF78DBEC1F30A52C1F3130140F2FF33BC
:1007C00041F480119A4202DA00200146704740F25B
:1007D00033439A42A2F2334202DC5242FFF730BE68
:1007E000FFF71FBE30B5041E71F1000404DB4FF0AB
:1007F0000044404264EB0101141E73F1000405DB68
:100800001C464FF00043524263EB0403994208BF79
:10081000904230BD064C074D06E0E06840F0010311
:1008200094E8070098471034AC42F6D3FFF7D8FCA1
:10083000F85C0008185D0008202A06DBCB17203A78
:1008400041FA02F043EAE07306E041FA02F3D040D5
:10085000C2F12002914008431946704770B5044622
:100860000068816811F0010F28D18168144A114293
:1008700015D18168D5432940491C816000F036FDBF
:10088000064616E0816811F0010F03D18168294006
:10089000491C816000F02AFD801B022809D9E06D07
:1008A00040F01000E065206E40F00100206601205D
:1008B00070BD20680168C943C907E3D1002070BD3D
:1008C0003F000080FEE77047002240F6B83306E0A4
:1008D0000021491C89B29942FBD3521C92B2824238
:1008E000F6D37047704700002DE9F84F0027044603
:1008F000009790F85800DFF8DC930D46B8460128C1
:1009000011D0012684F85860206802F053FA60B1D3
:10091000E06D40F02000E0655FF0010784F858804A
:100920003846BDE8F88F0220FBE7D5E900210C230B
:10093000206803EA91131844036B01F01F014FF084
:100940001F0C0CFA01FCC2F3846223EA0C038A40F8
:1009500013430363206802F02DFA8246206802F0F8
:1009600025FA5AEA00003CD1AA6829682068B2F149
:10097000004F37D002F022FA2068416921F000418F
:10098000416120686969C268C2F3C10252009140A6
:100990002A69042A31D000EB82002B68026EDFF84E
:1009A00038C303F0F84302EA0C020B431A4342F047
:1009B0000041016622682869A96902EB8000026E85
:1009C00022F080720A430266297F20682A69012981
:1009D00010D0002100EB8200026E22F000720A4368
:1009E00002667DE0002202F0E9F92068416941F0E9
:1009F0000041C5E74FF00071ECE7002102F0D0F9AB
:100A0000400320684FF0000172D002F0C9F990FA5B
:100A1000A0F0B0FA80F1286842036ED090FAA0F0FE
:100A2000B0FA80F0814204D100221146206802F021
:100A3000D4F90121206802F0B3F9400320684FF097
:100A400001015DD002F0ACF990FAA0F0B0FA80F1AB
:100A50002868420359D090FAA0F0B0FA80F08142A1
:100A600004D100220121206802F0B7F90221206898
:100A700002F096F9400320684FF0020148D002F0DE
:100A80008FF990FAA0F0B0FA80F12868420344D0C0
:100A900090FAA0F0B0FA80F0814204D10022022145
:100AA000206802F09AF90321206802F079F94003E6
:100AB00020684FF0030133D002F072F990FAA0F0F1
:100AC000B0FA80F1286842032FD090FAA0F0B0FA73
:100AD00080F0814204D100220321206802F07DF9D8
:100AE0002068816811F0010F22D0ACE000E004E042
:100AF00002F056F9C0F384618DE7C0F3846091E79A
:100B000002F04EF9C0F38461A2E7C0F38460A6E767
:100B100002F046F9C0F38461B7E7C0F38460BBE735
:100B200002F03EF9C0F38461CCE7C0F38460D0E703
:100B30002A7B296850F8B03FC1F3120C23EA0C035A
:100B400002F0180C654A22FA0CF20A4013430360C3
:100B5000E968494577D1286841031CD090FAA0F193
:100B6000B1FA81F1491C01F01F0109294FEA403116
:100B700032D8002912D000BF90FAA0F1B1FA81F169
:100B800001F1010101F01F0106FA01F609D100BFD0
:100B9000C0F3846109E0C0F38461E3E7C0F38461DA
:100BA000EEE790FAA0F1B1FA81F101F1010101F053
:100BB0001F0146EA816102D1C0F3846003E090FA2C
:100BC000A0F0B0FA80F000F1010000F01F0000EB8F
:100BD000400041EA005132E000290ED090FAA0F125
:100BE000B1FA81F101F1010101F01F0106FA01F6EC
:100BF00006D100BFC0F3846106E0C0F38461F1E771
:100C000090FAA0F1B1FA81F101F1010101F01F01A7
:100C100046EA816102D1C0F3846003E090FAA0F05B
:100C2000B0FA80F000F1010000F01F002C4A00EB48
:100C3000400002EB005041EA000141F00071AA6857
:100C4000206802F0BBF827482A6802423FF466AEEB
:100C500025488168254B01F0E0719A4202D0244B6F
:100C60009A421BD10B0219D42268B2F1A04F7FF433
:100C700055AE826841F4000122F0E0720A438260BE
:100C80001C481D490068B0FBF1F000EB40008000FB
:100C900000E0401E00900028FBD13FE6174D184BA6
:100CA000AA4207D1CD0105D422689A42F5D041F07D
:100CB000807109E0134DAA42EFD14A02EDD42268B7
:100CC0009A42EAD041F48001826822F0E0720A433D
:100CD000826023E600007F4000F0FF03FFFF070073
:100CE000000020FE0000088000030050000021C327
:100CF0001000C0900C000020400D0300000052C7FF
:100D000000010050000084CB0068006C70470000B8
:100D1000F8B54FF0000504002E46009502D0E06DB6
:100D200010B107E00120F8BD204600F0EDF826667E
:100D300084F8586020688168C1F3407119B18168F6
:100D4000694A1140816020688168C1F3007179B9F6
:100D50008168664A114041F080518160644865496C
:100D60000068B0FBF1F000E0401E00900028FBD1CD
:100D700020688168C1F3007141B9E16D41F0100153
:100D8000E165216E41F001012166012502F012F8B2
:100D9000E16DC90600D430B1E06D40F01000E065AF
:100DA00001252846F8BDE06D20F4807040F0020077
:100DB000E0652068806810F0010F11D14FF0A0406D
:100DC00080684D4900F00100896801F00101084385
:100DD00006D14A486168826822F47C120A43826024
:100DE000E168E06B627F0843A16841EA4231084351
:100DF00094F8241040EA0140012904D1218D404A91
:100E000002EB41410843E16A29B101F47871226B98
:100E1000014342EA01002168CA683A4B1A40024382
:100E2000CA6020680169626B21F040611143016171
:100E3000206801F0BFFF0646206801F0B7FF30438D
:100E40002ED1207F94F83810800340EA41022068B8
:100E5000C16844F2020399431143C160206900282C
:100E6000206801690AD041F480310161206850F89E
:100E7000C01F22696FF30D01114307E021F4803197
:100E80000161206850F8C01F6FF30D01016094F8F4
:100E9000400001280CD02068016921F001010161A6
:100EA000606901282068016B21F00F0111D013E067
:100EB000D4E911010843D4E913121143084321680E
:100EC0000A6940F2FC739A43104340F00100086144
:100ED000E6E7226A521E11430163E06D20F0020032
:100EE00040F00100E0655CE7C0FFFF5FC0FFFF7FEF
:100EF0000C000020400D03000001005000030050D2
:100F00000000FEFF0740F0FF10B598B00446142122
:100F100011A8FFF7B7F944216846FFF7B3F915495F
:100F20002068884223D1C401400500940F90684690
:100F300000F0DAFA08B1FFF7D5FC0F48C16C41F4B4
:100F40000051C164C16C01F400511691C16C41F0B3
:100F50000201C164C06C11A900F0020016900320C8
:100F6000CDE9114000201390044800F0D1F818B0EA
:100F700010BD0000000100500010024000040048B5
:100F80002DE9F04104463848806800F01F052068CC
:100F900001F010FF18B102210846BDE8F08194F875
:100FA000580001280CD0012084F858002046FFF793
:100FB00055FC01004FF0000304D084F85830EBE7F3
:100FC0000220EAE7E06D40F60162904340F4807051
:100FD000E065264A20684FF0A046904201D137468E
:100FE00000E00746874200D01DB9E76D27F480175F
:100FF000E765E76DFF0404D5276E27F0060727662F
:1010000000E023661C27076084F85830206890426F
:1010100001D1334600E00346834215D0A5B1052D2A
:1010200012D0092D10D0E36D43F48013E365904294
:1010300000D13046C0688001AED5E06D20F400508C
:1010400040F48050E065A7E7C268920105D5E26DE3
:1010500022F4005242F48052E2658268044B1A4046
:10106000121D826098E7000000030050000100504C
:10107000C0FFFF7F70B590F8252000240121234692
:10108000022A07D00422C26380F8251080F8243099
:10109000012429E00268156825F00E051560026834
:1010A000156825F001051560826C156825F48075BA
:1010B000156090F84420056C02F01F0201FA02F25C
:1010C0006A60D0E913255560426D32B1156825F488
:1010D00080751560D0E91625556080F8251080F8D8
:1010E0002430816B01B18847204670BD70B504463D
:1010F00000F0FCF80546601C02D004484068044437
:1011000000F0F4F8401BA042FAD370BD00000020AC
:101110002DE9FC4FDFF8A0A1002301250AF1040B03
:1011200003244FF00F0C0BF1040EBDE005FA03F69B
:1011300032406FD04F68012F05D0022F03D0112FFE
:1011400001D0122F17D1D0F808905F0004FA07F8E9
:1011500029EA08090097D1F80C8008FA07F848EA4C
:101160000908C0F808804768B7430E79C6F300162F
:101170009E403E434660C6684FEA430804FA08F7BB
:10118000BE4301978F6807FA08F73743C7604E6878
:10119000022E01D0122E13D1DE0800EB8606009637
:1011A000366A5F07FF0E0CFA07F926EA0906D1F83E
:1011B000109009FA07F949EA0609009EC6F820903E
:1011C0000668019FBE430F7907F0030707FA08F787
:1011D000374307604E68F60065D5384E376E47F0E6
:1011E00001073766366E23F0030706F00106009606
:1011F000334E3E44B146B6689F074FEA17780CFA63
:1012000008F7BE43B0F1904F05D02E4FB84204D13D
:10121000012717E047E0002714E02B4FB84201D127
:1012200002270FE0294FB84201D103270AE0284FD7
:10123000B84201D1042705E0264FB84201D1052765
:1012400000E0062707FA08F73743C9F80870DAF80C
:1012500000605746D1F8048096435FEAC83800D54D
:1012600016433E60DBF800605F46D1F80480964389
:101270005FEA883800D516433E60DEF800607746A6
:10128000D1F8048096435FEAC82800D516433E6033
:10129000094F0C373E68D1F8048096435FEA8828EE
:1012A00000D516433E605B1C0A6832FA03F67FF4F1
:1012B0003DAFBDE8FC8F000000040140001002407B
:1012C000000001400004004800080048000C0048ED
:1012D00000100048001400480069084000D00120B8
:1012E00070470AB181617047816270470148806828
:1012F00070470000000000200248816842681144E5
:10130000816070470000002010B50024032000F029
:1013100073F8002000F008F808B1012401E000F0A3
:1013200025F8204610BD000070B50E4E054600247D
:10133000706898B14FF47A71B1FBF0F00A4909680E
:10134000B1FBF0F000F064FD40B9102D06D2002290
:101350002946501E00F030F8356000E00124204698
:1013600070BD0000000000200C0000200A4882B080
:10137000016E41F001010166016E01F00101009171
:10138000816D41F080518165806D00F0805000904A
:1013900002B000F0A1B8000000100240002809DBF4
:1013A00000F01F02012191404009800000F1E0207F
:1013B000C0F8001170470000F0B40E4B1B680C46DB
:1013C000C3F30223C3F10705042D00D90425191D19
:1013D000072901D2002300E0DB1E012606FA05F1F1
:1013E000491E214099409E40761E16403143F0BC74
:1013F00002F05EBC0CED00E0064900F00702086850
:101400004FF6FF03184040EA0220034A10430860E9
:10141000704700000CED00E00000FA052B492C4B52
:101420000A6832214A432B4940B1B0F5007F086871
:1014300029D020F4C06040F480602CE00868C0F33C
:101440004120022804D051F8800F20F4807022E05F
:10145000D1F8800020F48070C1F88000086820F482
:10146000C06040F400700860B2FBF3F0401C00E084
:10147000401E4A69520501D50028F9D14869400546
:101480000AD503207047C0F34120022806D051F846
:10149000800F40F48070086000207047D1F8800011
:1014A00040F48070C1F88000086820F4C06040F407
:1014B00000700860B2FBF3F0401C00E0401E4A6977
:1014C0005205DBD50028F9D1D8E700000C00002038
:1014D00040420F00007000400248816841F48041A2
:1014E00081607047007000402DE9F84304460068B1
:1014F00000269D4D00035ED5A86D0027C00008D4CE
:10150000A86D40F08050A865A86D012700F08050BC
:101510000090DFF85892D9F8001041F48071C9F8B2
:101520000010FFF7E3FE804606E000BFFFF7DEFE97
:10153000A0EB080002282BD8D9F80000C005F5D58B
:10154000D5F8900010F4407014D0216C814211D075
:10155000D5F89000D5F8901020F4407041F4803117
:10156000C5F89010D5F8901021F48031C5F890108E
:10157000C5F89000C00711D0FFF7B8FE804641F2D1
:10158000883907E0FFF7B2FEA0EB0801494501D911
:1015900003260BE0D5F890008007F3D5D5F890002E
:1015A000216C20F440700843C5F890001FB1A86D6D
:1015B00020F08050A8652078C00707D0D5F88800B3
:1015C000616820F003000843C5F888002078800790
:1015D00007D5D5F88800A16820F00C000843C5F8AD
:1015E00088002078400707D5D5F88800E16820F00A
:1015F00030000843C5F888002078000707D5D5F8E3
:101600008800216920F0C0000843C5F888002078D0
:10161000800607D5D5F88800616920F4406008434A
:10162000C5F888002078400607D5D5F88800A1695C
:1016300020F440500843C5F888002078000607D5FC
:10164000D5F88800E16920F440400843C5F88800D7
:101650002088C00507D5D5F88800216A20F44030DD
:101660000843C5F888002088800507D5D5F888008C
:10167000616A20F440200843C5F8880020884005AE
:101680000FD5D5F88800A16A20F440100843C5F8AA
:101690008800A06AB0F5801F03D1E86840F480108C
:1016A000E860208800050FD5D5F88800E16A20F4AD
:1016B00040000843C5F88800E06AB0F5800F03D108
:1016C000E86840F48010E8602088C0040FD5D5F8A1
:1016D0008800216B20F040700843C5F88800206B1B
:1016E000B0F1807F03D1E86840F48010E860208882
:1016F0004FF0006180040ED5D5F88800626B20F0B1
:1017000040601043C5F88800606B884203D1E868E8
:1017100040F48010E860208840040ED5D5F8880099
:10172000A26B20F040601043C5F88800A06B88428F
:1017300003D1E86840F48010E860208800040FD5E9
:10174000D5F88800E16B20F040500843C5F88800C8
:10175000E06BB0F1805F03D1E86840F48030E8606E
:101760003046BDE8F88300000010024000700040E1
:101770002DE9F0470E4605004FF0000725D0DFF8B1
:10178000AC81D8F8000000F00F00B0420CD2D8F8BD
:10179000001021F00F013143C8F80010D8F8000004
:1017A00000F00F00B04210D12968614CC80741F227
:1017B000883A5AD06868DFF87C91032808D002285C
:1017C00020682DD0400500282CDB0120BDE8F087E3
:1017D00020688001F9D5E06800F00302E068C0F3FA
:1017E0000310401C032A19D0534A00BFB2FBF0F08B
:1017F000E268C2F306225043E268C2F34162521C1F
:101800005200B0FBF2F0484517D9A06810F0F00F75
:101810000CD0880711D5A86840B10EE0474AE5E72B
:101820008003D0E700F0B6F8484506D9A06820F05C
:10183000F00040F08000A0608027A068696820F078
:1018400003000843A060FFF751FD814606E000BF9A
:10185000FFF74CFDA0EB090151453AD8A068696833
:1018600000F00C00B0EB810FF2D12868810714D58D
:10187000400703D5A06840F4E060A0602878000726
:1018800005D5A06820F4605040F4E060A060A06836
:10189000A96820F0F000084304E0802F03D1A0687D
:1018A00020F0F000A060D8F80010404601F00F01D1
:1018B000B14216D9016821F00F0131430160FFF7F1
:1018C00015FD074607E000BFFFF710FDC11B51459E
:1018D00001D903207AE7D8F8000000F00F00B042E9
:1018E000F2D12878400705D5A068E96820F4E060C7
:1018F0000843A0602878000706D5A068296920F46D
:10190000605040EAC100A06000F044F8A1680C4AB1
:10191000C1F30311515C01F01F01C840094908607F
:1019200009480068BDE8F047FFF7FEBC0020024010
:101930000010024000B4C4040024F40000366E011C
:10194000104B00080C00002000000020054806494C
:1019500000688968054AC1F30221515C01F01F014A
:10196000C84070470C00002000100240204B0008C7
:101970000548064900688968054AC1F3C221515CDF
:1019800001F01F01C84070470C0000200010024009
:10199000204B0008184910B58868C0F38102174829
:1019A000012A0BD08A68164BC2F38102022A06D0A4
:1019B0008A68C2F38102032A03D0002010BD1846B2
:1019C00010BDCA6802F00304CA68C2F30312521CB5
:1019D000032C02D0B0FBF2F001E0B3FBF2F0CA68D6
:1019E000C968C2F306225043C1F34161491C490052
:1019F000B0FBF1F010BD0000001002400024F40024
:101A000000366E012DE9F84304007AD02078FA4DB3
:101A1000C00747D0A868E96800F00C0001F0030196
:101A20000C2802D0082817D001E0032914D06068E0
:101A3000B0F5803F17D0B0F5A02F286817D020F45C
:101A400080302860286820F4802028606068E0B139
:101A5000FFF74CFC064614E02868800322D5606836
:101A60000028D2D01EE0286840F48030EDE740F432
:101A700080202860F7E700BFFFF738FC801B642850
:101A800070D828688003F7D50CE0FFF72FFC0646D6
:101A900005E000BFFFF72AFC801B6428F0D8286807
:101AA0008003F7D4207880074CD5A868E96800F057
:101AB0000C0001F003010C2802D004280DD001E035
:101AC00002290AD0E068002828682BD040F48070F2
:101AD0002860FFF70BFC064619E02868400502D590
:101AE000E068002891D06868217C20F0FE4040EA40
:101AF00001606860C1480068FFF716FC002800D14B
:101B000020E076E1FFF7F2FB801B0228B8D82868B6
:101B10004005F7D56868217C20F0FE4040EA01606E
:101B200068600FE020F480702860FFF7DFFB064656
:101B300005E000BFFFF7DAFB801B0228A0D8286869
:101B40004005F7D42078000729D560690028D5F82A
:101B5000940013D040F00100C5F89400FFF7C6FBD5
:101B6000064606E090E000BFFFF7C0FB801B02289E
:101B700086D8D5F894008007F6D510E020F0010053
:101B8000C5F89400FFF7B2FB064604E0FFF7AEFB92
:101B9000801B022878D8D5F894008007F6D42078E6
:101BA000400761D5A86D0026C00008D4A86D40F09C
:101BB0008050A865A86D012600F0805000909048E4
:101BC0000168C90511D40168804641F48071016043
:101BD000FFF78CFB074604E0FFF788FBC01B0228D9
:101BE00052D8D8F80000C005F6D5A068012815D055
:101BF0000528D5F8900016D020F00100C5F8900017
:101C0000D5F8900020F00400C5F89000A06841F2DB
:101C10008838B8B1FFF76AFB07460EE0D5F89000A8
:101C200040F00100F0E740F00400C5F89000F5E74F
:101C3000FFF75CFBC11B414526D8D5F89000800713
:101C4000F6D50CE0FFF752FB074604E0FFF74EFB2A
:101C5000C11B414518D8D5F890008007F6D41EB1B5
:101C6000A86D20F08050A8652078800629D5A0694D
:101C70000028D5F8980013D040F00100C5F898006E
:101C8000FFF734FB064606E077E000BFFFF72EFBC8
:101C9000801B022877D8D5F898008007F6D510E089
:101CA00020F00100C5F89800FFF720FB064604E08D
:101CB000FFF71CFB801B022865D8D5F89800800729
:101CC000F6D4E069F0B3A968C1F38101032961D0BA
:101CD0000228286820F0807028600BD0E86820F087
:101CE0000300E860E86847490840E860FFF7FEFA4B
:101CF00004464BE0FFF7FAFA064604E0FFF7F6FA6F
:101D0000801B02283FD828688001F7D4F4E9080135
:101D10006FF00F0202EB01110843218A52044908B7
:101D200002EB4151A26841EA02210843217D4FF0B4
:101D30007E42490802EB41610843217B40EAC160D1
:101D4000E96800E062E0304A11400843E860286832
:101D500040F080702860E86840F08070E860FFF72D
:101D6000C5FA044605E000BFFFF7C0FA001B0228D1
:101D700009D828688001F7D548E004E0FFF7B6FAF3
:101D8000001B022802D90320BDE8F88328688001DF
:101D9000F4D43BE00128F7D0E868226A00F00301A0
:101DA000914226D1616A00F0F00209011039914296
:101DB0001FD1A26A00F4FE41B1EB022F19D194F8B1
:101DC0002C2000F07841B1EBC26F12D1218E00F4CB
:101DD000C00249084905A1F50011914209D194F8C2
:101DE000341000F0C06049084906A1F10071814239
:101DF0000CD00120C8E700000010024000000020C5
:101E000000700040FFFFEEFE0C809F010020BBE74A
:101E100010B5401EB0F1807F01D3012010BD4FF0FE
:101E2000E02460610F21601701F042FF0020A061F3
:101E300007202061002010BD704770477047704731
:101E400070477047F0B590F83C20012A3AD0012540
:101E500080F83C50022280F83D2003685A689C6854
:101E6000194E1A4FB34201D0BB4204D122F4700C78
:101E70004A6842EA0C02DFF858C002EA0C02D1F8C4
:101E800000C04CEA020CC3F804C00268B2420DD094
:101E9000B2F1804F0AD00F4B9A4207D00E4B9A42B4
:101EA00004D0BA4202D00D4B9A4204D1896824F082
:101EB00080031943916080F83D50002180F83C1068
:101EC0000846F0BD0220F0BD002C01400034014066
:101ED0008FFFFFFD0004004000080040004001406B
:101EE000704710B5040003D094F83D0010B107E02E
:101EF000012010BD002084F83C00204600F022F8AC
:101F0000022084F83D00211D206801F0A5FA01207F
:101F100084F8480084F83E0084F83F0084F84000CC
:101F200084F8410084F8420084F8430084F84400B7
:101F300084F8450084F8460084F8470084F83D00A2
:101F4000002010BD08B5154A0168154891420ED110
:101F5000816D41F020018165806D002200F020003C
:101F6000009001213720FFF727FA372010E00D4AB3
:101F7000914211D1016E41F480310166006E002260
:101F800000F48030009002211820FFF715FA182085
:101F9000BDE80840FFF702BA08BD00000014004089
:101FA000001002400040014090F83D10012901D08E
:101FB00001207047022180F83D100168CA6842F094
:101FC0000102CA600068104988420ED0B0F1804F0B
:101FD0000BD00E49884208D00D49884205D00D49E2
:101FE000884202D00C49884207D181680B4A1140CF
:101FF000062906D0B1F5803F03D0016841F0010108
:102000000160002070470000002C014000040040E7
:10201000000800400034014000400140070001007A
:102020000168CA6822F00102CA6001680A6A41F2C6
:1020300011131A4207D10A6A9B001A4203D10A6897
:1020400022F001020A60012180F83D100020704753
:1020500070B5044690F83C00012814D0012584F89E
:102060003C50022084F83D0022689068344B1840B0
:1020700020F47F4090600868702827D010DC10F0B2
:102080000F0F03D04AE04FF0020070BD4FEA20125C
:10209000072A43D2DFE802F050505050483139004F
:1020A000284BC21A984247D009DCB0F5805F35D082
:1020B000B0F5005F15D0B0F1101F2FD13CE0102A11
:1020C0003AD0202A38D0502A28D135E0CB68D1E93F
:1020D0000121206801F018FA2068816841F0770139
:1020E00009E0CB68D1E90121206801F00DFA2068F0
:1020F000816841F48041816010E0CA6849682068C5
:1021000001F016FA5021206806E0CA684968206884
:1021100001F01FFA6021206801F000FA84F83D50B8
:10212000002084F83C0070BDCA684968206801F04E
:10213000FFF940212068EFE7226801461046EBE7EF
:1021400088FFCEFF20001000704770B5044600687D
:1021500001694FF00005C943890715D4C168C94317
:10216000890711D4E91E0161012020772068806968
:102170008007204602D0FFF7E7FF04E000F0E3F815
:10218000204600F0E1F8257720680169C943490736
:1021900017D4C168C943490713D46FF00401016122
:1021A000022020772068806910F4407F204602D00A
:1021B000FFF7CAFF04E000F0C6F8204600F0C4F8BC
:1021C000257720680169C943090716D4C168C94346
:1021D000090712D46FF008010161042020772068FC
:1021E000C0698007204602D0FFF7AEFF04E000F090
:1021F000AAF8204600F0A8F8257720680169C943AD
:10220000C90617D4C168C943C90613D46FF01001B9
:102210000161082020772068C06910F4407F2046C3
:1022200002D0FFF791FF04E000F08DF8204600F0A7
:102230008BF8257720680169C943C90708D1C168AF
:10224000C943C90704D1891E0161204600F07EF808
:1022500020680169C943090609D4C168C943090650
:1022600005D46FF0800101612046FFF7E6FD20688C
:102270000169C943C90509D4C168C943090605D420
:102280006FF4807101612046FFF7D6FD2068016977
:10229000C943490609D4C168C943490605D46FF04A
:1022A00040010161204600F0D1F820680169C9436E
:1022B000890609D4C168C943890605D46FF0200195
:1022C00001612046FFF7BAFD20680169C943C902D0
:1022D00009D4C168C943C90205D46FF480110161F2
:1022E0002046FFF7ADFD20680169C943890209D482
:1022F000C168C943890205D46FF400110161204609
:10230000FFF79DFD20680169C943490209D4C168EE
:10231000C943490205D46FF4800101612046FFF7EB
:1023200090FD20680169C94309020BD4C168C94303
:10233000090207D46FF4000101612046BDE8704036
:10234000FFF7CEBD70BD7047704700002DE9F0412A
:1023500007460068384900250126384C884247D195
:10236000E06A401C3221B0FBF1F2E06201FB120096
:1023700078B902F03BF9207958B12078C0BBE089E8
:10238000401C80B2E081642805D32571E581E671A7
:1023900001E0207860BB617851B3208A401C80B294
:1023A0006422B0FBF2F302FB130320820BB9022973
:1023B00005D0B0FBF2F302FB130050B118E0207A15
:1023C000401C00F001012172012002F097FA002167
:1023D0000BE001290CD1607A0021401C00F00100C3
:1023E0006072012002F08AFA617A022002F086FA15
:1023F00013493868884213D1206B0A21401CB0FB76
:10240000F1F2206301FB1200002809D10D48FFF70B
:1024100007FEE078012805D000B1A671E5702563BC
:10242000BDE8F081084800784C2801D05228F4D14A
:1024300026716071F2E700000014004010000020D7
:10244000004001400801002080030020704790F800
:102450007C10012918D0012180F87C102421C0F8BB
:10246000801050F8601B0A680B6823F001030B60B2
:1024700022F000510022426050F8603C1960202197
:10248000016202771046704702207047704770B5AE
:10249000044690F87C0001281DD0012084F87C00BF
:1024A0002420C4F8800020680568026822F0010238
:1024B00002602068826822F060620A4382602046DF
:1024C00001F05AF8206805602020C4F88000002040
:1024D00084F87C0070BD022070BD70B5044690F891
:1024E0007C0001281DD0012084F87C002420C4F841
:1024F000800020680568026822F0010202602068FE
:10250000826822F060420A438260204601F034F87B
:10251000206805602020C4F88000002084F87C003A
:1025200070BD022070BD7047704770472DE9F041C3
:1025300003680446D86919689A6840F60F0528426E
:102540004FF0000509D186067ED501F0200602F085
:1025500080573E4378D0E16E9EE0624E624F164057
:102560000F40374370D0C70709D0CF0507D50127E3
:102570001F62D4F8883043F00103C4F88830830721
:102580000AD5D30708D0276802233B62D4F88830E5
:1025900043F00403C4F8883043070AD5D30708D0B2
:1025A000276804233B62D4F8883043F00203C4F860
:1025B000883003070CD501F02003334308D0266888
:1025C00008233362D4F8883043F00803C4F8883015
:1025D00003050BD54B0109D526684FF40063336220
:1025E000D4F8883043F02003C4F88830D4F8883019
:1025F000002B34D0800609D501F0200002F0805174
:10260000084303D0E16E09B120468847D4F888001A
:1026100021688968490602D410F0280F21D020468D
:1026200001F07AF820688168490615D5816821F0A3
:1026300040018160A06F78B12C498163A06FFEF7E3
:1026400019FD00280BD000E011E0A06F816B00E0C5
:102650002046BDE8F04108472046FFF766FFBDE889
:10266000F0812046FFF761FFC4F88850F7E7C60203
:1026700009D5560207D54FF4801018622046BDE8F0
:10268000F041FFF751BF060609D501F0800602F4BC
:102690000002164303D0216F0029D9D1DFE742069B
:1026A0000DD54A060BD51968204621F04001196066
:1026B0002021C4F88010256700F094F9CFE70202CA
:1026C00006D54A0004D52046BDE8F041FFF72BBFF0
:1026D000C001C4D50029C2DA2046BDE8F041FFF7A9
:1026E000D5BE0000010000102001000403370008DF
:1026F00010B5040003D0D4F8800010B107E0012029
:1027000010BD002084F87C00204600F027F824202B
:10271000C4F880002068016821F0010101602046B2
:1027200001F00CF90128EBD0A06A10B1204600F0AE
:1027300055FF2068416821F490414160206881681C
:1027400021F02A0181602068016841F001010160E7
:102750002046BDE8104000F0A5BF000010B598B0BD
:102760000446142111A8FDF78DFD44216846FDF7AC
:1027700089FD1B492068884230D101200024CDE921
:1027800000046846FEF7B0FE08B1FEF7ABF8154846
:10279000016E41F480410166016E01F480411691A1
:1027A000C16C41F00101C164C06C11A900F00100CD
:1027B00016904FF4C06011900220CDE9120407205A
:1027C000CDE914404FF09040FEF7A2FC00221146E4
:1027D0002520FEF7F1FD2520FEF7E0FD18B010BD25
:1027E000003801400010024070B5D0F88430202B32
:1027F0006DD1B9B1B2B190F87C30012B67D0012313
:1028000080F87C308165A0F85C20A0F85E20002173
:10281000C16683684FF48056FF24B34207D1036931
:1028200013B11CE0012070BD40F2FF131DE07F25B5
:102830009BB1B3F1805F15D0A0F86010C0F888108C
:102840002223C0F8843003689C6844F001049C6033
:10285000436EB3F1005F0ED027E0036943B9A0F8DF
:102860006040EBE703691BB13F23A0F86030E5E768
:10287000A0F86050E2E7B0F86830934215D882685B
:10288000B24201D1026972B1124AC26680F87C106C
:1028900001680A6842F480720A600068816841F049
:1028A000805181600FE00C4AEFE78268B24201D1AB
:1028B000026952B1094AC26680F87C10006801685A
:1028C00041F490710160002070BD054AF3E70220D9
:1028D00070BD00009D3800089D3700083D38000895
:1028E0003D37000810B50C48FFF79AFB0A49002055
:1028F0000968486209490A4BC8788A781A54401C0A
:10290000C8700548FFF750FB04490122BDE810409C
:10291000891C0448FFF768BF080100201000002050
:1029200080030020540100202DE9F8430446D0F82C
:1029300080001F4616460D46202851D1DDB1D6B184
:1029400094F87C0001284BD0012084F87C004FF0E3
:102950000008C4F888802120C4F880001834FEF7ED
:10296000C5FCA6878146E68754F8100C183CB0F5E4
:10297000805F03D004E00120BDE8F883206920B126
:102980002E46002584F87C8010E00026FAE780219E
:10299000204601F00FF9B8B9C6B116F8010B21684D
:1029A0008862B4F85600401EA4F85600B4F85600E9
:1029B0004B464FF0000200970028E8D14FF040014D
:1029C000204601F0F7F830B10320D5E735F8020BC7
:1029D000C0F30800E3E72020C4F880000020CBE724
:1029E0000220C9E77047FEE700B585B014216846AC
:1029F000FDF748FC4FF6FF70009000200321CDE961
:102A00000201019069460248FEF782FB05B000BD55
:102A10000008004800B585B014216846FDF732FC77
:102A20004FF6FF70009001200190032003900020DA
:102A3000029069460248FEF76BFB05B000BD00003E
:102A40000008004870B5002406462146204600F0E4
:102A500003F900F041F94FF49635304600F010F9D3
:102A6000641CAC42F9D370BD30B587B01421684600
:102A7000FDF708FC1E48C16C41F00401C164C16C43
:102A800001F004010591C16C41F00101C164C16C08
:102A900001F001010591C16C41F00201C164C06CFB
:102AA000012500F0020005904FF44870CDE90005C3
:102AB00000240394694602940E48FEF729FB28027D
:102AC00003940090CDE901544FF0904469462046AC
:102AD000FEF71EFBFFF79EFFA06940F48070A06127
:102AE00004481830016841F40871016007B030BD36
:102AF0000010024000040048203AD2B2034B02EB1F
:102B0000420203EB021200F019B80000284B000843
:102B1000F0B50E460746002540F23F1407E0214677
:102B20003846FFF7E9FF103C6D1CA4B2761C3278E2
:102B3000002A01D0142DF2D3F0BD00002DE9F0479A
:102B400091468A460026044600F086F8DFF8408069
:102B5000012700BF00F0C0F85FF0000539F816004B
:102B600007FA05F10842404601D1408800E000889C
:102B700000F086F86D1C102DF0D3641CE4B25146B1
:102B8000204600F069F8761C182EE3D3BDE8F087E4
:102B90004400002010B5FFF767FF002000F014F894
:102BA000084CA080A088A0F50241303906D000F082
:102BB00009FB002000F008F8A08010BD00F079FAB1
:102BC000F7E700004400002070B51D490A6842F490
:102BD00000720A600A6842F480720A60184C103C65
:102BE000226842F020022260164A1060086840F015
:102BF0002000086000BF00BF00BF206840F0200038
:102C00002060206840F480702060FFF7EDFE4FF0F8
:102C10009041886A40F48070886200BF00BF00BFA6
:102C20000848001F006885B2886940F48070886198
:102C3000FFF7F0FE206840F400702060284670BD69
:102C4000280400481408004801B5BDF800000149F7
:102C5000488008BD4400002010B50C4601462020E5
:102C600000F068F82146BDE81040212000F062B86D
:102C700001B5BDF800000149088008BD44000020EE
:102C8000134A116841F400711160114910390B6841
:102C900043F480730B600B6843F020030B600D4B13
:102CA0001860106840F02000106000BF00BF00BF37
:102CB000086840F020000860086840F480700860F0
:102CC00000BF00BF00BF086840F400700860704794
:102CD00028040048140800481449086840F40070AB
:102CE0000860086840F48070086010481038026876
:102CF00042F0200202600E4B22221A600A6842F063
:102D000020020A6000BF00BF00BF016841F020013F
:102D10000160016841F48071016000BF00BF00BF25
:102D2000016841F400710160704700002804004808
:102D300014080048184B10B51A6842F400721A6063
:102D40001A6842F480721A60134A103A146844F008
:102D500020041460114C2060186840F020001860B6
:102D600000BF00BF00BF106840F020001060106876
:102D700040F4807010602160186840F020001860F6
:102D800000BF00BF00BF106840F020001060106856
:102D900040F48070106010BD2804004814080048FA
:102DA00000EB8100006E00F0F84070478068C0F3CF
:102DB000C00070478068C0F380007047042303EAB6
:102DC000D15310B518444369C1F3045107248C4012
:102DD000A3438A401343436110BD00EB8100016EA1
:102DE00021F00041114301667047000030B589B001
:102DF00020216846FDF746FA194818490024016069
:102E00004912C0E90114C46004250461C0E9054504
:102E1000047744770121016280F82440C46204638E
:102E200080F83840C46380F84040FDF771FF08B176
:102E3000FDF758FD0B4800900620CDE901047F20E6
:102E40000594CDE9030569460548FDF74DFD0028C9
:102E500001D0FDF747FD09B030BD00000001005072
:102E6000500000200080F03E2DE9F04F87B0142183
:102E70006846FDF707FA4248C16C41F00401C1649D
:102E8000C16C01F004010591C16C41F02001C164E5
:102E9000C16C01F020010591C16C41F00101C164D8
:102EA000C16C01F001010591C16C41F00201C164E6
:102EB000C16C01F002010591C16C41F00801C164CF
:102EC000C06CDFF8C08000F00800059001224FF4CC
:102ED0007F414046FEF705FA0022FF214046FEF7FB
:102EE00000FA4FF480764FF0904900223146484670
:102EF000FEF7F7F9DFF890A0012204215046FEF713
:102F0000F0F9DFF888B04FF4487700223946584688
:102F1000FEF7E7F94FF6FF70009001250024CDE998
:102F20000154694640460394FEF7F2F8CDE9005497
:102F3000694648460295FEF7EBF807208DE8310018
:102F400069465846FEF7E4F80096CDE90154694613
:102F500048460394FEF7DCF804200090CDE90154C4
:102F6000694650460394FEF7D3F80097CDE9015423
:102F7000694658460394FEF7CBF807B0BDE8F08FDA
:102F80000010024000080048000C004800040048FF
:102F900010B588B00024184800940194029403945A
:102FA0000494059413490694016040F21F31C0E96E
:102FB000011440F2E731C0E9031444618461FEF773
:102FC00090FF08B1FDF78EFC4FF4805000906946E9
:102FD0000948FFF73DF808B1FDF784FC049404A903
:102FE00005480694FEF72EFF002801D0FDF77AFC75
:102FF00008B010BD00400140080100203EB500248B
:103000000F48009401940D49029401604F21C0E9DA
:10301000011440F2E7318461C160FEF762FF08B13C
:10302000FDF760FC0094694605480294FEF70AFF2C
:10303000002801D0FDF756FC3EBD00000014004002
:10304000BC000020184810B5164901604FF4165115
:103050004160002181600C22C160C0E904128161DD
:10306000C161016241628162FFF742FB08B1FDF775
:1030700039FC00210C48FFF730FA08B1FDF732FCAB
:1030800000210948FFF703FA08B1FDF72BFC0648B9
:10309000FFF7DDF9002803D0BDE81040FDF722BCA2
:1030A00010BD00000038014054010020FEE77047C9
:1030B000704730B501210020FFF73CFE4FF47A70D5
:1030C000FDF702FC00210120FFF734FE41F2907170
:1030D0001020FFF72FFE4FF41C516020FFF72AFE4F
:1030E00001216120FFF726FE02214620FFF722FE84
:1030F00048F210011320FFF71DFE48F2FE011220D6
:10310000FFF718FE4FF4A0610220FFF713FE41F213
:1031100030010320FFF70EFE40F203342146302039
:10312000FFF708FE21463120FFF704FE214632203A
:10313000FFF700FEE51E29463320FFF7FBFD0321C4
:103140003420FFF7F7FD21463520FFF7F3FD14216A
:103150003620FFF7EFFD21463720FFF7EBFD214634
:103160003820FFF7E7FD21463920FFF7E3FD294628
:103170003A20FFF7DFFD03213B20FFF7DBFD21466F
:103180003C20FFF7D7FD4FF4A0513D20FFF7D2FDC3
:103190004FF400719220FFF7CDFD21469320FFF7F9
:1031A000C9FD40F60D019020FFF7C4FD41F2180162
:1031B0000320FFF7BFFDBDE8304040F27311072048
:1031C000FFF7B8BD10B543F20801E320FFF7B2FDE9
:1031D0001221E720FFF7AEFD41F23121EF20FFF78A
:1031E000A9FD00210120FFF7A5FD4FF4E0610220B9
:1031F000FFF7A0FD41F230010320FFF79BFD002106
:103200000420FFF797FD40F207210820FFF792FD09
:1032100000210920FFF78EFD00210A20FFF78AFD1B
:1032200000210C20FFF786FD00210D20FFF782FD15
:1032300000210F20FFF77EFD00211020FFF77AFD0F
:1032400007211120FFF776FD00211220FFF772FD04
:1032500000211320FFF76EFDC820FDF747FF41F264
:1032600090611020FFF766FD40F227211120FFF743
:1032700061FD3220FDF73AFF1D211220FFF75AFDB4
:103280003220FDF733FF4FF400611320FFF752FDAA
:1032900014212920FFF74EFD0B212B20FFF74AFDBB
:1032A0003220FDF723FF00212020FFF743FD0021FE
:1032B0002120FFF73FFD07213020FFF73BFD40F2C3
:1032C00007713120FFF736FD06213220FFF732FD6E
:1032D00040F204713520FFF72DFD41F604713620D0
:1032E000FFF728FD04213720FFF724FD00213820B7
:1032F000FFF720FD40F206713920FFF71BFD40F279
:1033000001713C20FFF716FD0F213D20FFF712FD54
:1033100000215020FFF70EFDEF215120FFF70AFD9D
:1033200000215220FFF706FD40F23F115320FFF726
:1033300001FD4FF41C516020FFF7FCFC01216120CE
:10334000FFF7F8FC00216A20FFF7F4FC0021802041
:10335000FFF7F0FC00218120FFF7ECFC0021822028
:10336000FFF7E8FC00218320FFF7E4FC0021842024
:10337000FFF7E0FC00218520FFF7DCFC1021902006
:10338000FFF7D8FC00219220FFF7D4FC0321932003
:10339000FFF7D0FC4FF488719520FFF7CBFC00219C
:1033A0009720FFF7C7FC00219820FFF7C3FC41F2EC
:1033B00018010320FFF7BEFCBDE8104040F2731176
:1033C0000720FFF7B7BC7047FDF796BF10B594B064
:1033D00038216846FCF756FF14210EA8FCF752FF6F
:1033E0004FF40070FEF71AF80120009000040190DD
:1033F00002200324CDE907041421CDE90A100C9022
:103400000D9009946846FEF7FDFA0F20CDE90E04F1
:10341000002010901190129002210EA8FEF7A8F93A
:1034200014B010BD0548016841F470010160034902
:103430004FF00060803908607047000088ED00E0C0
:103440000148FEF782BE0000080100200148FEF797
:103450007CBE0000BC0000202DE9F0430268234B35
:10346000234D244E244C4FF08049984207D04845C4
:1034700005D0A84203D0B04201D0A04203D122F02F
:1034800070074A683A431D4FDFF874C0DFF8748054
:1034900098420DD048450BD0A84209D0B04207D081
:1034A000A04205D0B84203D0604501D0404503D1C9
:1034B00022F44075CA682A434D6922F080022A43EB
:1034C00002608A68C2620A688262984207D0A0429B
:1034D00005D0B84203D0604501D0404501D109690B
:1034E000016301214161BDE8F0830000002C01402F
:1034F000000400400008004000340140004001404A
:10350000004401400048014010B5846842EA0322AB
:1035100024F47F440A432243826010BD8268034B37
:103520001A400A4342F00701816070478FFFCFFFC6
:1035300010B5036A046A24F001040462846924F06B
:10354000F00444EA021423F00A020A43846102628E
:1035500010BD10B5036A23F0100303628369046A87
:1035600023F4704343EA023224F0A00343EA01113A
:103570008261016210BD00003FB514A1D1E90021B4
:10358000CDE9002113A2D2E90012CDE90212416E69
:10359000B9B1026891689268C1F34261520F1DF897
:1035A0000240E50002ACA25CB5FBF2F2A0F86A2092
:1035B0001DF80120615CD200B2FBF1F1A0F86810A7
:1035C0003FBD0121A0F86A10F8E7000001010103E6
:1035D00007010000080402040801010190F8281006
:1035E000C90706D001684A68C36A22F400321A4348
:1035F0004A6090F82810890706D501684A68036B6D
:1036000022F480321A434A6090F82810490706D500
:1036100001684A68436B22F480221A434A6090F89A
:103620002810090706D501684A68836B22F4004216
:103630001A434A6090F82810C90606D501688A68BE
:10364000C36B22F480521A438A6090F828108906CE
:1036500006D501688A68036C22F400521A438A6016
:1036600090F82810490611D501684A68436C22F485
:1036700080121A434A60416CB1F5801F06D101687F
:103680004A68836C22F4C0021A434A6090F82810FA
:10369000090606D501684A68C06C22F4002202437C
:1036A0004A607047F8B500260446C0F88860FDF708
:1036B0001DFE0546206800686FF07E47000708D5AC
:1036C0002B4600224FF400112046009700F072FABA
:1036D00060B92068006840070AD52B4600224FF4E5
:1036E00080012046009700F065FA08B10320F8BD7C
:1036F0002020C4F88000C4F8840084F87C60002096
:10370000F8BD10B5806A0021A0F85E10A0F8561030
:10371000FEF70BFF10BD000001680A6822F49072EA
:103720000A6001688A68044B1A408A602021C0F848
:1037300084100021C1667047FEFFFFEF10B5B0F89E
:103740006020D0F884300168222B04D0886940F0D2
:103750000800886110BD496A836D11401980816D30
:10376000891C8165B0F85E10491EA0F85E10B0F8A3
:103770005E100029EED101680A6822F490720A6096
:1037800001688A6822F001028A602021C0F8841052
:103790000021C166FFF7A6F810BD000070B5044611
:1037A000B0F86060D0F88400222805D020688169D4
:1037B00041F00801816170BDB4F8685023E02068D1
:1037C000406AA16D30400880A06D801CA065B4F8EF
:1037D0005E00401EA4F85E00B4F85E0088B9206860
:1037E000016821F48071016020688168114A1140EC
:1037F00081602020C4F884000020E0662046FFF7A6
:1038000071F86D1EADB2002DD9D1B4F85E0000285C
:10381000D1D0B4F868108142CDD92068816821F0F8
:10382000805181600448E0662068016841F0200111
:10383000016070BDFEFFFFEF3D37000810B5B0F826
:103840006020D0F884300168222B04D0886940F0D1
:103850000800886110BD496A1140826D1170816D48
:10386000491C8165B0F85E10491EA0F85E10B0F8E2
:103870005E100029EED101680A6822F490720A6095
:1038800001688A6822F001028A602021C0F8841051
:103890000021C166FFF726F810BD000070B5044690
:1038A000B0F86060D0F88400222805D020688169D3
:1038B00041F00801816170BDB4F8685023E02068D0
:1038C000406AA16D30400870A06D401CA065B4F83E
:1038D0005E00401EA4F85E00B4F85E0088B920685F
:1038E000016821F48071016020688168114A1140EB
:1038F00081602020C4F884000020E0662046FEF7A6
:10390000F1FF6D1EADB2002DD9D1B4F85E000028D4
:10391000D1D0B4F868108142CDD92068816821F0F7
:10392000805181600448E0662068016841F0200110
:10393000016070BDFEFFFFEF3D3800082DE9F0414A
:103940000446026880682169E369084361690025CB
:1039500019430843616EDFF830C2014310688B4B96
:1039600018400843106020684168E26821F4405123
:10397000114341602168A069614501D0226A10436A
:103980008A68834B1A4002438A602068C16A626A6F
:1039900021F00F011143C1627E4923687E488B42AA
:1039A0000DD1D0F8880010F0030006D0012855D0C2
:1039B000022842D003283FD152E001203DE0774960
:1039C0008B420BD1D0F8880010F00C0035D00428C1
:1039D00033D0082840D00C282ED141E070498B42CA
:1039E0000BD1D0F8880010F0300026D0102835D048
:1039F000202831D030281FD132E06A498B420BD1C8
:103A0000D0F8880010F0C00017D0402826D08028B9
:103A100022D0C02810D123E063450DD1D0F8880012
:103A200010F4406009D0B0F5806F17D0B0F5006F8A
:103A300012D0B0F5406F13D010205B495B4F0026C9
:103A40004FF40042634539D160B1022813D00428F5
:103A50000BD0082831D10DE00220EEE70420ECE77E
:103A60000820EAE7FDF772FF01E0FDF793FF010090
:103A700001D17EE01146606A37F810206768B1FB1B
:103A8000F2F007EB470383426FD8B0EB073F6CD8E7
:103A9000002308461946FCF7BDFB090241EA106104
:103AA00002027808101871413A460023FCF7B2FB75
:103AB0003F4AA0F54071914259D956E0E3694FF66B
:103AC000EF7893422DD109284FD2DFE800F00508A6
:103AD000114E0D4E4E4E1000FDF738FF01E0FDF780
:103AE00047FF010004D144E0FDF754FFF9E7114618
:103AF000606A37F81000B1FBF0F04100606801EB3C
:103B00005001B1FBF0F080B2A0F1100141452CD87A
:103B10004FF6F0710140C0F3420001432068C160DC
:103B200027E0092821D2DFE800F0050811200D2048
:103B300020201000FDF70AFF01E0FDF719FF01004A
:103B400004D116E0FDF726FFF9E71146606A37F861
:103B50001000B1FBF0F1606801EB5001B1FBF0F037
:103B600080B2A0F11001414501D9012501E0216891
:103B7000C8600120A4F86A0024F8680F284666602F
:103B8000A660BDE8F081000000800040F369FFCF2F
:103B9000FFF4FF11003801400010024000440040D3
:103BA00000480040004C00400024F400F84A00089F
:103BB000FFFC0F002DE9F0479A4617460E460446D3
:103BC0004FF000094FF02008089D39E0681C37D0FD
:103BD000FDF78CFBA0EB0A00A84222D80DB32068A9
:103BE000016849072CD5C069C043000528D4216865
:103BF0004FF4006008622068016821F4D071016010
:103C00002068816821F001018160C4F88080C4F8D7
:103C10008480C4F8888000BF84F87C900320BDE8CD
:103C2000F0872068016821F4D07101602068816804
:103C300021F001018160C4F88080C4F88480EBE742
:103C40002068C06936EA000004D00020B842BDD028
:103C50000020E4E70120F9E70148FEF767BC000017
:103C600054010020FEE700000FB4054B10B503A976
:103C7000044A029800F0FEF810BC5DF814FB000046
:103C8000D54500084C0000200FB4084B10B504A91E
:103C900002AA039800F0EEF8044602A9002000F002
:103CA0006CFC204610BC5DF814FB00007B4500084E
:103CB0000907090E002804DB00F1E02080F8001459
:103CC000704700F00F0000F1E02080F8141D7047ED
:103CD00002E008C8121F08C1002AFAD170477047D5
:103CE000002001E001C1121F002AFBD17047000033
:103CF0002DE9FF5F82B00021DDE90430020DDDF81F
:103D000040B0034318D044F61050A2F2FF324243B1
:103D10001514119801281FD0A5EB0B00401C5FEA79
:103D2000000A4FF000064E4FDFF83891B04650467B
:103D300015D5CAF1000413E0119801244AA3012803
:103D400001D16FEA0B010298119AC0E90031C0E974
:103D5000024206B0BDE8F09FCBF10000DFE7044669
:103D60000021404A491842EB0450CDE9001012E00E
:103D7000E00707D032463B4640464946FCF78DFAFD
:103D80008046894632463B4610461946FCF785FA7E
:103D900006460F466410002CEAD1DDE90401DDE996
:103DA0000023BAF1000F06DAFCF777FA42464B46D9
:103DB000FCF773FA05E0FCF78EFC42464B46FCF735
:103DC0008AFC04460E460022284BFCF70BFD03D864
:103DD0004FF0FF30014607E00022254B20463146D8
:103DE000FCF7D2FBFCF7E6FC102409E0002C0ADB10
:103DF0000A220023FCF70EFA039B30321A55641E88
:103E000050EA0102F2D1641C039AC4F11103144474
:103E1000119A012A03D0012208430DD10AE0084378
:103E200004D000204FF0110B119072E7A3EB0B05AB
:103E30006D1E0DE05B4504DD4FF0000205F101054C
:103E400004E003DA4FF00002A5F10105002AECD0EE
:103E500002981199C0E90231C0E9004579E70000F4
:103E6000000014400000F03F300000000000F0436C
:103E70000000E03F2DE9FF4F95B09A468846064680
:103E80000025EEE1252877D100242746F94A0121B3
:103E9000039400E0044316F8013F203B01FA03F0CD
:103EA0001042F7D130782A2811D06FF02F033078E4
:103EB000A0F13002092A16D8039A44F0020402EB5A
:103EC000820203EB42021044761C0390EFE758F89D
:103ED000042B0392002A03DA504244F40054039066
:103EE00044F00204761C30782E2816D116F8010F03
:103EF00044F004042A280DD06FF02F023078A0F18E
:103F00003003092B09D807EB870302EB4303C718DB
:103F1000761CF3E758F8047B761C30786C280FD0B9
:103F200006DC4C2817D068280DD06A2814D104E08C
:103F3000742810D07A280FD10DE044F400140AE060
:103F400044F4801401E044F440147278824202D1B7
:103F500004F58014761C761C307866280BD013DCB0
:103F6000582877D009DC002875D04528F6D0462897
:103F7000F4D047281AD193E118E0632835D064289B
:103F800079D0652812D18BE1702873D008DC6728BE
:103F9000F1D069286FD06E280DD06F2806D1ACE023
:103FA00073282CD0752874D0782853D0524617998E
:103FB00090476D1C54E1C4F30250022809D0032835
:103FC0000DD0D8F8001004280DD00D6008F10408B9
:103FD00046E1D8F80010EA17C1E90052F6E7D8F830
:103FE00000100D80F2E70D70F0E718F8041B8DF853
:103FF000001000208DF80100EB46012003E058F886
:1040000004BB4FF0FF3061074FF0000102D40DE018
:1040100009F101018946B9420FDA8145F8DB1BF845
:1040200009100029F4D108E009F101018946814213
:10403000FADB1BF809100029F6D103985346A0EBD0
:10404000090721463846179A00F080FA284400EB09
:10405000090507E044E008E10DE01BF8010B5246BA
:1040600017999047B9F10109F7D2534621463846CE
:10407000179AF2E039E00A21C4F302524FF0000B24
:104080000091022A06D058F8040BC117032A09D060
:104090000AE023E008F1070020F00702F2E802013D
:1040A000904605E000B2C117042A01D140B2C11701
:1040B000002906DA0A460021404261EB02012D2266
:1040C00002E0220504D52B228DF80420012203E012
:1040D000E20701D02022F7E7914657E00A2100E0ED
:1040E00010214FF0000B00910BE010214FF0000B5E
:1040F00044F004040827009103E008204FF0000B6F
:104100000090C4F30252022A05D058F8040B002193
:10411000032A08D008E008F1070020F00702F2E8BF
:104120000201904603E080B2042A00D1C0B24FF0F1
:10413000000922072AD53278702A07D0DDF800C09E
:104140008CF0100C5CEA0B0C05D00EE040228DF8D0
:104150000420012208E050EA010306D030238DF844
:1041600004308DF8052002229146009B83F008035D
:1041700053EA0B030AD150EA010201D1620705D5C7
:1041800030228DF804204FF001097F1E3278582A22
:1041900004D039A20C920CAA02920BE03BA2F9E7E0
:1041A0005B46009AFCF736F80C9B9B5C029A521E09
:1041B0000292137050EA0102F2D1029804A9081A7F
:1041C00000F1200B600702D524F4803400E00127C1
:1041D0005F4502DDA7EB0B0000E0002000EB0B01C8
:1041E000009003984944401A0390E00306D45346D4
:1041F0002146179A039800F0A9F90544002706E024
:1042000001A85246C05D179990476D1C7F1C4F4511
:10421000F6DBE0030CD553462146179A039800F0CD
:1042200095F9054404E030205246179990476D1CDB
:104230000099481E00900029F5DC08E002980299D8
:1042400052460078491C0291179990476D1CBBF1AA
:104250000001ABF1010BF1DC5BE100F065F9054415
:10426000761C307800287FF40DAE19B02846BDE8E2
:10427000F08F0000092801003031323334353637F1
:1042800038396162636465660000000030313233A2
:104290003435363738394142434445460000000042
:1042A000600700D4062708F1070020F00700F0E8B7
:1042B0000223804603F0004C5FEA0C0001D097A077
:1042C00009E0200501D596A005E0E00701D095A002
:1042D00001E0AFF24C001390307823F000436528E2
:1042E0000CD006DC452809D046281DD047287FD1B0
:1042F0003BE0662818D067287AD136E00021112FDC
:1043000001DB112000E0781CCDE9000104A90CA814
:10431000FFF7EEFCDDE90D010C9A4FF0000B07F101
:104320000109109200914EE04FF000400097CDE956
:10433000011004A90CA8FFF7DBFCDDE90D020C9BC2
:104340000F994FF0000B91461093009211B9791C10
:1043500000EB0109B7EB090003D4C0F1FF3B07F103
:104360000109A9EB0700019042E0012F00DA0127C3
:104370000021112F01DD112000E03846CDE90001B8
:1043800004A90CA8FFF7B4FCDDE90D010C9A00911B
:104390004FF0000BB946109221070FD4009A4A45FE
:1043A00003DA914601E0A9F10109B9F1010F05DD38
:1043B000109AA9F10101515C3029F4D0B84202DA17
:1043C00010F1040F03DA0121CDE9011010E00028FB
:1043D00003DC8344A9EB000102E0411C494500DDF8
:1043E0008946A0EB0B00401C01904FF0004002906A
:1043F000200705D40198484502DB4FF0FF300190BB
:1044000000208DF84B0002980DF14B07B0F1004FE2
:1044100025D002200C902B200D90029800280CDA59
:10442000404202902D200D9007E00A210298FBF7F0
:10443000E2FF3031029007F8011D0C99481E0C90E4
:104440000029F2DC02980028EFD1791E0D9808703F
:10445000307800F0200040F0450007F8020D11A868
:10446000C01BC01D02901398007800B1012000EB22
:104470000901019801EBE071029801440398401A88
:10448000401E0390E00306D453462146179A039832
:1044900000F05CF805441398007818B1524617995B
:1044A00090476D1CE00323D553462146179A039885
:1044B00000F04CF805441BE0BBF1000F07DB00984F
:1044C000584504DD1098179910F80B0001E0179972
:1044D00030205246904701980BF1010B401E05F128
:1044E0000105019004D12E205246179990476D1C6A
:1044F000B9F10001A9F10109DEDC05E017F8010BB3
:104500005246179990476D1C0299481E0290002947
:10451000F4DC53462146179A03989EE62D000000CE
:104520002B000000200000002DE9F041044600258A
:104530001E461746880404D405E039462020B047BB
:104540006D1C641EF9D52846BDE8F0812DE9F041C7
:10455000044600251E469046C80301D5302700E0DA
:104560002027880404D505E041463846B0476D1C35
:10457000641EF9D52846BDE8F0810A68531C0B601B
:104580001070704710B50D48FCF7FAFC0B48FCF7AB
:10459000BBFB0B4C80B2A081FBF7F1FE9FED091B2A
:1045A00053EC112BFBF779FE9FED081B53EC112BFD
:1045B000FBF773FEFBF703FFA06110BD5000002066
:1045C000100000206666666666660A40000000000D
:1045D0000000303F13B5FF23012269460248FEF771
:1045E000A3F900981CBD0000540100202DE9F05FE4
:1045F000474C01212046FCF76FFE464E02213070E9
:104600002046FCF769FE707004212046FCF764FE2A
:10461000B07001214FF09040FCF75EFE3E4FF0700D
:10462000002406F104084FF47A7A4FF0020B4FF0A1
:10463000010906F10805305D002818F8040001D0D2
:1046400030B111E080B1FCF751FE47F824000BE0D7
:10465000FCF74CFE57F82410401A504502D305F8D9
:1046600004B001E005F80490641C042CE3DB294C41
:1046700028780027203C50B1012807D12078012854
:1046800004D12770677025A0FFF7EEFA2F706878C5
:1046900000B16F70A878A8B1012812D1207810B9A4
:1046A0006178022903D06178084305D009E0E781E9
:1046B0002771677019A002E084F800901AA0FFF734
:1046C000D3FAAF70E878A8B1012812D1207810B9D8
:1046D0006178012903D06178084305D009E0E781BA
:1046E000277167700DA002E084F800900EA0FFF71C
:1046F000BBFAEF70317888F80010717888F80110F3
:10470000B17888F80210F17888F80310BDE8F09FBE
:104710000004004830000020E0010020537563636E
:104720006573730D0A0000005761726E0D0A000078
:1047300010B51FA12448FFF7A7FA234823A128306A
:10474000FFF7A2FA20481AA15030FFF79DFA25483A
:10475000A0F112046178425C1B4823A17830FFF776
:1047600093FAE069FBF718FE41EC100B164853EC86
:10477000102B23A1A030FFF787FA13480CA1C830F3
:10478000FFF782FA10480AA1F030FFF77DFA08A17E
:104790002148FFF779FA204805A12830FFF774FA7D
:1047A0001D48BDE8104002A15030FFF76DBA00006F
:1047B00020202020202020202020202020202020F9
:1047C0002020202000000000F001002020202020D8
:1047D000202020204441544120202020202020203F
:1047E0000000000022000020202020202020204E59
:1047F0003A256320202020202020202020000000B7
:1048000020202020202020443A252E316620202000
:1048100020202020202020000803002010B519A10E
:104820001E48FFF731FA1D4816A12830FFF72CFA71
:104830001A4814A15030FFF727FA184811A1783010
:10484000FFF722FA154816A1A030FFF71DFA13480A
:104850000CA1C830FFF718FA10480AA1F030FFF792
:1048600013FA08A11448FFF70FFA134805A12830DE
:10487000FFF70AFA1048BDE8104002A15030FFF7D8
:1048800003BA0000202020202020202020202020EB
:10489000202020202020202000000000F001002007
:1048A00020202020202020205741524E2020202050
:1048B00020202020000000000803002070B50D48D3
:1048C000007810B1012803D004E0FFF731FF01E0C8
:1048D000FFF7A4FF084D002404EB840005EBC001A2
:1048E00004EB4400C006000EFEF712F9641C0A2C0B
:1048F000F2DB70BD10000020F00100202DE9F04730
:10490000134C054688462068124F86B2788920608D
:10491000DFF84490012204214846FCF7E2FC4FF402
:1049200080716D1EA9400A4889B21438B8F1000F91
:1049300001D0002200E00122FCF7D3FC206878813E
:10494000002204214846FCF7CCFC2660BDE8F08735
:104950001408004810000020000C0048FCF7D4FCAC
:10496000FEF734FDFEF780FAFEF740FAFEF746FB4D
:10497000FEF70EFBFEF766FB002204211D48FCF744
:10498000B0FC00210120FFF7B9FF00210220FFF752
:10499000B5FF00210320FFF7B1FF00210420FFF73E
:1049A000ADFF00210520FFF7A9FF00210620FFF73A
:1049B000A5FF00210720FFF7A1FF00210820FFF736
:1049C0009DFFFEF7E7F80020FEF73CF80020FEF719
:1049D0003BF94FF6FF70FEF74BF90748FDF7E4FA95
:1049E000012206490648FDF7FFFE00BF00F066F809
:1049F000FCE70000000C0048BC0000201200002072
:104A00005401002070B5184C01202179012909D1E9
:104A100061794C2902D0522903D003E00221617050
:104A200000E06070E179002531B1E571E581257123
:104A300020700EA0FFF718F9207868B101280AD17C
:104A4000A079012802D02079012804D109A0FFF71C
:104A50000BF9A571257170BDA0790028FBD007A0C6
:104A6000FFF702F9A57170BD100000205761726E4A
:104A70000D0A0000574149540D0A00004552524F9B
:104A8000520D0A0010B5FFF77DFD08499FED080A99
:104A9000084AD1ED060A20EE800A10EE100A904274
:104AA00001DD9FED050A81ED070A10BD1000002011
:104AB0000000C842000096430000964310B5FFF77F
:104AC000E1FFFFF79FFFFFF7F9FE0A480178012990
:104AD0004FF0000108D101820120FFF70FFF0021F4
:104AE0000220FFF70BFF0121BDE810400820FFF76F
:104AF00005BF0000100000200100020004000600B5
:104B000008000A000C001000200040008000000196
:104B1000000000000000000001020304060708096D
:104B2000000000000102030400000000000000007B
:104B30000000000000000000000000000000000075
:104B40000000000000000000000000000000000065
:104B500000000000000000000000800180018001D2
:104B6000800180018001800180018001800180013D
:104B70008001800100000000800180010000000031
:104B8000000000000000000000000000CC00CC008D
:104B9000CC00CC00CC00CC000000000000000000E5
:104BA0000000000000000000000000000000000005
:104BB00000000000000000000000000000000000F5
:104BC00000000000600C600C600C30063006FE1F18
:104BD000FE1F300638071803FE1FFE1F18031803B8
:104BE0008C018C018C01000000008000E003F80FB4
:104BF0009C0E8C1C8C188C009800F801E007800E2D
:104C0000801C8C188C189C18B80CF00FE0038000E6
:104C100080000000000000000000000000000E18EE
:104C20001B0C110C11061106110311039B018E01BF
:104C3000C038C06C60446044304430441844186C40
:104C40000C380000000000000000E001F00338070D
:104C5000180618063003F001F000F8009C310E33FE
:104C6000061E061C061C063FFC73F0210000000017
:104C70000000000000000000000000000C000C001C
:104C80000C000C000C000C000000000000000000F4
:104C90000000000000000000000000000000000014
:104CA000000000000000000000000002000380017E
:104CB000C000C000600060003000300030003000F4
:104CC000300030003000300060006000C000C000E4
:104CD0008001000300020000000020006000C0000E
:104CE00080018001000300030006000600060006A4
:104CF0000006000600060006000300038001800194
:104D0000C000600020000000000000000000000063
:104D100000000000C000C000D806F807E001300322
:104D20003807000000000000000000000000000044
:104D30000000000000000000000000000000000073
:104D40000000000080018001800180018001FC3FA3
:104D5000FC3F800180018001800180010000000093
:104D60000000000000000000000000000000000043
:104D70000000000000000000000000000000000033
:104D80000000000000000000000080018001000120
:104D90000001800000000000000000000000000092
:104DA0000000000000000000000000000000000003
:104DB000E007E00700000000000000000000000025
:104DC00000000000000000000000000000000000E3
:104DD00000000000000000000000000000000000D3
:104DE00000000000000000000000C000C000000043
:104DF00000000000000000000000000C000C000695
:104E00000006000600030003000380038001800108
:104E10008001C000C000C000600060000000000011
:104E200000000000000000000000E003F007380E62
:104E3000180C0C180C180C180C180C180C180C1852
:104E40000C180C18180C380EF007E00300000000D6
:104E50000000000000000000000000018001C0010F
:104E6000F0019801880180018001800180018001AA
:104E7000800180018001800180018001000000002C
:104E800000000000000000000000E003F80F180C14
:104E90000C180C1800180018000C00060003800104
:104EA000C000600030001800FC1FFC1F0000000064
:104EB00000000000000000000000E001F807180EEC
:104EC0000C0C0C0C000C0006C003C007000C0018F2
:104ED00000180C180C18180CF807E003000000006C
:104EE00000000000000000000000000C000E000F99
:104EF000000F800DC00C600C600C300C180C0C0CFA
:104F0000FC3FFC3F000C000C000C000C00000000FB
:104F100000000000000000000000F80FF80F18006B
:104F200018000C00EC03FC071C0E001C00180018F5
:104F300000180C181C0C180EF807E0030000000005
:104F400000000000000000000000C007F00F381C47
:104F5000181818000C00CC03EC0F3C0E1C1C0C188D
:104F60000C180C18181C380EF007E00300000000A5
:104F700000000000000000000000FC1FFC1F000CEF
:104F800000060006000380038001C001C000E000AD
:104F90006000600070003000300030000000000051
:104FA00000000000000000000000E003F007380EE1
:104FB000180C180C180C3806F007F007180C0C1811
:104FC0000C180C180C18380CF80FE0030000000047
:104FD00000000000000000000000E003F007380EB1
:104FE0001C0C0C180C180C181C1C381EF81BE01993
:104FF0000018000C000C1C0EF807F0010000000067
:1050000000000000000000000000000000000000A0
:10501000000000008001800100000000000000008E
:10502000000000000000000080018001000000007E
:105030000000000000000000000000000000000070
:10504000000000008001800100000000000000005E
:10505000000000000000000080018001000100014C
:1050600080000000000000000000000000000000C0
:1050700000000000000000000010001C800FE00392
:10508000F8001800F800E003800F001C001000007A
:105090000000000000000000000000000000000010
:1050A0000000000000000000F81F000000000000E9
:1050B000F81F0000000000000000000000000000D9
:1050C00000000000000000000000000000000000E0
:1050D000000000000000000008003800F001C007D8
:1050E000001F0018001FC007F00138000800000072
:1050F00000000000000000000000E003F80F180CA2
:105100000C180C180018000C000600038001C000E9
:10511000C000C00000000000C000C000000000008F
:10512000000000000000000000000000E007181868
:105130000420C229224A114409440944094409228D
:105140001113E20C024004201818E00700000000D0
:105150000000000000000000000080038003C00683
:10516000C006C006600C600C301830183018F83FCC
:10517000F83F1C700C600C6006C006C00000000008
:1051800000000000000000000000FC03FC0F0C0CFD
:105190000C180C180C180C0CFC07FC0F0C180C301D
:1051A0000C300C300C300C18FC1FFC070000000009
:1051B00000000000000000000000C007F01F3838A9
:1051C0001C300C7006600600060006000600060093
:1051D000060006600C701C30F01FE00700000000A5
:1051E00000000000000000000000FE03FE0F060E9D
:1051F000061806180630063006300630063006302F
:10520000063006180618060EFE0FFE03000000000A
:1052100000000000000000000000FC3FFC3F0C000C
:105220000C000C000C000C00FC1FFC1F0C000C0000
:105230000C000C000C000C00FC3FFC3F00000000C8
:1052400000000000000000000000F83FF83F1800D8
:105250001800180018001800F81FF81F1800180090
:1052600018001800180018001800180000000000AE
:1052700000000000000000000000E00FF83F3C7854
:105280000E6006E007C00300030003FE03FE03C038
:1052900007C006C00EC03CF0F83FE00F0000000061
:1052A000000000000000000000000C300C300C304A
:1052B0000C300C300C300C30FC3FFC3F0C300C3010
:1052C0000C300C300C300C300C300C300000000076
:1052D000000000000000000000008001800180014B
:1052E00080018001800180018001800180018001B6
:1052F00080018001800180018001800100000000A8
:10530000000000000000000000000006000600068B
:10531000000600060006000600060006000600065D
:105320000006180618063807F003E0010000000028
:105330000000000000000000000006300618060C07
:10534000060606038601C60066007600DE008E01B2
:1053500006030606060C061806300660000000006C
:1053600000000000000000000000180018001800F5
:10537000180018001800180018001800180018006D
:105380001800180018001800F81FF81F000000008F
:10539000000000000000000000000EE01EF01EF003
:1053A0001EF036D836D836D836D866CC66CC66CC21
:1053B000C6C6C6C6C6C6C6C686C386C3000000002B
:1053C000000000000000000000000C301C303C30E9
:1053D0003C306C306C30CC30CC308C310C330C33F6
:1053E0000C360C360C3C0C3C0C380C300000000029
:1053F00000000000000000000000E007F81F1C385B
:105400000E70066003C003C003C003C003C003C026
:1054100003C006600E701C38F81FE0070000000093
:1054200000000000000000000000FC0FFC1F0C3812
:105430000C300C300C300C300C18FC1FFC070C002E
:105440000C000C000C000C000C000C000000000014
:1054500000000000000000000000E007F81F1C38FA
:105460000E70066003E003C003C003C003C003C0A6
:1054700007E006630E3F1C3CF83FE0F700C0000069
:1054800000000000000000000000FE0FFE1F0638B4
:105490000630063006300638FE1FFE0706030606F5
:1054A000060C0618061806300630066000000000DC
:1054B00000000000000000000000E003F80F1C0CDA
:1054C0000C180C180C001C00F803E00F001E00382C
:1054D000063006300E301C1CF80FE00700000000FC
:1054E00000000000000000000000FE7FFE7F800141
:1054F00080018001800180018001800180018001A4
:105500008001800180018001800180010000000095
:10551000000000000000000000000C300C300C30D7
:105520000C300C300C300C300C300C300C300C309B
:105530000C300C300C301818F81FE0070000000089
:10554000000000000000000000000360063006308C
:1055500006300C180C180C18180C180C380E3006E5
:105560003006700760036003C001C0010000000046
:10557000000000000000000000000360C361C36180
:10558000C3616633663366336633663366336C1BDA
:105590006C1B6C1B2C1A3C1E380E380E00000000D1
:1055A000000000000000000000000FE00C70183048
:1055B0003018700C600EC00780038003C003E00643
:1055C000700C301C18180C300E6007E00000000052
:1055D0000000000000000000000003C006600C3066
:1055E0001C383818300C6006E007C00380018001C9
:1055F00080018001800180018001800100000000A5
:1056000000000000000000000000FC7FFC7F006044
:1056100000300018000C000600038001C00060008C
:10562000300018000C000600FE7FFE7F0000000026
:1056300000000000000000000000E003E003600044
:10564000600060006000600060006000600060005A
:10565000600060006000600060006000600060004A
:105660006000E003E0030000000030003000600054
:1056700060006000C000C000C000C0018001800167
:105680008001000300030003000600060000000084
:1056900000000000000000000000E003E003000341
:1056A00000030003000300030003000300030003E2
:1056B00000030003000300030003000300030003D2
:1056C0000003E003E003000000000000C001C0018F
:1056D00060036003600330063006180C180C0000ED
:1056E00000000000000000000000000000000000BA
:1056F00000000000000000000000000000000000AA
:105700000000000000000000000000000000000099
:1057100000000000000000000000FFFFFFFF00008D
:10572000000000000000000000000C000C000C0055
:105730000C000C000C000000000000000000000045
:105740000000000000000000000000000000000059
:105750000000000000000000000000000000000049
:1057600000000000F003F8071C0C0C0C000FF00FF9
:10577000F80C0C0C0C0C1C0FF80FF01800000000BB
:1057800000000000000000000000180018001800D1
:1057900018001800D803F80F380C18181818181823
:1057A000181818181818380CF80FD8030000000043
:1057B00000000000000000000000000000000000E9
:1057C00000000000C003F007300E180C180018008D
:1057D00018001800180C300EF007C003000000007D
:1057E0000000000000000000000000180018001871
:1057F00000180018C01BF01F301C181818181818B3
:10580000181818181818301CF01FC01B00000000D2
:105810000000000000000000000000000000000088
:1058200000000000C003F00F300C1818F81FF81F1C
:10583000180018003818301CF00FC00700000000D6
:1058400000000000000000000000800FC00FC0003A
:10585000C000C000F007F007C000C000C000C000DA
:10586000C000C000C000C000C000C00000000000B8
:105870000000000000000000000000000000000028
:1058800000000000E00DF80F180E0C0C0C0C0C0CB6
:105890000C0C0C0C0C0C180EF80FE00D000C0C0C82
:1058A0001C06F807F001000000001800180018009E
:1058B00018001800D807F80F381C181818181818EE
:1058C00018181818181818181818181800000000B8
:1058D00000000000000000000000C000C000000048
:1058E00000000000C000C000C000C000C000C00038
:1058F000C000C000C000C000C000C0000000000028
:1059000000000000000000000000C000C000000017
:1059100000000000C000C000C000C000C000C00007
:10592000C000C000C000C000C000C000C000C00077
:10593000C000F8007800000000000C000C000C0013
:105940000C000C000C0C0C060C038C01CC006C0041
:10595000FC009C018C030C030C060C0C00000000E6
:1059600000000000000000000000C000C000C000F7
:10597000C000C000C000C000C000C000C000C00027
:10598000C000C000C000C000C000C0000000000097
:105990000000000000000000000000000000000007
:1059A000000000007C3CFF7EC7E383C183C183C14C
:1059B00083C183C183C183C183C183C1000000004F
:1059C00000000000000000000000000000000000D7
:1059D000000000009807F80F381C1818181818183D
:1059E0001818181818181818181818180000000097
:1059F00000000000000000000000000000000000A7
:105A000000000000C003F00F300C18181818181808
:105A1000181818181818300CF00FC00300000000F8
:105A20000000000000000000000000000000000076
:105A300000000000D803F80F380C181818181818B0
:105A4000181818181818380CF80FD8031800180070
:105A500018001800180000000000000000000000FE
:105A600000000000C01BF01F301C18181818181870
:105A7000181818181818301CF01FC01B0018001830
:105A800000180018001800000000000000000000CE
:105A900000000000B007F00370003000300030005C
:105AA00030003000300030003000300000000000D6
:105AB00000000000000000000000000000000000E6
:105AC00000000000E003F003380E180C3800F0036B
:105AD000C007000C180C380EF007E00300000000AF
