:020000040800F2
:10000000E808002079020008F7220008E31D000834
:10001000F52200088D030008612700080000000099
:100020000000000000000000000000000F26000893
:100030008F03000800000000F922000811260008C4
:10004000930200089302000893020008930200083C
:10005000930200089302000893020008930200082C
:10006000930200089302000893020008930200081C
:10007000930200089302000893020008930200080C
:1000800093020008000000008103000893020008AA
:1000900093020008930200089302000893020008EC
:1000A00093020008930200089302000893020008DC
:1000B00093020008930200089302000893020008CC
:1000C00093020008930200089302000893020008BC
:1000D00093020008930200089302000893020008AC
:1000E000930200089302000893020008930200089C
:1000F0009302000893020008930200080000000029
:1001000000000000930200080000000093020008B5
:1001100093020008000000009302000899260008DE
:10012000930200089302000893020008930200085B
:100130009302000800000000000000009302000885
:100140009302000893020008000000000000000075
:10015000000000000000000000000000000000009F
:1001600000000000000000000000000093020008F2
:1001700093020008000000000000000000000000E2
:1001800000000000930200080000000000000000D2
:10019000000000000000000000000000000000005F
:1001A0000000000000000000930200089302000815
:1001B0009302000893020008930200080000000068
:1001C0000000000093020008000000000000000092
:1001D000930200089302000800F002F800F03CF8D7
:1001E0000AA090E8000C82448344AAF10107DA4592
:1001F00001D100F031F8AFF2090EBAE80F0013F0A8
:10020000010F18BFFB1A43F0010318471028000024
:1002100030280000103A24BF78C878C1FAD85207B5
:1002200024BF30C830C144BF04680C607047000070
:100230000023002400250026103A28BF78C1FBD8EF
:10024000520728BF30C148BF0B6070471FB502F08E
:10025000D7FB1FBD10B510BD00F058F81146FFF7D1
:10026000F5FF02F085FB00F076F803B4FFF7F2FF2C
:1002700003BC00F07DF800000948804709480047AA
:10028000FEE7FEE7FEE7FEE7FEE7FEE7FEE7FEE746
:10029000FEE7FEE704480549054A064B70470000A3
:1002A0007D260008D9010008E8020020E8080020A7
:1002B000E8040020E80400204FF0000200B51346D7
:1002C00094469646203922BFA0E80C50A0E80C5076
:1002D000B1F12001BFF4F7AF090728BFA0E80C5027
:1002E00048BF0CC05DF804EB890028BF40F8042B20
:1002F00008BF704748BF20F8022B11F0804F18BF8D
:1003000000F8012B7047704770477047754600F042
:100310002BF8AE4605006946534620F00700854697
:1003200018B020B5FFF7B6FFBDE820404FF000063B
:100330004FF000074FF000084FF0000B21F00701CD
:10034000AC46ACE8C009ACE8C009ACE8C009ACE810
:10035000C0098D46704710B50446AFF300802046B3
:10036000BDE81040FFF781BF0048704788020020B9
:1003700001491820ABBEFEE72600020070470000CE
:10038000014800F02FBA000030000020FEE770475F
:10039000002240F6B83306E00021491C89B2994298
:1003A000FBD3521C92B28242F6D3704772B6FEE77C
:1003B0007047704770477047704700002DE9F84F4D
:1003C00000270446009790F85800DFF8E0930D46A8
:1003D000B846012811D0012684F85860206801F041
:1003E00099FE60B1E06D40F02000E0655FF001072C
:1003F00084F858803846BDE8F88F0220FBE7D5E93D
:1004000000210C23206803EA91131844036B01F0C8
:100410001F014FF01F0C0CFA01FCC2F3846223EAA7
:100420000C038A4013430363206801F073FE824685
:10043000206801F06BFE5AEA00003CD1AA682968E6
:100440002068B2F1004F37D001F070FE206841699A
:1004500021F00041416120686969C268C2F3C102AC
:10046000520091402A69042A31D000EB82002B68A7
:10047000026EDFF83CC303F0F84302EA0C020B43C0
:100480001A4342F00041016620682A69A96900EB1D
:100490008200026E22F080720A430266297F22687F
:1004A0002869012910D0002102EB8000026E22F0A1
:1004B00000720A4302667DE0002201F037FE2068E8
:1004C000416941F00041C5E74FF00071ECE70021C0
:1004D00001F016FE400320684FF0000172D001F0D9
:1004E0000FFE90FAA0F0B0FA80F1286842036ED0B7
:1004F00090FAA0F0B0FA80F0814204D100221146B7
:10050000206801F022FE0121206801F0F9FD40037E
:1005100020684FF001015DD001F0F2FD90FAA0F0EB
:10052000B0FA80F12868420359D090FAA0F0B0FAEE
:1005300080F0814204D100220121206801F005FEF3
:100540000221206801F0DCFD400320684FF0020129
:1005500048D001F0D5FD90FAA0F0B0FA80F12868FB
:10056000420344D090FAA0F0B0FA80F0814204D166
:1005700000220221206801F0E8FD0321206801F03B
:10058000BFFD400320684FF0030133D001F0B8FDF8
:1005900090FAA0F0B0FA80F1286842032FD090FAC8
:1005A000A0F0B0FA80F0814204D10022032120683B
:1005B00001F0CBFD2068816811F0010F22D0ACE082
:1005C00000E004E001F09CFDC0F384618DE7C0F31E
:1005D000846091E701F094FDC0F38461A2E7C0F369
:1005E0008460A6E701F08CFDC0F38461B7E7C0F337
:1005F0008460BBE701F084FDC0F38461CCE7C0F305
:100600008460D0E72A7B296850F8B03FC1F3120C10
:1006100023EA0C0302F0180C664A22FA0CF20A4094
:1006200013430360E968494577D1286841031CD02A
:1006300090FAA0F1B1FA81F1491C01F01F010929DA
:100640004FEA403132D8002912D000BF90FAA0F111
:10065000B1FA81F101F1010101F01F0106FA01F681
:1006600009D100BFC0F3846109E0C0F38461E3E70E
:10067000C0F38461EEE790FAA0F1B1FA81F101F1E3
:10068000010101F01F0146EA816102D1C0F38460DB
:1006900003E090FAA0F0B0FA80F000F1010000F061
:1006A0001F0000EB400041EA005132E000290ED06B
:1006B00090FAA0F1B1FA81F101F1010101F01F01FD
:1006C00006FA01F606D100BFC0F3846106E0C0F36C
:1006D0008461F1E790FAA0F1B1FA81F101F1010131
:1006E00001F01F0146EA816102D1C0F3846003E09A
:1006F00090FAA0F0B0FA80F000F1010000F01F00C5
:100700002D4A00EB400002EB005041EA000141F0AD
:100710000071AA68206801F009FD28482A68024291
:100720003FF466AE26488168264B01F0E0719A429C
:1007300002D0254B9A421CD10B021AD42268B2F186
:10074000A04F7FF455AE826841F4000122F0E072C0
:100750000A4382601D481E490068B0FBF1F0401C4E
:1007600000EB4000800000E0401E00900028FBD11C
:100770003EE6184D184BAA4207D1CD0105D4226898
:100780009A42F5D041F0807109E0144DAA42EFD1B0
:100790004A02EDD422689A42EAD041F4800182688C
:1007A00022F0E0720A43826022E6000000007F40EF
:1007B00000F0FF03FFFF0700000020FE000008809C
:1007C00000030050000021C31000C0900C00002066
:1007D000400D0300000052C700010050000084CB10
:1007E000704770472DE9F05F044600680668456869
:1007F000DFF854B2DBF8080000F01F07B0070ED591
:10080000A8070CD5E06DC00603D4E06D40F400608D
:10081000E0652046FFF7CCFD216802200860DFF884
:100820002CA270074FF0A04801D5680703D4300709
:1008300037D5280735D5E06DC00603D4E06D40F408
:100840000070E065206801F069FC20B32068504525
:1008500001D1424600E00246824208D03FB1052F56
:1008600005D0092F03D0504503D1414602E0C168AD
:1008700001E00146C96889040DD4016809070AD559
:1008800001F048FC58B3E06D40F01000E065206EC8
:1008900040F0010020662046FFF7A2FF21680C20EF
:1008A0000860B00601D5A80603D4700658D56806BE
:1008B00056D5E06DC00603D4E06D40F40050E0650D
:1008C0002068C16C11F4C07F1AD00021894601F064
:1008D00025FC02462068504514D1434613E02068A9
:1008E000416821F00C014160E06D20F48070E0650A
:1008F000E06DC004CFD4E06D40F00100E065CAE7D0
:100900000121E3E70346834208D03FB1062F05D01B
:10091000072F03D0504503D1414602E0C16801E0F2
:100920000146C968B9F1000F14D08B0102D58AB114
:100930008A040FD4026852060CD589020AD401F049
:10094000E5FBE8B3E06D40F01000E065206E40F09C
:10095000010020662046FFF72CFD2168602008601A
:1009600030060BD5280609D5E06D40F48030E065EF
:10097000204600F067F9216880200860F0050CD55A
:10098000E8050AD5E06D40F40030E0652046FFF749
:1009900012FD21684FF480700860B0050CD5A805E1
:1009A0000AD5E06D40F48020E0652046FFF704FDA5
:1009B00021684FF400700860F0062ED5E80600E0CC
:1009C00008E02AD5E06BD0B1AFB1DBF8080000F445
:1009D000604013E02068416821F060014160E06DF3
:1009E00020F48050E065E06DC005B3D4E06D40F0C8
:1009F0000100E065AEE72068C068C00750B1E06D57
:100A000040F48060E065206E40F0020020662046E1
:100A1000FFF7E7FE216810200860700512D5680511
:100A200010D5E06D40F48040E065206E40F0080095
:100A3000206621684FF4806008602046BDE8F05FC2
:100A4000FFF7B8BCBDE8F09F000300500001005064
:100A5000F8B54FF0000504002E46009502D0E06D79
:100A600010B107E00120F8BD204600F0EDF8266641
:100A700084F8586020688168C1F3407119B18168B9
:100A8000684A1140816020688168C1F3007189B9AA
:100A90008168654A114041F0805181606348644932
:100AA0000068B0FBF1F04000801C00E0401E0090A8
:100AB0000028FBD120688168C1F3007141B9E16D64
:100AC00041F01001E165216E41F00101216601252F
:100AD00001F020FBE16DC90600D430B1E06D40F0BB
:100AE0001000E06501252846F8BDE06D20F4807017
:100AF00040F00200E0652068806810F0010F11D11D
:100B00004FF0A04080684B4900F00100896801F077
:100B10000101084306D148486168826822F47C12CA
:100B20000A438260E168E06B627F0843A16841EAA2
:100B30004231084394F8241040EA0140012904D1CD
:100B4000218D3E4A02EB41410843E16A29B101F49B
:100B50007871226B014342EA01002268D168384B68
:100B600019400143D16020680169626B21F0406146
:100B700011430161206801F0C9FA70BB207F94F82D
:100B80003810800340EA41022168C86844F2020339
:100B900098431043C86020690028206801690AD082
:100BA00041F480310161206850F8C01F22696FF361
:100BB0000D01114307E021F480310161206850F8F4
:100BC000C01F6FF30D01016094F8400001280CD0A4
:100BD0002068016921F00101016160690128206834
:100BE000016B21F00F0111D013E0D4E9110108438A
:100BF000D4E913121143084321680A6940F2FC73D7
:100C00009A43104340F001000861E6E7226A521E51
:100C100011430163E06D20F0020040F00100E06547
:100C200061E70000C0FFFF5FC0FFFF7F0C000020F6
:100C3000400D030000010050000300500000FEFFC3
:100C40000740F0FF7047000010B598B0044614212B
:100C500011A8FFF731FB44216846FFF72DFB194926
:100C6000206888422BD1C401400500940F9068464B
:100C700000F06CFA08B1FFF799FB1348C16C41F41E
:100C80000051C164C16C01F400511691C16C41F076
:100C90000201C164C06C11A900F00200169003208B
:100CA000CDE9114000201390084800F023F80022FD
:100CB0000221122000F0B2F9122000F0A1F918B0C0
:100CC00010BD000000010050001002400004004868
:100CD00070B5044600F03CF90546601C02D004489B
:100CE0004068044400F034F9401BA042FAD370BDC0
:100CF000000000202DE9F04FDFF8209200230126AC
:100D00000324A9F1040B85B00F2709F1040AABF104
:100D1000040EFAE006FA03F52A407CD091F804C0EC
:100D20000CF0030CBCF1010F02D0BCF1020F26D174
:100D3000D0F808C0CDF800C04FEA430C04FA0CF814
:100D4000CDF810C0DDF800C02CEA080CCDF800C0CA
:100D5000D1F80C80DDF810C008FA0CF8DDF800C0FE
:100D600048EA0C08C0F80880D0F804C02CEA050C4A
:100D70000D79C5F300159D4045EA0C0545600D79D8
:100D8000ED43AD070ED0C5684FEA430804FA08FCEE
:100D900025EA0C05D1F808C00CFA08FC4CEA050C51
:100DA000C0F80CC00D7905F00305022D16D1DD0841
:100DB00000EB850CCDF808C0DCF820805D074FEA19
:100DC000D56C07FA0CF528EA05080D6905FA0CF54B
:100DD000DDF808C045EA0805CCF8205005684FEA60
:100DE000430CCDF808C004FA0CFC25EA0C0591F878
:100DF00004C00CF00308DDF808C008FA0CF848EA53
:100E00000508C0F800804D6815F4403F7CD0444D83
:100E1000D5F860C000E077E04CF0010CC5F860C088
:100E20002D6E23F0030C05F0010500953D4D654442
:100E30000295AD684FEA837C4FEA1C7807FA08FCFC
:100E400025EA0C05B0F1904F06D0DFF8DCC0604514
:100E500005D14FF0010C20E04FF0000C1DE0DFF851
:100E6000CCC0604502D14FF0020C16E0DFF8C0C0E4
:100E7000604502D14FF0030C0FE0DFF8B8C06045C9
:100E800002D14FF0040C08E0DFF8ACC0604502D19D
:100E90004FF0050C01E04FF0060C0CFA08FC4CEA90
:100EA000050C029DC5F808C0D9F80050CC46D1F811
:100EB000048095435FEAC82800D51543CCF800505C
:100EC000DAF80050D446D1F8048095435FEA8828C8
:100ED00000D51543CCF80050DBF80050DC46D1F8C3
:100EE000048095435FEA883800D51543CCF800505C
:100EF000DEF80050F446D1F8048095435FEAC83824
:100F000000D51543CCF800505B1C0A6832FA03F593
:100F10007FF400AF05B0BDE8F08F00000804014089
:100F20000010024000000140000400480008004892
:100F3000000C0048001000480014004800690840F8
:100F400000D0012070470AB181617047816270470B
:100F50000148806870470000000000200248816856
:100F600042681144816070470000002010B50024E1
:100F7000032000F073F80F2000F008F808B10124F6
:100F800001E000F025F8204610BD000070B50E4EBF
:100F900005460024706898B14FF47A71B1FBF0F007
:100FA0000A490968B1FBF0F000F03CFD40B9102D92
:100FB00006D200222946501E00F030F8356000E0CD
:100FC0000124204670BD0000000000200C0000201D
:100FD0000A4882B0016E41F001010166016E01F024
:100FE00001010091816D41F080518165806D00F0BB
:100FF0008050009002B000F0A1B800000010024044
:10100000002809DB00F01F02012191404009800007
:1010100000F1E020C0F8001170470000F0B40E4B62
:101020001B680C46C3F30223C3F10705042D00D946
:101030000425191D072901D2002300E0DB1E01262B
:1010400006FA05F1491E214099409E40761E164041
:101050003143F0BC01F085BB0CED00E0064900F027
:10106000070208684FF6FF03184040EA0220034ACF
:1010700010430860704700000CED00E00000FA0526
:101080002B492C4B0A6832214A432B4940B1B0F519
:10109000007F086829D020F4C06040F480602CE014
:1010A0000868C0F34120022804D051F8800F20F4D2
:1010B000807022E0D1F8800020F48070C1F88000B8
:1010C000086820F4C06040F400700860B2FBF3F0E0
:1010D000401C00E0401E4A69520501D50028F9D1A4
:1010E000486940050AD503207047C0F34120022813
:1010F00006D051F8800F40F48070086000207047DF
:10110000D1F8800040F48070C1F88000086820F4B5
:10111000C06040F400700860B2FBF3F0401C00E0D7
:10112000401E4A695205DBD50028F9D1D8E70000F6
:101130000C00002040420F0000700040024881680F
:1011400041F4804181607047007000402DE9F84310
:101150000446006800269D4D00035ED5A86D00275B
:10116000C00008D4A86D40F08050A865A86D012784
:1011700000F080500090DFF85892D9F8001041F448
:101180008071C9F80010FFF7E3FE804606E000BF5B
:10119000FFF7DEFEA0EB080002282BD8D9F80000EC
:1011A000C005F5D5D5F8900010F4407014D0216C2E
:1011B000814211D0D5F89000D5F8901020F44070FD
:1011C00041F48031C5F89010D5F8901021F48031A9
:1011D000C5F89010C5F89000C00711D0FFF7B8FE11
:1011E000804641F2883907E0FFF7B2FEA0EB080124
:1011F000494501D903260BE0D5F890008007F3D5C7
:10120000D5F89000216C20F440700843C5F8900098
:101210001FB1A86D20F08050A8652078C00707D0C6
:10122000D5F88800616820F003000843C5F88800FD
:101230002078800707D5D5F88800A16820F00C0039
:101240000843C5F888002078400707D5D5F88800FE
:10125000E16820F030000843C5F8880020780007D6
:1012600007D5D5F88800216920F0C0000843C5F8EB
:1012700088002078800607D5D5F88800616920F4B9
:1012800040600843C5F888002078400607D5D5F8A7
:101290008800A16920F440500843C5F888002078F0
:1012A000000607D5D5F88800E16920F440400843DE
:1012B000C5F888002088C00507D5D5F88800216AC0
:1012C00020F440300843C5F888002088800507D501
:1012D000D5F88800616A20F440200843C5F88800EA
:1012E000208840050FD5D5F88800A16A20F4401069
:1012F0000843C5F88800A06AB0F5801F03D1E868EC
:1013000040F48010E860208800050FD5D5F88800EB
:10131000E16A20F440000843C5F88800E06AB0F5AF
:10132000800F03D1E86840F48010E8602088C00492
:101330000FD5D5F88800216B20F040700843C5F820
:101340008800206BB0F1807F03D1E86840F4801002
:10135000E86020884FF0006180040ED5D5F8880041
:10136000626B20F040601043C5F88800606B8842D3
:1013700003D1E86840F48010E860208840040ED56E
:10138000D5F88800A26B20F040601043C5F88800B3
:10139000A06B884203D1E86840F48010E8602088A0
:1013A00000040FD5D5F88800E16B20F040500843C9
:1013B000C5F88800E06BB0F1805F03D1E86840F4C5
:1013C0008030E8603046BDE8F8830000001002403D
:1013D000007000402DE9F0470E4605004FF0000771
:1013E00025D0DFF8AC81D8F8000000F00F00B04243
:1013F0000CD2D8F8001021F00F013143C8F80010CA
:10140000D8F8000000F00F00B04210D12968614CFC
:10141000C80741F2883A5AD06868DFF87C910328FF
:1014200008D0022820682DD0400500282CDB0120A0
:10143000BDE8F08720688001F9D5E06800F003027C
:10144000E068C0F30310401C032A19D0534A00BFC0
:10145000B2FBF0F0E268C2F306225043E268C2F346
:101460004162521C5200B0FBF2F0484517D9A06807
:1014700010F0F00F0CD0880711D5A86840B10EE02D
:10148000474AE5E78003D0E700F092F8484506D9DF
:10149000A06820F0F00040F08000A0608027A068E5
:1014A000696820F003000843A060FFF751FD814602
:1014B00006E000BFFFF74CFDA0EB090151453AD80B
:1014C000A068696800F00C00B0EB810FF2D12868C9
:1014D000810714D5400703D5A06840F4E060A06000
:1014E0002878000705D5A06820F4605040F4E0603B
:1014F000A060A068A96820F0F000084304E0802FF5
:1015000003D1A06820F0F000A060D8F80010404699
:1015100001F00F01B14216D9016821F00F013143EA
:101520000160FFF715FD074607E000BFFFF710FD5C
:10153000C11B514501D903207AE7D8F8000000F01B
:101540000F00B042F2D12878400705D5A068E968BD
:1015500020F4E0600843A0602878000706D5A06862
:10156000296920F4605040EAC100A06000F020F832
:10157000A1680C4AC1F30311515C01F01F01C8407E
:101580000949086009480068BDE8F047FFF7FEBC5C
:10159000002002400010024000B4C4040024F40003
:1015A00000366E010A2A00080C000020000000200E
:1015B000184910B58868C0F381021748012A0BD07A
:1015C0008A68164BC2F38102022A06D08A68C2F3E7
:1015D0008102032A03D0002010BD184610BDCA683E
:1015E00002F00304CA68C2F30312521C032C02D097
:1015F000B0FBF2F001E0B3FBF2F0CA68C968C2F3D5
:1016000006225043C1F34161491C4900B0FBF1F08F
:1016100010BD0000001002400024F40000366E01EE
:101620002DE9F84304007AD02078F84DC00747D060
:10163000A868E96800F00C0001F003010C2802D052
:10164000082817D001E0032914D06068B0F5803F66
:1016500017D0B0F5A02F286817D020F4803028606C
:10166000286820F4802028606068E0B1FFF770FCF3
:10167000064614E02868800322D560680028D2D08E
:101680001EE0286840F48030EDE740F480202860B8
:10169000F7E700BFFFF75CFC801B642870D8286860
:1016A0008003F7D50CE0FFF753FC064605E000BFCA
:1016B000FFF74EFC801B6428F0D828688003F7D41D
:1016C000207880074CD5A868E96800F00C0001F08C
:1016D00003010C2802D004280DD001E002290AD011
:1016E000E068002828682BD040F480702860FFF75D
:1016F0002FFC064619E02868400502D5E06800285E
:1017000091D06868217C20F0FE4040EA016068606A
:10171000BF480068FFF73AFC002800D120E072E1E2
:10172000FFF716FC801B0228B8D828684005F7D5BB
:101730006868217C20F0FE4040EA016068600FE0AC
:1017400020F480702860FFF703FC064605E000BF28
:10175000FFF7FEFB801B0228A0D828684005F7D4BD
:101760002078000729D560690028D5F8940013D0A7
:1017700040F00100C5F89400FFF7EAFB064606E0DA
:1017800090E000BFFFF7E4FB801B022886D8D5F865
:1017900094008007F6D510E020F00100C5F8940011
:1017A000FFF7D6FB064604E0FFF7D2FB801B0228BA
:1017B00078D8D5F894008007F6D42078400761D512
:1017C000A86D0026C00008D4A86D40F08050A86520
:1017D000A86D012600F0805000908E480168C90570
:1017E00011D40168804641F480710160FFF7B0FBBD
:1017F000074604E0FFF7ACFBC01B022852D8D8F81C
:101800000000C005F6D5A068012815D00528D5F838
:10181000900016D020F00100C5F89000D5F8900097
:1018200020F00400C5F89000A06841F28838B8B1F3
:10183000FFF78EFB07460EE0D5F8900040F0010060
:10184000F0E740F00400C5F89000F5E7FFF780FBF3
:10185000C11B414526D8D5F890008007F6D50CE08D
:10186000FFF776FB074604E0FFF772FBC11B41451B
:1018700018D8D5F890008007F6D41EB1A86D20F0D6
:101880008050A8652078800629D5A0690028D5F861
:10189000980013D040F00100C5F89800FFF758FBFE
:1018A000064606E075E000BFFFF752FB801B0228EA
:1018B0006FD8D5F898008007F6D510E020F0010029
:1018C000C5F89800FFF744FB064604E0FFF740FB2D
:1018D000801B02285DD8D5F898008007F6D4E0690F
:1018E000F0B3A968C1F3810103295DD002282868FB
:1018F00020F08070286003D0FFF72AFB04464BE0FD
:10190000FFF726FB064604E0FFF722FB801B0228B8
:101910003FD828688001F7D4F4E908016FF00F027E
:1019200002EB01110843218A5204490802EB41519C
:10193000A26841EA02210843217D4FF07E42490816
:1019400002EB41610843217B40EAC160E968324A09
:1019500011400843E860286840F08070286000E08B
:101960005EE0E86840F08070E860FFF7F1FA044656
:1019700005E000BFFFF7ECFA001B022809D8286831
:101980008001F7D54CE000BFFFF7E2FA001B022808
:1019900002D90320BDE8F88328688001F4D4E86800
:1019A0001E490840E8603BE00128F3D0E868226A5D
:1019B00000F00301914226D1616A00F0F0020901B2
:1019C000103991421FD1A26A00F4FE41B1EB022FFF
:1019D00019D194F82C2000F07841B1EBC26F12D1EC
:1019E000218E00F4C00249084905A1F50011914279
:1019F00009D194F8341000F0C06049084906A1F1FB
:101A0000007181420CD00120C4E7000000100240A8
:101A100000000020007000400C809F01FCFFEEFEE3
:101A20000020B7E710B5401EB0F1807F01D3012040
:101A300010BD4FF0E02460610F21601700F091FEAF
:101A40000020A06107202061002010BD7047704772
:101A50007047704770477047F0B590F83C20012AF6
:101A60003AD0012580F83C50022280F83D200368DE
:101A70005A689C68194E1A4FB34201D0BB4204D138
:101A800022F4700C4A6842EA0C02DFF858C002EAFD
:101A90000C02D1F800C04CEA020CC3F804C0026882
:101AA000B2420DD0B2F1804F0AD00F4B9A4207D00C
:101AB0000E4B9A4204D0BA4202D00D4B9A4204D146
:101AC000896824F080031943916080F83D5000211B
:101AD00080F83C100846F0BD0220F0BD002C01400B
:101AE000003401408FFFFFFD00040040000800406B
:101AF00000400140704710B5040003D094F83D0049
:101B000010B107E0012010BD002084F83C00204601
:101B100000F022F8022084F83D00211D206800F02A
:101B2000C1FD012084F8480084F83E0084F83F009D
:101B300084F8400084F8410084F8420084F84300AF
:101B400084F8440084F8450084F8460084F847008F
:101B500084F83D00002010BD08B500680B4988429C
:101B600012D10B48816D41F020018165806D00220A
:101B700000F02000009001213720FFF74FFABDE868
:101B800008403720FFF73CBA08BD000000140040B1
:101B90000010024090F83D10012901D0012070474B
:101BA000022180F83D100168CA6842F00102CA6053
:101BB0000068104988420ED0B0F1804F0BD00E491A
:101BC000884208D00D49884205D00D49884202D08C
:101BD0000C49884207D181680B4A1140062906D07A
:101BE000B1F5803F03D0016841F0010101600020A0
:101BF00070470000002C0140000400400008004035
:101C000000340140004001400700010070472DE909
:101C1000F04104460068C66805694FF00007A9074F
:101C200013D5B10711D5F91E016101202077206875
:101C300080698007204602D0FFF7E8FF04E000F04B
:101C4000B7F8204600F0B5F82777680716D5700773
:101C500014D521686FF00400086102202077206805
:101C6000806910F4407F204602D0FFF7CFFF04E0E8
:101C700000F09EF8204600F09CF82777280715D53D
:101C8000300713D521686FF0080008610420207721
:101C90002068C0698007204602D0FFF7B7FF04E044
:101CA00000F086F8204600F084F82777E80616D57D
:101CB000F00614D521686FF0100008610820207725
:101CC0002068C06910F4407F204602D0FFF79EFFD5
:101CD00004E000F06DF8204600F06BF82777E80785
:101CE00008D0F00706D021686FF001000861204697
:101CF00000F060F8280601D4A80408D5300606D5FF
:101D000021686FF4025008612046FFF7A0FEE80545
:101D100008D5300606D521686FF48070086120462A
:101D2000FFF794FE680608D5700606D521686FF0A7
:101D300040000861204600F053F8A80608D5B00618
:101D400006D521686FF0200008612046FFF780FE6D
:101D5000E80208D5F00206D521686FF4801008610A
:101D60002046FFF777FEA80208D5B00206D5216805
:101D70006FF4001008612046FFF76BFE680208D57B
:101D8000700206D521686FF4800008612046FFF7D5
:101D900062FE28020AD5300208D521686FF40000DF
:101DA00008612046BDE8F041FFF7A4BEBDE8F08120
:101DB000704770470068084988420CD10749486954
:101DC000401C48613221B0FBF1F201FB12000028F7
:101DD00001D100F0D7BC7047001400401000002073
:101DE0007047FEE700B585B014216846FEF764FA37
:101DF0004FF6FF70009000200321CDE90201019011
:101E000069460248FEF776FF05B000BD00080048AD
:101E100000B585B014216846FEF74EFA4FF6FF7004
:101E20000090012001900320039000200290694659
:101E30000248FEF75FFF05B000BD00000008004843
:101E400070B5002406462146204600F0B5F800F0A3
:101E5000F3F84FF49635304600F0C2F8641CAC42FB
:101E6000F9D370BD30B587B014216846FEF724FA67
:101E70001E48C16C41F00401C164C16C01F0040151
:101E80000591C16C41F00101C164C16C01F0010117
:101E90000591C16C41F00201C164C06C012500F0E4
:101EA000020005904FF44870CDE90005002403942A
:101EB000694602940E48FEF71DFF28020394009025
:101EC000CDE901544FF0904469462046FEF712FFD9
:101ED000FFF79EFFA06940F48070A06104481830AD
:101EE000016841F40871016007B030BD0010024084
:101EF0000004004810B5FFF7B5FF002000F014F80B
:101F0000084CA080A088A0F50241303906D000F02E
:101F10007DFA002000F008F8A08010BD00F0EDF977
:101F2000F7E700002800002070B51D490A6842F458
:101F300000720A600A6842F480720A60184C103C11
:101F4000226842F020022260164A1060086840F0C1
:101F50002000086000BF00BF00BF206840F02000E4
:101F60002060206840F480702060FFF73BFF4FF056
:101F70009041886A40F48070886200BF00BF00BF53
:101F80000848001F006885B2886940F48070886145
:101F9000FFF73EFF206840F400702060284670BDC7
:101FA000280400481408004801B5BDF800000149A4
:101FB000488008BD2800002010B50C4601462020AE
:101FC00000F068F82146BDE81040212000F062B81A
:101FD00001B5BDF800000149088008BD28000020B7
:101FE000134A116841F400711160114910390B68EE
:101FF00043F480730B600B6843F020030B600D4BC0
:102000001860106840F02000106000BF00BF00BFE3
:10201000086840F020000860086840F4807008609C
:1020200000BF00BF00BF086840F400700860704740
:1020300028040048140800481449086840F4007057
:102040000860086840F48070086010481038026822
:1020500042F0200202600E4B22221A600A6842F00F
:1020600020020A6000BF00BF00BF016841F02001EC
:102070000160016841F48071016000BF00BF00BFD2
:10208000016841F4007101607047000028040048B5
:1020900014080048184B10B51A6842F400721A6010
:1020A0001A6842F480721A60134A103A146844F0B5
:1020B00020041460114C2060186840F02000186063
:1020C00000BF00BF00BF106840F020001060106823
:1020D00040F4807010602160186840F020001860A3
:1020E00000BF00BF00BF106840F020001060106803
:1020F00040F48070106010BD2804004814080048A7
:1021000000EB8100006E00F0F84070478068C0F37B
:10211000C00070478068C0F380007047C06810F44A
:10212000406F01D00020704701207047042303EA6C
:10213000D15310B518444369C1F3045107248C40AE
:10214000A3438A401343436110BD00EB8100016E3D
:1021500021F00041114301667047000030B589B09D
:1021600020216846FEF7A8F81948184900240160A4
:102170004902C0E90114C46004250461C0E90545B1
:10218000047744770121016280F82440C46204632B
:1021900080F83840C46380F84040FEF759FC08B12D
:1021A000FEF704F90B4800900620CDE901047F20DA
:1021B0000594CDE9030569460548FEF7FFF80028B8
:1021C00001D0FEF7F3F809B030BD00000001005067
:1021D000300000200080F03EF0B587B01421684642
:1021E000FEF76AF82D48C16C41F00401C164C16C6E
:1021F00001F004010591C16C41F02001C164C16C82
:1022000001F020010591C16C41F00101C164C16C74
:1022100001F001010591C16C41F00201C164C16C82
:1022200001F002010591C16C41F00801C164C06C6C
:102230001B4E00F008004FF47F4405900122214618
:102240003046FEF780FE174F012204213846FEF784
:102250007AFE0125CDE90045002402946946304606
:102260000394FEF747FDCDE9005469464FF09040D6
:102270000295FEF73FFD07208DE8310069460A48C8
:10228000FEF738FD04200090CDE901546946384638
:102290000394FEF72FFD07B0F0BD000000100240D0
:1022A00000080048000C0048000400483EB5002427
:1022B0000F48009401940D49029401604F21C0E938
:1022C000011440F2E7318461C160FFF714FC08B1EA
:1022D000FEF76CF80094694605480294FFF7BCFBD2
:1022E000002801D0FEF762F83EBD00000014004057
:1022F0009C000020FEE7FEE7704730B5012100207A
:10230000FFF7C8FE4FF47A70FEF742F80021012073
:10231000FFF7C0FE41F290711020FFF7BBFE4FF4B3
:102320001C516020FFF7B6FE01216120FFF7B2FECD
:1023300002214620FFF7AEFE48F210011320FFF7FE
:10234000A9FE48F2FE011220FFF7A4FE4FF4A0619F
:102350000220FFF79FFE41F230010320FFF79AFEB3
:1023600040F2033421463020FFF794FE214631200D
:10237000FFF790FE21463220FFF78CFEE51E29462E
:102380003320FFF787FE03213420FFF783FE214629
:102390003520FFF77FFE14213620FFF77BFE214614
:1023A0003720FFF777FE21463820FFF773FE2146DE
:1023B0003920FFF76FFE29463A20FFF76BFE032115
:1023C0003B20FFF767FE21463C20FFF763FE4FF4FA
:1023D000A0513D20FFF75EFE4FF400719220FFF701
:1023E00059FE21469320FFF755FE40F60D0190203F
:1023F000FFF750FE41F218010320FFF74BFEBDE846
:10240000304040F273110720FFF744BE10B543F28D
:102410000801E320FFF73EFE1221E720FFF73AFE16
:1024200041F23121EF20FFF735FE00210120FFF7B7
:1024300031FE4FF4E0610220FFF72CFE41F2300143
:102440000320FFF727FE00210420FFF723FE40F2C0
:1024500007210820FFF71EFE00210920FFF71AFEC2
:1024600000210A20FFF716FE00210C20FFF712FEC4
:1024700000210D20FFF70EFE00210F20FFF70AFEBE
:1024800000211020FFF706FE07211120FFF702FEB2
:1024900000211220FFF7FEFD00211320FFF7FAFDB7
:1024A000C820FEF715FC41F290611020FFF7F2FD05
:1024B00040F227211120FFF7EDFD3220FEF708FC46
:1024C0001D211220FFF7E6FD3220FEF701FC4FF43C
:1024D00000611320FFF7DEFD14212920FFF7DAFD4C
:1024E0000B212B20FFF7D6FD3220FEF7F1FB002158
:1024F0002020FFF7CFFD00212120FFF7CBFD072192
:102500003020FFF7C7FD40F207713120FFF7C2FD11
:1025100006213220FFF7BEFD40F204713520FFF79F
:10252000B9FD41F604713620FFF7B4FD04213720D0
:10253000FFF7B0FD00213820FFF7ACFD40F2067137
:102540003920FFF7A7FD40F201713C20FFF7A2FD03
:102550000F213D20FFF79EFD00215020FFF79AFD3F
:10256000EF215120FFF796FD00215220FFF792FD49
:1025700040F23F115320FFF78DFD4FF41C516020B6
:10258000FFF788FD01216120FFF784FD00216A200B
:10259000FFF780FD00218020FFF77CFD00218120D6
:1025A000FFF778FD00218220FFF774FD00218320D2
:1025B000FFF770FD00218420FFF76CFD00218520CE
:1025C000FFF768FD10219020FFF764FD00219220A5
:1025D000FFF760FD03219320FFF75CFD4FF4887146
:1025E0009520FFF757FD00219720FFF753FD0021AD
:1025F0009820FFF74FFD41F218010320FFF74AFD35
:10260000BDE8104040F273110720FFF743BD70474B
:10261000FEF7A4BC10B594B038216846FDF74CFE17
:1026200014210EA8FDF748FE4FF40070FEF728FDB8
:10263000012000900004019002200324CDE907044A
:102640001421CDE90A100C900D9009946846FEF70C
:10265000E7FF08B172B6FEE70F20CDE90E040020B7
:1026600010901190129002210EA8FEF7B3FE0028E0
:1026700001D072B6FEE714B010BD00000548016835
:1026800041F47001016003494FF000608039086037
:102690007047000088ED00E00148FFF7B8BA00007D
:1026A0009C0000202DE9F0430268264B264D274E62
:1026B000274C4FF08049984207D0484505D0A842A2
:1026C00003D0B04201D0A04203D122F070074A6883
:1026D0003A43204FDFF880C0DFF8808098420DD069
:1026E00048450BD0A84209D0B04207D0A04205D03F
:1026F000B84203D0604501D0404503D122F4407573
:10270000CA682A434D6922F080022A4302608A681F
:10271000C2620A688262984207D0A04205D0B842DD
:1027200003D0604501D0404501D109690163012111
:1027300041610169C90703D0016921F0010101610B
:10274000BDE8F083002C0140000400400008004078
:102750000034014000400140004401400048014075
:10276000FEE70907090E002804DB00F1E02080F8ED
:102770000014704700F00F0000F1E02080F8141DF5
:10278000704700002DE9F05F5E4C01212046FEF706
:10279000D5FB5D4D022128702046FEF7CFFB687007
:1027A00004212046FEF7CAFBA87001214FF090409B
:1027B000FEF7C4FB0024E87005F1040B05F10C07DB
:1027C0004FF001084FF002094FF0030A2646385D2A
:1027D00010B1012857D10DE0285DE0BB1BF80400C3
:1027E000012850D107F80480FEF7B2FB474941F8B1
:1027F000240048E0285D012831D11BF8040001289D
:1028000041D1FEF7A5FB414951F82410401AB0F51B
:102810007A7F04D93C49083101F8049032E0285D00
:1028200001281CD11BF8040001282CD1FEF790FBD5
:10283000364951F82410401AB0F5C87F0FD9FEF779
:1028400087FB324951F82410401AB0F57A7F06D23E
:102850002D49083100E016E001F8048012E0285DFF
:1028600088B91BF8040001280DD1FEF771FB274938
:1028700051F82410401AB0F5C87F04D2224908311B
:1028800001F804A03E55641C042CA0DB1E4808304F
:10289000A0F10C02017879B1012904D0022905D0F8
:1028A000032906D007E082F8018004E082F8019055
:1028B00001E082F801A00670417879B1012904D0C5
:1028C000022905D0032906D007E082F8018004E040
:1028D00082F8019001E082F801A04670817801B190
:1028E0008670C17801B1C67029788BF800106978BC
:1028F0008BF80110A9788BF80210E9788BF8031097
:10290000BDE8F09F0004004814000020E80000200B
:102910002DE9F047134C054688462068124F86B2D1
:1029200078882060DFF84490012204214846FEF7B1
:102930000AFB4FF480716D1EA9400A4889B2143811
:10294000B8F1000F01D0002200E00122FEF7FBFAEF
:1029500020687880002204214846FEF7F4FA2660B9
:10296000BDE8F0871408004810000020000C004863
:10297000FEF7FCFAFFF74EFEFFF72EFCFFF796FC82
:10298000FFF7ECFB002204211B48FEF7DCFA0021D4
:102990000120FFF7BDFF00210220FFF7B9FF002152
:1029A0000320FFF7B5FF00210420FFF7B1FF00214E
:1029B0000520FFF7ADFF00210620FFF7A9FF00214A
:1029C0000720FFF7A5FF00210820FFF7A1FF012145
:1029D0000846FFF79DFF0948FFF7DCF8FFF78AFA82
:1029E0000020FFF72DFA4FF6FF70FFF7F1FA0020F5
:1029F000FFF7DAFAFEE70000000C00489C00002018
:102A00004FF04070E1EE100A704700000000000037
:102A10000000010203040607080900003C2A000820
:102A20000000002030000000140200086C2A00089A
:102A300030000020B808000030020008100000003C
:102A400001000000000000000024F400000000006D
:102A50000000000001010101000000000000000072
:0C2A6000000000000000FFFF000000006C
:04000005080001D915
:00000001FF
