:020000040800F2
:10000000200900209D0200087149000815400008E1
:100010006D49000861150008FF530008000000004A
:10002000000000000000000000000000014D00087A
:10003000651500080000000075490008034D000820
:10004000B7020008B7020008B7020008B7020008AC
:10005000B7020008B7020008B7020008B70200089C
:10006000B7020008B7020008B7020008B70200088C
:10007000B7020008B7020008B7020008B70200087C
:10008000B702000800000000B7020008B70200082D
:10009000B7020008B7020008B7020008B70200085C
:1000A000B7020008A14D0008914D0008B7020008F2
:1000B000B14D0008B7020008B7020008B7020008F7
:1000C000B7020008B7020008B7020008B70200082C
:1000D000B7020008B7020008B7020008B70200081C
:1000E000B7020008B7020008B7020008B70200080C
:1000F000B7020008B7020008B702000800000000BD
:1001000000000000B702000800000000B70200086D
:10011000B702000800000000B7020008C14D000847
:10012000B7020008B7020008B7020008B7020008CB
:10013000B70200080000000000000000B70200083D
:10014000B7020008B702000800000000000000002D
:10015000000000000000000000000000000000009F
:10016000000000000000000000000000B7020008CE
:10017000B7020008000000000000000000000000BE
:1001800000000000B70200080000000000000000AE
:10019000000000000000000000000000000000005F
:1001A0000000000000000000B7020008B7020008CD
:1001B000B7020008B7020008B702000800000000FC
:1001C00000000000B702000800000000000000006E
:1001D000B7020008B702000800F002F800F04FF87C
:1001E0000AA090E8000C82448344AAF10107DA4592
:1001F00001D100F044F8AFF2090EBAE80F0013F095
:10020000010F18BFFB1A43F0010318473C710000AF
:100210005C710000103A24BF78C878C1FAD8520740
:1002200024BF30C830C144BF04680C607047000070
:100230000023002400250026103A28BF78C1FBD8EF
:10024000520728BF30C148BF0B607047662905F0D0
:100250003A87642900F08080732900F0028400202E
:1002600070471FB505F025FF00F000FC04000020DA
:10027000002105F0FBFBE0601FBD10B510BD00F0D4
:10028000F5FC1146FFF7EDFF05F0AAFB00F013FDAA
:1002900003B4FFF7F2FF03BC00F056FD09488047A6
:1002A00009480047FEE7FEE7FEE7FEE7FEE7FEE758
:1002B000FEE7FEE7FEE7FEE704480549054A064B70
:1002C00070470000754D0008D90100082003002088
:1002D0002009002020050020200500200FB41CB5B7
:1002E000074B06AA7B4469460090059800F08FFBF7
:1002F0000020694600F09EFB1CBC5DF814FB00006A
:100300004D07000070B50C460546012A05D0287837
:10031000800600D5EA69002302E0012305E05B1CAA
:10032000934202D2E05C0028F9D1A869E618C01A0D
:10033000A861286A184428622846AFF3008004E0C8
:10034000D5E9012114F8010B9047B442F8D32846AF
:10035000AFF3008070BD00002DE9F0410646002497
:1003600010687529314616A510D0AFF3008000281B
:1003700002DA404213A507E031688A0701D512A5C9
:1003800002E0490704D511A5012401E0AFF3008084
:1003900000210A2206F1240709E0B0FBF2FCB0FBC1
:1003A000F2F302FB1C00303078541846491C002838
:1003B000F3D123462A463046BDE8F04100F0B9B8F3
:1003C000000000002D0000002B00000020000000B5
:1003D0002DE9F0474FF0000A89460446C0F820A0F6
:1003E0002046E1688847002876D0252806D0D4E941
:1003F00001219047206A401C2062F1E7E168204615
:1004000000258847C4F81CA006460027C4F818A099
:100410002A2E09D0304605F029F838B304EB8708B6
:10042000303EC8F8186019E059F8041B204604EB68
:1004300087029161E1688847012F064618D1E0697B
:10044000002820DA25F020051DE0D8F8180000EB80
:10045000800006EB40003038C8F818002046E168FC
:100460008847064605F002F80028EED1012F0AD091
:100470002E2E08D12046E16888477F1C0646022FB1
:1004800045F02005C4DBA069002803DA404245F0AE
:100490000105A061E80701D025F01005B6B1A6F16D
:1004A0004100192802D8203645F400654A463146F5
:1004B000204625604D46FFF7C9FE58B1012806D0F9
:1004C000ED1D25F0070000F1080989E704E005F1BA
:1004D000040985E730468AE7206ABDE8F0874FF0D7
:1004E000000200B5134694469646203922BFA0E884
:1004F0000C50A0E80C50B1F12001BFF4F7AF090790
:1005000028BFA0E80C5048BF0CC05DF804EB890080
:1005100028BF40F8042B08BF704748BF20F8022BC3
:1005200011F0804F18BF00F8012B704770477047DB
:1005300070472DE9F0470D4699469246044600F172
:1005400024080168880604D5E06921F010012160C3
:1005500000E00120A84201DD471B00E00027A1695F
:100560007A1902EB0900081AA0612078C00602D4AB
:100570002046AFF30080002608E0D4E901211AF8F4
:1005800006009047206A401C761C20624E45F4DB32
:100590002078C0060AD52046AFF3008006E0D4E9F3
:1005A000012130209047206A401C2062381EA7F1AC
:1005B0000107F4DC07E0D4E9012118F805009047B1
:1005C000206A401C2062281EA5F10105F3DC2046AC
:1005D000AFF300802078000602D50220BDE8F08746
:1005E0000120FBE770472DE9FF4F0C461E464FF0F8
:1005F000FF378BB0D2E90001DDF860800A908A46AF
:10060000C1F30A5505B93D46002108464FF00000E8
:10061000BAF1000F00F4400005DA00EB80004FF45F
:10062000400101EA50004FEA9059B9F1010F00DD95
:10063000B9460A9850EA4A000ED044F61050A5F286
:10064000FF3545432F14B8F1000F1ED07542291E07
:100650001EDDC9F100021CE0B8F1010F4FF00000EF
:1006600001D0302103E0F24305E02154401CB042A8
:10067000FBDB30460022002121540B99C1F8088091
:10068000C1E900200FB0BDE8F08FBD1B6D1CDEE797
:100690004A4600DA694206A800F072FA06AB93E80F
:1006A000070003AB83E8070050460A9900F053FBAC
:1006B0008DE80700A0F500501F3800900398002D2A
:1006C0000ADD42F21F014A460844002303A90390B1
:1006D000684600F0BCFD09E0A0F500504A461F380E
:1006E000002303A90390684600F0C6FD8DE80700CB
:1006F0000004000C03D04FF0FF30410800E010462A
:10070000B8F1000F03D00022009215461EE0751EBE
:1007100005D400F0AFF9303262556D1EF9D5B346FD
:100720000122084302D000227F1C04E020783028F8
:1007300001D100227F1E002A099784D01DE0112DCF
:1007400007DA00F097F9303262556D1C50EA010269
:10075000F5D1084302D00098C8B10EE00021681E10
:1007600005E0235C625C63542254401E491C8142B4
:10077000F7DBAB46A81B401E0990002004F80B00D5
:100780000B98099AC0F80880C0E9002B7AE7112677
:100790004FF0000857E72DE9F04F88460446D21D78
:1007A00022F0070191B0D1E90001CDE90A0104F07E
:1007B00028FE02460B98C00F01D02D2007E02068CC
:1007C000810701D52B2002E0202101EAC000032A85
:1007D000099001D0072A05DB03464146204600F078
:1007E0008FF90BE12078800601D5E06900E0062052
:1007F000B8F1650F814606D0B8F1660F18D0B8F190
:10080000670F70D131E00020B9F1110F009001DBCA
:10081000112301E009F101030AAA01A90CA8FFF7BD
:10082000E2FEDDE90C70002609F10105834647E090
:1008300001204B4600904FF000470AAA01A90CA8DE
:10084000FFF7D1FEDDE90DB00C995D46002610B929
:1008500009F101000D18B9EB050003D4C0F1FF3612
:1008600009F10105A5EB09002BE0B9F1010F01DA4F
:100870004FF001090020B9F1110F0090484601DD49
:10088000112300E003460AAA01A90CA8FFF7ABFE5A
:10089000DDE90C704D4600268346207800070AD417
:1008A000AB4500DA5D4601A8012D04DD411911F8C0
:1008B000011C302907D04F4502DA17F1040F04DA82
:1008C000012082460FE06D1EEEE7002F02DCED1BDB
:1008D0003E4403E0781CA84200DD7D1CB81B00F1FB
:1008E000010A4FF000472078000703D4AA4501DB36
:1008F0004FF0FF3A0021B7F1004F0DF143088DF89A
:10090000431024D002202B23002F01DA7F422D2315
:100910000A21021EA0F1010000DC5FB197FBF1FC8F
:1009200097FBF1F201FB1C7C17460CF1300C08F828
:1009300001CDEEE7A8F1010003702188090501D57A
:10094000452100E06521A0F1010800F8011C09988B
:100950000FA9A1EB0807FF1D00B10120411901EB10
:10096000EA70A1693844081A401EA0612078C006C8
:1009700002D42046AFF30080099828B1D4E90121C0
:100980009047206A401C20622078C00622D520466D
:10099000AFF300801EE0002E04DBB34502DD01A8AA
:1009A000805D00E03020D4E901219047206A401C9E
:1009B0002062761CAAF101005FEA000A0AD100F069
:1009C00055F8C0680168405CD4E901219047206A6D
:1009D000401C2062281EA5F10105DCDC07E0D4E9FB
:1009E000012118F8010B9047206A401C2062381E34
:1009F000A7F10107F3DC2046AFF30080032011B01C
:100A000041E6000001694A1C02610878704700B5A0
:100A10008FB0CDE901310021059105497944CDE937
:100A2000031011466846FFF7D3FC0FB000BD00006D
:100A3000E5FFFFFF0A6802F8010B0A60704710B576
:100A4000436913B1AFF3008001E0FFF75BFC0120C5
:100A500010BD127800F124010A7000224A700122B0
:100A6000EDE711684FF0FF32E9E7000000487047FA
:100A7000E002002030B5B0F10A024FEA900E71F1A9
:100A800000034EEA817EB0EB0E0061EB91014FEA6C
:100A9000101E4EEA017E10EB0E0041EB11114FEAE1
:100AA000102E4EEA016E10EB0E0041EB11214FEAC1
:100AB000104E4EEA014E10EB0E0041EB1141401872
:100AC00041F100014FEAD00040EA41704FEAD10104
:100AD00010EB80054FEA810444EA907444EB010472
:100AE0006D1944EB0404521BA3414FF0000348BFAF
:100AF0000A3200D530BD401C41F1000130BD00007C
:100B00002DE9F0411F46044603260168072A01F437
:100B1000006004DB08B116A505E016A503E008B1E6
:100B200015A500E015A521F010002060A069C01EE9
:100B3000A0610FB1401EA0612046AFF300804FB10D
:100B4000D4E9012138469047206A401C2062C01C2D
:100B5000206206E0206AFAE7D4E9012115F8010BCA
:100B60009047761EF8D22046AFF30080BDE8F081B2
:100B70004E414E006E616E00494E4600696E660041
:100B80002DE9F047814616468AB0354878440DC8AD
:100B90008DE80D0032487844801C03AC0DC884E811
:100BA0000D0041F69B300844372190FBF1F290FB99
:100BB000F1F5A5F1800501FB12041B3C02D564424E
:100BC000012000E00020DFF898A080460027FA44CA
:100BD000AAF1BE0A0EE0E0070AD03246684607EBEB
:100BE000470101230AEB810100F046FB8DE8070075
:100BF00064107F1C002CEED1194F7F44AE3F19E0EA
:100C0000E80715D007EB04100DF1180A90E80E0064
:100C10008AE80E00C068F04201D198190890324667
:100C2000012306A903A800F027FB03AB83E8070014
:100C30006D10641C002DE3D14FF00103324669466C
:100C4000B8F1000F03A802D000F001FB01E000F0B2
:100C500013FBC9E90001C9F808200AB0BDE8F08714
:100C6000A067000000487047C00200207546FFF7EB
:100C7000F9FFAE4605006946534620F00700854659
:100C800018B020B5FFF718FBBDE820404FF0000674
:100C90004FF000074FF000084FF0000B21F0070164
:100CA000AC46ACE8C009ACE8C009ACE8C009ACE8A7
:100CB000C0098D46704710B50446AFF3008020464A
:100CC000BDE81040FFF7E4BA4FF0013C50F8042BA8
:100CD00051F8043B9A4221D1A2EB0C03934313EA4F
:100CE000CC1317D150F8042B51F8043B9A4215D17C
:100CF000A2EB0C03934313EACC130BD150F8042B53
:100D000051F8043B9A4209D1A2EB0C03934313EA36
:100D1000CC13DBD04FF00000704700BFD01A01BAEF
:100D2000B1FA81F101F0180122FA01F0CB40C1F1D2
:100D30002001DBB2C0B2C01A2CFA01F3D11A9143E0
:100D400011EAC311E6D1704701491820ABBEFEE796
:100D50002600020070475FEA400C08BF91F0000FC8
:100D60004FEA8C234FEAC12243EA51514FEA1C500B
:100D700018BF00F5F0404FEA300018BF41F00041C5
:100D80005FEA6C5C00F02980BCF1FF3F08BF40F0D7
:100D900080407047130C06BF12044FF0100C4FF048
:100DA000000C130E04BF12020CF1080C130F04BF49
:100DB00012010CF1040C930F04BF92000CF1020C11
:100DC000D30F04BF52000CF1010C11464FF000028A
:100DD000A0F11F00A0EB0C00704711F0004F08BFFE
:100DE000704731F000413FF4D5AF0B0C06BF09044A
:100DF0004FF0100C4FF0000C0B0E04BF09020CF169
:100E0000080C0B0F04BF09010CF1040C8B0F04BF7D
:100E100089000CF1020CCB0F04BF49000CF1010C4E
:100E2000CCF12003A0EB0C0022FA03F302FA0CF23F
:100E300041EA030100F10100704720F07F4C80EA95
:100E4000030023F07F47ACEB070303F57C5300F06E
:100E5000004003F1FF032DE980494FEA154B09B427
:100E60004FEA144325EA0B4E24EA03480FF2042606
:100E700006EB132749083E785FEA320203FB066758
:100E8000C7F5000707FB06F64FEA54374FEAD64688
:100E900006F1020607FB066CCCF1005C4FEA1C472A
:100EA0002CEA074C07FB06F40CFB06F504EB154691
:100EB0004FEA961634BF00204FF000404FEAD1377A
:100EC00006FB07FC4FEA1C4C0CFB0BF7D21B03FB89
:100ED0000CF761EB07010CFB0EF7B0EB074072EB70
:100EE00017420CFB08F734BFA2EB0742B2EB0742F4
:100EF00061EB17414FEA0C444FEA910706FB07FCF0
:100F00004FEA1C4C0CFB0BF7B0EBC74072EB5732AF
:100F100003FB0CF734BFA2EBC742B2EBC74261EB55
:100F200057310CFB0EF7B0EBC70072EB57720CFB9E
:100F300008F734BFA2EBC702B2EBC70261EB5771EF
:100F4000039F4FEA816141EA921104EBCC044FEA1E
:100F5000D1374FEA826206FB07FC42EA90124FEA61
:100F600080604FEA1C4C0CFB0BF7D21B03FB0CF709
:100F700061EB07010CFB0EF7B0EB074072EB174279
:100F80000CFB08F734BFA2EB0742B2EB074261EB60
:100F900017414FEA8C554FEA910704EB9C2406FB5E
:100FA00007FC4FEA1C4C0CFB0BF7B0EBC74072EB95
:100FB000573203FB0CF734BFA2EBC742B2EBC74278
:100FC00061EB57310CFB0EF7B0EBC70072EB5772B9
:100FD0000CFB08F734BFA2EBC702B2EBC70261EB10
:100FE000577115EB4C254FEA816141EA92114FEAA6
:100FF00082624FEAD13742EA901206FB07FC44F1C5
:1010000000044FEA80604FEA1C4C0CFB0BF7D21B2C
:1010100003FB0CF761EB07010CFB0EF7B0EB07408D
:1010200072EB17420CFB08F734BFA2EB0742B2EB9E
:10103000074261EB174115EB1C154FEA813141EA7C
:1010400092414FEA823242EA90424FEA80304FEAC0
:101050000C7644F1000448EA03434EEA0B484FF093
:10106000000EB2EB080C71EB030724BF6246394651
:101070004EEB0E0E4FF0000B0018524149414BEB66
:101080000B0BB2EB080C71EB03077BF1000B24BFD9
:10109000624639464EEB0E0E4FF0000B00185241DF
:1010A00049414BEB0B0BB2EB080C71EB03077BF1E7
:1010B000000B24BF624639464EEB0E0E51EA020782
:1010C00018BF46F0010616EB0E7655F1000254F1FA
:1010D000000103D5BDE88901BDE80088BDE88901AC
:1010E000BDE80048B619524141EB0101A3F10103EB
:1010F000704780807F7E7D7C7B7A79787776767585
:101100007473727171706F6E6E6D6C6C6B6A6A69FC
:101110006868676666656464636362616160605F96
:101120005F5E5E5D5D5C5C5B5B5A5A59595858570F
:101130005756565555555454535352525251515077
:1011400050504F4F4F4E4E4D4D4D4C4C4C4B4B4BCA
:101150004A4A4A4949494848484747474746464610
:10116000454545444444444343434342424242414B
:101170004141002B9C4630D477002BD01CB54FEA60
:10118000370703B44FF010004FF01001BAF1000F11
:1011900006D0BCF1000FDCBF40F0080040F00801B1
:1011A0004FF000000FBCBDE810400BF1010BBBF18C
:1011B000010F08BF5FEA170722BF12F1010211F108
:1011C00001014FF0004143F1000300F0004043EA09
:1011D00000007047F9D35708D0E746EA064613F1F6
:1011E000400F4FEA16461FDD13F1200FDFBF1643F5
:1011F0000A46002120335B42BED0C3F1200746EAF5
:10120000064602FA07F74FEA164646EA0706C3F112
:10121000200722FA03F201FA07F721FA03F14FF04F
:10122000000342EA0702A7E746EA020646EA064644
:101230004FEA164646EA0106BCBF46EA0646360CA9
:101240004FF000034FF000024FF0000194E72DE94A
:10125000804C9A46934670B491E8380007C831EA4A
:10126000400C48BF34EA430C03D5FFF7E6FDFFF717
:1012700080FFF0BCBDE8008C2DE9804C9A46934677
:1012800070B491E8380007C810F0804F08BF13F021
:10129000804F03D100F005F8FFF76BFFF0BCBDE80D
:1012A000008C20F07F4780EA030023F07F4C07EB9F
:1012B0000C03A3F57C5300F00040A3F1FE0392F071
:1012C000000F00F0B38095F0000F00F077802DE95B
:1012D00001494FEA11404FEA144621EA004800FB59
:1012E00006FC24EA064708FB06F607FB08F800FBA5
:1012F00007F718EB06484CEB164C4FEA124B18EB6D
:1013000007484FEA15464CEB174022EA0B4E0BFB01
:1013100006FC25EA06470EFB06F607FB0EFE0BFB56
:1013200007F71EEB064E4CEB164C4FF000061EEB7B
:10133000074E4CEB174B18EB0B0840F1000018EB75
:101340000E0B58EB000840F100008F1A4FF000011F
:101350003CBFC943661B14BFB5EB040C00213CBF66
:10136000C943F61B4FEA17444EEA8E0E27EA04459E
:101370004FEA1C4704FB07622CEA074C05FB07F702
:101380000CFB05F604FB0CFC16EB074642EB174280
:1013900016EB0C4642EB1C421BEB060658EB020216
:1013A000414146EA9E0601D5BDE80189B619524180
:1013B00041EB0101A3F10103BDE801894FEA1445A6
:1013C0004FEA114724EA054621EA074C05FB07F4DA
:1013D00006FB07F70CFB06F105FB0CFC11EB0741C4
:1013E00044EB17444FEA124711EB0C4144EB1C4409
:1013F00022EA074C05FB07F206FB07F70CFB06F693
:1014000005FB0CFC16EB074642EB174216EB0C46AD
:1014100042EB1C456A1854F1000148BF7047B619E9
:10142000524141EB0101A3F10103704795F0000F18
:1014300037D04FEA11424FEA144721EA024624EA24
:10144000074C02FB07F106FB07F70CFB06F402FB57
:101450000CFC14EB074441EB17414FEA154714EB22
:101460000C4441EB1C4125EA074C02FB07F506FB47
:1014700007F70CFB06F602FB0CFC16EB074645EBE8
:10148000174516EB0C4645EB1C42121951F10001B1
:1014900048BF7047B619524141EB0101A3F1010366
:1014A00070474FEA14454FEA114724EA054621EAFE
:1014B000074C05FB07F106FB07F70CFB06F24FF0A4
:1014C000000605FB0CFC12EB074241EB174112EB47
:1014D0000C4251EB1C4148BF7047921841EB01018F
:1014E000A3F101037047000070B50446206803F0C3
:1014F00016F888BB206880681849084048B1E06D3C
:1015000040F01000E065206E40F0010020660120F0
:1015100070BD206802F0E8FF00F032FE054615E0DD
:10152000206802F0FCFF10B9206802F0DDFF00F037
:1015300027FE401B022809D9E06D40F01000E0654D
:10154000206E40F0010020660120E1E7206800687D
:1015500000F001000028E3D00020D9E73F00008020
:1015600000BFFEE77047002109E0002201E0531CA4
:101570009AB240F6B8339A42F9DB4B1C99B28142D9
:10158000F3DB704772B600BFFEE700002DE9F84FAD
:1015900005460C464FF0000A00200090FE49E06826
:1015A000884200D000E000BF00BF95F85800012835
:1015B00002D10220BDE8F88F012085F8580000BF55
:1015C000286802F0B6FF00287DD12968D4E9002000
:1015D00001F1300CC0F3012B0CEB8B03D3F800C0EE
:1015E00000F01F0E4FF01F0B0BFA0EFB2CEA0B0C3A
:1015F00000F01F0BC2F3846E0EFA0BFE4CEA0E0CC9
:10160000C3F800C000BF286802F093FF8146286835
:1016100002F080FF8046B9F1000F64D1B8F1000FED
:10162000FBD1A068B0F1004F0AD1216800222868E0
:1016300002F08CFF4FF00041286802F0ACFF08E098
:10164000A2682168286802F081FF0021286802F062
:10165000A2FF60692968C968C1F3C101490000FAA5
:1016600001F7206904283FD028682268216900F129
:10167000600C0CEB8103D3F800C0DFF820B30CEA58
:101680000B0C02F0F84B4BF0004B4BEA070B4CEA0B
:101690000B0CC3F800C000BF2868A269216900F1E3
:1016A000600C0CEB8103D3F800C02CF0807C4CEA7A
:1016B000020CC3F800C000BF2868227F2169012AFC
:1016C00002D1520601E0C5E10022134600F1600C90
:1016D0000CEB8102D2F800C02CF0007C4CEA030C29
:1016E000C2F800C000BFA7E00021286802F009FF8F
:1016F000C0F3120030B90021286802F002FFC0F3E5
:10170000846007E00021286802F0FBFE90FAA0F058
:10171000B0FA80F02168C1F3120119B92168C1F350
:10172000846104E0216891FAA1F1B1FA81F1884263
:1017300004D100221146286802F022FF0121286806
:1017400002F0DFFEC0F3120030B90121286802F078
:10175000D8FEC0F3846007E00121286802F0D1FEC2
:1017600090FAA0F0B0FA80F02168C1F3120119B923
:101770002168C1F3846104E0216891FAA1F1B1FA12
:1017800081F1884204D100220121286802F0F8FE8C
:101790000221286802F0B5FEC0F3120030B9022120
:1017A000286802F0AEFEC0F3846007E002212868DA
:1017B00002F0A7FE90FAA0F0B0FA80F02168C1F321
:1017C000120119B92168C1F3846104E0216891FA1A
:1017D000A1F1B1FA81F1884204D1002202212868E6
:1017E00002F0CEFE0321286802F08BFEC0F3120047
:1017F00030B90321286802F084FEC0F3846007E05A
:101800000321286802F07DFE90FAA0F0B0FA80F083
:101810002168C1F3120119B92168C1F3846104E0A0
:10182000216891FAA1F1B1FA81F1884204D1002234
:101830000321286802F0A4FE286802F070FE002848
:1018400072D12868E2682168D0F8B030C1F3120C78
:1018500023EA0C0302F0180BDFF844C12CFA0BFC4E
:101860000CEA010C43EA0C03C0F8B03000BF4A494F
:10187000E068884258D12368C3F312031BB9236878
:10188000C3F3846304E0236893FAA3F3B3FA83F306
:101890005B1C03F01F03092B3ED82368C3F312031C
:1018A0001BB92368C3F3846304E0236893FAA3F3AA
:1018B000B3FA83F35B1C03F01F034FF0010C0CFA27
:1018C00003FC2368C3F312031BB92368C3F38463C7
:1018D00004E0236893FAA3F3B3FA83F35B1C03F0E9
:1018E0001F034CEA836C2368C3F312031BB92368FC
:1018F000C3F3846304E0236893FAA3F3B3FA83F396
:101900005B1C03F01F0303EB43034FF0000B4BEA98
:1019100003534CEA030347E02368C3F3120323B9DC
:101920002368C3F3846305E043E0236893FAA3F3D9
:10193000B3FA83F35B1C03F01F034FF0010C0CFAA6
:1019400003FC2368C3F312031BB92368C3F3846346
:1019500004E0236893FAA3F3B3FA83F35B1C03F068
:101960001F034CEA836C2368C3F312031BB923687B
:10197000C3F3846304E0236893FAA3F3B3FA83F315
:101980005B1C03F01F030A3B03EB43034FF0007B98
:101990004BEA035306E0000000007F4000F0FF0325
:1019A000FFFF07004CEA03031946A268286802F00B
:1019B000CDFD2F492068084048B300BF2D488068FE
:1019C00000F0E07600BF2C492068884203D02B4904
:1019D000206888421CD106F40000C8B92868B0F11C
:1019E000A04F3DD146F40001224802F0C3FD244837
:1019F00000682449B0FBF1F000EB4000800000904B
:101A000002E00098401E009000980028F9D127E0DD
:101A10001D49206888420CD106F0807048B91B49E6
:101A2000286888421CD046F08071124802F0A2FD5E
:101A300016E017492068884212D106F4800078B970
:101A40001249286888420BD046F48001094802F008
:101A500091FD05E0E86D40F02000E8654FF0010AD7
:101A600000BF002085F8580000BF5046A2E50000E6
:101A70000000088000030050000021C31000C09047
:101A80000C000020400D0300000052C70001005070
:101A9000000084CB01460868006C70472DE9F84FC0
:101AA00004464FF000090020009014B90120BDE861
:101AB000F88F606920B194F82400012800D100BF9C
:101AC000E06D30B9204600F01BF90020206684F854
:101AD000580020688168C1F3407131B12068816885
:101AE000804A1140816000BF00BF206802F01CFDE9
:101AF000A0B9206881687C4A114041F08051816022
:101B000000BF7A4800687A49B0FBF1F0009002E02B
:101B10000098401E009000980028F9D1206802F03B
:101B200003FD48B9E06D40F01000E065206E40F024
:101B3000010020664FF00109206802F0FAFC064619
:101B4000E06D00F0100000287CD1002EFCD1E06D8B
:101B500020F4807040F00200E065206802F0DFFCB5
:101B6000B0B94FF0A04002F0DAFC8246614802F0C2
:101B7000D6FC4AEA000ABAF1000F09D160685E4952
:101B8000896821F47C1101435B4A916000BF00BF6A
:101B9000607FE16B41EA4030E1680843A168084397
:101BA00094F8241040EA014594F82400012803D158
:101BB000208D401E45EA4045E06A28B1A08D00F422
:101BC0007870216B084305432068C0684B49084082
:101BD00028432168C8602068006920F04060616B7C
:101BE000084321680861206802F0A3FC8046206851
:101BF00002F090FC0746B8F1000F50D1F7BB207FF0
:101C0000002141EA803194F8380041EA400520681B
:101C1000C06844F20201884328432168C8602069F3
:101C200088B12068006940F480302168086120682C
:101C3000D0F8C0006FF30D00216908432168C1F896
:101C4000C0000EE045E02068006920F48030216883
:101C500008612068D0F8C0006FF30D002168C1F85A
:101C6000C00094F84000012813D1606C40F00101DD
:101C7000A06C0843E16C0843216D00E00FE00843CD
:101C80002168096940F2FC729143084321680861A8
:101C900005E02068006920F00100216808616069A2
:101CA000012809D12068006B20F00F00216A491E2D
:101CB00008432168086305E02068006B20F00F00EE
:101CC00021680863E06D20F0020040F00100E0654B
:101CD00005E0E06D40F01000E0654FF00109484676
:101CE000E5E60000C0FFFF5FC0FFFF7F0C000020A3
:101CF000400D030000010050000300500740F0FFBA
:101D000010B598B00446142113A8FEF7E8FB44214F
:101D100002A8FEF7E4FB1B49206888422FD1C001CE
:101D200002908003119002A800F096FB08B1FFF723
:101D300029FC00BF1448C06C40F400501249C8642C
:101D40000846C06C00F40050019000BF00BF00BF07
:101D50000846C06C40F00200C8640846C06C00F041
:101D60000200019000BF00BF4FF400401390032019
:101D700014900020159013A9044800F007F918B03A
:101D800010BD000000010050001002400004004897
:101D90002DE9F0410446714802F0AEFB064620688A
:101DA00002F0C7FB00287CD100BF94F8580001283E
:101DB00002D10220BDE8F081012084F8580000BF64
:101DC0002046FFF791FB0546002D6BD1E06D40F6F4
:101DD0000161884340F48070E06561492068884271
:101DE00002D14FF0A04000E020682168884200D076
:101DF0001EB9E06D20F48010E065E06D00F48050C5
:101E000020B1206E20F00600206601E00020206650
:101E10001C202168086000BF002084F8580000BF23
:101E20002068406820F01C0021684860A0690828EC
:101E300006D12068406840F008002168486006E04C
:101E40002068406840F004002168486000BF00BF7F
:101E5000E06B28B92068406840F0100021684860B5
:101E60003F492068884202D14FF0A04000E020683E
:101E70002168884204D01EB1052E01D0092E2FD131
:101E80002068C06800F0007030B3E06D20F40050AE
:101E900040F48050E065A06908280FD120684068B0
:101EA00001E057E051E020F0200021684860206800
:101EB000406840F04000216848600CE020684068BD
:101EC00020F04000216848602068406840F0200011
:101ED0002168486000BF00BF206802F02FFB3AE095
:101EE000E06D40F48010E0651D492068884202D111
:101EF0004FF0A04000E020680746F86800F000704E
:101F000010B3E06D20F4005040F48050E065A0690B
:101F100008280CD12068406820F020002168486023
:101F20002068406840F04000216848600CE020686C
:101F3000406820F04000216848602068406840F018
:101F400020002168486000BF05E000BF002084F841
:101F5000580000E0022528462CE70000000300504E
:101F60000001005070B5044600F00AF90646254607
:101F7000681C10B104480068054400BF00F000F977
:101F8000801BA842FAD370BD0800002078B5034634
:101F90000022D0E0012696400D6805EA0604002CD8
:101FA00072D04D68012D08D04D68022D05D04D68C6
:101FB000112D02D04D68122D13D1986856000325BB
:101FC000B540A8435600CD68B5402843986058688E
:101FD00001259540A8430D79C5F300159540284388
:101FE0005860D86856000325B540A84356008D6850
:101FF000B5402843D8604D68022D02D04D68122D9F
:1020000013D1D60803F1200555F826005507EE0E2A
:102010000F25B540A8435607F60E0D69B540284375
:10202000D60803F1200545F8260018685600032558
:10203000B540A8430D7905F003055600B540284387
:1020400018604D6805F08055B5F1805F72D100BF12
:102050003C4D2D6E45F001053A4E356635462D6EE8
:1020600005F00105009500BF00BF4FEAB6359608A0
:1020700055F8260095072E0F0F25B540A843B3F15C
:10208000904F02D100251AE054E02F4DAB4201D110
:10209000012514E02D4DAB4201D102250FE02C4D5E
:1020A000AB4201D103250AE02A4DAB4201D1042500
:1020B00005E0294DAB4201D1052500E00625960734
:1020C000360FB5402843254D960845F82600244D87
:1020D0002868A0434D6805F48035B5F5803F00D1F0
:1020E00020431F4D28602D1D2868A0434D6805F42E
:1020F0000035B5F5003F00D12043194D2D1D286056
:102100002D1D2868A0434D6805F48015B5F5801F86
:1021100000D12043124D083528602D1D2868A043AA
:102120004D6805F40015B5F5001F00D120430C4D96
:102130000C352860521C0D68D540002D7FF42AAF65
:1021400078BD00000010024000040048000800486C
:10215000000C00480010004800140048080001402E
:1021600000040140024613690B400BB1012000E05E
:10217000002070470AB1816100E081627047000071
:102180000148006870470000000000200348006814
:1021900003490968084401490860704700000020AD
:1021A0000800002010B50024032000F0ABF80F2039
:1021B00000F008F808B1012401E000F02FF82046F3
:1021C00010BD000070B50446002511480068D8B164
:1021D0000F4800684FF47A71B1FBF0F00D490968BF
:1021E000B1FBF0F6304600F001FF58B9102C07D2D1
:1021F00000222146501E00F047F80748046004E022
:10220000012502E0012500E00125284670BD0000FF
:10221000080000200C0000200400002008B500BFCA
:102220000E48006E40F001000C4908660846006E3A
:1022300000F00100009000BF00BF00BF0846806DA5
:1022400040F0805088650846806D00F08050009016
:1022500000BF00BF00F0F6F808BD0000001002400B
:102260000146084600280DDB00BF00BF00F01F0339
:1022700001229A4043099B0003F1E023C3F80021A7
:1022800000BF00BF00BF70472DE9F05F80460D46DC
:10229000164603F0CFF8074639462A46334601F082
:1022A0000700C0F1070ABAF1040F02D94FF0040A7F
:1022B00001E0C0F1070AD14600F1040ABAF1070FA4
:1022C00002D24FF0000A01E0A0F1030AD4464FF019
:1022D000010A0AFA09FAAAF1010A0AEA020A0AFA42
:1022E0000CFA4FF0010B0BFA0CFBABF1010B0BEAF4
:1022F000030B4AEA0B042146404603F0A3F8BDE86D
:10230000F09F000000BF00F00702064B19684FF66F
:10231000FF031940044B0B4343EA0221014B1960B0
:1023200000BF70470CED00E00000FA0502468ABBD2
:102330004148006800F4C060B0F5806F2BD13E4882
:102340008030006820F480703B4BC3F88000184652
:10235000006820F4C06040F40070186037480068DE
:1023600032235843364BB0FBF3F0411C00E0491ECA
:102370003148406900F48060B0F5806F01D10029D8
:10238000F5D12D48406900F48060B0F5806F51D1DF
:102390000320704708E028488030006820F48070EF
:1023A000254BC3F8800045E0B2F5007F3AD12248C2
:1023B000006800F4C060B0F5806F2AD11E488030FC
:1023C000006840F480701C4BC3F880001846006819
:1023D00020F4C06040F40070186018480068322390
:1023E0005843174BB0FBF3F0411C00E0491E124864
:1023F000406900F48060B0F5806F01D10029F5D10B
:102400000D48406900F48060B0F5806F12D1032060
:10241000BFE709488030006840F48070064BC3F87D
:10242000800007E00448006820F4C06040F4806049
:10243000014B18600020ACE7007000400C00002049
:1024400040420F000348806840F4804001498860A2
:1024500070470000007000402DE9F8430446002753
:10246000B846206800F40020B0F5002F73D1B946BB
:10247000D348806D00F0805078B900BFD048806D9F
:1024800040F08050CE4988650846806D00F080504D
:10249000009000BF00BF4FF00109CA48006840F437
:1024A0008070C8490860FFF76BFE064606E0FFF73C
:1024B00067FE801B022801D9032705E0C148006898
:1024C00000F480700028F2D000BF002F46D1BC4835
:1024D0009030006800F44075CDB1206CA84216D051
:1024E000B7489030006820F44075B548D0F89000A7
:1024F00040F48030B249C1F890000846D0F890000E
:1025000020F48030C1F890000846C0F8905005F0E3
:102510000100A0B1FFF734FE064608E0FFF730FEE9
:10252000801B41F28831884201D9032706E0A44884
:102530009030006800F002000028EFD000BF5FB9C3
:102540009F489030006820F44070216C08439C49FB
:10255000C1F8900003E00CE0B84600E0B846B9F1DD
:10256000010F05D19648806D20F080509449886510
:1025700000BF207800F0010048B191488830006821
:1025800020F00300616808438D49C1F88800207875
:1025900000F00200022809D189488830006820F044
:1025A0000C00A16808438649C1F88800207800F033
:1025B0000400042809D182488830006820F03000E7
:1025C000E16808437E49C1F88800207800F00800DF
:1025D000082809D17A488830006820F0C0002169B5
:1025E00008437749C1F88800207800F020002028AF
:1025F00009D173488830006820F44060616908435D
:102600006F49C1F88800207800F04000402809D1C7
:102610006B488830006820F44050A169084368493D
:10262000C1F88800207800F08000802809D1644833
:102630008830006820F44040E16908436049C1F8EF
:102640008800208800F48070B0F5807F09D15C4854
:102650008830006820F44030216A08435849C1F8A6
:102660008800208800F40070B0F5007F09D154483C
:102670008830006820F44020616A08435049C1F85E
:102680008800208800F48060B0F5806F13D14C483A
:102690008830006820F44010A16A08434849883116
:1026A0000860A06AB0F5801F05D14548C06840F4B5
:1026B00080104349C860208800F40060B0F5006FC6
:1026C00013D13F488830006820F44000E16A084395
:1026D0003B4988310860E06AB0F5800F05D1384881
:1026E000C06840F480103649C860208800F48050EB
:1026F000B0F5805F13D132488830006820F0407018
:10270000216B08432E4988310860206BB0F1807F2F
:1027100005D12B48C06840F480102949C860208842
:1027200000F40050B0F5005F13D1254888300068F0
:1027300020F04060616B0843214988310860606B7C
:10274000B0F1006F05D11E48C06840F480101C49EC
:10275000C860208800F48040B0F5804F13D118483D
:102760008830006820F04060A16B0843144988312C
:102770000860A06BB0F1006F05D11148C06840F44B
:1027800080100F49C860208800F40040B0F5004F69
:1027900013D10B488830006820F04050E16B0843AB
:1027A000074988310860E06BB0F1805F05D10448CB
:1027B000C06840F480300249C8604046BDE8F883F4
:1027C00000100240007000402DE9F04104460D4623
:1027D0004FF0000814B90120BDE8F0817D48006881
:1027E00000F00F00A8420ED27A48006820F00F00D7
:1027F0002843784908600846006800F00F00A842A6
:1028000001D00120E8E7207800F00100002864D022
:102810006068032823D17048006800F0007008B990
:102820000120D9E702F0A8F806466C48864237D95D
:102830006948806800F0F00030B1207800F00200B4
:1028400002282DD1A06858BB6348806820F0F000B2
:1028500040F08000604988604FF0800820E06068A8
:10286000022806D15C48006800F4003040B901201D
:10287000B2E75948006800F4806008B90120ABE76E
:1028800000F0B4F806465548864209D95248806897
:1028900020F0F00040F080004F4988604FF0800841
:1028A0004D48806820F00300616808434A49886009
:1028B000FFF766FC074608E0FFF762FCC01B41F229
:1028C0008831884201D9032086E74348806800F0B8
:1028D0000C006168B0EB810FEED1207800F00200AF
:1028E000022820D1207800F00400042805D13A48BD
:1028F000806840F4E06038498860207800F0080083
:10290000082807D13448806820F4605040F4E06023
:10291000314988603048806820F0F000A1680843A1
:102920002D49886008E0B8F1800F05D12A488068F9
:1029300020F0F000284988602648006800F00F0069
:10294000A84219D92348006820F00F0028432149E4
:102950000860FFF715FC074608E0FFF711FCC01BF5
:1029600041F28831884201D9032035E719480068CF
:1029700000F00F00A842F0D1207800F004000428F5
:1029800007D11548806820F4E060E16808431249E7
:102990008860207800F00800082808D10E48806878
:1029A00020F46050216940EAC1000B49886000F0C2
:1029B0001DF809498968C1F30311094A515C01F006
:1029C0001F01C8400749086007480068FFF7FAFB85
:1029D00002E70000002002400010024000B4C404DE
:1029E000CA6000080C0000200400002070B5224DD1
:1029F000AD6805F00C05042D01D120483AE01E4DCC
:102A0000AD6805F00C05082D01D11D4832E01A4DC6
:102A1000AD6805F00C050C2D2BD1174DED6805F0B8
:102A20000304154DED68C5F303156A1C022C0CD088
:102A3000032C09D1124DB5FBF2F50F4EF668C6F323
:102A4000062605FB06F10AE000BF0C4DB5FBF2F5CA
:102A5000094EF668C6F3062605FB06F100BF00BF67
:102A6000054DED68C5F341656D1C6B00B1FBF3F0DE
:102A700000E0002070BD0000001002400024F400BF
:102A800000366E012DE9F843044614B90120BDE873
:102A9000F883207800F00100002865D0FC488068A9
:102AA00000F00C07FA48C06800F003060C2F01D1B3
:102AB000032E01D0082F0AD1F548006800F4003039
:102AC000002851D0606800284ED10120DFE700BF08
:102AD0006068B0F5803F06D1ED48006840F4803072
:102AE000EB4908601AE06068B0F5A02F0BD1E84808
:102AF000006840F48020E64908600846006840F419
:102B0000803008600AE0E248006820F48030E04944
:102B100008600846006820F48020086000BF6068F4
:102B200088B1FFF72DFB054606E0FFF729FB401BA8
:102B3000642801D90320AAE7D548006800F40030D2
:102B40000028F2D010E0FFF71BFB054606E0FFF778
:102B500017FB401B642801D9032098E7CC48006884
:102B600000F400300028F2D1207800F002000228A2
:102B700060D1C748806800F00C07C548C06800F005
:102B800003060C2F01D1022E01D0042F18D1C0480A
:102B9000006800F4806018B1E06808B9012076E7A9
:102BA000BB48406820F0FE40217C40EA0160B84903
:102BB0004860B8480068FFF705FB18B3012066E7D6
:102BC000E06800B3B248006840F48070B049086023
:102BD000FFF7D6FA054606E0FFF7D2FA401B0228B7
:102BE00001D9032053E7AA48006800F48060002858
:102BF000F2D0A748406820F0FE40217C40EA016006
:102C0000A349486016E0A248006820F48070A049FB
:102C10000860FFF7B5FA054606E0FFF7B1FA401B7A
:102C2000022801D9032032E79948006800F4806047
:102C30000028F2D1207800F00800082836D1606919
:102C4000D0B193489430006840F001009049C1F839
:102C50009400FFF795FA054606E0FFF791FA401B4E
:102C6000022801D9032012E789489430006800F057
:102C700002000028F1D019E085489430006820F067
:102C800001008349C1F89400FFF77AFA054606E08F
:102C9000FFF776FA401B022801D90320F7E67C48AB
:102CA0009430006800F002000028F1D1207800F094
:102CB0000400042872D14FF000087548806D01218E
:102CC00021EA107078B100BF7148806D40F08050EB
:102CD0006F4988650846806D00F08050009000BF05
:102CE00000BF4FF001086C48006800F48070B0B974
:102CF0006948006840F4807067490860FFF740FA4F
:102D0000054606E0FFF73CFA401B022801D90320E4
:102D1000BDE66148006800F480700028F2D000BF72
:102D2000A068012808D15A489030006840F001009E
:102D30005749C1F8900021E0A06805280FD15448F8
:102D40009030006840F004005149C1F890000846F6
:102D5000D0F8900040F00100C1F890000EE04C481F
:102D60009030006820F001004949C1F89000084601
:102D7000D0F8900020F00400C1F8900000BFA068D7
:102D8000A8B1FFF7FDF9054609E0FFF7F9F9401B87
:102D900041F28831884202D9032078E625E03C4898
:102DA0009030006800F002000028EED013E0FFF73A
:102DB000E7F9054608E0FFF7E3F9401B41F28831E7
:102DC000884201D9032062E631489030006800F063
:102DD00002000028EFD1B8F1010F05D12C48806D19
:102DE00020F080502A49886500BF207800F020003C
:102DF000202836D1A069D0B125489830006840F02D
:102E000001002349C1F89800FFF7BAF9054606E02A
:102E1000FFF7B6F9401B022801D9032037E61C480A
:102E20009830006800F002000028F1D019E018483E
:102E30009830006820F001001549C1F89800FFF7AC
:102E40009FF9054606E0FFF79BF9401B022801D9D0
:102E500003201CE60E489830006800F002000028AD
:102E6000F1D1E069002860D00948806800F00C00CA
:102E70000C287FD0E069022858D10548006820F06E
:102E8000807003490860FFF77BF905460DE00000FC
:102E9000001002400400002000700040FFF770F9AD
:102EA000401B022801D90320F1E54D48006800F0DD
:102EB00000700028F2D1D4E90810401E41EA001148
:102EC000A06A41EA0021208E0122C2EB500041EAB3
:102ED00040513420005DC2EB500041EA40612C209B
:102EE000005D41EAC0603E49C9683E4A114008435E
:102EF0003B49C8600846006840F08070086008469A
:102F0000C06840F08070C860FFF73AF9054606E0F7
:102F1000FFF736F9401B022801D90320B7E53048F6
:102F2000006800F000700028F2D056E02C480068DD
:102F300020F080702A4908600846C06820F003002D
:102F4000C8600846C068284908402549C860FFF79E
:102F500017F9054607E00DE0FFF712F9401B0228BC
:102F600001D9032093E51E48006800F00070002896
:102F7000F2D132E0E069012800D188E51848C6683E
:102F800006F00301206A814225D106F0F001606A53
:102F9000401EB1EB001F1ED106F4FE41A06AB1EB4A
:102FA000002F18D106F078412C20005DB1EBC06FE6
:102FB00011D106F4C001208E0122C2EB5000B1EB0A
:102FC000405F08D106F0C0613420005DC2EB5000C4
:102FD000B1EB406F01D0012059E5002057E500001A
:102FE000001002400C809F01FFFFEEFE70B504460A
:102FF0002546681EB0F1807F01D301200FE0681ED6
:103000004FF0E02148610F214FF0FF3002F01AFA33
:1030100000204FF0E021886107200861002070BD8A
:10302000704770477047000010B50346002200BF8C
:1030300093F83C00012801D1022010BD012083F843
:103040003C0000BF22F0FF00CC6840EA040222F4FA
:1030500040708C6840EA040222F480604C6840EAC8
:10306000040222F400600C6840EA040222F480505A
:103070000C6940EA040222F400504C6940EA040260
:1030800022F480400C6B40EA040222F470200C8B86
:1030900040EA04421C4C1868A04203D01B4C18683C
:1030A000A04204D122F08050CC6940EA0402164CC0
:1030B0001868A04203D0154C1868A0421BD122F416
:1030C00070000C8D40EA045222F080700C6A40EAD5
:1030D000040222F000704C6A40EA04020A4C1868AC
:1030E000A04203D0094C1868A04204D122F000503D
:1030F000CC6A40EA04021868426400BF002083F8EA
:103100003C0000BF00BF98E7002C014000340140A4
:10311000704770477047000030B502460B4600BF4D
:1031200092F83C00012801D1022030BD012082F834
:103130003C0000BF022082F83D0010684168106822
:1031400084681D4D1068A84203D01C4D1068A84229
:1031500003D121F4700158680143194801401868EF
:10316000014310684160144D1068A84213D01068E4
:10317000B0F1804F0FD0134D1068A8420BD0124D04
:103180001068A84207D00D4D1068A84203D00F4D1B
:103190001068A84205D124F08004986804431068A0
:1031A0008460012082F83D0000BF002082F83C00CE
:1031B00000BF00BFB9E70000002C0140003401400F
:1031C0008FFFFFFD00040040000800400040014068
:1031D000704710B504460CB9012010BD94F83D00AD
:1031E00028B9002084F83C00204600F029F802208D
:1031F00084F83D00211D206801F0EAFD012084F8DB
:10320000480000BF84F83E0001213F2001554020C6
:10321000015541200155422001554320015500BF71
:1032200000BF012084F84400452001554620015587
:103230004720015500BF012084F83D000020CCE765
:1032400010B586B00446142101A8FDF748F920689E
:10325000B0F1804F30D100BF4048806D40F0010098
:103260003E4988650846806D00F00100009000BF6F
:1032700000BF00BF0846C06C40F00100C8640846AB
:10328000C06C00F00100009000BF00BF0220019060
:1032900002900020039004900120059001A94FF0B6
:1032A0009040FEF773FE002211461C20FEF7ECFF53
:1032B0001C20FEF7D5FF4FE029492068884216D12F
:1032C00000BF2648806D40F02000244988650846EC
:1032D000806D00F02000009000BF00BF002211466A
:1032E0003720FEF7D1FF3720FEF7BAFF34E01D4943
:1032F0002068884216D100BF1848006E40F40030A4
:10330000164908660846006E00F40030009000BFC1
:1033100000BF002211461920FEF7B6FF1920FEF764
:103320009FFF19E010492068884215D100BF0B4863
:10333000006E40F48020094908660846006E00F4DB
:103340008020009000BF00BF002211461A20FEF727
:103350009BFF1A20FEF784FF06B010BD001002404C
:10336000001400400044014000480140014691F82B
:103370003D00012801D001207047022081F83D0066
:103380000868C06840F001000B68D860184B0868F6
:10339000984213D00868B0F1804F0FD0154B0868E1
:1033A00098420BD0144B0868984207D0134B08681A
:1033B000984203D0124B0868984210D10868806880
:1033C000104B00EA0302062A0FD0B2F5803F0CD062
:1033D0000868006840F001000B68186005E00868A4
:1033E000006840F001000B6818600020C4E700008E
:1033F000002C01400004004000080040003401405F
:1034000000400140070001002DE9F04104460D464F
:1034100000BF94F83C00012802D10220BDE8F081F1
:10342000012084F83C0000BF022084F83D002068A1
:1034300086683F48064026F47F46206886602868F4
:10344000702824D00CDC00F00F01002964D1001199
:10345000072861D2DFE800F05354555649353F0044
:10346000344A811A90424FD009DCB0F5805F0DD00C
:10347000B0F5005F18D0B0F1101F4DD143E0102916
:1034800043D0202942D0502946D140E045E0D5E93B
:1034900002136A68206801F00AFD2068866846F019
:1034A00077062068866038E0D5E902136A682068EC
:1034B00001F0FDFC2068806840F48040216888604D
:1034C0002BE0EA686968206801F0DCFE5021206882
:1034D00001F0F8FC21E0EA686968206801F024FF47
:1034E0006021206801F0EEFC17E0EA686968206856
:1034F00001F0C8FE4021206801F0E4FC0DE000BFAF
:1035000000BF00BF00BF00BF00BF00BF00BF2968F1
:10351000206801F0D7FC00E000BF00BF012084F864
:103520003D0000BF002084F83C0000BF00BF75E7ED
:1035300088FFCEFF2000100070B504462068B0F16F
:10354000804F11D10421094800F04AFD05460020B2
:103550004FF08041486205EB850000010449B1FB52
:10356000F0F00449086000BF70BD0000C8000020F2
:1035700000B4C4042C0000202DE9F04104460D469F
:10358000164600BF94F83C00012802D10220BDE895
:10359000F081012084F83C0000BF96B9EB68D5E9C2
:1035A0000012206801F082FE2068806920F00C0083
:1035B0002168886120688069A9680843216888615A
:1035C0003DE0042E13D1EB68D5E90012206801F02C
:1035D000BFFE2068806920F440602168886120680F
:1035E0008069A96840EA01202168886127E0082EE7
:1035F00012D1EB68D5E90012206801F0C6FE206800
:10360000C06920F00C002168C8612068C069A96801
:1036100008432168C86112E0EB68D5E90012206810
:1036200001F0CFFE2068C06920F440602168C861C5
:103630002068C069A96840EA01202168C86100BF0C
:10364000002084F83C0000BF00BFA0E710B504468E
:103650000CB9012010BD94F83D0028B9002084F871
:103660003C00204600F029F8022084F83D00211D8E
:10367000206801F0ADFB012084F8480000BF84F809
:103680003E0001213F2001554020015541200155B8
:10369000422001554320015500BF00BF012084F89E
:1036A000440045200155462001554720015500BFE3
:1036B000012084F83D000020CCE770472DE9F0415F
:1036C00004460D4615B994F83E0015E0042D02D1CC
:1036D0003F20005D10E0082D02D14020005D0BE08E
:1036E0000C2D02D14120005D06E0102D02D14220B8
:1036F000005D01E04320005D074615B994F84400E1
:103700000BE0042D02D14520005D06E0082D02D11A
:103710004620005D01E04720005D8046012F02D178
:10372000B8F1010F02D00120BDE8F0811DB90220DF
:1037300084F83E001AE0042D03D102213F200155F8
:1037400014E0082D03D10221402001550EE00C2D7C
:1037500003D102214120015508E0102D03D102219F
:103760004220015502E00221432001551DB90220EB
:1037700084F844000EE0042D03D1022145200155B8
:1037800008E0082D03D102214620015502E0022164
:103790004720015535B1042D0BD0082D10D00C2D2C
:1037A0001CD114E02068C06840F002002168C860A5
:1037B00015E02068C06840F004002168C8600EE091
:1037C0002068C06840F008002168C86007E02068F1
:1037D000C06840F010002168C86000E000BF00BF72
:1037E00001222946206801F051FB184920688842CF
:1037F00013D02068B0F1804F0FD01549206888425F
:103800000BD014492068884207D0134920688842A9
:1038100003D012492068884210D12068806810497E
:1038200000EA0106062E0FD0B6F5803F0CD02068C6
:10383000006840F001002168086005E02068006829
:1038400040F001002168086000206DE7002C014075
:1038500000040040000800400034014000400140E6
:103860000700010010B5044620680069C0F340005D
:10387000D8B12068C068C0F34000B0B16FF002005A
:1038800021680861012020772068806900F003002A
:1038900018B12046FFF750FE05E0204600F052F92F
:1038A000204600F03CFA0020207720680069C0F331
:1038B0008000D8B12068C068C0F38000B0B16FF05C
:1038C000040021680861022020772068806900F4E4
:1038D000407018B12046FFF72FFE05E0204600F0AB
:1038E00031F9204600F01BFA00202077206800699B
:1038F000C0F3C000D8B12068C068C0F3C000B0B148
:103900006FF0080021680861042020772068C069F2
:1039100000F0030018B12046FFF70EFE05E0204638
:1039200000F010F9204600F0FAF900202077206816
:103930000069C0F30010D8B12068C068C0F300105F
:10394000B0B16FF01000216808610820207720686E
:10395000C06900F4407018B12046FFF7EDFD05E0A6
:10396000204600F0EFF8204600F0D9F9002020773B
:103970002068006900F0010058B12068C06800F0BC
:10398000010030B16FF0010021680861204600F0AD
:1039900093FA20680069C0F3C01058B12068C0686D
:1039A000C0F3C01030B16FF080002168086120467C
:1039B000FFF737FB20680069C0F3002058B120688A
:1039C000C068C0F3C01030B16FF480702168086126
:1039D0002046FFF725FB20680069C0F3801058B12E
:1039E0002068C068C0F3801030B16FF040002168DB
:1039F0000861204600F00DFB20680069C0F340100C
:103A000058B12068C068C0F3401030B16FF020009A
:103A1000216808612046FFF705FB20680069C0F3B4
:103A2000005058B12068C068C0F3005030B16FF446
:103A30008010216808612046FFF76BFB2068006951
:103A4000C0F3405058B12068C068C0F3405030B156
:103A50006FF40010216808612046FFF759FB2068C9
:103A60000069C0F3805058B12068C068C0F380502E
:103A700030B16FF48000216808612046FFF74AFBEF
:103A800020680069C0F3C05058B12068C068C0F316
:103A9000C05030B16FF40000216808612046FFF784
:103AA00097FB10BD10B586B00446142101A8FCF7A1
:103AB00016FD2149206888421CD100BF1F48C06CF8
:103AC00040F001001D49C8640846C06C00F00100C8
:103AD000009000BF00BF4020019002200290002013
:103AE000039004900120059001A94FF09040FEF74B
:103AF0004DFA1FE01249206888421BD100BF0F48D1
:103B0000C06C40F001000D49C8640846C06C00F06C
:103B10000100009000BF00BF8020019002200290B1
:103B20000020039004900120059001A94FF09040DF
:103B3000FEF72CFA06B010BD004401400010024010
:103B400000480140704770B504460D46164600BF58
:103B500094F83C00012801D1022070BD012084F8B6
:103B60003C0000BF0C2E51D005DC4EB1042E1ED0FF
:103B7000082E7AD133E0102E60D0142EF9D175E0E2
:103B80002946206801F0AAF92068806940F0080001
:103B9000216888612068806920F0040021688861BC
:103BA00020688069296908432168886177E029468F
:103BB000206801F0E9F92068806940F4006021681C
:103BC00088612068806920F48060216888612068AD
:103BD0008069296940EA0120216888615FE02946FF
:103BE000206801F02BFA2068C06940F008002168C5
:103BF000C8612068C06920F004002168C86120689D
:103C0000C069296908432168C86148E029462068DD
:103C100001F06EFA2068C06940F400602168C86154
:103C20002068C06920F480602168C8612068C0698C
:103C3000296940EA01202168C86130E029462068EE
:103C400001F0B0FA2068006D40F0080021680865B6
:103C50002068006D20F00400216808652068006D70
:103C6000296908432168086519E017E0294620689A
:103C700001F0D0FA2068006D40F40060216808650A
:103C80002068006D20F48060216808652068006D60
:103C9000296940EA01202168086500E000BF00BFF3
:103CA00000BF002084F83C0000BF00BF55E710B5FE
:103CB00004460CB9012010BD94F83D0028B900203D
:103CC00084F83C00204600F029F8022084F83D00EA
:103CD000211D206801F07CF8012084F8480000BF15
:103CE00084F83E0001213F2001554020015541202C
:103CF0000155422001554320015500BF00BF01205E
:103D000084F84400452001554620015547200155BF
:103D100000BF012084F83D000020CCE770477047C9
:103D200070B504460D4615B994F83E0015E0042D13
:103D300002D13F20005D10E0082D02D14020005D3F
:103D40000BE00C2D02D14120005D06E0102D02D1C8
:103D50004220005D01E04320005D012801D00120E8
:103D600070BD1DB9022084F83E001AE0042D03D175
:103D700002213F20015514E0082D03D102214020EB
:103D800001550EE00C2D03D102214120015508E020
:103D9000102D03D102214220015502E002214320CF
:103DA000015535B1042D0BD0082D10D00C2D1CD190
:103DB00014E02068C06840F002002168C86015E087
:103DC0002068C06840F004002168C8600EE02068E8
:103DD000C06840F008002168C86007E02068C0683B
:103DE00040F010002168C86000E000BF00BF012261
:103DF0002946206801F04AF82749206888420FD0F8
:103E00002649206888420BD025492068884207D07F
:103E100024492068884203D023492068884201D180
:103E2000012000E0002028B12068406C40F40040F0
:103E30002168486418492068884213D02068B0F18E
:103E4000804F0FD01949206888420BD0184920684C
:103E5000884207D011492068884203D01049206861
:103E6000884210D120688068124900EA0106062EB7
:103E70000FD0B6F5803F0CD02068006840F00100FC
:103E80002168086005E02068006840F001002168B2
:103E90000860002064E70000002C0140003401406D
:103EA000004001400044014000480140000400403F
:103EB000000800400700010010B52DED028B0446FC
:103EC0003C492068884271D13B480068401C3A490F
:103ED0000860084600683221B0FBF1F201FB1200D5
:103EE000002863D101F0F6FA01F0C8FAB0EE408A7A
:103EF000F0EE608A51EC180B01F0CEFD2F490860FE
:103F00002F48007820BB084690ED000ADFED2D0A0F
:103F100020EE200ADFED2C0A80EE201ABCEEC10A4A
:103F200010EE100A294909684863244890ED000AF8
:103F3000DFED270A20EE200ADFED230A80EE201AAB
:103F4000BCEEC10A10EE100A2249096848632DE050
:103F50001B480078012829D11F48007800EE100A7C
:103F6000B8EE400ADFED170A20EE200ADFED150A51
:103F700080EE201ABCEEC10A10EE100A134909683F
:103F800048631648007800EE100AB8EE400ADFEDEC
:103F9000100A20EE200ADFED0B0A80EE201ABCEE9C
:103FA000C10A10EE100A0B4909684863BDEC028B88
:103FB00010BD00000014004050000020140000203C
:103FC000100000200000C84233335340600100203D
:103FD00000004843AC0100203000002031000020E8
:103FE0000246002031B1042907D0082908D00C2945
:103FF0000CD108E01368586B09E01368986B06E071
:104000001368D86B03E01368186C00E000BF00BFB2
:104010007047704700BFFEE700B585B014216846C1
:10402000FCF75DFA4FF6FF7000900020019003202E
:1040300003900020029069460248FDF7A7FF05B0F3
:1040400000BD00000008004800B585B01421684696
:10405000FCF745FA4FF6FF70009001200190032015
:1040600003900020029069460248FDF78FFF05B0DB
:1040700000BD00000008004870B505460A48006809
:1040800086B200240021084600F05AF900F0A8F991
:1040900000BF03E0284600F067F9641CB4F5963FC2
:1040A000F8D30148066070BD1408004800B587B019
:1040B000142102A8FCF713FA00BF2A48C06C40F094
:1040C00004002849C8640846C06C00F00400019050
:1040D00000BF00BF00BF0846C06C40F00100C864CC
:1040E0000846C06C00F00100019000BF00BF00BF97
:1040F0000846C06C40F00200C8640846C06C00F07E
:104100000200019000BF00BF4FF4487002900120F0
:10411000039000200590049002A91348FDF736FF94
:104120004FF48070029001200390002005900490CD
:1041300002A94FF09040FDF729FFFFF785FF4FF0F0
:104140009040806940F480704FF09041886106484B
:104150001830006840F4087003491831086007B04F
:1041600000BD0000001002400004004870B5054684
:104170000E461446A4F12000C4B204EB44000449E6
:1041800001EB00123146284600F01AF870BD00001D
:10419000E2600008F0B507460C46002540F23F16E5
:1041A00009E0227831463846FFF7E0FFA6F110001B
:1041B00086B2641C6D1C207808B1142DF1D3F0BDBB
:1041C0002DE9F0470646894617461A4800681FFA47
:1041D00080FA00240025A046B0464946404600F03B
:1041E000AFF800BF1EE000F0FBF800250FE037F845
:1041F00014000121A940084020B90F48008800F0B0
:10420000B3F803E00D48008800F0AEF86D1C102DE7
:10421000EDD308F1010000F0FF084946404600F0E8
:104220008FF8641C182CDED30248C0F800A0BDE84B
:10423000F0870000140800485600002054000020B9
:1042400010B50E48006884B2FFF730FF002000F080
:1042500019F80B4908800846008848F23021884246
:1042600002D100F0BDFB01E000F04AFC002000F0AC
:1042700009F8034908800148046010BD140800488B
:104280005800002070B504462748006840F40070CC
:10429000254908600846006840F48070086022489C
:1042A0001038006840F020001F49103908601F488E
:1042B00004601D48006840F020001B49086000BFF2
:1042C00000BF00BF18481038006840F020001649B1
:1042D000103908600846006840F480700860FFF7F5
:1042E0009BFE4FF09040806A40F480704FF0904108
:1042F000886200BF00BF00BF0C48001F006885B285
:104300004FF09040806940F480704FF09041886198
:10431000FFF79AFE04481038006840F40070024924
:1043200010390860284670BD280400481408004869
:1043300001B5BDF800000149088008BD5600002005
:1043400030B504460D462146202000F085F8294668
:10435000212000F081F830BD01B5BDF80000014911
:10436000088008BD540000201B49096841F4007111
:10437000194A116018491039096841F48071164AC8
:10438000103A11601146096841F02001116013498B
:1043900008601149096841F020010F4A116000BF0F
:1043A00000BF00BF0C491039096841F020010A4ADA
:1043B000103A11601146096841F48071116000BF24
:1043C00000BF00BF04491039096841F40071024A76
:1043D000103A116070470000280400481408004893
:1043E0001B48006840F400701949086008460068DE
:1043F00040F48070086016481038006840F02000D3
:1044000013491039086022201249086010480068DA
:1044100040F020000E49086000BF00BF00BF0C48FC
:104420001038006840F0200009491039086008463B
:10443000006840F48070086000BF00BF00BF0448FF
:104440001038006840F40070014910390860704766
:104450002804004814080048214A126842F40072F7
:104460001F4B1A601A46126842F480721A601C4A86
:10447000103A126842F02002194B103B1A60194A98
:104480001060174A126842F02002154B1A6000BFF4
:1044900000BF00BF124A103A126842F02002104BCF
:1044A000103B1A601A46126842F480721A600D4A74
:1044B00011600B4A126842F02002094B1A6000BFDB
:1044C00000BF00BF064A103A126842F02002044BB7
:1044D000103B1A601A46126842F480721A607047E4
:1044E00028040048140800488168024A1140491C09
:1044F00081607047C0FFFF7F0146886800F01F00A1
:104500007047024602F1600000EB8103186800F07A
:10451000F840704701468868C0F3C0007047014604
:10452000886800F00100704701468868C0F3007099
:10453000704701468868C0F3800070478168024A6E
:104540001140091D81607047C0FFFF7F70B500F109
:104550001404C1F3406504EB85031C68C1F30456E1
:104560000725B540AC43C1F3045502FA05F52C43C9
:104570001C6070BD826822F0E0720A43826070475E
:1045800010B500F1600404EB81031C6824F00044C2
:1045900014431C6010BD426922F000420A4342618C
:1045A0007047000000B589B0202101A8FBF797FFF4
:1045B0001A481B4908604002486000211848816081
:1045C000C16001614161042181610021017741776E
:1045D00001210162002180F82410C162016380F88A
:1045E0003810C16380F84010FDF758FA08B1FCF7A5
:1045F000C9FF0C48019006200290002003907F2004
:104600000490042005900020069001A90448FCF7BE
:10461000BDFF08B1FCF7B6FF09B000BD00010050B6
:104620005C0000200080F03E00B587B0142102A895
:10463000FBF755FF00BF3D48C06C40F004003B490C
:10464000C8640846C06C00F00400019000BF00BFC1
:1046500000BF0846C06C40F02000C8640846C06C2B
:1046600000F02000019000BF00BF00BF0846C06CF2
:1046700040F00100C8640846C06C00F001000190E1
:1046800000BF00BF00BF0846C06C40F00200C86415
:104690000846C06C00F00200019000BF00BF00BFE0
:1046A0000846C06C40F00800C8640846C06C00F0C2
:1046B0000800019000BF00BF01224FF47F411C4859
:1046C000FDF758FD012204211A48FDF753FD4FF470
:1046D0007F4002900120039000200490059002A9E1
:1046E0001348FDF753FC01200290002003900120A5
:1046F000049002A94FF09040FDF748FC072002907B
:10470000002003900120049002A90B48FDF73EFC15
:10471000042002900120039000200490059002A93B
:104720000448FDF733FC07B000BD00000010024054
:1047300000080048000C00480004004800B595B08F
:104740001C210EA8FBF7CBFE342101A8FBF7C7FE06
:1047500021482249086041F63F70486000211F4807
:1047600081606321C1600021016141618161FEF7C7
:1047700030FD08B1FCF706FF1848FFF798FA08B1BA
:10478000FCF700FF60200E9000200F901090119019
:1047900012901390149000220EA91048FFF7D3F93D
:1047A00008B1FCF7EFFE0020019002900390049006
:1047B00005904FF400500690002007900D9001A93D
:1047C0000648FEF731FC08B1FCF7DCFE0348FFF7B2
:1047D00069F915B000BD00000044014060010020EF
:1047E00000B595B01C210EA8FBF779FE342101A875
:1047F000FBF775FE21482249086041F63F7048608A
:1048000000211F4881603121C160002101614161A7
:104810008161FEF7DEFC08B1FCF7B4FE1848FFF733
:1048200046FA08B1FCF7AEFE60200E9000200F9013
:104830001090119012901390149000220EA910481D
:10484000FFF781F908B1FCF79DFE0020019002906E
:104850000390049005904FF40050069000200790BC
:104860000D9001A90648FEF7DFFB08B1FCF78AFEB0
:104870000348FFF717F915B000BD000000480140DC
:10488000AC01002000B58BB0002007900890099083
:104890000A90049005900690009001900290039079
:1048A0004FF080401D4908604F20486000211B48A0
:1048B0008160491EC160002101618161FEF789FCB0
:1048C00008B1FCF75FFE4FF48050079007A913482A
:1048D000FEF79AFD08B1FCF755FE1048FEF7B6FE4C
:1048E00008B1FCF74FFE00200490069004A90B4885
:1048F000FEF712FC08B1FCF745FE002000900120F5
:104900000190002002900390042269460348FEF7BC
:1049100033FE08B1FCF736FE0BB000BDC800002026
:104920000EB500200090019002900E480E490860DC
:104930004F20486000210C48816040F2E731C1609F
:1049400000218161FEF745FC08B1FCF71BFE002049
:104950000090029069460448FEF7DEFB08B1FCF7C0
:1049600011FE0EBD001400401401002000BFFEE740
:1049700000BFFEE77047000070B5164DED6805F00A
:104980000304144DED68C5F303156B1C022C0CD009
:10499000032C09D1104DB5FBF3F50E4EF668C6F3A6
:1049A000062605FB06F10AE000BF0C4DB5FBF3F54A
:1049B000084EF668C6F3062605FB06F100BF00BFE9
:1049C000044DED68C5F341656D1C6A00B1FBF2F062
:1049D00070BD00000010024000366E010024F4009B
:1049E00000B501210020FFF737FD4FF47A70FCF786
:1049F000BAFD00210120FFF72FFD41F29071102038
:104A0000FFF72AFD4FF41C516020FFF725FD01211F
:104A10006120FFF721FD02214620FFF71DFD48F22E
:104A200010011320FFF718FD48F2FE011220FFF7D6
:104A300013FD4FF4A0610220FFF70EFD41F230019B
:104A40000320FFF709FD40F203313020FFF704FD9A
:104A500040F203313120FFF7FFFC40F203313220F6
:104A6000FFF7FAFC4FF440713320FFF7F5FC032108
:104A70003420FFF7F1FC40F203313520FFF7ECFC66
:104A800014213620FFF7E8FC40F203313720FFF70E
:104A9000E3FC40F203313820FFF7DEFC40F2033143
:104AA0003920FFF7D9FC4FF440713A20FFF7D4FCCE
:104AB00003213B20FFF7D0FC40F203313C20FFF7FD
:104AC000CBFC4FF4A0513D20FFF7C6FC4FF4007122
:104AD0009220FFF7C1FC40F203319320FFF7BCFCAA
:104AE00040F60D019020FFF7B7FC41F218010320BA
:104AF000FFF7B2FC40F273110720FFF7ADFC00BDD9
:104B000010B543F20801E320FFF7A6FC1221E720CD
:104B1000FFF7A2FC41F23121EF20FFF79DFC0021BD
:104B20000120FFF799FC4FF4E0610220FFF794FCAD
:104B300041F230010320FFF78FFC00210420FFF732
:104B40008BFC40F207210820FFF786FC002109209A
:104B5000FFF782FC00210A20FFF77EFC00210C20D9
:104B6000FFF77AFC00210D20FFF776FC00210F20D3
:104B7000FFF772FC00211020FFF76EFC07211120C7
:104B8000FFF76AFC00211220FFF766FC00211320CA
:104B9000FFF762FCC820FDF7E5F941F290611020B3
:104BA000FFF75AFC40F227211120FFF755FC322075
:104BB000FDF7D8F91D211220FFF74EFC3220FDF73A
:104BC000D1F94FF400611320FFF746FC142129208E
:104BD000FFF742FC0B212B20FFF73EFC3220FDF7B4
:104BE000C1F900212020FFF737FC00212120FFF729
:104BF00033FC07213020FFF72FFC40F207713120F2
:104C0000FFF72AFC06213220FFF726FC40F2047150
:104C10003520FFF721FC41F604713620FFF71CFC1C
:104C200004213720FFF718FC00213820FFF714FC7F
:104C300040F206713920FFF70FFC40F201713C2071
:104C4000FFF70AFC0F213D20FFF706FC0021502052
:104C5000FFF702FCEF215120FFF7FEFB002152205D
:104C6000FFF7FAFB40F23F115320FFF7F5FB4FF43B
:104C70001C516020FFF7F0FB01216120FFF7ECFBE6
:104C800000216A20FFF7E8FB00218020FFF7E4FB0A
:104C900000218120FFF7E0FB00218220FFF7DCFBF1
:104CA00000218320FFF7D8FB00218420FFF7D4FBED
:104CB00000218520FFF7D0FB10219020FFF7CCFBCF
:104CC00000219220FFF7C8FB03219320FFF7C4FBCC
:104CD0004FF488719520FFF7BFFB00219720FFF765
:104CE000BBFB00219820FFF7B7FB41F2180103201E
:104CF000FFF7B2FB40F273110720FFF7ADFB10BDC9
:104D0000704710B5FDF742FA10BD00B593B03821D9
:104D100005A8FBF7E4FB14216846FBF7E0FB4FF422
:104D20000070FDF703FB01200590000406900220AF
:104D30000C9003210D910E9114210F9102211091DD
:104D40001191129105A8FDF79DFE08B1FCF71AFC20
:104D50000F20009003200190002002900390049007
:104D600002216846FDF730FD08B1FCF70BFC13B0DB
:104D700000BD00000548006840F470000349086069
:104D80004FF00060014980390860704788ED00E00D
:104D900010B50248FEF766FD10BD0000AC01002012
:104DA00010B50248FEF75EFD10BD00006001002056
:104DB00010B50248FEF756FD10BD0000C8000020E7
:104DC00010B50248FEF74EFD10BD00001401002092
:104DD00010B50268264B98420BD0B0F1804F08D036
:104DE000244B984205D0244B984202D0234B984242
:104DF00003D122F070024B681A431D4B984214D025
:104E0000B0F1804F11D01B4B98420ED01A4B9842F4
:104E10000BD01A4B984208D0194B984205D0194B29
:104E2000984202D0184B984203D122F44072CB68CA
:104E30001A4322F080034C6943EA040202608B6843
:104E4000C3620B6883620A4B98420BD00B4B9842AB
:104E500008D00B4B984205D00A4B984202D00A4B1F
:104E6000984201D10B6903630123436110BD000027
:104E7000002C0140000400400008004000340140C4
:104E800000400140004401400048014030B501F0BD
:104E90001F05012404FA05F3046A9C430462046AB2
:104EA00001F01F0502FA05F52C43046230BD30B550
:104EB0000C46816821F47F4142EA032525432943BA
:104EC000816030BD0A468168034B194042F00703F8
:104ED00019438160704700008FFFCFFF30B5056A2E
:104EE00025F001050562026A43688469204D2C4063
:104EF00024F003040D682C4322F002028D682A433B
:104F00001C4DA84200D10FE01B4DA84200D10BE080
:104F10001A4DA84200D107E0194DA84200D103E084
:104F2000184DA84206D100BF22F00802CD682A43DE
:104F300022F004020F4DA8420BD00F4DA84208D01A
:104F40000E4DA84205D00E4DA84202D00D4DA842EC
:104F500007D123F4807323F400734D692B438D69CB
:104F60002B43436084614D684563026230BD00009D
:104F70008FFFFEFF002C0140003401400040014043
:104F8000004401400048014030B5056A25F0100595
:104F90000562026A43688469224D2C4024F44074FF
:104FA0000D6844EA052422F020028D6842EA0512C9
:104FB0001D4DA84200D10FE01C4DA84200D10BE0CE
:104FC0001B4DA84200D100BF1A4DA84200D100BF1E
:104FD000194DA84207D106E022F08002CD6842EACE
:104FE000051222F04002104DA8420BD00F4DA842EE
:104FF00008D00F4DA84205D00E4DA84202D00E4D4C
:10500000A84209D123F4806323F400634D6943EA85
:1050100085038D6943EA8503436084614D68856338
:10502000026230BDFF8FFFFE002C014000340140C2
:1050300000400140004401400048014030B5056A8D
:1050400025F480750562026A4368C469224D2C40CC
:1050500024F003040D682C4322F400728D6842EAA8
:1050600005221E4DA84200D10FE01D4DA84200D1DF
:105070000BE01C4DA84200D100BF1B4DA84200D13F
:1050800000BF1A4DA84207D106E022F40062CD68A5
:1050900042EA052222F48062104DA8420BD0104D46
:1050A000A84208D00F4DA84205D00F4DA84202D00B
:1050B0000E4DA84209D123F4805323F400534D69C7
:1050C00043EA05138D6943EA05134360C4614D68E3
:1050D000C563026230BD00008FFFFEFF002C01405F
:1050E00000340140004001400044014000480140BC
:1050F00030B5056A25F480550562026A4368C469C3
:10510000224D2C4024F440740D6844EA052422F416
:1051100000528D6842EA05321D4DA84200D10FE0D1
:105120001C4DA84200D10BE01B4DA84200D100BF8E
:105130001A4DA84200D100BF194DA84207D106E080
:1051400022F40042CD6842EA053222F48042104D3A
:10515000A8420BD00F4DA84208D00F4DA84205D051
:105160000E4DA84202D00E4DA84209D123F480432F
:1051700023F400434D6943EA85138D6943EA85139F
:105180004360C4614D680564026230BDFF8FFFFE5D
:10519000002C014000340140004001400044014027
:1051A0000048014030B5056A25F480350562026A81
:1051B0004368046D114D2C400D682C4322F40032DD
:1051C0000D8942EA05420E4DA8420BD00D4DA84272
:1051D00008D00D4DA84205D00C4DA84202D00C4D70
:1051E000A84204D123F480334D6943EA0523436088
:1051F00004654D688564026230BD00008FFFFEFFCC
:10520000002C0140003401400040014000440140B6
:105210000048014030B5056A25F480150562026A30
:105220004368046D114D2C400D6844EA052422F4B6
:1052300000120D8942EA05520D4DA8420BD00D4DCA
:10524000A84208D00C4DA84205D00C4DA84202D06F
:105250000B4DA84204D123F480234D6943EA8523F2
:10526000436004654D68C564026230BDFF8FFFFE78
:10527000002C014000340140004001400044014046
:105280000048014030B50B461446026A056A25F015
:1052900001050562816921F0F00141EA041122F063
:1052A0000A021A438161026230BD000070B50C46EB
:1052B0001546066A26F0010606628169026A154EE5
:1052C000B0420ED0B0F1804F0BD0134EB04208D098
:1052D000124EB04205D0124EB04202D0114EB04232
:1052E00001D1012600E000261EB121F0030129436F
:1052F00001E041F0010121F0F001F02606EA031679
:10530000314322F00A0204F00A063243816102624C
:1053100070BD0000002C0140000400400008004067
:10532000003401400040014030B50B461446056A88
:1053300025F0100505628169026A21F4704141EA95
:10534000043122F0A00242EA03128161026230BD00
:1053500070B50C461546066A26F01006066281698D
:10536000026A21F4407141EA052121F470414FF4B1
:10537000704606EA0336314322F0A002A02606EA70
:10538000041632438161026270BD70B50C46154649
:10539000066A26F480760662C169026A21F003017A
:1053A000294321F0F001F02606EA0316314322F4E6
:1053B00020624FF4206606EA04263243C16102628D
:1053C00070BD70B50C461546066A26F48056066216
:1053D000C169026A21F4407141EA052121F470415A
:1053E0004FF4704606EA0336314322F420424FF46C
:1053F000204606EA04363243C161026270BD00BF36
:10540000FEE703B401984100009850EAC12018BF9C
:1054100004204A0D18BF40F0010040F2FF72B2EBC9
:10542000515F08BF40F00200012808BF052002B00C
:105430007047000002480068C0F302207047000077
:105440000CED00E010B5002804DB0A07130E054A36
:10545000135406E00A07140E034A00F00F031B1F43
:10546000D45410BD00E400E018ED00E030380A2804
:1054700001D20120704700207047000010B52DEDCB
:10548000048B0F48FCF784FC0D48FCF703FB044633
:10549000204600F08BFC41EC190B9FED0A0B53ECFE
:1054A000102B00F097FC41EC180B9FED080B53EC10
:1054B000102B00F023FB41EC100BBDEC048B10BD56
:1054C0005C0000206666666666660A4000000000B2
:1054D0000000B04010B501218048FCF743FE804930
:1054E000087002217D48FCF73DFE7E4908700421CA
:1054F0007A48FCF737FE7C49087001214FF0904054
:10550000FCF730FE794908707548007840B9784852
:105510000078012816D1FCF733FE7649086011E0C7
:105520007348007870B9FCF72BFE72490968401A7D
:10553000B0F57A7F03D302206F49087002E00120A2
:105540006D4908706748007840B96C4800780128B8
:1055500016D1FCF715FE6A49086011E0674800782B
:1055600070B9FCF70DFE66490968401AB0F57A7FFC
:1055700003D302206349087002E0012061490870EA
:105580005948007840B960480078012816D1FCF7E6
:10559000F7FD5E49086011E05B48007870B9FCF7E0
:1055A000EFFD5A490968401AB0F57A7F03D302200B
:1055B0005749087002E00120554908704B480078AF
:1055C00040B954480078012816D1FCF7D9FD52495A
:1055D000086011E04F48007870B9FCF7D1FD4E49E2
:1055E0000968401AB0F57A7F03D302204B4908704E
:1055F00002E00120494908703F48007898B13E48D0
:10560000007801280CD146480078401C44490870B5
:10561000087800EBD0714910A0EB4101404A1170AD
:1056200000203549087037480078A8B1354800781F
:1056300001280ED13A48007801280AD1394800786B
:105640000A3038490870084600785A2801DD0A20D7
:10565000087000202B4908702D480078A8B12C480C
:10566000007801280ED12E48007801280AD12E4852
:1056700000780A302C490870084600785A2801DD65
:105680000A2008700020224908702448007898B148
:105690002248007801280CD124480078401C234976
:1056A0000870087800EBD0714910A0EB41011F4A47
:1056B0001170002019490870094800780C490870D9
:1056C000084800780D490870074800780E490870AE
:1056D000064800780F49087010BD0000000400481B
:1056E000320000203300002034000020350000206C
:1056F000360000203C0000204C0000203700002035
:10570000400000204D000020380000204400002010
:105710004E00002039000020480000204F000020EB
:105720001000002030000020310000202800002060
:1057300010B52DED028B20A12648FAF7CFFD26A14A
:1057400024481430FAF7CAFD2A48006800F040FCEB
:1057500041EC180B53EC182B27A11E482830FAF700
:10576000BDFD1DA11B483C30FAF7B8FD29482A4968
:10577000097800EBC10229A116485030FAF7AEFDB6
:1057800015A114486430FAF7A9FD13A11148783027
:10579000FAF7A4FD10A10F488C30FAF79FFD0EA177
:1057A0000C48A030FAF79AFD0BA10A48B430FAF77A
:1057B00095FDBDEC028B10BD2020202020204461EF
:1057C0007461202020202020202020202020202044
:1057D00000000000F80100202020202020202020B0
:1057E00020202020202020202020202020202020B9
:1057F000000000001400002020202020563A252E12
:10580000326656202020202020202020202020200A
:105810000000000018000020280000202020202088
:105820004D6F64653A257320202020202020202001
:10583000202020200000000010B51BA12148FAF70D
:105840004DFD21A11F481430FAF748FD2548027884
:1058500025A11C482830FAF741FD1BA119483C300E
:10586000FAF73CFD2748027827A116485030FAF78E
:1058700035FD15A113486430FAF730FD12A1114827
:105880007830FAF72BFD10A10E488C30FAF726FD80
:105890000DA10C48A030FAF721FD0BA10948B43046
:1058A000FAF71CFD10BD00002020202020205061B0
:1058B0007261202020202020202020202020202055
:1058C00000000000F80100202020202020202020BF
:1058D00020202020202020202020202020202020C8
:1058E0000000000030000020202020205041363AE7
:1058F0002564252520202020202020202020202055
:105900002000000031000020202020205041373AA4
:105910002564252520202020202020202020202034
:105920002000000010B51848007830B9FFF700FFDC
:105930000121022000F02EF809E013480078012828
:1059400005D1FFF779FF0021022000F023F80024A1
:105950000BE004EB84020D4B03EB820104EB4402E9
:10596000D206100EFEF716FC641C0A2CF1DB084868
:10597000007820B90121084600F00CF803E000216E
:10598000012000F007F810BD10000020F8010020F1
:105990002800002070B504460D46012204210E485F
:1059A000FCF7E8FB4DB1601E4FF48072824091B26B
:1059B00000220A48FCF7DEFB08E0601E4FF480720C
:1059C000824091B201220548FCF7D4FB0022042159
:1059D0000148FCF7CFFB70BD000C004800080048F0
:1059E000FCF7E0FBFFF791F9FEF71EFEFEF7DAFD8C
:1059F000FEF748FFFEF794FFFEF7A0FEFEF7F0FE6D
:105A0000002204211448FCF7B5FBFEF719FC002026
:105A1000FEF732FB4FF6FF70FEF79EFC0020FEF70C
:105A200087FC0E48FDF7A2FC04210D48FDF746FE59
:105A300000210C48FEF774F900210B48FEF770F9BD
:105A400032200849096848636420074909684863A7
:105A500001E0FFF767FFFCE7000C0048140100209D
:105A6000C800002060010020AC01002010B5002912
:105A70000AD00878002807D005487844FBF724F9B5
:105A8000002801D0002010BD0248784410BD00005D
:105A9000EE180000E618000021F00042A2F160526A
:105AA000B2F5801F01F0004328BFD2F17F6C0BD903
:105AB0005FEA001C43EAC20242EB507018BF704715
:105AC00028BF20F001007047B2F5801FBCBF184608
:105AD00070474FEA410C1CF5001F02D2084600F047
