:020000040800F2
:10000000F0080020810200082B270008C71F000805
:10001000292700088D050008292C00080000000091
:10002000000000000000000000000000E52A0008B9
:100030008F050008000000002D270008E72A0008AF
:100040009B0200089B0200089B0200089B0200081C
:100050009B0200089B0200089B0200089B0200080C
:100060009B0200089B0200089B0200089B020008FC
:100070009B0200089B0200089B0200089B020008EC
:100080009B02000800000000810500089B02000898
:100090009B0200089B0200089B0200089B020008CC
:1000A0009B0200089B0200089B0200089B020008BC
:1000B0009B0200089B0200089B0200089B020008AC
:1000C0009B0200089B0200089B0200089B0200089C
:1000D0009B0200089B0200089B0200089B0200088C
:1000E0009B0200089B0200089B0200089B0200087C
:1000F0009B0200089B0200089B0200080000000011
:10010000000000009B020008000000009B020008A5
:100110009B020008000000009B0200086D2B0008F5
:100120009B0200089B0200089B0200089B0200083B
:100130009B02000800000000000000009B02000875
:100140009B0200089B020008000000000000000065
:10015000000000000000000000000000000000009F
:100160000000000000000000000000009B020008EA
:100170009B020008000000000000000000000000DA
:10018000000000009B0200080000000000000000CA
:10019000000000000000000000000000000000005F
:1001A00000000000000000009B0200089B02000805
:1001B0009B0200089B0200089B0200080000000050
:1001C000000000009B02000800000000000000008A
:1001D0009B0200089B02000800F002F800F041F8C2
:1001E0000AA090E8000C82448344AAF10107DA4592
:1001F00001D100F036F8AFF2090EBAE80F0013F0A3
:10020000010F18BFFB1A43F001031847C83F000055
:10021000E83F0000103A24BF78C878C1FAD85207E6
:1002200024BF30C830C144BF04680C607047000070
:100230000023002400250026103A28BF78C1FBD8EF
:10024000520728BF30C148BF0B607047642900F0D7
:100250007F80002070471FB502F0C6FE1FBD10B59D
:1002600010BD00F052F91146FFF7F5FF02F046FE0F
:1002700000F070F903B4FFF7F2FF03BC00F078F967
:100280000948804709480047FEE7FEE7FEE7FEE72A
:10029000FEE7FEE7FEE7FEE7FEE7FEE70448054966
:1002A000054A064B70470000512B0008D901000891
:1002B000F0020020F0080020F0040020F0040020EC
:1002C0000FB41CB5074B06AA7B44694600900598FD
:1002D00000F003F90020694600F012F91CBC5DF83B
:1002E00014FB0000350200002DE9F0410E460446E3
:1002F000002020622046E168884730B3252805D0D9
:10030000D4E901219047206A401CF2E7E1682046C9
:1003100000278847050018D0A5F14100192802D808
:1003200020354FF400673246294620462760FFF704
:100330008DFF40B1012804D0F61D26F007060836CF
:10034000D8E7361DD6E72846DAE7206ABDE8F0810F
:100350002DE9F0410646002410687529314616A59E
:1003600010D0AFF30080002802DA404213A507E066
:1003700031688A0701D512A502E0490704D511A505
:10038000012401E0AFF3008000210A2206F12407D6
:1003900009E0B0FBF2FCB0FBF2F302FB1C003030D2
:1003A00078541846491C0028F3D123462A46304683
:1003B000BDE8F04100F032B8000000002D00000060
:1003C0002B000000200000004FF0000200B5134693
:1003D00094469646203922BFA0E80C50A0E80C5065
:1003E000B1F12001BFF4F7AF090728BFA0E80C5016
:1003F00048BF0CC05DF804EB890028BF40F8042B0F
:1004000008BF704748BF20F8022B11F0804F18BF7B
:1004100000F8012B70477047704770472DE9F0478F
:100420000D4699469246044600F124080168880664
:1004300004D5E06921F01001216000E00120A8420C
:1004400001DD471B00E00027A1697A1902EB0900D2
:10045000081AA0612078C00602D42046AFF30080BD
:10046000002608E0D4E901211AF806009047206A26
:10047000401C761C20624E45F4DB2078C0060AD56D
:100480002046AFF3008006E0D4E9012130209047F8
:10049000206A401C2062381EA7F10107F4DC07E047
:1004A000D4E9012118F805009047206A401C206219
:1004B000281EA5F10105F3DC2046AFF3008020786B
:1004C000000602D50220BDE8F0870120FBE700000E
:1004D00001694A1C02610878704700B58FB0CDE908
:1004E00001310021059105497944CDE903101146F8
:1004F0006846FFF7F9FE0FB000BD0000E5FFFFFF03
:100500000A6802F8010B0A607047754600F02CF883
:10051000AE4605006946534620F00700854618B0F0
:1005200020B5FFF7BBFEBDE820404FF000064FF0BE
:1005300000074FF000084FF0000B21F00701AC4618
:10054000ACE8C009ACE8C009ACE8C009ACE8C00937
:100550008D46704710B50446AFF300802046BDE8D5
:100560001040FFF787BE0000004870478C02002053
:1005700001491820ABBEFEE72600020070470000CC
:10058000014800F02DBA000034000020FEE770475B
:10059000002240F6B83306E00021491C89B2994296
:1005A000FBD3521C92B28242F6D3704772B6FEE77A
:1005B0007047704770477047704700002DE9F84F4B
:1005C00000270446009790F85800DFF8DC930D46AA
:1005D000B846012811D0012684F85860206801F03F
:1005E000B3FF60B1E06D40F02000E0655FF001070F
:1005F00084F858803846BDE8F88F0220FBE7D5E93B
:1006000000210C23206803EA91131844036B01F0C6
:100610001F014FF01F0C0CFA01FCC2F3846223EAA5
:100620000C038A4013430363206801F08DFF824668
:10063000206801F085FF5AEA00003CD1AA682968C9
:100640002068B2F1004F37D001F08AFF206841697D
:1006500021F00041416120686969C268C2F3C102AA
:10066000520091402A69042A31D000EB82002B68A5
:10067000026EDFF838C303F0F84302EA0C020B43C2
:100680001A4342F00041016622682869A96902EB19
:100690008000026E22F080720A430266297F206881
:1006A0002A69012910D0002100EB8200026E22F09D
:1006B00000720A4302667DE0002201F051FF2068CB
:1006C000416941F00041C5E74FF00071ECE70021BE
:1006D00001F030FF400320684FF0000172D001F0BC
:1006E00029FF90FAA0F0B0FA80F1286842036ED09A
:1006F00090FAA0F0B0FA80F0814204D100221146B5
:10070000206801F03CFF0121206801F013FF400345
:1007100020684FF001015DD001F00CFF90FAA0F0CD
:10072000B0FA80F12868420359D090FAA0F0B0FAEC
:1007300080F0814204D100220121206801F01FFFD6
:100740000221206801F0F6FE400320684FF002010C
:1007500048D001F0EFFE90FAA0F0B0FA80F12868DE
:10076000420344D090FAA0F0B0FA80F0814204D164
:1007700000220221206801F002FF0321206801F01D
:10078000D9FE400320684FF0030133D001F0D2FEC0
:1007900090FAA0F0B0FA80F1286842032FD090FAC6
:1007A000A0F0B0FA80F0814204D100220321206839
:1007B00001F0E5FE2068816811F0010F22D0ACE065
:1007C00000E004E001F0B6FEC0F384618DE7C0F301
:1007D000846091E701F0AEFEC0F38461A2E7C0F34C
:1007E0008460A6E701F0A6FEC0F38461B7E7C0F31A
:1007F0008460BBE701F09EFEC0F38461CCE7C0F3E8
:100800008460D0E72A7B296850F8B03FC1F3120C0E
:1008100023EA0C0302F0180C654A22FA0CF20A4093
:1008200013430360E968494577D1286841031CD028
:1008300090FAA0F1B1FA81F1491C01F01F010929D8
:100840004FEA403132D8002912D000BF90FAA0F10F
:10085000B1FA81F101F1010101F01F0106FA01F67F
:1008600009D100BFC0F3846109E0C0F38461E3E70C
:10087000C0F38461EEE790FAA0F1B1FA81F101F1E1
:10088000010101F01F0146EA816102D1C0F38460D9
:1008900003E090FAA0F0B0FA80F000F1010000F05F
:1008A0001F0000EB400041EA005132E000290ED069
:1008B00090FAA0F1B1FA81F101F1010101F01F01FB
:1008C00006FA01F606D100BFC0F3846106E0C0F36A
:1008D0008461F1E790FAA0F1B1FA81F101F101012F
:1008E00001F01F0146EA816102D1C0F3846003E098
:1008F00090FAA0F0B0FA80F000F1010000F01F00C3
:100900002C4A00EB400002EB005041EA000141F0AC
:100910000071AA68206801F023FE27482A68024275
:100920003FF466AE25488168254B01F0E0719A429C
:1009300002D0244B9A421BD10B0219D42268B2F187
:10094000A04F7FF455AE826841F4000122F0E072BE
:100950000A4382601C481D490068B0FBF1F000EBBF
:100960004000800000E0401E00900028FBD13FE6E0
:10097000174D184BAA4207D1CD0105D422689A42DF
:10098000F5D041F0807109E0134DAA42EFD14A023F
:10099000EDD422689A42EAD041F48001826822F0C4
:1009A000E0720A43826023E600007F4000F0FF030C
:1009B000FFFF0700000020FE000008800003005039
:1009C000000021C31000C0900C000020400D030067
:1009D000000052C700010050000084CB70477047F0
:1009E0002DE9F05F0446006806684568DFF854B2F8
:1009F000DBF8080000F01F07B0070ED5A8070CD5DC
:100A0000E06DC00603D4E06D40F40060E065204670
:100A1000FFF7CEFD216802200860DFF82CA27007E6
:100A20004FF0A04801D5680703D4300737D5280711
:100A300035D5E06DC00603D4E06D40F40070E0658C
:100A4000206801F085FD20B32068504501D1424661
:100A500000E00246824208D03FB1052F05D0092FA1
:100A600003D0504503D1414602E0C16801E0014690
:100A7000C96889040DD4016809070AD501F064FD2D
:100A800058B3E06D40F01000E065206E40F00100CA
:100A900020662046FFF7A2FF21680C200860B00600
:100AA00001D5A80603D4700658D5680656D5E06D62
:100AB000C00603D4E06D40F40050E0652068C16CCE
:100AC00011F4C07F1AD00021894601F041FD024691
:100AD0002068504514D1434613E02068416821F056
:100AE0000C014160E06D20F48070E065E06DC004B1
:100AF000CFD4E06D40F00100E065CAE70121E3E7F3
:100B00000346834208D03FB1062F05D0072F03D0FC
:100B1000504503D1414602E0C16801E00146C96881
:100B2000B9F1000F04D18B0112D48AB18A040FD419
:100B3000026852060CD589020AD401F001FDE8B31F
:100B4000E06D40F01000E065206E40F0010020668E
:100B50002046FFF72EFD21686020086030060BD587
:100B6000280609D5E06D40F48030E065204600F0AD
:100B700069F9216880200860F0050CD5E8050AD5E0
:100B8000E06D40F40030E0652046FFF714FD216879
:100B90004FF480700860B0050CD5A8050AD5E06D4B
:100BA00040F48020E0652046FFF706FD21684FF401
:100BB00000700860F0062ED5E80600E008E02AD5AF
:100BC000E06BD0B1AFB1DBF8080000F4604013E097
:100BD0002068416821F060014160E06D20F48050A0
:100BE000E065E06DC005B3D4E06D40F00100E06564
:100BF000AEE72068C068C00750B1E06D40F4806087
:100C0000E065206E40F0020020662046FFF7E7FE18
:100C1000216810200860700512D5680510D5E06DB8
:100C200040F48040E065206E40F0080020662168B6
:100C30004FF4806008602046BDE8F05FFFF7BABC63
:100C4000BDE8F09F0003005000010050F8B54FF0E0
:100C5000000504002E46009502D0E06D10B107E0BB
:100C60000120F8BD204600F0EFF8266684F85860B1
:100C700020688168C1F3407119B18168694A1140E7
:100C8000816020688168C1F3007179B98168664A22
:100C9000114041F080518160644865490068B0FBB3
:100CA000F1F000E0401E00900028FBD12068816830
:100CB000C1F3007141B9E16D41F01001E165216EB0
:100CC00041F001012166012501F03EFCE16DC906FC
:100CD00000D430B1E06D40F01000E06501252846F9
:100CE000F8BDE06D20F4807040F00200E0652068FF
:100CF000806810F0010F11D14FF0A04080684D497D
:100D000000F00100896801F00101084306D14A485A
:100D10006168826822F47C120A438260E168E06BB9
:100D2000627F0843A16841EA4231084394F82410E5
:100D300040EA0140012904D1218D404A02EB4141A2
:100D40000843E16A29B101F47871226B014342EA58
:100D500001002168CA683A4B1A400243CA60206801
:100D60000169626B21F0406111430161206801F06B
:100D7000EBFB0646206801F0E3FB30432ED1207FD9
:100D800094F83810800340EA41022068C16844F2B8
:100D9000020399431143C16020690028206801695A
:100DA0000AD041F480310161206850F8C01F2269E7
:100DB0006FF30D01114307E021F4803101612068D8
:100DC00050F8C01F6FF30D01016094F84000012836
:100DD0000CD02068016921F00101016160690128DE
:100DE0002068016B21F00F0111D013E0D4E911014B
:100DF0000843D4E913121143084321680A6940F2F9
:100E0000FC739A43104340F001000861E6E7226A50
:100E1000521E11430163E06D20F0020040F001001A
:100E2000E0655CE7C0FFFF5FC0FFFF7F0C000020B4
:100E3000400D030000010050000300500000FEFFC1
:100E40000740F0FF7047000010B598B00446142129
:100E500011A8FFF7B9FA44216846FFF7B5FA194916
:100E6000206888422BD1C401400500940F90684649
:100E700000F02CFA08B1FFF799FB1348C16C41F45C
:100E80000051C164C16C01F400511691C16C41F074
:100E90000201C164C06C11A900F002001690032089
:100EA000CDE9114000201390084800F023F80022FB
:100EB0000221122000F072F9122000F061F918B03E
:100EC00010BD000000010050001002400004004866
:100ED00070B5044600F0FCF80546601C02D00448DA
:100EE0004068044400F0F4F8401BA042FAD370BDFF
:100EF000000000202DE9FC4FDFF8A0A10023012510
:100F00000AF1040B03244FF00F0C0BF1040EBDE0AB
:100F100005FA03F632406FD04F68012F05D0022F3B
:100F200003D0112F01D0122F17D1D0F808905F00F5
:100F300004FA07F829EA08090097D1F80C8008FAA2
:100F400007F848EA0908C0F808804768B7430E79EF
:100F5000C6F300169E403E434660C6684FEA43080B
:100F600004FA08F7BE4301978F6807FA08F737437A
:100F7000C7604E68022E01D0122E13D1DE0800EB9E
:100F800086060096366A5F07FF0E0CFA07F926EA16
:100F90000906D1F8109009FA07F949EA0609009EF6
:100FA000C6F820900668019FBE430F7907F003073B
:100FB00007FA08F7374307604E68F60065D5384EE4
:100FC000376E47F001073766366E23F0030706F0E9
:100FD00001060096334E3E44B146B6689F074FEA7D
:100FE00017780CFA08F7BE43B0F1904F05D02E4F9A
:100FF000B84204D1012717E047E0002714E02B4F47
:10100000B84201D102270FE0294FB84201D103278E
:101010000AE0284FB84201D1042705E0264FB84224
:1010200001D1052700E0062707FA08F73743C9F87A
:101030000870DAF800605746D1F8048096435FEAFA
:10104000C83800D516433E60DBF800605F46D1F833
:10105000048096435FEA883800D516433E60DEF888
:1010600000607746D1F8048096435FEAC82800D52F
:1010700016433E60094F0C373E68D1F80480964312
:101080005FEA882800D516433E605B1C0A6832FA86
:1010900003F67FF43DAFBDE8FC8F00000004014083
:1010A0000010024000000140000400480008004811
:1010B000000C004800100048001400480069084077
:1010C00000D0012070470AB181617047816270478A
:1010D00001488068704700000000002002488168D5
:1010E00042681144816070470000002010B5002460
:1010F000032000F073F80F2000F008F808B1012475
:1011000001E000F025F8204610BD000070B50E4E3D
:1011100005460024706898B14FF47A71B1FBF0F085
:101120000A490968B1FBF0F000F040FD40B9102D0C
:1011300006D200222946501E00F030F8356000E04B
:101140000124204670BD0000000000200C0000209B
:101150000A4882B0016E41F001010166016E01F0A2
:1011600001010091816D41F080518165806D00F039
:101170008050009002B000F0A1B8000000100240C2
:10118000002809DB00F01F02012191404009800086
:1011900000F1E020C0F8001170470000F0B40E4BE1
:1011A0001B680C46C3F30223C3F10705042D00D9C5
:1011B0000425191D072901D2002300E0DB1E0126AA
:1011C00006FA05F1491E214099409E40761E1640C0
:1011D0003143F0BC01F029BD0CED00E0064900F000
:1011E000070208684FF6FF03184040EA0220034A4E
:1011F00010430860704700000CED00E00000FA05A5
:101200002B492C4B0A6832214A432B4940B1B0F597
:10121000007F086829D020F4C06040F480602CE092
:101220000868C0F34120022804D051F8800F20F450
:10123000807022E0D1F8800020F48070C1F8800036
:10124000086820F4C06040F400700860B2FBF3F05E
:10125000401C00E0401E4A69520501D50028F9D122
:10126000486940050AD503207047C0F34120022891
:1012700006D051F8800F40F480700860002070475D
:10128000D1F8800040F48070C1F88000086820F434
:10129000C06040F400700860B2FBF3F0401C00E056
:1012A000401E4A695205DBD50028F9D1D8E7000075
:1012B0000C00002040420F0000700040024881688E
:1012C00041F4804181607047007000402DE9F8438F
:1012D0000446006800269D4D00035ED5A86D0027DA
:1012E000C00008D4A86D40F08050A865A86D012703
:1012F00000F080500090DFF85892D9F8001041F4C7
:101300008071C9F80010FFF7E3FE804606E000BFD9
:10131000FFF7DEFEA0EB080002282BD8D9F800006A
:10132000C005F5D5D5F8900010F4407014D0216CAC
:10133000814211D0D5F89000D5F8901020F440707B
:1013400041F48031C5F89010D5F8901021F4803127
:10135000C5F89010C5F89000C00711D0FFF7B8FE8F
:10136000804641F2883907E0FFF7B2FEA0EB0801A2
:10137000494501D903260BE0D5F890008007F3D545
:10138000D5F89000216C20F440700843C5F8900017
:101390001FB1A86D20F08050A8652078C00707D045
:1013A000D5F88800616820F003000843C5F888007C
:1013B0002078800707D5D5F88800A16820F00C00B8
:1013C0000843C5F888002078400707D5D5F888007D
:1013D000E16820F030000843C5F888002078000755
:1013E00007D5D5F88800216920F0C0000843C5F86A
:1013F00088002078800607D5D5F88800616920F438
:1014000040600843C5F888002078400607D5D5F825
:101410008800A16920F440500843C5F8880020786E
:10142000000607D5D5F88800E16920F4404008435C
:10143000C5F888002088C00507D5D5F88800216A3E
:1014400020F440300843C5F888002088800507D57F
:10145000D5F88800616A20F440200843C5F8880068
:10146000208840050FD5D5F88800A16A20F44010E7
:101470000843C5F88800A06AB0F5801F03D1E8686A
:1014800040F48010E860208800050FD5D5F888006A
:10149000E16A20F440000843C5F88800E06AB0F52E
:1014A000800F03D1E86840F48010E8602088C00411
:1014B0000FD5D5F88800216B20F040700843C5F89F
:1014C0008800206BB0F1807F03D1E86840F4801081
:1014D000E86020884FF0006180040ED5D5F88800C0
:1014E000626B20F040601043C5F88800606B884252
:1014F00003D1E86840F48010E860208840040ED5ED
:10150000D5F88800A26B20F040601043C5F8880031
:10151000A06B884203D1E86840F48010E86020881E
:1015200000040FD5D5F88800E16B20F04050084347
:10153000C5F88800E06BB0F1805F03D1E86840F443
:101540008030E8603046BDE8F883000000100240BB
:10155000007000402DE9F0470E4605004FF00007EF
:1015600025D0DFF8AC81D8F8000000F00F00B042C1
:101570000CD2D8F8001021F00F013143C8F8001048
:10158000D8F8000000F00F00B04210D12968614C7B
:10159000C80741F2883A5AD06868DFF87C9103287E
:1015A00008D0022820682DD0400500282CDB01201F
:1015B000BDE8F08720688001F9D5E06800F00302FB
:1015C000E068C0F30310401C032A19D0534A00BF3F
:1015D000B2FBF0F0E268C2F306225043E268C2F3C5
:1015E0004162521C5200B0FBF2F0484517D9A06886
:1015F00010F0F00F0CD0880711D5A86840B10EE0AC
:10160000474AE5E78003D0E700F092F8484506D95D
:10161000A06820F0F00040F08000A0608027A06863
:10162000696820F003000843A060FFF751FD814680
:1016300006E000BFFFF74CFDA0EB090151453AD889
:10164000A068696800F00C00B0EB810FF2D1286847
:10165000810714D5400703D5A06840F4E060A0607E
:101660002878000705D5A06820F4605040F4E060B9
:10167000A060A068A96820F0F000084304E0802F73
:1016800003D1A06820F0F000A060D8F80010404618
:1016900001F00F01B14216D9016821F00F01314369
:1016A0000160FFF715FD074607E000BFFFF710FDDB
:1016B000C11B514501D903207AE7D8F8000000F09A
:1016C0000F00B042F2D12878400705D5A068E9683C
:1016D00020F4E0600843A0602878000706D5A068E1
:1016E000296920F4605040EAC100A06000F020F8B1
:1016F000A1680C4AC1F30311515C01F01F01C840FD
:101700000949086009480068BDE8F047FFF7FEBCDA
:10171000002002400010024000B4C4040024F40081
:1017200000366E01F22F00080C000020000000209F
:10173000184910B58868C0F381021748012A0BD0F8
:101740008A68164BC2F38102022A06D08A68C2F365
:101750008102032A03D0002010BD184610BDCA68BC
:1017600002F00304CA68C2F30312521C032C02D015
:10177000B0FBF2F001E0B3FBF2F0CA68C968C2F353
:1017800006225043C1F34161491C4900B0FBF1F00E
:1017900010BD0000001002400024F40000366E016D
:1017A0002DE9F84304007AD02078FA4DC00747D0DD
:1017B000A868E96800F00C0001F003010C2802D0D1
:1017C000082817D001E0032914D06068B0F5803FE5
:1017D00017D0B0F5A02F286817D020F480302860EB
:1017E000286820F4802028606068E0B1FFF770FC72
:1017F000064614E02868800322D560680028D2D00D
:101800001EE0286840F48030EDE740F48020286036
:10181000F7E700BFFFF75CFC801B642870D82868DE
:101820008003F7D50CE0FFF753FC064605E000BF48
:10183000FFF74EFC801B6428F0D828688003F7D49B
:10184000207880074CD5A868E96800F00C0001F00A
:1018500003010C2802D004280DD001E002290AD08F
:10186000E068002828682BD040F480702860FFF7DB
:101870002FFC064619E02868400502D5E0680028DC
:1018800091D06868217C20F0FE4040EA01606860E9
:10189000C1480068FFF73AFC002800D120E076E15B
:1018A000FFF716FC801B0228B8D828684005F7D53A
:1018B0006868217C20F0FE4040EA016068600FE02B
:1018C00020F480702860FFF703FC064605E000BFA7
:1018D000FFF7FEFB801B0228A0D828684005F7D43C
:1018E0002078000729D560690028D5F8940013D026
:1018F00040F00100C5F89400FFF7EAFB064606E059
:1019000090E000BFFFF7E4FB801B022886D8D5F8E3
:1019100094008007F6D510E020F00100C5F894008F
:10192000FFF7D6FB064604E0FFF7D2FB801B022838
:1019300078D8D5F894008007F6D42078400761D590
:10194000A86D0026C00008D4A86D40F08050A8659E
:10195000A86D012600F08050009090480168C905EC
:1019600011D40168804641F480710160FFF7B0FB3B
:10197000074604E0FFF7ACFBC01B022852D8D8F89A
:101980000000C005F6D5A068012815D00528D5F8B7
:10199000900016D020F00100C5F89000D5F8900016
:1019A00020F00400C5F89000A06841F28838B8B172
:1019B000FFF78EFB07460EE0D5F8900040F00100DF
:1019C000F0E740F00400C5F89000F5E7FFF780FB72
:1019D000C11B414526D8D5F890008007F6D50CE00C
:1019E000FFF776FB074604E0FFF772FBC11B41459A
:1019F00018D8D5F890008007F6D41EB1A86D20F055
:101A00008050A8652078800629D5A0690028D5F8DF
:101A1000980013D040F00100C5F89800FFF758FB7C
:101A2000064606E077E000BFFFF752FB801B022866
:101A300077D8D5F898008007F6D510E020F001009F
:101A4000C5F89800FFF744FB064604E0FFF740FBAB
:101A5000801B022865D8D5F898008007F6D4E06985
:101A6000F0B3A968C1F38101032961D00228286875
:101A700020F0807028600BD0E86820F00300E86058
:101A8000E86847490840E860FFF722FB04464BE05E
:101A9000FFF71EFB064604E0FFF71AFB801B022837
:101AA0003FD828688001F7D4F4E908016FF00F02ED
:101AB00002EB01110843218A5204490802EB41510B
:101AC000A26841EA02210843217D4FF07E42490885
:101AD00002EB41610843217B40EAC160E96800E014
:101AE00062E0304A11400843E860286840F08070A6
:101AF0002860E86840F08070E860FFF7E9FA044683
:101B000005E000BFFFF7E4FA001B022809D82868A7
:101B10008001F7D548E004E0FFF7DAFA001B02285D
:101B200002D90320BDE8F88328688001F4D43BE0A3
:101B30000128F7D0E868226A00F00301914226D11B
:101B4000616A00F0F0020901103991421FD1A26AC6
:101B500000F4FE41B1EB022F19D194F82C2000F0D3
:101B60007841B1EBC26F12D1218E00F4C002490856
:101B70004905A1F50011914209D194F8341000F003
:101B8000C06049084906A1F1007181420CD00120D2
:101B9000C8E7000000100240000000200070004074
:101BA000FFFFEEFE0C809F010020BBE710B5401E3A
:101BB000B0F1807F01D3012010BD4FF0E0246061BF
:101BC0000F21601701F031F80020A061072020618B
:101BD000002010BD704770477047704770477047CE
:101BE000F0B590F83C20012A3AD0012580F83C500D
:101BF000022280F83D2003685A689C68194E1A4FEB
:101C0000B34201D0BB4204D122F4700C4A6842EACC
:101C10000C02DFF858C002EA0C02D1F800C04CEA0E
:101C2000020CC3F804C00268B2420DD0B2F1804F7A
:101C30000AD00F4B9A4207D00E4B9A4204D0BA42B8
:101C400002D00D4B9A4204D1896824F080031943D5
:101C5000916080F83D50002180F83C100846F0BDAE
:101C60000220F0BD002C0140003401408FFFFFFD39
:101C7000000400400008004000400140704710B5DB
:101C8000040003D094F83D0010B107E0012010BD1E
:101C9000002084F83C00204600F022F8022084F85E
:101CA0003D00211D206800F067FF012084F84800F6
:101CB00084F83E0084F83F0084F8400084F8410036
:101CC00084F8420084F8430084F8440084F8450016
:101CD00084F8460084F8470084F83D00002010BDD9
:101CE00008B500680B49884212D10B48816D41F05C
:101CF00020018165806D002200F02000009001210C
:101D00003720FFF74BFABDE808403720FFF738BA15
:101D100008BD0000001400400010024090F83D1083
:101D2000012901D001207047022180F83D1001688F
:101D3000CA6842F00102CA600068104988420ED0A9
:101D4000B0F1804F0BD00E49884208D00D4988422F
:101D500005D00D49884202D00C49884207D18168DC
:101D60000B4A1140062906D0B1F5803F03D0016827
:101D700041F001010160002070470000002C01408B
:101D800000040040000800400034014000400140D1
:101D900007000100704770B50446006801694FF004
:101DA0000005C943890715D4C168C943890711D4FF
:101DB000E91E0161012020772068806980072046A4
:101DC00002D0FFF7E7FF04E000F0E3F8204600F060
:101DD000E1F8257720680169C943490717D4C1682C
:101DE000C943490713D46FF0040101610220207731
:101DF0002068806910F4407F204602D0FFF7CAFFB8
:101E000004E000F0C6F8204600F0C4F8257720680A
:101E10000169C943090716D4C168C943090712D427
:101E20006FF008010161042020772068C0698007F5
:101E3000204602D0FFF7AEFF04E000F0AAF82046EB
:101E400000F0A8F8257720680169C943C90617D4AE
:101E5000C168C943C90613D46FF01001016108209D
:101E600020772068C06910F4407F204602D0FFF739
:101E700091FF04E000F08DF8204600F08BF8257704
:101E800020680169C943C90708D1C168C943C907A6
:101E900004D1891E0161204600F07EF820680169A6
:101EA000C943090609D4C168C943090605D46FF0BE
:101EB000800101612046FFF78EFE20680169C94359
:101EC000C90509D4C168C943090605D46FF48071F6
:101ED00001612046FFF77EFE20680169C94349067B
:101EE00009D4C168C943490605D46FF040010161B6
:101EF000204600F067F820680169C943890609D4C3
:101F0000C168C943890605D46FF0200101612046EC
:101F1000FFF762FE20680169C943C90209D4C1689C
:101F2000C943C90205D46FF4801101612046FFF74F
:101F300055FE20680169C943890209D4C168C943B3
:101F4000890205D46FF4001101612046FFF745FEB8
:101F500020680169C943490209D4C168C9434902DB
:101F600005D46FF4800101612046FFF738FE206838
:101F70000169C94309020BD4C168C943090207D4E6
:101F80006FF4000101612046BDE87040FFF776BEA6
:101F900070BD7047704700000068084988420CD146
:101FA00007498869401C88613221B0FBF1F201FBCE
:101FB0001200002801D100F087BE704700140040D5
:101FC000100000207047FEE700B585B01421684678
:101FD000FEF7FAF9C0200090012001900290022043
:101FE000039069460248FEF785FF05B000BD00007A
:101FF0000004004870B50824002500F03BFD13E004
:102000006806050E002000F01DFD142000F01DFEE6
:10201000142000F01AFE012000F014FD142000F03E
:1020200014FE00F01BFD0543641EE4B2E8D200205C
:1020300000F008FD142000F008FE00F03DFD2846E9
:1020400070BD70B50446082516E000F0FBFC1420B6
:1020500000F0FBFD04F0800000F022FD142000F0F1
:10206000F4FD6006040E142000F0EFFD012000F0E6
:10207000E9FC142000F0E9FD6D1EEDB24FF0000008
:10208000E3D200F0DFFCBDE87040142000F0DDBDBD
:1020900010B5012000F004FD142000F0D6FD14203E
:1020A00000F0D3FD012000F0CDFC142000F0CDFDA8
:1020B000002000F0C7FCBDE81040142000F0C5BDB2
:1020C00010B5012000F0ECFC142000F0BEFD012052
:1020D00000F0B8FC142000F0B8FD002000F0E0FC97
:1020E000142000F0B2FD002000F0ACFCBDE8104070
:1020F000142000F0AABD10B5002000F0A3FC1420AD
:1021000000F0A3FD002000F0CBFC142000F09DFDAA
:10211000012000F097FC142000F097FD012000F052
:10212000BFFCBDE81040142000F08FBD10B50524A1
:1021300000F0A0FC142000F088FD012000F082FCDB
:10214000142000F082FD05E0641EA4B2142000F00B
:102150007CFD6CB100F082FC0028F5D100F0ACFCF5
:10216000002000F06FFC142000F06FFD002010BD77
:1021700000F0A2FCFFF7BFFF012010BD00B585B045
:1021800014216846FEF720F94FF6FF7000900020FA
:102190000321CDE90201019069460248FEF7AAFE3B
:1021A00005B000BD0008004800B585B014216846A0
:1021B000FEF70AF94FF6FF7000900120019003200E
:1021C00003900020029069460248FEF793FE05B096
:1021D00000BD00000008004870B5002406462146F6
:1021E000204600F003F900F041F94FF496353046EF
:1021F00000F010F9641CAC42F9D370BD30B587B063
:1022000014216846FEF7E0F81E48C16C41F0040155
:10221000C164C16C01F004010591C16C41F0010180
:10222000C164C16C01F001010591C16C41F0020172
:10223000C164C06C012500F0020005904FF44870A5
:10224000CDE9000500240394694602940E48FEF788
:1022500051FE280203940090CDE901544FF09044C0
:1022600069462046FEF746FEFFF79EFFA06940F450
:102270008070A06104481830016841F40871016061
:1022800007B030BD0010024000040048203AD2B22E
:10229000034B02EB420203EB021200F019B80000FC
:1022A00002300008F0B50E460746002540F23F1404
:1022B00007E021463846FFF7E9FF103C6D1CA4B249
:1022C000761C3278002A01D0142DF2D3F0BD000024
:1022D0002DE9F04791468A460026044600F086F82C
:1022E000DFF84080012700BF00F0C0F85FF0000574
:1022F00039F8160007FA05F10842404601D1408836
:1023000000E0008800F086F86D1C102DF0D3641CEE
:10231000E4B25146204600F069F8761C182EE3D34B
:10232000BDE8F0872C00002010B5FFF767FF002004
:1023300000F014F8084CA080A088A0F502413039C4
:1023400006D000F07DFA002000F008F8A08010BD53
:1023500000F0EDF9F7E700002C00002070B51D49F2
:102360000A6842F400720A600A6842F480720A60E5
:10237000184C103C226842F020022260164A10607D
:10238000086840F02000086000BF00BF00BF206860
:1023900040F020002060206840F480702060FFF74B
:1023A000EDFE4FF09041886A40F48070886200BF73
:1023B00000BF00BF0848001F006885B2886940F46C
:1023C00080708861FFF7F0FE206840F400702060A4
:1023D000284670BD280400481408004801B5BDF81F
:1023E00000000149488008BD2C00002010B50C46B3
:1023F0000146202000F068F82146BDE81040212069
:1024000000F062B801B5BDF800000149088008BDC0
:102410002C000020134A116841F400711160114929
:1024200010390B6843F480730B600B6843F0200392
:102430000B600D4B1860106840F02000106000BF6A
:1024400000BF00BF086840F020000860086840F442
:102450008070086000BF00BF00BF086840F40070D3
:1024600008607047280400481408004814490868A8
:1024700040F400700860086840F4807008601048FC
:102480001038026842F0200202600E4B22221A60CD
:102490000A6842F020020A6000BF00BF00BF016866
:1024A00041F020010160016841F48071016000BFCA
:1024B00000BF00BF016841F4007101607047000077
:1024C0002804004814080048184B10B51A6842F454
:1024D00000721A601A6842F480721A60134A103A45
:1024E000146844F020041460114C2060186840F017
:1024F0002000186000BF00BF00BF106840F020003F
:102500001060106840F4807010602160186840F01E
:102510002000186000BF00BF00BF106840F020001E
:102520001060106840F48070106010BD28040048EE
:102530001408004800EB8100006E00F0F84070477E
:102540008068C0F3C00070478068C0F380007047A7
:10255000C06810F4406F01D0002070470120704720
:10256000042303EAD15310B518444369C1F304515D
:1025700007248C40A3438A401343436110BD00EB02
:102580008100016E21F00041114301667047000097
:1025900030B589B020216846FDF716FF1948184963
:1025A000002401604902C0E90114C46004250461EB
:1025B000C0E90545047744770121016280F8244091
:1025C000C462046380F83840C46380F84040FEF77A
:1025D0003DFB08B1FDF7EAFF0B4800900620CDE96E
:1025E00001047F200594CDE9030569460548FDF700
:1025F000E5FF002801D0FDF7D9FF09B030BD00008C
:1026000000010050340000200080F03EF0B587B09B
:1026100014216846FDF7D8FE2D48C16C41F0040135
:10262000C164C16C01F004010591C16C41F020014D
:10263000C164C16C01F020010591C16C41F0010140
:10264000C164C16C01F001010591C16C41F002014E
:10265000C164C16C01F002010591C16C41F0080137
:10266000C164C06C1B4E00F008004FF47F4405901D
:10267000012221463046FEF726FD174F0122042194
:102680003846FEF720FD0125CDE9004500240294DF
:10269000694630460394FEF72DFCCDE900546946A7
:1026A0004FF090400295FEF725FC07208DE83100A1
:1026B00069460A48FEF71EFC04200090CDE901544B
:1026C000694638460394FEF715FC07B0F0BD0000DC
:1026D0000010024000080048000C004800040048B8
:1026E0003EB500240F48009401940D490294016006
:1026F0004F21C0E9011440F2E7318461C160FFF766
:10270000BEFA08B1FDF752FF0094694605480294ED
:10271000FFF766FA002801D0FDF748FF3EBD000034
:1027200000140040A0000020FEE7FEE7704730B52F
:1027300001210020FFF7C8FE4FF47A70FDF728FF53
:1027400000210120FFF7C0FE41F290711020FFF739
:10275000BBFE4FF41C516020FFF7B6FE0121612043
:10276000FFF7B2FE02214620FFF7AEFE48F210014D
:102770001320FFF7A9FE48F2FE011220FFF7A4FE86
:102780004FF4A0610220FFF79FFE41F230010320C9
:10279000FFF79AFE40F2033421463020FFF794FE03
:1027A00021463120FFF790FE21463220FFF78CFEB4
:1027B000E51E29463320FFF787FE03213420FFF76B
:1027C00083FE21463520FFF77FFE14213620FFF7D8
:1027D0007BFE21463720FFF777FE21463820FFF7A2
:1027E00073FE21463920FFF76FFE29463A20FFF796
:1027F0006BFE03213B20FFF767FE21463C20FFF7DD
:1028000063FE4FF4A0513D20FFF75EFE4FF40071D0
:102810009220FFF759FE21469320FFF755FE40F620
:102820000D019020FFF750FE41F218010320FFF741
:102830004BFEBDE8304040F273110720FFF744BE65
:1028400010B543F20801E320FFF73EFE1221E72016
:10285000FFF73AFE41F23121EF20FFF735FE00216C
:102860000120FFF731FE4FF4E0610220FFF72CFE5C
:1028700041F230010320FFF727FE00210420FFF77B
:1028800023FE40F207210820FFF71EFE0021092049
:10289000FFF71AFE00210A20FFF716FE00210C2088
:1028A000FFF712FE00210D20FFF70EFE00210F2082
:1028B000FFF70AFE00211020FFF706FE0721112076
:1028C000FFF702FE00211220FFF7FEFD002113207A
:1028D000FFF7FAFDC820FEF7FBFA41F290611020E5
:1028E000FFF7F2FD40F227211120FFF7EDFD322026
:1028F000FEF7EEFA1D211220FFF7E6FD3220FEF76B
:10290000E7FA4FF400611320FFF7DEFD14212920C0
:10291000FFF7DAFD0B212B20FFF7D6FD3220FEF763
:10292000D7FA00212020FFF7CFFD00212120FFF75B
:10293000CBFD07213020FFF7C7FD40F207713120A2
:10294000FFF7C2FD06213220FFF7BEFD40F2047101
:102950003520FFF7B9FD41F604713620FFF7B4FDCD
:1029600004213720FFF7B0FD00213820FFF7ACFD30
:1029700040F206713920FFF7A7FD40F201713C20BB
:10298000FFF7A2FD0F213D20FFF79EFD0021502003
:10299000FFF79AFDEF215120FFF796FD002152200D
:1029A000FFF792FD40F23F115320FFF78DFD4FF4EA
:1029B0001C516020FFF788FD01216120FFF784FD95
:1029C00000216A20FFF780FD00218020FFF77CFDB9
:1029D00000218120FFF778FD00218220FFF774FDA0
:1029E00000218320FFF770FD00218420FFF76CFD9C
:1029F00000218520FFF768FD10219020FFF764FD7E
:102A000000219220FFF760FD03219320FFF75CFD7A
:102A10004FF488719520FFF757FD00219720FFF7AD
:102A200053FD00219820FFF74FFD41F218010320CC
:102A3000FFF74AFDBDE8104040F273110720FFF791
:102A400043BD000008B1044801E0034810300168AC
:102A500041F04001016070471804004810B5802122
:102A60000348FEF72BFB012800D0002010BD00001A
:102A70000004004800B585B014216846FDF7A4FCA9
:102A800080200090002001900120029002200390FD
:102A900069460248FEF72EFA05B000BD0004004862
:102AA00008B1044801E003481030016841F080019A
:102AB000016070471804004800B585B014216846CD
:102AC000FDF782FC802000901120019000200290F0
:102AD0000220039069460248FEF70CFA05B000BDDB
:102AE000000400487047FEF7F9BA10B594B03821D9
:102AF0006846FDF769FC14210EA8FDF765FC4FF44C
:102B00000070FEF77DFB0120009000040190022080
:102B10000324CDE907041421CDE90A100C900D908F
:102B200009946846FEF73CFE08B172B6FEE70F2036
:102B3000CDE90E04002010901190129002210EA8F1
:102B4000FEF708FD002801D072B6FEE714B010BDF4
:102B50000548016841F47001016003494FF00060CD
:102B6000803908607047000088ED00E00148FFF7F9
:102B700012B90000A00000202DE9F0430268234BA9
:102B8000234D244E244C4FF08049984207D04845AD
:102B900005D0A84203D0B04201D0A04203D122F018
:102BA00070074A683A431D4FDFF874C0DFF874803D
:102BB00098420DD048450BD0A84209D0B04207D06A
:102BC000A04205D0B84203D0604501D0404503D1B2
:102BD00022F44075CA682A434D6922F080022A43D4
:102BE00002608A68C2620A688262984207D0A04284
:102BF00005D0B84203D0604501D0404501D10969F4
:102C0000016301214161BDE8F0830000002C014017
:102C10000004004000080040003401400040014032
:102C20000044014000480140FEE70907090E002862
:102C300004DB00F1E02080F80014704700F00F0082
:102C400000F1E02080F8141D7047002100E0491CCD
:102C50008142FCD3704710B50446FFF731FAA0203B
:102C6000FFF7EFF9FFF762FA2046FFF7EAF9FFF7FF
:102C70005DFAFFF725FAA120FFF7E3F9FFF756FA0F
:102C8000FFF7B8F90446FFF703FAFFF734FA2046D6
:102C900010BD70B50D460446FFF712FAA020FFF7ED
:102CA000D0F9FFF743FA2046FFF7CBF9FFF73EFADA
:102CB0002846FFF7C6F9FFF739FAFFF71CFABDE817
:102CC00070400A20FEF704B92DE9F05F2A4C01217B
:102CD0002046FEF7F3F9294E022130702046FEF718
:102CE000EDF9707004212046FEF7E8F9B07001217B
:102CF0004FF09040FEF7E2F90024371DDFF88080A6
:102D0000F0704FF47A794FF0020A4FF0010B3D1D3D
:102D1000305D0028385D01D038B112E0012810D1B3
:102D2000FEF7D6F948F824000BE0FEF7D1F958F881
:102D30002410401A484502D905F804A001E005F81E
:102D400004B0641C042CE3DB2978002001B1287056
:102D5000697801B16870A97801B1A870E97801B10A
:102D6000E8703078387070787870B078B870F07833
:102D7000F870BDE8F09F0000000400481A00002031
:102D8000EC00002010B51B4C1BA11D486278FDF71C
:102D900097FA1B48A2781BA12830FDF791FA184832
:102DA000E2781EA15030FDF78BFA1548228915A153
:102DB0007830FDF785FA12481EA1A030FDF780FAA1
:102DC0000F481CA1C830FDF77BFA0D4819A1F0305F
:102DD000FDF776FA17A11D48FDF772FA1B4815A1F9
:102DE0002830FDF76DFA1948BDE8104018A15030A1
:102DF000FDF766BA10000020746573743A2564000C
:102E0000FC000020202564202020202020202020DD
:102E100020202020202020202020000020256420A9
:102E200020202020202020202020202020202020A2
:102E300020202000202020202020202020202020B2
:102E4000202020202020202000000000140200204C
:102E50003920202020202020202020202020202059
:102E6000202020200000000070B50A48007808B932
:102E7000FFF788FF084D002404EB840005EBC00138
:102E800004EB4400C006000EFFF70CFA641C0A2C89
:102E9000F2DB70BD10000020FC0000202DE9F0479F
:102EA000134C054688462068124F86B2B8882060C9
:102EB000DFF84490012204214846FEF704F94FF45C
:102EC00080716D1EA9400A4889B21438B8F1000F0C
:102ED00001D0002200E00122FEF7F5F82068B8805A
:102EE000002204214846FEF7EEF82660BDE8F08790
:102EF0001408004810000020000C0048FEF7F6F807
:102F0000FFF7F3FDFFF782FBFFF7EAFBFFF740FB5C
:102F1000002204211E48FEF7D6F800210120FFF709
:102F2000BDFF00210220FFF7B9FF00210320FFF7BA
:102F3000B5FF00210420FFF7B1FF00210520FFF7B6
:102F4000ADFF00210620FFF7A9FF00210720FFF7B2
:102F5000A5FF00210820FFF7A1FF01210846FFF788
:102F60009DFF0C48FEF7DAFEFFF7DEF90020FFF7C1
:102F700033F94FF6FF70FFF745FA0020FFF72EFAFE
:102F8000FFF722F800F008F800F02CF8FCE700004A
:102F9000000C0048A000002010B5054C0021E0887E
:102FA00000F008F8E078A17800EB0120208110BD46
:102FB0001000002070B50C46010AC6B22046FFF78B
:102FC00068FE651CE8B23146FFF763FE2046FFF756
:102FD00042FE034CA070E8B2FFF73DFEE07070BD0A
:102FE00010000020FFF740BF4FF04070E1EE100AE4
:102FF0007047000000000000000001020304060703
:1030000008090000000000000000000000000000AF
:1030100000000000000000000000000000000000B0
:1030200000000000000000000000000000000000A0
:10303000000000008001800180018001800180018A
:1030400080018001800180018001800180010000F9
:10305000000080018001000000000000000000006E
:10306000000000000000CC00CC00CC00CC00CC0064
:10307000CC00000000000000000000000000000084
:103080000000000000000000000000000000000040
:103090000000000000000000000000000000600CC4
:1030A000600C600C30063006FE1FFE1F300638072D
:1030B0001803FE1FFE1F180318038C018C018C01DE
:1030C000000000008000E003F80F9C0E8C1C8C18A0
:1030D0008C009800F801E007800E801C8C188C187A
:1030E0009C18B80CF00FE003800080000000000086
:1030F00000000000000000000E181B0C110C11064F
:103100001106110311039B018E01C038C06C60448D
:103110006044304430441844186C0C3800000000FF
:1031200000000000E001F00338071806180630031D
:10313000F001F000F8009C310E33061E061C061C40
:10314000063FFC73F02100000000000000000000BA
:103150000000000000000C000C000C000C000C0033
:103160000C00000000000000000000000000000053
:10317000000000000000000000000000000000004F
:1031800000000000000200038001C000C0006000D9
:10319000600030003000300030003000300030007F
:1031A000300060006000C000C00080010003000229
:1031B0000000000020006000C000800180010003CA
:1031C00000030006000600060006000600060006D2
:1031D00000060003000380018001C00060002000A1
:1031E0000000000000000000000000000000C0001F
:1031F000C000D806F807E0013003380700000000DF
:1032000000000000000000000000000000000000BE
:10321000000000000000000000000000000080012D
:103220008001800180018001FC3FFC3F8001800122
:10323000800180018001000000000000000000000B
:10324000000000000000000000000000000000007E
:10325000000000000000000000000000000000006E
:1032600000000000800180010001000180000000DA
:10327000000000000000000000000000000000004E
:1032800000000000000000000000E007E007000070
:10329000000000000000000000000000000000002E
:1032A000000000000000000000000000000000001E
:1032B000000000000000000000000000000000000E
:1032C00000000000C000C00000000000000000007E
:1032D00000000000000C000C0006000600060003C1
:1032E000000300038003800180018001C000C00052
:1032F000C00060006000000000000000000000004E
:1033000000000000E003F007380E180C0C180C1831
:103310000C180C180C180C180C180C180C18180C8D
:10332000380EF007E003000000000000000000007D
:103330000000000000018001C001F0019801880137
:103340008001800180018001800180018001800175
:1033500080018001800100000000000000000000EA
:1033600000000000E003F80F180C0C180C180018EF
:103370000018000C000600038001C000600030004F
:103380001800FC1FFC1F00000000000000000000EF
:1033900000000000E001F807180E0C0C0C0C000CEB
:1033A0000006C003C007000C001800180C180C1809
:1033B000180CF807E0030000000000000000000007
:1033C00000000000000C000E000F000F800DC00C6C
:1033D000600C600C300C180C0C0CFC3FFC3F000C1B
:1033E000000C000C000C00000000000000000000B9
:1033F00000000000F80FF80F180018000C00EC0394
:10340000FC071C0E001C0018001800180C181C0CDF
:10341000180EF807E00300000000000000000000A4
:1034200000000000C007F00F381C181818000C002E
:10343000CC03EC0F3C0E1C1C0C180C180C18181CA0
:10344000380EF007E003000000000000000000005C
:1034500000000000FC1FFC1F000C0006000600031B
:1034600080038001C001C000E000600060007000C7
:1034700030003000300000000000000000000000BC
:1034800000000000E003F007380E180C180C180CB0
:103490003806F007F007180C0C180C180C180C184C
:1034A000380CF80FE00300000000000000000000EE
:1034B00000000000E003F007380E1C0C0C180C187C
:1034C0000C181C1C381EF81BE0190018000C000C0E
:1034D0001C0EF807F00100000000000000000000D2
:1034E000000000000000000000000000000080015B
:1034F000800100000000000000000000000000004B
:1035000000008001800100000000000000000000B9
:10351000000000000000000000000000000080012A
:10352000800100000000000000000000000000001A
:103530000000800180010001000180000000000007
:10354000000000000000000000000000000000007B
:1035500000000010001C800FE003F8001800F800C5
:10356000E003800F001C00100000000000000000BD
:10357000000000000000000000000000000000004B
:103580000000F81F000000000000F81F000000000D
:10359000000000000000000000000000000000002B
:1035A000000000000000000000000000000000001B
:1035B000000008003800F001C007001F0018001FBD
:1035C000C007F00138000800000000000000000003
:1035D00000000000E003F80F180C0C180C1800187D
:1035E000000C000600038001C000C000C000000005
:1035F0000000C000C000000000000000000000004B
:10360000000000000000E00718180420C229224A28
:10361000114409440944094409221113E20C0240EF
:1036200004201818E007000000000000000000005F
:103630000000000080038003C006C006C006600CC6
:10364000600C301830183018F83FF83F1C700C60D0
:103650000C6006C006C00000000000000000000072
:1036600000000000FC03FC0F0C0C0C180C180C18CC
:103670000C0CFC07FC0F0C180C300C300C300C3010
:103680000C18FC1FFC0700000000000000000000F8
:1036900000000000C007F01F38381C300C700660B6
:1036A00006000600060006000600060006600C7014
:1036B0001C30F01FE00700000000000000000000C8
:1036C00000000000FE03FE0F060E06180618063066
:1036D000063006300630063006300630061806186A
:1036E000060EFE0FFE0300000000000000000000B8
:1036F00000000000FC3FFC3F0C000C000C000C0024
:103700000C00FC1FFC1F0C000C000C000C000C003B
:103710000C00FC3FFC3F0000000000000000000027
:1037200000000000F83FF83F1800180018001800CB
:103730001800F81FF81F18001800180018001800CB
:103740001800180018000000000000000000000031
:1037500000000000E00FF83F3C780E6006E007C074
:103760000300030003FE03FE03C007C006C00EC033
:103770003CF0F83FE00F00000000000000000000F7
:10378000000000000C300C300C300C300C300C30D1
:103790000C30FC3FFC3F0C300C300C300C300C304B
:1037A0000C300C300C300000000000000000000065
:1037B0000000000080018001800180018001800103
:1037C00080018001800180018001800180018001F1
:1037D0008001800180010000000000000000000066
:1037E00000000000000600060006000600060006B5
:1037F0000006000600060006000600061806180669
:103800003807F003E00100000000000000000000A5
:103810000000000006300618060C060606038601A6
:10382000C60066007600DE008E0106030606060C62
:1038300006180630066000000000000000000000CE
:1038400000000000180018001800180018001800E8
:1038500018001800180018001800180018001800A8
:103860001800F81FF81F0000000000000000000012
:10387000000000000EE01EF01EF01EF036D836D814
:1038800036D836D866CC66CC66CCC6C6C6C6C6C6E2
:10389000C6C686C386C3000000000000000000000A
:1038A000000000000C301C303C303C306C306C3080
:1038B000CC30CC308C310C330C330C360C360C3C09
:1038C0000C3C0C380C300000000000000000000030
:1038D00000000000E007F81F1C380E70066003C0EF
:1038E00003C003C003C003C003C003C006600E7062
:1038F0001C38F81FE0070000000000000000000076
:1039000000000000FC0FFC1F0C380C300C300C3099
:103910000C300C18FC1FFC070C000C000C000C00F9
:103920000C000C000C000000000000000000000073
:1039300000000000E007F81F1C380E70066003E06E
:1039400003C003C003C003C003C007E006630E3F0B
:103950001C3CF83FE0F700C0000000000000000041
:1039600000000000FE0FFE1F06380630063006304D
:103970000638FE1FFE0706030606060C0618061884
:103980000630063006600000000000000000000065
:1039900000000000E003F80F1C0C0C180C180C00C1
:1039A0001C00F803E00F001E0038063006300E3011
:1039B0001C1CF80FE00700000000000000000000E1
:1039C00000000000FE7FFE7F8001800180018001F9
:1039D00080018001800180018001800180018001DF
:1039E0008001800180010000000000000000000054
:1039F000000000000C300C300C300C300C300C305F
:103A00000C300C300C300C300C300C300C300C30D6
:103A10001818F81FE0070000000000000000000078
:103A20000000000003600630063006300C180C1849
:103A30000C18180C180C380E30063006700760038E
:103A40006003C001C0010000000000000000000091
:103A5000000000000360C361C361C3616633663365
:103A600066336633663366336C1B6C1B6C1B2C1A17
:103A70003C1E380E380E0000000000000000000060
:103A8000000000000FE00C7018303018700C600E51
:103A9000C00780038003C003E006700C301C1818B8
:103AA0000C300E6007E00000000000000000000085
:103AB0000000000003C006600C301C383818300CC1
:103AC0006006E007C0038001800180018001800161
:103AD0008001800180010000000000000000000063
:103AE00000000000FC7FFC7F006000300018000C2C
:103AF000000600038001C0006000300018000C00C8
:103B00000600FE7FFE7F00000000000000000000B5
:103B100000000000E003E00360006000600060005F
:103B20006000600060006000600060006000600095
:103B3000600060006000600060006000E003E0037F
:103B40000000000030003000600060006000C00035
:103B5000C000C000C001800180018001000300039B
:103B60000003000600060000000000000000000046
:103B700000000000E003E003000300030003000373
:103B8000000300030003000300030003000300031D
:103B9000000300030003000300030003E003E0034D
:103BA000000000000000C001C0016003600360036A
:103BB00030063006180C180C000000000000000051
:103BC00000000000000000000000000000000000F5
:103BD00000000000000000000000000000000000E5
:103BE00000000000000000000000000000000000D5
:103BF00000000000FFFFFFFF0000000000000000C9
:103C0000000000000C000C000C000C000C000C006C
:103C100000000000000000000000000000000000A4
:103C20000000000000000000000000000000000094
:103C30000000000000000000000000000000F00391
:103C4000F8071C0C0C0C000FF00FF80C0C0C0C0CF3
:103C50001C0FF80FF018000000000000000000002A
:103C60000000000018001800180018001800D80301
:103C7000F80F380C181818181818181818181818D9
:103C8000380CF80FD803000000000000000000000E
:103C90000000000000000000000000000000C00361
:103CA000F007300E180C1800180018001800180C37
:103CB000300EF007C003000000000000000000000C
:103CC0000000000000180018001800180018C01BA1
:103CD000F01F301C18181818181818181818181869
:103CE000301CF01FC01B000000000000000000009E
:103CF0000000000000000000000000000000C00301
:103D0000F00F300C1818F81FF81F1800180038189A
:103D1000301CF00FC0070000000000000000000091
:103D200000000000800FC00FC000C000C000F007FE
:103D3000F007C000C000C000C000C000C000C0004C
:103D4000C000C000C0000000000000000000000033
:103D50000000000000000000000000000000E00D76
:103D6000F80F180E0C0C0C0C0C0C0C0C0C0C0C0C96
:103D7000180EF80FE00D000C0C0C1C06F807F001F3
:103D80000000000018001800180018001800D807DC
:103D9000F80F381C181818181818181818181818A8
:103DA0001818181818180000000000000000000083
:103DB00000000000C000C000000000000000C000C3
:103DC000C000C000C000C000C000C000C000C000F3
:103DD000C000C000C00000000000000000000000A3
:103DE00000000000C000C000000000000000C00093
:103DF000C000C000C000C000C000C000C000C000C3
:103E0000C000C000C000C000C000C000F8007800C2
:103E1000000000000C000C000C000C000C000C0C4E
:103E20000C060C038C01CC006C00FC009C018C0384
:103E30000C030C060C0C0000000000000000000049
:103E400000000000C000C000C000C000C000C000F2
:103E5000C000C000C000C000C000C000C000C00062
:103E6000C000C000C0000000000000000000000012
:103E700000000000000000000000000000007C3C8A
:103E8000FF7EC7E383C183C183C183C183C183C173
:103E900083C183C183C10000000000000000000056
:103EA0000000000000000000000000000000980773
:103EB000F80F381C18181818181818181818181887
:103EC0001818181818180000000000000000000062
:103ED0000000000000000000000000000000C0031F
:103EE000F00F300C18181818181818181818181877
:103EF000300CF00FC00300000000000000000000C4
:103F00000000000000000000000000000000D803D6
:103F1000F80F380C18181818181818181818181836
:103F2000380CF80FD80318001800180018001800F3
:103F30000000000000000000000000000000C01BA6
:103F4000F01F301C181818181818181818181818F6
:103F5000301CF01FC01B00180018001800180018B3
:103F60000000000000000000000000000000B0079A
:103F7000F0037000300030003000300030003000BE
:103F800030003000300000000000000000000000A1
:103F90000000000000000000000000000000E0033E
:103FA000F003380E180C3800F003C007000C180C92
:103FB000380EF007E00300000000000000000000E1
:103FC0000000000000008000C000C000C000F0073A
:103FD000F007C000C000C000C000C000C000C000AA
:103FE000C000C007800700000000000000000000C3
:103FF0000000000000000000000000000000181891
:104000001818181818181818181818181818181830
:10401000381CF01FE0190000000000000000000044
:1040200000000000000000000000000000000C186C
:10403000180C180C180C30063006300660036003AC
:104040006003C001C001000000000000000000008B
:104050000000000000000000000000000000C1415E
:10406000C141C36163636363636336363636363694
:104070001C1C1C1C1C1C0000000000000000000098
:1040800000000000000000000000000000001C38DC
:10409000381C300C60066003600360036003600638
:1040A000300C381C1C38000000000000000000002C
:1040B00000000000000000000000000000001830B8
:1040C000301830187018600C600CE00CC006C00688
:1040D00080038003800380018001C001F000700034
:1040E0000000000000000000000000000000FC1FB5
:1040F000FC1F000C000600038001C00060003000BF
:104100001800FC1FFC1F0000000000000000000061
:104110000000000000038001C000C000C000C0001B
:10412000C000C00060006000300060004000C000BF
:10413000C000C000C000C000C0008001000300003B
:104140000000000080018001800180018001800169
:104150008001800180018001800180018001800157
:104160008001800180018001800180018001800147
:10417000000000006000C000C001800180018001DB
:10418000800180010003000300060003000180019C
:1041900080018001800180018001C000600000007A
:1041A000000000000000000000000000000000000F
:1041B0000000F010F81F080F0000000000000000D1
:1041C00000000000000000000000000000000000EF
:1041D00000000000F441000800000020340000004E
:1041E000140200082842000834000020BC08000027
:1041F0003002000810000000010000000000000074
:104200000024F4000000000000002D150000000054
:10421000000001010101000000000000000000009A
:084220000000FFFF0000000098
:04000005080001D915
:00000001FF
