:020000040800F2
:1000000020080020F10100088B3100080B2A0008AD
:100010008931000835030008293E0008000000006F
:10002000000000000000000000000000A3340008F1
:1000300037030008000000008D310008A5340008D7
:100040000B0200080B0200080B0200080B0200085C
:100050000B0200080B0200080B0200080B0200084C
:100060000B0200080B0200080B0200080B0200083C
:100070000B0200080B0200080B0200080B0200082C
:100080000B02000800000000290300080B02000812
:100090000B0200080B0200080B0200080B0200080C
:1000A0002D350008393500080B0200080B02000846
:1000B0000B0200080B0200080B0200080B020008EC
:1000C0000B0200080B0200080B0200080B020008DC
:1000D0000B0200081D3E00080B0200080B0200087E
:1000E0000B0200080B0200080B0200080B020008BC
:1000F0000B0200080B020008513500080000000048
:10010000000000000B020008000000000B020008C5
:100110000B020008000000000B0200084535000833
:100120000B0200080B0200080B0200080B0200087B
:100130000B02000800000000000000000B02000895
:100140000B0200080B020008000000000000000085
:10015000000000000000000000000000000000009F
:100160000000000000000000000000000B0200087A
:100170000B0200080000000000000000000000006A
:10018000000000000B02000800000000000000005A
:10019000000000000000000000000000000000005F
:1001A00000000000000000000B0200080B02000825
:1001B0000B0200080B0200080B0200080000000000
:1001C000000000000B02000800000000000000001A
:1001D0000B0200080B020008DFF810D000F092F8C4
:1001E000004800474D440008AFF30080200800207D
:1001F0000648804706480047FEE7FEE7FEE7FEE7C1
:10020000FEE7FEE7FEE7FEE7FEE7FEE71135000842
:10021000D90100082DE9F05F0546002092469B4673
:1002200088460646814640241BE02846414647460C
:10023000224600F057F853465A46C01A914110D34F
:1002400011461846224600F03EF82D1A67EB0108C9
:100250004F4622460120002100F035F817EB000937
:100260004E41201EA4F10104DFDC484631462A46F7
:100270004346BDE8F09FD2B201E000F8012B491ED1
:10028000FBD270470022F6E710B513460A46044633
:100290001946FFF7F0FF204610BD30B50B4601466A
:1002A00000202022012409E021FA02F59D4205D315
:1002B00003FA02F5491B04FA02F52844151EA2F1BF
:1002C0000102F1DC30BD202A04DB203A00FA02F101
:1002D000002070479140C2F1200320FA03F3194334
:1002E00090407047202A04DB203A21FA02F00021D6
:1002F000704721FA02F3D040C2F120029140084336
:1003000019467047064C074D06E0E06840F00103CF
:1003100094E8070098471034AC42F6D3FFF760FF2B
:100320007857000898570008014800F02DBA0000DF
:1003300048000020FEE77047002240F6B83306E090
:100340000021491C89B29942FBD3521C92B28242CD
:10035000F6D3704772B6FEE7704770477047704734
:10036000704700002DE9F84F00270446009790F8E9
:100370005800DFF8DC930D46B846012811D001265D
:1003800084F85860206802F027FD60B1E06D40F00D
:100390002000E0655FF0010784F858803846BDE82A
:1003A000F88F0220FBE7D5E900210C23206803EA3F
:1003B00091131844036B01F01F014FF01F0C0CFA4E
:1003C00001FCC2F3846223EA0C038A4013430363F3
:1003D000206802F001FD8246206802F0F9FC5AEA2A
:1003E00000003CD1AA6829682068B2F1004F37D0DC
:1003F00002F0FEFC2068416921F000414161206863
:100400006969C268C2F3C102520091402A69042A94
:1004100031D000EB82002B68026EDFF838C303F0A6
:10042000F84302EA0C020B431A4342F00041016612
:1004300022682869A96902EB8000026E22F08072AE
:100440000A430266297F20682A69012910D0002109
:1004500000EB8200026E22F000720A4302667DE029
:10046000002202F0C5FC2068416941F00041C5E767
:100470004FF00071ECE7002102F0A4FC400320687B
:100480004FF0000172D002F09DFC90FAA0F0B0FA9B
:1004900080F1286842036ED090FAA0F0B0FA80F0A4
:1004A000814204D100221146206802F0B0FC0121F3
:1004B000206802F087FC400320684FF001015DD006
:1004C00002F080FC90FAA0F0B0FA80F128684203B4
:1004D00059D090FAA0F0B0FA80F0814204D1002205
:1004E0000121206802F093FC0221206802F06AFCDE
:1004F000400320684FF0020148D002F063FC90FAFC
:10050000A0F0B0FA80F12868420344D090FAA0F03D
:10051000B0FA80F0814204D100220221206802F06A
:1005200076FC0321206802F04DFC400320684FF068
:10053000030133D002F046FC90FAA0F0B0FA80F14B
:10054000286842032FD090FAA0F0B0FA80F08142E0
:1005500004D100220321206802F059FC2068816840
:1005600011F0010F22D0ACE000E004E002F02AFC20
:10057000C0F384618DE7C0F3846091E702F022FC50
:10058000C0F38461A2E7C0F38460A6E702F01AFC1E
:10059000C0F38461B7E7C0F38460BBE702F012FCEC
:1005A000C0F38461CCE7C0F38460D0E72A7B29687C
:1005B00050F8B03FC1F3120C23EA0C0302F0180C00
:1005C000654A22FA0CF20A4013430360E968494580
:1005D00077D1286841031CD090FAA0F1B1FA81F1DB
:1005E000491C01F01F0109294FEA403132D8002986
:1005F00012D000BF90FAA0F1B1FA81F101F101012E
:1006000001F01F0106FA01F609D100BFC0F38461B1
:1006100009E0C0F38461E3E7C0F38461EEE790FA98
:10062000A0F1B1FA81F101F1010101F01F0146EAE7
:10063000816102D1C0F3846003E090FAA0F0B0FAC7
:1006400080F000F1010000F01F0000EB400041EAE3
:10065000005132E000290ED090FAA0F1B1FA81F1F8
:1006600001F1010101F01F0106FA01F606D100BFF8
:10067000C0F3846106E0C0F38461F1E790FAA0F171
:10068000B1FA81F101F1010101F01F0146EA816136
:1006900002D1C0F3846003E090FAA0F0B0FA80F0D9
:1006A00000F1010000F01F002C4A00EB400002EBBB
:1006B000005041EA000141F00071AA68206802F090
:1006C00097FB27482A6802423FF466AE25488168B6
:1006D000254B01F0E0719A4202D0244B9A421BD183
:1006E0000B0219D42268B2F1A04F7FF455AE826894
:1006F00041F4000122F0E0720A4382601C481D4967
:100700000068B0FBF1F000EB4000800000E0401E0C
:1007100000900028FBD13FE6174D184BAA4207D1A5
:10072000CD0105D422689A42F5D041F0807109E0EC
:10073000134DAA42EFD14A02EDD422689A42EAD080
:1007400041F48001826822F0E0720A43826023E66D
:1007500000007F4000F0FF03FFFF0700000020FEC5
:100760000000088000030050000021C31000C0906A
:100770000C000020400D0300000052C70001005093
:10078000000084CB704770472DE9F05F0446006895
:1007900006684568DFF854B2DBF8080000F01F0770
:1007A000B0070ED5A8070CD5E06DC00603D4E06DE8
:1007B00040F40060E0652046FFF7CEFD216802208E
:1007C0000860DFF82CA270074FF0A04801D5680739
:1007D00003D4300737D5280735D5E06DC00603D4DC
:1007E000E06D40F40070E065206802F0F9FA20B393
:1007F0002068504501D1424600E00246824208D0BE
:100800003FB1052F05D0092F03D0504503D14146F4
:1008100002E0C16801E00146C96889040DD401689D
:1008200009070AD502F0D8FA58B3E06D40F010007D
:10083000E065206E40F0010020662046FFF7A2FF31
:1008400021680C200860B00601D5A80603D4700604
:1008500058D5680656D5E06DC00603D4E06D40F467
:100860000050E0652068C16C11F4C07F1AD00021EF
:10087000894602F0B5FA02462068504514D1434635
:1008800013E02068416821F00C014160E06D20F424
:100890008070E065E06DC004CFD4E06D40F00100F1
:1008A000E065CAE70121E3E70346834208D03FB190
:1008B000062F05D0072F03D0504503D1414602E053
:1008C000C16801E00146C968B9F1000F04D18B018C
:1008D00012D48AB18A040FD4026852060CD5890258
:1008E0000AD402F075FAE8B3E06D40F01000E0655C
:1008F000206E40F0010020662046FFF72EFD2168A3
:100900006020086030060BD5280609D5E06D40F45C
:100910008030E065204600F069F921688020086099
:10092000F0050CD5E8050AD5E06D40F40030E0652F
:100930002046FFF714FD21684FF480700860B00571
:100940000CD5A8050AD5E06D40F48020E06520466E
:10095000FFF706FD21684FF400700860F0062ED501
:10096000E80600E008E02AD5E06BD0B1AFB1DBF8D3
:10097000080000F4604013E02068416821F0600145
:100980004160E06D20F48050E065E06DC005B3D4B7
:10099000E06D40F00100E065AEE72068C068C00788
:1009A00050B1E06D40F48060E065206E40F00200E0
:1009B00020662046FFF7E7FE2168102008607005DA
:1009C00012D5680510D5E06D40F48040E065206EDA
:1009D00040F00800206621684FF4806008602046DF
:1009E000BDE8F05FFFF7BABCBDE8F09F0003005020
:1009F00000010050F8B54FF0000504002E460095A8
:100A000002D0E06D10B107E00120F8BD204600F0F3
:100A1000EFF8266684F8586020688168C1F3407159
:100A200019B18168694A1140816020688168C1F309
:100A3000007179B98168664A114041F08051816046
:100A4000644865490068B0FBF1F000E0401E00908A
:100A50000028FBD120688168C1F3007141B9E16DC4
:100A600041F01001E165216E41F00101216601258F
:100A700002F0B2F9E16DC90600D430B1E06D40F08A
:100A80001000E06501252846F8BDE06D20F4807077
:100A900040F00200E0652068806810F0010F11D17D
:100AA0004FF0A04080684D4900F00100896801F0D6
:100AB0000101084306D14A486168826822F47C1229
:100AC0000A438260E168E06B627F0843A16841EA03
:100AD0004231084394F8241040EA0140012904D12E
:100AE000218D404A02EB41410843E16A29B101F4FA
:100AF0007871226B014342EA01002168CA683A4BCF
:100B00001A400243CA6020680169626B21F04061AB
:100B100011430161206802F05FF90646206802F087
:100B200057F930432ED1207F94F83810800340EAE3
:100B300041022068C16844F2020399431143C16035
:100B400020690028206801690AD041F480310161E0
:100B5000206850F8C01F22696FF30D01114307E0B0
:100B600021F480310161206850F8C01F6FF30D013E
:100B7000016094F8400001280CD02068016921F040
:100B800001010161606901282068016B21F00F01FA
:100B900011D013E0D4E911010843D4E91312114331
:100BA000084321680A6940F2FC739A43104340F0FD
:100BB00001000861E6E7226A521E11430163E06DFD
:100BC00020F0020040F00100E0655CE7C0FFFF5F3D
:100BD000C0FFFF7F0C000020400D0300000100500B
:100BE000000300500000FEFF0740F0FF70470000C8
:100BF00010B598B00446142111A8FFF743FB442117
:100C00006846FFF73FFB1949206888422BD1C40191
:100C1000400500940F90684600F068FA08B1FFF7AD
:100C200099FB1348C16C41F40051C164C16C01F4DB
:100C300000511691C16C41F00201C164C06C11A950
:100C400000F0020016900320CDE91140002013901F
:100C5000084800F05FF800220221122000F0AEF9EF
:100C6000122000F09DF918B010BD000000010050E6
:100C7000001002400004004870B590F825200024C0
:100C800001212346022A07D00422C26380F82510DE
:100C900080F82430012429E00268156825F00E054B
:100CA00015600268156825F001051560826C1568ED
:100CB00025F48075156090F84420056C02F01F0241
:100CC00001FA02F26A60D0E913255560426D32B133
:100CD000156825F480751560D0E91625556080F8F3
:100CE000251080F82430816B01B18847204670BD03
:100CF00070B5044600F0FCF80546601C02D00448BC
:100D00004068044400F0F4F8401BA042FAD370BDE0
:100D1000000000202DE9FC4FDFF8A0A100230125F1
:100D20000AF1040B03244FF00F0C0BF1040EBDE08D
:100D300005FA03F632406FD04F68012F05D0022F1D
:100D400003D0112F01D0122F17D1D0F808905F00D7
:100D500004FA07F829EA08090097D1F80C8008FA84
:100D600007F848EA0908C0F808804768B7430E79D1
:100D7000C6F300169E403E434660C6684FEA4308ED
:100D800004FA08F7BE4301978F6807FA08F737435C
:100D9000C7604E68022E01D0122E13D1DE0800EB80
:100DA00086060096366A5F07FF0E0CFA07F926EAF8
:100DB0000906D1F8109009FA07F949EA0609009ED8
:100DC000C6F820900668019FBE430F7907F003071D
:100DD00007FA08F7374307604E68F60065D5384EC6
:100DE000376E47F001073766366E23F0030706F0CB
:100DF00001060096334E3E44B146B6689F074FEA5F
:100E000017780CFA08F7BE43B0F1904F05D02E4F7B
:100E1000B84204D1012717E047E0002714E02B4F28
:100E2000B84201D102270FE0294FB84201D1032770
:100E30000AE0284FB84201D1042705E0264FB84206
:100E400001D1052700E0062707FA08F73743C9F85C
:100E50000870DAF800605746D1F8048096435FEADC
:100E6000C83800D516433E60DBF800605F46D1F815
:100E7000048096435FEA883800D516433E60DEF86A
:100E800000607746D1F8048096435FEAC82800D511
:100E900016433E60094F0C373E68D1F804809643F4
:100EA0005FEA882800D516433E605B1C0A6832FA68
:100EB00003F67FF43DAFBDE8FC8F00000004014065
:100EC00000100240000001400004004800080048F3
:100ED000000C004800100048001400480069084059
:100EE00000D0012070470AB181617047816270476C
:100EF00001488068704700000000002002488168B7
:100F000042681144816070470000002010B5002441
:100F1000032000F073F80F2000F008F808B1012456
:100F200001E000F025F8204610BD000070B50E4E1F
:100F300005460024706898B14FF47A71B1FBF0F067
:100F40000A490968B1FBF0F000F064FD40B9102DCA
:100F500006D200222946501E00F030F8356000E02D
:100F60000124204670BD0000000000200C0000207D
:100F70000A4882B0016E41F001010166016E01F084
:100F800001010091816D41F080518165806D00F01B
:100F90008050009002B000F0A1B8000000100240A4
:100FA000002809DB00F01F02012191404009800068
:100FB00000F1E020C0F8001170470000F0B40E4BC3
:100FC0001B680C46C3F30223C3F10705042D00D9A7
:100FD0000425191D072901D2002300E0DB1E01268C
:100FE00006FA05F1491E214099409E40761E1640A2
:100FF0003143F0BC02F03EBF0CED00E0064900F0CA
:10100000070208684FF6FF03184040EA0220034A2F
:1010100010430860704700000CED00E00000FA0586
:101020002B492C4B0A6832214A432B4940B1B0F579
:10103000007F086829D020F4C06040F480602CE074
:101040000868C0F34120022804D051F8800F20F432
:10105000807022E0D1F8800020F48070C1F8800018
:10106000086820F4C06040F400700860B2FBF3F040
:10107000401C00E0401E4A69520501D50028F9D104
:10108000486940050AD503207047C0F34120022873
:1010900006D051F8800F40F480700860002070473F
:1010A000D1F8800040F48070C1F88000086820F416
:1010B000C06040F400700860B2FBF3F0401C00E038
:1010C000401E4A695205DBD50028F9D1D8E7000057
:1010D0000C00002040420F00007000400248816870
:1010E00041F4804181607047007000402DE9F84371
:1010F0000446006800269D4D00035ED5A86D0027BC
:10110000C00008D4A86D40F08050A865A86D0127E4
:1011100000F080500090DFF85892D9F8001041F4A8
:101120008071C9F80010FFF7E3FE804606E000BFBB
:10113000FFF7DEFEA0EB080002282BD8D9F800004C
:10114000C005F5D5D5F8900010F4407014D0216C8E
:10115000814211D0D5F89000D5F8901020F440705D
:1011600041F48031C5F89010D5F8901021F4803109
:10117000C5F89010C5F89000C00711D0FFF7B8FE71
:10118000804641F2883907E0FFF7B2FEA0EB080184
:10119000494501D903260BE0D5F890008007F3D527
:1011A000D5F89000216C20F440700843C5F89000F9
:1011B0001FB1A86D20F08050A8652078C00707D027
:1011C000D5F88800616820F003000843C5F888005E
:1011D0002078800707D5D5F88800A16820F00C009A
:1011E0000843C5F888002078400707D5D5F888005F
:1011F000E16820F030000843C5F888002078000737
:1012000007D5D5F88800216920F0C0000843C5F84B
:1012100088002078800607D5D5F88800616920F419
:1012200040600843C5F888002078400607D5D5F807
:101230008800A16920F440500843C5F88800207850
:10124000000607D5D5F88800E16920F4404008433E
:10125000C5F888002088C00507D5D5F88800216A20
:1012600020F440300843C5F888002088800507D561
:10127000D5F88800616A20F440200843C5F888004A
:10128000208840050FD5D5F88800A16A20F44010C9
:101290000843C5F88800A06AB0F5801F03D1E8684C
:1012A00040F48010E860208800050FD5D5F888004C
:1012B000E16A20F440000843C5F88800E06AB0F510
:1012C000800F03D1E86840F48010E8602088C004F3
:1012D0000FD5D5F88800216B20F040700843C5F881
:1012E0008800206BB0F1807F03D1E86840F4801063
:1012F000E86020884FF0006180040ED5D5F88800A2
:10130000626B20F040601043C5F88800606B884233
:1013100003D1E86840F48010E860208840040ED5CE
:10132000D5F88800A26B20F040601043C5F8880013
:10133000A06B884203D1E86840F48010E860208800
:1013400000040FD5D5F88800E16B20F04050084329
:10135000C5F88800E06BB0F1805F03D1E86840F425
:101360008030E8603046BDE8F8830000001002409D
:10137000007000402DE9F0470E4605004FF00007D1
:1013800025D0DFF8AC81D8F8000000F00F00B042A3
:101390000CD2D8F8001021F00F013143C8F800102A
:1013A000D8F8000000F00F00B04210D12968614C5D
:1013B000C80741F2883A5AD06868DFF87C91032860
:1013C00008D0022820682DD0400500282CDB012001
:1013D000BDE8F08720688001F9D5E06800F00302DD
:1013E000E068C0F30310401C032A19D0534A00BF21
:1013F000B2FBF0F0E268C2F306225043E268C2F3A7
:101400004162521C5200B0FBF2F0484517D9A06867
:1014100010F0F00F0CD0880711D5A86840B10EE08D
:10142000474AE5E78003D0E700F0B6F8484506D91B
:10143000A06820F0F00040F08000A0608027A06845
:10144000696820F003000843A060FFF751FD814662
:1014500006E000BFFFF74CFDA0EB090151453AD86B
:10146000A068696800F00C00B0EB810FF2D1286829
:10147000810714D5400703D5A06840F4E060A06060
:101480002878000705D5A06820F4605040F4E0609B
:10149000A060A068A96820F0F000084304E0802F55
:1014A00003D1A06820F0F000A060D8F800104046FA
:1014B00001F00F01B14216D9016821F00F0131434B
:1014C0000160FFF715FD074607E000BFFFF710FDBD
:1014D000C11B514501D903207AE7D8F8000000F07C
:1014E0000F00B042F2D12878400705D5A068E9681E
:1014F00020F4E0600843A0602878000706D5A068C3
:10150000296920F4605040EAC100A06000F044F86E
:10151000A1680C4AC1F30311515C01F01F01C840DE
:101520000949086009480068BDE8F047FFF7FEBCBC
:10153000002002400010024000B4C4040024F40063
:1015400000366E01904500080C00002000000020CD
:101550000548064900688968054AC1F30221515CC3
:1015600001F01F01C84070470C000020001002402D
:10157000A04500080548064900688968054AC1F386
:10158000C221515C01F01F01C84070470C000020CF
:1015900000100240A0450008184910B58868C0F343
:1015A00081021748012A0BD08A68164BC2F38102C8
:1015B000022A06D08A68C2F38102032A03D00020DF
:1015C00010BD184610BDCA6802F00304CA68C2F311
:1015D0000312521C032C02D0B0FBF2F001E0B3FB6B
:1015E000F2F0CA68C968C2F306225043C1F34161F0
:1015F000491C4900B0FBF1F010BD00000010024092
:101600000024F40000366E012DE9F84304007AD07E
:101610002078FA4DC00747D0A868E96800F00C00B0
:1016200001F003010C2802D0082817D001E003299B
:1016300014D06068B0F5803F17D0B0F5A02F2868AF
:1016400017D020F480302860286820F4802028609B
:101650006068E0B1FFF74CFC064614E028688003A0
:1016600022D560680028D2D01EE0286840F480307F
:10167000EDE740F480202860F7E700BFFFF738FC73
:10168000801B642870D828688003F7D50CE0FFF72A
:101690002FFC064605E000BFFFF72AFC801B6428EC
:1016A000F0D828688003F7D4207880074CD5A86844
:1016B000E96800F00C0001F003010C2802D00428B6
:1016C0000DD001E002290AD0E068002828682BD05C
:1016D00040F480702860FFF70BFC064619E028688C
:1016E000400502D5E068002891D06868217C20F090
:1016F000FE4040EA01606860C1480068FFF716FCE0
:10170000002800D120E076E1FFF7F2FB801B0228E1
:10171000B8D828684005F7D56868217C20F0FE40DD
:1017200040EA016068600FE020F480702860FFF7F5
:10173000DFFB064605E000BFFFF7DAFB801B02284F
:10174000A0D828684005F7D42078000729D560691B
:101750000028D5F8940013D040F00100C5F894009B
:10176000FFF7C6FB064606E090E000BFFFF7C0FBB0
:10177000801B022886D8D5F894008007F6D510E0A3
:1017800020F00100C5F89400FFF7B2FB064604E024
:10179000FFF7AEFB801B022878D8D5F894008007AD
:1017A000F6D42078400761D5A86D0026C00008D483
:1017B000A86D40F08050A865A86D012600F080500B
:1017C000009090480168C90511D40168804641F431
:1017D00080710160FFF78CFB074604E0FFF788FB90
:1017E000C01B022852D8D8F80000C005F6D5A06862
:1017F000012815D00528D5F8900016D020F001005A
:10180000C5F89000D5F8900020F00400C5F89000CD
:10181000A06841F28838B8B1FFF76AFB07460EE0CE
:10182000D5F8900040F00100F0E740F00400C5F862
:101830009000F5E7FFF75CFBC11B414526D8D5F8C2
:1018400090008007F6D50CE0FFF752FB074604E056
:10185000FFF74EFBC11B414518D8D5F89000800713
:10186000F6D41EB1A86D20F08050A86520788006BF
:1018700029D5A0690028D5F8980013D040F00100C0
:10188000C5F89800FFF734FB064606E077E000BF96
:10189000FFF72EFB801B022877D8D5F89800800729
:1018A000F6D510E020F00100C5F89800FFF720FB06
:1018B000064604E0FFF71CFB801B022865D8D5F81C
:1018C00098008007F6D4E069F0B3A968C1F38101FC
:1018D000032961D00228286820F0807028600BD08E
:1018E000E86820F00300E860E86847490840E860DD
:1018F000FFF7FEFA04464BE0FFF7FAFA064604E06B
:10190000FFF7F6FA801B02283FD828688001F7D439
:10191000F4E908016FF00F0202EB01110843218A7C
:101920005204490802EB4151A26841EA02210843EE
:10193000217D4FF07E42490802EB41610843217B43
:1019400040EAC160E96800E062E0304A11400843C3
:10195000E860286840F080702860E86840F0807097
:10196000E860FFF7C5FA044605E000BFFFF7C0FADC
:10197000001B022809D828688001F7D548E004E058
:10198000FFF7B6FA001B022802D90320BDE8F8834E
:1019900028688001F4D43BE00128F7D0E868226A87
:1019A00000F00301914226D1616A00F0F0020901C2
:1019B000103991421FD1A26A00F4FE41B1EB022F0F
:1019C00019D194F82C2000F07841B1EBC26F12D1FC
:1019D000218E00F4C00249084905A1F50011914289
:1019E00009D194F8341000F0C06049084906A1F10B
:1019F000007181420CD00120C8E7000000100240B5
:101A00000000002000700040FFFFEEFE0C809F01F0
:101A10000020BBE710B5401EB0F1807F01D301204C
:101A200010BD4FF0E02460610F21601702F022FA30
:101A30000020A06107202061002010BD7047704782
:101A40007047704770477047F0B590F83C20012A06
:101A50003AD0012580F83C50022280F83D200368EE
:101A60005A689C68194E1A4FB34201D0BB4204D148
:101A700022F4700C4A6842EA0C02DFF858C002EA0D
:101A80000C02D1F800C04CEA020CC3F804C0026892
:101A9000B2420DD0B2F1804F0AD00F4B9A4207D01C
:101AA0000E4B9A4204D0BA4202D00D4B9A4204D156
:101AB000896824F080031943916080F83D5000212B
:101AC00080F83C100846F0BD0220F0BD002C01401B
:101AD000003401408FFFFFFD00040040000800407B
:101AE00000400140704710B5040003D094F83D0059
:101AF00010B107E0012010BD002084F83C00204612
:101B000000F022F8022084F83D00211D206801F039
:101B100025FD012084F8480084F83E0084F83F0049
:101B200084F8400084F8410084F8420084F84300BF
:101B300084F8440084F8450084F8460084F847009F
:101B400084F83D00002010BD10B586B00446142175
:101B50006846FEF797FB3949236839488B420ED116
:101B6000816D41F020018165806D002200F0200030
:101B7000059001213720FFF721FA372024E0314C6E
:101B800000220221A34223D1036E43F400530366D3
:101B9000036E03F400530593C36C43F00103C36465
:101BA000C06C00F00100059088038DE80700CDE9C6
:101BB000032169464FF09040FFF7ACF80022114630
:101BC0002E20FFF7FBF92E20FFF7EAF906B010BD33
:101BD0001D4CA3420ED1016E41F480310166006EAE
:101BE000002200F48030059011461820FFF7E6F936
:101BF0001820E9E7154CA342E8D1036E43F4003303
:101C00000366036E03F400330593C36C43F00203D1
:101C1000C364C06C00F00200059010208DE807003E
:101C20000120CDE9032069460948FFF773F8002237
:101C300011461920FFF7C2F91920C5E7001400402A
:101C400000100240003401400040014000440140C7
:101C50000004004890F83D10012901D00120704790
:101C6000022180F83D100168CA6842F00102CA6092
:101C70000068104988420ED0B0F1804F0BD00E4959
:101C8000884208D00D49884205D00D49884202D0CB
:101C90000C49884207D181680B4A1140062906D0B9
:101CA000B1F5803F03D0016841F0010101600020DF
:101CB00070470000002C0140000400400008004074
:101CC0000034014000400140070001000168CA687B
:101CD00022F00102CA6001680A6A41F211131A4235
:101CE00007D10A6A9B001A4203D10A6822F0010256
:101CF0000A60012180F83D100020704770B504464D
:101D000090F83C00012814D0012584F83C500220B2
:101D100084F83D0022689068344B184020F47F40DE
:101D200090600868702827D010DC10F00F0F03D0E7
:101D30004AE04FF0020070BD4FEA2012072A43D25A
:101D4000DFE802F05050505048313900284BC21A99
:101D5000984247D009DCB0F5805F35D0B0F5005F20
:101D600015D0B0F1101F2FD13CE0102A3AD0202A14
:101D700038D0502A28D135E0CB68D1E9012120683C
:101D800001F051FC2068816841F0770109E0CB68DF
:101D9000D1E90121206801F046FC2068816841F406
:101DA0008041816010E0CA684968206801F050FCF9
:101DB0005021206806E0CA684968206801F090FC5C
:101DC0006021206801F03AFC84F83D50002084F83E
:101DD0003C0070BDCA684968206801F039FC4021A8
:101DE0002068EFE7226801461046EBE788FFCEFF48
:101DF0002000100070B5006814490025144E154CE1
:101E000088420ED1E07850B10021134800F010FB59
:101E1000401C00EB80000001B6FBF0F060810E4832
:101E200010E00E4988420FD1207950B100210C48B2
:101E300000F0FEFA401C00EB80000001B6FBF0F061
:101E4000A08107480068456270BD00000044014061
:101E500000B4C404100000209801002000340140A8
:101E6000000100202DE9F041054690F83C000C46A9
:101E7000012836D0012085F83C008AB3042A42D0DC
:101E80002868082A51D0D4E90023E168066A26F4BC
:101E900080560662C669076A26F4407646EA03233E
:101EA0004FF6FF7606EA013123F4704319434FF4ED
:101EB000204627F4204306EA02321A43C161026237
:101EC0002868C16921F44061C1612868C169A268BC
:101ED00041EA0221C161002085F83C00BDE8F081A3
:101EE00001E00220FAE7D4E90012E368286801F073
:101EF000C1FB2868816921F00C0181612868816932
:101F0000A26811430FE0D4E90012E368286801F0E9
:101F1000F9FB2868816921F4406181612868816941
:101F2000A26841EA02218161D5E7D4E90027267B36
:101F3000016A21F480710162C169036A21F0030121
:101F4000394321F0F00731074FF4206647EA116169
:101F500023F4206306EA02221A43C1610262286860
:101F6000C16921F00C01C1612868C169A2681143EF
:101F7000B0E710B5040003D094F83D0010B107E0BD
:101F8000012010BD002084F83C00204600F022F81B
:101F9000022084F83D00211D206801F0DFFA0120B5
:101FA00084F8480084F83E0084F83F0084F840003C
:101FB00084F8410084F8420084F8430084F8440027
:101FC00084F8450084F8460084F8470084F83D0012
:101FD000002010BD7047000010B5044679B10429F7
:101FE00012D0082915D00C2918D0102919D094F82E
:101FF000430000BF94F84720012817D114E094F85B
:102000003E0094F84420F7E794F83F0094F8452008
:10201000F2E794F8400094F84620EDE794F8410088
:10202000E8E794F84200E5E7012A01D0012010BD5D
:10203000022071B1042915D008291CD00C2948D0E0
:10204000102949D084F8430084F847000C291BD19B
:1020500045E084F83E0084F844002068C26842F0FD
:10206000020210E084F83F0084F845002068C2684E
:1020700042F0040207E084F8400084F8460020683B
:10208000C26842F00802C2600122206801F0BEFA74
:102090001549206888420ED0B0F1804F0BD013490B
:1020A000884208D01249884205D01249884202D09D
:1020B0001149884207D18168104A1140062906D08B
:1020C000B1F5803F03D0016841F0010101600020BB
:1020D00010BD84F84100B7E784F84200B4E72068F7
:1020E000C26842F01002CEE7002C0140000400401C
:1020F000000800400034014000400140070001009A
:1021000070B50446006801694FF00005C9438907AE
:1021100015D4C168C943890711D4E91E01610120A2
:102120002077206880698007204602D0FFF762FE92
:1021300004E000F0E3F8204600F0E1F8257720689D
:102140000169C943490717D4C168C943490713D472
:102150006FF004010161022020772068806910F48B
:10216000407F204602D0FFF745FE04E000F0C6F8AD
:10217000204600F0C4F8257720680169C9430907A3
:1021800016D4C168C943090712D46FF00801016170
:10219000042020772068C0698007204602D0FFF71E
:1021A00029FE04E000F0AAF8204600F0A8F8257700
:1021B00020680169C943C90617D4C168C943C90663
:1021C00013D46FF010010161082020772068C069E6
:1021D00010F4407F204602D0FFF70CFE04E000F030
:1021E0008DF8204600F08BF8257720680169C943F7
:1021F000C90708D1C168C943C90704D1891E016153
:10220000204600F07DF820680169C943090609D419
:10221000C168C943090605D46FF0800101612046F9
:10222000FFF70DFC20680169C943C90509D4C168DD
:10223000C943090605D46FF4807101612046FFF798
:10224000FDFB20680169C943490609D4C168C94337
:10225000490605D46FF040010161204600F0FDF809
:1022600020680169C943890609D4C168C943890640
:1022700005D46FF0200101612046FFF7E1FB2068E3
:102280000169C943C90209D4C168C943C90205D457
:102290006FF4801101612046FFF7D4FB20680169CB
:1022A000C943890209D4C168C943890205D46FF4BE
:1022B000001101612046FFF7C4FB20680169C94392
:1022C000490209D4C168C943490205D46FF48001A9
:1022D00001612046FFF7B7FB20680169C943090285
:1022E0000BD4C168C943090207D46FF4000101612E
:1022F0002046BDE87040FFF7F5BB70BD70477047E2
:1023000070B500683E4900253E4C884226D1E06900
:10231000401C3221B0FBF1F2E06101FB120008B970
:1023200001F0B6FEE0696421B0FBF1F201FB12009E
:10233000002863D16189E08981425FD2A18981420D
:102340005CD26079401CC0B26071022800D1657116
:102350006179BDE87040032002F048B82A498842FC
:102360004CD12A48FFF7B2FCA1792948032902D0B1
:10237000022924D02EE0A17801292BD101785429FB
:1023800002D050290ED025E04178462922D180780C
:102390000121312802D0322802D01BE0E1701CE07C
:1023A00021711AE04178462914D18078312802D071
:1023B000322802D00EE0E5700FE025710DE0A17823
:1023C000012907D10178462904D1407831280DD060
:1023D00032280ED00FA001F029FDA571BDE8704094
:1023E00008490122491C0D4800F006BA61890CA079
:1023F00001E0A1890CA001F019FDEEE770BD00001D
:102400000014004010000020004001404C0100205A
:10241000100400204E554C4C00000000E401002048
:1024200046313A2564485A0046323A2564485A00F3
:102430000246002041B1042909D008290AD00C29FC
:1024400001D11068006C70471068406B70471068CD
:10245000806B70471068C06B7047704790F87C10B5
:10246000012918D0012180F87C102421C0F88010A7
:1024700050F8601B0A680B6823F001030B6022F020
:1024800000510022426050F8603C19602021016236
:1024900002771046704702207047704770B50446B7
:1024A00090F87C0001281DD0012084F87C002420B5
:1024B000C4F8800020680568026822F0010202600A
:1024C0002068826822F060620A438260204601F040
:1024D00035F9206805602020C4F88000002084F8C9
:1024E0007C0070BD022070BD70B5044690F87C0081
:1024F00001281DD0012084F87C002420C4F880002D
:1025000020680568026822F0010202602068826883
:1025100022F060420A438260204601F00FF92068F1
:1025200005602020C4F88000002084F87C0070BD85
:10253000022070BD70477047704700002DE9F041E0
:1025400003680446D86919689A6840F60F0528425E
:102550004FF0000509D186067ED501F0200602F075
:1025600080573E4378D0E16E9EE0624E624F164047
:102570000F40374370D0C70709D0CF0507D50127D3
:102580001F62D4F8883043F00103C4F88830830711
:102590000AD5D30708D0276802233B62D4F88830D5
:1025A00043F00403C4F8883043070AD5D30708D0A2
:1025B000276804233B62D4F8883043F00203C4F850
:1025C000883003070CD501F02003334308D0266878
:1025D00008233362D4F8883043F00803C4F8883005
:1025E00003050BD54B0109D526684FF40063336210
:1025F000D4F8883043F02003C4F88830D4F8883009
:10260000002B34D0800609D501F0200002F0805163
:10261000084303D0E16E09B120468847D4F888000A
:1026200021688968490602D410F0280F21D020467D
:1026300001F054F920688168490615D5816821F0B8
:1026400040018160A06F78B12C498163A06FFEF7D3
:1026500013FB00280BD000E011E0A06F816B00E0BD
:102660002046BDE8F04108472046FFF765FFBDE87A
:10267000F0812046FFF760FFC4F88850F7E7C602F4
:1026800009D5560207D54FF4801018622046BDE8E0
:10269000F041FFF750BF060609D501F0800602F4AD
:1026A0000002164303D0216F0029D9D1DFE742068B
:1026B0000DD54A060BD51968204621F04001196056
:1026C0002021C4F88010256700F09EF9CFE70202B0
:1026D00006D54A0004D52046BDE8F041FFF72ABFE1
:1026E000C001C4D50029C2DA2046BDE8F041FFF799
:1026F000D4BE00000100001020010004C73800080B
:1027000010B5040003D0D4F8800010B107E0012018
:1027100010BD002084F87C00204600F027F824201B
:10272000C4F880002068016821F0010101602046A2
:1027300001F0E6F90128EBD0A06A10B1204601F0C3
:102740002FF82068416821F4904141602068816839
:1027500021F02A0181602068016841F001010160D7
:102760002046BDE8104001F07FB8000010B598B0D9
:102770000446142111A8FDF785FD44216846FDF7A4
:1027800081FD1B492068884230D101200024CDE919
:1027900000046846FEF7AAFC08B1FDF7DBFD15480A
:1027A000016E41F480410166016E01F48041169191
:1027B000C16C41F00101C164C06C11A900F00100BD
:1027C00016904FF4C06011900220CDE9120407204A
:1027D000CDE914404FF09040FEF79CFA00221146DC
:1027E0002520FEF7EBFB2520FEF7DAFB18B010BD25
:1027F000003801400010024070B5D0F88430202B22
:102800006DD1B9B1B2B190F87C30012B67D0012302
:1028100080F87C308165A0F85C20A0F85E20002163
:10282000C16683684FF48056FF24B34207D1036921
:1028300013B11CE0012070BD40F2FF131DE07F25A5
:102840009BB1B3F1805F15D0A0F86010C0F888107C
:102850002223C0F8843003689C6844F001049C6023
:10286000436EB3F1005F0ED027E0036943B9A0F8CF
:102870006040EBE703691BB13F23A0F86030E5E758
:10288000A0F86050E2E7B0F86830934215D882684B
:10289000B24201D1026972B1124AC26680F87C105C
:1028A00001680A6842F480720A600068816841F039
:1028B000805181600FE00C4AEFE78268B24201D19B
:1028C000026952B1094AC26680F87C10006801684A
:1028D00041F490710160002070BD054AF3E70220C9
:1028E00070BD0000613A000861390008013A000833
:1028F0000139000810B500680F4988421AD10F4805
:10290000FFF7E4F90D490020096848620C4988790D
:102910000A2804D20B4B4A781A54401C8871074885
:10292000FFF798F906490122BDE81040491C064806
:10293000FFF762BF10BD0000003801404C010020CD
:102940001000002010040020E40100202DE9F843CD
:102950000446D0F880001F4616460D46202851D167
:10296000DDB1D6B194F87C0001284BD0012084F869
:102970007C004FF00008C4F888802120C4F8800053
:102980001834FEF7B5FAA6878146E68754F8100C8E
:10299000183CB0F5805F03D004E00120BDE8F88367
:1029A000206920B12E46002584F87C8010E00026A6
:1029B000FAE78021204601F0DFF9B8B9C6B116F870
:1029C000010B21688862B4F85600401EA4F8560036
:1029D000B4F856004B464FF0000200970028E8D1AB
:1029E0004FF04001204601F0C7F930B10320D5E790
:1029F00035F8020BC0F30800E3E72020C4F880009C
:102A00000020CBE70220C9E77047FEE700B585B09C
:102A100014216846FDF736FC4FF6FF700090002049
:102A20000321CDE90201019069460248FEF772F9DF
:102A300005B000BD0008004800B585B01421684607
:102A4000FDF720FC4FF6FF7000900120019003205D
:102A500003900020029069460248FEF75BF905B03A
:102A600000BD00000008004870B50024064621465D
:102A7000204600F003F900F041F94FF49635304656
:102A800000F010F9641CAC42F9D370BD30B587B0CA
:102A900014216846FDF7F6FB1E48C16C41F00401A5
:102AA000C164C16C01F004010591C16C41F00101E8
:102AB000C164C16C01F001010591C16C41F00201DA
:102AC000C164C06C012500F0020005904FF448700D
:102AD000CDE9000500240394694602940E48FEF7F0
:102AE00019F9280203940090CDE901544FF0904465
:102AF00069462046FEF70EF9FFF79EFFA06940F4F5
:102B00008070A06104481830016841F408710160C8
:102B100007B030BD0010024000040048203AD2B295
:102B2000034B02EB420203EB021200F019B8000063
:102B3000A8450008F0B50E460746002540F23F14B0
:102B400007E021463846FFF7E9FF103C6D1CA4B2B0
:102B5000761C3278002A01D0142DF2D3F0BD00008B
:102B60002DE9F04791468A460026044600F086F893
:102B7000DFF84080012700BF00F0C0F85FF00005DB
:102B800039F8160007FA05F10842404601D140889D
:102B900000E0008800F086F86D1C102DF0D3641C56
:102BA000E4B25146204600F069F8761C182EE3D3B3
:102BB000BDE8F0873C00002010B5FFF767FF00205C
:102BC00000F014F8084CA080A088A0F5024130392C
:102BD00006D000F065FB002000F008F8A08010BDD2
:102BE00000F0D5FAF7E700003C00002070B51D4961
:102BF0000A6842F400720A600A6842F480720A604D
:102C0000184C103C226842F020022260164A1060E4
:102C1000086840F02000086000BF00BF00BF2068C7
:102C200040F020002060206840F480702060FFF7B2
:102C3000EDFE4FF09041886A40F48070886200BFDA
:102C400000BF00BF0848001F006885B2886940F4D3
:102C500080708861FFF7F0FE206840F4007020600B
:102C6000284670BD280400481408004801B5BDF886
:102C700000000149488008BD3C00002010B50C460A
:102C80000146202000F068F82146BDE810402120D0
:102C900000F062B801B5BDF800000149088008BD28
:102CA0003C000020134A116841F400711160114981
:102CB00010390B6843F480730B600B6843F02003FA
:102CC0000B600D4B1860106840F02000106000BFD2
:102CD00000BF00BF086840F020000860086840F4AA
:102CE0008070086000BF00BF00BF086840F400703B
:102CF0000860704728040048140800481449086810
:102D000040F400700860086840F480700860104863
:102D10001038026842F0200202600E4B22221A6034
:102D20000A6842F020020A6000BF00BF00BF0168CD
:102D300041F020010160016841F48071016000BF31
:102D400000BF00BF016841F40071016070470000DE
:102D50002804004814080048184B10B51A6842F4BB
:102D600000721A601A6842F480721A60134A103AAC
:102D7000146844F020041460114C2060186840F07E
:102D80002000186000BF00BF00BF106840F02000A6
:102D90001060106840F4807010602160186840F086
:102DA0002000186000BF00BF00BF106840F0200086
:102DB0001060106840F48070106010BD2804004856
:102DC0001408004800EB8100006E00F0F8407047E6
:102DD0008068C0F3C00070478068C0F3800070470F
:102DE000C06810F4406F01D0002070470120704788
:102DF000042303EAD15310B518444369C1F30451C5
:102E000007248C40A3438A401343436110BD00EB69
:102E10008100016E21F000411143016670470000FE
:102E200030B589B020216846FDF72CFA19481849B9
:102E3000002401604902C0E90114C4600425046152
:102E4000C0E90545047744770121016280F82440F8
:102E5000C462046380F83840C46380F84040FDF7E2
:102E6000C9FD08B1FDF776FA0B4800900620CDE9C0
:102E700001047F200594CDE9030569460548FDF767
:102E800071FA002801D0FDF765FA09B030BD0000E5
:102E900000010050480000200080F03EF0B587B0EF
:102EA00014216846FDF7EEF92D48C16C41F004018C
:102EB000C164C16C01F004010591C16C41F02001B5
:102EC000C164C16C01F020010591C16C41F00101A8
:102ED000C164C16C01F001010591C16C41F00201B6
:102EE000C164C16C01F002010591C16C41F008019F
:102EF000C164C06C1B4E00F008004FF47F44059085
:102F0000012221463046FDF7EEFF174F0122042132
:102F10003846FDF7E8FF0125CDE90045002402947D
:102F2000694630460394FDF7F5FECDE90054694645
:102F30004FF090400295FDF7EDFE07208DE831003F
:102F400069460A48FDF7E6FE04200090CDE90154E9
:102F5000694638460394FDF7DDFE07B0F0BD00007A
:102F60000010024000080048000C0048000400481F
:102F700010B588B00024184800940194029403947A
:102F80000494059413490694016041F63F71C0E929
:102F90000114C910C0E9031444618461FEF7A3FD64
:102FA00008B1FDF7D7F94FF48050009069460A4800
:102FB000FEF7A4FE08B1FDF7CDF9049404A9064874
:102FC0000694FEF741FD002801D0FDF7C3F908B0D3
:102FD00010BD0000004001404C0100201FB500243E
:102FE00015480094019402941249039401604F2102
:102FF000C0E901144FF6FF71C0E903144461846114
:10300000FEF771FD08B1FDF7A5F90B48FEF7B1FF1A
:1030100008B1FDF79FF90120CDE90040029400229C
:10302000694605480394FEF71DFF002801D0FDF70F
:1030300091F91FBD00440140980100203EB50024D5
:103040000F48009401940D49029401604F21C0E99A
:10305000011440F2E7318461C160FEF744FD08B11C
:10306000FDF778F90094694605480294FEF7ECFCF8
:10307000002801D0FDF76EF93EBD000000140040AD
:10308000B400002010B58CB000240A9423480794A3
:10309000089409940594069404940094019402946D
:1030A0001D49039401604F21C0E901144FF6FF71DF
:1030B000C0E9031444618461FEF715FD08B1FDF712
:1030C00049F94FF48050079007A91448FEF716FEFF
:1030D00008B1FDF73FF91148FEF74BFF08B1FDF7C6
:1030E00039F90494059404A90C480694FEF7ACFC45
:1030F00008B1FDF72FF90120CDE90040029400222C
:10310000694606480394FEF7ADFE002801D0FDF79E
:1031100021F90CB010BD0000003401400001002076
:10312000184810B5164901604FF41651416000214E
:1031300081600C22C160C0E904128161C161016239
:1031400041628162FFF7DCFA08B1FDF703F9002163
:103150000C48FFF7C9F908B1FDF7FCF80021094850
:10316000FFF79CF908B1FDF7F5F80648FFF776F987
:10317000002803D0BDE81040FDF7ECB810BD0000FA
:1031800000380140E4010020FEE7FEE7704730B55B
:1031900001210020FFF7E0FD4FF47A70FDF7CCF835
:1031A00000210120FFF7D8FD41F290711020FFF7B8
:1031B000D3FD4FF41C516020FFF7CEFD01216120AB
:1031C000FFF7CAFD02214620FFF7C6FD48F21001B5
:1031D0001320FFF7C1FD48F2FE011220FFF7BCFDEE
:1031E0004FF4A0610220FFF7B7FD41F23001032048
:1031F000FFF7B2FD40F2033421463020FFF7ACFD6B
:1032000021463120FFF7A8FD21463220FFF7A4FD1B
:10321000E51E29463320FFF79FFD03213420FFF7E9
:103220009BFD21463520FFF797FD14213620FFF73F
:1032300093FD21463720FFF78FFD21463820FFF709
:103240008BFD21463920FFF787FD29463A20FFF7FD
:1032500083FD03213B20FFF77FFD21463C20FFF744
:103260007BFD4FF4A0513D20FFF776FD4FF4007138
:103270009220FFF771FD21469320FFF76DFD40F688
:103280000D019020FFF768FD41F218010320FFF7C0
:1032900063FDBDE8304040F273110720FFF75CBDCD
:1032A00010B543F20801E320FFF756FD1221E72095
:1032B000FFF752FD41F23121EF20FFF74DFD0021D4
:1032C0000120FFF749FD4FF4E0610220FFF744FDC4
:1032D00041F230010320FFF73FFD00210420FFF7FA
:1032E0003BFD40F207210820FFF736FD00210920B1
:1032F000FFF732FD00210A20FFF72EFD00210C20F0
:10330000FFF72AFD00210D20FFF726FD00210F20E9
:10331000FFF722FD00211020FFF71EFD07211120DD
:10332000FFF71AFD00211220FFF716FD00211320E0
:10333000FFF712FDC820FDF7DBFC41F29061102081
:10334000FFF70AFD40F227211120FFF705FD32208B
:10335000FDF7CEFC1D211220FFF7FEFC3220FDF709
:10336000C7FC4FF400611320FFF7F6FC142129205D
:10337000FFF7F2FC0B212B20FFF7EEFC3220FDF7CC
:10338000B7FC00212020FFF7E7FC00212120FFF7F8
:10339000E3FC07213020FFF7DFFC40F2077131200A
:1033A000FFF7DAFC06213220FFF7D6FC40F2047169
:1033B0003520FFF7D1FC41F604713620FFF7CCFC35
:1033C00004213720FFF7C8FC00213820FFF7C4FC98
:1033D00040F206713920FFF7BFFC40F201713C203A
:1033E000FFF7BAFC0F213D20FFF7B6FC002150206B
:1033F000FFF7B2FCEF215120FFF7AEFC0021522075
:10340000FFF7AAFC40F23F115320FFF7A5FC4FF451
:103410001C516020FFF7A0FC01216120FFF79CFCFC
:1034200000216A20FFF798FC00218020FFF794FC20
:1034300000218120FFF790FC00218220FFF78CFC07
:1034400000218320FFF788FC00218420FFF784FC03
:1034500000218520FFF780FC10219020FFF77CFCE5
:1034600000219220FFF778FC03219320FFF774FCE2
:103470004FF488719520FFF76FFC00219720FFF72C
:103480006BFC00219820FFF767FC41F21801032034
:10349000FFF762FCBDE8104040F273110720FFF710
:1034A0005BBC7047FDF72ABD10B594B03821684663
:1034B000FCF7E8FE14210EA8FCF7E4FE4FF40070C0
:1034C000FDF7AEFD012000900004019002200324CE
:1034D000CDE907041421CDE90A100C900D90099450
:1034E0006846FEF791F808B172B6FEE70F20CDE905
:1034F0000E04002010901190129002210EA8FDF7EA
:1035000039FF002801D072B6FEE714B010BD0000EC
:103510000548016841F47001016003494FF0006003
:10352000803908607047000088ED00E00148FEF730
:10353000E7BD00004C0100200148FEF7E1BD00009E
:10354000980100200148FEF7DBBD0000B400002018
:103550000148FEF7D5BD0000000100202DE9F04331
:103560000268234B234D244E244C4FF0804998424F
:1035700007D0484505D0A84203D0B04201D0A042B0
:1035800003D122F070074A683A431D4FDFF874C038
:10359000DFF8748098420DD048450BD0A84209D07E
:1035A000B04207D0A04205D0B84203D0604501D058
:1035B000404503D122F44075CA682A434D6922F080
:1035C00080022A4302608A68C2620A688262984264
:1035D00007D0A04205D0B84203D0604501D0404595
:1035E00001D10969016301214161BDE8F083000057
:1035F000002C01400004004000080040003401405D
:1036000000400140004401400048014010B501F075
:103610001F030121046A99408C430462016A9A40A5
:103620001143016210BD10B5846842EA032224F4FC
:103630007F440A432243826010BD00008268034B2E
:103640001A400A4342F00701816070478FFFCFFFA5
:1036500010B5036A046A24F001040462846924F04A
:10366000F00444EA021423F00A020A43846102626D
:1036700010BD000070B5046A24F00104046284697E
:10368000056A124EB0420ED0B0F1804F0BD0104EF2
:10369000B04208D00F4EB04205D00F4EB04202D01B
:1036A0000E4EB04203D124F00304144301E044F071
:1036B00001041A0724F0F00444EA126225F00A0318
:1036C00001F00A0119438261016270BD002C0140C2
:1036D0000004004000080040003401400040014068
:1036E00010B5036A23F0100303628369046A23F4AC
:1036F000704343EA023224F0A00343EA01118261DD
:10370000016210BD30B5046A24F0100404628469BB
:10371000056A24F4407444EA022222F470444FF60D
:10372000FF7202EA03322243A02425F0A00304EA38
:10373000011119438261016230BD00003FB514A13F
:10374000D1E90021CDE9002113A2D2E90012CDE98F
:103750000212416EB9B1026891689268C1F3426188
:10376000520F1DF80240E50002ACA25CB5FBF2F27C
:10377000A0F86A201DF80120615CD200B2FBF1F1D3
:10378000A0F868103FBD0121A0F86A10F8E700001A
:1037900001010103070100000804020408010101FE
:1037A00090F82810C90706D001684A68C36A22F455
:1037B00000321A434A6090F82810890706D501683C
:1037C0004A68036B22F480321A434A6090F828104A
:1037D000490706D501684A68436B22F480221A43E0
:1037E0004A6090F82810090706D501684A68836B7B
:1037F00022F400421A434A6090F82810C90606D500
:1038000001688A68C36B22F480521A438A6090F878
:103810002810890606D501688A68036C22F40052D4
:103820001A438A6090F82810490611D501684A6841
:10383000436C22F480121A434A60416CB1F5801F38
:1038400006D101684A68836C22F4C0021A434A60B8
:1038500090F82810090606D501684A68C06C22F461
:10386000002202434A607047F8B500260446C0F8BB
:103870008860FDF73DFB0546206800686FF07E47D5
:10388000000708D52B4600224FF400112046009770
:1038900000F072FA60B92068006840070AD52B462C
:1038A00000224FF480012046009700F065FA08B12D
:1038B0000320F8BD2020C4F88000C4F8840084F8F8
:1038C0007C600020F8BD10B5806A0021A0F85E1071
:1038D000A0F85610FEF730FE10BD000001680A681F
:1038E00022F490720A6001688A68044B1A408A6068
:1038F0002021C0F884100021C1667047FEFFFFEF51
:1039000010B5B0F86020D0F884300168222B04D0C4
:10391000886940F00800886110BD496A836D1140D4
:103920001980816D891C8165B0F85E10491EA0F870
:103930005E10B0F85E100029EED101680A6822F42A
:1039400090720A6001688A6822F001028A60202170
:10395000C0F884100021C166FEF7CCFF10BD000046
:1039600070B50446B0F86060D0F88400222805D015
:103970002068816941F00801816170BDB4F8685028
:1039800023E02068406AA16D30400880A06D801C53
:10399000A065B4F85E00401EA4F85E00B4F85E00B6
:1039A00088B92068016821F480710160206881680D
:1039B000114A114081602020C4F884000020E06694
:1039C0002046FEF797FF6D1EADB2002DD9D1B4F899
:1039D0005E000028D1D0B4F868108142CDD92068AB
:1039E000816821F0805181600448E06620680168A8
:1039F00041F02001016070BDFEFFFFEF01390008BA
:103A000010B5B0F86020D0F884300168222B04D0C3
:103A1000886940F00800886110BD496A1140826DD4
:103A20001170816D491C8165B0F85E10491EA0F8C7
:103A30005E10B0F85E100029EED101680A6822F429
:103A400090720A6001688A6822F001028A6020216F
:103A5000C0F884100021C166FEF74CFF10BD0000C5
:103A600070B50446B0F86060D0F88400222805D014
:103A70002068816941F00801816170BDB4F8685027
:103A800023E02068406AA16D30400870A06D401CA2
:103A9000A065B4F85E00401EA4F85E00B4F85E00B5
:103AA00088B92068016821F480710160206881680C
:103AB000114A114081602020C4F884000020E06693
:103AC0002046FEF717FF6D1EADB2002DD9D1B4F818
:103AD0005E000028D1D0B4F868108142CDD92068AA
:103AE000816821F0805181600448E06620680168A7
:103AF00041F02001016070BDFEFFFFEF013A0008B8
:103B00002DE9F0410446026880682169E3690843B1
:103B10006169002519430843616EDFF830C2014333
:103B200010688B4B18400843106020684168E268B9
:103B300021F44051114341602168A069614501D0E1
:103B4000226A10438A68834B1A4002438A602068C5
:103B5000C16A626A21F00F011143C1627E49236884
:103B60007E488B420DD1D0F8880010F0030006D0BB
:103B7000012855D0022842D003283FD152E001202D
:103B80003DE077498B420BD1D0F8880010F00C0053
:103B900035D0042833D0082840D00C282ED141E05D
:103BA00070498B420BD1D0F8880010F0300026D03D
:103BB000102835D0202831D030281FD132E06A4972
:103BC0008B420BD1D0F8880010F0C00017D04028ED
:103BD00026D0802822D0C02810D123E063450DD103
:103BE000D0F8880010F4406009D0B0F5806F17D08D
:103BF000B0F5006F12D0B0F5406F13D010205B49C4
:103C00005B4F00264FF40042634539D160B1022872
:103C100013D004280BD0082831D10DE00220EEE7A4
:103C20000420ECE70820EAE7FDF792FC01E0FDF74D
:103C3000B3FC010001D17EE01146606A37F8102024
:103C40006768B1FBF2F007EB470383426FD8B0EB34
:103C5000073F6CD8002308461946FCF7DBFA090237
:103C600041EA106102027808101871413A460023B7
:103C7000FCF7D0FA3F4AA0F54071914259D956E07D
:103C8000E3694FF6EF7893422DD109284FD2DFE850
:103C900000F00508114E0D4E4E4E1000FDF758FC79
:103CA00001E0FDF767FC010004D144E0FDF774FC7E
:103CB000F9E71146606A37F81000B1FBF0F04100F7
:103CC000606801EB5001B1FBF0F080B2A0F110018F
:103CD00041452CD84FF6F0710140C0F3420001433A
:103CE0002068C16027E0092821D2DFE800F005083C
:103CF00011200D2020201000FDF72AFC01E0FDF727
:103D000039FC010004D116E0FDF746FCF9E7114645
:103D1000606A37F81000B1FBF0F1606801EB500108
:103D2000B1FBF0F080B2A0F11001414501D90125AD
:103D300001E02168C8600120A4F86A0024F8680F37
:103D400028466660A660BDE8F08100000080004063
:103D5000F369FFCFFFF4FF1100380140001002406B
:103D60000044004000480040004C00400024F400A3
:103D700078450008FFFC0F002DE9F0479A461746EA
:103D80000E4604464FF000094FF02008089D39E028
:103D9000681C37D0FDF7ACF8A0EB0A00A84222D887
:103DA0000DB32068016849072CD5C069C0430005E0
:103DB00028D421684FF4006008622068016821F46B
:103DC000D07101602068816821F001018160C4F830
:103DD0008080C4F88480C4F8888000BF84F87C9018
:103DE0000320BDE8F0872068016821F4D0710160EC
:103DF0002068816821F001018160C4F88080C4F8E6
:103E00008480EBE72068C06936EA000004D0002017
:103E1000B842BDD00020E4E70120F9E70148FEF7F1
:103E20008DBB0000E4010020FEE700000FB4054B4D
:103E300010B503A9044A029800F03CF810BC5DF8E4
:103E400014FB000079400008440000200FB4084B28
:103E500010B504A902AA039800F02CF8044602A9A0
:103E6000002000F003F9204610BC5DF814FB0000B0
:103E70006D4000080907090E002804DB00F1E0206E
:103E800080F80014704700F00F0000F1E02080F887
:103E9000141D704702E008C8121F08C1002AFAD199
:103EA00070477047002001E001C1121F002AFBD1BA
:103EB000704700002DE9FF4F8BB09A460F4605462C
:103EC000002606E025280BD052460D9990476D1C20
:103ED000761C28780028F5D10FB03046BDE8F08F69
:103EE0000024A0460122604900E0044315F8013F88
:103EF000203B02FA03F00842F7D128782E2817D188
:103F000015F8010F44F004042A280ED06FF02F0298
:103F10002878A0F1300109290AD808EB880102EBC2
:103F2000410100EB01086D1CF2E757F8048B6D1C92
:103F3000287869283ED006DC0028CDD063280BD035
:103F4000642804D136E0732810D075284BD052462F
:103F50000D999047761C85E017F8040B8DF800004A
:103F600000208DF80100E946012003E057F8049B8A
:103F70004FF0FF3061074FF0000401D40AE0641CE9
:103F800044450DDA8442FADB19F804100029F6D111
:103F900006E0641C8442FCDB19F804100029F8D107
:103FA000264404E019F8010B52460D999047641E0F
:103FB000F8D257E001CF4FF00A0B002802DA404256
:103FC0002D2102E0210504D52B218DF8241001219B
:103FD00003E0E10705D02021F7E70DF12009089162
:103FE0000CE00021F9E701CF4FF00A0BF9E7594641
:103FF000FCF753F901F1300209F8012D0028F6D140
:10400000ADEB090000F1200B600701D44FF001086F
:10401000D84502DDA8EB0B0000E00020804600241C
:1040200006E009A85246005D0D999047641C761C75
:1040300008988442F5DB04E0302052460D99904701
:10404000761CB8F10001A8F10108F5DC05E019F8CB
:10405000010B52460D999047761CBBF10001ABF164
:10406000010BF4DC6D1C34E7092801000A68531CBD
:104070000B6010707047000013B5FF2301226946E2
:104080000248FEF763FC00981CBD0000E40100201C
:104090002DE9F05F524D01212846FCF71FFF514CDE
:1040A000022120702846FCF719FF60700421284681
:1040B000FCF714FFA07001214FF09040FCF70EFFB9
:1040C0000027DFF82491E070251D4FF0020A4FF021
:1040D000010B4FF47A7604F10808E05D0028E85DF2
:1040E00001D038B112E0012810D1FCF701FF49F8E6
:1040F00027000BE0FCF7FCFE59F82710401AB042ED
:1041000002D908F807A001E008F807B07F1C042FC7
:10411000E3DB344898F800300022414610384BB1B8
:10412000012B06D103785B1CDBB20370022B00D19C
:1041300002700A704B784BB1012B06D183785B1C5F
:10414000DBB28370022B00D182704A708B7842F20E
:104150001077DBB1012B18D1037890F802C053EA35
:104160000C0C02D0012B08D00FE0C3785B1CDBB233
:10417000C370022B09D1C27007E0C38903F57A73BB
:104180009BB2C381BB4200D9C6818A70CB78E3B1B0
:10419000012B18D1037890F802C053EA0C0C02D01E
:1041A000012B08D00FE003795B1CDBB20371022BFB
:1041B00009D1027107E0C389A3F57A739BB2C38169
:1041C000B34200D2C78188F8032020782870607835
:1041D0006870A078A870E078E870BDE8F09F0000F3
:1041E00000040048200000207002002010B51EA12D
:1041F0002348FFF72BFE224822A12830FFF726FE96
:104200001F4819A15030FFF721FE244C1C4824A15F
:1042100062897830FFF71AFE1948A28926A1A030DA
:10422000FFF714FEA07804F1200100EB400001EB41
:104230004002134826A1C830FFF708FE10480AA123
:10424000F030FFF703FE08A12748FFF7FFFD2648DF
:1042500005A12830FFF7FAFD2348BDE8104002A170
:104260005030FFF7F3BD0000202020202020202028
:1042700020202020202020202020202000000000BE
:104280008002002020202020202020204441544172
:1042900020202020202020200000000010000020EE
:1042A000202020202046313D2564485A202020200F
:1042B0002020202000000000202020202046323D29
:1042C0002564485A202020202020202000000000C3
:1042D00020202020204D4F44453D257320202020C4
:1042E00020202020000000009803002010B51AA113
:1042F0001F48FFF7ABFD1E481EA12830FFF7A6FDA3
:104300001B4815A15030FFF7A1FD204820A1C2890C
:1043100017487830FFF79AFD15480FA1A030FFF736
:1043200095FD13480CA1C830FFF790FD10480AA175
:10433000F030FFF78BFD08A11B48FFF787FD1A48F7
:1043400005A12830FFF782FD1748BDE8104002A103
:104350005030FFF77BBD00002020202020202020AF
:1043600020202020202020202020202000000000CD
:104370008002002020202020202020205041524177
:1043800020202020202020200000000010000020FD
:1043900020202020202050463D2564485A202020FF
:1043A00020202020000000009803002070B50D4858
:1043B000007810B1012803D004E0FFF717FF01E0F7
:1043C000FFF794FF084D002404EB840005EBC001C7
:1043D00004EB4400C006000EFEF7ACFB641C0A2C84
:1043E000F2DB70BD10000020800200202DE9F047B4
:1043F000134C054688462068124F86B238892060E3
:10440000DFF84490012204214846FCF76CFD4FF48C
:1044100080716D1EA9400A4889B21438B8F1000FA6
:1044200001D0002200E00122FCF75DFD2068388108
:10443000002204214846FCF756FD2660BDE8F087BF
:104440001408004810000020000C0048FCF75EFD36
:10445000FFF72AF8FEF722FDFEF7F0FDFEF7E0FC7D
:10446000FEF710FEFEF784FDFEF7B8FDFEF758FEDE
:10447000002204212348FCF736FD00210120FFF72C
:10448000B5FF00210220FFF7B1FF00210320FFF755
:10449000ADFF00210420FFF7A9FF00210520FFF751
:1044A000A5FF00210620FFF7A1FF00210720FFF74D
:1044B0009DFF00210820FFF799FF01210846FFF723
:1044C00095FF1148FDF7C6FBFEF776FB0020FEF7CF
:1044D000CBFA4FF6FF70FEF7DDFB0020FEF7C6FBC0
:1044E00000210A48FDF778FD00210948FDF774FD19
:1044F000012208490848FEF77FF900BF00F00EF8D6
:10450000FCE70000000C0048B400002098010020E7
:104510000001002011000020E401002010B5FFF789
:1045200045FF144C2078F0B100210120FFF75EFF19
:104530002078012819D000210220FFF757FFA0782A
:10454000012814D000210820FFF750FF6189E0897D
:10455000814202D2A18981420BD30021BDE81040E3
:104560000320FFF743BF0121DFE70121E4E7012139
:10457000E9E710BD10000020010002000400060061
:1045800008000A000C00100020004000800000011C
:1045900000000000000000000102030406070809F3
:1045A0000000000001020304000000000000000001
:1045B00000000000000000000000000000000000FB
:1045C00000000000000000000000000000000000EB
:1045D0000000000000000000000080018001800158
:1045E00080018001800180018001800180018001C3
:1045F00080018001000000008001800100000000B7
:10460000000000000000000000000000CC00CC0012
:10461000CC00CC00CC00CC0000000000000000006A
:10462000000000000000000000000000000000008A
:10463000000000000000000000000000000000007A
:1046400000000000600C600C600C30063006FE1F9D
:10465000FE1F300638071803FE1FFE1F180318033D
:104660008C018C018C01000000008000E003F80F39
:104670009C0E8C1C8C188C009800F801E007800EB2
:10468000801C8C188C189C18B80CF00FE00380006C
:1046900080000000000000000000000000000E1874
:1046A0001B0C110C11061106110311039B018E0145
:1046B000C038C06C60446044304430441844186CC6
:1046C0000C380000000000000000E001F003380793
:1046D000180618063003F001F000F8009C310E3384
:1046E000061E061C061C063FFC73F021000000009D
:1046F0000000000000000000000000000C000C00A2
:104700000C000C000C000C00000000000000000079
:104710000000000000000000000000000000000099
:104720000000000000000000000000020003800103
:10473000C000C00060006000300030003000300079
:10474000300030003000300060006000C000C00069
:104750008001000300020000000020006000C00093
:104760008001800100030003000600060006000629
:104770000006000600060006000300038001800119
:10478000C0006000200000000000000000000000E9
:1047900000000000C000C000D806F807E0013003A8
:1047A00038070000000000000000000000000000CA
:1047B00000000000000000000000000000000000F9
:1047C0000000000080018001800180018001FC3F29
:1047D000FC3F800180018001800180010000000019
:1047E00000000000000000000000000000000000C9
:1047F00000000000000000000000000000000000B9
:1048000000000000000000000000800180010001A5
:104810000001800000000000000000000000000017
:104820000000000000000000000000000000000088
:10483000E007E007000000000000000000000000AA
:104840000000000000000000000000000000000068
:104850000000000000000000000000000000000058
:1048600000000000000000000000C000C0000000C8
:1048700000000000000000000000000C000C00061A
:10488000000600060003000300038003800180018E
:104890008001C000C000C000600060000000000097
:1048A00000000000000000000000E003F007380EE8
:1048B000180C0C180C180C180C180C180C180C18D8
:1048C0000C180C18180C380EF007E003000000005C
:1048D0000000000000000000000000018001C00195
:1048E000F001980188018001800180018001800130
:1048F00080018001800180018001800100000000B2
:1049000000000000000000000000E003F80F180C99
:104910000C180C1800180018000C00060003800189
:10492000C000600030001800FC1FFC1F00000000E9
:1049300000000000000000000000E001F807180E71
:104940000C0C0C0C000C0006C003C007000C001877
:1049500000180C180C18180CF807E00300000000F1
:1049600000000000000000000000000C000E000F1E
:10497000000F800DC00C600C600C300C180C0C0C7F
:10498000FC3FFC3F000C000C000C000C0000000081
:1049900000000000000000000000F80FF80F1800F1
:1049A00018000C00EC03FC071C0E001C001800187B
:1049B00000180C181C0C180EF807E003000000008B
:1049C00000000000000000000000C007F00F381CCD
:1049D000181818000C00CC03EC0F3C0E1C1C0C1813
:1049E0000C180C18181C380EF007E003000000002B
:1049F00000000000000000000000FC1FFC1F000C75
:104A000000060006000380038001C001C000E00032
:104A100060006000700030003000300000000000D6
:104A200000000000000000000000E003F007380E66
:104A3000180C180C180C3806F007F007180C0C1896
:104A40000C180C180C18380CF80FE00300000000CC
:104A500000000000000000000000E003F007380E36
:104A60001C0C0C180C180C181C1C381EF81BE01918
:104A70000018000C000C1C0EF807F00100000000EC
:104A80000000000000000000000000000000000026
:104A90000000000080018001000000000000000014
:104AA0000000000000000000800180010000000004
:104AB00000000000000000000000000000000000F6
:104AC00000000000800180010000000000000000E4
:104AD00000000000000000008001800100010001D2
:104AE0008000000000000000000000000000000046
:104AF00000000000000000000010001C800FE00318
:104B0000F8001800F800E003800F001C00100000FF
:104B10000000000000000000000000000000000095
:104B20000000000000000000F81F0000000000006E
:104B3000F81F00000000000000000000000000005E
:104B40000000000000000000000000000000000065
:104B5000000000000000000008003800F001C0075D
:104B6000001F0018001FC007F001380008000000F7
:104B700000000000000000000000E003F80F180C27
:104B80000C180C180018000C000600038001C0006F
:104B9000C000C00000000000C000C0000000000015
:104BA000000000000000000000000000E0071818EE
:104BB0000420C229224A1144094409440944092213
:104BC0001113E20C024004201818E0070000000056
:104BD0000000000000000000000080038003C00609
:104BE000C006C006600C600C301830183018F83F52
:104BF000F83F1C700C600C6006C006C0000000008E
:104C000000000000000000000000FC03FC0F0C0C82
:104C10000C180C180C180C0CFC07FC0F0C180C30A2
:104C20000C300C300C300C18FC1FFC07000000008E
:104C300000000000000000000000C007F01F38382E
:104C40001C300C7006600600060006000600060018
:104C5000060006600C701C30F01FE007000000002A
:104C600000000000000000000000FE03FE0F060E22
:104C700006180618063006300630063006300630B4
:104C8000063006180618060EFE0FFE030000000090
:104C900000000000000000000000FC3FFC3F0C0092
:104CA0000C000C000C000C00FC1FFC1F0C000C0086
:104CB0000C000C000C000C00FC3FFC3F000000004E
:104CC00000000000000000000000F83FF83F18005E
:104CD0001800180018001800F81FF81F1800180016
:104CE0001800180018001800180018000000000034
:104CF00000000000000000000000E00FF83F3C78DA
:104D00000E6006E007C00300030003FE03FE03C0BD
:104D100007C006C00EC03CF0F83FE00F00000000E6
:104D2000000000000000000000000C300C300C30CF
:104D30000C300C300C300C30FC3FFC3F0C300C3095
:104D40000C300C300C300C300C300C3000000000FB
:104D500000000000000000000000800180018001D0
:104D6000800180018001800180018001800180013B
:104D7000800180018001800180018001000000002D
:104D80000000000000000000000000060006000611
:104D900000060006000600060006000600060006E3
:104DA0000006180618063807F003E00100000000AE
:104DB0000000000000000000000006300618060C8D
:104DC000060606038601C60066007600DE008E0138
:104DD00006030606060C06180630066000000000F2
:104DE000000000000000000000001800180018007B
:104DF00018001800180018001800180018001800F3
:104E00001800180018001800F81FF81F0000000014
:104E1000000000000000000000000EE01EF01EF088
:104E20001EF036D836D836D836D866CC66CC66CCA6
:104E3000C6C6C6C6C6C6C6C686C386C300000000B0
:104E4000000000000000000000000C301C303C306E
:104E50003C306C306C30CC30CC308C310C330C337B
:104E60000C360C360C3C0C3C0C380C3000000000AE
:104E700000000000000000000000E007F81F1C38E0
:104E80000E70066003C003C003C003C003C003C0AC
:104E900003C006600E701C38F81FE0070000000019
:104EA00000000000000000000000FC0FFC1F0C3898
:104EB0000C300C300C300C300C18FC1FFC070C00B4
:104EC0000C000C000C000C000C000C00000000009A
:104ED00000000000000000000000E007F81F1C3880
:104EE0000E70066003E003C003C003C003C003C02C
:104EF00007E006630E3F1C3CF83FE0F700C00000EF
:104F000000000000000000000000FE0FFE1F063839
:104F10000630063006300638FE1FFE07060306067A
:104F2000060C061806180630063006600000000061
:104F300000000000000000000000E003F80F1C0C5F
:104F40000C180C180C001C00F803E00F001E0038B1
:104F5000063006300E301C1CF80FE0070000000081
:104F600000000000000000000000FE7FFE7F8001C6
:104F70008001800180018001800180018001800129
:104F8000800180018001800180018001000000001B
:104F9000000000000000000000000C300C300C305D
:104FA0000C300C300C300C300C300C300C300C3021
:104FB0000C300C300C301818F81FE007000000000F
:104FC0000000000000000000000003600630063012
:104FD00006300C180C180C18180C180C380E30066B
:104FE0003006700760036003C001C00100000000CC
:104FF000000000000000000000000360C361C36106
:10500000C3616633663366336633663366336C1B5F
:105010006C1B6C1B2C1A3C1E380E380E0000000056
:10502000000000000000000000000FE00C701830CD
:105030003018700C600EC00780038003C003E006C8
:10504000700C301C18180C300E6007E000000000D7
:105050000000000000000000000003C006600C30EB
:105060001C383818300C6006E007C003800180014E
:10507000800180018001800180018001000000002A
:1050800000000000000000000000FC7FFC7F0060CA
:1050900000300018000C000600038001C000600012
:1050A000300018000C000600FE7FFE7F00000000AC
:1050B00000000000000000000000E003E0036000CA
:1050C00060006000600060006000600060006000E0
:1050D00060006000600060006000600060006000D0
:1050E0006000E003E00300000000300030006000DA
:1050F00060006000C000C000C000C00180018001ED
:105100008001000300030003000600060000000009
:1051100000000000000000000000E003E0030003C6
:105120000003000300030003000300030003000367
:105130000003000300030003000300030003000357
:105140000003E003E003000000000000C001C00114
:1051500060036003600330063006180C180C000072
:10516000000000000000000000000000000000003F
:10517000000000000000000000000000000000002F
:10518000000000000000000000000000000000001F
:1051900000000000000000000000FFFFFFFF000013
:1051A000000000000000000000000C000C000C00DB
:1051B0000C000C000C0000000000000000000000CB
:1051C00000000000000000000000000000000000DF
:1051D00000000000000000000000000000000000CF
:1051E00000000000F003F8071C0C0C0C000FF00F7F
:1051F000F80C0C0C0C0C1C0FF80FF0180000000041
:105200000000000000000000000018001800180056
:1052100018001800D803F80F380C181818181818A8
:10522000181818181818380CF80FD80300000000C8
:10523000000000000000000000000000000000006E
:1052400000000000C003F007300E180C1800180012
:1052500018001800180C300EF007C0030000000002
:1052600000000000000000000000001800180018F6
:1052700000180018C01BF01F301C18181818181838
:10528000181818181818301CF01FC01B0000000058
:10529000000000000000000000000000000000000E
:1052A00000000000C003F00F300C1818F81FF81FA2
:1052B000180018003818301CF00FC007000000005C
:1052C00000000000000000000000800FC00FC000C0
:1052D000C000C000F007F007C000C000C000C00060
:1052E000C000C000C000C000C000C000000000003E
:1052F00000000000000000000000000000000000AE
:1053000000000000E00DF80F180E0C0C0C0C0C0C3B
:105310000C0C0C0C0C0C180EF80FE00D000C0C0C07
:105320001C06F807F0010000000018001800180023
:1053300018001800D807F80F381C18181818181873
:10534000181818181818181818181818000000003D
:1053500000000000000000000000C000C0000000CD
:1053600000000000C000C000C000C000C000C000BD
:10537000C000C000C000C000C000C00000000000AD
:1053800000000000000000000000C000C00000009D
:1053900000000000C000C000C000C000C000C0008D
:1053A000C000C000C000C000C000C000C000C000FD
:1053B000C000F8007800000000000C000C000C0099
:1053C0000C000C000C0C0C060C038C01CC006C00C7
:1053D000FC009C018C030C030C060C0C000000006C
:1053E00000000000000000000000C000C000C0007D
:1053F000C000C000C000C000C000C000C000C000AD
:10540000C000C000C000C000C000C000000000001C
:10541000000000000000000000000000000000008C
:10542000000000007C3CFF7EC7E383C183C183C1D1
:1054300083C183C183C183C183C183C100000000D4
:10544000000000000000000000000000000000005C
:10545000000000009807F80F381C181818181818C2
:10546000181818181818181818181818000000001C
:10547000000000000000000000000000000000002C
:1054800000000000C003F00F300C1818181818188E
:10549000181818181818300CF00FC003000000007E
:1054A00000000000000000000000000000000000FC
:1054B00000000000D803F80F380C18181818181836
:1054C000181818181818380CF80FD80318001800F6
:1054D0001800180018000000000000000000000084
:1054E00000000000C01BF01F301C181818181818F6
:1054F000181818181818301CF01FC01B00180018B6
:105500000018001800180000000000000000000053
:1055100000000000B007F0037000300030003000E1
:10552000300030003000300030003000000000005B
:10553000000000000000000000000000000000006B
:1055400000000000E003F003380E180C3800F003F0
:10555000C007000C180C380EF007E0030000000034
:105560000000000000000000000000008000C000FB
:10557000C000C000F007F007C000C000C000C000BD
:10558000C000C000C000C000C007800700000000CD
:10559000000000000000000000000000000000000B
:1055A00000000000181818181818181818181818DB
:1055B000181818181818381CF01FE01900000000FF
:1055C00000000000000000000000000000000000DB
:1055D000000000000C18180C180C180C30063006CF
:1055E0003006600360036003C001C00100000000DA
:1055F00000000000000000000000000000000000AB
:1056000000000000C141C141C36163636363636320
:105610003636363636361C1C1C1C1C1C000000009E
:10562000000000000000000000000000000000007A
:10563000000000001C38381C300C6006600360035A
:10564000600360036006300C381C1C38000000004A
:10565000000000000000000000000000000000004A
:10566000000000001830301830187018600C600C02
:10567000E00CC006C0068003800380038001800127
:10568000C001F000700000000000000000000000F9
:1056900000000000FC1FFC1F000C0006000380013E
:1056A000C000600030001800FC1FFC1F000000005C
:1056B0000000000000000000000000038001C000A6
:1056C000C000C000C000C000C0006000600030002A
:1056D00060004000C000C000C000C000C000C000AA
:1056E00080010003000000000000800180018001B3
:1056F00080018001800180018001800180018001A2
:105700008001800180018001800180018001800191
:10571000800180018001000000006000C000C00125
:1057200080018001800180018001000300030006E8
:10573000000300018001800180018001800180015F
:10574000C000600000000000000000000000000039
:105750000000000000000000F010F81F080F00001B
:105760000000000000000000000000000000000039
:105770000000000000000000985700080000002012
:1057800048000000943E0008E05700084800002050
:10579000D8070000A43E000810000000010000002F
:1057A000000000000024F4000000000101000000DF
:1057B000000000000000E8030000000001010101FA
:1057C00000000000000000004B4559000000555348
:1057D000415254000000FFFF0000000000000000E4
:04000005080001D915
:00000001FF
