:020000040800F2
:1000000078070020F101000847270008C7200008F2
:100010004527000829030008E53300080000000018
:100020000000000000000000000000005F2A00083F
:100030002B0300080000000049270008612A00087F
:100040000B0200080B0200080B0200080B0200085C
:100050000B0200080B0200080B0200080B0200084C
:100060000B0200080B0200080B0200080B0200083C
:100070000B0200080B0200080B0200080B0200082C
:100080000B020008000000000B0200080B02000831
:100090000B0200080B0200080B0200080B0200080C
:1000A000E92A0008F52A00080B0200080B020008E4
:1000B0000B0200080B0200080B0200080B020008EC
:1000C0000B0200080B0200080B0200080B020008DC
:1000D0000B020008D93300080B0200080B020008CD
:1000E0000B0200080B0200080B0200080B020008BC
:1000F0000B0200080B0200080D2B00080000000096
:10010000000000000B020008000000000B020008C5
:100110000B020008000000000B020008012B000881
:100120000B0200080B0200080B0200080B0200087B
:100130000B02000800000000000000000B02000895
:100140000B0200080B020008000000000000000085
:10015000000000000000000000000000000000009F
:100160000000000000000000000000000B0200087A
:100170000B0200080000000000000000000000006A
:10018000000000000B02000800000000000000005A
:10019000000000000000000000000000000000005F
:1001A00000000000000000000B0200080B02000825
:1001B0000B0200080B0200080B0200080000000000
:1001C000000000000B02000800000000000000001A
:1001D0000B0200080B020008DFF810D000F092F8C4
:1001E00000480047F5390008AFF300807807002089
:1001F0000648804706480047FEE7FEE7FEE7FEE7C1
:10020000FEE7FEE7FEE7FEE7FEE7FEE7CD2A000891
:10021000D90100082DE9F05F0546002092469B4673
:1002200088460646814640241BE02846414647460C
:10023000224600F057F853465A46C01A914110D34F
:1002400011461846224600F03EF82D1A67EB0108C9
:100250004F4622460120002100F035F817EB000937
:100260004E41201EA4F10104DFDC484631462A46F7
:100270004346BDE8F09FD2B201E000F8012B491ED1
:10028000FBD270470022F6E710B513460A46044633
:100290001946FFF7F0FF204610BD30B50B4601466A
:1002A00000202022012409E021FA02F59D4205D315
:1002B00003FA02F5491B04FA02F52844151EA2F1BF
:1002C0000102F1DC30BD202A04DB203A00FA02F101
:1002D000002070479140C2F1200320FA03F3194334
:1002E00090407047202A04DB203A21FA02F00021D6
:1002F000704721FA02F3D040C2F120029140084336
:1003000019467047064C074D06E0E06840F00103CF
:1003100094E8070098471034AC42F6D3FFF760FF2B
:10032000C44C0008E44C0008FEE77047002240F689
:10033000B83306E00021491C89B29942FBD3521C14
:1003400092B28242F6D3704772B6FEE770B590F86B
:100350002520002401212346022A07D00422C2635B
:1003600080F8251080F82430012429E002681568FF
:1003700025F00E0515600268156825F00105156069
:10038000826C156825F48075156090F84420056C22
:1003900002F01F0201FA02F26A60D0E913255560EB
:1003A000426D32B1156825F480751560D0E91625C7
:1003B000556080F8251080F82430816B01B18847A2
:1003C000204670BD70B5044600F0FCF80546601C80
:1003D00002D004484068044400F0F4F8401BA042F6
:1003E000FAD370BD000000202DE9FC4FDFF8A0A17A
:1003F000002301250AF1040B03244FF00F0C0BF12D
:10040000040EBDE005FA03F632406FD04F68012FAD
:1004100005D0022F03D0112F01D0122F17D1D0F801
:1004200008905F0004FA07F829EA08090097D1F854
:100430000C8008FA07F848EA0908C0F808804768FD
:10044000B7430E79C6F300169E403E434660C66829
:100450004FEA430804FA08F7BE4301978F6807FA8A
:1004600008F73743C7604E68022E01D0122E13D111
:10047000DE0800EB86060096366A5F07FF0E0CFA70
:1004800007F926EA0906D1F8109009FA07F949EAAE
:100490000609009EC6F820900668019FBE430F79AA
:1004A00007F0030707FA08F7374307604E68F600BE
:1004B00065D5384E376E47F001073766366E23F044
:1004C000030706F001060096334E3E44B146B66877
:1004D0009F074FEA17780CFA08F7BE43B0F1904F28
:1004E00005D02E4FB84204D1012717E047E000277E
:1004F00014E02B4FB84201D102270FE0294FB84238
:1005000001D103270AE0284FB84201D1042705E0B2
:10051000264FB84201D1052700E0062707FA08F761
:100520003743C9F80870DAF800605746D1F80480FC
:1005300096435FEAC83800D516433E60DBF800609A
:100540005F46D1F8048096435FEA883800D51643A9
:100550003E60DEF800607746D1F8048096435FEA9B
:10056000C82800D516433E60094F0C373E68D1F8C5
:10057000048096435FEA882800D516433E605B1CE2
:100580000A6832FA03F67FF43DAFBDE8FC8F000045
:100590000004014000100240000001400004004837
:1005A00000080048000C00480010004800140048F3
:1005B0000069084000D0012070470AB1816170478E
:1005C0008162704701488068704700000000002089
:1005D0000248816842681144816070470000002031
:1005E00010B50024032000F073F80F2000F008F885
:1005F00008B1012401E000F025F8204610BD0000FC
:1006000070B50E4E05460024706898B14FF47A71AB
:10061000B1FBF0F00A490968B1FBF0F000F064FDAD
:1006200040B9102D06D200222946501E00F030F8A5
:10063000356000E00124204670BD0000000000206D
:100640000C0000200A4882B0016E41F001010166F1
:10065000016E01F001010091816D41F080518165D1
:10066000806D00F08050009002B000F0A1B8000052
:1006700000100240002809DB00F01F020121914018
:100680004009800000F1E020C0F800117047000030
:10069000F0B40E4B1B680C46C3F30223C3F10705ED
:1006A000042D00D90425191D072901D2002300E0DB
:1006B000DB1E012606FA05F1491E214099409E40A5
:1006C000761E16403143F0BC02F0B2BE0CED00E0E5
:1006D000064900F0070208684FF6FF03184040EA99
:1006E0000220034A10430860704700000CED00E050
:1006F0000000FA052B492C4B0A6832214A432B494A
:1007000040B1B0F5007F086829D020F4C06040F403
:1007100080602CE00868C0F34120022804D051F822
:10072000800F20F4807022E0D1F8800020F48070E7
:10073000C1F88000086820F4C06040F400700860D0
:10074000B2FBF3F0401C00E0401E4A69520501D59F
:100750000028F9D1486940050AD503207047C0F345
:100760004120022806D051F8800F40F480700860C4
:1007700000207047D1F8800040F48070C1F88000FC
:10078000086820F4C06040F400700860B2FBF3F029
:10079000401C00E0401E4A695205DBD50028F9D113
:1007A000D8E700000C00002040420F00007000401D
:1007B0000248816841F480418160704700700040C8
:1007C0002DE9F8430446006800269D4D00035ED5E0
:1007D000A86D0027C00008D4A86D40F08050A8651F
:1007E000A86D012700F080500090DFF85892D9F8EA
:1007F000001041F48071C9F80010FFF7E3FE804655
:1008000006E000BFFFF7DEFEA0EB080002282BD8B1
:10081000D9F80000C005F5D5D5F8900010F4407067
:1008200014D0216C814211D0D5F89000D5F89010E9
:1008300020F4407041F48031C5F89010D5F8901044
:1008400021F48031C5F89010C5F89000C00711D090
:10085000FFF7B8FE804641F2883907E0FFF7B2FEA5
:10086000A0EB0801494501D903260BE0D5F890001B
:100870008007F3D5D5F89000216C20F44070084330
:10088000C5F890001FB1A86D20F08050A8652078B1
:10089000C00707D0D5F88800616820F0030008433E
:1008A000C5F888002078800707D5D5F88800A168AA
:1008B00020F00C000843C5F888002078400707D5D1
:1008C000D5F88800E16820F030000843C5F88800BA
:1008D0002078000707D5D5F88800216920F0C000EE
:1008E0000843C5F888002078800607D5D5F8880029
:1008F000616920F440600843C5F88800207840060C
:1009000007D5D5F88800A16920F440500843C5F800
:1009100088002078000607D5D5F88800E16920F422
:1009200040400843C5F888002088C00507D5D5F8A1
:100930008800216A20F440300843C5F888002088E8
:10094000800507D5D5F88800616A20F44020084367
:10095000C5F88800208840050FD5D5F88800A16A21
:1009600020F440100843C5F88800A06AB0F5801F45
:1009700003D1E86840F48010E860208800050FD5B6
:10098000D5F88800E16A20F440000843C5F88800E3
:10099000E06AB0F5800F03D1E86840F48010E860A9
:1009A0002088C0040FD5D5F88800216B20F0407056
:1009B0000843C5F88800206BB0F1807F03D1E86858
:1009C00040F48010E86020884FF0006180040ED56C
:1009D000D5F88800626B20F040601043C5F88800AD
:1009E000606B884203D1E86840F48010E86020889A
:1009F00040040ED5D5F88800A26B20F0406010436B
:100A0000C5F88800A06B884203D1E86840F48010E4
:100A1000E860208800040FD5D5F88800E16B20F04D
:100A200040500843C5F88800E06BB0F1805F03D107
:100A3000E86840F48030E8603046BDE8F8830000A4
:100A400000100240007000402DE9F0470E460500FE
:100A50004FF0000725D0DFF8AC81D8F8000000F097
:100A60000F00B0420CD2D8F8001021F00F01314332
:100A7000C8F80010D8F8000000F00F00B04210D104
:100A80002968614CC80741F2883A5AD06868DFF893
:100A90007C91032808D0022820682DD0400500282A
:100AA0002CDB0120BDE8F08720688001F9D5E068E3
:100AB00000F00302E068C0F30310401C032A19D0C1
:100AC000534A00BFB2FBF0F0E268C2F30622504383
:100AD000E268C2F34162521C5200B0FBF2F048459A
:100AE00017D9A06810F0F00F0CD0880711D5A868AE
:100AF00040B10EE0474AE5E78003D0E700F0B6F8E2
:100B0000484506D9A06820F0F00040F08000A060C1
:100B10008027A068696820F003000843A060FFF701
:100B200051FD814606E000BFFFF74CFDA0EB090137
:100B300051453AD8A068696800F00C00B0EB810F0D
:100B4000F2D12868810714D5400703D5A06840F486
:100B5000E060A0602878000705D5A06820F4605008
:100B600040F4E060A060A068A96820F0F0000843AD
:100B700004E0802F03D1A06820F0F000A060D8F836
:100B80000010404601F00F01B14216D9016821F072
:100B90000F0131430160FFF715FD074607E000BF75
:100BA000FFF710FDC11B514501D903207AE7D8F8A2
:100BB000000000F00F00B042F2D12878400705D5C0
:100BC000A068E96820F4E0600843A0602878000786
:100BD00006D5A068296920F4605040EAC100A060F1
:100BE00000F044F8A1680C4AC1F30311515C01F014
:100BF0001F01C8400949086009480068BDE8F0477E
:100C0000FFF7FEBC002002400010024000B4C40404
:100C10000024F40000366E01DC3A00080C000020CD
:100C2000000000200548064900688968054AC1F3AC
:100C30000221515C01F01F01C84070470C000020E8
:100C400000100240EC3A000805480649006889682F
:100C5000054AC1F3C221515C01F01F01C840704731
:100C60000C00002000100240EC3A0008184910B5B2
:100C70008868C0F381021748012A0BD08A68164B96
:100C8000C2F38102022A06D08A68C2F38102032AD3
:100C900003D0002010BD184610BDCA6802F003043E
:100CA000CA68C2F30312521C032C02D0B0FBF2F04C
:100CB00001E0B3FBF2F0CA68C968C2F306225043F0
:100CC000C1F34161491C4900B0FBF1F010BD0000C7
:100CD000001002400024F40000366E012DE9F843B4
:100CE00004007AD02078FA4DC00747D0A868E96898
:100CF00000F00C0001F003010C2802D0082817D0E6
:100D000001E0032914D06068B0F5803F17D0B0F53A
:100D1000A02F286817D020F480302860286820F49D
:100D2000802028606068E0B1FFF74CFC064614E0C4
:100D30002868800322D560680028D2D01EE0286889
:100D400040F48030EDE740F480202860F7E700BFF2
:100D5000FFF738FC801B642870D828688003F7D51B
:100D60000CE0FFF72FFC064605E000BFFFF72AFC6A
:100D7000801B6428F0D828688003F7D42078800787
:100D80004CD5A868E96800F00C0001F003010C28BC
:100D900002D004280DD001E002290AD0E068002822
:100DA00028682BD040F480702860FFF70BFC0646C3
:100DB00019E02868400502D5E068002891D06868ED
:100DC000217C20F0FE4040EA01606860C148006874
:100DD000FFF716FC002800D120E076E1FFF7F2FBD8
:100DE000801B0228B8D828684005F7D56868217CA0
:100DF00020F0FE4040EA016068600FE020F480705F
:100E00002860FFF7DFFB064605E000BFFFF7DAFBCF
:100E1000801B0228A0D828684005F7D42078000756
:100E200029D560690028D5F8940013D040F001005E
:100E3000C5F89400FFF7C6FB064606E090E000BF49
:100E4000FFF7C0FB801B022886D8D5F894008007E6
:100E5000F6D510E020F00100C5F89400FFF7B2FBD2
:100E6000064604E0FFF7AEFB801B022878D8D5F8D1
:100E700094008007F6D42078400761D5A86D00263D
:100E8000C00008D4A86D40F08050A865A86D012668
:100E900000F08050009090480168C90511D40168A5
:100EA000804641F480710160FFF78CFB074604E047
:100EB000FFF788FBC01B022852D8D8F80000C005F5
:100EC000F6D5A068012815D00528D5F8900016D0D1
:100ED00020F00100C5F89000D5F8900020F0040043
:100EE000C5F89000A06841F28838B8B1FFF76AFBF6
:100EF00007460EE0D5F8900040F00100F0E740F022
:100F00000400C5F89000F5E7FFF75CFBC11B414505
:100F100026D8D5F890008007F6D50CE0FFF752FBF5
:100F2000074604E0FFF74EFBC11B414518D8D5F832
:100F300090008007F6D41EB1A86D20F08050A865FF
:100F40002078800629D5A0690028D5F8980013D00C
:100F500040F00100C5F89800FFF734FB064606E0B4
:100F600077E000BFFFF72EFB801B022877D8D5F86B
:100F700098008007F6D510E020F00100C5F8980031
:100F8000FFF720FB064604E0FFF71CFB801B02284E
:100F900065D8D5F898008007F6D4E069F0B3A96861
:100FA000C1F38101032961D00228286820F08070F4
:100FB00028600BD0E86820F00300E860E868474943
:100FC0000840E860FFF7FEFA04464BE0FFF7FAFA44
:100FD000064604E0FFF7F6FA801B02283FD828688F
:100FE0008001F7D4F4E908016FF00F0202EB011160
:100FF0000843218A5204490802EB4151A26841EAA0
:1010000002210843217D4FF07E42490802EB4161F5
:101010000843217B40EAC160E96800E062E0304AB1
:1010200011400843E860286840F080702860E86854
:1010300040F08070E860FFF7C5FA044605E000BFA5
:10104000FFF7C0FA001B022809D828688001F7D5ED
:1010500048E004E0FFF7B6FA001B022802D903209B
:10106000BDE8F88328688001F4D43BE00128F7D07C
:10107000E868226A00F00301914226D1616A00F01B
:10108000F0020901103991421FD1A26A00F4FE4119
:10109000B1EB022F19D194F82C2000F07841B1EB7C
:1010A000C26F12D1218E00F4C00249084905A1F592
:1010B0000011914209D194F8341000F0C060490841
:1010C0004906A1F1007181420CD00120C8E700005F
:1010D000001002400000002000700040FFFFEEFE04
:1010E0000C809F010020BBE710B5401EB0F1807F4F
:1010F00001D3012010BD4FF0E02460610F21601783
:1011000002F096F90020A06107202061002010BDA8
:10111000704770477047704770477047F0B590F858
:101120003C20012A3AD0012580F83C50022280F868
:101130003D2003685A689C68194E1A4FB34201D08B
:10114000BB4204D122F4700C4A6842EA0C02DFF878
:1011500058C002EA0C02D1F800C04CEA020CC3F8F5
:1011600004C00268B2420DD0B2F1804F0AD00F4BDA
:101170009A4207D00E4B9A4204D0BA4202D00D4B8D
:101180009A4204D1896824F080031943916080F861
:101190003D50002180F83C100846F0BD0220F0BD13
:1011A000002C0140003401408FFFFFFD000400408F
:1011B0000008004000400140704710B5040003D013
:1011C00094F83D0010B107E0012010BD002084F824
:1011D0003C00204600F022F8022084F83D00211D4A
:1011E000206801F099FC012084F8480084F83E0052
:1011F00084F83F0084F8400084F8410084F84200FD
:1012000084F8430084F8440084F8450084F84600DC
:1012100084F8470084F83D00002010BD10B586B06A
:10122000044614216846FFF72DF8284A216828480B
:1012300091420ED1816D41F020018165806D0022C7
:1012400000F02000059001213720FFF721FA372018
:1012500010E0204A914211D1016E41F480310166C3
:10126000006E002200F48030059003211820FFF763
:101270000FFA1820FFF7FEF906B010BD164A91428A
:10128000FAD1016E41F400310166016E01F40031C2
:101290000591C16C41F00201C164C06C694600F067
:1012A0000200059010200090022001900020029082
:1012B0000390012004900948FFF796F800220421CA
:1012C0001920FFF7E5F91920D4E7000000140040C9
:1012D000001002400040014000440140000400486A
:1012E00090F83D10012901D001207047022180F8BB
:1012F0003D100168CA6842F00102CA6000681049E6
:1013000088420ED0B0F1804F0BD00E49884208D0F1
:101310000D49884205D00D49884202D00C498842C7
:1013200007D181680B4A1140062906D0B1F5803FEC
:1013300003D0016841F00101016000207047000006
:10134000002C01400004004000080040003401402F
:1013500000400140070001000168CA6822F0010254
:10136000CA6001680A6A41F211131A4207D10A6A77
:101370009B001A4203D10A6822F001020A6001218F
:1013800080F83D100020704770B5044690F83C008E
:10139000012814D0012584F83C50022084F83D0037
:1013A00022689068344B184020F47F4090600868B1
:1013B000702827D010DC10F00F0F03D04AE04FF058
:1013C000020070BD4FEA2012072A43D2DFE802F084
:1013D0005050505048313900284BC21A984247D0DB
:1013E00009DCB0F5805F35D0B0F5005F15D0B0F105
:1013F000101F2FD13CE0102A3AD0202A38D0502A92
:1014000028D135E0CB68D1E90121206801F0E9FB62
:101410002068816841F0770109E0CB68D1E90121BA
:10142000206801F0DEFB2068816841F48041816022
:1014300010E0CA684968206801F0E8FB5021206884
:1014400006E0CA684968206801F028FC602120682D
:1014500001F0D2FB84F83D50002084F83C0070BDC0
:10146000CA684968206801F0D1FB40212068EFE795
:10147000226801461046EBE788FFCEFF20001000EF
:101480002DE9F0410446006816490025164E174F15
:10149000884210D1207F01280DD10021144800F08E
:1014A00025FB134909684D62401C00EB80000001D8
:1014B000B6FBF0F038810F492068884210D1207FB8
:1014C00001280DD100210C4800F010FB0A490968E1
:1014D0004D62401C00EB80000001B6FBF0F078810B
:1014E000BDE8F0810034014000B4C40410000020C5
:1014F0008C00002000440140240100202DE9F0412F
:10150000054690F83C000C46012836D0012085F8AD
:101510003C008AB3042A42D02868082A51D0D4E972
:101520000023E168066A26F480560662C669076AE7
:1015300026F4407646EA03234FF6FF7606EA0131A9
:1015400023F4704319434FF4204627F4204306EA5E
:1015500002321A43C16102622868C16921F4406104
:10156000C1612868C169A26841EA0221C161002005
:1015700085F83C00BDE8F08101E00220FAE7D4E9FB
:101580000012E368286801F053FB2868816921F0A4
:101590000C01816128688169A26811430FE0D4E9D8
:1015A0000012E368286801F08BFB2868816921F448
:1015B0004061816128688169A26841EA02218161F4
:1015C000D5E7D4E90027267B016A21F48071016206
:1015D000C169036A21F00301394321F0F0073107A3
:1015E0004FF4206647EA116123F4206306EA0222E1
:1015F0001A43C16102622868C16921F00C01C1610E
:101600002868C169A2681143B0E710B5040003D08F
:1016100094F83D0010B107E0012010BD002084F8CF
:101620003C00204600F022F8022084F83D00211DF5
:10163000206801F071FA012084F8480084F83E0027
:1016400084F83F0084F8400084F8410084F84200A8
:1016500084F8430084F8440084F8450084F8460088
:1016600084F8470084F83D00002010BD10B586B016
:10167000044614216846FEF705FE16492068884294
:1016800026D11548016E41F400510166016E01F446
:1016900000510591C16C41F00101C164C06C002191
:1016A00000F0010005904FF4004000900220CDE9C9
:1016B0000101CDE9031069464FF09040FEF794FE1A
:1016C000002205212E20FEF7E3FF2E20FEF7D2FF99
:1016D00006B010BD003401400010024070B5044651
:1016E000006801694FF00005C943890715D4C16836
:1016F000C943890711D4E91E0161012020772068C0
:1017000080698007204602D0FFF7BAFE04E000F0AF
:10171000E3F8204600F074F9257720680169C94391
:10172000490717D4C168C943490713D46FF00401AE
:101730000161022020772068806910F4407F2046F4
:1017400002D0FFF79DFE04E000F0C6F8204600F04E
:1017500057F9257720680169C943090716D4C1687C
:10176000C943090712D46FF00801016104202077F2
:101770002068C0698007204602D0FFF781FE04E0A0
:1017800000F0AAF8204600F03BF9257720680169AF
:10179000C943C90617D4C168C943C90613D46FF039
:1017A00010010161082020772068C06910F4407F93
:1017B000204602D0FFF764FE04E000F08DF82046DA
:1017C00000F01EF9257720680169C943C90708D1CF
:1017D000C168C943C90704D1891E0161204600F0D0
:1017E00011F920680169C943090609D4C168C943D0
:1017F000090605D46FF0800101612046FFF789FCDE
:1018000020680169C943C90509D4C168C9430906EB
:1018100005D46FF4807101612046FFF779FC2068E0
:101820000169C943490609D4C168C943490605D4B9
:101830006FF040010161204600F06DF920680169F8
:10184000C943890609D4C168C943890605D46FF024
:10185000200101612046FFF75DFC20680169C94352
:10186000C90209D4C168C943C90205D46FF4801103
:1018700001612046FFF750FC20680169C9438902D5
:1018800009D4C168C943890205D46FF4001101610C
:101890002046FFF740FC20680169C943490209D48A
:1018A000C168C943490205D46FF480010161204633
:1018B000FFF733FC20680169C94309020BD4C168F2
:1018C000C943090207D46FF4000101612046BDE855
:1018D0007040FFF771BC70BD7047000030B5044622
:1018E000022269B1042916D0082920D00C2929D058
:1018F00010292ED094F84300012831D0012030BDAA
:1019000094F83E000128F9D184F83E202068C2688E
:1019100042F0020209E094F83F000128EED184F879
:101920003F202068C26842F00402C2601CE094F8C4
:1019300040000128E2D184F840202068C26842F0CB
:101940000802F2E794F841000128D7D184F8412039
:1019500008E094F842000128D0D184F8422003E046
:1019600084F843200C2935D00122206801F02CF99D
:101970001B4920681B4A1C4B884209D0904207D063
:10198000984205D0194DA84202D0194DA84203D162
:10199000456C45F400454564206888420CD0B0F1A0
:1019A000804F09D01349884206D01349884203D09A
:1019B000904201D0984207D18168104A114006290F
:1019C00006D0B1F5803F03D0016841F0010101600C
:1019D000002030BD2068C26842F01002A5E7000078
:1019E000002C01400034014000400140004401400F
:1019F00000480140000400400008004007000100CA
:101A00007047000070B5054600682949294C884296
:101A10000AD1206A401C3221B0FBF1F2206201FBA6
:101A2000120008B901F038FE2349286888423DD1E8
:101A300020690A21401CB0FBF1F2206101FB120079
:101A4000002833D11D48FFF787FC207900250228A4
:101A50002AD11B480178462926D14078312802D066
:101A600032280CD020E0A5706089E189884203D932
:101A70000120607013A00AE0657014A00EE0A5704C
:101A80002089E189884206D90320607012A001F004
:101A9000ABFC012105E00220607011A001F0A4FC64
:101AA0000021012001F076FF2571256170BD000045
:101AB000001400401000002000400140D800002029
:101AC0006A03002046312C4F4B00000046312C4564
:101AD00052524F520000000046322C4F4B00000083
:101AE00046322C4552524F52000000000246002060
:101AF00041B1042909D008290AD00C2901D1106864
:101B0000006C70471068406B70471068806B7047BE
:101B10001068C06B7047704790F87C10012918D08E
:101B2000012180F87C102421C0F8801050F8601B3F
:101B30000A680B6823F001030B6022F000510022B9
:101B4000426050F8603C1960202101620277104623
:101B5000704702207047704770B5044690F87C00CB
:101B600001281DD0012084F87C002420C4F88000C6
:101B700020680568026822F001020260206882681D
:101B800022F060620A438260204601F0B5F82068C6
:101B900005602020C4F88000002084F87C0070BD1F
:101BA000022070BD70B5044690F87C0001281DD05D
:101BB000012084F87C002420C4F880002068056897
:101BC000026822F0010202602068826822F060420E
:101BD0000A438260204601F08FF8206805602020CB
:101BE000C4F88000002084F87C0070BD022070BD25
:101BF00070477047704700002DE9F04103680446C4
:101C0000D86919689A6840F60F0528424FF0000518
:101C100009D186067ED501F0200602F080573E43AA
:101C200078D0E16E9EE0624E624F16400F4037431F
:101C300070D0C70709D0CF0507D501271F62D4F898
:101C4000883043F00103C4F8883083070AD5D307EE
:101C500008D0276802233B62D4F8883043F004039D
:101C6000C4F8883043070AD5D30708D0276804236F
:101C70003B62D4F8883043F00203C4F8883003078D
:101C80000CD501F02003334308D0266808233362C3
:101C9000D4F8883043F00803C4F8883003050BD526
:101CA0004B0109D526684FF400633362D4F88830BD
:101CB00043F02003C4F88830D4F88830002B34D0A7
:101CC000800609D501F0200002F08051084303D0BE
:101CD000E16E09B120468847D4F8880021688968F8
:101CE000490602D410F0280F21D0204601F0D4F884
:101CF00020688168490615D5816821F0400181601E
:101D0000A06F78B12C498163A06FFEF71FFB0028FC
:101D10000BD000E011E0A06F816B00E02046BDE831
:101D2000F04108472046FFF765FFBDE8F0812046F7
:101D3000FFF760FFC4F88850F7E7C60209D55602DE
:101D400007D54FF4801018622046BDE8F041FFF738
:101D500050BF060609D501F0800602F400021643C2
:101D600003D0216F0029D9D1DFE742060DD54A06FD
:101D70000BD51968204621F0400119602021C4F8D4
:101D80008010256700F09EF9CFE7020206D54A00D1
:101D900004D52046BDE8F041FFF72ABFC001C4D5F5
:101DA0000029C2DA2046BDE8F041FFF7D4BE0000AA
:101DB0000100001020010004832E000810B504006B
:101DC00003D0D4F8800010B107E0012010BD00203E
:101DD00084F87C00204600F027F82420C4F8800016
:101DE0002068016821F001010160204601F066F9D8
:101DF0000128EBD0A06A10B1204600F0AFFF2068A8
:101E0000416821F4904141602068816821F02A01F5
:101E100081602068016841F0010101602046BDE851
:101E2000104000F0FFBF000010B598B00446142128
:101E300011A8FEF727FA44216846FEF723FA1B494A
:101E40002068884230D101200024CDE90004684692
:101E5000FEF7B6FC08B1FEF777FA1548016E41F4BB
:101E600080410166016E01F480411691C16C41F020
:101E70000101C164C06C11A900F0010016904FF47B
:101E8000C06011900220CDE912040720CDE9144072
:101E90004FF09040FEF7A8FA002202212520FEF71D
:101EA000F7FB2520FEF7E6FB18B010BD0038014017
:101EB0000010024070B5D0F88430202B6DD1B9B13C
:101EC000B2B190F87C30012B67D0012380F87C30D0
:101ED0008165A0F85C20A0F85E200021C1668368BF
:101EE0004FF48056FF24B34207D1036913B11CE0BD
:101EF000012070BD40F2FF131DE07F259BB1B3F1BF
:101F0000805F15D0A0F86010C0F888102223C0F8B8
:101F1000843003689C6844F001049C60436EB3F114
:101F2000005F0ED027E0036943B9A0F86040EBE7FB
:101F300003691BB13F23A0F86030E5E7A0F86050CB
:101F4000E2E7B0F86830934215D88268B24201D116
:101F5000026972B1124AC26680F87C1001680A6890
:101F600042F480720A600068816841F080518160AB
:101F70000FE00C4AEFE78268B24201D1026952B128
:101F8000094AC26680F87C100068016841F49071CB
:101F90000160002070BD054AF3E7022070BD00001B
:101FA0001D3000081D2F0008BD2F0008BD2E0008A1
:101FB00010B500680F4988421BD10F48FFF7CCF9D4
:101FC0000E4908790A2804D20D4BCA781A54401CCD
:101FD0000871094A0020126850620861074901220D
:101FE000C91C0848FFF766FFBDE810400248FFF72C
:101FF00077B910BD00380140D80000201000002043
:102000006A030020700100202DE9F8430446D0F84F
:1020100080001F4616460D46202851D1DDB1D6B1AD
:1020200094F87C0001284BD0012084F87C004FF00C
:102030000008C4F888802120C4F880001834FEF716
:10204000C1FAA6878146E68754F8100C183CB0F513
:10205000805F03D004E00120BDE8F883206920B14F
:102060002E46002584F87C8010E00026FAE78021C7
:10207000204601F05FF9B8B9C6B116F8010B216826
:102080008862B4F85600401EA4F85600B4F8560012
:102090004B464FF0000200970028E8D14FF0400176
:1020A000204601F047F930B10320D5E735F8020B9F
:1020B000C0F30800E3E72020C4F880000020CBE74D
:1020C0000220C9E77047FEE700B585B014216846D5
:1020D000FEF7D8F84FF6FF70009000200321CDE9FD
:1020E0000201019069460248FEF77EF905B000BD85
:1020F0000008004800B585B014216846FEF7C2F814
:102100004FF6FF7000900120019003200390002003
:10211000029069460248FEF767F905B000BD00006D
:102120000008004870B5002406462146204600F00D
:1021300003F900F041F94FF49635304600F010F9FC
:10214000641CAC42F9D370BD30B587B01421684629
:10215000FEF798F81E48C16C41F00401C164C16CDF
:1021600001F004010591C16C41F00101C164C16C31
:1021700001F001010591C16C41F00201C164C06C24
:10218000012500F0020005904FF44870CDE90005EC
:1021900000240394694602940E48FEF725F92802AC
:1021A00003940090CDE901544FF0904469462046D5
:1021B000FEF71AF9FFF79EFFA06940F48070A06156
:1021C00004481830016841F40871016007B030BD5F
:1021D0000010024000040048203AD2B2034B02EB48
:1021E000420203EB021200F019B80000F43A0008B2
:1021F000F0B50E460746002540F23F1407E02146A1
:102200003846FFF7E9FF103C6D1CA4B2761C32780B
:10221000002A01D0142DF2D3F0BD00002DE9F047C3
:1022200091468A460026044600F086F8DFF8408092
:10223000012700BF00F0C0F85FF0000539F8160074
:1022400007FA05F10842404601D1408800E00088C5
:1022500000F086F86D1C102DF0D3641CE4B25146DA
:10226000204600F069F8761C182EE3D3BDE8F0870D
:102270003400002010B5FFF767FF002000F014F8CD
:10228000084CA080A088A0F50241303906D000F0AB
:10229000E5FA002000F008F8A08010BD00F055FA23
:1022A000F7E700003400002070B51D490A6842F4C9
:1022B00000720A600A6842F480720A60184C103C8E
:1022C000226842F020022260164A1060086840F03E
:1022D0002000086000BF00BF00BF206840F0200061
:1022E0002060206840F480702060FFF7EDFE4FF022
:1022F0009041886A40F48070886200BF00BF00BFD0
:102300000848001F006885B2886940F480708861C1
:10231000FFF7F0FE206840F400702060284670BD92
:10232000280400481408004801B5BDF80000014920
:10233000488008BD3400002010B50C46014620201E
:1023400000F068F82146BDE81040212000F062B896
:1023500001B5BDF800000149088008BD3400002027
:10236000134A116841F400711160114910390B686A
:1023700043F480730B600B6843F020030B600D4B3C
:102380001860106840F02000106000BF00BF00BF60
:10239000086840F020000860086840F48070086019
:1023A00000BF00BF00BF086840F4007008607047BD
:1023B00028040048140800481449086840F40070D4
:1023C0000860086840F4807008601048103802689F
:1023D00042F0200202600E4B22221A600A6842F08C
:1023E00020020A6000BF00BF00BF016841F0200169
:1023F0000160016841F48071016000BF00BF00BF4F
:10240000016841F400710160704700002804004831
:1024100014080048184B10B51A6842F400721A608C
:102420001A6842F480721A60134A103A146844F031
:1024300020041460114C2060186840F020001860DF
:1024400000BF00BF00BF106840F02000106010689F
:1024500040F4807010602160186840F0200018601F
:1024600000BF00BF00BF106840F02000106010687F
:1024700040F48070106010BD280400481408004823
:10248000F0B587B014216846FDF7FCFE2D48C16CFD
:1024900041F00401C164C16C01F004010591C16CFB
:1024A00041F02001C164C16C01F020010591C16CB3
:1024B00041F00101C164C16C01F001010591C16CE1
:1024C00041F00201C164C16C01F002010591C16CCF
:1024D00041F00801C164C06C1B4E00F008004FF4CD
:1024E0007F440590012221463046FEF766F8174FDB
:1024F000012204213846FEF760F80125CDE90045A8
:1025000000240294694630460394FDF76DFFCDE93F
:10251000005469464FF090400295FDF765FF072093
:102520008DE8310069460A48FDF75EFF04200090FF
:10253000CDE90154694638460394FDF755FF07B0CD
:10254000F0BD00000010024000080048000C0048E8
:102550000004004810B588B0002418480094019485
:10256000029403940494059413490694016040F284
:102570001F31C0E9011440F2E731C0E9031444619E
:102580008461FEF71AFE08B1FDF7DEFE4FF48050BD
:10259000009069460948FEF7F7FE08B1FDF7D4FE42
:1025A000049404A905480694FEF7B8FD002801D05C
:1025B000FDF7CAFE08B010BD00400140D800002061
:1025C0001FB5002415480094019402941249039405
:1025D00001604F21C0E901144FF6FF71C0E90314F7
:1025E00044618461FEF7E9FD08B1FDF7ADFE0B48DB
:1025F000FFF70BF808B1FDF7A7FE0120CDE9004079
:1026000002940022694605480394FEF777FF0028EC
:1026100001D0FDF799FE1FBD0044014024010020B8
:102620003EB500240F48009401940D4902940160C6
:102630004F21C0E9011440F2E7318461C160FEF727
:10264000BCFD08B1FDF780FE009469460548029480
:10265000FEF764FD002801D0FDF776FE3EBD0000C8
:10266000001400404000002010B588B000241A4833
:1026700005940694049400940194029415490394DB
:1026800001604F21C0E901144FF6FF71C0E9031446
:1026900044618461FEF7B9FF08B1FDF755FE04946B
:1026A000059404A90C480694FEF738FD08B1FDF71F
:1026B0004BFE0120CDE90040029400226946064805
:1026C0000394FEF71BFF002801D0FDF73DFE08B084
:1026D00010BD0000003401408C000020184810B5E7
:1026E000164901604FF416514160002181600C22AF
:1026F000C160C0E904128161C1610162416281620D
:10270000FFF75CFB08B1FDF71FFE00210C48FFF747
:1027100049FA08B1FDF718FE00210948FFF71CFA35
:1027200008B1FDF711FE0648FFF7F6F9002803D0BF
:10273000BDE81040FDF708BE10BD000000380140A4
:1027400070010020FEE7FEE7704730B50121002050
:10275000FFF760FE4FF47A70FDF7E8FD00210120DD
:10276000FFF758FE41F290711020FFF753FE4FF42F
:102770001C516020FFF74EFE01216120FFF74AFE49
:1027800002214620FFF746FE48F210011320FFF712
:1027900041FE48F2FE011220FFF73CFE4FF4A0611B
:1027A0000220FFF737FE41F230010320FFF732FE2F
:1027B00040F2033421463020FFF72CFE2146312021
:1027C000FFF728FE21463220FFF724FEE51E2946AA
:1027D0003320FFF71FFE03213420FFF71BFE2146A5
:1027E0003520FFF717FE14213620FFF713FE214690
:1027F0003720FFF70FFE21463820FFF70BFE21465A
:102800003920FFF707FE29463A20FFF703FE032190
:102810003B20FFF7FFFD21463C20FFF7FBFD4FF477
:10282000A0513D20FFF7F6FD4FF400719220FFF715
:10283000F1FD21469320FFF7EDFD40F60D019020BC
:10284000FFF7E8FD41F218010320FFF7E3FDBDE8C3
:10285000304040F273110720FFF7DCBD10B543F2A2
:102860000801E320FFF7D6FD1221E720FFF7D2FD94
:1028700041F23121EF20FFF7CDFD00210120FFF7CC
:10288000C9FD4FF4E0610220FFF7C4FD41F23001C1
:102890000320FFF7BFFD00210420FFF7BBFD40F23E
:1028A00007210820FFF7B6FD00210920FFF7B2FD40
:1028B00000210A20FFF7AEFD00210C20FFF7AAFD42
:1028C00000210D20FFF7A6FD00210F20FFF7A2FD3C
:1028D00000211020FFF79EFD07211120FFF79AFD30
:1028E00000211220FFF796FD00211320FFF792FD33
:1028F000C820FDF767FD41F290611020FFF78AFDC7
:1029000040F227211120FFF785FD3220FDF75AFD07
:102910001D211220FFF77EFD3220FDF753FD4FF4FD
:1029200000611320FFF776FD14212920FFF772FDC7
:102930000B212B20FFF76EFD3220FDF743FD002118
:102940002020FFF767FD00212120FFF763FD07210D
:102950003020FFF75FFD40F207713120FFF75AFD8D
:1029600006213220FFF756FD40F204713520FFF7B3
:1029700051FD41F604713620FFF74CFD042137204C
:10298000FFF748FD00213820FFF744FD40F20671B3
:102990003920FFF73FFD40F201713C20FFF73AFD7F
:1029A0000F213D20FFF736FD00215020FFF732FDBB
:1029B000EF215120FFF72EFD00215220FFF72AFDC5
:1029C00040F23F115320FFF725FD4FF41C516020CA
:1029D000FFF720FD01216120FFF71CFD00216A2087
:1029E000FFF718FD00218020FFF714FD0021812052
:1029F000FFF710FD00218220FFF70CFD002183204E
:102A0000FFF708FD00218420FFF704FD0021852049
:102A1000FFF700FD10219020FFF7FCFC0021922021
:102A2000FFF7F8FC03219320FFF7F4FC4FF48871C3
:102A30009520FFF7EFFC00219720FFF7EBFC00212A
:102A40009820FFF7E7FC41F218010320FFF7E2FCB2
:102A5000BDE8104040F273110720FFF7DBBC704760
:102A6000FDF7B6BD10B594B038216846FDF70AFCF5
:102A700014210EA8FDF706FC4FF40070FDF73AFE96
:102A8000012000900004019002200324CDE90704F6
:102A90001421CDE90A100C900D9009946846FEF7B8
:102AA0001DF908B172B6FEE70F20CDE90E04002033
:102AB00010901190129002210EA8FDF7C5FF00287A
:102AC00001D072B6FEE714B010BD000005480168E1
:102AD00041F47001016003494FF0006080390860E3
:102AE0007047000088ED00E00148FEF7F7BD0000E8
:102AF000D80000200148FEF7F1BD000024010020AD
:102B00000148FEF7EBBD0000400000200148FEF741
:102B1000E5BD00008C0000202DE9F0430268234B46
:102B2000234D244E244C4FF08049984207D048450D
:102B300005D0A84203D0B04201D0A04203D122F078
:102B400070074A683A431D4FDFF874C0DFF874809D
:102B500098420DD048450BD0A84209D0B04207D0CA
:102B6000A04205D0B84203D0604501D0404503D112
:102B700022F44075CA682A434D6922F080022A4334
:102B800002608A68C2620A688262984207D0A042E4
:102B900005D0B84203D0604501D0404501D1096954
:102BA000016301214161BDE8F0830000002C014078
:102BB0000004004000080040003401400040014093
:102BC000004401400048014010B501F01F030121FD
:102BD000046A99408C430462016A9A40114301627D
:102BE00010BD10B5846842EA032224F47F440A43EE
:102BF0002243826010BD00008268034B1A400A43E2
:102C000042F00701816070478FFFCFFF10B5036A64
:102C1000046A24F001040462846924F0F00444EAA4
:102C2000021423F00A020A438461026210BD00000C
:102C300070B5046A24F0010404628469056A124EC6
:102C4000B0420ED0B0F1804F0BD0104EB04208D041
:102C50000F4EB04205D00F4EB04202D00E4EB042E1
:102C600003D124F00304144301E044F001041A07E3
:102C700024F0F00444EA126225F00A0301F00A018C
:102C800019438261016270BD002C014000040040C4
:102C900000080040003401400040014010B5036AC4
:102CA00023F0100303628369046A23F4704343EA48
:102CB000023224F0A00343EA01118261016210BDD7
:102CC00030B5046A24F0100404628469056A24F4AF
:102CD000407444EA022222F470444FF6FF7202EA82
:102CE00003322243A02425F0A00304EA0111194372
:102CF0008261016230BD00003FB514A1D1E900211D
:102D0000CDE9002113A2D2E90012CDE90212416EF1
:102D1000B9B1026891689268C1F34261520F1DF81F
:102D20000240E50002ACA25CB5FBF2F2A0F86A201A
:102D30001DF80120615CD200B2FBF1F1A0F868102F
:102D40003FBD0121A0F86A10F8E70000010101036E
:102D500007010000080402040801010190F828108E
:102D6000C90706D001684A68C36A22F400321A43D0
:102D70004A6090F82810890706D501684A68036BF5
:102D800022F480321A434A6090F82810490706D589
:102D900001684A68436B22F480221A434A6090F823
:102DA0002810090706D501684A68836B22F400429F
:102DB0001A434A6090F82810C90606D501688A6847
:102DC000C36B22F480521A438A6090F82810890657
:102DD00006D501688A68036C22F400521A438A609F
:102DE00090F82810490611D501684A68436C22F40E
:102DF00080121A434A60416CB1F5801F06D1016808
:102E00004A68836C22F4C0021A434A6090F8281082
:102E1000090606D501684A68C06C22F40022024304
:102E20004A607047F8B500260446C0F88860FDF790
:102E3000C9FB0546206800686FF07E47000708D58B
:102E40002B4600224FF400112046009700F072FA42
:102E500060B92068006840070AD52B4600224FF46D
:102E600080012046009700F065FA08B10320F8BD04
:102E70002020C4F88000C4F8840084F87C6000201E
:102E8000F8BD10B5806A0021A0F85E10A0F85610B9
:102E9000FEF7B0FE10BD000001680A6822F49072CF
:102EA0000A6001688A68044B1A408A602021C0F8D1
:102EB00084100021C1667047FEFFFFEF10B5B0F827
:102EC0006020D0F884300168222B04D0886940F05B
:102ED0000800886110BD496A836D11401980816DB9
:102EE000891C8165B0F85E10491EA0F85E10B0F82C
:102EF0005E100029EED101680A6822F490720A601F
:102F000001688A6822F001028A602021C0F88410DA
:102F10000021C166FFF74CF810BD000070B50446F3
:102F2000B0F86060D0F88400222805D0206881695C
:102F300041F00801816170BDB4F8685023E0206859
:102F4000406AA16D30400880A06D801CA065B4F877
:102F50005E00401EA4F85E00B4F85E0088B92068E8
:102F6000016821F48071016020688168114A114074
:102F700081602020C4F884000020E0662046FFF72E
:102F800017F86D1EADB2002DD9D1B4F85E0000283F
:102F9000D1D0B4F868108142CDD92068816821F081
:102FA000805181600448E0662068016841F020019A
:102FB000016070BDFEFFFFEFBD2E000810B5B0F838
:102FC0006020D0F884300168222B04D0886940F05A
:102FD0000800886110BD496A1140826D1170816DD1
:102FE000491C8165B0F85E10491EA0F85E10B0F86B
:102FF0005E100029EED101680A6822F490720A601E
:1030000001688A6822F001028A602021C0F88410D9
:103010000021C166FEF7CCFF10BD000070B504466C
:10302000B0F86060D0F88400222805D0206881695B
:1030300041F00801816170BDB4F8685023E0206858
:10304000406AA16D30400870A06D401CA065B4F8C6
:103050005E00401EA4F85E00B4F85E0088B92068E7
:10306000016821F48071016020688168114A114073
:1030700081602020C4F884000020E0662046FEF72E
:1030800097FF6D1EADB2002DD9D1B4F85E000028B7
:10309000D1D0B4F868108142CDD92068816821F080
:1030A000805181600448E0662068016841F0200199
:1030B000016070BDFEFFFFEFBD2F00082DE9F0415C
:1030C0000446026880682169E36908436169002554
:1030D00019430843616EDFF830C2014310688B4B1F
:1030E00018400843106020684168E26821F44051AC
:1030F000114341602168A069614501D0226A1043F3
:103100008A68834B1A4002438A602068C16A626AF7
:1031100021F00F011143C1627E4923687E488B4232
:103120000DD1D0F8880010F0030006D0012855D04A
:10313000022842D003283FD152E001203DE07749E8
:103140008B420BD1D0F8880010F00C0035D0042849
:1031500033D0082840D00C282ED141E070498B4252
:103160000BD1D0F8880010F0300026D0102835D0D0
:10317000202831D030281FD132E06A498B420BD150
:10318000D0F8880010F0C00017D0402826D0802842
:1031900022D0C02810D123E063450DD1D0F888009B
:1031A00010F4406009D0B0F5806F17D0B0F5006F13
:1031B00012D0B0F5406F13D010205B495B4F002652
:1031C0004FF40042634539D160B1022813D004287E
:1031D0000BD0082831D10DE00220EEE70420ECE707
:1031E0000820EAE7FDF71EFD01E0FDF73FFD0100C5
:1031F00001D17EE01146606A37F810206768B1FBA4
:10320000F2F007EB470383426FD8B0EB073F6CD86F
:10321000002308461946FCF7FDFF090241EA106148
:1032200002027808101871413A460023FCF7F2FFB9
:103230003F4AA0F54071914259D956E0E3694FF6F3
:10324000EF7893422DD109284FD2DFE800F005082E
:10325000114E0D4E4E4E1000FDF7E4FC01E0FDF75F
:10326000F3FC010004D144E0FDF700FDF9E711464D
:10327000606A37F81000B1FBF0F04100606801EBC4
:103280005001B1FBF0F080B2A0F1100141452CD803
:103290004FF6F0710140C0F3420001432068C16065
:1032A00027E0092821D2DFE800F0050811200D20D1
:1032B00020201000FDF7B6FC01E0FDF7C5FC010081
:1032C00004D116E0FDF7D2FCF9E71146606A37F841
:1032D0001000B1FBF0F1606801EB5001B1FBF0F0C0
:1032E00080B2A0F11001414501D9012501E021681A
:1032F000C8600120A4F86A0024F8680F28466660B8
:10330000A660BDE8F081000000800040F369FFCFB7
:10331000FFF4FF110038014000100240004400405B
:1033200000480040004C00400024F400C43A00086B
:10333000FFFC0F002DE9F0479A4617460E4604465B
:103340004FF000094FF02008089D39E0681C37D085
:10335000FDF738F9A0EB0A00A84222D80DB3206887
:10336000016849072CD5C069C043000528D42168ED
:103370004FF4006008622068016821F4D071016098
:103380002068816821F001018160C4F88080C4F860
:103390008480C4F8888000BF84F87C900320BDE856
:1033A000F0872068016821F4D0710160206881688D
:1033B00021F001018160C4F88080C4F88480EBE7CB
:1033C0002068C06936EA000004D00020B842BDD0B1
:1033D0000020E4E70120F9E70148FEF70DBC0000FA
:1033E00070010020FEE700000FB4054B10B503A9E3
:1033F000044A029800F03CF810BC5DF814FB000091
:10340000D13500083C0000200FB4084B10B504A9CA
:1034100002AA039800F02CF8044602A9002000F04C
:10342000D1F8204610BC5DF814FB0000C53500083B
:103430000907090E002804DB00F1E02080F80014E1
:10344000704700F00F0000F1E02080F8141D704775
:1034500002E008C8121F08C1002AFAD1704770475D
:10346000002001E001C1121F002AFBD170470000BB
:103470002DE9FF4F89B09B460446002506E025282C
:103480000BD05A460B999047641C6D1C207800287D
:10349000F5D10DB02846BDE8F08F0027B8460122CF
:1034A000474900E0074314F8013F203B02FA03F0CC
:1034B0000842F7D120782E2819D114F8010F47F0CF
:1034C00004072A280ED06FF02F022078A0F13001D7
:1034D00009290CD808EB880102EB410100EB010837
:1034E000641CF2E70A98641C50F8048B0A90207858
:1034F0000028CED0642808D0692806D075281ED0B0
:103500005A460B9990476D1C58E00A994FF00A09EA
:1035100001C90A91002802DA40422D2102E0390552
:1035200004D52B218DF82010012103E0F90704D0E8
:103530002021F7E78A4608AE0DE00021FAE70A9954
:103540004FF00A0901C90A91F7E74946FCF7A5FEC1
:10355000303106F8011D0028F7D1ADEB060000F16F
:103560002009780701D44FF00108C84502DDA8EB17
:10357000090000E000208046002706E008A85A461F
:10358000C05D0B9990476D1C7F1C5745F6DB04E02E
:1035900030205A460B9990476D1CB8F10001A8F1F4
:1035A0000108F5DC05E016F8010B5A460B99904727
:1035B0006D1CB9F10001A9F10109F4DC641C65E797
:1035C000092801000A68531C0B6010707047000046
:1035D00013B5FF23012269460248FEF715FD009846
:1035E0001CBD0000700100200B490C488A780AB10C
:1035F0000BA108E0497841B1012908D0022908D07F
:10360000032908D10CA1FFF7FFBE11A1FBE716A10A
:10361000F9E71BA1F7E7704710000020BB0200206C
:1036200020202020202052583A4E2F4120202020B8
:103630002020202020200000202020202020525860
:103640003A46322C4F4B20202020202020202000E2
:1036500020202020202052583A46312C4552524FEB
:1036600052202020202020002020202020205258DE
:103670003A46312C4F4B20202020202020202000B3
:1036800020202020202052583A46322C4552524FBA
:1036900052202020202020002DE9F05F444C012101
:1036A0002046FCF785FF434D022128702046FCF799
:1036B0007FFF687004212046FCF77AFFA870012183
:1036C0004FF09040FCF774FF0024DFF8EC90E870B6
:1036D0004FF0020A4FF0010B2F1D4FF47A7605F1DF
:1036E0000808285D0028385D01D038B112E00128B3
:1036F00010D1FCF767FF49F824000BE0FCF762FFEC
:1037000059F82410401AB04202D908F804A001E088
:1037100008F804B0641C042CE3DB0020295C395455
:10372000401C0428FADB234898F80020143841464E
:10373000002362B1012A0AD10278521CD2B202706F
:10374000022A01D00AB102E00370C28982814C785A
:1037500041F2883264B1012C0AD10478012C07D1DE
:10376000848904F5FA74A4B28481944200D98681D4
:103770008C7864B1012C0AD10478012C07D184899A
:10378000A4F5FA74A4B28481B44200D28281CA78CA
:1037900032B1012A04D10278012A01D18289C28181
:1037A00000200B54401C0428FBDBBDE8F09F000008
:1037B0000004004824000020FC01002010B519A1DD
:1037C0001E48FFF721FE1D481DA12330FFF71CFEF8
:1037D0001A4814A14630FFF717FE1F4C17481FA1C7
:1037E00062896930FFF710FE1448228921A18C30CC
:1037F000FFF70AFEFFF7F8FE10480AA1D230FFF7E4
:1038000003FE0E4807A1F530FFF7FEFD05A11F4896
:10381000FFF7FAFD1D48BDE8104002A12330FFF775
:10382000F3BD000020202020202020202020202068
:103830002020202020202020000000000C0200205A
:1038400020202020202020204441544120202020DE
:103850002020202000000000100000202020202038
:10386000202046313A2564485A202020202020205C
:103870000000000020202020202046323A25644805
:103880005A202020202020200000000024030020B7
:1038900010B51AA11F48FFF7B7FD1E481EA123301F
:1038A000FFF7B2FD1B4815A14630FFF7ADFD2048DC
:1038B00020A1828917486930FFF7A6FD15480FA19E
:1038C0008C30FFF7A1FD13480CA1AF30FFF79CFD32
:1038D00010480AA1D230FFF797FD0E4807A1F53036
:1038E000FFF792FD05A11948FFF78EFD1748BDE8C7
:1038F000104002A12330FFF787BD000020202020C8
:1039000020202020202020202020202020202020B7
:10391000000000000C020020202020202020202079
:103920005041524120202020202020200000000073
:1039300010000020202020202042463A2564485ACA
:103940002020202020202020000000002403002030
:1039500070B50E48007810B1012803D004E0FFF7DD
:103960002DFF01E0FFF794FF094D0024C4EBC400D4
:1039700000EB8000411904EB4400C006000EFEF786
:1039800037FC641C0A2CF1DB70BD00001000002025
:103990000C0200202DE9F047134C054688462068AC
:1039A000124F86B2F8882060DFF84490012204218B
:1039B0004846FCF702FE4FF480716D1EA9400A488C
:1039C00089B21438B8F1000F01D0002200E00122C2
:1039D000FCF7F3FD2068F880002204214846FCF73C
:1039E000ECFD2660BDE8F0871408004810000020B8
:1039F000000C0048FCF7F4FDFFF734F8FEF740FD3B
:103A0000FEF70EFEFEF730FEFEF7A4FDFEF7D8FD32
:103A1000FEF764FE002204212348FCF7CEFD0021BE
:103A20000120FFF7B7FF00210220FFF7B3FF0021BD
:103A30000320FFF7AFFF00210420FFF7ABFF0021B9
:103A40000520FFF7A7FF00210620FFF7A3FF0021B5
:103A50000720FFF79FFF00210820FFF79BFF0121B0
:103A60000820FFF797FF00211048FDF737FF0021DE
:103A70000F48FDF733FF01220E490F48FEF71AFAEF
:103A8000FEF7F8FB0020FEF74DFB4FF6FF70FEF748
:103A90005FFC0020FEF748FC0848FDF721FC00BF52
:103AA00000F00EF8FCE70000000C00488C0000203D
:103AB000240100201300002070010020400000209D
:103AC000FFF746BF010002000400060008000A00DC
:103AD0000C001000200040008000000100000000E9
:103AE00000000000010203040607080900000000AE
:103AF00001020304000000000000000000000000BC
:103B000000000000000000000000000000000000B5
:103B100000000000000000000000000000000000A5
:103B20000000000000008001800180018001800110
:103B3000800180018001800180018001800180017D
:103B40000000000080018001000000000000000073
:103B50000000000000000000CC00CC00CC00CC0035
:103B6000CC00CC00000000000000000000000000BD
:103B70000000000000000000000000000000000045
:103B80000000000000000000000000000000000035
:103B9000600C600C600C30063006FE1FFE1F300605
:103BA00038071803FE1FFE1F180318038C018C0131
:103BB0008C01000000008000E003F80F9C0E8C1CBC
:103BC0008C188C009800F801E007800E801C8C187F
:103BD0008C189C18B80CF00FE003800080000000E7
:103BE000000000000000000000000E181B0C110C6B
:103BF00011061106110311039B018E01C038C06C20
:103C000060446044304430441844186C0C38000060
:103C1000000000000000E001F00338071806180655
:103C20003003F001F000F8009C310E33061E061C34
:103C3000061C063FFC73F02100000000000000009D
:103C400000000000000000000C000C000C000C0044
:103C50000C000C000000000000000000000000004C
:103C60000000000000000000000000000000000054
:103C7000000000000000000200038001C000C0003E
:103C80006000600030003000300030003000300054
:103C90003000300060006000C000C0008001000300
:103CA00000020000000020006000C00080018001D0
:103CB00000030003000600060006000600060006DA
:103CC000000600060003000380018001C0006000C0
:103CD00020000000000000000000000000000000C4
:103CE000C000C000D806F807E00130033807000024
:103CF00000000000000000000000000000000000C4
:103D000000000000000000000000000000000000B3
:103D100080018001800180018001FC3FFC3F800127
:103D2000800180018001800100000000000000008F
:103D30000000000000000000000000000000000083
:103D40000000000000000000000000000000000073
:103D500000000000000080018001000100018000DF
:103D60000000000000000000000000000000000053
:103D7000000000000000000000000000E007E00775
:103D80000000000000000000000000000000000033
:103D90000000000000000000000000000000000023
:103DA0000000000000000000000000000000000013
:103DB000000000000000C000C00000000000000083
:103DC000000000000000000C000C000600060006C9
:103DD0000003000300038003800180018001C00014
:103DE000C000C00060006000000000000000000093
:103DF000000000000000E003F007380E180C0C185B
:103E00000C180C180C180C180C180C180C180C1892
:103E1000180C380EF007E00300000000000000005E
:103E200000000000000000018001C001F0019801C5
:103E30008801800180018001800180018001800172
:103E4000800180018001800100000000000000006E
:103E5000000000000000E003F80F180C0C180C180C
:103E600000180018000C000600038001C00060006C
:103E700030001800FC1FFC1F0000000000000000C4
:103E8000000000000000E001F807180E0C0C0C0CFC
:103E9000000C0006C003C007000C001800180C1826
:103EA0000C18180CF807E0030000000000000000E8
:103EB000000000000000000C000E000F000F800D3D
:103EC000C00C600C600C300C180C0C0CFC3FFC3F60
:103ED000000C000C000C000C0000000000000000B2
:103EE000000000000000F80FF80F180018000C0088
:103EF000EC03FC071C0E001C0018001800180C181E
:103F00001C0C180EF807E003000000000000000081
:103F1000000000000000C007F00F381C181818003F
:103F20000C00CC03EC0F3C0E1C1C0C180C180C18CD
:103F3000181C380EF007E00300000000000000002D
:103F4000000000000000FC1FFC1F000C0006000623
:103F5000000380038001C001C000E0006000600039
:103F60007000300030003000000000000000000051
:103F7000000000000000E003F007380E180C180CD9
:103F8000180C3806F007F007180C0C180C180C1851
:103F90000C18380CF80FE0030000000000000000CF
:103FA000000000000000E003F007380E1C0C0C18A5
:103FB0000C180C181C1C381EF81BE0190018000CFB
:103FC000000C1C0EF807F0010000000000000000CB
:103FD00000000000000000000000000000000000E1
:103FE00080018001000000000000000000000000CF
:103FF00000000000800180010000000000000000BF
:1040000000000000000000000000000000000000B0
:10401000800180010000000000000000000000009E
:10402000000000008001800100010001800000000C
:104030000000000000000000000000000000000080
:10404000000000000010001C800FE003F8001800C2
:10405000F800E003800F001C0010000000000000CA
:104060000000000000000000000000000000000050
:1040700000000000F81F000000000000F81F000012
:104080000000000000000000000000000000000030
:104090000000000000000000000000000000000020
:1040A0000000000008003800F001C007001F0018E1
:1040B000001FC007F00138000800000000000000E9
:1040C000000000000000E003F80F180C0C180C189A
:1040D0000018000C000600038001C000C000C000F2
:1040E00000000000C000C000000000000000000050
:1040F0000000000000000000E00718180420C2299A
:10410000224A114409440944094409221113E20CCA
:10411000024004201818E007000000000000000022
:1041200000000000000080038003C006C006C00637
:10413000600C600C301830183018F83FF83F1C70D5
:104140000C600C6006C006C000000000000000000B
:10415000000000000000FC03FC0F0C0C0C180C18F5
:104160000C180C0CFC07FC0F0C180C300C300C302D
:104170000C300C18FC1FFC070000000000000000C1
:10418000000000000000C007F01F38381C300C7021
:10419000066006000600060006000600060006602F
:1041A0000C701C30F01FE007000000000000000051
:1041B000000000000000FE03FE0F060E06180618A1
:1041C0000630063006300630063006300630061857
:1041D0000618060EFE0FFE0300000000000000009F
:1041E000000000000000FC3FFC3F0C000C000C0035
:1041F0000C000C00FC1FFC1F0C000C000C000C0041
:104200000C000C00FC3FFC3F000000000000000020
:10421000000000000000F83FF83F180018001800E8
:1042200018001800F81FF81F1800180018001800D0
:10423000180018001800180000000000000000001E
:10424000000000000000E00FF83F3C780E6006E040
:1042500007C00300030003FE03FE03C007C006C03F
:104260000EC03CF0F83FE00F00000000000000002E
:104270000000000000000C300C300C300C300C3012
:104280000C300C30FC3FFC3F0C300C300C300C3050
:104290000C300C300C300C3000000000000000002E
:1042A0000000000000008001800180018001800189
:1042B00080018001800180018001800180018001F6
:1042C00080018001800180010000000000000000EA
:1042D00000000000000000060006000600060006C0
:1042E0000006000600060006000600060006180686
:1042F00018063807F003E00100000000000000008D
:1043000000000000000006300618060C0606060332
:104310008601C60066007600DE008E0106030606F2
:10432000060C0618063006600000000000000000C1
:104330000000000000001800180018001800180005
:1043400018001800180018001800180018001800AD
:1043500018001800F81FF81F0000000000000000FF
:104360000000000000000EE01EF01EF01EF036D827
:1043700036D836D836D866CC66CC66CCC6C6C6C665
:10438000C6C6C6C686C386C3000000000000000083
:104390000000000000000C301C303C303C306C3021
:1043A0006C30CC30CC308C310C330C330C360C36BA
:1043B0000C3C0C3C0C380C300000000000000000ED
:1043C000000000000000E007F81F1C380E700660B7
:1043D00003C003C003C003C003C003C003C0066022
:1043E0000E701C38F81FE0070000000000000000FD
:1043F000000000000000FC0FFC1F0C380C300C30DB
:104400000C300C300C18FC1FFC070C000C000C00CE
:104410000C000C000C000C0000000000000000006C
:10442000000000000000E007F81F1C380E70066056
:1044300003E003C003C003C003C003C007E006637A
:104440000E3F1C3CF83FE0F700C0000000000000F9
:10445000000000000000FE0FFE1F06380630063088
:1044600006300638FE1FFE0706030606060C061871
:10447000061806300630066000000000000000004C
:10448000000000000000E003F80F1C0C0C180C18D2
:104490000C001C00F803E00F001E00380630063048
:1044A0000E301C1CF80FE0070000000000000000A8
:1044B000000000000000FE7FFE7F8001800180017F
:1044C00080018001800180018001800180018001E4
:1044D00080018001800180010000000000000000D8
:1044E0000000000000000C300C300C300C300C30A0
:1044F0000C300C300C300C300C300C300C300C30DC
:104500000C301818F81FE007000000000000000041
:1045100000000000000003600630063006300C1872
:104520000C180C18180C180C380E300630067007D2
:1045300060036003C001C001000000000000000033
:104540000000000000000360C361C361C361663303
:10455000663366336633663366336C1B6C1B6C1BC9
:104560002C1A3C1E380E380E00000000000000001F
:104570000000000000000FE00C7018303018700CC4
:10458000600EC00780038003C003E006700C301C7F
:1045900018180C300E6007E000000000000000005A
:1045A00000000000000003C006600C301C38381802
:1045B000300C6006E007C0038001800180018001AB
:1045C00080018001800180010000000000000000E7
:1045D000000000000000FC7FFC7F0060003000183D
:1045E000000C000600038001C000600030001800CD
:1045F0000C000600FE7FFE7F0000000000000000AF
:10460000000000000000E003E003600060006000C4
:10461000600060006000600060006000600060009A
:104620006000600060006000600060006000E00307
:10463000E003000000003000300060006000600017
:10464000C000C000C000C0018001800180010003E3
:104650000003000300060006000000000000000048
:10466000000000000000E003E0030003000300037B
:104670000003000300030003000300030003000322
:104680000003000300030003000300030003E00332
:10469000E003000000000000C001C00160036003EF
:1046A000600330063006180C180C000000000000F3
:1046B00000000000000000000000000000000000FA
:1046C00000000000000000000000000000000000EA
:1046D00000000000000000000000000000000000DA
:1046E000000000000000FFFFFFFF000000000000CE
:1046F0000000000000000C000C000C000C000C007E
:104700000C0000000000000000000000000000009D
:104710000000000000000000000000000000000099
:104720000000000000000000000000000000000089
:10473000F003F8071C0C0C0C000FF00FF80C0C0C1D
:104740000C0C1C0FF80FF018000000000000000017
:1047500000000000000018001800180018001800E1
:10476000D803F80F380C1818181818181818181833
:104770001818380CF80FD8030000000000000000E3
:104780000000000000000000000000000000000029
:10479000C003F007300E180C18001800180018009D
:1047A000180C300EF007C0030000000000000000ED
:1047B0000000000000000018001800180018001881
:1047C000C01BF01F301C18181818181818181818C3
:1047D0001818301CF01FC01B000000000000000073
:1047E00000000000000000000000000000000000C9
:1047F000C003F00F300C1818F81FF81F180018002D
:104800003818301CF00FC007000000000000000046
:10481000000000000000800FC00FC000C000C000FA
:10482000F007F007C000C000C000C000C000C0001A
:10483000C000C000C000C000000000000000000078
:104840000000000000000000000000000000000068
:10485000E00DF80F180E0C0C0C0C0C0C0C0C0C0CC6
:104860000C0C180EF80FE00D000C0C0C1C06F807D1
:10487000F0010000000018001800180018001800CF
:10488000D807F80F381C18181818181818181818FE
:104890001818181818181818000000000000000058
:1048A000000000000000C000C00000000000000088
:1048B000C000C000C000C000C000C000C000C000F8
:1048C000C000C000C000C0000000000000000000E8
:1048D000000000000000C000C00000000000000058
:1048E000C000C000C000C000C000C000C000C000C8
:1048F000C000C000C000C000C000C000C000F80080
:104900007800000000000C000C000C000C000C00F3
:104910000C0C0C060C038C01CC006C00FC009C0100
:104920008C030C030C060C0C0000000000000000BF
:10493000000000000000C000C000C000C000C000B7
:10494000C000C000C000C000C000C000C000C00067
:10495000C000C000C000C000000000000000000057
:104960000000000000000000000000000000000047
:104970007C3CFF7EC7E383C183C183C183C183C104
:1049800083C183C183C183C1000000000000000017
:104990000000000000000000000000000000000017
:1049A0009807F80F381C181818181818181818181D
:1049B0001818181818181818000000000000000037
:1049C00000000000000000000000000000000000E7
:1049D000C003F00F300C18181818181818181818E9
:1049E0001818300CF00FC003000000000000000099
:1049F00000000000000000000000000000000000B7
:104A0000D803F80F380C1818181818181818181890
:104A10001818380CF80FD8031800180018001800E0
:104A2000180000000000000000000000000000006E
:104A3000C01BF01F301C1818181818181818181850
:104A40001818301CF01FC01B0018001800180018A0
:104A5000001800000000000000000000000000003E
:104A6000B007F0037000300030003000300030003C
:104A70003000300030003000000000000000000076
:104A80000000000000000000000000000000000026
:104A9000E003F003380E180C3800F003C007000CD8
:104AA000180C380EF007E0030000000000000000C2
:104AB00000000000000000008000C000C000C00036
:104AC000F007F007C000C000C000C000C000C00078
:104AD000C000C000C0078007000000000000000008
:104AE00000000000000000000000000000000000C6
:104AF0001818181818181818181818181818181836
:104B00001818381CF01FE019000000000000000019
:104B10000000000000000000000000000000000095
:104B20000C18180C180C180C3006300630066003F0
:104B300060036003C001C00100000000000000002D
:104B40000000000000000000000000000000000065
:104B5000C141C141C3616363636363633636363603
:104B600036361C1C1C1C1C1C000000000000000031
:104B70000000000000000000000000000000000035
:104B80001C38381C300C600660036003600360034F
:104B90006006300C381C1C380000000000000000CB
:104BA0000000000000000000000000000000000005
:104BB0001830301830187018600C600CE00CC0060B
:104BC000C00680038003800380018001C001F000E3
:104BD0007000000000000000000000000000000065
:104BE000FC1FFC1F000C000600038001C0006000D9
:104BF00030001800FC1FFC1F000000000000000037
:104C000000000000000000038001C000C000C000E0
:104C1000C000C000C00060006000300060004000C4
:104C2000C000C000C000C000C000C0008001000380
:104C300000000000000080018001800180018001EF
:104C4000800180018001800180018001800180015C
:104C5000800180018001800180018001800180014C
:104C60008001000000006000C000C00180018001E0
:104C700080018001800100030003000600030001A1
:104C8000800180018001800180018001C0006000FE
:104C90000000000000000000000000000000000014
:104CA00000000000F010F81F080F000000000000D6
:104CB00000000000000000000000000000000000F4
:104CC00000000000E44C000800000020400000004C
:104CD00050340008244D0008400000203807000030
:104CE0006034000810000000010000000000000017
:104CF0000024F4000000010000000000000000009B
:104D0000C409C40900000000000000000101010105
:104D100000000000000000000000FFFF0000000095
:044D2000000000008F
:04000005080001D915
:00000001FF
