:020000040800F2
:100000002809002081020008AB2C00080726000800
:10001000A92C000881060008ED310008000000004E
:10002000000000000000000000000000A1300008F7
:100030008306000800000000AD2C0008A330000873
:100040009B0200089B0200089B0200089B0200081C
:100050009B0200089B0200089B0200089B0200080C
:100060009B0200089B0200089B0200089B020008FC
:100070009B0200089B0200089B0200089B020008EC
:100080009B02000800000000750600089B020008A3
:100090009B0200089B0200089B0200089B020008CC
:1000A0009B0200089B0200089B0200089B020008BC
:1000B0009B0200089B0200089B0200089B020008AC
:1000C0009B0200089B0200089B0200089B0200089C
:1000D0009B0200089B0200089B0200089B0200088C
:1000E0009B020008C52F00089B0200089B02000825
:1000F0009B0200089B0200089B0200080000000011
:10010000000000009B020008000000009B020008A5
:100110009B020008000000009B020008313100082B
:100120009B0200089B0200089B0200089B0200083B
:100130009B02000800000000000000009B02000875
:100140009B0200089B020008000000000000000065
:10015000000000000000000000000000000000009F
:100160000000000000000000000000009B020008EA
:100170009B020008000000000000000000000000DA
:10018000000000009B0200080000000000000000CA
:10019000000000000000000000000000000000005F
:1001A00000000000000000009B0200089B02000805
:1001B0009B0200089B0200089B0200080000000050
:1001C000000000009B02000800000000000000008A
:1001D0009B0200089B02000800F002F800F041F8C2
:1001E0000AA090E8000C82448344AAF10107DA4592
:1001F00001D100F036F8AFF2090EBAE80F0013F0A3
:10020000010F18BFFB1A43F0010318470045000017
:1002100020450000103A24BF78C878C1FAD85207A8
:1002200024BF30C830C144BF04680C607047000070
:100230000023002400250026103A28BF78C1FBD8EF
:10024000520728BF30C148BF0B607047642900F0D7
:100250007380002070471FB503F062F91FBD10B511
:1002600010BD00F0CCF91146FFF7F5FF03F00AF9D5
:1002700000F0EAF903B4FFF7F2FF03BC00F0F2F973
:100280000948804709480047FEE7FEE7FEE7FEE72A
:10029000FEE7FEE7FEE7FEE7FEE7FEE70448054966
:1002A000054A064B7047000015310008D9010008C7
:1002B0002803002028090020280500202805002008
:1002C0000FB41CB5074B06AA7B44694600900598FD
:1002D00000F07DF90020694600F08CF91CBC5DF847
:1002E00014FB00002903000070B50446856900680E
:1002F000C10601D5302600E02026C00707D070BD1A
:10030000D4E9012130469047206A401C20626D1ECE
:10031000F6D570BD70B5044685690078C00707D171
:1003200070BDD4E9012120209047206A401C206242
:100330006D1EF6D570BD00002DE9F0410646002483
:1003400010687529314616A510D0AFF3008000283B
:1003500002DA404213A507E031688A0701D512A5E9
:1003600002E0490704D511A5012401E0AFF30080A4
:1003700000210A2206F1240709E0B0FBF2FCB0FBE1
:10038000F2F302FB1C00303078541846491C002858
:10039000F3D123462A463046BDE8F04100F0B9B813
:1003A000000000002D0000002B00000020000000D5
:1003B0002DE9F0474FF0000A89460446C0F820A016
:1003C0002046E1688847002876D0252806D0D4E961
:1003D00001219047206A401C2062F1E7E168204635
:1003E00000258847C4F81CA006460027C4F818A0BA
:1003F0002A2E09D0304602F00AFF38B304EB8708F2
:10040000303EC8F8186019E059F8041B204604EB88
:1004100087029161E1688847012F064618D1E0699B
:10042000002820DA25F020051DE0D8F8180000EBA0
:10043000800006EB40003038C8F818002046E1681C
:100440008847064602F0E3FE0028EED1012F0AD0CD
:100450002E2E08D12046E16888477F1C0646022FD1
:1004600045F02005C4DBA069002803DA404245F0CE
:100470000105A061E80701D025F01005B6B1A6F18D
:100480004100192802D8203645F400654A46314615
:10049000204625604D46FFF7D9FE58B1012806D009
:1004A000ED1D25F0070000F1080989E704E005F1DA
:1004B000040985E730468AE7206ABDE8F0874FF0F7
:1004C000000200B5134694469646203922BFA0E8A4
:1004D0000C50A0E80C50B1F12001BFF4F7AF0907B0
:1004E00028BFA0E80C5048BF0CC05DF804EB8900A1
:1004F00028BF40F8042B08BF704748BF20F8022BE4
:1005000011F0804F18BF00F8012B704770477047FB
:1005100070472DE9F0470D4699469246044600F192
:1005200024080168880604D5E06921F010012160E3
:1005300000E00120A84201DD471B00E00027A1697F
:100540007A1902EB0900081AA0612078C00602D4CB
:100550002046FFF7C9FE002608E0D4E901211AF879
:1005600006009047206A401C761C20624E45F4DB52
:100570002078C0060AD52046FFF7B6FE06E0D4E98B
:10058000012130209047206A401C2062381EA7F1CC
:100590000107F4DC07E0D4E9012118F805009047D1
:1005A000206A401C2062281EA5F10105F3DC2046CC
:1005B000FFF7B0FE2078000602D50220BDE8F087E4
:1005C0000120FBE701694A1C02610878704700B509
:1005D0008FB0CDE901310021059105497944CDE97C
:1005E000031011466846FFF7E3FE0FB000BD0000A0
:1005F000E5FFFFFF0A6802F8010B0A6070477546C5
:1006000000F02CF8AE4605006946534620F007007E
:10061000854618B020B5FFF741FEBDE820404FF0F9
:1006200000064FF000074FF000084FF0000B21F0DC
:100630000701AC46ACE8C009ACE8C009ACE8C009A9
:10064000ACE8C0098D46704710B50446AFF3008092
:100650002046BDE81040FFF70DBE0000004870477F
:10066000C802002001491820ABBEFEE726000200A8
:1006700070470000014800F02DBA0000340000204F
:10068000FEE77047002240F6B83306E00021491C1F
:1006900089B29942FBD3521C92B28242F6D3704780
:1006A00072B6FEE7704770477047704770470000AA
:1006B0002DE9F84F00270446009790F85800DFF81E
:1006C000DC930D46B846012811D0012684F8586005
:1006D000206802F07FF960B1E06D40F02000E06535
:1006E0005FF0010784F858803846BDE8F88F022093
:1006F000FBE7D5E900210C23206803EA9113184495
:10070000036B01F01F014FF01F0C0CFA01FCC2F348
:10071000846223EA0C038A4013430363206802F0D7
:1007200059F98246206802F051F95AEA00003CD19A
:10073000AA6829682068B2F1004F37D002F056F954
:100740002068416921F00041416120686969C268FF
:10075000C2F3C102520091402A69042A31D000EB51
:1007600082002B68026EDFF838C303F0F84302EA18
:100770000C020B431A4342F00041016622682869CB
:10078000A96902EB8000026E22F080720A430266C1
:10079000297F20682A69012910D0002100EB8200FE
:1007A000026E22F000720A4302667DE0002202F02F
:1007B0001DF92068416941F00041C5E74FF0007123
:1007C000ECE7002102F0FCF8400320684FF0000144
:1007D00072D002F0F5F890FAA0F0B0FA80F1286833
:1007E00042036ED090FAA0F0B0FA80F0814204D1BA
:1007F00000221146206802F008F90121206802F069
:10080000DFF8400320684FF001015DD002F0D8F816
:1008100090FAA0F0B0FA80F12868420359D090FA1B
:10082000A0F0B0FA80F0814204D1002201212068BA
:1008300002F0EBF80221206802F0C2F840032068C1
:100840004FF0020148D002F0BBF890FAA0F0B0FAE5
:1008500080F12868420344D090FAA0F0B0FA80F00A
:10086000814204D100220221206802F0CEF8032147
:10087000206802F0A5F8400320684FF0030133D050
:1008800002F09EF890FAA0F0B0FA80F128684203D6
:100890002FD090FAA0F0B0FA80F0814204D100226B
:1008A0000321206802F0B1F82068816811F0010F7F
:1008B00022D0ACE000E004E002F082F8C0F38461F2
:1008C0008DE7C0F3846091E702F07AF8C0F38461A9
:1008D000A2E7C0F38460A6E702F072F8C0F3846177
:1008E000B7E7C0F38460BBE702F06AF8C0F3846145
:1008F000CCE7C0F38460D0E72A7B296850F8B03F8A
:10090000C1F3120C23EA0C0302F0180C654A22FA18
:100910000CF20A4013430360E968494577D128681F
:1009200041031CD090FAA0F1B1FA81F1491C01F009
:100930001F0109294FEA403132D8002912D000BFE7
:1009400090FAA0F1B1FA81F101F1010101F01F016A
:1009500006FA01F609D100BFC0F3846109E0C0F3D3
:100960008461E3E7C0F38461EEE790FAA0F1B1FAA5
:1009700081F101F1010101F01F0146EA816102D11B
:10098000C0F3846003E090FAA0F0B0FA80F000F1C8
:10099000010000F01F0000EB400041EA005132E08E
:1009A00000290ED090FAA0F1B1FA81F101F1010114
:1009B00001F01F0106FA01F606D100BFC0F3846101
:1009C00006E0C0F38461F1E790FAA0F1B1FA81F199
:1009D00001F1010101F01F0146EA816102D1C0F37A
:1009E000846003E090FAA0F0B0FA80F000F101001A
:1009F00000F01F002C4A00EB400002EB005041EADF
:100A0000000141F00071AA68206801F0EFFF27485B
:100A10002A6802423FF466AE25488168254B01F002
:100A2000E0719A4202D0244B9A421BD10B0219D496
:100A30002268B2F1A04F7FF455AE826841F4000104
:100A400022F0E0720A4382601C481D490068B0FB36
:100A5000F1F000EB4000800000E0401E0090002814
:100A6000FBD13FE6174D184BAA4207D1CD0105D463
:100A700022689A42F5D041F0807109E0134DAA42F4
:100A8000EFD14A02EDD422689A42EAD041F48001C3
:100A9000826822F0E0720A43826023E600007F4011
:100AA00000F0FF03FFFF0700000020FE00000880A9
:100AB00000030050000021C31000C0900C00002073
:100AC000400D0300000052C700010050000084CB1D
:100AD000704770472DE9F05F044600680668456876
:100AE000DFF854B2DBF8080000F01F07B0070ED59E
:100AF000A8070CD5E06DC00603D4E06D40F400609B
:100B0000E0652046FFF7CEFD216802200860DFF88F
:100B10002CA270074FF0A04801D5680703D4300716
:100B200037D5280735D5E06DC00603D4E06D40F415
:100B30000070E065206801F051FF20B32068504547
:100B400001D1424600E00246824208D03FB1052F63
:100B500005D0092F03D0504503D1414602E0C168BA
:100B600001E00146C96889040DD4016809070AD566
:100B700001F030FF58B3E06D40F01000E065206EEA
:100B800040F0010020662046FFF7A2FF21680C20FC
:100B90000860B00601D5A80603D4700658D56806CB
:100BA00056D5E06DC00603D4E06D40F40050E0651A
:100BB0002068C16C11F4C07F1AD00021894601F071
:100BC0000DFF02462068504514D1434613E02068CB
:100BD000416821F00C014160E06D20F48070E06517
:100BE000E06DC004CFD4E06D40F00100E065CAE7DD
:100BF0000121E3E70346834208D03FB1062F05D029
:100C0000072F03D0504503D1414602E0C16801E0FF
:100C10000146C968B9F1000F04D18B0112D48AB121
:100C20008A040FD4026852060CD589020AD401F056
:100C3000CDFEE8B3E06D40F01000E065206E40F0BE
:100C4000010020662046FFF72EFD21686020086025
:100C500030060BD5280609D5E06D40F48030E065FC
:100C6000204600F069F9216880200860F0050CD565
:100C7000E8050AD5E06D40F40030E0652046FFF756
:100C800014FD21684FF480700860B0050CD5A805EC
:100C90000AD5E06D40F48020E0652046FFF706FDB0
:100CA00021684FF400700860F0062ED5E80600E0D9
:100CB00008E02AD5E06BD0B1AFB1DBF8080000F452
:100CC000604013E02068416821F060014160E06D00
:100CD00020F48050E065E06DC005B3D4E06D40F0D5
:100CE0000100E065AEE72068C068C00750B1E06D64
:100CF00040F48060E065206E40F0020020662046EF
:100D0000FFF7E7FE216810200860700512D568051E
:100D100010D5E06D40F48040E065206E40F00800A2
:100D2000206621684FF4806008602046BDE8F05FCF
:100D3000FFF7BABCBDE8F09F00030050000100506F
:100D4000F8B54FF0000504002E46009502D0E06D86
:100D500010B107E00120F8BD204600F0EFF826664C
:100D600084F8586020688168C1F3407119B18168C6
:100D7000694A1140816020688168C1F3007179B9C6
:100D80008168664A114041F080518160644865493C
:100D90000068B0FBF1F000E0401E00900028FBD19D
:100DA00020688168C1F3007141B9E16D41F0100123
:100DB000E165216E41F001012166012501F00AFE85
:100DC000E16DC90600D430B1E06D40F01000E0657F
:100DD00001252846F8BDE06D20F4807040F0020047
:100DE000E0652068806810F0010F11D14FF0A0403D
:100DF00080684D4900F00100896801F00101084355
:100E000006D14A486168826822F47C120A438260F3
:100E1000E168E06B627F0843A16841EA4231084320
:100E200094F8241040EA0140012904D1218D404A60
:100E300002EB41410843E16A29B101F47871226B68
:100E4000014342EA01002168CA683A4B1A40024352
:100E5000CA6020680169626B21F040611143016141
:100E6000206801F0B7FD0646206801F0AFFD304371
:100E70002ED1207F94F83810800340EA4102206888
:100E8000C16844F2020399431143C16020690028FC
:100E9000206801690AD041F480310161206850F86E
:100EA000C01F22696FF30D01114307E021F4803167
:100EB0000161206850F8C01F6FF30D01016094F8C4
:100EC000400001280CD02068016921F00101016176
:100ED000606901282068016B21F00F0111D013E037
:100EE000D4E911010843D4E91312114308432168DE
:100EF0000A6940F2FC739A43104340F00100086114
:100F0000E6E7226A521E11430163E06D20F0020001
:100F100040F00100E0655CE7C0FFFF5FC0FFFF7FBE
:100F20000C000020400D03000001005000030050A1
:100F30000000FEFF0740F0FF7047000010B598B0BA
:100F40000446142111A8FFF7BAFA44216846FFF7B6
:100F5000B6FA1949206888422BD1C4014005009493
:100F60000F90684600F02CFA08B1FFF799FB134880
:100F7000C16C41F40051C164C16C01F4005116917F
:100F8000C16C41F00201C164C06C11A900F0020003
:100F900016900320CDE9114000201390084800F07E
:100FA00023F800220221122000F072F9122000F032
:100FB00061F918B010BD000000010050001002409F
:100FC0000004004870B5044600F0FCF80546601CBB
:100FD00002D004484068044400F0F4F8401BA042EA
:100FE000FAD370BD000000202DE9FC4FDFF8A0A16E
:100FF000002301250AF1040B03244FF00F0C0BF121
:10100000040EBDE005FA03F632406FD04F68012FA1
:1010100005D0022F03D0112F01D0122F17D1D0F8F5
:1010200008905F0004FA07F829EA08090097D1F848
:101030000C8008FA07F848EA0908C0F808804768F1
:10104000B7430E79C6F300169E403E434660C6681D
:101050004FEA430804FA08F7BE4301978F6807FA7E
:1010600008F73743C7604E68022E01D0122E13D105
:10107000DE0800EB86060096366A5F07FF0E0CFA64
:1010800007F926EA0906D1F8109009FA07F949EAA2
:101090000609009EC6F820900668019FBE430F799E
:1010A00007F0030707FA08F7374307604E68F600B2
:1010B00065D5384E376E47F001073766366E23F038
:1010C000030706F001060096334E3E44B146B6686B
:1010D0009F074FEA17780CFA08F7BE43B0F1904F1C
:1010E00005D02E4FB84204D1012717E047E0002772
:1010F00014E02B4FB84201D102270FE0294FB8422C
:1011000001D103270AE0284FB84201D1042705E0A6
:10111000264FB84201D1052700E0062707FA08F755
:101120003743C9F80870DAF800605746D1F80480F0
:1011300096435FEAC83800D516433E60DBF800608E
:101140005F46D1F8048096435FEA883800D516439D
:101150003E60DEF800607746D1F8048096435FEA8F
:10116000C82800D516433E60094F0C373E68D1F8B9
:10117000048096435FEA882800D516433E605B1CD6
:101180000A6832FA03F67FF43DAFBDE8FC8F000039
:10119000000401400010024000000140000400482B
:1011A00000080048000C00480010004800140048E7
:1011B0000069084000D0012070470AB18161704782
:1011C000816270470148806870470000000000207D
:1011D0000248816842681144816070470000002025
:1011E00010B50024032000F073F80F2000F008F879
:1011F00008B1012401E000F025F8204610BD0000F0
:1012000070B50E4E05460024706898B14FF47A719F
:10121000B1FBF0F00A490968B1FBF0F000F0E6FF1D
:1012200040B9102D06D200222946501E00F030F899
:10123000356000E00124204670BD00000000002061
:101240000C0000200A4882B0016E41F001010166E5
:10125000016E01F001010091816D41F080518165C5
:10126000806D00F08050009002B000F0A1B8000046
:1012700000100240002809DB00F01F02012191400C
:101280004009800000F1E020C0F800117047000024
:10129000F0B40E4B1B680C46C3F30223C3F10705E1
:1012A000042D00D90425191D072901D2002300E0CF
:1012B000DB1E012606FA05F1491E214099409E4099
:1012C000761E16403143F0BC01F091BF0CED00E0FA
:1012D000064900F0070208684FF6FF03184040EA8D
:1012E0000220034A10430860704700000CED00E044
:1012F0000000FA052B492C4B0A6832214A432B493E
:1013000040B1B0F5007F086829D020F4C06040F4F7
:1013100080602CE00868C0F34120022804D051F816
:10132000800F20F4807022E0D1F8800020F48070DB
:10133000C1F88000086820F4C06040F400700860C4
:10134000B2FBF3F0401C00E0401E4A69520501D593
:101350000028F9D1486940050AD503207047C0F339
:101360004120022806D051F8800F40F480700860B8
:1013700000207047D1F8800040F48070C1F88000F0
:10138000086820F4C06040F400700860B2FBF3F01D
:10139000401C00E0401E4A695205DBD50028F9D107
:1013A000D8E700000C00002040420F000070004011
:1013B0000248816841F480418160704700700040BC
:1013C0002DE9F8430446006800269D4D00035ED5D4
:1013D000A86D0027C00008D4A86D40F08050A86513
:1013E000A86D012700F080500090DFF85892D9F8DE
:1013F000001041F48071C9F80010FFF7E3FE804649
:1014000006E000BFFFF7DEFEA0EB080002282BD8A5
:10141000D9F80000C005F5D5D5F8900010F440705B
:1014200014D0216C814211D0D5F89000D5F89010DD
:1014300020F4407041F48031C5F89010D5F8901038
:1014400021F48031C5F89010C5F89000C00711D084
:10145000FFF7B8FE804641F2883907E0FFF7B2FE99
:10146000A0EB0801494501D903260BE0D5F890000F
:101470008007F3D5D5F89000216C20F44070084324
:10148000C5F890001FB1A86D20F08050A8652078A5
:10149000C00707D0D5F88800616820F00300084332
:1014A000C5F888002078800707D5D5F88800A1689E
:1014B00020F00C000843C5F888002078400707D5C5
:1014C000D5F88800E16820F030000843C5F88800AE
:1014D0002078000707D5D5F88800216920F0C000E2
:1014E0000843C5F888002078800607D5D5F888001D
:1014F000616920F440600843C5F888002078400600
:1015000007D5D5F88800A16920F440500843C5F8F4
:1015100088002078000607D5D5F88800E16920F416
:1015200040400843C5F888002088C00507D5D5F895
:101530008800216A20F440300843C5F888002088DC
:10154000800507D5D5F88800616A20F4402008435B
:10155000C5F88800208840050FD5D5F88800A16A15
:1015600020F440100843C5F88800A06AB0F5801F39
:1015700003D1E86840F48010E860208800050FD5AA
:10158000D5F88800E16A20F440000843C5F88800D7
:10159000E06AB0F5800F03D1E86840F48010E8609D
:1015A0002088C0040FD5D5F88800216B20F040704A
:1015B0000843C5F88800206BB0F1807F03D1E8684C
:1015C00040F48010E86020884FF0006180040ED560
:1015D000D5F88800626B20F040601043C5F88800A1
:1015E000606B884203D1E86840F48010E86020888E
:1015F00040040ED5D5F88800A26B20F0406010435F
:10160000C5F88800A06B884203D1E86840F48010D8
:10161000E860208800040FD5D5F88800E16B20F041
:1016200040500843C5F88800E06BB0F1805F03D1FB
:10163000E86840F48030E8603046BDE8F883000098
:1016400000100240007000402DE9F0470E460500F2
:101650004FF0000725D0DFF8AC81D8F8000000F08B
:101660000F00B0420CD2D8F8001021F00F01314326
:10167000C8F80010D8F8000000F00F00B04210D1F8
:101680002968614CC80741F2883A5AD06868DFF887
:101690007C91032808D0022820682DD0400500281E
:1016A0002CDB0120BDE8F08720688001F9D5E068D7
:1016B00000F00302E068C0F30310401C032A19D0B5
:1016C000534A00BFB2FBF0F0E268C2F30622504377
:1016D000E268C2F34162521C5200B0FBF2F048458E
:1016E00017D9A06810F0F00F0CD0880711D5A868A2
:1016F00040B10EE0474AE5E78003D0E700F092F8FA
:10170000484506D9A06820F0F00040F08000A060B5
:101710008027A068696820F003000843A060FFF7F5
:1017200051FD814606E000BFFFF74CFDA0EB09012B
:1017300051453AD8A068696800F00C00B0EB810F01
:10174000F2D12868810714D5400703D5A06840F47A
:10175000E060A0602878000705D5A06820F46050FC
:1017600040F4E060A060A068A96820F0F0000843A1
:1017700004E0802F03D1A06820F0F000A060D8F82A
:101780000010404601F00F01B14216D9016821F066
:101790000F0131430160FFF715FD074607E000BF69
:1017A000FFF710FDC11B514501D903207AE7D8F896
:1017B000000000F00F00B042F2D12878400705D5B4
:1017C000A068E96820F4E0600843A060287800077A
:1017D00006D5A068296920F4605040EAC100A060E5
:1017E00000F020F8A1680C4AC1F30311515C01F02C
:1017F0001F01C8400949086009480068BDE8F04772
:10180000FFF7FEBC002002400010024000B4C404F8
:101810000024F40000366E012A3500080C00002078
:1018200000000020184910B58868C0F381021748ED
:10183000012A0BD08A68164BC2F38102022A06D015
:101840008A68C2F38102032A03D0002010BD184623
:1018500010BDCA6802F00304CA68C2F30312521C26
:10186000032C02D0B0FBF2F001E0B3FBF2F0CA6847
:10187000C968C2F306225043C1F34161491C4900C3
:10188000B0FBF1F010BD0000001002400024F40095
:1018900000366E012DE9F84304007AD02078FA4D25
:1018A000C00747D0A868E96800F00C0001F0030108
:1018B0000C2802D0082817D001E0032914D0606852
:1018C000B0F5803F17D0B0F5A02F286817D020F4CE
:1018D00080302860286820F4802028606068E0B1AB
:1018E000FFF770FC064614E02868800322D5606884
:1018F0000028D2D01EE0286840F48030EDE740F4A4
:1019000080202860F7E700BFFFF75CFC801B64289D
:1019100070D828688003F7D50CE0FFF753FC064623
:1019200005E000BFFFF74EFC801B6428F0D8286854
:101930008003F7D4207880074CD5A868E96800F0C8
:101940000C0001F003010C2802D004280DD001E0A6
:1019500002290AD0E068002828682BD040F4807063
:101960002860FFF72FFC064619E02868400502D5DD
:10197000E068002891D06868217C20F0FE4040EAB1
:1019800001606860C1480068FFF73AFC002800D198
:1019900020E076E1FFF716FC801B0228B8D8286803
:1019A0004005F7D56868217C20F0FE4040EA0160E0
:1019B00068600FE020F480702860FFF703FC0646A3
:1019C00005E000BFFFF7FEFB801B0228A0D82868B7
:1019D0004005F7D42078000729D560690028D5F89C
:1019E000940013D040F00100C5F89400FFF7EAFB23
:1019F000064606E090E000BFFFF7E4FB801B0228EC
:101A000086D8D5F894008007F6D510E020F00100C4
:101A1000C5F89400FFF7D6FB064604E0FFF7D2FBBB
:101A2000801B022878D8D5F894008007F6D4207857
:101A3000400761D5A86D0026C00008D4A86D40F00D
:101A40008050A865A86D012600F080500090904855
:101A50000168C90511D40168804641F480710160B4
:101A6000FFF7B0FB074604E0FFF7ACFBC01B022802
:101A700052D8D8F80000C005F6D5A068012815D0C6
:101A80000528D5F8900016D020F00100C5F8900088
:101A9000D5F8900020F00400C5F89000A06841F24D
:101AA0008838B8B1FFF78EFB07460EE0D5F89000F6
:101AB00040F00100F0E740F00400C5F89000F5E7C1
:101AC000FFF780FBC11B414526D8D5F89000800761
:101AD000F6D50CE0FFF776FB074604E0FFF772FB54
:101AE000C11B414518D8D5F890008007F6D41EB127
:101AF000A86D20F08050A8652078800629D5A069BF
:101B00000028D5F8980013D040F00100C5F89800DF
:101B1000FFF758FB064606E077E000BFFFF752FBF1
:101B2000801B022877D8D5F898008007F6D510E0FA
:101B300020F00100C5F89800FFF744FB064604E0DA
:101B4000FFF740FB801B022865D8D5F89800800776
:101B5000F6D4E069F0B3A968C1F38101032961D02B
:101B60000228286820F0807028600BD0E86820F0F8
:101B70000300E860E86847490840E860FFF722FB97
:101B800004464BE0FFF71EFB064604E0FFF71AFB96
:101B9000801B02283FD828688001F7D4F4E90801A7
:101BA0006FF00F0202EB01110843218A5204490829
:101BB00002EB4151A26841EA02210843217D4FF026
:101BC0007E42490802EB41610843217B40EAC16043
:101BD000E96800E062E0304A11400843E8602868A4
:101BE00040F080702860E86840F08070E860FFF79F
:101BF000E9FA044605E000BFFFF7E4FA001B0228FB
:101C000009D828688001F7D548E004E0FFF7DAFA40
:101C1000001B022802D90320BDE8F8832868800150
:101C2000F4D43BE00128F7D0E868226A00F0030111
:101C3000914226D1616A00F0F00209011039914207
:101C40001FD1A26A00F4FE41B1EB022F19D194F822
:101C50002C2000F07841B1EBC26F12D1218E00F43C
:101C6000C00249084905A1F50011914209D194F833
:101C7000341000F0C06049084906A1F100718142AA
:101C80000CD00120C8E70000001002400000002036
:101C900000700040FFFFEEFE0C809F010020BBE7BC
:101CA0007047000006488178491CC9B2817002293A
:101CB00001D100218170C9B2022001F0B3BB000044
:101CC000100000202DE9F04781460F4804680F4EB0
:101CD000DFF83C80E0074FF001054FF4003705D0F6
:101CE0003560C8F800704846FFF7DCFFA00706D54E
:101CF00002203060C8F800704846FFF7D1FF89F82D
:101D00002550BDE8F0870000542800405C280040C2
:101D1000140401400F4810B50B4601680E480140FD
:101D2000080CD870C1F304245C7001F03F049C706F
:101D3000C1F34231197052B901F04AF9D87058789C
:101D400001F046F95870987801F042F99870002037
:101D500010BD0000042800403FFFFF00144810B5EC
:101D600000680B464860124808300068C0F30E0057
:101D700088600F48083801680E480140C1F30540EB
:101D80001870C1F306245C7001F07F049C70890D0B
:101D9000D97052B901F01CF91870587801F018F98F
:101DA0005870987801F014F99870002010BD000068
:101DB000082800407F7F7F0070B504004FF00100CD
:101DC0003ED094F8250028B9002084F8240020464D
:101DD00000F03CF8022084F825001A4ECA2030603A
:101DE00053203060204601F009F910BB154D0C3D21
:101DF000286815490840286028686168A269084376
:101E000021691143084328602189E06840EA0140C4
:101E10000C4914390860204601F016F948B9D4E994
:101E20000721114362692B6823F060431A43114371
:101E30002960FF213160002802D1012184F825109A
:101E400070BD000024280040BFFF8FFB10B592B08A
:101E5000044644216846FEF732FB14492068884254
:101E600021D14FF400200090801210906846FFF7B7
:101E7000A7FA08B1FEF714FC0D4850F8901F41F482
:101E8000004140F83819016841F480610160006840
:101E9000002200F48060119011462920FFF7F8F924
:101EA0002920FFF7E7F912B010BD0000002800401C
:101EB000001002402DE9F05F044690F824000B4624
:101EC000012848D04FF0010B84F824B0022084F898
:101ED00025005948002600684FEA4060D2B3002828
:101EE00000DBDE7098781978DA7840EA014059789A
:101EF000090241EA8251084393F8201040EA016543
:101F0000D8695F6805435869DFF82C9105439869E3
:101F100009F10C090743CA21C9F800105321C9F877
:101F200000104549586A4431B0F5807F4248434B20
:101F30004FF40032D0F800C04FF0FF0A28D02CF444
:101F4000085CC0F800C0022008601A60FFF73AF988
:101F500080464EE002E00220BDE8F09F002800DB52
:101F6000DE70187801F03DF80504587801F039F872
:101F700045EA0025987801F034F80543D87845EA19
:101F8000805593F8200001F02CF845EA0065B7E78A
:101F90002CF4885CC0F800C0C1F800B01A60FFF7EC
:101FA00011F9804607E000BFFFF70CF9A0EB08002D
:101FB000B0F57A7F15D820480C380068C007F3D0F8
:101FC0001D4828300560001D07601B48016841F46A
:101FD00088511CE0FFF7F6F8A0EB0800B0F57A7F17
:101FE00007D9C9F800A0032084F8250084F82460EC
:101FF000B2E711480C3800688007EBD50E48303046
:102000000560001D07600C48016841F4085101603B
:102010000A481438016841F40031016007480C385F
:10202000016841F400310160C9F800A084F825B0CE
:1020300084F8246000208FE7182800401404014031
:102040002DE9F041044690F824000B4601281AD0EF
:10205000012684F82460022084F82500B2B1987823
:10206000D97840EA014558781978000240EA4130B1
:1020700005431B4FCA20386053203860204600F0CB
:10208000BDFFD8B122E00220BDE8F0815878C1063A
:1020900003D500F0EF000A305870D87800F0A1FFA7
:1020A0000504587800F09DFF45EA0025987800F077
:1020B00098FF0543187845EA4035DAE709480540B6
:1020C000074820380560204600F0BEFFFF21396038
:1020D00008B984F82560002184F82410D4E70000B2
:1020E000242800403FFFFF002DE9F047054690F807
:1020F000240017460C46012814D04FF0010985F83A
:102100002490022085F82500DFF8A480CA21C8F8B1
:1021100000105321C8F80010284600F06FFF002679
:1021200018B127E00220BDE8F087214B0C3B18686E
:102130004FEA40601FB3002800DBE670A0782178EA
:10214000E27840EA01406178090241EA825108439D
:1021500018490840164924390860186820F480207E
:102160001860D4E903010843196808431860284639
:1021700000F06AFFFF22C8F80020A0B115E0002897
:1021800000DBE670207800F02CFF0704607800F098
:1021900028FF47EA0027A07800F023FF0743E078F4
:1021A00047EA8050D4E785F8259085F82460BAE79F
:1021B000242800407F7F7F0070B50B4D286860F0B9
:1021C000A0002860FEF7FEFF04464FF47A7606E092
:1021D000FEF7F8FF001BB04201D9032070BD28684C
:1021E0008006F5D5002070BD0C28004010B5401EBB
:1021F000B0F1807F01D3012010BD4FF0E024606179
:102200000F21601700F0F3FF0020A061072020617C
:10221000002010BD70477047704770477047704787
:10222000F0B590F83C20012A3AD0012580F83C50C6
:10223000022280F83D2003685A689C68194E1A4FA4
:10224000B34201D0BB4204D122F4700C4A6842EA86
:102250000C02DFF858C002EA0C02D1F800C04CEAC8
:10226000020CC3F804C00268B2420DD0B2F1804F34
:102270000AD00F4B9A4207D00E4B9A4204D0BA4272
:1022800002D00D4B9A4204D1896824F0800319438F
:10229000916080F83D50002180F83C100846F0BD68
:1022A0000220F0BD002C0140003401408FFFFFFDF3
:1022B000000400400008004000400140704710B595
:1022C000040003D094F83D0010B107E0012010BDD8
:1022D000002084F83C00204600F022F8022084F818
:1022E0003D00211D206800F029FF012084F84800EE
:1022F00084F83E0084F83F0084F8400084F84100F0
:1023000084F8420084F8430084F8440084F84500CF
:1023100084F8460084F8470084F83D00002010BD92
:1023200008B500680B49884212D10B48816D41F015
:1023300020018165806D002200F0200000900121C5
:102340003720FEF7A5FFBDE808403720FEF792BF13
:1023500008BD0000001400400010024090F83D103D
:10236000012901D001207047022180F83D10016849
:10237000CA6842F00102CA600068104988420ED063
:10238000B0F1804F0BD00E49884208D00D498842E9
:1023900005D00D49884202D00C49884207D1816896
:1023A0000B4A1140062906D0B1F5803F03D00168E1
:1023B00041F001010160002070470000002C014045
:1023C000000400400008004000340140004001408B
:1023D00007000100704770B50446006801694FF0BE
:1023E0000005C943890715D4C168C943890711D4B9
:1023F000E91E01610120207720688069800720465E
:1024000002D0FFF7E7FF04E000F0E3F8204600F019
:10241000E1F8257720680169C943490717D4C168E5
:10242000C943490713D46FF00401016102202077EA
:102430002068806910F4407F204602D0FFF7CAFF71
:1024400004E000F0C6F8204600F0C4F825772068C4
:102450000169C943090716D4C168C943090712D4E1
:102460006FF008010161042020772068C0698007AF
:10247000204602D0FFF7AEFF04E000F0AAF82046A5
:1024800000F0A8F8257720680169C943C90617D468
:10249000C168C943C90613D46FF010010161082057
:1024A00020772068C06910F4407F204602D0FFF7F3
:1024B00091FF04E000F08DF8204600F08BF82577BE
:1024C00020680169C943C90708D1C168C943C90760
:1024D00004D1891E0161204600F07EF82068016960
:1024E000C943090609D4C168C943090605D46FF078
:1024F000800101612046FFF78EFE20680169C94313
:10250000C90509D4C168C943090605D46FF48071AF
:1025100001612046FFF77EFE20680169C943490634
:1025200009D4C168C943490605D46FF0400101616F
:10253000204600F067F820680169C943890609D47C
:10254000C168C943890605D46FF0200101612046A6
:10255000FFF762FE20680169C943C90209D4C16856
:10256000C943C90205D46FF4801101612046FFF709
:1025700055FE20680169C943890209D4C168C9436D
:10258000890205D46FF4001101612046FFF745FE72
:1025900020680169C943490209D4C168C943490295
:1025A00005D46FF4800101612046FFF738FE2068F2
:1025B0000169C94309020BD4C168C943090207D4A0
:1025C0006FF4000101612046BDE87040FFF776BE60
:1025D00070BD7047704700000068084988420CD100
:1025E00007498869401C88613221B0FBF1F201FB88
:1025F0001200002801D100F011BE70470014004005
:10260000100000207047FEE700B585B01421684631
:10261000FDF755FF4FF6FF70009000200321CDE934
:102620000201019069460248FEF7DEFC05B000BDDC
:102630000008004800B585B014216846FDF73FFF4B
:102640004FF6FF70009001200190032003900020BE
:10265000029069460248FEF7C7FC05B000BD0000C5
:102660000008004870B5002406462146204600F0C8
:1026700003F900F041F94FF49635304600F010F9B7
:10268000641CAC42F9D370BD30B587B014216846E4
:10269000FDF715FF1E48C16C41F00401C164C16C17
:1026A00001F004010591C16C41F00101C164C16CEC
:1026B00001F001010591C16C41F00201C164C06CDF
:1026C000012500F0020005904FF44870CDE90005A7
:1026D00000240394694602940E48FEF785FC280204
:1026E00003940090CDE901544FF090446946204690
:1026F000FEF77AFCFFF79EFFA06940F48070A061AE
:1027000004481830016841F40871016007B030BD19
:102710000010024000040048203AD2B2034B02EB02
:10272000420203EB021200F019B800003A3500082B
:10273000F0B50E460746002540F23F1407E021465B
:102740003846FFF7E9FF103C6D1CA4B2761C3278C6
:10275000002A01D0142DF2D3F0BD00002DE9F0477E
:1027600091468A460026044600F086F8DFF840804D
:10277000012700BF00F0C0F85FF0000539F816002F
:1027800007FA05F10842404601D1408800E0008880
:1027900000F086F86D1C102DF0D3641CE4B2514695
:1027A000204600F069F8761C182EE3D3BDE8F087C8
:1027B0002C00002010B5FFF767FF002000F014F890
:1027C000084CA080A088A0F50241303906D000F066
:1027D000F7FA002000F008F8A08010BD00F067FABA
:1027E000F7E700002C00002070B51D490A6842F48C
:1027F00000720A600A6842F480720A60184C103C49
:10280000226842F020022260164A1060086840F0F8
:102810002000086000BF00BF00BF206840F020001B
:102820002060206840F480702060FFF7EDFE4FF0DC
:102830009041886A40F48070886200BF00BF00BF8A
:102840000848001F006885B2886940F4807088617C
:10285000FFF7F0FE206840F400702060284670BD4D
:10286000280400481408004801B5BDF800000149DB
:10287000488008BD2C00002010B50C4601462020E1
:1028800000F068F82146BDE81040212000F062B851
:1028900001B5BDF800000149088008BD2C000020EA
:1028A000134A116841F400711160114910390B6825
:1028B00043F480730B600B6843F020030B600D4BF7
:1028C0001860106840F02000106000BF00BF00BF1B
:1028D000086840F020000860086840F480700860D4
:1028E00000BF00BF00BF086840F400700860704778
:1028F00028040048140800481449086840F400708F
:102900000860086840F48070086010481038026859
:1029100042F0200202600E4B22221A600A6842F046
:1029200020020A6000BF00BF00BF016841F0200123
:102930000160016841F48071016000BF00BF00BF09
:10294000016841F4007101607047000028040048EC
:1029500014080048184B10B51A6842F400721A6047
:102960001A6842F480721A60134A103A146844F0EC
:1029700020041460114C2060186840F0200018609A
:1029800000BF00BF00BF106840F02000106010685A
:1029900040F4807010602160186840F020001860DA
:1029A00000BF00BF00BF106840F02000106010683A
:1029B00040F48070106010BD2804004814080048DE
:1029C00000EB8100006E00F0F84070478068C0F3B3
:1029D000C00070478068C0F380007047C06810F482
:1029E000406F01D00020704701207047042303EAA4
:1029F000D15310B518444369C1F3045107248C40E6
:102A0000A3438A401343436110BD00EB8100016E74
:102A100021F00041114301667047000030B589B0D4
:102A200020216846FDF74BFD194818490024016034
:102A30004902C0E90114C46004250461C0E90545E8
:102A4000047744770121016280F82440C462046362
:102A500080F83840C46380F84040FEF771F908B14F
:102A6000FDF71EFE0B4800900620CDE901047F20F3
:102A70000594CDE9030569460548FDF719FE0028D0
:102A800001D0FDF70DFE09B030BD0000000100507F
:102A9000340000200080F03EF0B587B01421684675
:102AA000FDF70DFD2D48C16C41F00401C164C16CFE
:102AB00001F004010591C16C41F02001C164C16CB9
:102AC00001F020010591C16C41F00101C164C16CAC
:102AD00001F001010591C16C41F00201C164C16CBA
:102AE00001F002010591C16C41F00801C164C06CA4
:102AF0001B4E00F008004FF47F4405900122214650
:102B00003046FEF75AFB174F012204213846FEF7E4
:102B100054FB0125CDE90045002402946946304666
:102B20000394FEF761FACDE9005469464FF09040F6
:102B30000295FEF759FA07208DE8310069460A48E8
:102B4000FEF752FA04200090CDE901546946384658
:102B50000394FEF749FA07B0F0BD000000100240F0
:102B600000080048000C004800040048F0B591B08F
:102B700014210AA8FDF7A3FC0024282168460F941D
:102B8000FDF79DFC33483249C0E900147F21816084
:102B9000FF21C0E903144FF080414461C0E90641C0
:102BA0000462FFF709F908B1FDF77AFD12258DF8E7
:102BB00028503A208DF8290019268DF82A600B94A8
:102BC0000D9400220AA923480E94FFF78DFA08B14C
:102BD000FDF766FD03208DF83C0004208DF83D00D4
:102BE00001278DF83E708DF83F6000220FA919482B
:102BF000FFF726FA08B1FDF753FD8DF800500F20BE
:102C00008DF8010028208DF8020013480194CDE9C9
:102C100005044FF48070099007948DF8207000220D
:102C200069460C48FFF746F908B1FDF739FD0B4836
:102C300005904FF400700990002269460548FFF79F
:102C400039F9002801D0FDF72BFD11B0F0BD0000CF
:102C500000280040A00000200080808000008080CC
:102C60003EB500240F48009401940D490294016080
:102C70004F21C0E9011440F2E7318461C160FFF7E0
:102C80001EFB08B1FDF70CFD00946946054802944F
:102C9000FFF7C6FA002801D0FDF702FD3EBD000097
:102CA00000140040C8000020FEE7FEE7704730B582
:102CB00001210020FFF74EFE4FF47A70FDF7E2FC91
:102CC00000210120FFF746FE41F290711020FFF72E
:102CD00041FE4FF41C516020FFF73CFE01216120B2
:102CE000FFF738FE02214620FFF734FE48F21001BC
:102CF0001320FFF72FFE48F2FE011220FFF72AFEF5
:102D00004FF4A0610220FFF725FE41F230010320BD
:102D1000FFF720FE40F2033421463020FFF71AFE71
:102D200021463120FFF716FE21463220FFF712FE22
:102D3000E51E29463320FFF70DFE03213420FFF75F
:102D400009FE21463520FFF705FE14213620FFF746
:102D500001FE21463720FFF7FDFD21463820FFF711
:102D6000F9FD21463920FFF7F5FD29463A20FFF706
:102D7000F1FD03213B20FFF7EDFD21463C20FFF74D
:102D8000E9FD4FF4A0513D20FFF7E4FD4FF4007141
:102D90009220FFF7DFFD21469320FFF7DBFD40F691
:102DA0000D019020FFF7D6FD41F218010320FFF737
:102DB000D1FDBDE8304040F273110720FFF7CABDD6
:102DC00010B543F20801E320FFF7C4FD1221E7200C
:102DD000FFF7C0FD41F23121EF20FFF7BBFD0021DD
:102DE0000120FFF7B7FD4FF4E0610220FFF7B2FDCD
:102DF00041F230010320FFF7ADFD00210420FFF771
:102E0000A9FD40F207210820FFF7A4FD00210920B9
:102E1000FFF7A0FD00210A20FFF79CFD00210C20F8
:102E2000FFF798FD00210D20FFF794FD00210F20F2
:102E3000FFF790FD00211020FFF78CFD07211120E6
:102E4000FFF788FD00211220FFF784FD00211320E9
:102E5000FFF780FDC820FEF7B5F841F29061102021
:102E6000FFF778FD40F227211120FFF773FD322094
:102E7000FEF7A8F81D211220FFF76CFD3220FEF7A7
:102E8000A1F84FF400611320FFF764FD14212920FD
:102E9000FFF760FD0B212B20FFF75CFD3220FEF7D2
:102EA00091F800212020FFF755FD00212120FFF798
:102EB00051FD07213020FFF74DFD40F20771312011
:102EC000FFF748FD06213220FFF744FD40F2047170
:102ED0003520FFF73FFD41F604713620FFF73AFD3C
:102EE00004213720FFF736FD00213820FFF732FD9F
:102EF00040F206713920FFF72DFD40F201713C20B0
:102F0000FFF728FD0F213D20FFF724FD0021502071
:102F1000FFF720FDEF215120FFF71CFD002152207B
:102F2000FFF718FD40F23F115320FFF713FD4FF458
:102F30001C516020FFF70EFD01216120FFF70AFD03
:102F400000216A20FFF706FD00218020FFF702FD27
:102F500000218120FFF7FEFC00218220FFF7FAFC10
:102F600000218320FFF7F6FC00218420FFF7F2FC0C
:102F700000218520FFF7EEFC10219020FFF7EAFCEE
:102F800000219220FFF7E6FC03219320FFF7E2FCEB
:102F90004FF488719520FFF7DDFC00219720FFF7A3
:102FA000D9FC00219820FFF7D5FC41F2180103203D
:102FB000FFF7D0FCBDE8104040F273110720FFF787
:102FC000C9BC00000148FEF77DBE0000A000002043
:102FD000010901EB810100F00F0000EB4100C0B2DC
:102FE00070470022014602E00A39C9B2521C0A2980
:102FF000FAD2100741EA1060704700002DE9F0474F
:10300000104C814600252068400618D4206840F006
:1030100080002060FEF7D6F806464FF47A78032742
:1030200008E000BFFEF7CEF8801B404502D903251B
:1030300089F825702068400601D4032DF2D1284676
:10304000BDE8F0870C2800402DE9F0410646134802
:103050000025016821F080010160104C0C342068CB
:103060004FF00307800607D43046FFF7A5F890B16C
:1030700086F8257003250EE0206820F020002060EF
:103080003046FFF799F810B186F8257003252068BF
:1030900040F0200020602846BDE8F0810C28004068
:1030A0007047FEF795B810B594B038216846FDF723
:1030B00006FA14210EA8FDF702FA4FF40070FEF78D
:1030C00019F9092000904FF48030019001200590FB
:1030D00002200324CDE907041421CDE90A100C9045
:1030E0000D9009946846FEF7D5FB08B172B6FEE76D
:1030F0000F20CDE90E0400201090119012900221B3
:103100000EA8FEF7A1FA002801D072B6FEE714B0AF
:1031100010BD00000548016841F4700101600349D9
:103120004FF00060803908607047000088ED00E0D3
:103130000148FFF750B90000C80000202DE9F04316
:103140000268234B234D244E244C4FF08049984273
:1031500007D0484505D0A84203D0B04201D0A042D4
:1031600003D122F070074A683A431D4FDFF874C05C
:10317000DFF8748098420DD048450BD0A84209D0A2
:10318000B04207D0A04205D0B84203D0604501D07C
:10319000404503D122F44075CA682A434D6922F0A4
:1031A00080022A4302608A68C2620A688262984288
:1031B00007D0A04205D0B84203D0604501D04045B9
:1031C00001D10969016301214161BDE8F08300007B
:1031D000002C014000040040000800400034014081
:1031E000004001400044014000480140FEE709075B
:1031F000090E002804DB00F1E02080F8001470477D
:1032000000F00F0000F1E02080F8141D7047303806
:103210000A2801D201207047002070472DE9F05F95
:103220002F4C01212046FDF7C3FF2E4E02213070A6
:103230002046FDF7BDFF707004212046FDF7B8FF62
:10324000B07001214FF09040FDF7B2FF0024371D10
:10325000DFF89480F0704FF47A794FF0020A4FF063
:10326000010B3D1D305D0028385D01D038B112E002
:10327000012810D1FDF7A6FF48F824000BE0FDF768
:10328000A1FF58F82410401A484502D905F804A0B7
:1032900001E005F804B0641C042CE3DB287800246A
:1032A00058B1012808D11049002214394878401C2F
:1032B00048700E48FEF718FF2C70687800B16C70EB
:1032C000A87800B1AC70E87800B1EC703078387054
:1032D00070787870B078B870F078F870BDE8F09FCA
:1032E000000400481A00002028010020A00000204F
:1032F00008B5002223492448FEF730FD0022234967
:103300002148FEF707FD214821A1801F42781D4872
:103310002430FCF7D5FF1D48817800914378C278AE
:1033200018481DA14C30FCF7CBFF1648817800915E
:10333000437802781CA17430FCF7C2FF11481FA12A
:103340009C30FCF7BDFF0F481CA1C430FCF7B8FF50
:103350000C481AA1EC30FCF7B3FF18A11D48FCF78C
:10336000AFFF1C4815A12830FCF7AAFF194813A18C
:103370005030FCF7A5FF1748BDE8084016A178308B
:10338000FCF79EBF14010020A000002016000020C2
:10339000746573743A256400446174653A25642D3C
:1033A00025642D256400000054696D653A2532645A
:1033B0003A2532643A2532640000000020202020A3
:1033C00020202020202020202020202020202020FD
:1033D000000000002802002039202020202020208A
:1033E000202020202020202020202020000000005D
:1033F00070B50A48007808B9FFF77AFF084D002435
:1034000004EB840005EBC00104EB4400C006000E91
:10341000FFF78EF9641C0A2CF2DB70BD100000204F
:10342000380100202DE9F047134C054688462068F6
:10343000124F86B2B8882060DFF844900122042140
:103440004846FDF7BAFE4FF480716D1EA9400A4848
:1034500089B21438B8F1000F01D0002200E0012237
:10346000FDF7ABFE2068B880002204214846FDF736
:10347000A4FE2660BDE8F087140800481000002074
:10348000000C0048FDF7ACFEFFF70DFEFFF704FB54
:10349000FFF7E6FBFFF7C2FAFFF768FB0022042103
:1034A0001C48FDF78AFE00210120FFF7BBFF002129
:1034B0000220FFF7B7FF00210320FFF7B3FF002131
:1034C0000420FFF7AFFF00210520FFF7ABFF00212D
:1034D0000620FFF7A7FF00210720FFF7A3FF002129
:1034E0000820FFF79FFF01210846FFF79BFF0A48CE
:1034F000FEF734FFFFF75EF90020FFF7B3F84FF651
:10350000FF70FFF7C5F90020FFF7AEF900F006F8ED
:10351000FCE70000000C0048C8000020FFF768BF6F
:103520004FF04070E1EE100A70470000000000000C
:103530000000010203040607080900000000000063
:10354000000000000000000000000000000000007B
:10355000000000000000000000000000000000006B
:103560000000000000000000000000008001800159
:103570008001800180018001800180018001800143
:1035800080018001800100000000800180010000B6
:103590000000000000000000000000000000CC005F
:1035A000CC00CC00CC00CC00CC000000000000001F
:1035B000000000000000000000000000000000000B
:1035C00000000000000000000000000000000000FB
:1035D000000000000000600C600C600C300630063B
:1035E000FE1FFE1F300638071803FE1FFE1F1803BC
:1035F00018038C018C018C01000000008000E003A6
:10360000F80F9C0E8C1C8C188C009800F801E007B9
:10361000800E801C8C188C189C18B80CF00FE003DE
:10362000800080000000000000000000000000009A
:103630000E181B0C110C11061106110311039B012E
:103640008E01C038C06C604460443044304418443B
:10365000186C0C380000000000000000E001F003CE
:103660003807180618063003F001F000F8009C3106
:103670000E33061E061C061C063FFC73F0210000DC
:1036800000000000000000000000000000000C002E
:103690000C000C000C000C000C00000000000000EE
:1036A000000000000000000000000000000000001A
:1036B0000000000000000000000000000002000305
:1036C0008001C000C00060006000300030003000A9
:1036D0003000300030003000300060006000C0007A
:1036E000C000800100030002000000002000600014
:1036F000C0008001800100030003000600060006F0
:103700000006000600060006000600030003800114
:103710008001C000600020000000000000000000E8
:10372000000000000000C000C000D806F807E0015B
:103730003003380700000000000000000000000017
:103740000000000000000000000000000000000079
:1037500000000000000080018001800180018001E4
:10376000FC3FFC3F8001800180018001800100005E
:103770000000000000000000000000000000000049
:103780000000000000000000000000000000000039
:103790000000000000000000000000008001800127
:1037A0000001000180000000000000000000000097
:1037B0000000000000000000000000000000000009
:1037C0000000E007E007000000000000000000002B
:1037D00000000000000000000000000000000000E9
:1037E00000000000000000000000000000000000D9
:1037F000000000000000000000000000C000C00049
:10380000000000000000000000000000000C000CA0
:103810000006000600060003000300038003800189
:1038200080018001C000C000C00060006000000096
:10383000000000000000000000000000E003F007AE
:10384000380E180C0C180C180C180C180C180C1836
:103850000C180C180C18180C380EF007E0030000B8
:1038600000000000000000000000000000018001D6
:10387000C001F00198018801800180018001800170
:1038800080018001800180018001800180010000B1
:10389000000000000000000000000000E003F80F3E
:1038A000180C0C180C1800180018000C0006000367
:1038B0008001C000600030001800FC1FFC1F0000E9
:1038C000000000000000000000000000E001F80718
:1038D000180E0C0C0C0C000C0006C003C007000CEA
:1038E000001800180C180C18180CF807E00300005A
:1038F000000000000000000000000000000C000EAE
:10390000000F000F800DC00C600C600C300C180C08
:103910000C0CFC3FFC3F000C000C000C000C0000E9
:10392000000000000000000000000000F80FF80F89
:10393000180018000C00EC03FC071C0E001C0018FB
:10394000001800180C181C0C180EF807E0030000F3
:10395000000000000000000000000000C007F00FA1
:10396000381C181818000C00CC03EC0F3C0E1C1C63
:103970000C180C180C18181C380EF007E003000087
:10398000000000000000000000000000FC1FFC1F01
:10399000000C00060006000380038001C001C00087
:1039A000E000600060007000300030003000000077
:1039B000000000000000000000000000E003F0072D
:1039C000380E180C180C180C3806F007F007180CF5
:1039D0000C180C180C180C18380CF80FE003000029
:1039E000000000000000000000000000E003F007FD
:1039F000380E1C0C0C180C180C181C1C381EF81B4C
:103A0000E0190018000C000C1C0EF807F001000073
:103A100000000000000000000000000000000000A6
:103A20000000000000008001800100000000000094
:103A30000000000000000000000080018001000084
:103A40000000000000000000000000000000000076
:103A50000000000000008001800100000000000064
:103A60000000000000000000000080018001000153
:103A700000018000000000000000000000000000C5
:103A8000000000000000000000000010001C800F7B
:103A9000E003F8001800F800E003800F001C00109D
:103AA0000000000000000000000000000000000016
:103AB00000000000000000000000F81F00000000EF
:103AC0000000F81F000000000000000000000000DF
:103AD00000000000000000000000000000000000E6
:103AE0000000000000000000000008003800F001A5
:103AF000C007001F0018001FC007F00138000800B1
:103B0000000000000000000000000000E003F80FCB
:103B1000180C0C180C180018000C0006000380018B
:103B2000C000C000C00000000000C000C0000000D5
:103B30000000000000000000000000000000E0079E
:103B400018180420C229224A11440944094409448E
:103B500009221113E20C024004201818E0070000AB
:103B6000000000000000000000000000800380034F
:103B7000C006C006C006600C600C30183018301843
:103B8000F83FF83F1C700C600C6006C006C00000D7
:103B9000000000000000000000000000FC03FC0F1B
:103BA0000C0C0C180C180C180C0CFC07FC0F0C1847
:103BB0000C300C300C300C300C18FC1FFC070000D3
:103BC000000000000000000000000000C007F01F1F
:103BD00038381C300C70066006000600060006002F
:103BE0000600060006600C701C30F01FE0070000A5
:103BF000000000000000000000000000FE03FE0FB7
:103C0000060E061806180630063006300630063056
:103C10000630063006180618060EFE0FFE030000DA
:103C2000000000000000000000000000FC3FFC3F1E
:103C30000C000C000C000C000C00FC1FFC1F0C0006
:103C40000C000C000C000C000C00FC3FFC3F0000C2
:103C5000000000000000000000000000F83FF83FF6
:103C600018001800180018001800F81FF81F180096
:103C7000180018001800180018001800180000009C
:103C8000000000000000000000000000E00FF83F0E
:103C90003C780E6006E007C00300030003FE03FE4D
:103CA00003C007C006C00EC03CF0F83FE00F0000A4
:103CB0000000000000000000000000000C300C308C
:103CC0000C300C300C300C300C30FC3FFC3F0C3016
:103CD0000C300C300C300C300C300C300C30000040
:103CE00000000000000000000000000080018001D2
:103CF00080018001800180018001800180018001BC
:103D0000800180018001800180018001800100002C
:103D10000000000000000000000000000006000697
:103D20000006000600060006000600060006000663
:103D300000060006180618063807F003E001000028
:103D4000000000000000000000000000063006181F
:103D5000060C060606038601C60066007600DE0035
:103D60008E0106030606060C0618063006600000E3
:103D70000000000000000000000000001800180013
:103D80001800180018001800180018001800180073
:103D900018001800180018001800F81FF81F00007D
:103DA0000000000000000000000000000EE01EF017
:103DB0001EF01EF036D836D836D836D866CC66CC4B
:103DC00066CCC6C6C6C6C6C6C6C686C386C30000FF
:103DD0000000000000000000000000000C301C305B
:103DE0003C303C306C306C30CC30CC308C310C33CF
:103DF0000C330C360C360C3C0C3C0C380C300000F0
:103E0000000000000000000000000000E007F81FB4
:103E10001C380E70066003C003C003C003C003C09B
:103E200003C003C006600E701C38F81FE0070000D6
:103E3000000000000000000000000000FC0FFC1F5C
:103E40000C380C300C300C300C300C18FC1FFC07FC
:103E50000C000C000C000C000C000C000C0000000E
:103E6000000000000000000000000000E007F81F54
:103E70001C380E70066003E003C003C003C003C01B
:103E800003C007E006630E3F1C3CF83FE0F700C0AC
:103E9000000000000000000000000000FE0FFE1FF8
:103EA00006380630063006300638FE1FFE070603C9
:103EB0000606060C061806180630063006600000D6
:103EC000000000000000000000000000E003F80F08
:103ED0001C0C0C180C180C001C00F803E00F001E42
:103EE0000038063006300E301C1CF80FE0070000CA
:103EF000000000000000000000000000FE7FFE7FC8
:103F000080018001800180018001800180018001A9
:103F1000800180018001800180018001800100001A
:103F20000000000000000000000000000C300C3019
:103F30000C300C300C300C300C300C300C300C30A1
:103F40000C300C300C300C301818F81FE007000053
:103F500000000000000000000000000003600630C8
:103F6000063006300C180C180C18180C180C380EEB
:103F700030063006700760036003C001C001000016
:103F80000000000000000000000000000360C361AA
:103F9000C361C36166336633663366336633663343
:103FA0006C1B6C1B6C1B2C1A3C1E380E380E000050
:103FB0000000000000000000000000000FE00C7096
:103FC00018303018700C600EC00780038003C003E7
:103FD000E006700C301C18180C300E6007E0000072
:103FE00000000000000000000000000003C00660A8
:103FF0000C301C383818300C6006E007C003800114
:104000008001800180018001800180018001000029
:10401000000000000000000000000000FC7FFC7FAA
:10402000006000300018000C000600038001C00092
:104030006000300018000C000600FE7FFE7F0000CC
:10404000000000000000000000000000E003E003AA
:104050006000600060006000600060006000600060
:104060006000600060006000600060006000600050
:1040700060006000E003E00300000000300030005A
:10408000600060006000C000C000C000C00180018E
:104090008001800100030003000300060006000009
:1040A000000000000000000000000000E003E0034A
:1040B00000030003000300030003000300030003E8
:1040C00000030003000300030003000300030003D8
:1040D00000030003E003E003000000000000C00153
:1040E000C00160036003600330063006180C180C32
:1040F00000000000000000000000000000000000C0
:1041000000000000000000000000000000000000AF
:10411000000000000000000000000000000000009F
:10412000000000000000000000000000FFFFFFFF93
:104130000000000000000000000000000C000C0067
:104140000C000C000C000C0000000000000000003F
:10415000000000000000000000000000000000005F
:10416000000000000000000000000000000000004F
:10417000000000000000F003F8071C0C0C0C000FFE
:10418000F00FF80C0C0C0C0C1C0FF80FF0180000C2
:1041900000000000000000000000000018001800EF
:1041A000180018001800D803F80F380C1818181841
:1041B0001818181818181818380CF80FD803000019
:1041C00000000000000000000000000000000000EF
:1041D000000000000000C003F007300E180C1800AB
:1041E000180018001800180C300EF007C00300006B
:1041F000000000000000000000000000001800188F
:10420000001800180018C01BF01F301C18181818D0
:104210001818181818181818301CF01FC01B0000A8
:10422000000000000000000000000000000000008E
:10423000000000000000C003F00F300C1818F81F39
:10424000F81F180018003818301CF00FC0070000C5
:10425000000000000000000000000000800FC00F00
:10426000C000C000C000F007F007C000C000C000E0
:10427000C000C000C000C000C000C000C0000000FE
:10428000000000000000000000000000000000002E
:10429000000000000000E00DF80F180E0C0C0C0CD4
:1042A0000C0C0C0C0C0C0C0C180EF80FE00D000C88
:1042B0000C0C1C06F807F0010000000018001800A4
:1042C000180018001800D807F80F381C181818180C
:1042D000181818181818181818181818181800008E
:1042E000000000000000000000000000C000C0004E
:1042F000000000000000C000C000C000C000C000FE
:10430000C000C000C000C000C000C000C00000006D
:10431000000000000000000000000000C000C0001D
:10432000000000000000C000C000C000C000C000CD
:10433000C000C000C000C000C000C000C000C0007D
:10434000C000C000F8007800000000000C000C0065
:104350000C000C000C000C0C0C060C038C01CC00A7
:104360006C00FC009C018C030C030C060C0C000080
:10437000000000000000000000000000C000C000BD
:10438000C000C000C000C000C000C000C000C0002D
:10439000C000C000C000C000C000C000C0000000DD
:1043A000000000000000000000000000000000000D
:1043B0000000000000007C3CFF7EC7E383C183C196
:1043C00083C183C183C183C183C183C183C1000011
:1043D00000000000000000000000000000000000DD
:1043E0000000000000009807F80F381C1818181873
:1043F000181818181818181818181818181800006D
:1044000000000000000000000000000000000000AC
:10441000000000000000C003F00F300C181818183E
:104420001818181818181818300CF00FC0030000CE
:10443000000000000000000000000000000000007C
:10444000000000000000D803F80F380C18181818E6
:104450001818181818181818380CF80FD80318005E
:1044600018001800180018000000000000000000EC
:10447000000000000000C01BF01F301C18181818A6
:104480001818181818181818301CF01FC01B00181E
:1044900000180018001800180000000000000000BC
:1044A000000000000000B007F00370003000300092
:1044B00030003000300030003000300030000000AC
:1044C00000000000000000000000000000000000EC
:1044D000000000000000E003F003380E180C380064
:1044E000F003C007000C180C380EF007E0030000C2
:1044F000000000000000000000000000000080003C
:10450000C000C000C000F007F007C000C000C0003D
:10451000C000C000C000C000C000C007800700008D
:10452000000000000000000000000000000000008B
:10453000000000000000181818181818181818188B
:104540001818181818181818381CF01FE01900004F
:10455000000000000000000000000000000000005B
:104560000000000000000C18180C180C180C300685
:1045700030063006600360036003C001C001000024
:10458000000000000000000000000000000000002B
:10459000000000000000C141C141C3616363636367
:1045A00063633636363636361C1C1C1C1C1C000059
:1045B00000000000000000000000000000000000FB
:1045C0000000000000001C38381C300C600660033E
:1045D0006003600360036006300C381C1C38000068
:1045E00000000000000000000000000000000000CB
:1045F0000000000000001830301830187018600CEF
:10460000600CE00CC006C0068003800380038001BC
:104610008001C001F00070000000000000000000F8
:10462000000000000000FC1FFC1F000C000600033F
:104630008001C000600030001800FC1FFC1F00005B
:1046400000000000000000000000000000038001E6
:10465000C000C000C000C000C000C000600060001A
:10466000300060004000C000C000C000C000C000BA
:10467000C0008001000300000000000080018001F4
:104680008001800180018001800180018001800122
:104690008001800180018001800180018001800112
:1046A0008001800180018001000000006000C000E6
:1046B000C0018001800180018001800100030003AE
:1046C000000600030001800180018001800180015B
:1046D0008001C00060000000000000000000000039
:1046E00000000000000000000000F010F81F080F9C
:1046F00000000000000000000000000000000000BA
:104700000000000000000000000000002C4700082E
:104710000000002034000000140200086047000878
:1047200034000020F40800003002000810000000EF
:1047300001000000000000000024F4000000000060
:104740000000000000000000000001010101000065
:1047500000000000000000000000FFFF000000005B
:04000005080001D915
:00000001FF
