:020000040800F2
:10000000580A0020F1010008555C0008994D0008CD
:10001000515C0008D10900081D78000800000000AC
:1000200000000000000000000000000089610008DE
:100030009D0A000800000000595C00088B61000860
:100040000B0200080B0200080B0200080B0200085C
:100050000B0200080B0200080B0200080B0200084C
:100060000B0200080B0200080B020008D50900086B
:10007000E50900080B0200080B0200080B0200084B
:100080000B0200080B0200080B0200080B0200081C
:100090000B0200080B0200080B0200080B0200080C
:1000A0001562000835620008256200080B0200088E
:1000B00045620008556200080B0200080B020008A8
:1000C0000B0200080B0200080B0200080B020008DC
:1000D0000B0200080D7800080B0200080B02000854
:1000E0000B020008E55F00080B0200080B02000885
:1000F0000B0200080B0200080B0200080B020008AC
:100100000B0200080B0200080B0200080B0200089B
:100110000B0200080B0200080B02000865620008D1
:100120000B0200080B0200080B0200080B0200087B
:100130000B0200080B0200080B0200080B0200086B
:100140000B0200080B0200080B0200080B0200085B
:100150000B0200080B0200080B0200080B0200084B
:100160000B0200080B0200080B0200080B0200083B
:100170000B0200080B0200080B0200080B0200082B
:100180000B0200080B0200080B0200080B0200081B
:100190000B020008000000000B0200080B02000820
:1001A0000B0200080B0200080B0200080B020008FB
:1001B0000B0200080B0200080B0200080B020008EB
:1001C0000B0200080B0200080B0200080B020008DB
:1001D0000B0200080B020008DFF810D000F05EFAF6
:1001E0000048004715890008AFF30080580A002036
:1001F0000648804706480047FEE7FEE7FEE7FEE7C1
:10020000FEE7FEE7FEE7FEE7FEE7FEE70162000825
:10021000D90100082DE9F05F0546002092469B4673
:1002200088460646814640241BE02846414647460C
:10023000224600F06AF853465A46C01A914110D33C
:1002400011461846224600F051F82D1A67EB0108B6
:100250004F4622460120002100F048F817EB000924
:100260004E41201EA4F10104DFDC484631462A46F7
:100270004346BDE8F09FD2B201E000F8012B491ED1
:10028000FBD270470022F6E710B513460A46044633
:100290001946FFF7F0FF204610BD00F0004230F095
:1002A00000400AD0C10D01F56071C0F3160042EAAA
:1002B0000151C208400711437047002001467047B2
:1002C00030B50B46014600202022012409E021FA26
:1002D00002F59D4205D303FA02F5491B04FA02F523
:1002E0002844151EA2F10102F1DC30BD202A04DBF6
:1002F000203A00FA02F1002070479140C2F1200339
:1003000020FA03F3194390407047202A04DB203A77
:1003100021FA02F00021704721FA02F3D040C2F125
:10032000200291400843194670472DE9FE4F804650
:1003300081EA0300C00F0C46009021F0004123F039
:100340000045B8EB0200A94105D24046214690463F
:100350001C460B46024623F00040104347D0270DB1
:10036000C7F30A00C3F30A510290401A01904028D3
:100370006BDAC3F3130040F4801B0098924620B15F
:100380000023D2EB030A63EB0B0B01985946C0F133
:1003900040025046FFF7AAFF06460D465046594612
:1003A000019A00F08DF910EB08006141002487EA02
:1003B000115284EAE7731A4340D0009A62B3019A5B
:1003C000012A4FEA075215DC001B61EB02014FF0D6
:1003D000004202EA0752CDE90042001C41F58011BB
:1003E00032462B4600F08DF903B0BDE8F08F404651
:1003F0002146F9E7001B61EB0201001C41F5801367
:1004000000185B412018A2F5001747EB030140EAF2
:10041000D570B6196D4111E06D084FEA360645EA10
:10042000C0754FEA0752001B61EB0201001C41F549
:10043000801149084FEA30000019514132462B46DD
:1004400003B0BDE8F04F00F04DB900980122400024
:100450000023D0EB020263EBE073009821464FEAE1
:10046000E074B8EB000061EB0401E9E783F00043BE
:100470005BE781F0004158E72DE9FE4F81EA030474
:1004800004F0004421F0004100944FF0000B23F0F1
:10049000004350EA01045ED052EA03045BD0C3F388
:1004A0000A54C1F30A552C44A4F2F3340194A0FB7E
:1004B0000254C1F3130141F48011C3F3130343F455
:1004C000801301FB024400FB034E840A970A44EAAE
:1004D000815447EA8357A4FB076802958D0A05FB00
:1004E00007854FEA932C04FB0C542705029D4FEA25
:1004F000065847EA1637B5EB08056EEB070C870E72
:10050000920E47EA811742EA8312A7FB0201B6EB7B
:100510000B0164EB00042B0D43EA0C335E1844EB33
:100520001C50DA465146E7FB0201C5F313044FEABB
:100530000B3343EA14534FEA0432019C43EA0603A7
:10054000A4F10C040294009CCDE900B400F0D9F8A9
:1005500003B0BDE8F08F00200146F9E72DE9F04D2A
:1005600081EA030404F0004B21F0004514464FF0EB
:10057000000A23F0004150EA050220D054EA0102AB
:100580001DD0C5F30A570246C5F31303C1F3130088
:10059000C1F30A5640F4801543F48013A7EB060814
:1005A000101BD64608F2FD3873EB050002D308F1A4
:1005B000010801E092185B41B8F1000F03DA002056
:1005C0000146BDE8F08D00204FF4801106468446B8
:1005D0000EE0171B73EB050705D3121B63EB050336
:1005E00006434CEA010C49084FEA300092185B417F
:1005F00050EA0107EDD152EA030012D082EA04006A
:1006000083EA0501084305D0101BAB4106D2012245
:10061000002306E000224FF0004302E06FF00102E9
:1006200053101AEB06004CEB085110EB0A0041EB9B
:100630000B01BDE8F04D00F055B8C1F30A52C1F30B
:10064000130140F2FF3341F480119A4202DA002094
:100650000146704740F233439A42A2F2334202DC31
:100660005242FFF752BEFFF741BE000030B5041EF4
:1006700071F1000404DB4FF00044404264EB0101DF
:10068000141E73F1000405DB1C464FF00043524278
:1006900063EB0403994208BF904230BD064C074DFE
:1006A00006E0E06840F0010394E807009847103442
:1006B000AC42F6D3FFF794FD8C9C0008AC9C00087C
:1006C000202A06DBCB17203A41FA02F043EAE07316
:1006D00006E041FA02F3D040C2F120029140084303
:1006E0001946704710B5141E73F1000408DA401C57
:1006F00041F1000192185B411A4301D120F0010041
:1007000010BD2DE9F04D92469B4611B1B1FA81F230
:1007100002E0B0FA80F220329046FFF7E7FD04468F
:100720000F4640EA0A0041EA0B0153465A46084385
:1007300013D0114653EA010019D0C8F140025046C7
:10074000FFF7E3FD05460E46504659464246FFF781
:10075000CDFD084305D0012004E020463946BDE820
:10076000F08D0020054346EAE0762C4337430A9893
:100770006305E40AA0EB08000022FD0A44EA47549E
:100780000A3002D500200146E9E701051019694148
:10079000DDE9084500196941BDE8F04DA2E770B5F3
:1007A0000546AC6AE06D00F0500098BBE06D40F487
:1007B0000070E0652068006800F00800A8B12068BB
:1007C00004F06CFE10B32068C06800F40050E8B973
:1007D000E06D20F48070E065E06D00F48050A8B911
:1007E000E06D40F00100E06510E02068C06800F0B6
:1007F000020058B9E06D20F48070E065E06D00F40F
:10080000805018B9E06D40F00100E065204600F02E
:1008100047FD0CE0FFE7E06D00F0100018B1204646
:1008200000F040FD03E0606D416B2846884770BDD5
:1008300070B50546AC6AE06D40F04000E065206EA2
:1008400040F004002066204600F02CFD70BD70B51D
:100850000446A56A284600F024FD70BD70B5044624
:10086000206804F0FDFD0646206804F0FEFD98B304
:1008700096BB2068806800F00D0001280AD120682E
:1008800081681A4A1140891C816000BF03202168D9
:10089000086009E0E06D40F01000E065206E40F077
:1008A00001002066012070BD01F0B0FA054614E099
:1008B00001F0ACFA401B02280FD92068806800F0D4
:1008C000010050B1E06D40F01000E065206E40F096
:1008D000010020660120E6E705E02068806800F05E
:1008E00001000028E4D10020DDE70000C0FFFF7F09
:1008F00038B5044600200090206804F0B6FD0028BA
:1009000058D1206880682C49084048B1E06D40F01B
:100910001000E065206E40F001002066012038BD27
:10092000206804F07DFD2168B1F1A04F03D0234A77
:100930002168914201D1224900E02249084604F091
:1009400077FD00F4000080B11F4800681F49B0FB2C
:10095000F1F0401C00EB40008000009002E00098A5
:10096000401E009000980028F9D101F04FFA05468A
:100970001AE0206804F079FD10B9206804F050FDF9
:1009800001F044FA401B02280ED92068006800F0EC
:10099000010048B9E06D40F01000E065206E40F0C5
:1009A000010020660120BAE72068006800F001001D
:1009B0000028DED00020B2E73F0000800001005098
:1009C000000300500007005010000020400D0300FD
:1009D00000BFFEE710B5024800F0C7FF10BD0000E1
:1009E0008401002010B5024800F0BFFF10BD0000D8
:1009F000E401002030B50E4D0468AC4201D20D492F
:100A000001E00C4920310B460478083C1425B4FB66
:100A1000F5F2446CA40803EB84048464054C803430
:100A2000C46402F01F050124AC40046530BD000021
:100A3000080402400008024001794A1E064B03EBFD
:100A400082024265044A403282654A1E02F01F0358
:100A500001229A40C26570470009024030B5D0E9D2
:100A600013546C60446D14B1D0E916546C6090F866
:100A7000444004F01F050124AC40056C6C60046820
:100A800063608468102C04D10468A2600468E1608B
:100A900003E00468A1600468E26030BD7047002193
:100AA00009E0002201E0531C9AB240F6B8339A42A2
:100AB000F9DB4B1C99B28142F3DB704772B600BF81
:100AC000FEE70000F8B504460D460020009000BF88
:100AD00094F85800012801D10220F8BD012084F8C3
:100AE000580000BF2046FFF7B9FE06468EBBE06DFA
:100AF00020F4885040F00200E065206881681B4ABD
:100B0000114005F0804242F000421143816000BF75
:100B100013E00098401C00901549009888420CD3BF
:100B2000E06D20F0020040F01000E06500BF002002
:100B300084F8580000BF0120CFE720688168C90F02
:100B40000029E6D1E06D20F0020040F00100E065F0
:100B500004E0FFE7E06D40F01000E06500BF00201A
:100B600084F8580000BF3046B7E70000C0FFFF3FE1
:100B700002DE04002DE9F0439BB004460E464FF020
:100B80000008306800B100BF00BF94F85800012889
:100B900003D102201BB0BDE8F083012084F8580087
:100BA00000BF0020179018902068B0F1A04F02D12C
:100BB0005848009008E058492068884202D15748B8
:100BC000009001E000200090009850B9E06D40F0E6
:100BD0002000E06500BF002084F8580000BF01201D
:100BE000D8E7009804F055FC0746206804F051FC53
:100BF00000287DD1002F7FD12068B0F1A04F03D015
:100C000044492068884201D1454800E045480546EE
:100C10003068D8B394F83800716841EA4030A96868
:100C200021F460410843A8602068B0F1A04F03D0D0
:100C300038492068884201D1394800E039483849AC
:100C400088420AD14FF0A04004F014FC814631489C
:100C500004F010FC49EA00000DE02F4804F00AFC03
:100C600081462E4804F006FC49EA00092E4804F0AB
:100C700001FC49EA0000E0BBB16830680843A9689C
:100C800040F61F7291430843A8603BE0FFE7A86865
:100C900020F46040A8602068B0F1A04F03D01D4947
:100CA0002068884201D11E4800E01E481C49884245
:100CB0000AD14FF0A04004F0DDFB8146154804F056
:100CC000D9FB49EA00000DE0134804F0D3FB81464C
:100CD000124804F0CFFB49EA0009134804F0CAFBAC
:100CE00049EA000028B9A86840F61F71884301E06E
:100CF00002E007E0A86005E0E06D40F02000E0655C
:100D00004FF0010800BF002084F8580000BF4046A3
:100D100040E70000000100500004005000050050B2
:100D20000003005000070050000600502DE9F84F66
:100D300005460C464FF0000A00200090FE49E0688E
:100D4000884200D000E000BF00BF95F8580001289D
:100D500002D10220BDE8F88F012085F8580000BFBD
:100D6000286804F091FB00287DD12968D4E900208F
:100D700001F1300CC0F3012B0CEB8B03D3F800C056
:100D800000F01F0E4FF01F0B0BFA0EFB2CEA0B0CA2
:100D900000F01F0BC2F3846E0EFA0BFE4CEA0E0C31
:100DA000C3F800C000BF286804F06EFB81462868C5
:100DB00004F051FB8046B9F1000F64D1B8F1000F87
:100DC000FBD1A068B0F1004F0AD121680022286849
:100DD00004F076FB4FF00041286804F096FB08E031
:100DE000A2682168286804F06BFB0021286804F0E1
:100DF0008CFB60692968C968C1F3C101490000FA28
:100E000001F7206904283FD028682268216900F191
:100E1000600C0CEB8103D3F800C0DFF820B30CEAC0
:100E20000B0C02F0F84B4BF0004B4BEA070B4CEA73
:100E30000B0CC3F800C000BF2868A269216900F14B
:100E4000600C0CEB8103D3F800C02CF0807C4CEAE2
:100E5000020CC3F800C000BF2868227F2169012A64
:100E600002D1520601E0F6E10022134600F1600CC7
:100E70000CEB8102D2F800C02CF0007C4CEA030C91
:100E8000C2F800C000BFA7E00021286804F0DAFA29
:100E9000C0F3120030B90021286804F0D3FAC0F37F
:100EA000846007E00021286804F0CCFA90FAA0F0F2
:100EB000B0FA80F02168C1F3120119B92168C1F3B9
:100EC000846104E0216891FAA1F1B1FA81F18842CC
:100ED00004D100221146286804F00CFB0121286887
:100EE00004F0B0FAC0F3120030B90121286804F010
:100EF000A9FAC0F3846007E00121286804F0A2FA8F
:100F000090FAA0F0B0FA80F02168C1F3120119B98B
:100F10002168C1F3846104E0216891FAA1F1B1FA7A
:100F200081F1884204D100220121286804F0E2FA0C
:100F30000221286804F086FAC0F3120030B90221B9
:100F4000286804F07FFAC0F3846007E00221286873
:100F500004F078FA90FAA0F0B0FA80F02168C1F3BA
:100F6000120119B92168C1F3846104E0216891FA82
:100F7000A1F1B1FA81F1884204D10022022128684E
:100F800004F0B8FA0321286804F05CFAC0F31200F8
:100F900030B90321286804F055FAC0F3846007E0F3
:100FA0000321286804F04EFA90FAA0F0B0FA80F01D
:100FB0002168C1F3120119B92168C1F3846104E009
:100FC000216891FAA1F1B1FA81F1884204D100229D
:100FD0000321286804F08EFA286804F046FA0028F5
:100FE00070D12868E2682168D0F8B0C0C1F312035C
:100FF0002CEA030C02F0180B514B23FA0BF30B40B5
:101000004CEA030CC0F8B0C000BF4B49E06888420E
:1010100058D12368C3F312031BB92368C3F3846355
:1010200004E0236893FAA3F3B3FA83F35B1C03F0A1
:101030001F03092B3ED82368C3F312031BB923688F
:10104000C3F3846304E0236893FAA3F3B3FA83F34E
:101050005B1C03F01F034FF0010C0CFA03FC236828
:10106000C3F312031BB92368C3F3846304E023684A
:1010700093FAA3F3B3FA83F35B1C03F01F034CEA68
:10108000836C2368C3F312031BB92368C3F384631F
:1010900004E0236893FAA3F3B3FA83F35B1C03F031
:1010A0001F0303EB43034FF0000B4BEA03534CEADF
:1010B00003033FE02368C3F3120323B92368C3F398
:1010C000846305E042E0236893FAA3F3B3FA83F361
:1010D0005B1C03F01F034FF0010C0CFA03FC2368A8
:1010E000C3F312031BB92368C3F3846304E02368CA
:1010F00093FAA3F3B3FA83F35B1C03F01F034CEAE8
:10110000836C2368C3F312031BB92368C3F384639E
:1011100004E0236893FAA3F3B3FA83F35B1C03F0B0
:101120001F030A3B03EB43034FF0007B4BEA0353DF
:101130004CEA0303194605E000007F4000F0FF037E
:10114000FFFF0700A268286804F0BAF94849206840
:101150000840002842D02968B1F1A04F03D0454A89
:101160002968914201D1444900E04449084604F00D
:101170005FF9064642492068884203D04149206809
:1011800088422CD106F4000048BB2868B0F1A04F7B
:1011900003D03D492868884263D12A68B2F1A04F44
:1011A00003D0344B2A689A4201D1334A00E0334AD3
:1011B000104646F4000104F097F9344800683449B9
:1011C000B0FBF1F0401C00EB40008000009002E01A
:1011D0000098401E009000980028F9D141E02D4968
:1011E000206888421BD106F08070C0B92149286868
:1011F000884203D128492868884232D02A68B2F14F
:10120000A04F03D01B4B2A689A4201D11A4A00E032
:101210001A4A104646F0807104F066F921E01F4931
:10122000206888421DD106F48000D0B91149286891
:10123000884216D02A68B2F1A04F03D00B462A6824
:101240009A4201D10C4A00E00C4A104646F4800153
:1012500004F04AF905E0E86D40F02000E8654FF041
:10126000010A00BF002085F8580000BF504671E514
:1012700000000880000100500003005000070050EB
:10128000000021C31000C090000600501000002094
:10129000400D0300000052C700050050000084CB41
:1012A00070477047704700002DE9F84304464FF03F
:1012B00000080020009014B90120BDE8F88360699F
:1012C00020B194F82400012800D100BFE06D30B9AE
:1012D000204600F045F90020206684F85800206878
:1012E0008168C1F3407131B120688168914A114031
:1012F000816000BF00BF206804F0C1F8B0B9206869
:1013000081688D4A114041F08051816000BF8B4857
:1013100000688B49B0FBF1F0401C4000009002E0F7
:101320000098401E009000980028F9D1206804F031
:10133000A6F848B9E06D40F01000E065206E40F07E
:10134000010020664FF00108206804F09DF8064671
:10135000E06D00F0100000287ED1002EFCD1E06D81
:1013600020F4807040F00200E065206804F07DF811
:1013700088BB2068B0F1A04F03D072492068884232
:1013800001D1714800E071486F4988420AD14FF09D
:10139000A04004F06AF881466A4804F066F849EA19
:1013A00000000DE06A4804F060F88146694804F0E6
:1013B0005CF849EA0009684804F057F849EA000077
:1013C00048B92268B2F1A04F03D05E4B22689A421E
:1013D00002D15D4A01E009E05C4A1046616882681A
:1013E00022F47C120A43826000BF00BF607FE16B81
:1013F00041EA4030E1680843A168084394F82410AA
:1014000040EA014594F82400012803D1208D401EB4
:1014100045EA4045E06A28B1A08D00F47870216B60
:10142000084305432068C0684C49084028432168A8
:10143000C8602068006920F04060616B0843216843
:101440000861206804F007F80746EEBBE7BB207F81
:10145000002141EA803100E064E094F8380041EA7C
:1014600040052068C06844F202018843284321688F
:10147000C860206980B12068006940F4803021682C
:1014800008612068D0F8C0006FF30D00216908439F
:101490002168C1F8C0000DE02068006920F48030A8
:1014A000216808612068D0F8C0006FF30D00216842
:1014B000C1F8C00094F84000012813D1606C40F0DE
:1014C0000101A06C084300E012E0E16C0843216DCB
:1014D00008432168096940F2FC729143084321687E
:1014E000086105E02068006920F0010021680861BA
:1014F0006069012809D12068006B20F00F00216A83
:10150000491E08432168086305E02068006B20F04D
:101510000F0021680863E06D20F0020040F0010038
:10152000E06505E0E06D40F01000E0654FF0010877
:101530004046C2E6C0FFFF5FC0FFFF7F10000020F3
:10154000400D030000010050000300500007005050
:101550000004005000050050000600500740F0FF56
:1015600010B59CB00446142117A8FEF78BFE542139
:1015700002A8FEF787FE2068B0F1A04F57D14FF4C4
:10158000004002908003139002A800F0ABFD08B168
:10159000FFF794FA55480068401C54490860084613
:1015A000006801280DD100BF5148C06C40F40050C4
:1015B0004F49C8640846C06C00F40050019000BF59
:1015C00000BF00BF4A48C06C40F002004849C864F0
:1015D0000846C06C00F00200019000BF00BF4FF44D
:1015E000A0401790032018900020199017A9414897
:1015F00000F018FB40484149086005204860002180
:101600003E488160C16080210161490041618900DB
:1016100081612021C1610021016200F025FA08B139
:10162000FFF74CFA00BF3548606584625BE03449DF
:101630002068884257D1C00102908003139002A80D
:1016400000F050FD08B1FFF739FA28480068401C47
:10165000264908600846006801280DD100BF2448CB
:10166000C06C40F400502249C8640846C06C00F4C5
:101670000050019000BF00BF00BF1D48C06C40F08B
:1016800002001B49C8640846C06C00F002000190CB
:1016900000BF00BF4FF400401790032018900020B7
:1016A000199017A9134800F0BDFA134814301549D2
:1016B000086024204860002112488160C1608021B8
:1016C000016149004161890081612021C1610021DE
:1016D000016200F0C9F908B1FFF7F0F900BF09484D
:1016E0006065846200BF1CB010BD000000000020D7
:1016F000001002400004004808000240840100205D
:1017000000010050E40100202DE9F04104460F469D
:1017100090462168B1F1A04F03D0484A2168914218
:1017200001D1474900E04749084603F086FE0646D6
:10173000206803F0A9FE00287CD100BF94F858006F
:10174000012802D10220BDE8F081012084F8580070
:1017500000BF3D492068884201D1012000E00020FF
:1017600020B91EB1052E01D0092E5DD12046FFF70C
:10177000BFF80546002D52D1E06D40F60161884367
:1017800040F48070E0652D492068884202D14FF016
:10179000A04006E02D492068884201D12C4800E095
:1017A00020682168884200D01EB9E06D20F48010C6
:1017B000E065E06D00F4805020B1206E20F006005E
:1017C000206601E0002020662248616DC862224840
:1017D000616D08632148616D48631C2021680860C1
:1017E00000BF002084F8580000BF2068406840F027
:1017F0001000216848602068C06840F0010021683E
:10180000C860226802F1400143463A46606D00F02C
:1018100093F90546206803F04BFE0CE00AE000BF98
:10182000002084F8580006E0012500BF002084F85D
:10183000580000E00225284685E70000000100501E
:101840000003005000070050000600500005005043
:10185000000400509F0700084F08000831080008E6
:101860000146002091F82520022A03D00422CA63F1
:10187000012027E00A68126822F00E020B681A6045
:101880008A6C126822F480728B6C1A600A68126883
:1018900022F001020B681A6091F8442002F01F0345
:1018A00001229A400B6C5A60D1E913325A604A6D9A
:1018B00042B14A6D126822F480724B6D1A60D1E910
:1018C00016325A60012281F8252000BF002281F8DB
:1018D000242000BF704770B50446002594F8250009
:1018E00002280BD00420E063012084F8250000BF0B
:1018F000002084F8240000BF012534E0206800683F
:1019000020F00E00216808602068006820F00100C7
:1019100021680860A06C006820F48070A16C0860E9
:1019200094F8440000F01F0101208840216C4860B9
:10193000D4E913104860606D40B1606D006820F418
:101940008070616D0860D4E916104860012084F849
:10195000250000BF002084F8240000BFA06B10B158
:101960002046A16B8847284670BD70B50446206CA0
:1019700005682068066894F8440000F01F01042000
:1019800088402840E0B106F00400C8B12068006833
:1019900000F0200028B92068006820F004002168C9
:1019A000086094F8440000F01F0104208840216C76
:1019B0004860206B002856D02046216B884752E0B3
:1019C00094F8440000F01F0102208840284018B31A
:1019D00006F0020000B32068006800F0200040B963
:1019E0002068006820F00A0021680860012084F85F
:1019F000250094F8440000F01F0102208840216C6B
:101A0000486000BF002084F8240000BFE06A50B3A3
:101A10002046E16A884726E094F8440000F01F0160
:101A2000082088402840F0B106F00800D8B12068AE
:101A3000006820F00E002168086094F8440000F06F
:101A40001F0101208840216C48600120E06384F878
:101A5000250000BF002084F8240000BF606B10B197
:101A60002046616B884770BD70B504460CB90120F3
:101A700070BD2F49206888420BD22E492068401A39
:101A80001421B0FBF1F0800060642A48083820641B
:101A90000AE027492068401A1421B0FBF1F08000C9
:101AA0006064234808382064022084F825002068F8
:101AB000056847F6F0708543D4E9020108432169BF
:101AC000084361690843A1690843E1690843216A41
:101AD00008430543206805602046FEF78BFFA06899
:101AE000B0F5804F01D1002060602079A16C0860C2
:101AF000D4E913104860606860B16068042809D8B0
:101B00002046FEF799FF0020616D0860D4E91610A9
:101B1000486003E000206065A065E0650020E063A8
:101B2000012084F82500002084F8240000BF9FE7EE
:101B300008040240080002402DE9F04104460D4629
:101B400016461F464FF0000800BF94F824000128F5
:101B500002D10220BDE8F081012084F8240000BFFA
:101B600094F8250001283FD1022084F825000020A8
:101B7000E0632068006820F00100216808603B46AF
:101B8000324629462046FEF769FF206B30B12068B7
:101B9000006840F00E00216808600BE020680068D3
:101BA00020F00400216808602068006840F00A0006
:101BB00021680860A06C006800F4803028B1A06C37
:101BC000006840F48070A16C0860606D28B1606DA1
:101BD000006840F48070616D08602068006840F023
:101BE00001002168086006E000BF002084F824009E
:101BF00000BF4FF002084046ACE7000070B5044655
:101C000000F004F906462546681C10B10448006837
:101C1000054400BF00F0FAF8801BA842FAD370BD5B
:101C20000C00002078B502460B460021CAE00126D0
:101C30008E401D6805EA0604002C73D01D7905F05E
:101C40000305012D04D01D7905F00305022D13D1E4
:101C500090684E000325B540A8434E00DD68B540AE
:101C600028439060506801258D40A8431D79C5F335
:101C700000158D40284350601D7905F00305032DA4
:101C800009D0D0684E000325B540A8434E009D689A
:101C9000B5402843D0601D7905F00305022D13D10E
:101CA000CE0802F1200555F826004D07EE0E0F254F
:101CB000B540A8434E07F60E1D69B5402843CE082F
:101CC00002F1200545F8260010684E000325B540B6
:101CD000A8431D7905F003054E00B5402843106068
:101CE0005D6805F44035002D6BD000BF384D2D6E7A
:101CF00045F00105364E356635462D6E05F0010579
:101D0000009500BF00BF4FEAB6358E0855F8260093
:101D10008D072E0F0F25B540A843B2F1904F02D189
:101D200000251AE04DE02B4DAA4201D1012514E017
:101D3000294DAA4201D102250FE0284DAA4201D126
:101D400003250AE0264DAA4201D1042505E0254DD0
:101D5000AA4201D1052500E006258E07360FB540C1
:101D60002843214D8E0845F82600204D2868A043C1
:101D70005D6805F4801505B120431C4D28602D1DBC
:101D80002868A0435D6805F4001505B12043174D90
:101D90002D1D2860154D2D1F2868A0435D6805F492
:101DA000003505B12043114D2D1F28602D1F2868D7
:101DB000A0435D6805F4803505B120430B4D083D17
:101DC0002860491C1D68CD40002D7FF430AF78BDE0
:101DD000001002400004004800080048000C0048C1
:101DE00000100048001400480800014008040140A9
:101DF000024613690B400BB1012000E00020704740
:101E00000AB1816100E0816270470000014800680A
:101E10007047000004000020034800680349096877
:101E20000844014908607047040000200C000020AD
:101E300010B50024032000F0ABF80F2000F008F8E4
:101E400008B1012401E000F02FF8204610BD000089
:101E500070B50446002511480068D8B10F480068E5
:101E60004FF47A71B1FBF0F00D490968B1FBF0F65F
:101E7000304601F0A9FA58B9102C07D200222146A9
:101E8000501E00F047F80748046004E0012502E016
:101E9000012500E00125284670BD00000C0000204F
:101EA000100000200800002008B500BF0E48006E9A
:101EB00040F001000C4908660846006E00F0010081
:101EC000009000BF00BF00BF0846806D40F080500A
:101ED00088650846806D00F08050009000BF00BF0C
:101EE00000F0F6F808BD0000001002400146084668
:101EF00000280DDB00BF00BF00F01F0301229A4045
:101F000043099B0003F1E023C3F8002100BF00BF99
:101F100000BF70472DE9F05F80460D46164605F07C
:101F2000A3FC074639462A46334601F00700C0F1B4
:101F3000070ABAF1040F02D94FF0040A01E0C0F118
:101F4000070AD14600F1040ABAF1070F02D24FF096
:101F5000000A01E0A0F1030AD4464FF0010A0AFA90
:101F600009FAAAF1010A0AEA020A0AFA0CFA4FF07F
:101F7000010B0BFA0CFBABF1010B0BEA030B4AEA6A
:101F80000B042146404605F077FCBDE8F09F0000B9
:101F900000BF00F00702064B19684FF6FF03194017
:101FA000044B0B4343EA0221014B196000BF704709
:101FB0000CED00E00000FA0502468ABB41480068CB
:101FC00000F4C060B0F5806F2BD13E4880300068CF
:101FD00020F480703B4BC3F880001846006820F462
:101FE000C06040F4007018603748006832235843DE
:101FF000364BB0FBF3F0411C00E0491E314840690C
:1020000000F48060B0F5806F01D10029F5D12D4832
:10201000406900F48060B0F5806F51D103207047B3
:1020200008E028488030006820F48070254BC3F811
:10203000800045E0B2F5007F3AD12248006800F404
:10204000C060B0F5806F2AD11E488030006840F42F
:1020500080701C4BC3F880001846006820F4C060F4
:1020600040F4007018601848006832235843174B3A
:10207000B0FBF3F0411C00E0491E1248406900F437
:102080008060B0F5806F01D10029F5D10D4840691D
:1020900000F48060B0F5806F12D10320BFE70948DB
:1020A0008030006840F48070064BC3F8800007E081
:1020B0000448006820F4C06040F48060014B186060
:1020C0000020ACE7007000401000002040420F00EC
:1020D0000348806840F480400149886070470000F0
:1020E000007000402DE9F84304460027B8462068F8
:1020F00000F40020B0F5002F73D1B946FD48806D83
:1021000000F0805078B900BFFA48806D40F08050F0
:10211000F84988650846806D00F08050009000BF47
:1021200000BF4FF00109F448006840F48070F249A4
:102130000860FFF76BFE064606E0FFF767FE801BB0
:10214000022801D9032705E0EB48006800F48070FD
:102150000028F2D000BF002F46D1E648903000683A
:1021600000F44075CDB1206DA84216D0E148903002
:10217000006820F44075DF48D0F8900040F48030CB
:10218000DC49C1F890000846D0F8900020F4803077
:10219000C1F890000846C0F8905005F00100A0B1C9
:1021A000FFF734FE064608E0FFF730FE801B41F2E1
:1021B0008831884201D9032706E0CE489030006874
:1021C00000F002000028EFD000BF5FB9C94890308E
:1021D000006820F44070216D0843C649C1F89000A2
:1021E00003E00CE0B84600E0B846B9F1010F05D1B4
:1021F000C048806D20F08050BE49886500BF2078BF
:1022000000F0010048B1BB488830006820F00300AE
:1022100061680843B749C1F88800207800F00200DF
:10222000022809D1B3488830006820F00C00A1686A
:102230000843B049C1F88800207800F00400042861
:1022400009D1AC488830006820F03000E1680843CC
:10225000A849C1F88800207800F00800082809D1B2
:10226000A4488830006820F0C00021690843A149D3
:10227000C1F88800207800F01000102809D19D488E
:102280008830006820F44070616908439949C1F8BA
:102290008800207800F02000202809D19548883057
:1022A000006820F44060A16908439249C1F88800A1
:1022B000207800F04000402809D18E48883000681E
:1022C00020F44050E16908438A49C1F88800207829
:1022D00000F08000802809D186488830006820F40A
:1022E0004040216A08438349C1F88800208800F4EF
:1022F0008070B0F5807F09D17E488830006820F476
:102300004030616A08437B49C1F88800206800F4C6
:102310000030B0F5003F09D176489C30006820F0CD
:102320000300A16A08437349C1F89C00208800F4A7
:102330000070B0F5007F09D16E488830006820F445
:102340004020E16A08436B49C1F88800208800F406
:102350008060B0F5806F13D166488830006820F443
:102360004010216B0843634988310860206BB0F549
:10237000801F05D15F48C06840F480105D49C86087
:10238000208800F40060B0F5006F13D15948883000
:10239000006820F44000616B0843564988310860AA
:1023A000606BB0F5800F05D15248C06840F48010D2
:1023B0005049C860208800F48050B0F5805F13D188
:1023C0004C488830006820F04070A16B08434949B0
:1023D00088310860A06BB0F1807F05D14548C068A6
:1023E00040F480104349C860208800F40050B0F5E4
:1023F000005F13D13F488830006820F04060E16BF7
:1024000008433C4988310860E06BB0F1006F05D1AA
:102410003848C06840F480103649C860208800F40D
:102420008040B0F5804F13D132488830006820F0EA
:102430004060216C08432F4988310860206CB0F15E
:10244000006F05D12B48C06840F480102949C8604E
:10245000208800F40040B0F5004F13D125488830A3
:10246000006820F04050616C0843224988310860C0
:10247000606CB0F1805F05D11E48C06840F48030C8
:102480001C49C860206800F48030B0F5803F13D14B
:1024900018488830006820F04040A16C0843154976
:1024A00088310860A06CB0F1804F05D11148C06838
:1024B00040F480300F49C860206800F48020B0F5F7
:1024C000802F13D10B489C30006820F44010E16C41
:1024D000084308499C310860E06CB0F5001F05D145
:1024E0000448C06840F480100249C8604046BDE816
:1024F000F883000000100240007000402DE9F04118
:1025000004460D464FF0000814B90120BDE8F081E3
:102510007D48006800F00F00A8420ED27A4800689B
:1025200020F00F002843784908600846006800F052
:102530000F00A84201D00120E8E7207800F0010058
:10254000002864D06068032823D17048006800F038
:10255000007008B90120D9E703F080FB06466C48FB
:10256000864237D96948806800F0F00030B12078A1
:1025700000F0020002282DD1A06858BB6348806893
:1025800020F0F00040F08000604988604FF0800843
:1025900020E06068022806D15C48006800F4003042
:1025A00040B90120B2E75948006800F4806008B9DA
:1025B0000120ABE700F0DEF806465548864209D90F
:1025C0005248806820F0F00040F080004F49886059
:1025D0004FF080084D48806820F003006168084390
:1025E0004A498860FFF712FC074608E0FFF70EFC37
:1025F000C01B41F28831884201D9032086E7434855
:10260000806800F00C006168B0EB810FEED120789B
:1026100000F00200022820D1207800F004000428F5
:1026200005D13A48806840F4E060384988602078F5
:1026300000F00800082807D13448806820F4605072
:1026400040F4E060314988603048806820F0F00054
:10265000A16808432D49886008E0B8F1800F05D1D2
:102660002A48806820F0F0002849886026480068E1
:1026700000F00F00A84219D92348006820F00F008D
:10268000284321490860FFF7C1FB074608E0FFF730
:10269000BDFBC01B41F28831884201D9032035E7D8
:1026A0001948006800F00F00A842F0D1207800F02F
:1026B0000400042807D11548806820F4E060E16830
:1026C000084312498860207800F00800082808D1E3
:1026D0000E48806820F46050216940EAC1000B492F
:1026E000886000F047F809498968C1F30311094A75
:1026F000515C01F01F01C8400749086007480068A5
:10270000FFF7A6FB02E70000002002400010024095
:1027100000B4C404A48A00081000002008000020AF
:1027200001480068704700001000002000B5FFF766
:10273000F7FF05498968C1F30221044A515C01F0A1
:102740001F01C84000BD000000100240B48A00080C
:1027500000B5FFF7E5FF05498968C1F3C221044AC6
:10276000515C01F01F01C84000BD00000010024094
:10277000B48A000870B5224DAD6805F00C05042D33
:1027800001D120483AE01E4DAD6805F00C05082D3A
:1027900001D11D4832E01A4DAD6805F00C050C2D35
:1027A0002BD1174DED6805F00304154DED68C5F309
:1027B00003156A1C022C0CD0032C09D1124DB5FB59
:1027C000F2F50F4EF668C6F3062605FB06F10AE0A1
:1027D00000BF0C4DB5FBF2F5094EF668C6F30626B0
:1027E00005FB06F100BF00BF054DED68C5F341656F
:1027F0006D1C6B00B1FBF3F000E0002070BD000029
:10280000001002400024F40000366E012DE9F84368
:10281000044614B90120BDE8F883207800F00100D7
:10282000002865D0FC48806800F00C07FA48C068B2
:1028300000F003060C2F01D1032E01D0082F0AD17E
:10284000F548006800F40030002851D06068002886
:102850004ED10120DFE700BF6068B0F5803F06D1B0
:10286000ED48006840F48030EB4908601AE0606889
:10287000B0F5A02F0BD1E848006840F48020E6496D
:1028800008600846006840F4803008600AE0E248CA
:10289000006820F48030E04908600846006820F4B1
:1028A0008020086000BF606888B1FFF7AFFA054676
:1028B00006E0FFF7ABFA401B642801D90320AAE722
:1028C000D548006800F400300028F2D010E0FFF78F
:1028D0009DFA054606E0FFF799FA401B642801D9E6
:1028E000032098E7CC48006800F400300028F2D1BB
:1028F000207800F00200022860D1C748806800F00C
:102900000C07C548C06800F003060C2F01D1022E49
:1029100001D0042F18D1C048006800F4806018B1BD
:10292000E06808B9012076E7BB48406820F0FE4027
:10293000217C40EA0160B8494860B8480068FFF768
:1029400087FA18B3012066E7E06800B3B248006870
:1029500040F48070B0490860FFF758FA054606E079
:10296000FFF754FA401B022801D9032053E7AA4875
:10297000006800F480600028F2D0A748406820F08A
:10298000FE40217C40EA0160A349486016E0A2486D
:10299000006820F48070A0490860FFF737FA054608
:1029A00006E0FFF733FA401B022801D9032032E783
:1029B0009948006800F480600028F2D1207800F087
:1029C0000800082836D16069D0B193489430006877
:1029D00040F001009049C1F89400FFF717FA05464E
:1029E00006E0FFF713FA401B022801D9032012E783
:1029F00089489430006800F002000028F1D019E006
:102A000085489430006820F001008349C1F89400A3
:102A1000FFF7FCF9054606E0FFF7F8F9401B02282E
:102A200001D90320F7E67C489430006800F00200EA
:102A30000028F1D1207800F00400042872D14FF072
:102A400000087548806D012121EA107078B100BF3F
:102A50007148806D40F080506F4988650846806DF0
:102A600000F08050009000BF00BF4FF001086C489C
:102A7000006800F48070B0B96948006840F4807064
:102A800067490860FFF7C2F9054606E0FFF7BEF99F
:102A9000401B022801D90320BDE66148006800F40C
:102AA00080700028F2D000BFA068012808D15A48E1
:102AB0009030006840F001005749C1F8900021E0D3
:102AC000A06805280FD154489030006840F00400F9
:102AD0005149C1F890000846D0F8900040F001003C
:102AE000C1F890000EE04C489030006820F00100E2
:102AF0004949C1F890000846D0F8900020F0040041
:102B0000C1F8900000BFA068A8B1FFF77FF90546A3
:102B100009E0FFF77BF9401B41F28831884202D976
:102B2000032078E625E03C489030006800F0020081
:102B30000028EED013E0FFF769F9054608E0FFF73B
:102B400065F9401B41F28831884201D9032062E6D1
:102B500031489030006800F002000028EFD1B8F151
:102B6000010F05D12C48806D20F080502A498865DE
:102B700000BF207800F02000202836D1A069D0B115
:102B800025489830006840F001002349C1F89800BA
:102B9000FFF73CF9054606E0FFF738F9401B02282D
:102BA00001D9032037E61C489830006800F0020085
:102BB0000028F1D019E018489830006820F0010092
:102BC0001549C1F89800FFF721F9054606E0FFF71F
:102BD0001DF9401B022801D903201CE60E4898303D
:102BE000006800F002000028F1D1E069002860D000
:102BF0000948806800F00C000C287AD0E0690228AF
:102C000058D10548006820F0807003490860FFF73C
:102C1000FDF805460DE0000000100240080000200D
:102C200000700040FFF7F2F8401B022801D9032092
:102C3000F1E54A48006800F000700028F2D1D4E9BC
:102C40000810401E41EA0011A06A41EA0021208ECE
:102C50000122C2EB500041EA40513420005DC2EB3A
:102C6000500041EA40612C20005D41EAC0603B49D0
:102C7000C9683B4A114008433849C86008460068A3
:102C800040F0807008600846C06840F08070C860FE
:102C9000FFF7BCF8054606E0FFF7B8F8401B02282E
:102CA00001D90320B7E52D48006800F00070002826
:102CB000F2D051E02948006820F080702749086070
:102CC000FFF7A4F8054606E0FFF7A0F8401B02282E
:102CD00001D903209FE52148006800F0007000281A
:102CE000F2D11E48C0681F4908401C49C86033E043
:102CF000FFE7E069012800D18DE51848C66806F0B5
:102D00000301206A814225D106F0F001606A401E6D
:102D1000B1EB001F1ED106F4FE41A06AB1EB002FFB
:102D200018D106F078412C20005DB1EBC06F11D1B5
:102D300006F4C001208E0122C2EB5000B1EB405FCF
:102D400008D106F0C0613420005DC2EB5000B1EB49
:102D5000406F01D001205EE500205CE500100240DC
:102D60000C809F01FCFFEEFE10B504460948007878
:102D7000401C08490870087800EBD0714910A0EB9E
:102D80004101044A117010460178022005F08AFDC5
:102D900010BD00008700002010B5044609480078E7
:102DA000401C08490870087800EBD0714910A0EB6E
:102DB0004101044A117010460178012005F072FDAE
:102DC00010BD00008600002070B504462068456DE7
:102DD00005F0010040B101202168C86540040A499E
:102DE00008602046FFF7D8FF05F0020040B102203E
:102DF0002168C8650004044908602046FFF7B4FF55
:102E0000012084F8250070BD1404014070B505460A
:102E10000B461646286840680E4900EA0104200C5B
:102E2000D870C4F30420587004F03F009870C4F3C5
:102E3000423018705EB9D87803F0DCF8D870587852
:102E400003F0D8F85870987803F0D4F89870002000
:102E500070BD00003FFFFF0070B504460B461646EC
:102E600020688068586020680069C0F30E00986090
:102E7000206800680E4900EA0105C5F30540187096
:102E8000C5F30620587005F07F009870A80DD87023
:102E90005EB9187803F0AEF81870587803F0AAF805
:102EA0005870987803F0A6F89870002070BD000064
:102EB0007F7F7F0070B504460125002C4FD094F829
:102EC000250028B9002084F82400204600F04CF8A2
:102ED000022084F825002068C068C0F30010002894
:102EE00038D100BFCA202168486253202168486257
:102EF00000BF204603F096F80546CDB920688069EA
:102F00001849084021688861216960680843A169FF
:102F10000843216889690843216888612089E1683C
:102F200041EA004021680861204603F0A0F8054608
:102F30005DB9D4E9071008436169084321688969CC
:102F400021F0604108432168886100BFFF202168AB
:102F5000486200E0002515B9012084F825002846C4
:102F600070BD0000BFFF8FFB10B596B00446542122
:102F700001A8FDF787F917492068884227D14FF447
:102F8000002001908012159001A8FFF7ABF808B15E
:102F9000FDF794FD1048006840F400400E49903958
:102FA000C1F8900000BF0846806D40F480608865DD
:102FB0000846806D00F48060009000BF00BF0022D2
:102FC00011462920FEF7A6FF2920FEF78FFF16B035
:102FD00010BD000000280040901002402DE9F0478D
:102FE00004460D46914600BF94F82400012802D102
:102FF0000220BDE8F087012084F8240000BF0220F1
:1030000084F82500B9F1000F26D12068806900F00E
:10301000400000B102E00020E87000BF287802F014
:10302000F3FF4FEA004A687802F0EEFF4AEA002A0E
:10303000A87802F0E9FF4AEA000AE8784AEA805AEA
:1030400095F8200002F0E0FF4AEA0060E9690843D1
:10305000696940EA01071BE02068806900F04000D0
:1030600000B102E00020E87000BF28780004697811
:1030700040EA0120A9780843E97840EA815095F8B0
:10308000201040EA0160E9690843696940EA0107E4
:10309000A969686840EA010800BFCA20216848623F
:1030A00053202168486200BF686AB0F5807F36D13E
:1030B0002068806920F48850216888610120216897
:1030C000C865400440490860FEF7A0FE064614E0CB
:1030D000FEF79CFE801BB0F57A7F0ED900BFFF2063
:1030E0002168486200BF032084F8250000BF00204B
:1030F00084F8240000BF03207BE72068C06800F04C
:1031000001000028E4D0206807642068C0F84480EB
:103110002068806940F488502168886135E0206823
:10312000806920F408502168886102202168C86500
:10313000000425490860FEF769FE064614E0FEF724
:1031400065FE801BB0F57A7F0ED900BFFF20216895
:10315000486200BF032084F8250000BF002084F8E7
:10316000240000BF032044E72068C06800F002008C
:103170000028E4D0206887642068C0F84C8020686C
:10318000806940F40850216888610F48143800684D
:1031900040F400300C49143908600B480C380068C2
:1031A00040F4003008490C39086000BFFF20216856
:1031B000486200BF012084F8250000BF002084F889
:1031C000240000BF00BF14E7140401402DE9F047BC
:1031D00005460C46174600BF95F82400012802D189
:1031E0000220BDE8F087012085F8240000BF0220FE
:1031F00085F825004FB9607800F01000102804D140
:10320000607800F0EF000A30607097B9E07802F063
:10321000FBFE4FEA0049607802F0F6FE49EA002919
:10322000A07802F0F1FE49EA0009207849EA403826
:1032300009E0E0780004617840EA0120A1780843C1
:10324000217840EA413800BFCA20296848625320EB
:103250002968486200BF284602F0E4FE064646B9E7
:103260000C4808EA000029684860284602F0FFFE82
:10327000064600BFFF202968486200BF16B901203A
:1032800085F8250000BF002085F8240000BF3046E7
:10329000A7E700003FFFFF002DE9F04704460D4679
:1032A000904600BF94F82400012802D10220BDE816
:1032B000F087012084F8240000BF022084F8250054
:1032C00000BFCA202168486253202168486200BFBD
:1032D000204602F0A7FE0646002E47D1B8F1000FA7
:1032E0001BD12068806900F0400000B102E000209E
:1032F000E87000BF287802F087FE4FEA004968783E
:1033000002F082FE49EA0029A87802F07DFE49EA2F
:103310000009E87849EA805712E02068806900F0E7
:10332000400000B102E00020E87000BF28780004EF
:10333000697840EA0120A9780843E97840EA815792
:1033400012483840216808602068806920F4802095
:1033500021688861D5E90301084321688969084328
:1033600021688861204602F082FE064600BFFF20E9
:103370002168486200BF16B9012084F8250000BF0B
:10338000002084F8240000BF304690E77F7F7F0054
:1033900070B504460B482168C860FEF737FD054646
:1033A00007E0FEF733FD401BB0F57A7F01D903201B
:1033B00070BD2068C06800F020000028F1D0002017
:1033C000F6E700005F00010070B504462546681E60
:1033D000B0F1807F01D301200FE0681E4FF0E021A3
:1033E00048610F214FF0FF3004F046FA00204FF003
:1033F000E021886107200861002070BD7047704798
:103400007047000010B50346002200BF93F83C004F
:10341000012801D1022010BD012083F83C0000BF2B
:1034200022F0FF00CC6840EA040222F440708C686D
:1034300040EA040222F480604C6840EA040222F46C
:1034400000600C6840EA040222F480500C6940EAF3
:10345000040222F400504C6940EA040222F4804045
:103460000C6B40EA040222F470200C8B40EA044208
:1034700022F08050CC6940EA0402144C1868A04243
:1034800007D0134C1868A04203D0124C1868A04211
:1034900013D122F470000C8D40EA045222F08070A7
:1034A0000C6A40EA040222F000704C6A40EA04020E
:1034B00022F00050CC6A40EA04021868426400BF5F
:1034C000002083F83C0000BF00BFA4E7002C0140AF
:1034D00000340140005001407047704770470000C1
:1034E00030B502460B4600BF92F83C00012801D1DE
:1034F000022030BD012082F83C0000BF022082F88B
:103500003D001068416810688468234D1068A84227
:1035100007D0224D1068A84203D0214D1068A84260
:1035200003D121F47001586801431E480140186816
:10353000014310684160184D1068A8421BD0106804
:10354000B0F1804F17D0184D1068A84213D0174D16
:103550001068A8420FD0164D1068A8420BD00F4D2E
:103560001068A84207D0134D1068A84203D00C4D34
:103570001068A84205D124F08004986804431068BC
:103580008460012082F83D0000BF002082F83C00EA
:1035900000BF00BFADE70000002C01400034014037
:1035A000005001408FFFFFFD000400400008004074
:1035B000000C004000400140704710B504460CB9B3
:1035C000012010BD94F83D0028B9002084F83C008B
:1035D000204600F029F8022084F83D00211D2068D3
:1035E00002F048FE012084F8480000BF84F83E0045
:1035F00001213F2001554020015541200155422025
:1036000001554320015500BF00BF012084F844004C
:1036100045200155462001554720015500BF012096
:1036200084F83D000020CCE710B586B00446142194
:1036300001A8FCF727FE2068B0F1804F32D100BF0F
:103640005C48806D40F001005A4988650846806DED
:1036500000F00100009000BF00BF00BF0846C06C32
:1036600040F00100C8640846C06C00F00100009002
:1036700000BF00BF4FF400400190022002900020E4
:10368000039004900120059001A94FF09040FEF7AF
:10369000C9FA002211461C20FEF73CFC1C20FEF754
:1036A00025FC84E044492068884216D100BF414887
:1036B000806D40F020003F4988650846806D00F02D
:1036C0002000009000BF00BF002211463720FEF707
:1036D00021FC3720FEF70AFC69E03849206888425F
:1036E00016D100BF3348006E40F48030314908667F
:1036F0000846006E00F48030009000BF00BF00223A
:1037000011461820FEF706FC1820FEF7EFFB4EE0EE
:103710002B492068884230D100BF2648006E40F413
:103720000030244908660846006E00F4003000901E
:1037300000BF00BF00BF0846C06C40F00200C86474
:103740000846C06C00F00200009000BF00BF1020CF
:103750000190022002900020039004900120059027
:1037600001A91848FEF75EFA002211461920FEF75B
:10377000D1FB1920FEF7BAFB19E0134920688842F3
:1037800015D100BF0B48006E40F48020094908663F
:103790000846006E00F48020009000BF00BF0022A9
:1037A00011461A20FEF7B6FB1A20FEF79FFB06B063
:1037B00010BD000000100240001400400040014015
:1037C000004401400004004800480140014691F8CF
:1037D0003D00012801D001207047022081F83D0002
:1037E0000868C06840F001000B68D8601C4B08688E
:1037F00098421BD00868B0F1804F17D0194B086869
:10380000984213D0184B086898420FD0174B08689D
:1038100098420BD0164B0868984207D0154B0868A1
:10382000984203D0144B0868984210D10868806809
:10383000124B00EA0302062A0FD0B2F5803F0CD0EB
:103840000868006840F001000B68186005E008682F
:10385000006840F001000B6818600020BCE7000021
:10386000002C01400004004000080040000C004013
:1038700000340140004001400050014007000100B9
:1038800001460868C06820F001000A68D06000BFE7
:103890000868006A41F21112104050B90868006AC5
:1038A0009200104028B90868006820F001000A68FA
:1038B000106000BF012081F83D000020704700002B
:1038C0002DE9F04104460D46002700BF94F83C0066
:1038D000012802D10220BDE8F081012084F83C00DB
:1038E00000BF022084F83D002068866842480640F8
:1038F00026F47F46206886602868B0F5005F33D0E4
:1039000015DC402851D008DC002858D0102857D0AA
:10391000202856D0302862D154E0502831D0602879
:1039200039D0702813D0B0F5805F58D10EE000F088
:103930000F01002953D10011A0F5803008284ED284
:10394000DFE800F0414243444546474849E0D5E9B5
:1039500002136A68206802F016FD2068866846F047
:103960007706206886603CE0D5E902136A68206823
:1039700002F009FD2068806840F48040216888607A
:103980002FE0EA686968206802F016FF502120687D
:1039900002F004FD25E0EA686968206802F068FF2B
:1039A0006021206802F0FAFC1BE0EA686968206880
:1039B00002F002FF4021206802F0F0FC11E000BF9D
:1039C00000BF00BF00BF00BF00BF00BF00BF00BFFF
:1039D00000BF00BF2968206802F0E0FC01E0012779
:1039E00000BF00BF012084F83D0000BF002084F824
:1039F0003C0000BF38466EE788FFCEFF10B5044696
:103A00002068B0F1804F3FD1207F012806D10021EE
:103A1000204600F0E3FD4E49086098E0207F022830
:103A200031D10421204600F0D9FD4A490860002028
:103A300049490968486247480068401C00EB80001B
:103A4000000100EE100AB8EE400ADFED440A80EEF5
:103A5000801A434880ED001A3D480068401C00EE83
:103A6000100AB8EE400ADFED3F0A60EE200A39483E
:103A70000068401C00EE100AB8EE400A80EE801A82
:103A8000394880ED001A62E03849206888421BD12D
:103A90000021204600F0A2FD35490860002035498C
:103AA0000968486232480068401C00EB8000000151
:103AB00000EE100AB8EE400ADFED280A80EE801A08
:103AC0002D4880ED001A42E02C49206888423ED102
:103AD000207F012806D10021204600F07FFD2849E3
:103AE000086034E0207F022831D10421204600F014
:103AF00075FD24490860002023490968486221486F
:103B00000068401C00EB8000000100EE100AB8EED7
:103B1000400ADFED120A80EE801A1C4880ED001A80
:103B200017480068401C00EE100AB8EE400ADFEDAE
:103B30000D0A60EE200A13480068401C00EE100ACF
:103B4000B8EE400A80EE801A114880ED001A10BDD0
:103B5000880000208C0000206C0200208096984C89
:103B6000340000200000C84238000020004401401A
:103B7000900000209C0300203C0000200004004036
:103B80009400002098000020B8020020400000208F
:103B9000440000202DE9F04104460D46164600275A
:103BA00000BF94F83C00012802D10220BDE8F0815A
:103BB000012084F83C0000BF96B9EB68D5E90012FB
:103BC000206802F00DFE2068806920F00C0021685A
:103BD000886120688069A96808432168886141E09C
:103BE000042E13D1EB68D5E90012206802F054FED0
:103BF0002068806920F440602168886120688069BD
:103C0000A96840EA0120216888612BE0082E12D1C2
:103C1000EB68D5E90012206802F05BFE2068C069FD
:103C200020F00C002168C8612068C069A9680843B9
:103C30002168C86116E00C2E13D1EB68D5E900129B
:103C4000206802F062FE2068C06920F440602168AC
:103C5000C8612068C069A96840EA01202168C8617C
:103C600000E0012700BF002084F83C0000BF384678
:103C70009CE710B504460CB9012010BD94F83D0036
:103C800028B9002084F83C00204600F029F80220E2
:103C900084F83D00211D206802F0ECFA012084F830
:103CA000480000BF84F83E0001213F20015540201C
:103CB000015541200155422001554320015500BFC7
:103CC00000BF012084F844004520015546200155DD
:103CD0004720015500BF012084F83D000020CCE7BB
:103CE00010B586B00446142101A8FCF7CBFA1B4995
:103CF0002068884230D100BF1948806D40F0020032
:103D0000174988650846806D00F00200009000BFEA
:103D100000BF00BF0846C06C40F00100C864084600
:103D2000C06C00F00100009000BF00BF4020019077
:103D3000022002900020039004900220059001A927
:103D40004FF09040FDF76EFF002211461D20FEF758
:103D5000E1F81D20FEF7CAF806B010BD00040040CF
:103D6000001002402DE9F04304460D46002715B926
:103D700094F83E0015E0042D02D13F20005D10E0D4
:103D8000082D02D14020005D0BE00C2D02D1412016
:103D9000005D06E0102D02D14220005D01E04320CD
:103DA000005D804615B994F844000BE0042D02D163
:103DB0004520005D06E0082D02D14620005D01E0AF
:103DC0004720005D8146B8F1010F02D1B9F1010F22
:103DD00002D00120BDE8F0831DB9022084F83E0026
:103DE0001AE0042D03D102213F20015514E0082DD3
:103DF00003D10221402001550EE00C2D03D10221F8
:103E00004120015508E0102D03D102214220015527
:103E100002E00221432001551DB9022084F844002C
:103E20000EE0042D03D102214520015508E0082DA4
:103E300003D102214620015502E00221472001550D
:103E400035B1042D0BD0082D10D00C2D1CD114E051
:103E50002068C06840F002002168C86016E0206851
:103E6000C06840F004002168C8600FE02068C068A6
:103E700040F008002168C86008E02068C06840F091
:103E800010002168C86001E0012700BF00BFA7BB88
:103E900001222946206802F065FA1C492068884200
:103EA0001BD02068B0F1804F17D019492068884294
:103EB00013D01849206888420FD0174920688842DB
:103EC0000BD016492068884207D0154920688842DF
:103ED00003D014492068884210D1206880681249B4
:103EE00000EA0106062E0FD0B6F5803F0CD0206800
:103EF000006840F001002168086005E02068006863
:103F000040F0010021680860384663E7002C01405A
:103F10000004004000080040000C00400034014054
:103F200000400140005001400700010070B5044608
:103F30002068C6682068056905F00200022819D1CA
:103F400006F00200022815D1401F216808610120F7
:103F500020772068806900F0030018B12046FFF741
:103F60004DFD05E0204600F01FF9204600F00DFA57
:103F70000020207705F00400042819D106F0040081
:103F8000042815D1C04321680861022020772068E9
:103F9000806900F4407018B12046FFF72FFD05E05E
:103FA000204600F001F9204600F0EFF900202077CC
:103FB00005F00800082819D106F00800082815D1D6
:103FC000C04321680861042020772068C06900F0A0
:103FD000030018B12046FFF711FD05E0204600F070
:103FE000E3F8204600F0D1F90020207705F010001A
:103FF000102819D106F01000102815D1C0432168EF
:104000000861082020772068C06900F4407018B16A
:104010002046FFF7F3FC05E0204600F0C5F82046F7
:1040200000F0B3F90020207705F0010048B106F058
:10403000010030B16FF0010021680861204600F0F6
:1040400085FA05F08000802804D005F40050B0F512
:10405000005F0AD106F08000802806D16FF402507C
:10406000216808612046FFF7CAF905F48070B0F5B1
:10407000807F0AD106F08000802806D16FF480701E
:10408000216808612046FFF7B9F905F04000402893
:1040900009D106F04000402805D1C04321680861DD
:1040A000204600F0B4FA05F02000202809D106F0DF
:1040B0002000202805D1C043216808612046FFF771
:1040C0009FF905F48010B0F5801F0BD106F4801025
:1040D000B0F5801F06D16FF480102168086120467A
:1040E000FFF7FBF905F40010B0F5001F0BD106F443
:1040F0000010B0F5001F06D16FF4001021680861B0
:104100002046FFF7E9F905F48000B0F5800F0BD1E8
:1041100006F48000B0F5800F06D16FF480002168AE
:1041200008612046FFF7DAF905F40000B0F5000F4A
:104130000BD106F40000B0F5000F06D16FF40000BB
:10414000216808612046FFF737FA70BD10B586B0C8
:104150000446142101A8FCF795F81149206888420B
:104160001BD100BF0F48C06C40F001000D49C8646E
:104170000846C06C00F00100009000BF00BF802026
:1041800001900220029000200390049001200590ED
:1041900001A94FF09040FDF745FD06B010BD0000AD
:1041A000004801400010024070472DE9F0410446EC
:1041B0000D461646002700BF94F83C00012802D1A6
:1041C0000220BDE8F081012084F83C0000BF0C2EE5
:1041D00051D005DC4EB1042E1ED0082E7AD133E02A
:1041E000102E60D0142EF9D175E02946206802F017
:1041F000E1F82068806940F0080021688861206843
:10420000806920F00400216888612068806929693C
:1042100008432168886178E02946206802F028F97F
:104220002068806940F400602168886120688069A6
:1042300020F480602168886120688069296940EAEB
:1042400001202168886160E02946206802F074F945
:104250002068C06940F008002168C8612068C06912
:1042600020F004002168C8612068C06929690843FA
:104270002168C86149E02946206802F0BFF920683A
:10428000C06940F400602168C8612068C06920F4FA
:1042900080602168C8612068C069296940EA0120FE
:1042A0002168C86131E02946206802F00BFA2068D5
:1042B000006D40F00800216808652068006D20F05E
:1042C0000400216808652068006D29690843216899
:1042D00008651AE017E02946206802F02FFA2068E6
:1042E000006D40F40060216808652068006D20F4CE
:1042F0008060216808652068006D296940EA012016
:104300002168086501E0012700BF00BF00BF002051
:1043100084F83C0000BF384653E710B504460CB99A
:10432000012010BD94F83D0028B9002084F83C001D
:10433000204600F029F8022084F83D00211D206865
:1043400001F098FF012084F8480000BF84F83E0087
:1043500001213F20015540200155412001554220B7
:1043600001554320015500BF00BF012084F84400DF
:1043700045200155462001554720015500BF012029
:1043800084F83D000020CCE770477047F0B5044644
:104390000D46002715B994F83E0015E0042D02D112
:1043A0003F20005D10E0082D02D14020005D0BE0B1
:1043B0000C2D02D14120005D06E0102D02D14220DB
:1043C000005D01E04320005D012801D00120F0BD27
:1043D0001DB9022084F83E001AE0042D03D1022109
:1043E0003F20015514E0082D03D102214020015542
:1043F0000EE00C2D03D102214120015508E0102DC3
:1044000003D102214220015502E00221432001553F
:1044100035B1042D0BD0082D10D00C2D1CD114E07B
:104420002068C06840F002002168C86016E020687B
:10443000C06840F004002168C8600FE02068C068D0
:1044400040F008002168C86008E02068C06840F0BB
:1044500010002168C86001E0012700BF00BF002FE5
:104460005DD101222946206801F07CFF2D4920689A
:10447000884213D02C49206888420FD02B492068ED
:1044800088420BD02A492068884207D029492068F1
:10449000884203D028492068884201D1012000E0E9
:1044A000002028B12068406C40F400402168486436
:1044B0001C49206888421BD02068B0F1804F17D07B
:1044C0001E492068884213D01D49206888420FD0B9
:1044D0001C49206888420BD013492068884207D0C5
:1044E00012492068884203D013492068884210D1BD
:1044F00020688068144900EA0106062E0FD0B6F540
:10450000803F0CD02068006840F0010021680860FE
:1045100005E02068006840F0010021680860384626
:1045200055E70000002C01400034014000400140EC
:104530000044014000480140005001400004004098
:1045400000080040000C00400700010010B50446C0
:1045500018492068884211D117480068401C164944
:104560000860084600683221B0FBF1F201FB12003E
:10457000F0B903F0EFFD03F0C3FE19E00F49206826
:10458000884215D10E480078401C0D490870084635
:1045900000780A280CDB002008700A4801780AA07D
:1045A00003F03EF90020074908700B48FFF768F94F
:1045B00010BD0000001400409C000020004001409D
:1045C000730000207500002072785F6C656E743D8A
:1045D00025640D0A00000000500300200246002060
:1045E00031B1042907D0082908D00C290CD108E0E2
:1045F0001368586B09E01368986B06E01368D86B72
:1046000003E01368186C00E000BF00BF70477047FC
:10461000014600BF91F88400012801D102207047B3
:10462000012081F8840000BF2420C1F888000868B8
:1046300002680868006820F001000B68186022F02A
:10464000005200204866086802602020C1F88800F7
:1046500000BF002081F8840000BF00BFDFE7704783
:10466000704770B504460D4600BF94F884000128D9
:1046700001D1022070BD012084F8840000BF2420F5
:10468000C4F88800206806682068006820F00100EF
:10469000216808602068806820F0606028432168F5
:1046A0008860204602F050F9206806602020C4F897
:1046B000880000BF002084F8840000BF00BFD9E755
:1046C00070B504460D4600BF94F88400012801D15E
:1046D000022070BD012084F8840000BF2420C4F8AB
:1046E0008800206806682068006820F001002168C2
:1046F00008602068806820F0604028432168886056
:10470000204602F021F9206806602020C4F88800C5
:1047100000BF002084F8840000BF00BFD9E77047C5
:10472000704770472DE9F04704462068C569206846
:1047300006682068876840F60F0005EA0009B9F1AD
:10474000000F0FD105F0200060B106F0200010B975
:1047500007F0805030B1606F10B12046616F88471C
:10476000BDE8F087B9F1000F7ED0DF48384018B9B6
:10477000DE4830400028F7D005F0010058B106F4BB
:10478000807040B1012021680862D4F8900040F0A8
:104790000100C4F8900005F0020058B107F00100D4
:1047A00040B1022021680862D4F8900040F0040073
:1047B000C4F8900005F0040058B107F0010040B1C2
:1047C000042021680862D4F8900040F00200C4F888
:1047D000900005F0080070B106F0200010B9C24842
:1047E000384040B1082021680862D4F8900040F0B9
:1047F0000800C4F8900005F4006060B106F0806025
:1048000048B14FF4006021680862D4F8900040F08D
:104810002000C4F89000D4F89000002852D005F091
:10482000200050B106F0200010B907F0805020B1F0
:10483000606F10B12046616F8847D4F890A020685F
:10484000806800F04000402802D00AF0280070B3D1
:10485000204602F0A3F92068806800F0400040285C
:1048600026D100BF00BF00E02DE02168083151E8EB
:10487000001F21F040002168083141E80002002AB1
:10488000F1D100BFD4F8800068B19948D4F8801005
:104890008863D4F88000FDF71EF898B1D4F8800042
:1048A000816B88470EE02046FFF73BFF0AE003E0FC
:1048B0002046FFF736FF05E02046FFF732FF0020D5
:1048C000C4F890004CE7E06E012865D105F01000B7
:1048D000002861D006F010000028FAD010202168CE
:1048E00008622068806800F0400040287AD1D4F83F
:1048F0008000006840681FFA80F8B8F1000F5CD0B3
:10490000B4F85C00404558DDA4F85E80D4F880001F
:104910000068006800F02000E8BB00BF00BF21680D
:1049200051E8001F21F48070226842E8000100294C
:10493000F5D100BF00BF00BF2168083151E8001F5A
:1049400021F001002168083141E80002002AF3D17A
:1049500000BF00BF00BF2168083151E8001F21F0EF
:1049600040002168083141E80002002AF3D100BF6D
:104970002020C4F88C000020E06600BF00BF216842
:1049800051E8001F21F01000226842E800010029D0
:10499000F5D100BF01E004E068E0D4F88000FCF746
:1049A0005FFF02202067B4F85C00B4F85E20801A34
:1049B00081B22046FFF753FE12E0B4F85C00404598
:1049C0000ED1D4F880000068006800F02000202894
:1049D00006D102202067B4F85C102046FFF73FFEA6
:1049E000BEE6FFE734F85C0F6188401A1FFA80F8D2
:1049F00060885C3CC8B3B8F1000F36D000BF00BF80
:104A0000216851E8001F21F49070226842E80001FB
:104A10000029F5D100BF00BF00BF2168083151E86F
:104A2000001F314AD24301EA02002168083141E8FF
:104A30000002002AF1D100BF2020C4F88C00002021
:104A4000E066606700BF00BF216851E8001F21F0E9
:104A50001000226842E800010029F5D100BF0220C1
:104A6000206741462046FFF7FAFD79E605F48010FD
:104A700050B107F4800038B14FF48010216808620B
:104A80002046FFF74DFE6BE605F0800058B106F0BA
:104A9000800010B907F4000028B1A06F10B12046C3
:104AA000A16F88475CE605F0400030B106F0400099
:104AB00018B1204602F0A8F852E605F4000030B123
:104AC00006F0804018B12046FFF729FE48E605F0C1
:104AD000807030B106F0004018B12046FFF7C0FDED
:104AE0003EE600BF3CE6000001000010200100048B
:104AF000836B000810B504460CB9012010BDA069F5
:104B000000B100E000BFD4F8880028B9002084F884
:104B10008400204600F02AF82420C4F88800206889
:104B2000006820F0010021680860A06A10B12046EA
:104B300001F036FF204602F081FB012800D1DDE7BD
:104B40002068406820F490402168486020688068B0
:104B500020F02A00216888602068006840F0010089
:104B600021680860204601F097FFC7E710B59CB0A8
:104B70000446142117A8FBF785FB542102A8FBF774
:104B800081FB2149206888423BD10120029000200E
:104B9000039002A8FDF7A6FA08B1FBF78FFF00BF4C
:104BA0001A48006E40F48040184908660846006EB6
:104BB00000F48040019000BF00BF00BF0846C06CF9
:104BC00040F00100C8640846C06C00F0010001908C
:104BD00000BF00BF4FF4C060179002201890002063
:104BE00019901A9007201B9017A94FF09040FDF7DD
:104BF00019F8002211462520FDF78CF92520FDF734
:104C000075F91CB010BD00000038014000100240D2
:104C100070B504460D461646D4F88C00202821D1E4
:104C200005B10EB9012070BD0020E0660E49206874
:104C3000884211D02068406800F4000060B100BFD5
:104C400000BF216851E8001F41F08060226842E8FF
:104C500000010029F5D100BF32462946204602F066
:104C6000D1FCE0E70220DEE70080004010B50446FA
:104C70001149206888421ED11048FEF701FE00202D
:104C80000F4908700D49096848620E4800780A28E3
:104C900009DA0D4801780B4802780078401C094B6E
:104CA00018700A488154012207490948FFF7B0FFEC
:104CB0000248FEF78BFD10BD003801405003002074
:104CC0007300002075000020740000203C060020C6
:104CD000340400202DE9F84F04460E461746994645
:104CE000D4F88800202854D106B117B90120BDE8B6
:104CF000F88F00205434E06321206063FDF786F8CC
:104D0000824627806780543CA068B0F5805F04D15C
:104D1000206910B90025B04602E035464FF0000882
:104D200020E05346002280212046CDF8009002F07A
:104D300017FD20B12020C4F888000320D7E745B92B
:104D4000B8F80000C0F308002168886208F1020882
:104D500003E02878216888626D1CB4F85600401E74
:104D6000A4F85600B4F856000028DAD153460022C1
:104D700040212046CDF8009002F0F2FC20B1202026
:104D8000C4F888000320B2E72020C4F8880000207F
:104D9000ADE70220ABE7704700BFFEE700B585B086
:104DA00014216846FBF76EFAC020009001200190A4
:104DB00002900220039069460248FCF733FF05B0D9
:104DC00000BD00000004004870B50825002401F073
:104DD0009BF913E06006040E002001F075F9142021
:104DE00003F010FA142003F00DFA012001F06CF921
:104DF000142003F007FA01F07BF90443281EA5F103
:104E00000101CDB2E6D101F05FF9142003F0FAF907
:104E100001F0A4F9204670BD10B5002001F08AF918
:104E2000142003F0EFF9142003F0ECF9012001F055
:104E30004BF9142003F0E6F9002001F045F91420A5
:104E400003F0E0F910BD70B50446082517E0002016
:104E500001F03AF9142003F0D5F904F0800001F0D4
:104E600069F9142003F0CEF96006040E142003F053
:104E7000C9F9012001F028F9142003F0C3F9281E14
:104E8000A5F10101CDB2E2D101F01EF9142003F029
:104E9000B9F970BD10B5012001F04CF9142003F0F0
:104EA000B1F9142003F0AEF9012001F00DF914203E
:104EB00003F0A8F9002001F007F9142003F0A2F98B
:104EC00010BD10B5012001F035F9142003F09AF956
:104ED000012001F0F9F8142003F094F9002001F00A
:104EE00029F9142003F08EF9002001F0EDF81420C8
:104EF00003F088F910BD10B5002001F0E5F814208A
:104F000003F080F9002001F015F9142003F07AF97C
:104F1000012001F0D9F8142003F074F9012001F008
:104F200009F9142003F06EF910BD10B5052401F045
:104F3000EBF8142003F066F9012001F0C5F8142005
:104F400003F060F90BE0601E84B2142003F05AF9FC
:104F50002CB901F003F9FFF7CEFF012010BD01F0DD
:104F6000C7F80028EFD101F0AFF801F0F7F81420EE
:104F700003F048F90020F1E700B585B01421684638
:104F8000FBF780F94FF6FF7000900020019003209E
:104F900003900020029069460248FCF743FE05B0EA
:104FA00000BD00000008004800B585B01421684627
:104FB000FBF768F94FF6FF70009001200190032085
:104FC00003900020029069460248FCF72BFE05B0D2
:104FD00000BD00000008004830B50546002400214F
:104FE000084600F049F900F097F900BF03E02846B1
:104FF00000F056F9641CB4F5963FF8D330BD0000BC
:1050000000B587B0142102A8FBF73CF900BF2B487C
:10501000C06C40F004002949C8640846C06C00F028
:105020000400019000BF00BF00BF0846C06C40F004
:105030000100C8640846C06C00F00100019000BF88
:1050400000BF00BF0846C06C40F00200C8640846BC
:10505000C06C00F00200019000BF00BF4FF4487028
:10506000029001200390032005900020049002A9E3
:105070001348FCF7D7FD4FF4807002900120039095
:10508000032005900020049002A94FF09040FCF707
:10509000C9FDFFF789FF4FF09040806940F48070B0
:1050A0004FF09041886106481830006840F408705D
:1050B00003491831086007B000BD0000001002402D
:1050C0000004004870B505460E461446A4F12000C1
:1050D000C4B204EB4400044901EB001231462846F7
:1050E00000F01AF870BD0000BC8A0008F0B5074651
:1050F0000C46002540F23F1609E02278314638463A
:10510000FFF7E0FFA6F1100086B2641C6D1C20784A
:1051100008B1142DF1D3F0BD2DE9F04306468946C0
:10512000174600240025A046B0464946404600F0F8
:10513000A3F800BF1EE000F0EFF800250FE037F8FD
:1051400014000121A940084020B90C48008800F053
:10515000A7F803E00A48008800F0A2F86D1C102DA3
:10516000EDD308F1010000F0FF084946404600F089
:1051700083F8641C182CDED3BDE8F083A200002065
:10518000A000002010B5FFF73BFF002000F016F84C
:10519000094908800846008848F23021884202D137
:1051A00000F090FD01E000F01DFE002000F006F888
:1051B0000149088010BD0000A400002070B504461D
:1051C0002748006840F400702549086008460068D8
:1051D00040F48070086022481038006840F02000D9
:1051E0001F49103908601F4804601D48006840F0DE
:1051F00020001B49086000BF00BF00BF18481038DE
:10520000006840F020001649103908600846006820
:1052100040F480700860FFF7AFFE4FF09040806A66
:1052200040F480704FF09041886200BF00BF00BF23
:105230000C48001F006885B24FF09040806940F430
:1052400080704FF090418861FFF7AEFE044810383F
:10525000006840F40070024910390860284670BDAB
:10526000280400481408004801B5BDF800000149B1
:10527000088008BDA200002030B504460D46214636
:10528000202000F085F82946212000F081F830BD6B
:1052900001B5BDF800000149088008BDA00000204C
:1052A0001B49096841F40071194A11601849103905
:1052B000096841F48071164A103A11601146096874
:1052C00041F020011160134908601149096841F05B
:1052D00020010F4A116000BF00BF00BF0C49103908
:1052E000096841F020010A4A103A11601146096824
:1052F00041F48071116000BF00BF00BF0449103944
:10530000096841F40071024A103A116070470000C8
:1053100028040048140800481B48006840F4007046
:10532000194908600846006840F480700860164813
:105330001038006840F0200013491039086022201E
:10534000124908601048006840F020000E490860CB
:1053500000BF00BF00BF0C481038006840F02000BC
:105360000949103908600846006840F480700860F8
:1053700000BF00BF00BF04481038006840F4007050
:105380000149103908607047280400481408004893
:10539000214A126842F400721F4B1A601A461268C2
:1053A00042F480721A601C4A103A126842F02002DD
:1053B000194B103B1A60194A1060174A126842F0E4
:1053C0002002154B1A6000BF00BF00BF124A103AFE
:1053D000126842F02002104B103B1A601A46126805
:1053E00042F480721A600D4A11600B4A126842F052
:1053F0002002094B1A6000BF00BF00BF064A103AE6
:10540000126842F02002044B103B1A601A461268E0
:1054100042F480721A60704728040048140800485B
:105420008168024A1140491C81607047C0FFFF7FBC
:105430000146886800F0E07070470146886800F017
:105440001F007047024602F1600000EB81031868FC
:1054500000F0F840704701468868C0F3C00070470C
:1054600001468868C0F3400070470146886800F034
:10547000010070470146886800F00100704701464E
:105480008868C0F30070704701468868C0F38000E8
:10549000704701468868C0F3800070470146C868BD
:1054A00000F4406008B9012070470020FCE70000CC
:1054B0008168024A1140091D81607047C0FFFF7F6B
:1054C00070B500F11404C1F3406504EB85031C685A
:1054D000C1F304560725B540AC43C1F3045502FAA5
:1054E00005F52C431C6070BD826822F0E0720A430F
:1054F0008260704710B500F1600404EB81031C6802
:1055000024F0004414431C6010BD426922F00042A4
:105510000A4342617047000000B58BB0002008903C
:1055200009900A9020216846FAF7ACFE4FF0A0409F
:105530002649086040124860002124488160C1600B
:105540000161012141610421816100210177012173
:10555000417702210162002180F82410C1620163B9
:10556000012180F838100021C16380F84010FBF75A
:105570009BFE08B1FBF7A2FA0020089008A9134887
:10558000FBF7F8FA08B1FBF799FA114800900620EA
:105590000190072002907F200390042004900020B7
:1055A000059069460948FBF7C1FB08B1FBF786FA8D
:1055B000084800900C20019069460448FBF7B6FBB0
:1055C00008B1FBF77BFA0BB000BD0000AC00002077
:1055D0000008302E2000F01400B589B0202101A869
:1055E000FAF750FE1B481C49086040124860002131
:1055F00019488160C160016141610421816100211C
:105600000177012141770162002180F82410C162F5
:105610000163012180F838100021C16380F8401037
:10562000FBF742FE08B1FBF749FA0C48019006204F
:105630000290002003907F20049004200590002019
:10564000069001A90448FBF771FB08B1FBF736FA95
:1056500009B000BD00010050180100200080F03E9C
:1056600008B500BF1548806C40F0040013498864F9
:105670000846806C00F00400009000BF00BF00BF2F
:105680000846806C40F0010088640846806C00F099
:105690000100009000BF00BF002211460B20FCF764
:1056A00039FC0B20FCF722FC002211460C20FCF7F1
:1056B00031FC0C20FCF71AFC08BD00000010024071
:1056C00000B587B0142102A8FAF7DCFD00BF3D4801
:1056D000C06C40F004003B49C8640846C06C00F050
:1056E0000400019000BF00BF00BF0846C06C40F03E
:1056F0002000C8640846C06C00F02000019000BF84
:1057000000BF00BF0846C06C40F00100C8640846F6
:10571000C06C00F00100019000BF00BF00BF084650
:10572000C06C40F00200C8640846C06C00F0020083
:10573000019000BF00BF00BF0846C06C40F00800E9
:10574000C8640846C06C00F00800019000BF00BFAC
:1057500001224FF47F411C48FCF752FB0022042138
:105760001A48FCF74DFB4FF47F4002900120039054
:1057700000200490059002A91348FCF753FA012079
:105780000290002003900120049002A94FF0904065
:10579000FCF748FA072002900020039001200490B3
:1057A00002A90B48FCF73EFA042002900120039066
:1057B00000200490059002A90448FCF733FA07B0D2
:1057C00000BD00000010024000080048000C004826
:1057D0000004004800B591B014210CA8FAF752FD5E
:1057E00000200B90282101A8FAF74CFD36483749D4
:1057F0000860002048607F2134488160FF21C1603B
:1058000000210161416181614FF08041C16100214E
:105810000162FDF74FFB08B1FBF750F916208DF838
:10582000300003208DF8310014208DF83200002064
:105830000D900F90109000220CA92448FDF72CFD2C
:1058400008B1FBF73BF901208DF82C008DF82D00F5
:1058500006208DF82E0016208DF82F0000220BA9AF
:105860001A48FDF7B3FC08B1FBF728F900208DF8C2
:1058700004008DF805008DF8060002904FF080308E
:10588000069000200790089001208DF82400000267
:105890000A90002201A90D48FDF7A0FB08B1FBF713
:1058A0000DF90A208DF80600094806904FF40070A3
:1058B0000A90002201A90548FDF790FB08B1FBF70B
:1058C000FDF811B000BD0000002800404402002097
:1058D0000080808000B587B0002003900490059080
:1058E000069000900190029015481649086040F219
:1058F0001F30486000211348816040F2E731C160E9
:105900000021016141618161FDF757FE08B1FBF79C
:10591000D5F84FF48050039003A90A48FDF7D0FF53
:1059200008B1FBF7CBF800200090029069460548CB
:10593000FDF7D6FD08B1FBF7C1F807B000BD0000C8
:1059400000400140500300201FB50020009001904E
:10595000029003901448154908604F2048600021C8
:10596000124881604FF6FF71C16000210161416101
:105970008161FDF722FE08B1FBF7A0F80B48FEF7A6
:1059800078F908B1FBF79AF8002000900120019007
:10599000002002900390002269460448FEF7FAF8BE
:1059A00008B1FBF78BF81FBD004401409C030020A9
:1059B00000B595B01C210EA8FAF764FC342101A8AB
:1059C000FAF760FC2048214908604F204860002118
:1059D0001E488160F921C16000210161416181613E
:1059E000FDF7EBFD08B1FBF769F81848FEF795FCE9
:1059F00008B1FBF763F860200E9000200F90109024
:105A0000119012901390149000220EA90F48FEF7E7
:105A1000CCFB08B1FBF752F80020019002900390F4
:105A2000049005904FF400500690002007900D90D0
:105A300001A90648FDF7E6FC08B1FBF73FF803486B
:105A4000FEF784FB15B000BD00480140E8030020CC
:105A500000B58BB000200790089009900A90049040
:105A60000590069000900190029003904FF08040C6
:105A7000244908604F2048600021224881604FF689
:105A8000FF71C160002101618161FDF796FD08B1E0
:105A9000FBF714F84FF48050079007A91948FDF759
:105AA0000FFF08B1FBF70AF81648FEF7E2F808B155
:105AB000FBF704F800200490069004A91148FDF7B4
:105AC0000FFD08B1FAF7FAFF0220009001200190C3
:105AD000002002900390002269460A48FEF75AF817
