:020000040800F2
:10000000A009002099020008A3400008D139000887
:10001000A1400008411500086749000800000000E1
:10002000000000000000000000000000BB430008CA
:100030004315000800000000A5400008BD4300086B
:10004000B3020008B3020008B3020008B3020008BC
:10005000B3020008B3020008B3020008B3020008AC
:10006000B3020008B3020008B3020008B30200089C
:10007000B3020008B3020008B3020008B30200088C
:10008000B30200080000000065140008B302000875
:10009000B3020008B3020008B3020008B30200086C
:1000A000B3020008B3020008B3020008B30200085C
:1000B000B302000845440008B3020008B302000878
:1000C000B3020008B3020008B3020008B30200083C
:1000D000B3020008B3020008B3020008B30200082C
:1000E000B3020008B3020008B3020008B30200081C
:1000F000B3020008B3020008B302000800000000C9
:1001000000000000B302000800000000B302000875
:10011000B302000800000000B302000851440008C8
:10012000B3020008B3020008B3020008B3020008DB
:10013000B30200080000000000000000B302000845
:10014000B3020008B3020008000000000000000035
:10015000000000000000000000000000000000009F
:10016000000000000000000000000000B3020008D2
:10017000B3020008000000000000000000000000C2
:1001800000000000B30200080000000000000000B2
:10019000000000000000000000000000000000005F
:1001A0000000000000000000B3020008B3020008D5
:1001B000B3020008B3020008B30200080000000008
:1001C00000000000B3020008000000000000000072
:1001D000B3020008B302000800F002F800F04CF887
:1001E0000AA090E8000C82448344AAF10107DA4592
:1001F00001D100F041F8AFF2090EBAE80F0013F098
:10020000010F18BFFB1A43F001031847C06100003B
:10021000E0610000103A24BF78C878C1FAD85207CC
:1002200024BF30C830C144BF04680C607047000070
:100230000023002400250026103A28BF78C1FBD8EF
:10024000520728BF30C148BF0B607047662904F0D1
:100250008187642900F05480002070471FB504F0A6
:1002600074FF00F0C1FB04000020002104F0E0FE58
:10027000E0601FBD10B510BD00F0B6FC1146FFF7E1
:10028000EDFF04F063FE00F0D4FC03B4FFF7F2FFCF
:1002900003BC00F017FD00000948804709480047EB
:1002A000FEE7FEE7FEE7FEE7FEE7FEE7FEE7FEE726
:1002B000FEE7FEE704480549054A064B7047000083
:1002C00029440008D9010008A0030020A00900204B
:1002D000A0050020A00500200FB41CB5074B06AAFE
:1002E0007B4469460090059800F065FB0020694654
:1002F00000F074FB1CBC5DF814FB0000F906000064
:100300002DE9F0410646002410687529314616A5EE
:1003100010D0AFF30080002802DA404213A507E0B6
:1003200031688A0701D512A502E0490704D511A555
:10033000012401E0AFF3008000210A2206F1240726
:1003400009E0B0FBF2FCB0FBF2F302FB1C00303022
:1003500078541846491C0028F3D123462A463046D3
:10036000BDE8F04100F0B9B8000000002D00000029
:100370002B000000200000002DE9F0474FF0000A9C
:1003800089460446C0F820A02046E1688847002836
:1003900076D0252806D0D4E901219047206A401C58
:1003A0002062F1E7E168204600258847C4F81CA0D8
:1003B00006460027C4F818A02A2E09D0304604F0BB
:1003C000FBFA38B304EB8708303EC8F8186019E030
:1003D00059F8041B204604EB87029161E1688847C5
:1003E000012F064618D1E069002820DA25F0200503
:1003F0001DE0D8F8180000EB800006EB4000303814
:10040000C8F818002046E1688847064604F0D4FA88
:100410000028EED1012F0AD02E2E08D12046E16807
:1004200088477F1C0646022F45F02005C4DBA069E3
:10043000002803DA404245F00105A061E80701D039
:1004400025F01005B6B1A6F14100192802D82036D2
:1004500045F400654A463146204625604D46FFF783
:10046000F5FE58B1012806D0ED1D25F0070000F17A
:10047000080989E704E005F1040985E730468AE7C1
:10048000206ABDE8F0874FF0000200B5134694469D
:100490009646203922BFA0E80C50A0E80C50B1F1DC
:1004A0002001BFF4F7AF090728BFA0E80C5048BFF0
:1004B0000CC05DF804EB890028BF40F8042B08BF8E
:1004C000704748BF20F8022B11F0804F18BF00F88A
:1004D000012B70477047704770472DE9F0470D4674
:1004E00099469246044600F124080168880604D51E
:1004F000E06921F01001216000E00120A84201DD47
:10050000471B00E00027A1697A1902EB0900081ACD
:10051000A0612078C00602D42046AFF300800026F8
:1005200008E0D4E901211AF806009047206A401C2F
:10053000761C20624E45F4DB2078C0060AD52046A2
:10054000AFF3008006E0D4E9012130209047206A13
:10055000401C2062381EA7F10107F4DC07E0D4E953
:10056000012118F805009047206A401C2062281ECF
:10057000A5F10105F3DC2046AFF3008020780006EA
:1005800002D50220BDE8F0870120FBE770472DE986
:10059000FF4F0C461E464FF0FF378BB0D2E90001EB
:1005A000DDF860800A908A46C1F30A5505B93D46D8
:1005B000002108464FF00000BAF1000F00F440009F
:1005C00005DA00EB80004FF4400101EA50004FEAE9
:1005D0009059B9F1010F00DDB9460A9850EA4A0076
:1005E0000ED044F61050A5F2FF3545432F14B8F154
:1005F000000F1ED07542291E1EDDC9F100021CE04D
:10060000B8F1010F4FF0000001D0302103E0F243B8
:1006100005E02154401CB042FBDB304600220021A3
:1006200021540B99C1F80880C1E900200FB0BDE842
:10063000F08FBD1B6D1CDEE74A4600DA694206A852
:1006400000F05CFA06AB93E8070003AB83E8070011
:1006500050460A9900F03DFB8DE80700A0F50050D8
:100660001F3800900398002D0ADD42F21F014A4610
:100670000844002303A90390684600F0A6FD09E0A2
:10068000A0F500504A461F38002303A9039068468E
:1006900000F0B0FD8DE807000004000C03D04FF01F
:1006A000FF30410800E01046B8F1000F03D00022EF
:1006B000009215461EE0751E05D400F099F93032FF
:1006C00062556D1EF9D5B3460122084302D00022BF
:1006D0007F1C04E02078302801D100227F1E002AF0
:1006E000099784D01DE0112D07DA00F081F930322E
:1006F00062556D1C50EA0102F5D1084302D0009802
:10070000C8B10EE00021681E05E0235C625C635402
:100710002254401E491C8142F7DBAB46A81B401EF9
:100720000990002004F80B000B98099AC0F8088083
:10073000C0E9002B7AE711264FF0000857E72DE9B2
:10074000F04F88460446D21D22F0070191B0D1E94E
:100750000001CDE90A0104F007F902460B98C00F29
:1007600001D02D2007E02068810701D52B2002E071
:10077000202101EAC000032A099001D0072A05DBE5
:1007800003464146204600F079F90BE120788006C7
:1007900001D5E06900E00620B8F1650F814606D07A
:1007A000B8F1660F18D0B8F1670F70D131E00020B2
:1007B000B9F1110F009001DB112301E009F10103F0
:1007C0000AAA01A90CA8FFF7E2FEDDE90C700026D9
:1007D00009F10105834647E001204B4600904FF0A8
:1007E00000470AAA01A90CA8FFF7D1FEDDE90DB068
:1007F0000C995D46002610B909F101000D18B9EBFE
:10080000050003D4C0F1FF3609F10105A5EB09008D
:100810002BE0B9F1010F01DA4FF001090020B9F125
:10082000110F0090484601DD112300E003460AAA9B
:1008300001A90CA8FFF7ABFEDDE90C704D460026C0
:100840008346207800070AD4AB4500DA5D4601A84C
:10085000012D04DD411911F8011C302907D04F4545
:1008600002DA17F1040F04DA012082460FE06D1E50
:10087000EEE7002F02DCED1B3E4403E0781CA842AB
:1008800000DD7D1CB81B00F1010A4FF00047207805
:10089000000703D4AA4501DB4FF0FF3A0021B7F16E
:1008A000004F0DF143088DF8431024D002202B2374
:1008B000002F01DA7F422D230A21021EA0F1010040
:1008C00000DC5FB197FBF1FC97FBF1F201FB1C7CB4
:1008D00017460CF1300C08F801CDEEE7A8F1010045
:1008E00003702188090501D5452100E06521A0F1AB
:1008F000010800F8011C09980FA9A1EB0807FF1DCA
:1009000000B10120411901EBEA70A1693844081ACD
:10091000401EA0612078C00602D42046AFF30080BC
:10092000099828B1D4E901219047206A401C20622F
:100930002078C00622D52046AFF300801EE0002EAE
:1009400004DBB34502DD01A8805D00E03020D4E97E
:1009500001219047206A401C2062761CAAF1010008
:100960005FEA000A0AD100F03FF8C0680168405C05
:10097000D4E901219047206A401C2062281EA5F17D
:100980000105DCDC07E0D4E9012118F8010B9047F0
:10099000206A401C2062381EA7F10107F3DC2046C4
:1009A000AFF30080032011B041E6000001694A1C4A
:1009B00002610878704700B58FB0CDE901310021A0
:1009C000059105497944CDE9031011466846FFF7C2
:1009D000D3FC0FB000BD0000E5FFFFFF0A6802F87E
:1009E000010B0A6070470000004870476003002058
:1009F00030B5B0F10A024FEA900E71F100034EEAF1
:100A0000817EB0EB0E0061EB91014FEA101E4EEAC1
:100A1000017E10EB0E0041EB11114FEA102E4EEA51
:100A2000016E10EB0E0041EB11214FEA104E4EEA21
:100A3000014E10EB0E0041EB1141401841F1000155
:100A40004FEAD00040EA41704FEAD10110EB800537
:100A50004FEA810444EA907444EB01046D1944EBBD
:100A60000404521BA3414FF0000348BF0A3200D5D3
:100A700030BD401C41F1000130BD00002DE9F041C6
:100A80001F46044603260168072A01F4006004DBC0
:100A900008B116A505E016A503E008B115A500E00C
:100AA00015A521F010002060A069C01EA0610FB143
:100AB000401EA0612046AFF300804FB1D4E9012170
:100AC00038469047206A401C2062C01C206206E025
:100AD000206AFAE7D4E9012115F8010B9047761E48
:100AE000F8D22046AFF30080BDE8F0814E414E00C1
:100AF0006E616E00494E4600696E66002DE9F04752
:100B0000814616468AB0354878440DC88DE80D00F8
:100B100032487844801C03AC0DC884E80D0041F6CF
:100B20009B300844372190FBF1F290FBF1F5A5F1E1
:100B3000800501FB12041B3C02D56442012000E049
:100B40000020DFF898A080460027FA44AAF1BE0AE8
:100B50000EE0E0070AD03246684607EB4701012362
:100B60000AEB810100F046FB8DE8070064107F1C52
:100B7000002CEED1194F7F44AE3F19E0E80715D0A5
:100B800007EB04100DF1180A90E80E008AE80E0039
:100B9000C068F04201D1981908903246012306A995
:100BA00003A800F027FB03AB83E807006D10641C6B
:100BB000002DE3D14FF0010332466946B8F1000F32
:100BC00003A802D000F001FB01E000F013FBC9E92B
:100BD0000001C9F808200AB0BDE8F087A858000055
:100BE00000487047400300207546FFF7F9FFAE4606
:100BF00005006946534620F00700854618B020B529
:100C0000FFF758FBBDE820404FF000064FF000070B
:100C10004FF000084FF0000B21F00701AC46ACE8A4
:100C2000C009ACE8C009ACE8C009ACE8C0098D4611
:100C3000704710B50446AFF300802046BDE8104071
:100C4000FFF723BB4FF0013C50F8042B51F8043B55
:100C50009A4221D1A2EB0C03934313EACC1317D190
:100C600050F8042B51F8043B9A4215D1A2EB0C0327
:100C7000934313EACC130BD150F8042B51F8043BE7
:100C80009A4209D1A2EB0C03934313EACC13DBD0B5
:100C90004FF00000704700BFD01A01BAB1FA81F1DD
:100CA00001F0180122FA01F0CB40C1F12001DBB2C2
:100CB000C0B2C01A2CFA01F3D11A914311EAC31140
:100CC000E6D1704701491820ABBEFEE726000200BE
:100CD00070475FEA400C08BF91F0000F4FEA8C2389
:100CE0004FEAC12243EA51514FEA1C5018BF00F5A8
:100CF000F0404FEA300018BF41F000415FEA6C5C01
:100D000000F02980BCF1FF3F08BF40F080407047F1
:100D1000130C06BF12044FF0100C4FF0000C130E12
:100D200004BF12020CF1080C130F04BF12010CF1E6
:100D3000040C930F04BF92000CF1020CD30F04BFFC
:100D400052000CF1010C11464FF00002A0F11F00FF
:100D5000A0EB0C00704711F0004F08BF704731F056
:100D600000413FF4D5AF0B0C06BF09044FF0100C47
:100D70004FF0000C0B0E04BF09020CF1080C0B0F16
:100D800004BF09010CF1040C8B0F04BF89000CF1A6
:100D9000020CCB0F04BF49000CF1010CCCF1200375
:100DA000A0EB0C0022FA03F302FA0CF241EA030171
:100DB00000F10100704720F07F4C80EA030023F02F
:100DC0007F47ACEB070303F57C5300F0004003F1D1
:100DD000FF032DE980494FEA154B09B44FEA14434C
:100DE00025EA0B4E24EA03480FF2042606EB1327EC
:100DF00049083E785FEA320203FB0667C7F5000741
:100E000007FB06F64FEA54374FEAD64606F10206CC
:100E100007FB066CCCF1005C4FEA1C472CEA074C40
:100E200007FB06F40CFB06F504EB15464FEA961695
:100E300034BF00204FF000404FEAD13706FB07FCDB
:100E40004FEA1C4C0CFB0BF7D21B03FB0CF761EBBE
:100E500007010CFB0EF7B0EB074072EB17420CFBDF
:100E600008F734BFA2EB0742B2EB074261EB174130
:100E70004FEA0C444FEA910706FB07FC4FEA1C4C73
:100E80000CFB0BF7B0EBC74072EB573203FB0CF7D0
:100E900034BFA2EBC742B2EBC74261EB57310CFB48
:100EA0000EF7B0EBC70072EB57720CFB08F734BFBC
:100EB000A2EBC702B2EBC70261EB5771039F4FEA87
:100EC000816141EA921104EBCC044FEAD1374FEA39
:100ED000826206FB07FC42EA90124FEA80604FEA0A
:100EE0001C4C0CFB0BF7D21B03FB0CF761EB07014F
:100EF0000CFB0EF7B0EB074072EB17420CFB08F748
:100F000034BFA2EB0742B2EB074261EB17414FEA55
:100F10008C554FEA910704EB9C2406FB07FC4FEA33
:100F20001C4C0CFB0BF7B0EBC74072EB573203FBCA
:100F30000CF734BFA2EBC742B2EBC74261EB5731AB
:100F40000CFB0EF7B0EBC70072EB57720CFB08F707
:100F500034BFA2EBC702B2EBC70261EB577115EBCE
:100F60004C254FEA816141EA92114FEA82624FEAD1
:100F7000D13742EA901206FB07FC44F100044FEA25
:100F800080604FEA1C4C0CFB0BF7D21B03FB0CF7E9
:100F900061EB07010CFB0EF7B0EB074072EB174259
:100FA0000CFB08F734BFA2EB0742B2EB074261EB40
:100FB000174115EB1C154FEA813141EA92414FEA86
:100FC000823242EA90424FEA80304FEA0C7644F196
:100FD000000448EA03434EEA0B484FF0000EB2EB20
:100FE000080C71EB030724BF624639464EEB0E0E28
:100FF0004FF0000B0018524149414BEB0B0BB2EB89
:10100000080C71EB03077BF1000B24BF62463946E5
:101010004EEB0E0E4FF0000B0018524149414BEBC6
:101020000B0BB2EB080C71EB03077BF1000B24BF39
:10103000624639464EEB0E0E51EA020718BF46F0E3
:10104000010616EB0E7655F1000254F1000103D5AE
:10105000BDE88901BDE80088BDE88901BDE8004818
:10106000B619524141EB0101A3F1010370478080A1
:101070007F7E7D7C7B7A79787776767574737271F2
:1010800071706F6E6E6D6C6C6B6A6A6968686766AA
:1010900066656464636362616160605F5F5E5E5D3C
:1010A0005D5C5C5B5B5A5A595958585757565655B0
:1010B00055555454535352525251515050504F4F12
:1010C0004F4E4E4D4D4D4C4C4C4B4B4B4A4A4A4962
:1010D00049494848484747474746464645454544A5
:1010E0004444444343434342424242414141002B32
:1010F0009C4630D477002BD01CB54FEA370703B499
:101100004FF010004FF01001BAF1000F06D0BCF103
:10111000000FDCBF40F0080040F008014FF0000075
:101120000FBCBDE810400BF1010BBBF1010F08BF74
:101130005FEA170722BF12F1010211F101014FF01E
:10114000004143F1000300F0004043EA0000704713
:10115000F9D35708D0E746EA064613F1400F4FEAA5
:1011600016461FDD13F1200FDFBF16430A4600218C
:1011700020335B42BED0C3F1200746EA064602FA9E
:1011800007F74FEA164646EA0706C3F1200722FA98
:1011900003F201FA07F721FA03F14FF0000342EAE4
:1011A0000702A7E746EA020646EA06464FEA16465F
:1011B00046EA0106BCBF46EA0646360C4FF000037D
:1011C0004FF000024FF0000194E72DE9804C9A4661
:1011D000934670B491E8380007C831EA400C48BF24
:1011E00034EA430C03D5FFF7E6FDFFF780FFF0BCC0
:1011F000BDE8008C2DE9804C9A46934670B491E886
:10120000380007C810F0804F08BF13F0804F03D19B
:1012100000F005F8FFF76BFFF0BCBDE8008C20F094
:101220007F4780EA030023F07F4C07EB0C03A3F514
:101230007C5300F00040A3F1FE0392F0000F00F099
:10124000B38095F0000F00F077802DE901494FEA57
:1012500011404FEA144621EA004800FB06FC24EA4C
:10126000064708FB06F607FB08F800FB07F718EB34
:1012700006484CEB164C4FEA124B18EB07484FEA66
:1012800015464CEB174022EA0B4E0BFB06FC25EAF9
:1012900006470EFB06F607FB0EFE0BFB07F71EEBE1
:1012A000064E4CEB164C4FF000061EEB074E4CEB77
:1012B000174B18EB0B0840F1000018EB0E0B58EB26
:1012C000000840F100008F1A4FF000013CBFC943F5
:1012D000661B14BFB5EB040C00213CBFC943F61BD1
:1012E0004FEA17444EEA8E0E27EA04454FEA1C47A0
:1012F00004FB07622CEA074C05FB07F70CFB05F61D
:1013000004FB0CFC16EB074642EB174216EB0C46AF
:1013100042EB1C421BEB060658EB0202414146EA37
:101320009E0601D5BDE80189B619524141EB010184
:10133000A3F10103BDE801894FEA14454FEA1147C3
:1013400024EA054621EA074C05FB07F406FB07F7EC
:101350000CFB06F105FB0CFC11EB074144EB1744B9
:101360004FEA124711EB0C4144EB1C4422EA074CB4
:1013700005FB07F206FB07F70CFB06F605FB0CFC6A
:1013800016EB074642EB174216EB0C4642EB1C45A8
:101390006A1854F1000148BF7047B619524141EB39
:1013A0000101A3F10103704795F0000F37D04FEA18
:1013B00011424FEA144721EA024624EA074C02FB95
:1013C00007F106FB07F70CFB06F402FB0CFC14EB21
:1013D000074441EB17414FEA154714EB0C4441EB2E
:1013E0001C4125EA074C02FB07F506FB07F70CFB3F
:1013F00006F602FB0CFC16EB074645EB174516EB11
:101400000C4645EB1C42121951F1000148BF7047D0
:10141000B619524141EB0101A3F1010370474FEAB4
:1014200014454FEA114724EA054621EA074C05FB1B
:1014300007F106FB07F70CFB06F24FF0000605FB71
:101440000CFC12EB074241EB174112EB0C4251EB43
:101450001C4148BF7047921841EB0101A3F1010301
:1014600070470000014800F0E3BA0000500000207F
:1014700070B50446006881688268C1F3400112F0CB
:10148000010F24D019BB816801F00D01012910D191
:101490008168104A1140891C81602168032008601E
:1014A00000F0B8FE05460EE000F0B4FE401B022836
:1014B00009D9E06D40F01000E065206E40F00100B9
:1014C0002066012070BD20688068C007ECD1002034
:1014D00070BD0000C0FFFF7F70B5044600688168E2
:1014E00011F0010F28D18168144A114215D1816889
:1014F000D5432940491C816000F08CFE064616E069
:10150000816811F0010F03D181682940491C816075
:1015100000F080FE801B022809D9E06D40F0100029
:10152000E065206E40F001002066012070BD20685B
:101530000168C943C907E3D1002070BD3F000080A6
:10154000FEE77047002240F6B83306E00021491C50
:1015500089B29942FBD3521C92B28242F6D37047B1
:1015600072B6FEE7F8B500260446009690F85800DB
:101570000D4601280BD0012084F858002046FFF7C3
:1015800077FF0100E06D04D040F010002AE0022057
:10159000F8BD20F4885040F00200E06520688268C1
:1015A000134B1A4005F080431A4342F00042826018
:1015B000104A20680EE0009B5B1C0093934209D305
:1015C000E06D20F0020040F01000E06584F8586003
:1015D0000120F8BD8368DB0FEDD1E06D20F0020043
:1015E00040F00100E06584F858600846F8BD00004E
:1015F000C0FFFF3F02DE040070477047704770472E
:10160000704700002DE9F84F00270446009790F836
:101610005800DFF8DC930D46B846012811D00126AA
:1016200084F85860206802F0BBFB60B1E06D40F0C8
:101630002000E0655FF0010784F858803846BDE877
:10164000F88F0220FBE7D5E900210C23206803EA8C
:1016500091131844036B01F01F014FF01F0C0CFA9B
:1016600001FCC2F3846223EA0C038A401343036340
:10167000206802F095FB8246206802F08DFB5AEA52
:1016800000003CD1AA6829682068B2F1004F37D029
:1016900002F092FB2068416921F00041416120681D
:1016A0006969C268C2F3C102520091402A69042AE2
:1016B00031D000EB82002B68026EDFF838C303F0F4
:1016C000F84302EA0C020B431A4342F00041016660
:1016D00022682869A96902EB8000026E22F08072FC
:1016E0000A430266297F20682A69012910D0002157
:1016F00000EB8200026E22F000720A4302667DE077
:10170000002202F059FB2068416941F00041C5E721
:101710004FF00071ECE7002102F038FB4003206835
:101720004FF0000172D002F031FB90FAA0F0B0FA55
:1017300080F1286842036ED090FAA0F0B0FA80F0F1
:10174000814204D100221146206802F044FB0121AD
:10175000206802F01BFB400320684FF001015DD0C0
:1017600002F014FB90FAA0F0B0FA80F1286842036E
:1017700059D090FAA0F0B0FA80F0814204D1002252
:101780000121206802F027FB0221206802F0FEFA06
:10179000400320684FF0020148D002F0F7FA90FAB7
:1017A000A0F0B0FA80F12868420344D090FAA0F08B
:1017B000B0FA80F0814204D100220221206802F0B8
:1017C0000AFB0321206802F0E1FA400320684FF091
:1017D000030133D002F0DAFA90FAA0F0B0FA80F107
:1017E000286842032FD090FAA0F0B0FA80F081422E
:1017F00004D100220321206802F0EDFA20688168FC
:1018000011F0010F22D0ACE000E004E002F0BEFADB
:10181000C0F384618DE7C0F3846091E702F0B6FA0B
:10182000C0F38461A2E7C0F38460A6E702F0AEFAD9
:10183000C0F38461B7E7C0F38460BBE702F0A6FAA7
:10184000C0F38461CCE7C0F38460D0E72A7B2968C9
:1018500050F8B03FC1F3120C23EA0C0302F0180C4D
:10186000654A22FA0CF20A4013430360E9684945CD
:1018700077D1286841031CD090FAA0F1B1FA81F128
:10188000491C01F01F0109294FEA403132D80029D3
:1018900012D000BF90FAA0F1B1FA81F101F101017B
:1018A00001F01F0106FA01F609D100BFC0F38461FF
:1018B00009E0C0F38461E3E7C0F38461EEE790FAE6
:1018C000A0F1B1FA81F101F1010101F01F0146EA35
:1018D000816102D1C0F3846003E090FAA0F0B0FA15
:1018E00080F000F1010000F01F0000EB400041EA31
:1018F000005132E000290ED090FAA0F1B1FA81F146
:1019000001F1010101F01F0106FA01F606D100BF45
:10191000C0F3846106E0C0F38461F1E790FAA0F1BE
:10192000B1FA81F101F1010101F01F0146EA816183
:1019300002D1C0F3846003E090FAA0F0B0FA80F026
:1019400000F1010000F01F002C4A00EB400002EB08
:10195000005041EA000141F00071AA68206802F0DD
:101960002BFA27482A6802423FF466AE2548816870
:10197000254B01F0E0719A4202D0244B9A421BD1D0
:101980000B0219D42268B2F1A04F7FF455AE8268E1
:1019900041F4000122F0E0720A4382601C481D49B4
:1019A0000068B0FBF1F000EB4000800000E0401E5A
:1019B00000900028FBD13FE6174D184BAA4207D1F3
:1019C000CD0105D422689A42F5D041F0807109E03A
:1019D000134DAA42EFD14A02EDD422689A42EAD0CE
:1019E00041F48001826822F0E0720A43826023E6BB
:1019F00000007F4000F0FF03FFFF0700000020FE13
:101A00000000088000030050000021C31000C090B7
:101A10000C000020400D0300000052C700010050E0
:101A2000000084CB704770470068006C704700006E
:101A30002DE9F05F0446006806684568DFF854B297
:101A4000DBF8080000F01F07B0070ED5A8070CD57B
:101A5000E06DC00603D4E06D40F40060E065204610
:101A6000FFF7CAFD216802200860DFF82CA270078A
:101A70004FF0A04801D5680703D4300737D52807B1
:101A800035D5E06DC00603D4E06D40F40070E0652C
:101A9000206802F089F920B32068504501D1424600
:101AA00000E00246824208D03FB1052F05D0092F41
:101AB00003D0504503D1414602E0C16801E0014630
:101AC000C96889040DD4016809070AD502F068F9CC
:101AD00058B3E06D40F01000E065206E40F001006A
:101AE00020662046FFF79EFF21680C200860B006A4
:101AF00001D5A80603D4700658D5680656D5E06D02
:101B0000C00603D4E06D40F40050E0652068C16C6D
:101B100011F4C07F1AD00021894602F045F902462F
:101B20002068504514D1434613E02068416821F0F5
:101B30000C014160E06D20F48070E065E06DC00450
:101B4000CFD4E06D40F00100E065CAE70121E3E792
:101B50000346834208D03FB1062F05D0072F03D09C
:101B6000504503D1414602E0C16801E00146C96821
:101B7000B9F1000F04D18B0112D48AB18A040FD4B9
:101B8000026852060CD589020AD402F005F9E8B3BE
:101B9000E06D40F01000E065206E40F0010020662E
:101BA0002046FFF72AFD21686020086030060BD52B
:101BB000280609D5E06D40F48030E065204600F04D
:101BC00069F9216880200860F0050CD5E8050AD580
:101BD000E06D40F40030E0652046FFF710FD21681D
:101BE0004FF480700860B0050CD5A8050AD5E06DEB
:101BF00040F48020E0652046FFF702FD21684FF4A5
:101C000000700860F0062ED5E80600E008E02AD54E
:101C1000E06BD0B1AFB1DBF8080000F4604013E036
:101C20002068416821F060014160E06D20F480503F
:101C3000E065E06DC005B3D4E06D40F00100E06503
:101C4000AEE72068C068C00750B1E06D40F4806026
:101C5000E065206E40F0020020662046FFF7E3FEBC
:101C6000216810200860700512D5680510D5E06D58
:101C700040F48040E065206E40F008002066216856
:101C80004FF4806008602046BDE8F05FFFF7B6BC07
:101C9000BDE8F09F0003005000010050F8B54FF080
:101CA000000504002E46009502D0E06D10B107E05B
:101CB0000120F8BD204600F0EFF8266684F8586051
:101CC00020688168C1F3407119B18168694A114087
:101CD000816020688168C1F3007179B98168664AC2
:101CE000114041F080518160644865490068B0FB53
:101CF000F1F000E0401E00900028FBD120688168D0
:101D0000C1F3007141B9E16D41F01001E165216E4F
:101D100041F001012166012502F042F8E16DC9069A
:101D200000D430B1E06D40F01000E0650125284698
:101D3000F8BDE06D20F4807040F00200E06520689E
:101D4000806810F0010F11D14FF0A04080684D491C
:101D500000F00100896801F00101084306D14A48FA
:101D60006168826822F47C120A438260E168E06B59
:101D7000627F0843A16841EA4231084394F8241085
:101D800040EA0140012904D1218D404A02EB414142
:101D90000843E16A29B101F47871226B014342EAF8
:101DA00001002168CA683A4B1A400243CA602068A1
:101DB0000169626B21F0406111430161206801F00B
:101DC000EFFF0646206801F0E7FF30432ED1207F69
:101DD00094F83810800340EA41022068C16844F258
:101DE000020399431143C1602069002820680169FA
:101DF0000AD041F480310161206850F8C01F226987
:101E00006FF30D01114307E021F480310161206877
:101E100050F8C01F6FF30D01016094F840000128D5
:101E20000CD02068016921F001010161606901287D
:101E30002068016B21F00F0111D013E0D4E91101EA
:101E40000843D4E913121143084321680A6940F298
:101E5000FC739A43104340F001000861E6E7226AF0
:101E6000521E11430163E06D20F0020040F00100BA
:101E7000E0655CE7C0FFFF5FC0FFFF7F0C00002054
:101E8000400D030000010050000300500000FEFF61
:101E90000740F0FF7047000010B598B004461421C9
:101EA00011A8FEF7F0FA44216846FEF7ECFA19494A
:101EB000206888422BD1C401400500940F906846E9
:101EC00000F0A6FA08B1FFF74BFB1348C16C41F4D0
:101ED0000051C164C16C01F400511691C16C41F014
:101EE0000201C164C06C11A900F002001690032029
:101EF000CDE9114000201390084800F09DF8002221
:101F00000221122000F0ECF9122000F0DBF918B0E9
:101F100010BD000000010050001002400004004805
:101F20002DE9F04104463848806800F01F0520681C
:101F300001F036FF18B102210846BDE8F08194F89F
:101F4000580001280CD0012084F858002046FFF7E3
:101F5000C3FA01004FF0000304D084F85830EBE7D7
:101F60000220EAE7E06D40F60162904340F48070A1
:101F7000E065264A20684FF0A046904201D13746DE
:101F800000E00746874200D01DB9E76D27F48017AF
:101F9000E765E76DFF0404D5276E27F0060727667F
:101FA00000E023661C27076084F8583020689042C0
:101FB00001D1334600E00346834215D0A5B1052D7B
:101FC00012D0092D10D0E36D43F48013E3659042E5
:101FD00000D13046C0688001AED5E06D20F40050DD
:101FE00040F48050E065A7E7C268920105D5E26D34
:101FF00022F4005242F48052E2658268044B1A4097
:10200000121D826098E7000000030050000100509C
:10201000C0FFFF7F70B5044600F0FCF80546601C69
:1020200002D004484068044400F0F4F8401BA04289
:10203000FAD370BD000000202DE9FC4FDFF8A0A10D
:10204000002301250AF1040B03244FF00F0C0BF1C0
:10205000040EBDE005FA03F632406FD04F68012F41
:1020600005D0022F03D0112F01D0122F17D1D0F895
:1020700008905F0004FA07F829EA08090097D1F8E8
:102080000C8008FA07F848EA0908C0F80880476891
:10209000B7430E79C6F300169E403E434660C668BD
:1020A0004FEA430804FA08F7BE4301978F6807FA1E
:1020B00008F73743C7604E68022E01D0122E13D1A5
:1020C000DE0800EB86060096366A5F07FF0E0CFA04
:1020D00007F926EA0906D1F8109009FA07F949EA42
:1020E0000609009EC6F820900668019FBE430F793E
:1020F00007F0030707FA08F7374307604E68F60052
:1021000065D5384E376E47F001073766366E23F0D7
:10211000030706F001060096334E3E44B146B6680A
:102120009F074FEA17780CFA08F7BE43B0F1904FBB
:1021300005D02E4FB84204D1012717E047E0002711
:1021400014E02B4FB84201D102270FE0294FB842CB
:1021500001D103270AE0284FB84201D1042705E046
:10216000264FB84201D1052700E0062707FA08F7F5
:102170003743C9F80870DAF800605746D1F8048090
:1021800096435FEAC83800D516433E60DBF800602E
:102190005F46D1F8048096435FEA883800D516433D
:1021A0003E60DEF800607746D1F8048096435FEA2F
:1021B000C82800D516433E60094F0C373E68D1F859
:1021C000048096435FEA882800D516433E605B1C76
:1021D0000A6832FA03F67FF43DAFBDE8FC8F0000D9
:1021E00000040140001002400000014000040048CB
:1021F00000080048000C0048001000480014004887
:102200000069084000D0012070470AB18161704721
:10221000816270470148806870470000000000201C
:1022200002488168426811448160704700000020C4
:1022300010B50024032000F073F80F2000F008F818
:1022400008B1012401E000F025F8204610BD00008F
:1022500070B50E4E05460024706898B14FF47A713F
:10226000B1FBF0F00A490968B1FBF0F000F040FD65
:1022700040B9102D06D200222946501E00F030F839
:10228000356000E00124204670BD00000000002001
:102290000C0000200A4882B0016E41F00101016685
:1022A000016E01F001010091816D41F08051816565
:1022B000806D00F08050009002B000F0A1B80000E6
:1022C00000100240002809DB00F01F0201219140AC
:1022D0004009800000F1E020C0F8001170470000C4
:1022E000F0B40E4B1B680C46C3F30223C3F1070581
:1022F000042D00D90425191D072901D2002300E06F
:10230000DB1E012606FA05F1491E214099409E4038
:10231000761E16403143F0BC02F03EBB0CED00E0EF
:10232000064900F0070208684FF6FF03184040EA2C
:102330000220034A10430860704700000CED00E0E3
:102340000000FA052B492C4B0A6832214A432B49DD
:1023500040B1B0F5007F086829D020F4C06040F497
:1023600080602CE00868C0F34120022804D051F8B6
:10237000800F20F4807022E0D1F8800020F480707B
:10238000C1F88000086820F4C06040F40070086064
:10239000B2FBF3F0401C00E0401E4A69520501D533
:1023A0000028F9D1486940050AD503207047C0F3D9
:1023B0004120022806D051F8800F40F48070086058
:1023C00000207047D1F8800040F48070C1F8800090
:1023D000086820F4C06040F400700860B2FBF3F0BD
:1023E000401C00E0401E4A695205DBD50028F9D1A7
:1023F000D8E700000C00002040420F0000700040B1
:102400000248816841F4804181607047007000405B
:102410002DE9F8430446006800269D4D00035ED573
:10242000A86D0027C00008D4A86D40F08050A865B2
:10243000A86D012700F080500090DFF85892D9F87D
:10244000001041F48071C9F80010FFF7E3FE8046E8
:1024500006E000BFFFF7DEFEA0EB080002282BD845
:10246000D9F80000C005F5D5D5F8900010F44070FB
:1024700014D0216C814211D0D5F89000D5F890107D
:1024800020F4407041F48031C5F89010D5F89010D8
:1024900021F48031C5F89010C5F89000C00711D024
:1024A000FFF7B8FE804641F2883907E0FFF7B2FE39
:1024B000A0EB0801494501D903260BE0D5F89000AF
:1024C0008007F3D5D5F89000216C20F440700843C4
:1024D000C5F890001FB1A86D20F08050A865207845
:1024E000C00707D0D5F88800616820F003000843D2
:1024F000C5F888002078800707D5D5F88800A1683E
:1025000020F00C000843C5F888002078400707D564
:10251000D5F88800E16820F030000843C5F888004D
:102520002078000707D5D5F88800216920F0C00081
:102530000843C5F888002078800607D5D5F88800BC
:10254000616920F440600843C5F88800207840069F
:1025500007D5D5F88800A16920F440500843C5F894
:1025600088002078000607D5D5F88800E16920F4B6
:1025700040400843C5F888002088C00507D5D5F835
:102580008800216A20F440300843C5F8880020887C
:10259000800507D5D5F88800616A20F440200843FB
:1025A000C5F88800208840050FD5D5F88800A16AB5
:1025B00020F440100843C5F88800A06AB0F5801FD9
:1025C00003D1E86840F48010E860208800050FD54A
:1025D000D5F88800E16A20F440000843C5F8880077
:1025E000E06AB0F5800F03D1E86840F48010E8603D
:1025F0002088C0040FD5D5F88800216B20F04070EA
:102600000843C5F88800206BB0F1807F03D1E868EB
:1026100040F48010E86020884FF0006180040ED5FF
:10262000D5F88800626B20F040601043C5F8880040
:10263000606B884203D1E86840F48010E86020882D
:1026400040040ED5D5F88800A26B20F040601043FE
:10265000C5F88800A06B884203D1E86840F4801078
:10266000E860208800040FD5D5F88800E16B20F0E1
:1026700040500843C5F88800E06BB0F1805F03D19B
:10268000E86840F48030E8603046BDE8F883000038
:1026900000100240007000402DE9F0470E46050092
:1026A0004FF0000725D0DFF8AC81D8F8000000F02B
:1026B0000F00B0420CD2D8F8001021F00F013143C6
:1026C000C8F80010D8F8000000F00F00B04210D198
:1026D0002968614CC80741F2883A5AD06868DFF827
:1026E0007C91032808D0022820682DD040050028BE
:1026F0002CDB0120BDE8F08720688001F9D5E06877
:1027000000F00302E068C0F30310401C032A19D054
:10271000534A00BFB2FBF0F0E268C2F30622504316
:10272000E268C2F34162521C5200B0FBF2F048452D
:1027300017D9A06810F0F00F0CD0880711D5A86841
:1027400040B10EE0474AE5E78003D0E700F092F899
:10275000484506D9A06820F0F00040F08000A06055
:102760008027A068696820F003000843A060FFF795
:1027700051FD814606E000BFFFF74CFDA0EB0901CB
:1027800051453AD8A068696800F00C00B0EB810FA1
:10279000F2D12868810714D5400703D5A06840F41A
:1027A000E060A0602878000705D5A06820F460509C
:1027B00040F4E060A060A068A96820F0F000084341
:1027C00004E0802F03D1A06820F0F000A060D8F8CA
:1027D0000010404601F00F01B14216D9016821F006
:1027E0000F0131430160FFF715FD074607E000BF09
:1027F000FFF710FDC11B514501D903207AE7D8F836
:10280000000000F00F00B042F2D12878400705D553
:10281000A068E96820F4E0600843A0602878000719
:1028200006D5A068296920F4605040EAC100A06084
:1028300000F020F8A1680C4AC1F30311515C01F0CB
:102840001F01C8400949086009480068BDE8F04711
:10285000FFF7FEBC002002400010024000B4C40498
:102860000024F40000366E01585100080C000020CE
:1028700000000020184910B58868C0F3810217488D
:10288000012A0BD08A68164BC2F38102022A06D0B5
:102890008A68C2F38102032A03D0002010BD1846C3
:1028A00010BDCA6802F00304CA68C2F30312521CC6
:1028B000032C02D0B0FBF2F001E0B3FBF2F0CA68E7
:1028C000C968C2F306225043C1F34161491C490063
:1028D000B0FBF1F010BD0000001002400024F40035
:1028E00000366E012DE9F84304007AD02078FA4DC5
:1028F000C00747D0A868E96800F00C0001F00301A8
:102900000C2802D0082817D001E0032914D06068F1
:10291000B0F5803F17D0B0F5A02F286817D020F46D
:1029200080302860286820F4802028606068E0B14A
:10293000FFF770FC064614E02868800322D5606823
:102940000028D2D01EE0286840F48030EDE740F443
:1029500080202860F7E700BFFFF75CFC801B64283D
:1029600070D828688003F7D50CE0FFF753FC0646C3
:1029700005E000BFFFF74EFC801B6428F0D82868F4
:102980008003F7D4207880074CD5A868E96800F068
:102990000C0001F003010C2802D004280DD001E046
:1029A00002290AD0E068002828682BD040F4807003
:1029B0002860FFF72FFC064619E02868400502D57D
:1029C000E068002891D06868217C20F0FE4040EA51
:1029D00001606860C1480068FFF73AFC002800D138
:1029E00020E076E1FFF716FC801B0228B8D82868A3
:1029F0004005F7D56868217C20F0FE4040EA016080
:102A000068600FE020F480702860FFF703FC064642
:102A100005E000BFFFF7FEFB801B0228A0D8286856
:102A20004005F7D42078000729D560690028D5F83B
:102A3000940013D040F00100C5F89400FFF7EAFBC2
:102A4000064606E090E000BFFFF7E4FB801B02288B
:102A500086D8D5F894008007F6D510E020F0010064
:102A6000C5F89400FFF7D6FB064604E0FFF7D2FB5B
:102A7000801B022878D8D5F894008007F6D42078F7
:102A8000400761D5A86D0026C00008D4A86D40F0AD
:102A90008050A865A86D012600F0805000909048F5
:102AA0000168C90511D40168804641F48071016054
:102AB000FFF7B0FB074604E0FFF7ACFBC01B0228A2
:102AC00052D8D8F80000C005F6D5A068012815D066
:102AD0000528D5F8900016D020F00100C5F8900028
:102AE000D5F8900020F00400C5F89000A06841F2ED
:102AF0008838B8B1FFF78EFB07460EE0D5F8900096
:102B000040F00100F0E740F00400C5F89000F5E760
:102B1000FFF780FBC11B414526D8D5F89000800700
:102B2000F6D50CE0FFF776FB074604E0FFF772FBF3
:102B3000C11B414518D8D5F890008007F6D41EB1C6
:102B4000A86D20F08050A8652078800629D5A0695E
:102B50000028D5F8980013D040F00100C5F898007F
:102B6000FFF758FB064606E077E000BFFFF752FB91
:102B7000801B022877D8D5F898008007F6D510E09A
:102B800020F00100C5F89800FFF744FB064604E07A
:102B9000FFF740FB801B022865D8D5F89800800716
:102BA000F6D4E069F0B3A968C1F38101032961D0CB
:102BB0000228286820F0807028600BD0E86820F098
:102BC0000300E860E86847490840E860FFF722FB37
:102BD00004464BE0FFF71EFB064604E0FFF71AFB36
:102BE000801B02283FD828688001F7D4F4E9080147
:102BF0006FF00F0202EB01110843218A52044908C9
:102C000002EB4151A26841EA02210843217D4FF0C5
:102C10007E42490802EB41610843217B40EAC160E2
:102C2000E96800E062E0304A11400843E860286843
:102C300040F080702860E86840F08070E860FFF73E
:102C4000E9FA044605E000BFFFF7E4FA001B02289A
:102C500009D828688001F7D548E004E0FFF7DAFAE0
:102C6000001B022802D90320BDE8F88328688001F0
:102C7000F4D43BE00128F7D0E868226A00F00301B1
:102C8000914226D1616A00F0F002090110399142A7
:102C90001FD1A26A00F4FE41B1EB022F19D194F8C2
:102CA0002C2000F07841B1EBC26F12D1218E00F4DC
:102CB000C00249084905A1F50011914209D194F8D3
:102CC000341000F0C06049084906A1F1007181424A
:102CD0000CD00120C8E700000010024000000020D6
:102CE00000700040FFFFEEFE0C809F010020BBE75C
:102CF00010B5401EB0F1807F01D3012010BD4FF010
:102D0000E02460610F21601701F046FE0020A06101
:102D100007202061002010BD704770477047704742
:102D200070477047F0B590F83C20012A3AD0012551
:102D300080F83C50022280F83D2003685A689C6865
:102D4000194E1A4FB34201D0BB4204D122F4700C89
:102D50004A6842EA0C02DFF858C002EA0C02D1F8D5
:102D600000C04CEA020CC3F804C00268B2420DD0A5
:102D7000B2F1804F0AD00F4B9A4207D00E4B9A42C5
:102D800004D0BA4202D00D4B9A4204D1896824F093
:102D900080031943916080F83D50002180F83C1079
:102DA0000846F0BD0220F0BD002C01400034014077
:102DB0008FFFFFFD0004004000080040004001407C
:102DC000704710B5040003D094F83D0010B107E03F
:102DD000012010BD002084F83C00204600F022F8BD
:102DE000022084F83D00211D206801F037FB0120FE
:102DF00084F8480084F83E0084F83F0084F84000DE
:102E000084F8410084F8420084F8430084F84400C8
:102E100084F8450084F8460084F8470084F83D00B3
:102E2000002010BD10B586B0044614216846FDF799
:102E30002AFB1F4A21681F48914223D1816D41F02E
:102E400002018165816D01F002010591C16C41F0C3
:102E50000101C164C06C002100F001000590402018
:102E600000900220CDE90101CDE9031069464FF041
:102E70009040FFF7E1F8002211461D20FFF730FADD
:102E80001D2010E00C4A91420FD1816D41F02001CC
:102E90008165806D002200F020000590012137201F
:102EA000FFF71EFA3720FFF70DFA06B010BD00003D
:102EB00000040040001002400014004090F83D1053
:102EC000012901D001207047022180F83D100168DE
:102ED000CA6842F00102CA600068104988420ED0F8
:102EE000B0F1804F0BD00E49884208D00D4988427E
:102EF00005D00D49884202D00C49884207D181682B
:102F00000B4A1140062906D0B1F5803F03D0016875
:102F100041F001010160002070470000002C0140D9
:102F2000000400400008004000340140004001401F
:102F30000700010070B5044690F83C00012814D049
:102F4000012584F83C50022084F83D0022689068F6
:102F5000344B184020F47F4090600868702827D0D8
:102F600010DC10F00F0F03D04AE04FF0020070BDEC
:102F70004FEA2012072A43D2DFE802F050505050A7
:102F800048313900284BC21A984247D009DCB0F5C5
:102F9000805F35D0B0F5005F15D0B0F1101F2FD194
:102FA0003CE0102A3AD0202A38D0502A28D135E0E7
:102FB000CB68D1E90121206801F0B5FA2068816869
:102FC00041F0770109E0CB68D1E90121206801F0E7
:102FD000AAFA2068816841F48041816010E0CA68E3
:102FE0004968206801F04AFC5021206806E0CA6860
:102FF0004968206801F08AFC6021206801F09EFA8F
:1030000084F83D50002084F83C0070BDCA684968CF
:10301000206801F033FC40212068EFE72268014678
:103020001046EBE788FFCEFF2000100010B51B4ACA
:10303000016891422BD1007F194C012828D0022829
:1030400025D10421174800F0ADFC164AE0620021AA
:1030500012685162401C00EB8001134A0901B2FB67
:10306000F1F100EE101A6422B8EE400A84ED050A70
:10307000A16A491C514300EE101AF8EE400A00EE16
:10308000100AB8EE400A80EE801A84ED061A10BDD0
:103090000021044800F086FCA06210BD000400403E
:1030A000100000200801002000B4C4042DE9F04104
:1030B000054690F83C000C46012836D0012085F8E2
:1030C0003C008AB3042A42D02868082A51D0D4E9A7
:1030D0000023E168066A26F480560662C669076A1C
:1030E00026F4407646EA03234FF6FF7606EA0131DE
:1030F00023F4704319434FF4204627F4204306EA93
:1031000002321A43C16102622868C16921F4406138
:10311000C1612868C169A26841EA0221C161002039
:1031200085F83C00BDE8F08101E00220FAE7D4E92F
:103130000012E368286801F0B3FB2868816921F078
:103140000C01816128688169A26811430FE0D4E90C
:103150000012E368286801F0EBFB2868816921F41C
:103160004061816128688169A26841EA0221816128
:10317000D5E7D4E90027267B016A21F4807101623A
:10318000C169036A21F00301394321F0F0073107D7
:103190004FF4206647EA116123F4206306EA022215
:1031A0001A43C16102622868C16921F00C01C16142
:1031B0002868C169A2681143B0E710B5040003D0C4
:1031C00094F83D0010B107E0012010BD002084F804
:1031D0003C00204600F022F8022084F83D00211D2A
:1031E000206801F03BF9012084F8480084F83E0093
:1031F00084F83F0084F8400084F8410084F84200DD
:1032000084F8430084F8440084F8450084F84600BC
:1032100084F8470084F83D00002010BD704700008E
:1032200010B5044679B1042912D0082915D00C290B
:1032300018D0102919D094F8430000BF94F8472003
:10324000012817D114E094F83E0094F84420F7E7E1
:1032500094F83F0094F84520F2E794F8400094F881
:103260004620EDE794F84100E8E794F84200E5E7EE
:10327000012A01D0012010BD022071B1042915D00E
:1032800008291CD00C2948D0102949D084F84300C3
:1032900084F847000C291BD145E084F83E0084F8EF
:1032A00044002068C26842F0020210E084F83F0047
:1032B00084F845002068C26842F0040207E084F800
:1032C000400084F846002068C26842F00802C260EC
:1032D0000122206801F01AF91549206888420ED0B1
:1032E000B0F1804F0BD01349884208D01249884270
:1032F00005D01249884202D01149884207D181681D
:10330000104A1140062906D0B1F5803F03D001686C
:1033100041F001010160002010BD84F84100B7E7D1
:1033200084F84200B4E72068C26842F01002CEE799
:10333000002C01400004004000080040003401401F
:10334000004001400700010070B5044600680169B3
:103350004FF00005C943890715D4C168C9438907DF
:1033600011D4E91E0161012020772068806980075F
:10337000204602D0FFF75AFE04E000F009F920468B
:1033800000F0DAF9257720680169C943490717D4A5
:10339000C168C943490713D46FF0040101610220D9
:1033A00020772068806910F4407F204602D0FFF724
:1033B0003DFE04E000F0ECF8204600F0BDF9257772
:1033C00020680169C943090716D4C168C9430907C0
:1033D00012D46FF008010161042020772068C069D1
:1033E0008007204602D0FFF721FE04E000F0D0F86D
:1033F000204600F0A1F9257720680169C943C90674
:1034000017D4C168C943C90613D46FF01001016114
:10341000082020772068C06910F4407F204602D041
:10342000FFF704FE04E000F0B3F8204600F084F952
:10343000257720680169C943C90708D1C168C94314
:10344000C90704D1891E0161204600F087FA20686F
:103450000169C943090609D4C168C943090605D4ED
:103460006FF0800101612046FFF757FC2068016979
:10347000C943C90509D4C168C943090605D46FF415
:10348000807101612046FFF747FC20680169C9434C
:10349000490609D4C168C943490605D46FF0400103
:1034A0000161204600F093FA20680169C94389064A
:1034B00009D4C168C943890605D46FF020010161B0
:1034C0002046FFF72BFC20680169C943C90209D4D3
:1034D000C168C943C90205D46FF480110161204657
:1034E000FFF71EFC20680169C943890209D4C1683D
:1034F000C943890205D46FF4001101612046FFF72A
:103500000EFC20680169C943490209D4C168C94356
:10351000490205D46FF4800101612046FFF701FCE8
:1035200020680169C94309020BD4C168C943090273
:1035300007D46FF4000101612046BDE87040FFF739
:103540003FBC70BD10B586B0044614216846FCF738
:103550009AFF2068B0F1804F15D10C48C16C41F042
:103560000101C164C06C694600F0010005900220B1
:1035700000900190002002900390012004904FF0F1
:103580009040FEF759FD06B010BD0000001002404B
:10359000704770B5044690F83C000D4601280BD0EA
:1035A000012084F83C000C2A45D007DC5AB1042ADB
:1035B0001BD0082A78D12CE0022070BD102A4ED0F2
:1035C000142A71D15DE0206800F0C2FF2068816993
:1035D00041F0080181612068816921F00401816165
:1035E000206881692A69114311E0206800F0FEFF1C
:1035F0002068816941F4006181612068816921F45A
:1036000080618161206881692A6941EA02218161C2
:103610004AE0206801F032F82068C16941F00801F1
:10362000C1612068C16921F00401C1612068C169DC
:103630002A69114311E0206801F068F82068C16927
:1036400041F40061C1612068C16921F48061C161F8
:103650002068C1692A6941EA0221C16124E0206829
:1036600001F09CF82068016D41F0080101652068B7
:10367000016D21F0040101652068016D2A69114383
:1036800011E0206801F0C2F82068016D41F400618A
:1036900001652068016D21F4806101652068016D7C
:1036A0002A6941EA02210165002084F83C0070BDCE
:1036B00010B5040003D094F83D0010B107E00120DC
:1036C00010BD002084F83C00204600F023F80220C2
:1036D00084F83D00211D206800F0C0FE012084F820
:1036E000480084F83E0084F83F0084F8400084F8E5
:1036F000410084F8420084F8430084F8440084F8D0
:10370000450084F8460084F8470084F83D00002016
:1037100010BD000008B50068B0F1804F08D1054821
:10372000816D41F001018165806D00F00100009024
:1037300008BD0000001002407047000030B504468C
:10374000022269B1042912D0082917D00C291CD0F3
:10375000102921D094F84300012824D0012030BD45
:1037600094F83E000128F9D184F83E201DE094F839
:103770003F000128F2D184F83F2016E094F8400081
:103780000128EBD184F840200FE094F84100012893
:10379000E4D184F8412008E094F842000128DDD10A
:1037A00084F8422001E084F843200122206800F0E0
:1037B000ADFE194B20681949194A984209D0884230
:1037C00007D0904205D0174DA84202D0164DA8420E
:1037D00003D1456C45F400454564206898420CD0FF
:1037E000B0F1804F09D0114B984206D0104B98424F
:1037F00003D0884201D0904207D181680D4A114020
:10380000062906D0B1F5803F03D0016841F00101DF
:103810000160002030BD0000002C01400034014058
:1038200000400140004401400048014000040040C5
:10383000000800400700010030B50446022269B1CB
:10384000042916D0082920D00C2929D010292ED0DF
:1038500094F84300012831D0012030BD94F83E0097
:103860000128F9D184F83E202068C26842F00202A3
:1038700009E094F83F000128EED184F83F20206849
:10388000C26842F00402C2601CE094F840000128C3
:10389000E2D184F840202068C26842F00802F2E7D2
:1038A00094F841000128D7D184F8412008E094F829
:1038B00042000128D0D184F8422003E084F843205C
:1038C0000C2935D00122206800F020FE1B49206819
:1038D0001B4A1C4B884209D0904207D0984205D021
:1038E000194DA84202D0194DA84203D1456C45F4A8
:1038F00000454564206888420CD0B0F1804F09D063
:103900001349884206D01349884203D0904201D01F
:10391000984207D18168104A1140062906D0B1F5B6
:10392000803F03D0016841F001010160002030BDFB
:103930002068C26842F01002A5E70000002C014098
:103940000034014000400140004401400048014073
:1039500000040040000800400700010010B50068A6
:103960000E49884219D10E4C206B401C3221B0FB0D
:10397000F1F2206301FB120008B901F0A7F8206BF7
:103980006421B0FBF1F201FB1200002805D101F027
:103990005FF8BDE8104001F073BA10BD001400409C
:1039A000100000200246002041B1042909D0082956
:1039B0000AD00C2901D11068006C70471068406B68
:1039C00070471068806B70471068C06B7047704715
:1039D000FEE7000000B585B014216846FCF753FDF2
:1039E0004FF6FF70009000200321CDE90201019005
:1039F00069460248FEF720FB05B000BD00080048FC
:103A000000B585B014216846FCF73DFD4FF6FF7008
:103A1000009001200190032003900020029069464D
:103A20000248FEF709FB05B000BD00000008004891
:103A300070B5002406462146204600F003F900F048
:103A400041F94FF49635304600F010F9641CAC4251
:103A5000F9D370BD30B587B014216846FCF713FD6B
:103A60001E48C16C41F00401C164C16C01F0040145
:103A70000591C16C41F00101C164C16C01F001010B
:103A80000591C16C41F00201C164C06C012500F0D8
:103A9000020005904FF44870CDE90005002403941E
:103AA000694602940E48FEF7C7FA28020394009074
:103AB000CDE901544FF0904469462046FEF7BCFA28
:103AC000FFF79EFFA06940F48070A06104481830A1
:103AD000016841F40871016007B030BD0010024078
:103AE00000040048203AD2B2034B02EB420203EB3F
:103AF000021200F019B8000068510008F0B50E4637
:103B00000746002540F23F1407E021463846FFF7FC
:103B1000E9FF103C6D1CA4B2761C3278002A01D05B
:103B2000142DF2D3F0BD00002DE9F04791468A46EE
:103B30000026044600F086F8DFF84080012700BF29
:103B400000F0C0F85FF0000539F8160007FA05F13B
:103B50000842404601D1408800E0008800F086F825
:103B60006D1C102DF0D3641CE4B25146204600F0C9
:103B700069F8761C182EE3D3BDE8F08748000020D2
:103B800010B5FFF767FF002000F014F8084CA08084
:103B9000A088A0F50241303906D000F00DFB0020CE
:103BA00000F008F8A08010BD00F07DFAF7E70000F3
:103BB0004800002070B51D490A6842F400720A608E
:103BC0000A6842F480720A60184C103C226842F085
:103BD00020022260164A1060086840F02000086049
:103BE00000BF00BF00BF206840F0200020602068B8
:103BF00040F480702060FFF7EDFE4FF09041886A3E
:103C000040F48070886200BF00BF00BF0848001FFA
:103C1000006885B2886940F480708861FFF7F0FE23
:103C2000206840F400702060284670BD28040048D9
:103C30001408004801B5BDF800000149488008BDDE
:103C40004800002010B50C460146202000F068F81E
:103C50002146BDE81040212000F062B801B5BDF852
:103C600000000149088008BD48000020134A11687F
:103C700041F400711160114910390B6843F48073ED
:103C80000B600B6843F020030B600D4B186010684D
:103C900040F02000106000BF00BF00BF086840F087
:103CA00020000860086840F48070086000BF00BF12
:103CB00000BF086840F4007008607047280400489E
:103CC000140800481449086840F400700860086847
:103CD00040F48070086010481038026842F02002FA
:103CE00002600E4B22221A600A6842F020020A602B
:103CF00000BF00BF00BF016841F020010160016802
:103D000041F48071016000BF00BF00BF016841F451
:103D10000071016070470000280400481408004842
:103D2000184B10B51A6842F400721A601A6842F40F
:103D300080721A60134A103A146844F02004146028
:103D4000114C2060186840F02000186000BF00BFD0
:103D500000BF106840F020001060106840F48070D0
:103D600010602160186840F02000186000BF00BF9C
:103D700000BF106840F020001060106840F48070B0
:103D8000106010BD280400481408004800EB8100B2
:103D9000006E00F0F84070478068C0F3C0007047C4
:103DA0008068C0F380007047C06810F4406F01D095
:103DB0000020704701207047042303EAD15310B557
:103DC00018444369C1F3045107248C40A3438A403B
:103DD0001343436110BD00EB8100016E21F00041EF
:103DE000114301667047000030B589B02021684654
:103DF000FCF749FB19481849002401604912C0E941
:103E00000114C46004250461C0E9054504774477C2
:103E10000121016280F82440C462046380F83840C4
:103E2000C46380F84040FDF739FF08B1FDF798FB07
:103E30000B4800900620CDE901047F200594CDE9D0
:103E4000030569460548FDF7DDFB002801D0FDF7B5
:103E500087FB09B030BD0000000100505000002079
:103E60000080F03EF0B587B014216846FCF70BFBEC
:103E70002D48C16C41F00401C164C16C01F0040122
:103E80000591C16C41F02001C164C16C01F02001B9
:103E90000591C16C41F00101C164C16C01F00101E7
:103EA0000591C16C41F00201C164C16C01F00201D5
:103EB0000591C16C41F00801C164C06C1B4E00F05B
:103EC00008004FF47F440590012221463046FEF75A
:103ED0009CF9174F012204213846FEF796F9012577
:103EE000CDE9004500240294694630460394FEF76C
:103EF000A3F8CDE9005469464FF090400295FEF7D3
:103F00009BF807208DE8310069460A48FEF794F8CF
:103F100004200090CDE90154694638460394FEF729
:103F20008BF807B0F0BD0000001002400008004808
:103F3000000C00480004004810B58AB00024079423
:103F400008941C2168460994FCF79DFA16484FF026
:103F5000804101604F21C0E9011440F2E731C0E91E
:103F600003148461FFF7A4FB08B1FDF7F9FA079485
:103F700007A90D480994FEF7D5FE08B1FDF7F0FA40
:103F80006020009040F22B10CDE901040422694624
:103F900005480494FFF7FDFA08B1FDF7E1FA02487D
:103FA000FFF7D0FA0AB010BDBC00002030B58BB0CE
:103FB00000240594274804940694079408940A94CE
:103FC00009940094019402942149039401604F21C3
:103FD000C0E901144FF6FF71C0E903148461FEF7D4
:103FE000F0FE08B1FDF7BCFA4FF48050049004A92C
:103FF0001848FEF79FFF08B1FDF7B2FA1548FFF722
:10400000DCF808B1FDF7ACFA089408A911480A9445
:10401000FEF788FE08B1FDF7A3FA022501200095FE
:10402000CDE90104002269460A480394FFF73EF8EF
:1040300008B1FDF795FA042269460648CDE9004526
:10404000FFF734F8002801D0FDF78AFA0BB030BD35
:1040500000040040080100203EB500240F480094F1
:1040600001940D49029401604F21C0E9011440F20E
:10407000E7318461C160FEF7A4FE08B1FDF770FA74
:104080000094694605480294FEF74CFE002801D0D2
:10409000FDF766FA3EBD0000001400405401002008
:1040A000FEE7FEE7704730B501210020FFF738FE3C
:1040B0004FF47A70FDF746FA00210120FFF730FE39
:1040C00041F290711020FFF72BFE4FF41C5160203D
:1040D000FFF726FE01216120FFF722FE0221462084
:1040E000FFF71EFE48F210011320FFF719FE48F2F9
:1040F000FE011220FFF714FE4FF4A0610220FFF72B
:104100000FFE41F230010320FFF70AFE40F20334B4
:1041100021463020FFF704FE21463120FFF700FE44
:1041200021463220FFF7FCFDE51E29463320FFF72C
:10413000F7FD03213420FFF7F3FD21463520FFF77B
:10414000EFFD14213620FFF7EBFD21463720FFF766
:10415000E7FD21463820FFF7E3FD21463920FFF730
:10416000DFFD29463A20FFF7DBFD03213B20FFF767
:10417000D7FD21463C20FFF7D3FD4FF4A0513D2051
:10418000FFF7CEFD4FF400719220FFF7C9FD2146E5
:104190009320FFF7C5FD40F60D019020FFF7C0FD0D
:1041A00041F218010320FFF7BBFDBDE8304040F2AB
:1041B00073110720FFF7B4BD10B543F20801E320E7
:1041C000FFF7AEFD1221E720FFF7AAFD41F23121F2
:1041D000EF20FFF7A5FD00210120FFF7A1FD4FF41F
:1041E000E0610220FFF79CFD41F230010320FFF760
:1041F00097FD00210420FFF793FD40F207210820DE
:10420000FFF78EFD00210920FFF78AFD00210A201B
:10421000FFF786FD00210C20FFF782FD00210D2015
:10422000FFF77EFD00210F20FFF77AFD002110200F
:10423000FFF776FD07211120FFF772FD0021122004
:10424000FFF76EFD00211320FFF76AFDC820FDF780
:10425000E1FE41F290611020FFF762FD40F227215C
:104260001120FFF75DFD3220FDF7D4FE1D21122045
:10427000FFF756FD3220FDF7CDFE4FF4006113200D
:10428000FFF74EFD14212920FFF74AFD0B212B20BB
:10429000FFF746FD3220FDF7BDFE00212020FFF78D
:1042A0003FFD00212120FFF73BFD07213020FFF7D4
:1042B00037FD40F207713120FFF732FD0621322031
:1042C000FFF72EFD40F204713520FFF729FD41F67E
:1042D00004713620FFF724FD04213720FFF720FD6D
:1042E00000213820FFF71CFD40F206713920FFF74E
:1042F00017FD40F201713C20FFF712FD0F213D2018
:10430000FFF70EFD00215020FFF70AFDEF2151209D
:10431000FFF706FD00215220FFF702FD40F23F119A
:104320005320FFF7FDFC4FF41C516020FFF7F8FC11
:1043300001216120FFF7F4FC00216A20FFF7F0FC67
:1043400000218020FFF7ECFC00218120FFF7E8FC32
:1043500000218220FFF7E4FC00218320FFF7E0FC2E
:1043600000218420FFF7DCFC00218520FFF7D8FC2A
:1043700010219020FFF7D4FC00219220FFF7D0FC01
:1043800003219320FFF7CCFC4FF488719520FFF7B1
:10439000C7FC00219720FFF7C3FC00219820FFF7FE
:1043A000BFFC41F218010320FFF7BAFCBDE8104042
:1043B00040F273110720FFF7B3BC7047FDF730BF21
:1043C00010B594B038216846FCF75DF814210EA8AA
:1043D000FCF759F84FF40070FDF7B4FF012000908E
:1043E0000004019002200324CDE907041421CDE943
:1043F0000A100C900D9009946846FEF773FA08B104
:1044000072B6FEE70F20CDE90E0400201090119047
:10441000129002210EA8FEF73FF9002801D072B6D3
:10442000FEE714B010BD00000548016841F47001BA
:10443000016003494FF00060803908607047000058
:1044400088ED00E00148FEF77FBF00000801002072
:104450000148FEF779BF0000540100202DE9F04328
:104460000268234B234D244E244C4FF08049984240
:1044700007D0484505D0A84203D0B04201D0A042A1
:1044800003D122F070074A683A431D4FDFF874C029
:10449000DFF8748098420DD048450BD0A84209D06F
:1044A000B04207D0A04205D0B84203D0604501D049
:1044B000404503D122F44075CA682A434D6922F071
:1044C00080022A4302608A68C2620A688262984255
:1044D00007D0A04205D0B84203D0604501D0404586
:1044E00001D10969016301214161BDE8F083000048
:1044F000002C01400004004000080040003401404E
:1045000000400140004401400048014010B501F066
:104510001F030121046A99408C430462016A9A4096
:104520001143016210BD10B5846842EA032224F4ED
:104530007F440A432243826010BD00008268034B1F
:104540001A400A4342F00701816070478FFFCFFF96
:104550002DE9F043026A22F001020262056A436813
:1045600082691C4C25F0020522400C6822F00302EF
:1045700014438A68194E2A43174D194FDFF864C057
:10458000DFF86490A84207D0B04205D0B84203D00B
:10459000604501D0484506D122F00808CA6842EAC1
:1045A000080222F00402A84207D0B04205D0B84267
:1045B00003D0604501D0484505D14D6923F44073CF
:1045C0001D438B692B4343608461496841630262E8
:1045D000BDE8F0838FFFFEFF002C01400034014056
:1045E000004001400044014000480140F0B5026A2B
:1045F00022F010020262056A42688369194C1B4E60
:1046000023400C6823F4407343EA042425F020037C
:104610008D6843EA0513144DA84201D0B04206D17B
:10462000CF6823F0800343EA071323F04003A84236
:104630000AD0B04208D00E4DA84205D00D4DA84278
:1046400002D00D4DA84207D14D6922F4406242EAE2
:1046500085028D6942EA850242608461496881630E
:104660000362F0BDFF8FFFFE002C014000340140CB
:10467000004001400044014000480140F0B5026A9A
:1046800022F480720262056A4368C269194C1B4EAB
:1046900022400C6822F00302144325F400728D6856
:1046A00042EA0522144DA84201D0B04206D1CF689B
:1046B00022F4006242EA072222F48062A8420AD071
:1046C000B04208D00E4DA84205D00E4DA84202D0EF
:1046D0000D4DA84207D14D6923F4405343EA051319
:1046E0008D6943EA05134360C4614968C16302628E
:1046F000F0BD00008FFFFEFF002C014000340140A0
:10470000004001400044014000480140F0B5026A09
:1047100022F480520262056A4268C369194C1B4E3A
:1047200023400C6823F4407343EA042425F4005327
:104730008D6843EA0533144DA84201D0B04206D13A
:10474000CF6823F4004343EA073323F48043A842AD
:104750000AD0B04208D00E4DA84205D00D4DA84257
:1047600002D00D4DA84207D14D6922F4404242EAE1
:1047700085128D6942EA85124260C461496801640C
:104780000362F0BDFF8FFFFE002C014000340140AA
:1047900000400140004401400048014030B5026A39
:1047A00022F480320262046A4268036D114D2B408C
:1047B0000D681D4324F400330C8943EA04430E4C76
:1047C000A0420BD00D4CA04208D00D4CA04205D009
:1047D0000C4CA04202D00C4CA04204D14C6922F4F3
:1047E000803242EA042242600565496881640362BE
:1047F00030BD00008FFFFEFF002C0140003401405F
:1048000000400140004401400048014030B5026AC8
:1048100022F480120262046A4268036D114D24F48E
:1048200000142B400D6843EA05230D8944EA055422
:104830000D4DA8420BD00D4DA84208D00C4DA842FA
:1048400005D00C4DA84202D00B4DA84204D14D69B1
:1048500022F4802242EA8522426003654968C164ED
:10486000046230BDFF8FFFFE002C01400034014088
:1048700000400140004401400048014010B5036A77
:10488000046A24F001040462846924F0F00444EA18
:10489000021423F00A020A438461026210BD000080
:1048A00070B5046A24F0010404628469056A124E3A
:1048B000B0420ED0B0F1804F0BD0104EB04208D0B5
:1048C0000F4EB04205D00F4EB04202D00E4EB04255
:1048D00003D124F00304144301E044F001041A0757
:1048E00024F0F00444EA126225F00A0301F00A0100
:1048F00019438261016270BD002C01400004004038
:1049000000080040003401400040014010B5036A37
:1049100023F0100303628369046A23F4704343EABB
:10492000023224F0A00343EA01118261016210BD4A
:1049300030B5046A24F0100404628469056A24F422
:10494000407444EA022222F470444FF6FF7202EAF5
:1049500003322243A02425F0A00304EA01111943E5
:104960008261016230BDFEE703B401984100009806
:1049700050EAC12018BF04204A0D18BF40F00100C2
:1049800040F2FF72B2EB515F08BF40F00200012815
:1049900008BF052002B070470907090E002804DB94
:1049A00000F1E02080F80014704700F00F0000F1E3
:1049B000E02080F8141D704730380A2801D2012009
:1049C000704700207047000010B51D48FDF7A8FA99
:1049D0001B48FDF729F800EE100ADFED1A0A1B4903
:1049E000B8EE400A20EE200ADFED170A60EE200A3A
:1049F000C1ED0D0ABCEEE00A10EE100AC0B201EEE5
:104A0000100AB8EE411A30EEC11AF2EE040A21EE95
:104A1000201ABCEEC11A11EE100AC0B201EE100A43
:104A200010EE100AF8EE411AC0B200EE100A81EE44
:104A3000A01AB8EE400A31EE000A81ED020A10BD5C
:104A40005000002033335340000080391000002014
:104A500070B51C4C1C480025D4ED030A94ED020AE5
:104A6000026840F2E731F4EEC00AF1EE10FA15DB0D
:104A7000D4ED040AF4EEC00AF1EE10FA0ED8D162B9
:104A8000C16001684D62006840F2BB21816304216E
:104A90000D48FEF753FE0120207170BD237913B13C
:104AA00063785B1C6370D162C16001684D6200680D
:104AB00040F22B11816304210348FEF73FFE25716C
:104AC00070BD000010000020BC0000202DE9F05F48
:104AD0005F4C01212046FDF793FB5E4E02213070B2
:104AE0002046FDF78DFB707004212046FDF788FB02
:104AF000B07001214FF09040FDF782FB0024371D7C
:104B0000DFF85481F0704FF47A794FF0020A4FF0D9
:104B1000010B3D1D305D0028385D01D038B112E039
:104B2000012810D1FDF776FB48F824000BE0FDF7D3
:104B300071FB58F82410401A484502D905F804A022
:104B400001E005F804B0641C042CE3DB41482A783A
:104B50001C38002172B1012A0BD10278521CD2B24A
:104B60000270022A02D0012A02D002E0017000E0A5
:104B7000817029706A789FED390A32B3012A23D1F6
:104B80000278012A20D18278354B9FED361A12B176
:104B9000012A0DD018E0D0ED030A70EE800A10EE65
:104BA000902AC0ED030A9A420EDD80ED031A0BE055
:104BB000D0ED040A70EE800A10EE902AC0ED040ACF
:104BC0009A4201DD80ED041A6970AA783AB3012A8D
:104BD00024D10278012A21D18278DFED230A12B193
:104BE000012A0ED01AE090ED031A31EE400A80ED52
:104BF000030AB5EEC00AF1EE10FA0FD2C0ED030AB7
:104C00000CE090ED041A31EE400A80ED040AB5EE96
:104C1000C00AF1EE10FA01D2C0ED040AA970EA78D8
:104C200062B1012A09D10278012A06D18278521C88
:104C3000D2B28270022A00D18170E9703078387067
:104C400070787870B078B870F078F870BDE8F09F40
:104C5000000400482C000020A00100209A99993EF1
:104C600033335340000000003333534010B51DA1CF
:104C70002248FBF731FB214821A12830FBF72CFB10
:104C80001E4818A15030FBF727FB234CA06800F00A
:104C9000EBF941EC100B194853EC102B1FA17830A5
:104CA000FBF71AFB1548627822A1A030FBF714FB32
:104CB00012480CA1C830FBF70FFB104809A1F030D7
:104CC000FBF70AFB07A12148FBF706FB1F4805A1DC
:104CD0002830FBF701FB1D48BDE8104001A1503012
:104CE000FBF7FABA2020202020202020202020209E
:104CF000202020202020202000000000B0010020E3
:104D00002020202020202020444154412020202009
:104D10002020202000000000100000202020202063
:104D20002020565233373A252E3166562020202037
:104D3000000000002020202020434F554E543A25EB
:104D4000642020202020202000000000C802002035
:104D500010B520A12548FBF7BFFA244824A128302C
:104D6000FBF7BAFA21481BA15030FBF7B5FA264CE5
:104D7000E06800F079F941EC100B1C4853EC102B63
:104D800022A17830FBF7A8FA206900F06DF941EC18
:104D9000100B164853EC102B22A1A030FBF79CFA05
:104DA00012480CA1C830FBF797FA104809A1F0305F
:104DB000FBF792FA07A12148FBF78EFA1F4805A1DD
:104DC0002830FBF789FA1D48BDE8104001A150309A
:104DD000FBF782BA20202020202020202020202025
:104DE000202020202020202000000000B0010020F2
:104DF000202020202020202050415241202020200F
:104E00002020202000000000100000202020202072
:104E100020202055503A252E3166202020202020A9
:104E2000000000002020202020444F574E3A252E1D
:104E3000316620202020202000000000C802002031
:104E400070B50D48007810B1012803D004E0FFF7D9
:104E50000DFF01E0FFF77CFF084D002404EB840008
:104E600005EBC00104EB4400C006000EFEF746FE51
:104E7000641C0A2CF2DB70BD10000020B001002081
:104E800010B5194C2078E0B10021012000F02EF877
:104E90002078012817D00021022000F027F8D4ED57
:104EA000030A94ED020AF4EEC00AF1EE10FA0CDBEC
:104EB000D4ED040AF4EEC00AF1EE10FA05D801218F
:104EC0000CE00121E1E70121E6E7E078401CC0B2F7
:104ED000E070022801D10020E070C1B2BDE81040AE
:104EE000082000F003B80000100000202DE9F04772
:104EF000134C054688462068124F86B2F888206019
:104F0000DFF84490012204214846FDF77EF94FF472
:104F100080716D1EA9400A4889B21438B8F1000F9B
:104F200001D0002200E00122FDF76FF92068F8802F
:104F3000002204214846FDF768F92660BDE8F087A5
:104F40001408004810000020000C0048FDF770F91C
:104F5000FFF736FAFEF786FFFFF77EF8FEF744FF0D
:104F6000FEF7EAFFFFF722F8002204212748FDF7A9
:104F70004CF900210120FFF7B9FF00210220FFF7C3
:104F8000B5FF00210320FFF7B1FF00210420FFF748
:104F9000ADFF00210520FFF7A9FF00210620FFF744
:104FA000A5FF00210720FFF7A1FF00210820FFF740
:104FB0009DFF01210846FFF799FF1548FDF77EFF89
:104FC000FEF7DEFD0020FEF733FD4FF6FF70FEF723
:104FD00045FE0020FEF72EFE7F210E48FCF7C2FAA8
:104FE00004210D48FEF728FC0B4940F22B100968FC
:104FF000486200210948FEF713F904210748FEF72B
:105000000FF900BF00F00CF8FCE70000000C0048AE
:105010005401002050000020BC00002008010020A6
:1050200010B5FFF7D1FCBDE81040FFF709BF000045
:1050300010B500290AD00878002807D00548784420
:10504000FBF700FE002801D0002010BD0248784484
:1050500010BD0000AE130000A61300000808A0F564
:1050600000114FEA3101704743004FEAD30C4FEA79
:105070003C0C43401FBF40070CF1605113F0FE4F42
:1050800070471CF0006F03D100200CF00041704706
:105090000CF0004343EA507010B540EACC0000F039
:1050A0000EF800BF000000924FEA0001FFF7D6BFE4
:1050B0004FF000414FF00000A1F5002170470EF1C4
:1050C000020E2EF0030E5EF8044B244204D44FEA85
:1050D0004102B2F17F4F11D84FEA4003B3F17F4F45
:1050E0000CD80ED14FEAD07CB2F17F4F0CEB4C0CB8
:1050F0000CF1020C08BF4CEBD17C04E04FF0080C23
:1051000001E04FEAD17C0CEB4C0324FA03F404F0E9
:105110000704B4F1040C06D20EEB840CBDE8104079
:105120004CF0010C6047DFE80CF0070802024FF07A
:105130000040A0F5800010BD0846420018BFD2F123
:10514000807288BF00F0004010BD4FF04070E1EE6B
:10515000100A7047FBF7F3BA0000000000000000DF
:105160000102030406070809000000000000000017
:10517000000000000000000000000000000000002F
:10518000000000000000000000000000000000001F
:10519000000000000000000000008001800180018C
:1051A00080018001800180018001800180018001F7
:1051B00080018001000000008001800100000000EB
:1051C000000000000000000000000000CC00CC0047
:1051D000CC00CC00CC00CC0000000000000000009F
:1051E00000000000000000000000000000000000BF
:1051F00000000000000000000000000000000000AF
:1052000000000000600C600C600C30063006FE1FD1
:10521000FE1F300638071803FE1FFE1F1803180371
:105220008C018C018C01000000008000E003F80F6D
:105230009C0E8C1C8C188C009800F801E007800EE6
:10524000801C8C188C189C18B80CF00FE0038000A0
:1052500080000000000000000000000000000E18A8
:105260001B0C110C11061106110311039B018E0179
:10527000C038C06C60446044304430441844186CFA
:105280000C380000000000000000E001F0033807C7
:10529000180618063003F001F000F8009C310E33B8
:1052A000061E061C061C063FFC73F02100000000D1
:1052B0000000000000000000000000000C000C00D6
:1052C0000C000C000C000C000000000000000000AE
:1052D00000000000000000000000000000000000CE
:1052E0000000000000000000000000020003800138
:1052F000C000C000600060003000300030003000AE
:10530000300030003000300060006000C000C0009D
:105310008001000300020000000020006000C000C7
:10532000800180010003000300060006000600065D
:10533000000600060006000600030003800180014D
:10534000C00060002000000000000000000000001D
:1053500000000000C000C000D806F807E0013003DC
:1053600038070000000000000000000000000000FE
:10537000000000000000000000000000000000002D
:105380000000000080018001800180018001FC3F5D
:10539000FC3F80018001800180018001000000004D
:1053A00000000000000000000000000000000000FD
:1053B00000000000000000000000000000000000ED
:1053C00000000000000000000000800180010001DA
:1053D000000180000000000000000000000000004C
:1053E00000000000000000000000000000000000BD
:1053F000E007E007000000000000000000000000DF
:10540000000000000000000000000000000000009C
:10541000000000000000000000000000000000008C
:1054200000000000000000000000C000C0000000FC
:1054300000000000000000000000000C000C00064E
:1054400000060006000300030003800380018001C2
:105450008001C000C000C0006000600000000000CB
:1054600000000000000000000000E003F007380E1C
:10547000180C0C180C180C180C180C180C180C180C
:105480000C180C18180C380EF007E0030000000090
:105490000000000000000000000000018001C001C9
:1054A000F001980188018001800180018001800164
:1054B00080018001800180018001800100000000E6
:1054C00000000000000000000000E003F80F180CCE
:1054D0000C180C1800180018000C000600038001BE
:1054E000C000600030001800FC1FFC1F000000001E
:1054F00000000000000000000000E001F807180EA6
:105500000C0C0C0C000C0006C003C007000C0018AB
:1055100000180C180C18180CF807E0030000000025
:1055200000000000000000000000000C000E000F52
:10553000000F800DC00C600C600C300C180C0C0CB3
:10554000FC3FFC3F000C000C000C000C00000000B5
:1055500000000000000000000000F80FF80F180025
:1055600018000C00EC03FC071C0E001C00180018AF
:1055700000180C181C0C180EF807E00300000000BF
:1055800000000000000000000000C007F00F381C01
:10559000181818000C00CC03EC0F3C0E1C1C0C1847
:1055A0000C180C18181C380EF007E003000000005F
:1055B00000000000000000000000FC1FFC1F000CA9
:1055C00000060006000380038001C001C000E00067
:1055D000600060007000300030003000000000000B
:1055E00000000000000000000000E003F007380E9B
:1055F000180C180C180C3806F007F007180C0C18CB
:105600000C180C180C18380CF80FE0030000000000
:1056100000000000000000000000E003F007380E6A
:105620001C0C0C180C180C181C1C381EF81BE0194C
:105630000018000C000C1C0EF807F0010000000020
:10564000000000000000000000000000000000005A
:105650000000000080018001000000000000000048
:105660000000000000000000800180010000000038
:10567000000000000000000000000000000000002A
:105680000000000080018001000000000000000018
:105690000000000000000000800180010001000106
:1056A000800000000000000000000000000000007A
:1056B00000000000000000000010001C800FE0034C
:1056C000F8001800F800E003800F001C0010000034
:1056D00000000000000000000000000000000000CA
:1056E0000000000000000000F81F000000000000A3
:1056F000F81F000000000000000000000000000093
:105700000000000000000000000000000000000099
:10571000000000000000000008003800F001C00791
:10572000001F0018001FC007F0013800080000002B
:1057300000000000000000000000E003F80F180C5B
:105740000C180C180018000C000600038001C000A3
:10575000C000C00000000000C000C0000000000049
:10576000000000000000000000000000E007181822
:105770000420C229224A1144094409440944092247
:105780001113E20C024004201818E007000000008A
:105790000000000000000000000080038003C0063D
:1057A000C006C006600C600C301830183018F83F86
:1057B000F83F1C700C600C6006C006C000000000C2
:1057C00000000000000000000000FC03FC0F0C0CB7
:1057D0000C180C180C180C0CFC07FC0F0C180C30D7
:1057E0000C300C300C300C18FC1FFC0700000000C3
:1057F00000000000000000000000C007F01F383863
:105800001C300C700660060006000600060006004C
:10581000060006600C701C30F01FE007000000005E
:1058200000000000000000000000FE03FE0F060E56
:1058300006180618063006300630063006300630E8
:10584000063006180618060EFE0FFE0300000000C4
:1058500000000000000000000000FC3FFC3F0C00C6
:105860000C000C000C000C00FC1FFC1F0C000C00BA
:105870000C000C000C000C00FC3FFC3F0000000082
:1058800000000000000000000000F83FF83F180092
:105890001800180018001800F81FF81F180018004A
:1058A0001800180018001800180018000000000068
:1058B00000000000000000000000E00FF83F3C780E
:1058C0000E6006E007C00300030003FE03FE03C0F2
:1058D00007C006C00EC03CF0F83FE00F000000001B
:1058E000000000000000000000000C300C300C3004
:1058F0000C300C300C300C30FC3FFC3F0C300C30CA
:105900000C300C300C300C300C300C30000000002F
:105910000000000000000000000080018001800104
:10592000800180018001800180018001800180016F
:105930008001800180018001800180010000000061
:105940000000000000000000000000060006000645
:105950000006000600060006000600060006000617
:105960000006180618063807F003E00100000000E2
:105970000000000000000000000006300618060CC1
:10598000060606038601C60066007600DE008E016C
:1059900006030606060C0618063006600000000026
:1059A00000000000000000000000180018001800AF
:1059B0001800180018001800180018001800180027
:1059C0001800180018001800F81FF81F0000000049
:1059D000000000000000000000000EE01EF01EF0BD
:1059E0001EF036D836D836D836D866CC66CC66CCDB
:1059F000C6C6C6C6C6C6C6C686C386C300000000E5
:105A0000000000000000000000000C301C303C30A2
:105A10003C306C306C30CC30CC308C310C330C33AF
:105A20000C360C360C3C0C3C0C380C3000000000E2
:105A300000000000000000000000E007F81F1C3814
:105A40000E70066003C003C003C003C003C003C0E0
:105A500003C006600E701C38F81FE007000000004D
:105A600000000000000000000000FC0FFC1F0C38CC
:105A70000C300C300C300C300C18FC1FFC070C00E8
:105A80000C000C000C000C000C000C0000000000CE
:105A900000000000000000000000E007F81F1C38B4
:105AA0000E70066003E003C003C003C003C003C060
:105AB00007E006630E3F1C3CF83FE0F700C0000023
:105AC00000000000000000000000FE0FFE1F06386E
:105AD0000630063006300638FE1FFE0706030606AF
