:020000040800F2
:10000000F0090020F1010008034C0008BB3F000884
:10001000014C0008050A00087D610008000000008E
:1000200000000000000000000000000091500008E7
:10003000B70A000800000000054C000893500008B3
:100040000B0200080B0200080B0200080B0200085C
:100050000B0200080B0200080B0200080B0200084C
:100060000B0200080B0200080B020008090A000836
:100070000B0200080B0200080B0200080B0200082C
:100080000B020008000000000B0200080B02000831
:100090000B0200080B0200080B0200080B0200080C
:1000A000155100080B0200080B0200080B020008A3
:1000B000215100082D5100080B0200080B02000816
:1000C0000B0200080B0200080B0200080B020008DC
:1000D0000B020008716100080B0200080B02000807
:1000E0000B0200081D4F00080B0200080B0200085D
:1000F0000B0200080B020008455100080000000038
:10010000000000000B020008000000000B020008C5
:100110000B020008000000000B0200083951000823
:100120000B0200080B0200080B0200080B0200087B
:100130000B02000800000000000000000B02000895
:100140000B0200080B020008000000000000000085
:10015000000000000000000000000000000000009F
:100160000000000000000000000000000B0200087A
:100170000B0200080000000000000000000000006A
:10018000000000000B02000800000000000000005A
:10019000000000000000000000000000000000005F
:1001A00000000000000000000B0200080B02000825
:1001B0000B0200080B0200080B0200080000000000
:1001C000000000000B02000800000000000000001A
:1001D0000B0200080B020008DFF810D000F01AFB39
:1001E0000048004761710008AFF30080F00900206B
:1001F0000648804706480047FEE7FEE7FEE7FEE7C1
:10020000FEE7FEE7FEE7FEE7FEE7FEE70551000832
:10021000D90100082DE9F05F0546002092469B4673
:1002200088460646814640241BE02846414647460C
:10023000224600F005F953465A46C01A914110D3A0
:1002400011461846224600F0ECF82D1A67EB01081B
:100250004F4622460120002100F0E3F817EB000989
:100260004E41201EA4F10104DFDC484631462A46F7
:100270004346BDE8F09FD2B201E000F8012B491ED1
:10028000FBD270470022F6E710B513460A46044633
:100290001946FFF7F0FF204610BD2DE9FE4F81EA19
:1002A000030404F0004421F0004100944FF0000BDF
:1002B00023F0004350EA01045ED052EA03045BD00D
:1002C000C3F30A54C1F30A552C44A4F2F334019445
:1002D000A0FB0254C1F3130141F48011C3F31303D3
:1002E00043F4801301FB024400FB034E840A970A87
:1002F00044EA815447EA8357A4FB076802958D0AB4
:1003000005FB07854FEA932C04FB0C542705029D3F
:100310004FEA065847EA1637B5EB08056EEB070CAF
:10032000870E920E47EA811742EA8312A7FB020169
:10033000B6EB0B0164EB00042B0D43EA0C335E18A3
:1003400044EB1C50DA465146E7FB0201C5F31304A7
:100350004FEA0B3343EA14534FEA0432019C43EA59
:100360000603A4F10C040294009CCDE900B400F053
:10037000BDF803B0BDE8F08F00200146F9E70EB5E7
:1003800040F2334102910021CDE900110A460B46AB
:1003900000F0ACF803B000BD00F0004230F00040C7
:1003A0000AD0C10D01F56071C0F3160042EA015197
:1003B000C20840071143704700200146704701F012
:1003C000004330B421F0004150EA010206D00A0D8A
:1003D000A2F56072C1F31301002A02DC30BC0020D8
:1003E0007047440F44EAC104C100E01830BC00EB80
:1003F000C25000F035B830B50B460146002020222F
:10040000012409E021FA02F59D4205D303FA02F521
:10041000491B04FA02F52844151EA2F10102F1DC81
:1004200030BD202A04DB203A00FA02F10020704798
:100430009140C2F1200320FA03F319439040704722
:10044000202A04DB203A21FA02F00021704721FA29
:1004500002F3D040C2F12002914008431946704790
:100460000029A8BF7047401C490008BF20F00100C8
:10047000704710B4B0FA80FC00FA0CF050EA0104A6
:1004800004BF10BC704749B1CCF1200421FA04F438
:1004900011FA0CF118BF012121430843A3EB0C0111
:1004A000CB1D4FEA00614FEA102042BF002010BC74
:1004B000704700EBC35010440029A4BF10BC704724
:1004C000401C490008BF20F0010010BC704710B567
:1004D000141E73F1000408DA401C41F10001921867
:1004E0005B411A4301D120F0010010BD2DE9F04D10
:1004F00092469B4611B1B1FA81F202E0B0FA80F265
:1005000020329046FFF78DFF04460F4640EA0A006E
:1005100041EA0B0153465A46084313D0114653EAA9
:10052000010019D0C8F140025046FFF789FF054687
:100530000E46504659464246FFF773FF084305D022
:10054000012004E020463946BDE8F08D0020054337
:1005500046EAE0762C4337430A986305E40AA0EBA9
:1005600008000022FD0A44EA47540A3002D5002060
:100570000146E9E7010510196941DDE9084500195F
:100580006941BDE8F04DA2E72DE9FE4F804681EAC2
:100590000300C00F0C46009021F0004123F00045FD
:1005A000B8EB0200A94105D24046214690461C46C0
:1005B0000B46024623F00040104347D0270DC7F3F7
:1005C0000A00C3F30A510290401A019040286BDAE6
:1005D000C3F3130040F4801B0098924620B100231F
:1005E000D2EB030A63EB0B0B01985946C0F14002B2
:1005F0005046FFF716FF06460D4650465946019AEB
:1006000000F01AF910EB08006141002487EA11524A
:1006100084EAE7731A4340D0009A62B3019A012A30
:100620004FEA075215DC001B61EB02014FF000425C
:1006300002EA0752CDE90042001C41F58011324622
:100640002B46FFF753FF03B0BDE8F08F404621462D
:10065000F9E7001B61EB0201001C41F58013001853
:100660005B412018A2F5001747EB030140EAD57063
:10067000B6196D4111E06D084FEA360645EAC075BE
:100680004FEA0752001B61EB0201001C41F580118B
:1006900049084FEA30000019514132462B4603B059
:1006A000BDE8F04FFFF713BF009801224000002380
:1006B000D0EB020263EBE073009821464FEAE0744E
:1006C000B8EB000061EB0401E9E783F000435BE76E
:1006D00081F0004158E72DE9F04D81EA030404F070
:1006E000004B21F0004514464FF0000A23F0004172
:1006F00050EA050220D054EA01021DD0C5F30A5782
:100700000246C5F31303C1F31300C1F30A5640F4C4
:10071000801543F48013A7EB0608101BD64608F299
:10072000FD3873EB050002D308F1010801E09218CF
:100730005B41B8F1000F03DA00200146BDE8F08DFF
:1007400000204FF48011064684460EE0171B73EB21
:10075000050705D3121B63EB050306434CEA010CA6
:1007600049084FEA300092185B4150EA0107EDD189
:1007700052EA030012D082EA040083EA050108432A
:1007800005D0101BAB4106D20122002306E0002257
:100790004FF0004302E06FF0010253101AEB060025
:1007A0004CEB085110EB0A0041EB0B01BDE8F04D9A
:1007B000FFF78DBEC1F30A52C1F3130140F2FF33BC
:1007C00041F480119A4202DA00200146704740F25B
:1007D00033439A42A2F2334202DC5242FFF730BE68
:1007E000FFF71FBE30B5041E71F1000404DB4FF0AB
:1007F0000044404264EB0101141E73F1000405DB68
:100800001C464FF00043524263EB0403994208BF79
:10081000904230BD064C074D06E0E06840F0010311
:1008200094E8070098471034AC42F6D3FFF7D8FCA1
:100830006C8500088C850008202A06DBCB17203A3F
:1008400041FA02F043EAE07306E041FA02F3D040D5
:10085000C2F12002914008431946704710B5846ADE
:10086000E16D11F0500F06D0E16DC90625D5204687
:1008700000F0FCFB10BDE06D40F40070E065206806
:100880000168090716D503F061FE78B12068C068D9
:10089000800400280ADBE06D20F48070E065E06DE4
:1008A000C00403D4E06D40F00100E065204600F094
:1008B000DBFB10BDC0688007EBE7616D496BBDE8ED
:1008C0001040084710B5806AC16D41F04001C16514
:1008D000016E41F00401016600F0C8FB10BD10B5C7
:1008E000806A00F0C2FB10BD70B5044600688168E4
:1008F0008268C1F3400112F0010F28D039BB816832
:1009000001F00D01012914D18168124A1140891C9E
:10091000816021680320086001F0E2F8054612E0DA
:1009200001F0DEF8401B02280DD920688068C0075E
:1009300009D0E06D40F01000E065206E40F001004D
:100940002066012070BD20688068C007E8D10020C3
:1009500070BD0000C0FFFF7FF8B504460020009086
:100960002068816811F0010F41D18168214A11424C
:100970002ED18168D5432940491C81601E4880687A
:1009800000F0E07000020DD51C481D490068B0FB66
:10099000F1F0401C00EB4000800000E0401E0090A1
:1009A0000028FBD101F09CF806461BE0816811F09D
:1009B000010F03D181682940491C816001F090F842
:1009C000801B02280ED920680068C043C00709D0E8
:1009D000E06D40F01000E065206E40F00100206600
:1009E0000120F8BD20680168C943C907DED1002095
:1009F000F8BD00003F000080000300501000002000
:100A0000400D0300FEE70000014800F026BE000094
:100A10005C0100200D4902688A4201D20C4901E0C4
:100A20000B492031D2B21423083AB2FBF3F2436CE3
:100A300002F01F0223F0030319448164044980314A
:100A4000C164012191400165704700000804024023
:100A5000000802400179074A02EB81024265054A1B
:100A60004432491E826501F01F0201219140C16597
:100A700070470000FC08024030B5D0E913456560BE
:100A8000446D14B1D0E91645656090F8444004F017
:100A90001F050124AC40056C6C60046863608368CA
:100AA000102B036803D099600068C26030BD9A6063
:100AB0000068C16030BD7047002240F6B83306E0E0
:100AC0000021491C89B29942FBD3521C92B2824246
:100AD000F6D3704772B6FEE7F8B5002604460096D6
:100AE00090F858000D4601280BD0012084F85800DA
:100AF0002046FFF7F9FE0100E06D04D040F0100041
:100B00002AE00220F8BD20F4885040F00200E065A1
:100B100020688268134B1A4005F080431A4342F064
:100B200000428260104A20680EE0009B5B1C00932C
:100B3000934209D3E06D20F0020040F01000E06520
:100B400084F858600120F8BD8368DB0FEDD1E06DBB
:100B500020F0020040F00100E06584F8586008468B
:100B6000F8BD0000C0FFFF3F02DE04002DE9F047A2
:100B7000044690F858009CB00E464FF0000901283A
:100B800015D0012084F85800002517951895206885
:100B90004FF0A04840450ED1284F0097384603F04B
:100BA000D1FC8246206803F0CDFC60B10EE002204B
:100BB0001CB0BDE8F087E06D40F02000E06584F8EF
:100BC00058500120F4E7BAF1000F09D0E06D40F071
:100BD0002000E0654FF0010984F858504846E7E7E7
:100BE0001748326840F61F71002A826822F460427A
:100BF00016D094F8383042EA433273681A43826060
:100C0000D8F80820BB6802F0010203F001031A4380
:100C1000E2D1B36832681A4383688B431A430BE00E
:100C20008260D8F80820BB6802F0010203F00103DB
:100C30001A43D1D182688A438260CDE70001005017
:100C4000000300502DE9F84F00270446009790F864
:100C50005800DFF8E0930D46B846012811D0012670
:100C600084F85860206803F069FC60B1E06D40F0E2
:100C70002000E0655FF0010784F858803846BDE841
:100C8000F88F0220FBE7D5E900210C23206803EA56
:100C900091131844036B01F01F014FF01F0C0CFA65
:100CA00001FCC2F3846223EA0C038A40134303630A
:100CB000206803F043FC8246206803F03BFC5AEABC
:100CC00000003CD1AA6829682068B2F1004F37D0F3
:100CD00003F044FC2068416921F000414161206833
:100CE0006969C268C2F3C102520091402A69042AAC
:100CF00031D000EB82002B68026EDFF83CC303F0BA
:100D0000F84302EA0C020B431A4342F00041016629
:100D100020682A69A96900EB8200026E22F08072C5
:100D20000A430266297F22682869012910D0002120
:100D300002EB8000026E22F000720A4302667DE040
:100D4000002203F00BFC2068416941F00041C5E737
:100D50004FF00071ECE7002103F0E6FB4003206850
:100D60004FF0000172D003F0DFFB90FAA0F0B0FA70
:100D700080F1286842036ED090FAA0F0B0FA80F0BB
:100D8000814204D100221146206803F0F6FB0121C4
:100D9000206803F0C9FB400320684FF001015DD0DB
:100DA00003F0C2FB90FAA0F0B0FA80F12868420389
:100DB00059D090FAA0F0B0FA80F0814204D100221C
:100DC0000121206803F0D9FB0221206803F0ACFB6D
:100DD000400320684FF0020148D003F0A5FB90FAD1
:100DE000A0F0B0FA80F12868420344D090FAA0F055
:100DF000B0FA80F0814204D100220221206803F081
:100E0000BCFB0321206803F08FFB400320684FF0F8
:100E1000030133D003F088FB90FAA0F0B0FA80F120
:100E2000286842032FD090FAA0F0B0FA80F08142F7
:100E300004D100220321206803F09FFB2068816811
:100E400011F0010F22D0ACE000E004E003F06CFBF5
:100E5000C0F384618DE7C0F3846091E703F064FB25
:100E6000C0F38461A2E7C0F38460A6E703F05CFBF3
:100E7000C0F38461B7E7C0F38460BBE703F054FBC1
:100E8000C0F38461CCE7C0F38460D0E72A7B296893
:100E900050F8B03FC1F3120C23EA0C0302F0180C17
:100EA000664A22FA0CF20A4013430360E968494596
:100EB00077D1286841031CD090FAA0F1B1FA81F1F2
:100EC000491C01F01F0109294FEA403132D800299D
:100ED00012D000BF90FAA0F1B1FA81F101F1010145
:100EE00001F01F0106FA01F609D100BFC0F38461C9
:100EF00009E0C0F38461E3E7C0F38461EEE790FAB0
:100F0000A0F1B1FA81F101F1010101F01F0146EAFE
:100F1000816102D1C0F3846003E090FAA0F0B0FADE
:100F200080F000F1010000F01F0000EB400041EAFA
:100F3000005132E000290ED090FAA0F1B1FA81F10F
:100F400001F1010101F01F0106FA01F606D100BF0F
:100F5000C0F3846106E0C0F38461F1E790FAA0F188
:100F6000B1FA81F101F1010101F01F0146EA81614D
:100F700002D1C0F3846003E090FAA0F0B0FA80F0F0
:100F800000F1010000F01F002D4A00EB400002EBD1
:100F9000005041EA000141F00071AA68206803F0A6
:100FA000DDFA28482A6802423FF466AE2648816886
:100FB000264B01F0E0719A4202D0254B9A421CD197
:100FC0000B021AD42268B2F1A04F7FF455AE8268AA
:100FD00041F4000122F0E0720A4382601D481E497C
:100FE0000068B0FBF1F0401C00EB4000800000E026
:100FF000401E00900028FBD13EE6184D184BAA4237
:1010000007D1CD0105D422689A42F5D041F0807114
:1010100009E0144DAA42EFD14A02EDD422689A4267
:10102000EAD041F48001826822F0E0720A438260D3
:1010300022E6000000007F4000F0FF03FFFF0700F2
:10104000000020FE0000088000030050000021C3C3
:101050001000C09010000020400D0300000052C797
:1010600000010050000084CB704770477047006853
:10107000006C7047F8B54FF0000504002E4600954F
:1010800002D0E06D10B107E00120F8BD204600F06D
:10109000EBF8266684F8586020688168C1F34071D7
:1010A00019B18168684A1140816020688168C1F384
:1010B000007189B98168654A114041F080518160B1
:1010C000634864490068B0FBF1F04000801C00E018
:1010D000401E00900028FBD120688168C1F3007198
:1010E00041B9E16D41F01001E165216E41F001016E
:1010F0002166012503F022FAE16DC90600D430B162
:10110000E06D40F01000E06501252846F8BDE06D77
:1011100020F4807040F00200E0652068806810F0E4
:10112000010F11D14FF0A04080684B4900F0010041
:10113000896801F00101084306D148486168826866
:1011400022F47C120A438260E168E06B627F08430C
:10115000A16841EA4231084394F8241040EA014072
:10116000012904D1218D3E4A02EB41410843E16A45
:1011700029B101F47871226B014342EA010022682F
:10118000D168384B19400143D16020680169626B16
:1011900021F0406111430161206803F0CBF970BB7D
:1011A000207F94F83810800340EA41022168C86823
:1011B00044F2020398431043C86020690028206865
:1011C00001690AD041F480310161206850F8C01FE4
:1011D00022696FF30D01114307E021F480310161B1
:1011E000206850F8C01F6FF30D01016094F84000B3
:1011F00001280CD02068016921F0010101616069BA
:1012000001282068016B21F00F0111D013E0D4E90F
:1012100011010843D4E913121143084321680A69F4
:1012200040F2FC739A43104340F001000861E6E786
:10123000226A521E11430163E06D20F0020040F06B
:101240000100E06561E70000C0FFFF5FC0FFFF7FB6
:1012500010000020400D030000010050000300506A
:101260000000FEFF0740F0FF2DE9F04798B006466A
:10127000142111A8FFF706F844216846FFF702F889
:101280004FF000503168DFF8F4900327DFF8F0A04A
:1012900085133C4C4FF00008B1F1A04F12D03A4AF0
:1012A000914236D100950F90684600F017FD08B1C5
:1012B000FFF710FCD9F80000401CC9F80000012815
:1012C0002AD031E000950F90684600F007FD08B184
:1012D000FFF700FCD9F80000401CC9F80000012805
:1012E00007D1E06C40F40050E064E06C00F4005082
:1012F0001690E06C40F00200E064E06C11A900F090
:10130000020016904FF4A04081E88101504600F0A1
:10131000B9FA18B0BDE8F087E06C40F40050E06422
:10132000E06C00F400501690E06C40F00200E064C5
:10133000E06C11A900F002001690CDE91157454666
:101340005046CDF84C8000F09DFA114C0F482060BB
:101350002420C4E901058020C4E9035040006061F5
:101360008000A0612020C4E90705204600F0D2F9E2
:1013700008B1FFF7AFFB7465A662CAE70000002062
:101380000004004800100240000100500800024024
:101390005C0100202DE9F04104463848806800F0E7
:1013A0001F05206803F0CAF818B102210846BDE8FD
:1013B000F08194F8580001280CD0012084F85800DE
:1013C0002046FFF7C9FA01004FF0000304D084F86B
:1013D0005830EBE70220EAE7E06D40F60162904307
:1013E00040F48070E065264A20684FF0A0469042A5
:1013F00001D1374600E00746874200D01DB9E76DAE
:1014000027F48017E765E76DFF0404D5276E27F002
:101410000607276600E023661C27076084F858301B
:101420002068904201D1334600E00346834215D044
:10143000A5B1052D12D0092D10D0E36D43F4801312
:10144000E365904200D13046C0688001AED5E06DC2
:1014500020F4005040F48050E065A7E7C268920194
:1014600005D5E26D22F4005242F48052E2658268B2
:10147000044B1A40121D826098E7000000030050E0
:1014800000010050C0FFFF7F2DE9F04104463448C1
:1014900017468846806800F01F05206803F04EF864
:1014A00000285AD194F85800012856D0012084F819
:1014B0005800002625B1052D02D0092D00D003E0EB
:1014C0002046FFF749FA18B184F85860BDE8F0816A
:1014D000E06D40F60161884340F48070E065214989
:1014E0002068884202D14FF0A04100E001468142CD
:1014F00000D01DB9E06D20F48010E065E06DC004FF
:1015000004D5206E20F00600206600E02666616D9E
:101510001548C862616D15480863616D14484863D9
:1015200021681C20086084F858602068416841F0F8
:10153000100141602068C16841F00101C16021686B
:101540003B4642464031606D00F044F921688A68AC
:10155000084B1A40121D8A60B8E70220B6E7000067
:1015600000030050000100505D080008DF0800087B
:10157000C5080008C0FFFF7F10B590F82530002196
:101580000122022B03D00421C163012122E0036860
:101590001C6824F00E041C60836C1C6824F48074A6
:1015A0001C6003681C6824F001041C6090F844303F
:1015B000046C03F01F0302FA03F36360D0E91334F1
:1015C0005C60436D33B11C6824F480741C60D0E906
:1015D00016345C6080F82520002280F8242008461C
:1015E00010BD70B590F82520002401212346022A61
:1015F00007D00422C26380F8251080F8243001242B
:1016000029E00268156825F00E0515600268156866
:1016100025F001051560826C156825F4807515604C
:1016200090F84420056C02F01F0201FA02F26A6091
:10163000D0E913255560426D32B1156825F48075E7
:101640001560D0E91625556080F8251080F8243003
:10165000816B01B18847204670BDF0B4016C0C6805
:1016600001680D6890F8442002F01F06042202FA77
:1016700006F3234211D06B070FD50B689B0603D4EA
:101680000B6823F004030B6090F8441001F01F0175
:101690008A40016C4A60016B1DE0022303FA06F7E1
:1016A00027424FF0000C4FF0010218D0AF0716D5BB
:1016B0000C68A40605D40C6824F00A040C6080F8B9
:1016C000252090F8441001F01F018B40016C4B6005
:1016D00080F824C0C16A00291AD0F0BC084708234A
:1016E000B340234214D02B0712D50B6823F00E030E
:1016F0000B6090F84410036C01F01F0102FA01F135
:101700005960C26380F8252080F824C0416BE2E76D
:10171000F0BC704770B504000CD02B4A216814202F
:10172000914209D2294A0A44B2FBF0F08000606479
:1017300027480AE0012070BD234A52420A44B2FB06
:10174000F0F080006064204808382064022084F8AB
:1017500025000A6847F6F0708243D4E90203184373
:10176000D4E904352B431843A3691843E3691843AC
:10177000236A1843104308602046FFF74BF9A0681E
:101780000025B0F5804F00D16560A16C207908601C
:10179000D4E9130141606068401E032808D8204640
:1017A000FFF758F9606D0560D4E91601416002E069
:1017B0006565A565E565E563012084F8250084F885
:1017C0002450002070BD000008040240F8FFFDBF57
:1017D0000000024070B5044690F82400002501285E
:1017E0000CD0012084F8240094F825600020012EFC
:1017F00006D084F824000225284670BD022070BD62
:10180000022684F82560E0632068066826F0010659
:1018100006602046FFF730F9206B00282068016839
:1018200002D041F00E0106E021F0040101602068C1
:10183000016841F00A010160A06C0168C90303D589
:10184000016841F480710160606D18B1016841F474
:10185000807101602068016841F001010160CBE7FF
:1018600070B5044600F03CF90546601C02D00448FF
:101870004068044400F034F9401BA042FAD370BD24
:10188000040000202DE9F04FDFF82092002301260C
:101890000324A9F1040B85B00F2709F1040AABF169
:1018A000040EFAE006FA03F52A407CD091F804C051
:1018B0000CF0030CBCF1010F02D0BCF1020F26D1D9
:1018C000D0F808C0CDF800C04FEA430C04FA0CF879
:1018D000CDF810C0DDF800C02CEA080CCDF800C02F
:1018E000D1F80C80DDF810C008FA0CF8DDF800C063
:1018F00048EA0C08C0F80880D0F804C02CEA050CAF
:101900000D79C5F300159D4045EA0C0545600D793C
:10191000ED43AD070ED0C5684FEA430804FA08FC52
:1019200025EA0C05D1F808C00CFA08FC4CEA050CB5
:10193000C0F80CC00D7905F00305022D16D1DD08A5
:1019400000EB850CCDF808C0DCF820805D074FEA7D
:10195000D56C07FA0CF528EA05080D6905FA0CF5AF
:10196000DDF808C045EA0805CCF8205005684FEAC4
:10197000430CCDF808C004FA0CFC25EA0C0591F8DC
:1019800004C00CF00308DDF808C008FA0CF848EAB7
:101990000508C0F800804D6815F4403F7CD0444DE8
:1019A000D5F860C000E077E04CF0010CC5F860C0ED
:1019B0002D6E23F0030C05F0010500953D4D6544A7
:1019C0000295AD684FEA837C4FEA1C7807FA08FC61
:1019D00025EA0C05B0F1904F06D0DFF8DCC0604579
:1019E00005D14FF0010C20E04FF0000C1DE0DFF8B6
:1019F000CCC0604502D14FF0020C16E0DFF8C0C049
:101A0000604502D14FF0030C0FE0DFF8B8C060452D
:101A100002D14FF0040C08E0DFF8ACC0604502D101
:101A20004FF0050C01E04FF0060C0CFA08FC4CEAF4
:101A3000050C029DC5F808C0D9F80050CC46D1F875
:101A4000048095435FEAC82800D51543CCF80050C0
:101A5000DAF80050D446D1F8048095435FEA88282C
:101A600000D51543CCF80050DBF80050DC46D1F827
:101A7000048095435FEA883800D51543CCF80050C0
:101A8000DEF80050F446D1F8048095435FEAC83888
:101A900000D51543CCF800505B1C0A6832FA03F5F8
:101AA0007FF400AF05B0BDE8F08F000008040140EE
:101AB00000100240000001400004004800080048F7
:101AC000000C00480010004800140048006908405D
:101AD00000D0012070470AB1816170478162704770
:101AE00001488068704700000400002002488168B7
:101AF00042681144816070470400002010B5002442
:101B0000032000F073F80F2000F008F808B101245A
:101B100001E000F025F8204610BD000070B50E4E23
:101B200005460024706898B14FF47A71B1FBF0F06B
:101B30000A490968B1FBF0F001F040F840B9102DF6
:101B400006D200222946501E00F030F8356000E031
:101B50000124204670BD0000040000201000002079
:101B60000A4882B0016E41F001010166016E01F088
:101B700001010091816D41F080518165806D00F01F
:101B80008050009002B000F0A1B8000000100240A8
:101B9000002809DB00F01F0201219140400980006C
:101BA00000F1E020C0F8001170470000F0B40E4BC7
:101BB0001B680C46C3F30223C3F10705042D00D9AB
:101BC0000425191D072901D2002300E0DB1E012690
:101BD00006FA05F1491E214099409E40761E1640A6
:101BE0003143F0BC04F0E0BA0CED00E0064900F02F
:101BF000070208684FF6FF03184040EA0220034A34
:101C000010430860704700000CED00E00000FA058A
:101C10002B492C4B0A6832214A432B4940B1B0F57D
:101C2000007F086829D020F4C06040F480602CE078
:101C30000868C0F34120022804D051F8800F20F436
:101C4000807022E0D1F8800020F48070C1F880001C
:101C5000086820F4C06040F400700860B2FBF3F044
:101C6000401C00E0401E4A69520501D50028F9D108
:101C7000486940050AD503207047C0F34120022877
:101C800006D051F8800F40F4807008600020704743
:101C9000D1F8800040F48070C1F88000086820F41A
:101CA000C06040F400700860B2FBF3F0401C00E03C
:101CB000401E4A695205DBD50028F9D1D8E700005B
:101CC0001000002040420F00007000400248816870
:101CD00041F4804181607047007000402DE9F84375
:101CE0000446006800269D4D00035ED5A86D0027C0
:101CF000C00008D4A86D40F08050A865A86D0127E9
:101D000000F080500090DFF85892D9F8001041F4AC
:101D10008071C9F80010FFF7E3FE804606E000BFBF
:101D2000FFF7DEFEA0EB080002282BD8D9F8000050
:101D3000C005F5D5D5F8900010F4407014D0216C92
:101D4000814211D0D5F89000D5F8901020F4407061
:101D500041F48031C5F89010D5F8901021F480310D
:101D6000C5F89010C5F89000C00711D0FFF7B8FE75
:101D7000804641F2883907E0FFF7B2FEA0EB080188
:101D8000494501D903260BE0D5F890008007F3D52B
:101D9000D5F89000216C20F440700843C5F89000FD
:101DA0001FB1A86D20F08050A8652078C00707D02B
:101DB000D5F88800616820F003000843C5F8880062
:101DC0002078800707D5D5F88800A16820F00C009E
:101DD0000843C5F888002078400707D5D5F8880063
:101DE000E16820F030000843C5F88800207800073B
:101DF00007D5D5F88800216920F0C0000843C5F850
:101E000088002078800607D5D5F88800616920F41D
:101E100040600843C5F888002078400607D5D5F80B
:101E20008800A16920F440500843C5F88800207854
:101E3000000607D5D5F88800E16920F44040084342
:101E4000C5F888002088C00507D5D5F88800216A24
:101E500020F440300843C5F888002088800507D565
:101E6000D5F88800616A20F440200843C5F888004E
:101E7000208840050FD5D5F88800A16A20F44010CD
:101E80000843C5F88800A06AB0F5801F03D1E86850
:101E900040F48010E860208800050FD5D5F8880050
:101EA000E16A20F440000843C5F88800E06AB0F514
:101EB000800F03D1E86840F48010E8602088C004F7
:101EC0000FD5D5F88800216B20F040700843C5F885
:101ED0008800206BB0F1807F03D1E86840F4801067
:101EE000E86020884FF0006180040ED5D5F88800A6
:101EF000626B20F040601043C5F88800606B884238
:101F000003D1E86840F48010E860208840040ED5D2
:101F1000D5F88800A26B20F040601043C5F8880017
:101F2000A06B884203D1E86840F48010E860208804
:101F300000040FD5D5F88800E16B20F0405008432D
:101F4000C5F88800E06BB0F1805F03D1E86840F429
:101F50008030E8603046BDE8F883000000100240A1
:101F6000007000402DE9F0470E4605004FF00007D5
:101F700025D0DFF8AC81D8F8000000F00F00B042A7
:101F80000CD2D8F8001021F00F013143C8F800102E
:101F9000D8F8000000F00F00B04210D12968614C61
:101FA000C80741F2883A5AD06868DFF87C91032864
:101FB00008D0022820682DD0400500282CDB012005
:101FC000BDE8F08720688001F9D5E06800F00302E1
:101FD000E068C0F30310401C032A19D0534A00BF25
:101FE000B2FBF0F0E268C2F306225043E268C2F3AB
:101FF0004162521C5200B0FBF2F0484517D9A0686C
:1020000010F0F00F0CD0880711D5A86840B10EE091
:10201000474AE5E78003D0E700F0B6F8484506D91F
:10202000A06820F0F00040F08000A0608027A06849
:10203000696820F003000843A060FFF751FD814666
:1020400006E000BFFFF74CFDA0EB090151453AD86F
:10205000A068696800F00C00B0EB810FF2D128682D
:10206000810714D5400703D5A06840F4E060A06064
:102070002878000705D5A06820F4605040F4E0609F
:10208000A060A068A96820F0F000084304E0802F59
:1020900003D1A06820F0F000A060D8F800104046FE
:1020A00001F00F01B14216D9016821F00F0131434F
:1020B0000160FFF715FD074607E000BFFFF710FDC1
:1020C000C11B514501D903207AE7D8F8000000F080
:1020D0000F00B042F2D12878400705D5A068E96822
:1020E00020F4E0600843A0602878000706D5A068C7
:1020F000296920F4605040EAC100A06000F044F873
:10210000A1680C4AC1F30311515C01F01F01C840E2
:102110000949086009480068BDE8F047FFF7FEBCC0
:10212000002002400010024000B4C4040024F40067
:1021300000366E01827300081000002004000020A9
:102140000548064900688968054AC1F30221515CC7
:1021500001F01F01C840704710000020001002402D
:10216000927300080548064900688968054AC1F36A
:10217000C221515C01F01F01C840704710000020CF
:102180000010024092730008184910B58868C0F327
:1021900081021748012A0BD08A68164BC2F38102CC
:1021A000022A06D08A68C2F38102032A03D00020E3
:1021B00010BD184610BDCA6802F00304CA68C2F315
:1021C0000312521C032C02D0B0FBF2F001E0B3FB6F
:1021D000F2F0CA68C968C2F306225043C1F34161F4
:1021E000491C4900B0FBF1F010BD00000010024096
:1021F0000024F40000366E012DE9F84304007AD083
:102200002078F84DC00747D0A868E96800F00C00B6
:1022100001F003010C2802D0082817D001E003299F
:1022200014D06068B0F5803F17D0B0F5A02F2868B3
:1022300017D020F480302860286820F4802028609F
:102240006068E0B1FFF74CFC064614E028688003A4
:1022500022D560680028D2D01EE0286840F4803083
:10226000EDE740F480202860F7E700BFFFF738FC77
:10227000801B642870D828688003F7D50CE0FFF72E
:102280002FFC064605E000BFFFF72AFC801B6428F0
:10229000F0D828688003F7D4207880074CD5A86848
:1022A000E96800F00C0001F003010C2802D00428BA
:1022B0000DD001E002290AD0E068002828682BD060
:1022C00040F480702860FFF70BFC064619E0286890
:1022D000400502D5E068002891D06868217C20F094
:1022E000FE4040EA01606860BF480068FFF716FCE6
:1022F000002800D120E072E1FFF7F2FB801B0228EA
:10230000B8D828684005F7D56868217C20F0FE40E1
:1023100040EA016068600FE020F480702860FFF7F9
:10232000DFFB064605E000BFFFF7DAFB801B022853
:10233000A0D828684005F7D42078000729D560691F
:102340000028D5F8940013D040F00100C5F894009F
:10235000FFF7C6FB064606E090E000BFFFF7C0FBB4
:10236000801B022886D8D5F894008007F6D510E0A7
:1023700020F00100C5F89400FFF7B2FB064604E028
:10238000FFF7AEFB801B022878D8D5F894008007B1
:10239000F6D42078400761D5A86D0026C00008D487
:1023A000A86D40F08050A865A86D012600F080500F
:1023B00000908E480168C90511D40168804641F437
:1023C00080710160FFF78CFB074604E0FFF788FB94
:1023D000C01B022852D8D8F80000C005F6D5A06866
:1023E000012815D00528D5F8900016D020F001005E
:1023F000C5F89000D5F8900020F00400C5F89000D2
:10240000A06841F28838B8B1FFF76AFB07460EE0D2
:10241000D5F8900040F00100F0E740F00400C5F866
:102420009000F5E7FFF75CFBC11B414526D8D5F8C6
:1024300090008007F6D50CE0FFF752FB074604E05A
:10244000FFF74EFBC11B414518D8D5F89000800717
:10245000F6D41EB1A86D20F08050A86520788006C3
:1024600029D5A0690028D5F8980013D040F00100C4
:10247000C5F89800FFF734FB064606E075E000BF9C
:10248000FFF72EFB801B02286FD8D5F89800800735
:10249000F6D510E020F00100C5F89800FFF720FB0A
:1024A000064604E0FFF71CFB801B02285DD8D5F828
:1024B00098008007F6D4E069F0B3A968C1F3810100
:1024C00003295DD00228286820F08070286003D09E
:1024D000FFF706FB04464BE0FFF702FB064604E06D
:1024E000FFF7FEFA801B02283FD828688001F7D446
:1024F000F4E908016FF00F0202EB01110843218A91
:102500005204490802EB4151A26841EA0221084302
:10251000217D4FF07E42490802EB41610843217B57
:1025200040EAC160E968324A11400843E86028681F
:1025300040F08070286000E05EE0E86840F0807065
:10254000E860FFF7CDFA044605E000BFFFF7C8FAE0
:10255000001B022809D828688001F7D54CE000BF8D
:10256000FFF7BEFA001B022802D90320BDE8F8835A
:1025700028688001F4D4E8681E490840E8603BE020
:102580000128F3D0E868226A00F00301914226D1C5
:10259000616A00F0F0020901103991421FD1A26A6C
:1025A00000F4FE41B1EB022F19D194F82C2000F079
:1025B0007841B1EBC26F12D1218E00F4C0024908FC
:1025C0004905A1F50011914209D194F8341000F0A9
:1025D000C06049084906A1F1007181420CD0012078
:1025E000C4E700000010024004000020007000401A
:1025F0000C809F01FCFFEEFE0020B7E706488179C2
:10260000491CC9B28171022901D100218171C9B26D
:10261000042004F075BD0000140000200648C179B4
:10262000491CC9B2C171022901D10021C171C9B2CD
:10263000032004F065BD0000140000202DE9F041E6
:1026400004460068456D0D4FE9074FF001084FF44F
:10265000003605D0C0F85C803E602046FFF7DEFF04
:10266000A80706D521680220C8653E602046FFF70E
:10267000C5FF84F82580BDE8F08100001404014006
:1026800010B50C464FF480718A4204D16162016832
:10269000086C496C05E04FF4007161620168886C58
:1026A000C96CC0F305422270C0F30622627000F0CC
:1026B0007F02A270C0F38052C1F30E01E27061602C
:1026C000C0F3056184F8201000F0804100F08030F4
:1026D000E16160618BB9207802F026FC207060789F
:1026E00002F022FC6070A07802F01EFCA07094F84A
:1026F000200002F019FC84F82000002010BD00002A
:1027000010B500680B4641680D480140080CD870B0
:10271000C1F304245C7001F03F049C70C1F34231AA
:10272000197052B902F000FCD870587802F0FCFB26
:102730005870987802F0F8FB9870002010BD0000E7
:102740003FFFFF0010B50B460168896859600168BA
:102750000969C1F30E019960006801680D480140E4
:10276000C1F305401870C1F306245C7001F07F04CA
:102770009C70890DD97052B902F0D6FB1870587848
:1027800002F0D2FB5870987802F0CEFB98700020CF
:1027900010BD00007F7F7F0070B504004FF0010086
:1027A00040D094F8250028B9002084F82400204661
:1027B00000F040F8022084F825002068C168C94371
:1027C000C90630D5CA21416221685320486220469B
:1027D00002F0C0FB10BB20688169154A114081617D
:1027E000216888696268A369104322691A4310430B
:1027F00088612189E06840EA01402168086120463B
:1028000002F0CDFB50B9D4E9072111432268636976
:10281000956925F060452B43194391612268FF219A
:10282000516208B170BD0020012184F8251070BDEF
:10283000BFFF8FFB10B592B0044644216846FDF7F8
:1028400021FD14492068884221D14FF400200090D6
:10285000801210906846FFF741FA08B1FEF73AF986
:102860000D4850F8901F41F4004140F838190168B4
:1028700041F4806101600068002200F480601190E2
:1028800011462920FFF792F92920FFF781F912B0AC
:1028900010BD000000280040001002402DE9F05F4C
:1028A000044690F824000B46012844D04FF001095B
:1028B00084F824904FF0020A84F825A020680026AE
:1028C00080694FEA4060AAB3002800DBDE70987888
:1028D0001978DA7840EA01405978090241EA8251D0
:1028E000084393F8201040EA0165D8695F68054302
:1028F00058692168054398690743CA2048622168DE
:10290000532048625A6A4349B2F5807F22684FF4E7
:1029100000304FF0FF0893694FF47A7B28D023F4FE
:10292000085393612368C3F85CA00860FFF7D8F8E8
:1029300082464CE002E00220BDE8F09F002800DB68
:10294000DE70187802F0F9FA0504587802F0F5FA0A
:1029500045EA0025987802F0F0FA0543D87845EA70
:10296000805593F8200002F0E8FA45EA0065BCE7DC
:1029700023F4885393612368C3F85C900860FFF7E1
:10298000AFF8824606E000BFFFF7AAF8A0EB0A0006
:10299000584513D82068C068C007F5D02068056482
:1029A000206847642068816941F488511BE000BFBA
:1029B000FFF796F8A0EB0A00584508D92168C1F83E
:1029C0002480032084F8250084F82460B4E720687C
:1029D000C0688007ECD5206885642068C7642068DB
:1029E000816941F4085181610A481438016841F451
:1029F0000031016007480C38016841F40031016082
:102A00002168C1F8248084F8259084F8246000208F
:102A100092E700001404014070B5044690F82400C9
:102A20000B4601281BD0012684F82460022084F87C
:102A30002500B2B19878D97840EA014558781978DC
:102A4000000240EA413005432168CA2048622168FB
:102A500053204862204602F07DFAD0B120E00220E7
:102A600070BD5878C10603D500F0EF000A305870E9
:102A7000D87802F062FA0504587802F05EFA45EA66
:102A80000025987802F059FA0543187845EA403550
:102A9000DAE70848054020684560204602F07FFAE2
:102AA0002268FF21516208B984F82560002184F86A
:102AB000241070BD3FFFFF002DE9F041044690F85F
:102AC000240090460D46012811D0012784F8247077
:102AD000022084F825002168CA204862216853201A
:102AE0004862204602F036FA002618B129E002209A
:102AF000BDE8F0812068B8F1000F80694FEA4060BE
:102B000024D0002800DBEE70A8782978EA7840EA23
:102B100001406978090241EA825108431849084096
:102B2000216808602068816921F480218161D5E9EC
:102B30000301084321688A6910438861204602F036
:102B40002EFA2268FF215162A0B115E0002800DBB7
:102B5000EE70287802F0F1F90304687802F0EDF9DC
:102B600043EA0023A87802F0E8F90343E87843EA4F
:102B70008050D3E784F8257084F82460B8E700001B
:102B80007F7F7F0070B504460B482168C860FEF760
:102B9000A7FF05464FF47A7607E000BFFEF7A0FFD7
:102BA000401BB04201D9032070BD2068C068800678
:102BB000F4D5002070BD00005F00010010B5401E7C
:102BC000B0F1807F01D3012010BD4FF0E02460619F
:102BD0000F21601703F0E8FA0020A06107202061B0
:102BE000002010BD704770477047000030B590F866
:102BF0003C20012A42D0012280F83C20CA688B6820
:102C000022F440721A434B6822F480621A430B6824
:102C100022F400621A430B6922F480521A434B6972
:102C200022F400521A430B6B22F480421A430B8B9E
:102C300022F4702242EA0342CB6922F080521A4306
:102C40000F4D03680024AB4202D00E4DAB4210D1B1
:102C50000D8D22F4700242EA05520D6A22F0807254
:102C60002A434D6A22F000722A43C96A22F00052B8
:102C70000A435A6480F83C40002030BD022030BD39
:102C8000002C01400034014070477047704700003D
:102C9000F0B590F83C20012A3AD0012580F83C504C
:102CA000022280F83D2003685A689C68194E1A4F2A
:102CB000B34201D0BB4204D122F4700C4A6842EA0C
:102CC0000C02DFF858C002EA0C02D1F800C04CEA4E
:102CD000020CC3F804C00268B2420DD0B2F1804FBA
:102CE0000AD00F4B9A4207D00E4B9A4204D0BA42F8
:102CF00002D00D4B9A4204D1896824F08003194315
:102D0000916080F83D50002180F83C100846F0BDED
:102D10000220F0BD002C0140003401408FFFFFFD78
:102D2000000400400008004000400140704710B51A
:102D3000040003D094F83D0010B107E0012010BD5D
:102D4000002084F83C00204600F022F8022084F89D
:102D50003D00211D206802F0FBF9012084F84800A5
:102D600084F83E0084F83F0084F8400084F8410075
:102D700084F8420084F8430084F8440084F8450055
:102D800084F8460084F8470084F83D00002010BD18
:102D900008B51A4A01681A4891420ED1816D41F076
:102DA00020018165806D002200F02000009001214B
:102DB0003720FEF7FBFE372010E0124A914211D176
:102DC000016E41F480310166006E002200F4803013
:102DD000009003211820FEF7E9FE1820BDE8084006
:102DE000FEF7D6BE084A914207D1016E41F4003188
:102DF0000166006E00F40030009008BD0014004031
:102E000000100240004001400044014090F83D1095
:102E1000012901D001207047022180F83D1001688E
:102E2000CA6842F00102CA600068104988420ED0A8
:102E3000B0F1804F0BD00E49884208D00D4988422E
:102E400005D00D49884202D00C49884207D18168DB
:102E50000B4A1140062906D0B1F5803F03D0016826
:102E600041F001010160002070470000002C01408A
:102E700000040040000800400034014000400140D0
:102E8000070001000168CA6822F00102CA600168F7
:102E90000A6A41F211131A4207D10A6A9B001A42C8
:102EA00003D10A6822F001020A60012180F83D1076
:102EB0000020704770B5044690F83C0000250128BA
:102EC00014D0012684F83C60022084F83D0022687A
:102ED0009068364B184020F47F4090600868702856
:102EE0002ED010DC10F00F0F03D021E04FF00200C5
:102EF00070BD4FEA2012072A1AD2DFE802F05252C0
:102F000052524A3840002A4BC21A984249D009DC32
:102F1000B0F5805F0DD0B0F5005F1CD0B0F1101F90
:102F200006D13EE0102A3CD0202A3AD0502A38D090
:102F3000012584F83D60002084F83C00284670BDDF
:102F4000CB68D1E90121206802F06DF92068816821
:102F500041F0770109E0CB68D1E90121206802F056
:102F600062F92068816841F480418160E1E7CA68C4
:102F70004968206802F002FB5021206806E0CA6818
:102F80004968206802F042FB6021206802F056F98F
:102F9000CFE7CA684968206802F0F0FA402120684B
:102FA000F4E7226801461046F0E7000088FFCEFFF4
:102FB0002000100070B54B4A016800264A4C4B4D6A
:102FC00091422DD1007F012824D0022821D1042153
:102FD000474800F011FD4649206509684E62401CD3
:102FE00000EB80010901B5FBF1F100EE101AB8EE1B
:102FF000400A84ED080AE16C491C00EE101AF8EE54
:10300000400A00EE100AB8EE400A80EE801A84ED05
:103010000A1A70BD0021364800F0EEFCE06470BD75
:10302000344A91422DD1007F012824D00228F6D1C4
:103030000421314800F0E0FC2F49A06509684E6288
:10304000401C00EB80010901B5FBF1F100EE101A04
:10305000B8EE400A84ED090A616D491C00EE101AB1
:10306000F8EE400A00EE100AB8EE400A80EE801A30
:1030700084ED0B1A70BD00211F4800F0BDFC606597
:1030800070BDB1F1804FFBD1007F012824D0022810
:10309000F6D10421194800F0AFFC184920660968F0
:1030A0004E62401C00EB80010901B5FBF1F100EE1E
:1030B000101AB8EE400A84ED0C0AE16D491C00EECE
:1030C000101AF8EE400A00EE100AB8EE400A80EE40
:1030D000801A84ED0D1A70BD0021084800F08CFCA8
:1030E000E06570BD000400401400002000B4C4047A
:1030F0003002002000340140C8020020E40100201A
:103100002DE9F041054690F83C0000260C460128C8
:1031100010D0012085F83C0072B1042A1CD0082A86
:103120002CD00C2A50D00126002085F83C003046D7
:10313000BDE8F0810220FBE7D4E90012E3682868CB
:1031400002F02EFA2868816921F00C01816128685B
:103150008169A26811430FE0D4E90012E36828688E
:1031600002F066FA2868816921F44061816128686B
:103170008169A26841EA02218161D5E72868D4E922
:10318000002C277B036A016A21F480710162C16906
:1031900023F4206321F0030141EA0C0121F0F00C3B
:1031A00039074FF420674CEA116107EA02221A43FB
:1031B000C16102622868C16921F00C01C1612868FF
:1031C000C169A26811432BE02868D4E90021E768AF
:1031D000036AD0F820C02CF4805CC0F820C0D0F87E
:1031E0001CC023F420432CF4407C4CEA012121F440
:1031F000704C4FF6FF7101EA07314FF4204741EA66
:103200000C0107EA02321A43C16102622868C169EF
:1032100021F44061C1612868C169A26841EA0221C4
:10322000C16181E710B5040003D094F83D0010B1EE
:1032300007E0012010BD002084F83C00204600F08B
:1032400023F8022084F83D00211D206801F080FF52
:10325000012084F8480084F83E0084F83F0084F898
:10326000400084F8410084F8420084F8430084F868
:10327000440084F8450084F8460084F8470084F848
:103280003D00002010BD000030B587B00446142179
:103290006846FCF7F7FF24680022394902234FF003
:1032A0009040B4F1804F27D0364DAC4244D1886D68
:1032B00040F002008865886D00F002000590C86C3F
:1032C00040F00200C864C86C694600F00200059036
:1032D00010200090CDE901322B48CDE90323FEF701
:1032E000D1FA002204211D20FEF760FC5FF01D00D2
:1032F000FEF74EFC07B030BD8C6D44F001048C65C8
:103300008C6D04F001040594CC6C44F00104CC6491
:10331000C96C009301F001010591CDE90132012151
:10332000CDE903216946FEF7ADFA002211461C20C3
:10333000FEF73CFC1C20DBE7144DAC42DAD10C6EEE
:1033400044F400540C660C6E04F400540594CC6CE8
:1033500044F00104CC64C96C01F0010105914FF403
:1033600000410091CDE901326946CDE90323FEF722
:1033700089FA002204212E20FEF718FC2E20B7E740
:1033800000100240000400400004004800340140E6
:103390002DE9F04104460068C66805694FF0000752
:1033A000A90713D5B10711D5F91E016101202077B6
:1033B000206880698007204602D0FFF7FBFD04E00B
:1033C00000F0E0F8204600F037FA2777680716D5B6
:1033D000700714D521686FF004000861022020777F
:1033E0002068806910F4407F204602D0FFF7E2FD9C
:1033F00004E000F0C7F8204600F01EFA27772807FF
:1034000015D5300713D521686FF008000861042036
:1034100020772068C0698007204602D0FFF7CAFDE8
:1034200004E000F0AFF8204600F006FA2777E8063F
:1034300016D5F00614D521686FF010000861082039
:1034400020772068C06910F4407F204602D0FFF743
:10345000B1FD04E000F096F8204600F0EDF9277782
:10346000E80708D0F00706D021686FF00100086176
:10347000204600F077FA280601D4A80408D53006C3
:1034800006D521686FF4025008612046FFF7ABFBB8
:10349000E80508D5300606D521686FF4807008610C
:1034A0002046FFF79FFB680608D5700606D5216801
:1034B0006FF040000861204600F0B3FAA80608D576
:1034C000B00606D521686FF0200008612046FFF79E
:1034D0008BFBE80208D5F00206D521686FF4801056
:1034E00008612046FFF7D1FBA80208D5B00206D537
:1034F00021686FF4001008612046FFF7C5FB6802E1
:1035000008D5700206D521686FF480000861204656
:10351000FFF7BCFB28020AD5300208D521686FF4FA
:10352000000008612046BDE8F041FFF7FFBBBDE8A1
:10353000F081000010B586B0044614216846FCF7FF
:10354000A1FE0E492068884216D10D48C16C41F099
:103550000101C164C06C694600F001000590402083
:10356000009002200190002002900390012004901E
:103570004FF09040FEF786F906B010BD00440140C0
:10358000001002407047000070B50025044602227A
:1035900069B1042916D0082955D00C295ED010290C
:1035A00063D094F84300012866D0012070BD94F8E0
:1035B0003E000128F9D184F83E202068C26842F01C
:1035C000020209E094F83F000128EED184F83F2080
:1035D0002068C26842F00402C2600122206801F043
:1035E00015FE2B4920682B4A2B4B884209D090426C
:1035F00007D0984205D0294EB04202D0284EB042A2
:1036000003D1466C46F400464664206888420CD0DC
:10361000B0F1804F09D02349884206D02249884220
:1036200003D0904201D0984207D181681F4A1140CF
:10363000062906D0B1F5803F03D0016841F00101B1
:103640000160284670BD94F840000128ADD184F88F
:1036500040202068C26842F00802BDE794F84100AB
:103660000128A2D184F8412008E094F84200012802
:103670009BD184F8422003E084F843200C2901D038
:103680000125DEE72068C26842F01002A4E70000CE
:10369000002C014000340140004001400044014042
:1036A00000480140000400400008004007000100FD
:1036B00070B5044690F83C0000260D4601280BD05A
:1036C000012084F83C000C2A4AD007DC82B1042A8D
:1036D00020D0082A06D131E0022070BD102A53D034
:1036E000142A63D00126002084F83C00304670BDC7
:1036F000206801F0ADFD2068816941F00801816119
:103700002068816921F004018161206881692A694A
:10371000114311E0206801F0E9FD2068816941F45E
:10372000006181612068816921F480618161206884
:1037300081692A6941EA02218161D4E7206801F0A8
:103740001DFE2068C16941F00801C1612068C1699E
:1037500021F00401C1612068C1692A69114311E0A7
:10376000206801F053FE2068C16941F40061C16125
:103770002068C16921F48061C1612068C1692A693A
:1037800041EA0221C161AEE7206801F087FE2068AE
:10379000016D41F0080101652068016D21F004010F
:1037A00001652068016D2A69114311E0206801F06C
:1037B000ADFE2068016D41F4006101652068016D76
:1037C00021F4806101652068016D2A6941EA0221C6
:1037D000016588E710B5040003D094F83D0010B1EE
:1037E00007E0012010BD002084F83C00204600F0D6
:1037F00022F8022084F83D00211D206801F0A8FC79
:10380000012084F8480084F83E0084F83F0084F8E2
:10381000400084F8410084F8420084F8430084F8B2
:10382000440084F8450084F8460084F8470084F892
:103830003D00002010BD70477047000070B50025A6
:103840000446022269B1042916D0082955D00C2952
:103850005ED0102963D094F84300012866D001207F
:1038600070BD94F83E000128F9D184F83E2020680C
:10387000C26842F0020209E094F83F000128EED14C
:1038800084F83F202068C26842F00402C26001222E
:10389000206801F0BBFC2B4920682B4A2B4B884247
:1038A00009D0904207D0984205D0294EB04202D0AC
:1038B000284EB04203D1466C46F400464664206868
:1038C00088420CD0B0F1804F09D02349884206D0FD
:1038D0002249884203D0904201D0984207D18168A2
:1038E0001F4A1140062906D0B1F5803F03D0016878
:1038F00041F001010160284670BD94F840000128A4
:10390000ADD184F840202068C26842F00802BDE7CB
:1039100094F841000128A2D184F8412008E094F8ED
:10392000420001289BD184F8422003E084F8432020
:103930000C2901D00125DEE72068C26842F01002A0
:10394000A4E70000002C0140003401400040014089
:1039500000440140004801400004004000080040CD
:103960000700010070B5054600681D491D4C8842DE
:103970000AD1606E401C3221B0FBF1F2606601FB9F
:10398000120008B903F034F917492868884226D193
:1039900020690A21401CB0FBF1F2206101FB1200FA
:1039A00000281CD11148FFF76DFA0E490122891C2D
:1039B0000F4800F0B1FAE07802280DD10D480178E7
:1039C000412909D14078312806D160780121401C75
:1039D0006070022003F094FB00202061E07070BD55
:1039E0000014004014000020004001401403002097
:1039F000AC030020E00500200246002041B104296C
:103A000009D008290AD00C2901D11068006C704730
:103A10001068406B70471068806B70471068C06B0F
:103A20007047704790F88410012918D0012180F860
:103A300084102421C0F8881001680A680B6823F0FC
:103A400001030B6022F000510022426603681960F6
:103A50002021C0F8881080F884201046704702208A
:103A600070477047704770B5044690F8840001288D
:103A70001DD0012084F884002420C4F88800206828
:103A80000568026822F0010202602068826822F064
:103A900060620A438260204601F0E6FD206805600E
:103AA0002020C4F88800002084F8840070BD022023
:103AB00070BD70B5044690F8840001281DD0012027
:103AC00084F884002420C4F888002068056802680F
:103AD00022F0010202602068826822F060420A43FC
:103AE0008260204601F0C0FD206805602020C4F8F7
:103AF0008800002084F8840070BD022070BD7047EB
:103B0000704770472DE9F04103680446D869196889
:103B10009A6840F60F0528424FF000054FF0020664
:103B20000AD187067ED501F0200702F0805C57EAB3
:103B30000C0777D0616F42E1B64FDFF8DCC2174067
:103B400001EA0C0C57EA0C0C6CD05FEAC07C0CD07C
:103B50005FEAC15C09D54FF0010CC3F820C0D4F86E
:103B6000903043F00103C4F89030830709D5D307A0
:103B700007D023681E62D4F8903043F00403C4F8E1
:103B8000903043070AD5D30708D026680423336250
:103B9000D4F8903043F00203C4F8903003070CD5FA
:103BA00001F020033B4308D0266808233362D4F891
:103BB000903043F00803C4F8903003050BD54B0157
:103BC00009D526684FF400633362D4F8903043F08F
:103BD0002003C4F89030D4F89030002B3DD08006FC
:103BE00009D501F0200002F08051084303D0616F35
:103BF00009B120468847D4F89000216889684906B1
:103C000002D410F0280F2AD0204601F013FE2068BD
:103C1000806840061ED52068083050E8001F21F05B
:103C2000400100E021E040E80012002AF3D1D4F87E
:103C3000800078B179498163D4F88000FDF7D1FC28
:103C400000280AD0D4F88000816B00E02046BDE84F
:103C5000F04108472046FFF754FFBDE8F0812046B9
:103C6000FFF74FFFC4F89050F7E7D4F86CC0202757
:103C7000BCF1010F7ED15FEAC06C7BD55FEAC16CFD
:103C800078D51020186220688068400651D5D4F895
:103C900080100A6850680004000C3ED0B4F85C3014
:103CA00083423AD9A4F85E000868006880062CD4E4
:103CB000216851E8000F20F4807041E80002002ADA
:103CC000F6D12068083050E8001F21F0010140E8DB
:103CD0000012002AF5D12068083050E8001F21F0BA
:103CE000400140E80012002AF5D1C4F88C70E56666
:103CF000216851E8000F20F0100041E80002002A7E
:103D0000F6D1D4F88000FDF737FC2667B4F85C00E4
:103D1000B4F85E10401A81B207E0B4F85C1081423A
:103D20009BD11068800698D526672046FFF799FE3C
:103D300093E7B4F85C00B4F85E10401A81B2B4F8AE
:103D40005E00002889D0002987D0226852E8000F41
:103D500020F4907042E80003002BF6D12D4BDB439A
:103D60002068083050E8002F1A4040E8002CBCF1D1
:103D7000000F00E00EE0F3D1C4F88C70E5666567D3
:103D8000206850E8002F22F0100240E80023002BAA
:103D9000F6D1C9E7C60209D5560207D54FF48010FF
:103DA00018622046BDE8F041FFF7AABE03060AD517
:103DB00001F0800302F40002134304D0A16F002934
:103DC0007FF444AF49E7420611D54A060FD5204695
:103DD000016851E8002F22F0400241E80023002B47
:103DE000F6D1C0F88870856700F0E6F835E7020282
:103DF00006D54A0004D52046BDE8F041FFF77FBE56
:103E0000C00195D5002993DA2046BDE8F041FFF7BF
:103E100029BE000001000010200100042158000804
:103E200010B5040003D0D4F8880010B107E00120D9
:103E300010BD002084F88400204600F027F82420DC
:103E4000C4F888002068016821F001010160A06ABF
:103E500010B1204601F02AFC204601F07DFF012828
:103E6000E6D02068416821F4904141602068816873
:103E700021F02A0181602068016841F001010160A0
:103E80002046BDE8104001F075BC000010B598B0A8
:103E90000446142111A8FCF7F5F944216846FCF703
:103EA000F1F91B492068884230D101200024CDE976
:103EB00000046846FDF712FF08B1FCF70BFE154839
:103EC000016E41F480410166016E01F4804116915A
:103ED000C16C41F00101C164C06C11A900F0010086
:103EE00016904FF4C06011900220CDE91204072013
:103EF000CDE914404FF09040FDF7C4FC00220221B0
:103F00002520FDF753FE2520FDF742FE18B010BD19
:103F1000003801400010024030B4D0F88C30202B23
:103F200002D0022030BC7047A9B1A2B10023C36601
:103F30000A4C0368A3420BD05B681B0208D50468D7
:103F400054E8003F43F0806344E80035002DF6D18B
:103F500030BC02F03BB80120E4E7000000800040E4
:103F600010B500680F4988421BD10F48FEF78AFF41
:103F70000E49C8780A2804D20D4B8A781A54401C7E
:103F8000C870002008610849096848620749012291
:103F9000891C0848FFF7C0FFBDE810400248FEF743
:103FA00035BF10BD0038014014030020140000206C
:103FB000E0050020AC0300207047FEE700B585B0A7
:103FC00014216846FCF75EF9C020009001200190A2
:103FD00002900220039069460248FDF753FC05B0A9
:103FE00000BD00000004004870B50824002501F061
:103FF00017F813E06806050E002000F0F9FF142002
:1040000002F03CFD142002F039FD012000F0F0FF29
:10401000142002F033FD00F0F7FF0543641EE4B204
:10402000E8D2002000F0E4FF142002F027FD01F0A8
:1040300019F8284670BD70B50446082516E000F052
:10404000D7FF142002F01AFD04F0800000F0FEFFFC
:10405000142002F013FD6006040E142002F00EFD81
:10406000012000F0C5FF142002F008FD6D1EEDB226
:104070004FF00000E3D200F0BBFFBDE87040142019
:1040800002F0FCBC10B5012000F0E0FF142002F0AB
:10409000F5FC142002F0F2FC012000F0A9FF14202E
:1040A00002F0ECFC002000F0A3FFBDE8104014205B
:1040B00002F0E4BC10B5012000F0C8FF142002F0AB
:1040C000DDFC012000F094FF142002F0D7FC00205A
:1040D00000F0BCFF142002F0D1FC002000F088FFAB
:1040E000BDE81040142002F0C9BC10B5002000F05B
:1040F0007FFF142002F0C2FC002000F0A7FF142074
:1041000002F0BCFC012000F073FF142002F0B6FCAA
:10411000012000F09BFFBDE81040142002F0AEBC6F
:1041200010B5052400F07CFF142002F0A7FC01204C
:1041300000F05EFF142002F0A1FC05E0641EA4B2B2
:10414000142002F09BFC64B100F05EFF0028F5D162
:1041500000F04EFF00F086FF142002F08FFC0020DC
:1041600010BD00F07FFFFFF7C0FF012010BD000071
:1041700000B585B014216846FCF784F84FF6FF704F
:10418000009000200321CDE9020101906946024818
:10419000FDF778FB05B000BD0008004800B585B00C
:1041A00014216846FCF76EF84FF6FF70009001206E
:1041B0000190032003900020029069460248FDF719
:1041C00061FB05B000BD00000008004870B5002488
:1041D00006462146204600F003F900F041F94FF46D
:1041E0009635304600F010F9641CAC42F9D370BD2E
:1041F00070B586B014216846FCF744F81E48C16CBF
:1042000041F00401C164C16C01F004010591C16C6D
:1042100041F00101C164C16C01F001010591C16C63
:1042200041F00201C164C06C032500F0020005905A
:104230004FF448700124002603958DE8510069462B
:104240000E48FDF71FFB200203958DE851004FF04B
:10425000904469462046FDF715FBFFF79FFFA069D4
:1042600040F48070A06105481830016841F408717D
:10427000016006B070BD000000100240000400485C
:10428000203AD2B2034B02EB420203EB021200F0DF
:1042900019B800009A730008F0B50E4607460025CD
:1042A00040F23F1407E021463846FFF7E9FF103C93
:1042B0006D1CA4B2761C3278002A01D0142DF2D3E2
:1042C000F0BD00002DE9F04791468A4600260446DD
:1042D00000F086F8DFF84080012700BF00F0C0F84A
:1042E0005FF0000539F8160007FA05F1084240466C
:1042F00001D1408800E0008800F086F86D1C102D88
:10430000F0D3641CE4B25146204600F069F8761CF4
:10431000182EE3D3BDE8F0877C00002010B5FFF72E
:1043200067FF002000F014F8084CA080A088A0F5DA
:104330000241303906D000F0EFFC002000F008F810
:10434000A08010BD00F05FFCF7E700007C000020BB
:1043500070B51D490A6842F400720A600A6842F4A6
:1043600080720A60184C103C226842F020022260E1
:10437000164A1060086840F02000086000BF00BFC7
:1043800000BF206840F020002060206840F480706A
:104390002060FFF7EDFE4FF09041886A40F4807096
:1043A000886200BF00BF00BF0848001F006885B2D8
:1043B000886940F480708861FFF7F0FE206840F45F
:1043C00000702060284670BD28040048140800488A
:1043D00001B5BDF800000149488008BD7C000020FF
:1043E00010B50C460146202000F068F82146BDE8D3
:1043F0001040212000F062B801B5BDF8000001496D
:10440000088008BD7C000020134A116841F4007147
:104410001160114910390B6843F480730B600B680D
:1044200043F020030B600D4B1860106840F0200033
:10443000106000BF00BF00BF086840F020000860A7
:10444000086840F48070086000BF00BF00BF0868C3
:1044500040F40070086070472804004814080048C1
:104460001449086840F400700860086840F48070DF
:10447000086010481038026842F0200202600E4BBB
:1044800022221A600A6842F020020A6000BF00BFC0
:1044900000BF016841F020010160016841F48071B2
:1044A000016000BF00BF00BF016841F400710160FE
:1044B000704700002804004814080048184B10B545
:1044C0001A6842F400721A601A6842F480721A6024
:1044D000134A103A146844F020041460114C206010
:1044E000186840F02000186000BF00BF00BF1068CF
:1044F00040F020001060106840F48070106021606F
:10450000186840F02000186000BF00BF00BF1068AE
:1045100040F020001060106840F48070106010BD02
:10452000280400481408004800EB8100006E00F0E9
:10453000F84070478068C0F3C00070478068C0F3DF
:10454000800070478068C0F380007047C06810F436
:10455000406F01D00020704701207047042303EA18
:10456000D15310B518444369C1F3045107248C405A
:10457000A3438A401343436110BD00EB8100016EE9
:1045800021F00041114301667047000030B58BB047
:10459000002408940994202168460A94FBF772FECF
:1045A00022484FF0A041042501604912C0E90114DE
:1045B00085610121C460C0E9044104774477022188
:1045C000016280F82440C462046380F83840C46308
:1045D00080F84040FCF74EFD08B1FCF77BFA08A9D3
:1045E00012480894FCF7C2FA08B1FCF773FA1048B5
:1045F000009006200190072002907F200594CDE9CD
:10460000030569460948FCF71DFB08B1FCF762FA8F
:10461000084800900C20019069460448FCF712FB02
:10462000002801D0FCF756FA0BB030BD8400002002
:104630000008302E2000F01430B589B020216846E3
:10464000FBF720FE19481849002401604912C0E90F
:104650000114C46004250461C0E905450477012103
:104660004177016280F82440C462046380F8381006
:10467000C46380F84040FCF7FDFC08B1FCF72AFA5F
:104680000B4800900620CDE901047F200594CDE978
:10469000030569460548FCF7D5FA002801D0FCF768
:1046A00019FA09B030BD000000010050F0000020F0
:1046B0000080F03E0D4808B5816C41F00401816432
:1046C000816C01F004010091816C41F00101816471
:1046D000806C002200F00100009011460B20FDF7D5
:1046E00065FABDE808400B20FDF752BA0010024001
:1046F000F0B587B014216846FBF7C4FD2D48C16CA6
:1047000041F00401C164C16C01F004010591C16C68
:1047100041F02001C164C16C01F020010591C16C20
:1047200041F00101C164C16C01F001010591C16C4E
:1047300041F00201C164C16C01F002010591C16C3C
:1047400041F00801C164C06C1B4E00F008004FF43A
:104750007F440590012221463046FDF7BCF9174FF2
:10476000012204213846FDF7B6F90125CDE90045BF
:1047700000240294694630460394FDF783F8CDE99E
:10478000005469464FF090400295FDF77BF80720F2
:104790008DE8310069460A48FDF774F8042000905E
:1047A000CDE90154694638460394FDF76BF807B02C
:1047B000F0BD00000010024000080048000C004856
:1047C0000004004870B590B014210AA8FBF75AFD08
:1047D0000024282168460F94FBF754FD34483349E0
:1047E000C0E900147F218160FF21C0E903144FF06C
:1047F00080414461C0E906410462FDF7CDFF08B184
:10480000FCF768F90D268DF828601E258DF82950D3
:104810008DF82A500B940D9400220AA924480E9476
:10482000FEF74AF908B1FCF755F907208DF83C006E
:1048300004208DF83D0006208DF83E0019208DF8EB
:104840003F0000220FA91A48FEF7E6F808B1FCF76E
:1048500041F98DF800608DF8015032208DF802008A
:1048600014480194CDE9050401208DF820000002D0
:1048700009900794002269460D48FEF70FF808B129
:10488000FCF728F928208DF802000B4805904FF41A
:1048900000700990002269460548FDF7FFFF0028D7
:1048A00001D0FCF717F910B070BD000000280040DF
:1048B000BC010020000080800080808010B588B09E
:1048C00000241848009401940294039404940594DD
:1048D00013490694016040F21F31C0E9011440F20F
:1048E000E731C0E9031444618461FEF720FA08B19E
:1048F000FCF7F0F84FF48050009069460948FEF745
:10490000D9FA08B1FCF7E6F8049404A9054806941E
:10491000FEF7BEF9002801D0FCF7DCF808B010BDA6
:10492000004001401403002010B594B01C210DA8D4
:10493000FBF7A8FC34216846FBF7A4FC1F481E497E
:10494000002401604F21C0E9011440F2E731C0E9C1
:10495000031444618461FEF7EAF908B1FCF7BAF880
:104960001648FEF737FF08B1FCF7B4F86020CDE930
:104970000D040F9410941194129400220DA90F4865
:104980001394FEF795FE08B1FCF7A4F800944FF4D9
:104990000050CDE9044001940294039406946946C2
:1049A00006480C94FEF722F908B1FCF793F8034887
:1049B000FEF7C0FD14B010BD0044014060030020AC
:1049C00010B588B000241E48059406940494009401
:1049D000019402944FF08041039401604F21C0E99B
:1049E00001144FF6FF71C0E903148461FEF71AFC4D
:1049F00008B1FCF76FF8049404A911480694FEF777
:104A000047F908B1FCF766F802200090CDE90104EF
:104A1000002269460A480394FEF772FB08B1FCF7CE
:104A200059F80120CDE90040042269460448FEF708
:104A300067FB002801D0FCF74DF808B010BD00005E
:104A4000E401002030B587B000241E480594069488
:104A500004940094019402941949039401604F2135
:104A6000C0E901144FF6FF71C0E903148461FEF739
:104A7000D9FB08B1FCF72EF8049404A91148069458
:104A8000FEF706F908B1FCF725F80225012000958C
:104A9000CDE90104002269460A480394FEF730FB81
:104AA00008B1FCF717F8042269460648CDE900452D
:104AB000FEF726FB002801D0FCF70CF807B030BD4C
:104AC00000040040300200203EB500240F4800944E
:104AD00001940D49029401604F21C0E9011440F294
:104AE000E7318461C160FEF722F908B1FBF7F2FFFC
:104AF0000094694605480294FEF7CAF8002801D0E0
:104B0000FBF7E8FF3EBD0000001400407C020020DF
:104B100030B587B000241F4805940694049400948F
:104B2000019402941A49039401604F21C0E90114D1
:104B30004FF6FF71C0E9031444618461FEF772FB14
:104B400008B1FBF7C7FF0494059404A91148069423
:104B5000FEF79EF808B1FBF7BDFF02250120009586
:104B6000CDE90104002269460A480394FEF7C8FA19
:104B700008B1FBF7AFFF042269460648CDE90045BE
:104B8000FEF7BEFA002801D0FBF7A4FF07B030BD46
:104B900000340140C8020020184810B516490160D1
:104BA0004FF416514160002181600C22C160C0E9C0
:104BB00004128161C161016241628162FFF730F9D3
:104BC00008B1FBF787FF00210C48FEF772FF08B120
:104BD000FBF780FF00210948FEF745FF08B1FBF70E
:104BE00079FF0648FEF71EFF002803D0BDE81040FD
:104BF000FBF770BF10BD000000380140AC0300207F
:104C0000FEE7FEE7704730B501210020FFF756FCB4
:104C10004FF47A70FBF750FF00210120FFF74EFCA4
:104C200041F290711020FFF749FC4FF41C516020B5
:104C3000FFF744FC01216120FFF740FC02214620E0
:104C4000FFF73CFC48F210011320FFF737FC48F255
:104C5000FE011220FFF732FC4FF4A0610220FFF7A3
:104C60002DFC41F230010320FFF728FC40F2033411
:104C700021463020FFF722FC21463120FFF71EFCA1
:104C800021463220FFF71AFCE51E29463320FFF7A4
:104C900015FC03213420FFF711FC21463520FFF7D6
:104CA0000DFC14213620FFF709FC21463720FFF7C1
:104CB00005FC21463820FFF701FC21463920FFF78B
:104CC000FDFB29463A20FFF7F9FB03213B20FFF7C4
:104CD000F5FB21463C20FFF7F1FB4FF4A0513D20AE
:104CE000FFF7ECFB4FF400719220FFF7E7FB214642
:104CF0009320FFF7E3FB40F60D019020FFF7DEFB6A
:104D000041F218010320FFF7D9FBBDE8304040F223
:104D100073110720FFF7D2BB10B543F20801E3205F
:104D2000FFF7CCFB1221E720FFF7C8FB41F231214E
:104D3000EF20FFF7C3FB00210120FFF7BFFB4FF47B
:104D4000E0610220FFF7BAFB41F230010320FFF7D8
:104D5000B5FB00210420FFF7B1FB40F2072108203A
:104D6000FFF7ACFB00210920FFF7A8FB00210A2078
:104D7000FFF7A4FB00210C20FFF7A0FB00210D2072
:104D8000FFF79CFB00210F20FFF798FB002110206C
:104D9000FFF794FB07211120FFF790FB0021122061
:104DA000FFF78CFB00211320FFF788FBC820FCF7DE
:104DB00057FD41F290611020FFF780FB40F2272160
:104DC0001120FFF77BFB3220FCF74AFD1D2112204A
:104DD000FFF774FB3220FCF743FD4FF40061132012
:104DE000FFF76CFB14212920FFF768FB0B212B2018
:104DF000FFF764FB3220FCF733FD00212020FFF792
:104E00005DFB00212120FFF759FB07213020FFF730
:104E100055FB40F207713120FFF750FB062132208D
:104E2000FFF74CFB40F204713520FFF747FB41F6DA
:104E300004713620FFF742FB04213720FFF73EFBC9
:104E400000213820FFF73AFB40F206713920FFF7C6
:104E500035FB40F201713C20FFF730FB0F213D2074
:104E6000FFF72CFB00215020FFF728FBEF215120FA
:104E7000FFF724FB00215220FFF720FB40F23F11F7
:104E80005320FFF71BFB4FF41C516020FFF716FB6C
:104E900001216120FFF712FB00216A20FFF70EFBC2
:104EA00000218020FFF70AFB00218120FFF706FB8D
:104EB00000218220FFF702FB00218320FFF7FEFA8A
:104EC00000218420FFF7FAFA00218520FFF7F6FA87
:104ED00010219020FFF7F2FA00219220FFF7EEFA5E
:104EE00003219320FFF7EAFA4FF488719520FFF72A
:104EF000E5FA00219720FFF7E1FA00219820FFF75B
:104F0000DDFA41F218010320FFF7D8FABDE810409E
:104F100040F273110720FFF7D1BA00000148FDF7F6
:104F20008DBB0000BC010020010901EB810100F0F4
:104F30000F0000EB4100C0B270470022014602E0C2
:104F40000A39C9B2521C0A29FAD2100741EA106084
:104F5000704700002DE9F041044600680025C16853
:104F6000490619D4C16841F08001C160FCF7B8FD61
:104F700006464FF47A78032708E000BFFCF7B0FD3F
:104F8000801B404502D9032584F825702068C0683D
:104F9000400601D4032DF1D12846BDE8F08170B55B
:104FA000044600680025C16821F08001C1602068C6
:104FB00081694FF00306890607D42046FDF7E2FD1C
:104FC00098B184F8256003250FE0816921F0200164
:104FD00081612046FDF7D6FD10B184F825600325D8
:104FE0002068816941F020018161284670BD000080
:104FF00008B1044801E003481030016841F0400165
:10500000016070471804004810B580210348FCF780
:105010005DFD012800D0002010BD00000004004804
:1050200000B585B014216846FBF72CF9802000906C
:10503000002001900120029002200390694602485E
:10504000FCF720FC05B000BD0004004808B104488E
:1050500001E003481030016841F0800101607047B1
:105060001804004800B585B014216846FBF70AF91A
:1050700080200090112001900020029002200390D7
:1050800069460248FCF7FEFB05B000BD000400487D
:105090007047FCF72BBD00B593B038216846FBF78D
:1050A000F1F814210EA8FBF7EDF84FF40070FCF7AF
:1050B000AFFD4FF480700A2103900091402001223F
:1050C000CDE904020220CDE90802CDE90A100790DB
:1050D0000C900D906846FDF78FF808B172B6FEE7A8
:1050E0000F200E9003200F9000201090119012902E
:1050F00002210EA8FCF736FF002801D072B6FEE7A9
:1051000013B000BD0248016841F4700101607047AE
:1051100088ED00E00148FEF73BB9000014030020D1
:105120000148FEF735B90000E40100200148FEF710
:105130002FB90000300200200148FEF729B9000015
:105140007C0200200148FEF723B90000C8020020BD
:105150002DE9F0430268264B264D274E274C4FF091
:105160008049984207D0484505D0A84203D0B042B4
:1051700001D0A04203D122F070074A683A43204F81
:10518000DFF880C0DFF8808098420DD048450BD012
:10519000A84209D0B04207D0A04205D0B84203D0FF
:1051A000604501D0404503D122F44075CA682A43C6
:1051B0004D6922F080022A4302608A68C2620A684E
:1051C0008262984207D0A04205D0B84203D0604521
:1051D00001D0404501D109690163012141610169A3
:1051E000C90703D0016921F001010161BDE8F08325
:1051F000002C014000040040000800400034014041
:1052000000400140004401400048014010B501F059
:105210001F030121046A99408C430462016A9A4089
:105220001143016210BD10B5846842EA032224F4E0
:105230007F440A432243826010BD00008268034B12
:105240001A400A4342F00701816070478FFFCFFF89
:105250002DE9F043056A026A22F001020262436806
:1052600082691C4C25F0020522400C6822F00302E2
:1052700014438A68194E2A43174D194FDFF864C04A
:10528000DFF86490A84207D0B04205D0B84203D0FE
:10529000604501D0484506D122F00808CA6842EAB4
:1052A000080222F00402A84207D0B04205D0B8425A
:1052B00003D0604501D0484505D14D6923F44073C2
:1052C0001D438B692B4343608461496841630262DB
:1052D000BDE8F0838FFFFEFF002C01400034014049
:1052E000004001400044014000480140F0B5056A1B
:1052F000026A22F01002026242688369194C1B4E56
:1053000023400C6823F4407343EA042425F020036F
:105310008D6843EA0513144DA84201D0B04206D16E
:10532000CF6823F0800343EA071323F04003A84229
:105330000AD0B04208D00E4DA84205D00D4DA8426B
:1053400002D00D4DA84207D14D6922F4406242EAD5
:1053500085028D6942EA8502426084614968816301
:105360000362F0BDFF8FFFFE002C014000340140BE
:10537000004001400044014000480140F0B5056A8A
:10538000026A22F4807202624368C269194C1B4EA1
:1053900022400C6822F00302144325F400728D6849
:1053A00042EA0522144DA84201D0B04206D1CF688E
:1053B00022F4006242EA072222F48062A8420AD064
:1053C000B04208D00E4DA84205D00E4DA84202D0E2
:1053D0000D4DA84207D14D6923F4405343EA05130C
:1053E0008D6943EA05134360C4614968C163026281
:1053F000F0BD00008FFFFEFF002C01400034014093
:10540000004001400044014000480140F0B5056AF9
:10541000026A22F4805202624268C369194C1B4E30
:1054200023400C6823F4407343EA042425F400531A
:105430008D6843EA0533144DA84201D0B04206D12D
:10544000CF6823F4004343EA073323F48043A842A0
:105450000AD0B04208D00E4DA84205D00D4DA8424A
:1054600002D00D4DA84207D14D6922F4404242EAD4
:1054700085128D6942EA85124260C46149680164FF
:105480000362F0BDFF8FFFFE002C0140003401409D
:1054900000400140004401400048014030B5056A29
:1054A000026A22F4803202624268036D114C23408A
:1054B0000C681C4325F400330D8943EA05430E4D67
:1054C000A8420BD00D4DA84208D00D4DA84205D0E2
:1054D0000C4DA84202D00C4DA84204D14D6922F4D3
:1054E000803242EA052242600465496881640362B1
:1054F00030BD00008FFFFEFF002C01400034014052
:1055000000400140004401400048014030B5046AB9
:10551000026A22F4801202624268036D114D24F483
:1055200000142B400D6843EA05230D8944EA055415
:105530000D4DA8420BD00D4DA84208D00C4DA842ED
:1055400005D00C4DA84202D00B4DA84204D14D69A4
:1055500022F4802242EA8522426003654968C164E0
:10556000046230BDFF8FFFFE002C0140003401407B
:1055700000400140004401400048014010B5036A6A
:10558000046A24F001040462846924F0F00444EA0B
:10559000021423F00A020A438461026210BD000073
:1055A00070B5056A046A24F0010404628469124E2D
:1055B000B0420ED0B0F1804F0BD0104EB04208D0A8
:1055C0000F4EB04205D00F4EB04202D00E4EB04248
:1055D00003D124F00304144301E044F001041A074A
:1055E00024F0F00444EA126225F00A0301F00A01F3
:1055F00019438261016270BD002C0140000400402B
:1056000000080040003401400040014010B5036A2A
:10561000046A24F010040462846923F0A00324F4D3
:10562000704444EA023243EA01118261016210BD12
:1056300030B5046A056A25F010050562856925F410
:10564000407545EA022222F470454FF6FF7202EAE5
:10565000033224F0A0032A43A02404EA01111943D1
:105660008261016230BD000030B5416EB9B102689F
:1056700091689268C1F342610B4B520F9C5CE5004C
:1056800003F10804A25CB5FBF2F2A0F86A205A5CB0
:10569000615CD200B2FBF1F1A0F8681030BD0121CD
:1056A000A0F86A10F8E700007273000890F828105C
:1056B000090706D501684A68836B22F400421A4341
:1056C0004A6090F82810C90706D001684A68C36A82
:1056D00022F400321A434A6090F82810890706D550
:1056E00001684A68036B22F480321A434A6090F8DA
:1056F0002810490706D501684A68436B22F48022C6
:105700001A434A6090F82810C90606D501688A68CD
:10571000C36B22F480521A438A6090F828108906DD
:1057200006D501688A68036C22F400521A438A6025
:1057300090F82810490611D501684A68436C22F494
:1057400080121A434A60416CB1F5801F06D101688E
:105750004A68836C22F4C0021A434A6090F8281009
:10576000090606D501684A68C06C22F4002202438B
:105770004A6070472DE9F84300260446C0F890605F
:10578000FCF7AEF98046206800684FF0200500075E
:105790006FF07E4713D54346002229042046009728
:1057A00000F09CFC58B1216851E8000F20F0800007
:1057B00041E80002002AF6D1C4F8885021E02068B0
:1057C0000068400722D5434600224FF4800120465E
:1057D000009700F083FCC8B1216851E8000F20F465
:1057E000907041E80002002AF6D12068083050E8A5
:1057F000001F21F0010140E80012002AF5D1C4F891
:105800008C5084F884600320BDE8F883C4F8885085
:10581000C4F88C5044F86C6F666026760020F3E77D
:1058200010B5806A0021A0F85E10A0F85610FEF7AF
:1058300068F910BD10B5026852E8001F21F490719C
:1058400042E80013002BF6D10E4B0268083252E8F2
:10585000001F194042E80014002CF6D1C16E012946
:1058600008D1016851E8002F22F0100241E800231E
:10587000002BF6D12021C0F88C100021C1664167B1
:1058800010BD0000FEFFFFEF10B5B0F86020D0F8AB
:105890008C300168222B04D0886940F008008861B0
:1058A00010BD496A836D11401980816D891C816525
:1058B000B0F85E10491EA0F85E10B0F85E10002926
:1058C000EED1026852E8001F21F4907142E8001303
:1058D000002BF6D10168083151E8002F22F00102B7
:1058E00041E80023002BF5D12021C0F88C100021C5
:1058F00041670167154B02689A420BD05268120249
:1059000008D5036853E8002F22F0806243E80024A2
:10591000002CF6D1C26E012A02D0FEF721FB10BD89
:10592000C166026852E8001F21F0100142E800132E
:10593000002BF6D10168CA69D243D20601D41022E5
:105940000A62B0F85C10FEF78CF810BD00800040D1
:105950002DE9F0470446B0F860600068C569D0F8EA
:1059600000A0D0F80890D4F88C10222905D08169C5
:1059700041F008018161BDE8F087B4F868704FF02C
:10598000000844E02068406AA16D30400880A06DA6
:10599000801CA065B4F85E00401EA4F85E0020687C
:1059A000C569690730D0E9070AD05FEACA5107D54F
:1059B00001210162D4F8900040F00100C4F8900089
:1059C000A8070BD55FEAC97008D0216802200862D9
:1059D000D4F8900040F00400C4F8900068070BD59C
:1059E0005FEAC97008D0216804200862D4F89000EA
:1059F00040F00200C4F89000D4F8900020B1204696
:105A0000FEF77FF8C4F89080B4F85E0000B30FB1E1
:105A1000A806B7D4B4F85E000028ACD0B4F868107B
:105A20008142A8D92068083050E8001F21F0805139
:105A300040E80012002AF5D12A486067206850E843
:105A4000001F41F0200140E80012002AF6D192E741
:105A5000216851E8000F20F4807041E80002002A1C
:105A6000F6D1214A2068083050E8001F114040E874
:105A70000013002BF6D12020C4F88C00C4F87480E9
:105A80004046C4F87080194A216891420BD0496899
:105A9000090208D5226852E8001F21F0806142E81F
:105AA0000013002BF6D1E16E012903D02046FEF74A
:105AB00057FAAFE7E066216851E8000F20F01000C8
:105AC00041E80002002AF6D12068C169C943C9062D
:105AD00001D410210162B4F85C102046FDF7C1FF2B
